:020000040800F2
:10000000E0830020ED0100089D190008D9180008C0
:100010009B190008890F00081D2C00080000000033
:10002000000000000000000000000000490100087E
:10003000A5160008000000008D010008B91F000887
:10004000070200080702000807020008351D000823
:10005000070200080702000807020008070200085C
:10006000070200080702000807020008070200084C
:10007000070200080702000807020008070200083C
:10008000070200080702000807020008070200082C
:10009000B12B000807020008070200080702000849
:1000A000070200080702000807020008070200080C
:1000B00007020008070200081122000807020008D2
:1000C00007020008070200080702000807020008EC
:1000D000070200080702000851270008BD27000892
:1000E00007020008070200080702000807020008CC
:1000F00007020008070200080702000807020008BC
:1001000007020008070200080702000807020008AB
:100110000702000807020008D122000899230008FE
:10012000070200080702000807020008070200088B
:10013000DFF810D000F0A8FA004800479D39000809
:10014000AFF30080E0830020204B19680868B0E816
:10015000F00F80F30988BFF36F8F4FF0000080F33A
:1001600011884EF00D0E7047000000000648006830
:10017000006880F3088862B661B6BFF34F8FBFF3A3
:100180006F8F00DF00BF00BF08ED00E0EFF30980D4
:10019000BFF36F8F0D4B1A6820E9F00F106008B5A0
:1001A0004FF0100080F3118804F000FA4FF00000C7
:1001B00080F31188BDE8084019680868B0E8F00FBE
:1001C00080F30988BFF36F8F704700BF980100204C
:1001D000EFF311804FF0100181F31188704780F325
:1001E00011887047EFF3058070470000064880478C
:1001F00006480047FEE7FEE7FEE7FEE7FEE7FEE70C
:10020000FEE7FEE7FEE7FEE7DD1F0008310100081C
:1002100040EA01039B0703D009E008C9121F08C088
:10022000042AFAD203E011F8013B00F8013B521E08
:10023000F9D27047F0B480EA0102D40F4200B2EB69
:10024000410F02D20246084611464A0042D0C30D71
:10025000DDB2C1F3C752AD1A202D35DAC1F3160154
:1002600041F4000204B15242C5F1200602FA06F13F
:100270002A411044B3EBD05F23D0C4B1012DA0EBD1
:10028000C35009DCF0BC4FF0004202EAC352DBB2BB
:1002900000F5000000F06DB9400000F1807000EB47
:1002A000C350A0F1807040EAD170490009E04908CC
:1002B00041EAC071A0EBC35000F50000400800EB1C
:1002C000C350F0BC00F04CB96142012202EB410185
:1002D000001BF6E7F0BC704781F00041AAE780F010
:1002E0000040A7E780EA010210B502F00043400099
:1002F00022D04A001FD0010E01EB1261C0F356005C
:10030000C2F3560240F4000042F40002A0FB0220B7
:1003100000047F39140400D0401C50EA124001D47C
:100320004000491EC2B20C0604EBD010401C40082D
:10033000802A02D003E0002010BD20F00100002937
:1003400000DA0020184310BD30B480EA010202F048
:10035000004530F0004221F0004013D090B1C30DB1
:10036000D40DC2F31601C0F31600E41A41F40001E3
:1003700040F400027D34914201D3641C00E0490046
:10038000002C02DA30BC002070474FF4000000233C
:10039000914201D3891A034340084FEA4101F7D142
:1003A00051B1914202D14FF0004105E002D24FF02D
:1003B000010101E06FF0010103EBC450284430BC9F
:1003C00000F0CEB82DE9FE4F81EA030404F00044AA
:1003D00021F0004100944FF0000B23F0004350EA5D
:1003E00001045ED052EA03045BD0C3F30A54C1F3A4
:1003F0000A552C44A4F2F3340194A0FB0254C1F337
:10040000130141F48011C3F3130343F4801301FB80
:10041000024400FB034E840A970A44EA815447EAE7
:100420008357A4FB076802958D0A05FB07854FEAF1
:10043000932C04FB0C542705029D4FEA065847EA0B
:100440001637B5EB08056EEB070C870E920E47EAE0
:10045000811742EA8312A7FB0201B6EB0B0164EBA2
:1004600000042B0D43EA0C335E1844EB1C50DA46B3
:100470005146E7FB0201C5F313044FEA0B3343EA8D
:1004800014534FEA0432019C43EA0603A4F10C041E
:100490000294009CCDE900B400F0A8F803B0BDE8D8
:1004A000F08F00200146F9E7C10F80EAE0700844B0
:1004B000CA079623002100F05CB89623002211465B
:1004C00000F057B820F00040C10DC0F3160040F412
:1004D00000007F2901DA00207047962903DCC1F172
:1004E0009601C840704796398840704700F0004236
:1004F00030F000400AD0C10D01F56071C0F3160064
:1005000042EA0151C20840071143704700200146EA
:10051000704701F0004330B421F0004150EA01027D
:1005200006D00A0DA2F56072C1F31301002A02DCA5
:1005300030BC00207047440F44EAC104C100E018F9
:1005400030BC00EBC25000F00BB80000002801DB0B
:10055000C0F10040002901DBC1F100418842704731
:100560000029A8BF7047401C490008BF20F00100C7
:10057000704710B4B0FA80FC00FA0CF050EA0104A5
:1005800004BF10BC704749B1CCF1200421FA04F437
:1005900011FA0CF118BF012121430843A3EB0C0110
:1005A000CB1D4FEA00614FEA102042BF002010BC73
:1005B000704700EBC35010440029A4BF10BC704723
:1005C000401C490008BF20F0010010BC704710B566
:1005D000141E73F1000408DA401C41F10001921866
:1005E0005B411A4301D120F0010010BD2DE9F04D0F
:1005F00092469B4611B1B1FA81F202E0B0FA80F264
:100600002032904600F052F804460F4640EA0A00B5
:1006100041EA0B0153465A46084313D0114653EAA8
:10062000010019D0C8F14002504600F04EF80546CE
:100630000E4650465946424600F038F8084305D069
:10064000012004E020463946BDE8F08D0020054336
:1006500046EAE0762C4337430A986305E40AA0EBA8
:1006600008000022FD0A44EA47540A3002D500205F
:100670000146E9E7010510196941DDE9084500195E
:100680006941BDE8F04DA2E7064C074D06E0E06881
:1006900040F0010394E8070098471034AC42F6D3C9
:1006A000FFF74AFDC4500008E4500008202A04DB8C
:1006B000203A00FA02F1002070479140C2F1200375
:1006C00020FA03F3194390407047202A04DB203AB4
:1006D00021FA02F00021704721FA02F3D040C2F162
:1006E0002002914008431946704770B58C1810F8E5
:1006F000015B15F0070301D110F8013B2A1106D167
:1007000010F8012B03E010F8016B01F8016B5B1E80
:10071000F9D12B0705D40023521E0DD401F8013B5B
:10072000FAE710F8013BCB1A921C03E013F8015BC7
:1007300001F8015B521EF9D5A142D8D3002070BD4B
:10074000002904D0816841F001018160704781680F
:1007500021F0010181607047002904D0816841F4D3
:10076000807181607047816821F480718160704779
:10077000014600208968490700D5012070470146DD
:1007800000208968090700D50120704710B542682C
:100790000E4B1A400C790B6842EA04221343436063
:1007A00082680B4B1A40D1E9024323434C7942EA59
:1007B000440213438360C26A22F47002097C491E1A
:1007C000C9B242EA0151C16210BD0000FFFEF0FF54
:1007D000FDF7F1FF70B5072609290AD9C568A1F10F
:1007E0000A0404EB4404A640B543A3401D43C5607E
:1007F00007E0056901EB4104A640B543A3401D4352
:1008000005611F23072A09D2446B521E02EB8202A4
:1008100093409C4391400C43446370BD0D2A09D220
:10082000046BD21F02EB820293409C4391400C4325
:10083000046370BDC46A0D3A02EB820293409C438C
:1008400091400C43C46270BD816841F00801816031
:100850007047002904D0816841F4A001816070478D
:10086000816821F4A00181607047816841F0040132
:10087000816070472DE9F05F0646DDF828A08946C3
:1008800090460024A6F2B270822802D30120BDE86F
:10089000F09F40F2B275284FDFF8A0B008E028467C
:1008A00001F064F808B13C4400E05C446D1CADB25A
:1008B000B542F4D3A9F1010909F0FF070025DFF8DB
:1008C0008090DFF880B00FE019F8050040F2A32116
:1008D000484304EBC014304601F048F810B1012D34
:1008E00000D15C446D1CADB2BD42EDD3A8F101084E
:1008F00040F2A32008FB00F804EBC810C3EB43113F
:10090000C1EB032100EB0110CAEB0A1100EB8100DF
:100910000B99441801214FF0C05001F091F80120CB
:1009200001F07AF801F046F9204601F0A7FA01F04B
:10093000D5FA0020ABE700000085E2018033E10139
:10094000B85000088051010030B505460C46002D16
:100950000BD0022C09D9A01EC1B2284600F0A0FF7E
:10096000291901F8020D000A487030BD10B50120A8
:1009700001F082F8BDE81040002001F07DB80000D1
:1009800008B50349084400900098008808BD00009D
:10099000006C004008B5034A1044009000980160C4
:1009A00008BD0000006C00402DE9F04788B0074604
:1009B000DDE910A8DDF848900E4614461D460121D9
:1009C000480601F03DF88DF818408DF819508DF863
:1009D0001760ADF814A000248DF81A4001258DF899
:1009E0001B5007948DF8164005A9384600F004FC0A
:1009F0008DF80A408DF80B408DF80C50ADF8004092
:100A0000ADF80240ADF80440ADF80640ADF808403E
:100A10008DF80D50684600F015FB01220221384682
:100A200000F0E0FB14208DF810008DF811808DF897
:100A300012908DF8135004A800F0B2FF08B0BDE882
:100A4000F08738B504460D46204600F00DF8A08822
:100A5000ADF800008DF8035003208DF802006946C0
:100A6000206800F097FE38BD124A0168914201D11A
:100A700004201CE0104A914201D1082017E00F4ADF
:100A8000914201D1102012E00D4A914201D1202063
:100A90000DE00C4A914201D1402008E00A4A9142FF
:100AA00001D1802003E0094A914200D1881501213B
:100AB00000F0D4BF00080140000C014000100140CC
:100AC0000014014000180140001C014000200140BA
:100AD0002DE9FF4F87B00F46DDE9169BDDE9148A4B
:100AE00016461D46079800F0E3F845B1282128680E
:100AF000FFF7A7FF079801F047FD00F0CDFEB8F122
:100B0000000F09D02821D8F80000FFF79AFF0798B6
:100B100001F03AFD00F0C0FEBAF1000F08D0282124
:100B20002868FFF78EFF079801F02EFD00F0B4FE55
:100B3000B9F1000F09D02821D9F80000FFF781FF93
:100B4000079801F021FD00F0A7FEADF81060002627
:100B5000ADF81260ADF81470ADF8166004A90798EE
:100B600001F0A8FD012785B144F00204ADF804604E
:100B7000A888ADF80600ADF80870ADF80A60ADF8C9
:100B80000C6001A9079801F087FCB8F1000F11D0A3
:100B900044F004040420ADF80400A888ADF8060071
:100BA000ADF80870ADF80A60ADF80C6001A90798BF
:100BB00001F072FCBAF1000F11D044F008040820D3
:100BC000ADF80400A888ADF80600ADF80870ADF8DF
:100BD0000A60ADF80C6001A9079801F05DFCB9F15D
:100BE000000F11D044F010040C20ADF80400A888C8
:100BF000ADF80600ADF80870ADF80A60ADF80C600D
:100C000001A9079801F048FC44F00101012207986E
:100C100001F088FC0121079801F025FCBBF1FF0FD2
:100C200011D01898FF280ED0079801F00BFD8DF811
:100C300000008DF801B018988DF802008DF803704F
:100C4000684600F0ADFE0BB0BDE8F08F2DE9FF4126
:100C500080460A9F0C4616461D46404600F028F87E
:100C6000ADF80840ADF804600021ADF80610ADF80D
:100C70000A1001A9404601F01DFD0122114640461F
:100C800001F050FC0121404601F0EDFB404601F02F
:100C9000D9FC8DF800008DF801508DF8027001200C
:100CA0008DF80300684600F07BFEBDE8FF81000080
:100CB0003149884203D10121C01400F0CFBEB0F108
:100CC000804F06D02D49884207D10121022000F033
:100CD000B7BE0121084600F0B3BE2949884203D1BE
:100CE0000121042000F0ACBE2649884203D1012135
:100CF000082000F0A5BE2449884203D1012110201C
:100D000000F09EBE2149884203D10121202000F03D
:100D100097BE1F49884203D10121401400F09EBEB6
:100D20001C49884203D10121C80400F097BE1A492A
:100D3000884203D10121080500F090BE174988427E
:100D400003D10121480500F089BE1549884203D12D
:100D50000121402000F074BE1249884203D10121D4
:100D6000802000F06DBE1049884203D1012180151A
:100D700000F066BE70470000002C014000040040F7
:100D800000080040000C004000100040001400402B
:100D900000340140004C014000500140005401402B
:100DA00000180040001C00400020004030B58BB00F
:100DB00004462078002829D00121022000F032FECC
:100DC000606800F0D3FBA068001D009060780025EB
:100DD00008B30295A06801F0D7FD0190A06801F06A
:100DE00077FE039004958020059006950795089559
:100DF0004FF4405009900A956946606800F035FC50
:100E00000121606800F0A4FB0BB030BD0121084651
:100E100000F008FED4E710200290A06801F0E2FD87
:100E20000190A06801F07AFE0390DBE72DE9F04322
:100E300085B00646DDE90C780C46154699463046E5
:100E400000F058F81CB118212046FFF7FAFD1DB13B
:100E500004212846FFF7F5FDCDF800900020ADF8FD
:100E60000400ADF80600ADF80800ADF80C000C2049
:100E7000ADF80A006946304601F028FDDFF87090B1
:100E8000FF2F20D0B8F1FF0F1DD0304601F06CFECF
:100E90008DF810008DF811708DF8128001208DF8FA
:100EA000130004A800F07CFD4E4506D0012240F25C
:100EB0002441304601F0EEFC05E0012240F22551CC
:100EC000304601F0E7FC4E450BD024B101228021D1
:100ED000304601F0B5FC25B101224021304601F039
:100EE000AFFC0121304601F09FFC05B0BDE8F08366
:100EF000005000401149884203D10121880300F0CD
:100F0000ADBD0F49884203D10121480400F098BDCE
:100F10000C49884203D10121880400F091BD0A499F
:100F2000884203D10121C80400F08ABD07498842E4
:100F300003D10121080500F083BD7047003801404E
:100F40000044004000480040004C00400050004079
:100F500070B504460D461646606800F083FB002815
:100F6000FAD10021606800F0F3FAD4E903010843E4
:100F700000F0E2FA6068C560606846606068BDE8DD
:100F80007040012100F0E4BAFEE700000A4A9142F5
:100F900002D1002181617047C1F313028B0101D599
:100FA000C26070474B0101D502617047090101D54C
:100FB00082607047426070477000F03030B508239F
:100FC00010240422B1F5007F33D011DC20292AD06F
:100FD00007DC012922D0042923D0082900D1C460CC
:100FE00030BD402921D0B1F5807FF9D1426030BDBC
:100FF0000025B1F5004F20D008DCB1F5806F1AD084
:10100000B1F5006FF3D18561426030BDB1F5803F2D
:101010000DD0B1F5003FF8D1446030BD0849816082
:1010200030BDC36030BD036130BD046130BD43607D
:1010300030BD426030BD426030BD8561426030BD30
:1010400001010100F0B5827A01219140304C226803
:1010500042F0010222602E4D1C352A688A432A6024
:101060002B4A067B0C322B4B002E14D116688E4374
:1010700016604688C78846EA0746877A03EBC707A3
:10108000C7F840660688878846EA0746877A03EBF2
:10109000C707C7F84466067B012E14D116680E43B5
:1010A00016604288068842EA0642867A03EBC60644
:1010B000C6F84026C288868842EA0642867A03EB52
:1010C000C603C3F84426124AC37A121D3BB1136803
:1010D0000B4313600E4A0389143223B106E01368F0
:1010E0008B431360F6E713688B4313600389012B6E
:1010F00002D113680B431360407B012802D128689A
:1011000008432860206820F001002060F0BD000046
:1011100000660040006000400246002053690B4218
:101120005DD0B1F5807F4AD016DC082937D009DCC4
:1011300001292CD002292ED0042950D1D0680821B1
:1011400000F0BCB910292ED0202930D0402946D13A
:101150001069102100F0B2B9B1F5004F3BD00CDCA2
:10116000B1F5007F2FD0B1F5806F30D0B1F5006FB1
:1011700035D19069702100F0A1B9B1F5803F1AD046
:10118000B1F5003F2BD15068102100F097B990685D
:10119000134900F093B9D068032100F08FB9D068EB
:1011A000102100F08BB91069032100F087B9106994
:1011B000082100F083B95068082100F07FB99069D8
:1011C000012100F07BB99069022100F077B99069A4
:1011D000042100F073B95068042100F06FB9704722
:1011E00001010100002A03D042690A4342617047AD
:1011F00042698A434261704710B50022036823F0B8
:1012000002030360036843F0010303604FF6FF73BA
:1012100000E0521C4468E40701D19A42F9D14268C7
:10122000D2073ED08A79012A3DD0026822F080029E
:101230000260CA79012A3BD0026822F040020260B3
:101240000A7A012A39D0026822F0200202604A7A22
:10125000012A37D0026822F0100202608A7A012A3D
:1012600035D0026822F008020260CA7A012A33D01F
:10127000026822F0040202608A78CC78920742EA7F
:1012800004620C7942EA04424C79098842EA045229
:10129000491E0A43C261016821F001010160002179
:1012A00020E0002010BD026842F080020260C0E72A
:1012B000026842F040020260C2E7026842F0200287
:1012C0000260C4E7026842F010020260C6E70268EA
:1012D00042F008020260C8E7026842F004020260BD
:1012E000CAE7491C4268D20701D09942F9D1406847
:1012F000C00701D0002010BD012010BD10B500EBCB
:101300000113D3F8B04104F004041472002C2CD063
:10131000D3F8B041E408546003F5D8731C6804F0B6
:10132000020454725C6804F00F0494725C68240A2E
:10133000D4749C68D4729C68240A14739C68240C2E
:1013400054739C68240E9473DC68D473DC68240A9C
:101350001474DC68240C5474DB681B0E937449B15C
:10136000016941F02001016110BDD3F8B041640D65
:101370001460D1E7C16841F02001C16010BD30B5F3
:101380000246002093685B010AD49068000101D5F1
:10139000012005E09068C00001D5022000E0042093
:1013A00004283BD002EB0012D2F8803103F0010395
:1013B000C2F880310B7A93B3D2F880414D681C4358
:1013C0004B7A43EAC5031C43C2F880418B7A03F091
:1013D0000F038B7202F5C072536823F00F03536042
:1013E00053688C7A23435360CB7A8C7B0D7B43EA22
:1013F00004634C7B240444EA052423439360CB7BA1
:101400008C7C43EA04634C7C097C240444EA01217B
:101410000B43D360116841F00101116030BDFFE75B
:10142000D2F880314C7A23430C8843EA4453C2F803
:101430008031CBE70022002904D0012906D00229FF
:101440000BD107E082681848024006E0826817481E
:10145000024002E08268164802401649501A8A4249
:1014600018D007DC92B16FF08060101810D00228FD
:1014700009D113E0B0F5007F12D00F4940180BD00E
:10148000B0F5003F0ED00020C0B270470220FBE74D
:101490000020F9E70020F7E70020F5E70120F3E757
:1014A0000120F1E70120EFE703000004000300083A
:1014B00000000310000100080001FFF702460020B1
:1014C0000A4200D0012070470122064B82400029C9
:1014D00003D018681043186070471868904318606C
:1014E000704700000074004030B5084C236840F697
:1014F000FE7282409343D1E900252A43D1E902518B
:101500000D432A4382401A43226030BD00740040DC
:1015100008B5034A1044083000900098016008BDE7
:101520000074004008B5034A10441430009000983D
:10153000016008BD00740040C10002D50249086086
:1015400070470249486070470404024000000240AE
:10155000002904D0016841F0010101607047016871
:101560004FF6FE72114001607047000001684FF6AF
:10157000FE72114001600021016041608160C16024
:101580003649364A0839904204D1486840F00F0085
:1015900048607047314A1432904204D1486840F0A4
:1015A000F000486070472D4A2832904204D14868C4
:1015B00040F4706048607047284A3C32904204D141
:1015C000486840F4704048607047244A5032904266
:1015D00004D1486840F47020486070471F4A643264
:1015E000904204D1486840F47000486070471B4A3C
:1015F0007832904204D1486840F07060486070478B
:10160000174A111F904204D1086840F00F0008608B
:101610007047134A1432904204D1086840F0F00039
:10162000086070470E4A2832904204D1086840F49E
:101630007060086070470A4A3C32904204D10868E2
:1016400040F4704008607047054A50329042FAD129
:10165000086840F4702008607047000008000240ED
:1016600008040240406880B2704730B5026847F60F
:10167000F0739A430C6A8B682343D1E904452C43E9
:1016800023438C692343CC6923434C6A23438C6AEC
:10169000234313430360CA6842600A688260496852
:1016A000C16030BD704700000149C860704700004C
:1016B0000020024070B505464FF43026304600F059
:1016C00059F8042811D1094C206940F0020020612A
:1016D0006561206940F040002061304600F04AF822
:1016E000216941F6FD721140216170BD0020024068
:1016F00004200849CA68D20701D001207047CA688F
:10170000520701D502207047C968C906FBD50320DE
:1017100070470000002002400248016941F080014A
:101720000161704700200240F0B506460D464FF4B7
:101730000057384600F01EF804280CD1064C2069EA
:1017400040F0010020613580384600F013F821692F
:10175000BA1E11402161F0BD002002400348024939
:101760004160034941607047230167450020024002
:10177000AB89EFCD00B50346FFF7BAFF02E0FFF7F4
:10178000B7FF5B1E012801D1002BF8D1002B00D13F
:10179000052000BD2DE9F0410022CC7804F00F03B4
:1017A000E40601D58C7823430C784FF00F0714F032
:1017B000FF0F4FF0010C1CD005680CFA02F40E88E4
:1017C0002640A64211D1960007FA06F825EA080538
:1017D00003FA06F848EA0505CE78282E02D0482EEE
:1017E00002D002E0446100E00461521C082AE4D304
:1017F00005600A88FF2A1ED94568002202F1080602
:101800000CFA06F40E882640A64210D1960007FA7C
:1018100006F825EA080503FA06F848EA0505CE7831
:10182000282E00D14461CE78482E00D10461521C8C
:10183000082AE3D34560BDE8F0810000F0B5154CFF
:10184000002801DAE36900E06368C0F30346420D53
:10185000120185B2C0F301579540032F07D0C20291
:101860000CD50322B240934343F0706209E023F0A9
:101870007062636823F07063636002E0AB4343F01F
:10188000706201B12A43002801DAE261F0BD6260B2
:10189000F0BD0000000001400121FFF7CFBF0000B4
:1018A00070B5FF22FF23002801D0022902D84FF68D
:1018B000FF7070BD074D05F5807605E010F8014B0F
:1018C00054402A5D5A40335D491EC9B2F6D243EAFC
:1018D000022070BD0C4E000806A30020104C211FF2
:1018E0001A5C22800A885206FCD5401CC0B22A2805
:1018F000F6D3FEE70D0A456E746572204861726486
:101900004661756C745F48616E646C65722C20531F
:10191000797374656D2048616C742E0D0A000000A7
:101920000438014002494CF6CC4008607047000082
:1019300000300040AFF3008002494AF6AA20086058
:1019400070470000003000400149486070470000C7
:1019500000300040014988607047000000300040BE
:10196000014908607047000000300040810701D045
:10197000002070476421B0FBF1F201FB120109B1B4
:10198000012070474FF4C871B0FBF1F201FB120067
:1019900008B10020704701207047FEE77047000043
:1019A00070B50F23C27801260178002A1ED0144A90
:1019B000126802F4E062C2F5E062120AC2F10404A5
:1019C000D3404578A54082781A402A43120101F19C
:1019D000E02181F80024007800F01F018E404009CA
:1019E000800000F1E020C0F8006170BD01F01F0030
:1019F00086404809800000F1E020C0F8806170BD99
:101A00000CED00E0024908430249086070470000FD
:101A10000000FA050CED00E0014908627047000083
:101A200000000E42054A002903D05169014351616B
:101A300070475169814351617047000000100240B6
:101A4000054A002903D0D1690143D1617047D169AA
:101A50008143D1617047000000100240054A00290F
:101A600003D091690143916170479169814391610C
:101A700070470000001002400149086070470000F4
:101A80004004424210B5264A516801F00C01254B32
:101A9000002927D0042927D0082927D003605168BE
:101AA00001F0F0010909204B5C5C0168E1404160F4
:101AB000546804F4E064240A1C5D21FA04F4846090
:101AC000546804F46054E40A1B5DD940C160526854
:101AD00002F44042920B144B1B1F9A5CB1FBF2F1D3
:101AE000016110BD0360DAE70360D8E7516801F4D3
:101AF0007011536803F48033022404EB914133B135
:101B000053689B0307D5094B59430160C7E7074B4F
:101B100059430160C3E7034B59430160BFE700002D
:101B20000010024000127A008601002000093D00EA
:101B3000034600205909094A01290AD002290AD07E
:101B4000516A03F01F02012393400B4200D0012091
:101B500070471168F5E7116AF3E7000000100240D2
:101B6000084900220A7001F82029012805D004281C
:101B700002D1052081F820007047012081F8200063
:101B800070470000201002400149086070470000C3
:101B90003C04424202490A6A02430A62704700005A
:101BA0000010024002490A8882430A807047000000
:101BB000042800400248018841F01001018070476C
:101BC000042800400248018821F01001018070477C
:101BD000042800402DE9F04700F06AF80646304F2F
:101BE000B6FBF7F32F48304D0188994231D003807E
:101BF00040F2B2744FF4B7784FF4B6790FE0204654
:101C0000FFF7B4FE38B1434502D3A3F5B77304E040
:101C1000641CA4B205E0A3F26D13641CA4B24B458E
:101C2000EDD8AC800024DFF884800CE0A888FFF7B2
:101C30009DFE08B1012C2FD018F80400984204D85A
:101C40001B1A641CA4B21C2BF0D2641CAC715B1C6C
:101C5000EB71B6FBF7F007FB10604FF46161B0FB6E
:101C6000F1F22A70B0FBF1F201FB12033C22B3FB4C
:101C7000F2F36B70B0FBF1F301FB1300B0FBF2F178
:101C800002FB1100A870EA79A979A88800F02AF867
:101C900028720020BDE8F0871D2BD6D31D3BD0E76E
:101CA0008051010080010020A8140020B8500008D5
:101CB000034800880249091F098840EA014070472B
:101CC0001C28004006490988C2B21140044A121F6C
:101CD0001288024202D009B10120704700207047EB
:101CE0000428004030B56423B0FBF3F4E4B2B0FB49
:101CF000F3F503FB1500132C01D96430C0B200EBDF
:101D000090030724B3FBF4F504FB1533084D1A4484
:101D10000D4415F8015C2A4492B2800703D10329CF
:101D200001D2521E92B2B2FBF4F004FB102030BD7F
:101D3000AC50000810B50120FFF7C4FF08B1FFF751
:101D400049FF0220FFF7BEFF30B107480168491C78
:101D500001600220FFF726FF0520FFF723FFBDE803
:101D6000104000F0BBB80000B4000020054A002974
:101D700003D011880143118070471188814311807D
:101D8000704700000028004008B503228DF80020AD
:101D90008DF801008DF8021001208DF803006846CF
:101DA000FFF7FEFD08BD00002DE9F05F0646DDF8F7
:101DB00028A0894690460024A6F2B270822802D359
:101DC0000120BDE8F09F40F2B275284FDFF8A0B0C7
:101DD00008E02846FFF7CAFD08B13C4400E05C4437
:101DE0006D1CADB2B542F4D3A9F1010909F0FF07AA
:101DF0000025DFF88090DFF880B00FE019F80500CB
:101E000040F2A321484304EBC0143046FFF7AEFD77
:101E100010B1012D00D15C446D1CADB2BD42EDD3BB
:101E2000A8F1010840F2A32008FB00F804EBC81059
:101E3000C3EB4311C1EB032100EB0110CAEB0A1104
:101E400000EB81000B99441801214FF0C050FFF7BF
:101E5000F7FD0120FFF7E0FD204600F01FF800F03D
:101E60003DF8FFF7B7FE0020ABE700000085E20178
:101E70008033E101B85000088051010000B50246EE
:101E8000FFF798FE0449100C0880081D02805DF8D9
:101E900004EBFFF797BE00002028004000B5024683
:101EA000FFF788FE0449100C0880081D02805DF8C9
:101EB00004EBFFF787BE00001828004000B502467B
:101EC000FFF778FE0449C2F303400880081D028032
:101ED0005DF804EBFFF776BE082800400248018851
:101EE0008906FCD57047000004280040044801889A
:101EF00021F00801018001880907FCD57047000026
:101F000004280040AFF300800CB50022019200923B
:101F10002748016841F4803101604FF4A0630168F3
:101F200001F4003100910199491C0191009911B906
:101F300001999942F3D10168890302D501210091E9
:101F400000E000920099012930D11A490A6842F054
:101F500010020A600A6822F003020A600A6842F06E
:101F600002020A604168416041684160416841F491
:101F700080614160416821F47C114160416841F415
:101F8000E8114160016841F08071016001688901D8
:101F9000FCD5416821F003014160416841F0020134
:101FA00041604168C1F381010229FAD10CBD0000F2
:101FB000001002400020024010B5FEF709F902F0BF
:101FC000DDFD18B104494FF080500860BDE81040B5
:101FD0000020FEF704B9000004ED00E010B50F4842
:101FE000016841F00101016041680D4A1140416002
:101FF00001680C4A11400160016821F480210160F0
:10200000416821F4FE0141604FF41F018160FFF738
:1020100079FF05494FF00060086010BD00100240D4
:102020000000FFF8FFFFF6FE08ED00E070B5048C3D
:1020300024F001040484058B048C25F0F3054FF68D
:10204000FF7606EA031313432B43104A90420ED047
:102050000F4A90420BD0B0F1804F08D00D4A904209
:1020600005D00D4A904202D00C4A904205D124F08E
:1020700002020A4342F0010104E024F00A020A438A
:1020800042F001010383018470BD0000002C014077
:10209000003401400004004000080040000C0040F3
:1020A000F0B5048C24F010040484068B048C4FF6E5
:1020B000FF7505EA011726F4734605EA0333334337
:1020C00005EA02221A43104B98420ED00F4B984259
:1020D0000BD0B0F1804F08D00D4B984205D00D4B7E
:1020E000984202D00C4B984205D124F0200139438C
:1020F00041F0100104E024F0A0030B4343F0100171
:1021000002830184F0BD0000002C01400034014036
:102110000004004000080040000C0040F0B5048CB2
:1021200024F480740484858B048C4FF6FF7707EACF
:10213000012625F0F30507EA031313432B43104A46
:1021400090420ED00F4A90420BD0B0F1804F08D091
:102150000D4A904205D00D4A904202D00C4A90425E
:1021600005D124F40071314341F4807104E024F47A
:1021700020620A4342F4807183830184F0BD000031
:10218000002C0140003401400004004000080040E1
:10219000000C0040F0B5048C24F480540484868B39
:1021A000048C4FF6FF7505EA013726F4734605EAFD
:1021B0000222324305EA03331343104A90420ED001
:1021C0000F4A90420BD0B0F1804F08D00D4A904298
:1021D00005D00D4A904202D00C4A904205D124F419
:1021E0000051394341F4805104E024F402420A438F
:1021F00042F4805183830184F0BD0000002C014033
:10220000003401400004004000080040000C004081
:102210002DE9F047DFF8A8A00121504600F02FF982
:10222000284C294D38B1216809B1491C2160296821
:1022300009B1491C29600221504600F020F9204EC6
:102240000027DFF888804FF001092436B0B12168FB
:1022500081B130886081491EC1EB01406189084429
:102260002189401AE060B8FBF0F0FEF726F96060C3
:10227000276003E030882081C4F800900421504694
:1022800000F0FDF8B0B1296881B130886881491E3D
:10229000C1EB0140698908442989401AE860B8FB0C
:1022A000F0F0FEF70AF968602F6003E030882881BB
:1022B000C5F800905046BDE8F047072100F0D0B8BF
:1022C000000800400806002018060020A086010033
:1022D00070B5224D0121284600F0D1F8C0B3204C42
:1022E000207820490A2801D3087828B120780A28C4
:1022F0002ED2087818B12BE00120087028E001F0F8
:102300004BFA194800681949227841F82200184808
:1023100000681849227841F8220017480168174AD6
:10232000207842F82010164800681649227841F8B3
:102330002200154800681549227841F82200144807
:1023400000681449227841F822002178491C217044
:102350002846BDE87040012100F082B8001000401E
:1023600015000020140000201C0000201004002094
:1023700020000020380400202400002060040020F9
:1023800028000020880400202C000020B004002039
:1023900030000020D804002070B5224D01212846CD
:1023A00000F06DF8C0B3204C207820490A2801D3F2
:1023B000087828B120780A282ED2087818B12BE0A6
:1023C0000120087028E001F03DFA19480068194919
:1023D000227841F82200184800681849227841F80C
:1023E000220017480168174A207842F82010164842
:1023F00000681649227841F82200154800681549FE
:10240000227841F82200144800681449227841F8E3
:1024100022002178491C21702846BDE87040012126
:1024200000F01EB800140040170000201600002025
:10243000340000200005002038000020280500207E
:102440003C000020500500204000002078050020BE
:1024500044000020A005002048000020C8050020FE
:10246000C94301827047002904D0018841F001016D
:1024700001807047018821F0010101807047024608
:102480000020138A0B4092890A40002B02D0002AB8
:1024900000D001207047000070B505460C461D486D
:1024A000854209D01C48854206D0B5F1804F03D043
:1024B0001A48854200D01A4820886188A28823895A
:1024C00060B1042813D008281AD02846FFF762FE0E
:1024D000E1882846BDE8704000F04AB82846FFF77A
:1024E000A5FDE1882846BDE8704000F025B82846E3
:1024F000FFF7D6FDE1882846BDE8704000F024B81B
:102500002846FFF70BFEE1882846BDE8704000F042
:1025100027B80000002C01400034014000040040B6
:1025200000080040002A03D082890A438281704754
:1025300082898A4382817047028B22F00C020283D7
:10254000028B0A4302837047028B22F440620283AB
:10255000028B4FF6FF7303EA01210A43028370479F
:10256000828B22F00C028283828B0A438283704723
:10257000828B22F440628283828B4FF6FF7303EAE0
:1025800001210A438283704701461D4A914201D1CD
:102590001C487047B1F1804F04D01B4A914203D1CF
:1025A0001A4870471A4870471A4A914201D1881454
:1025B0007047194A914201D118487047184A914210
:1025C00001D118487047184A914202D1154820306D
:1025D0007047164A914202D1124860307047144A3F
:1025E000914201D113487047134A914202D10D48DC
:1025F000E0307047114A9142FBD11148704700000A
:10260000002C0140C000160000040040000C1A001D
:102610000003180000080040000C004001002000EA
:10262000004C014020000080005001400054014057
:102630000018004000100080001C004000200040F6
:10264000000200800146B1F1804F04D0124A91424D
:1026500003D11D2070471C207047104A914201D1C0
:102660001E2070470E4A914201D1322070470D4A18
:10267000914201D1362070470B4A914201D1372057
:1026800070470A4A914201D119207047084A914285
:10269000FBD12C20704700000004004000080040DF
:1026A000000C00400010004000140040002C0140CD
:1026B0000034014030B502881B4C1C4DA0420DD0A7
:1026C000A8420BD0B0F1804F08D0194B984205D0EA
:1026D000184B984202D0184B984203D122F0700355
:1026E0004A881A43154B984206D0154B984203D09E
:1026F00022F44073CA881A4302808A8882850A8835
:102700000285A0420AD0A84208D00E4A904205D0C5
:102710000D4A904202D00D4A904201D1097A0186B9
:102720000121818230BD0000002C014000340140B5
:102730000004004000080040000C00400010004071
:1027400000140040004001400044014000480140A6
:1027500070B5164D40F22441284600F07BF8002861
:1027600023D02888281D0088114E00213046FEF70E
:10277000EFFE3046FEF776FFC0F1400084B24FF422
:10278000C000FEF7D9FE0A4940206C3908670121D4
:102790003046FEF7DDFE002C07D00649284601F042
:1027A000A9F805480168491C016070BD004400405B
:1027B0006C00024095000020B000002070B5164D5E
:1027C00040F22441284600F045F8002822D028880D
:1027D000281D0088114E00213046FEF7B9FE304614
:1027E000FEF740FFC0F5007084B26020FEF7A4FE43
:1027F0000A4968151C39C86501213046FEF7A8FE54
:10280000002C07D00649284601F0E4FC0548016881
:10281000491C016070BD0000004800401C000240DF
:102820008C000020B0000020002904D0818941F4F0
:10283000005181817047818921F400518181704765
:10284000002A03D0828A0A4382827047828A8A439E
:102850008282704770B5002440F66A12C1F34213B9
:1028600001F01F05012606FA05F2012B0CD0022B00
:102870000DD0838A1340090A8E40008830400BB186
:1028800000B10124204670BD83891340F3E7038A19
:102890001340F0E710B540F66A13C1F3421301F09C
:1028A0001F040121A140012B07D0022B07D01430B7
:1028B0003AB102680A43026010BD0C30F8E71030EC
:1028C000F6E702688A43026010BD000030B585B0AB
:1028D00004460D46208A4CF6FF710840E988014302
:1028E0002182A0894EF6F3110840A9882A89114354
:1028F0006A8902431143A181A08A4FF6FF41084033
:10290000A9890143A1826846FFF7BCF81D488442AB
:1029100001D1039800E00298A189090408D500EBD1
:10292000C00101EB001029684900B0FBF1F007E09D
:1029300000EBC00101EB001029688900B0FBF1F049
:102940006422B0FBF2F109010B096FF018056B432B
:1029500000EB8300A3891D044FF0320307D503EB7E
:10296000C000B0FBF2F000F00700084306E003EB04
:102970000010B0FBF2F000F00F000843208105B01A
:1029800030BD00000038014001460D4A914201D19E
:102990000C4870470C4A914201D10C4870470C4AD0
:1029A000914202D10948403070470A4A914201D110
:1029B00009487047094A9142FBD109487047000015
:1029C000003801402806002000440040280700206D
:1029D00000480040004C00406809002000500040C2
:1029E000680B002001460D4A914201D10C48704706
:1029F0000C4A914201D10C4870470C4A914202D1D5
:102A00000948403070470A4A914201D1094870474D
:102A1000094A9142FBD10948704700000038014043
:102A2000680D002000440040680E0020004800406F
:102A3000004C0040A810002000500040A8120020C8
:102A4000F0B502461C4C1D4B1D4D1E4E1E4F8029DD
:102A500005D0402902D1A2421AD11C48F0BDA242A1
:102A600002D11A486438F0BD9A4202D11748503852
:102A7000F0BDAA4202D115483C38F0BDB24202D1A5
:102A800012482838F0BDBA42FCD110481438F0BDC5
:102A90009A4202D10D481430F0BDAA4202D10B482F
:102AA0002830F0BDB24202D108483C30F0BDBA42F5
:102AB000FCD106485030F0BD0038014000440040D1
:102AC00000480040004C0040005000401C01002025
:102AD00001460D4A914201D1801570470B4A91423F
:102AE00001D1402070470A4B5A15994201D1104636
:102AF0007047084B994201D110467047064B9942E6
:102B0000FBD11046704700000038014000440040EF
:102B100000480040004C00400050004001460D4A73
:102B2000914201D1801570470B4A914201D140205A
:102B300070470A4B5A15994201D110467047084B0D
:102B4000994201D110467047064B9942FBD110467D
:102B50007047000000380140004400400048004039
:102B6000004C00400050004001460C4A914201D107
:102B7000252070470A4A914201D126207047094A10
:102B8000914201D127207047074A914201D1342058
:102B90007047064A9142FBD135207047003801400A
:102BA0000044004000480040004C004000500040FD
:102BB00010B586B0144C02212046FEF7ADFA00286D
:102BC00020D004212046FEF7F9F910492046FEF7EF
:102BD000DDF901AA00212046FEF790FB0198A0F53F
:102BE0000070093806D0012808D1094901A800F071
:102BF0000CFB03E0074901A800F007FB0648016849
:102C0000491C016006B010BD00640040080000329D
:102C10007C00002084000020AC000020FEE730B5DE
:102C200005460C46002D01D0022C01D8002030BDF5
:102C3000A01EC1B22846FEF733FE2919C2B211F810
:102C4000023C9A4206D111F8011CB1EB102F01D1C0
:102C5000012030BD002030BD02E008C8121F08C1AD
:102C6000002AFAD170477047002001E001C1121F0D
:102C7000002AFBD17047000070B50124064E074DB5
:102C800006EB840105EB4400022200F00BFA641C01
:102C9000E4B2042CF4D370BD2002002000300308FD
:102CA00070B50024064E074D06EB840105EB440089
:102CB000022200F00FFA641CE4B2042CF4D370BDBD
:102CC000200200200030030810B500F0E9FC00F0FD
:102CD0000BF800F0DBF800F029F9BDE810400148DE
:102CE000FEF7D0BE0C02002010B50C480221016096
:102CF000002141608160C16002220949094800F059
:102D0000D1F907480078FF2803D0BDE81040FFF74D
:102D1000B3BFBDE81040FFF7C3BF00002002002092
:102D2000000000200030030810B50A21144800F00C
:102D300079FE144908600A21134800F073FE134914
:102D400008600A21124800F06DFE124908600A214D
:102D5000114800F067FE114908600A21104800F090
:102D600061FE104908600A210F4800F05BFE0F4920
:102D700008600F49002008700E49087010BD00005F
:102D8000100400204C0000203804002050000020D7
:102D90006004002054000020880400205800002017
:102DA000B00400205C000020D80400206000002057
:102DB000140000201500002010B50A21144800F06E
:102DC00031FE144908600A21134800F02BFE134914
:102DD00008600A21124800F025FE124908600A2105
:102DE000114800F01FFE114908600A21104800F048
:102DF00019FE104908600A210F4800F013FE0F4920
:102E000008600F49002008700E49087010BD0000CE
:102E10000005002064000020280500206800002034
:102E2000500500206C000020780500207000002074
:102E3000A005002074000020C805002078000020B4
:102E4000160000201700002008B501F091FE009048
:102E50000C4C0D4D0221684601F0C0FA207818B1E3
:102E6000FFF762FF01F08EFA287818B1FFF7A4FF90
:102E700001F088FA207829780843EBD101F082FA32
:102E8000E8E7000014000020160000201FB5002015
:102E90000649CDE9011005220346009203904FF444
:102EA000807203A1034801F0DBFD1FBD3C0200203E
:102EB00041444300492E000808B501F059FE009036
:102EC000154F0026DFF85480154D32240521684641
:102ED00001F084FA00F042F8686800F0ABF9A868E5
:102EE00000F0BCF90F49384600F048F9287810B1D5
:102EF000FFF7D6FE2E70E968B1FBF4F004FB10106A
:102F000020B905220849404600F016FDFEF712FDE3
:102F1000E868401CE860D9E70064004000440040D5
:102F200004000020F0050020900000201FB50020C4
:102F30000649CDE9011006220346009203904FF4A2
:102F4000007203A1044801F08BFD1FBD3002002078
:102F5000494E505554000000B92E000802488168BF
:102F6000491D816070470000300200200D4B811820
:102F7000994201D90320704712B10123002109E0D1
:102F8000002070470378FF2B01D0022070470023F8
:102F9000401C491C9142F5D3012B01D00120704700
:102FA00000207047000004086FF30A00704710B556
:102FB0004FF44070FEF726FDBDE81040AFF30080EF
:102FC0007CB5002401214FF0C050FEF739FD0120EF
:102FD000FEF722FD0420FDF7D3FC45F25105A8427F
:102FE0004FD0FDF7C3FC0120FEF7BAFD04E0641CDE
:102FF000E4B20A2000F046F94120FEF799FD0028CE
:10300000F5D0FA2C01D301207CBD4FF48070FEF77F
:10301000C1FD0120FEF7B8FDFEF760FFFEF766FF79
:1030200001210220FEF7A2FEFEF758FFFEF7C2FDC7
:103030000020FEF733FFFEF751FF47F6FF70FEF763
:103040003DFFFEF74BFF00200224CDE9004040F297
:10305000E7760B23092205213046FEF7A5FE142151
:10306000CDE900410B23092205213046FDF702FC82
:10307000FEF734FFFEF7A6FD29460420FDF78AFC83
:1030800007E0FEF733FF01210220FEF76FFEFEF797
:1030900025FF00210320FEF777FEFEF79BFD0020B1
:1030A0007CBD000010B50A4C8318A34201D9012051
:1030B00010BD0AB1002306E0012010BD10F8014B3D
:1030C00001F8014B5B1C9342F8D3002010BD0000B7
:1030D000000004082DE9F0410746884616460425FD
:1030E0002549B819884202D90120BDE8F0811EB1F6
:1030F000F00703D00120F8E70020F6E7324641460A
:103100003846FFF733FF044654B1012080F310889E
:10311000FEF724FB3520FEF7C7FA022C02D00BE0A5
:103120000020E2E73846FFF73FFFFEF7C3FA054607
:10313000042D01D00220D8E700240EE018F8140076
:1031400008EB4401497840EA01213846FEF7ECFAE1
:103150000546042D04D1BF1C641CB4EB560FEDD3FF
:10316000FEF7DAFA002080F31088042D01D0022047
:10317000BBE70020B9E7000000000408F0B585B007
:10318000064600240868009000208DF808008DF89D
:10319000090008208DF80A008888000A8DF80B00C5
:1031A00088888DF80C00C888000A8DF80D00C88842
:1031B0008DF80E000889000A8DF80F0008898DF837
:1031C00010004889000A8DF8110048898DF8120016
:1031D00069463046FEF7D3F8074640F6FF7503E030
:1031E000641CA4B2AC4205D239463046FEF722F93F
:1031F0000028F5D005B0F0BD30B5DDE9034501602C
:103200008280C3800481458130BD027BC37A42EA5B
:1032100003220A80827B437B42EA03224A80027CAB
:10322000C37B42EA03228A80827C407C42EA0020FF
:10323000C880704710B50749FDF786F80649FDF7C5
:1032400051F8FDF73FF981B2BDE810400020FEF7CC
:103250005FB900003333534000F07F4510B5074994
:10326000FDF772F80649FDF73DF8FDF72BF981B23D
:10327000BDE810400020FEF755B90000333353403D
:1032800000F07F4510B50022044C04E02146491EA1
:103290004B1CFCD1521C8242F8DB10BD40190100CE
:1032A00030B591B001210846FEF7BCFB484D2846D9
:1032B000FEF75CF9474801904748029000240394C8
:1032C0003C210491059480210691490007918800D2
:1032D00008902020099000020A900B9401A928462A
:1032E000FEF7C3F901212846FEF732F90121480211
:1032F000FEF7B4FB00213948FDF7A3FB0021384855
:10330000FDF79FFB00213748FDF79BFB0021364866
:10331000FDF797FB00213548FDF793FB002134486A
:10332000FDF78FFB0C9401208DF834008DF83500EB
:103330004FF460200E900F9406208DF84000254C2D
:103340000CA94C3C2046FDF721FA07230122062157
:103350002046FDF73FFA0723022219462046FDF7D3
:1033600039FA0723032208212046FDF733FA072301
:10337000042209212046FDF72DFA072305220E21FC
:103380002046FDF727FA072306220F212046FDF7E6
:1033900021FA01212046FDF7DFF901212046FDF742
:1033A000CFF92046FDF750FA2046FDF7E8F900284E
:1033B000FAD12046FDF759FA2046FDF7D9F9002841
:1033C000FAD101212046FDF744FA11B030BD0000CA
:1033D000080002404C240140700200203C500008CC
:1033E000445000084C500008545000089C500008FD
:1033F000A450000830B591B001210220FEF712FB65
:10340000484D2846FEF7B2F84748019047480290D9
:10341000002403943C2104910594802106914900E5
:103420000791880008902020099000020A900B94D0
:1034300001A92846FEF719F901212846FEF788F868
:103440000121C803FEF70AFB00213948FDF7F9FA0C
:1034500000213848FDF7F5FA00213748FDF7F1FA69
:1034600000213648FDF7EDFA00213548FDF7E9FA6D
:1034700000213448FDF7E5FA0C9401208DF8340062
:103480008DF835004FF460200E900F9406208DF8D3
:103490004000254C0CA94C3C2046FDF777F907234A
:1034A000012200212046FDF795F907230222012180
:1034B0002046FDF78FF9072303220A212046FDF756
:1034C00089F9072304220B212046FDF783F90723FE
:1034D00005220C212046FDF77DF9072306220D2148
:1034E0002046FDF777F901212046FDF735F9012146
:1034F0002046FDF725F92046FDF7A6F92046FDF701
:103500003EF90028FAD12046FDF7AFF92046FDF735
:103510002FF90028FAD101212046FDF79AF911B0C0
:1035200030BD0000580402404C3C0140E80200203D
:103530000C500008145000087C500008845000080B
:103540008C5000089450000808B500210091032316
:10355000632240F60F61FDF779FB08BD00B585B029
:1035600000210622CDE90212019104910549009142
:10357000A1F1080340F2CF224FF6FF71FDF7A8FA40
:1035800005B000BDA40000203EB505460C46012153
:103590000846FEF763FA18210B48FDF752FA482156
:1035A0000A48FDF74EFA01214FF4EA10FEF746F9FA
:1035B000CDE901540220009007230822002104488D
:1035C000FDF7F2F93EBD0000745000086C50000891
:1035D000006400401FB501214807FEF731FA0021C1
:1035E0000A48FDF72EFA0020009001900290022078
:1035F000039069460020FDF777FF01210020FDF7C9
:1036000063FF00210846FDF783FF1FBD2C50000813
:103610001FB501214807FEF713FA00210A48FDF7FC
:1036200010FA002000900190029002200390694659
:103630001020FDF759FF01211020FDF745FF002163
:103640000846FDF76FFF1FBD345000087CB50546E6
:10365000DDE90640CDE900402846FDF7E7FB802183
:103660002846FFF7EDF9FDF7A1FB40212846FFF7BB
:10367000E7F9BDE87C40FDF799BB70B505460C46FF
:1036800045F25550FEF76CF92846FEF75DF92046E5
:10369000FEF760F9FEF750F9BDE87040FEF742B959
:1036A0002DE9FC41FFF7FCFDFFF7A4FE1E48FFF7E4
:1036B0004BFF1E48FFF748FF1D48FFF74FFFFFF77E
:1036C00089FFFFF7A5FF00210220FFF75DFF40F211
:1036D0007D5440F61D06CDE9006440F22A3740F2E1
:1036E0007F753B462A4640F20A211248FFF784FDC7
:1036F000CDE9005623463A4640F209210E48FFF72D
:103700007BFD00200421CDE900104FF4E1330B4A8A
:103710000B490C48FFF79AFFBDE8FC4140F27121CC
:103720000420FFF7AABF0000001000400014004072
:1037300000080040F0050020FC050020245000088F
:103740001C5000080044004010B5002821D0114B47
:103750000022001F196803E0814203D80A46496825
:103760000029F9D152B11368841A9C4204D100682F
:1037700018441060104602E0506000E0186039B153
:1037800002680B1A934203D10B681A44026049681D
:10379000416010BD04020020F0B587B0002600256E
:1037A0001F4F002404EB440007EB800030F81500A5
:1037B000FCF783FE3146FCF73DFD0646641CE4B28F
:1037C0000A2CEFD317493046FCF78CFD01A941F8CC
:1037D000250000266D1CEDB2062DE2D3124901989A
:1037E000FCF780FD114C606011490298FCF77AFDEE
:1037F000A06010490398FCF775FDE0600E4904983D
:10380000FCF770FD20610D490598FCF76BFD6061C8
:103810000B490698FCF766FDA06107B0F0BD0000FB
:1038200070020020CDCCCC3D6109963D18000020EF
:10383000810C483EFDD22F41010A203BC5491C4165
:103840006740533AF0B587B000260025214F002489
:1038500004EB440007EB800030F81500FCF72DFE68
:103860003146FCF7E7FC0646641C0A2CF0DB3046C8
:10387000FCF73CFE184A194BFCF7A4FDFCF749FE87
:1038800001A941F8250000266D1C062DDFDB144937
:103890000198FCF727FD134CE06113490298FCF7EF
:1038A00021FD206211490398FCF71CFD6062104D58
:1038B00004982946FCF716FDA06229460598FCF7F6
:1038C00011FDE06229460698FCF70CFD206307B065
:1038D000F0BD0000E80200209A9999999999B93FA2
:1038E000010FF03C180000203989133E365C43403C
:1038F0006740533A70B50D46FFF746F80446207806
:10390000C52818D16078642815D1A178201F085CDB
:10391000A92810D1E01E085CD4280CD12046FFF75E
:103920007EF9002807D00022A018C078A854521CA5
:10393000D2B2052AF8D370BD2DE9F04107460D46F5
:1039400016463846FFF74EF80446AD212170B521E2
:10395000617000220321A270002006E00A462B5C61
:10396000491CC9B2A354401CC0B2B042F6D30D22C8
:10397000481CC0B26254AA21421C2154921CD1B2EC
:10398000A1702046FCF7E0FF80213846FFF758F889
:10399000A2782146BDE8F041FDF7DABA10B5002063
:1039A00080F31088FFF703FBFFF78EF900F02AFE83
:1039B00000F0C6FD002010BDF0B50B30154D20F015
:1039C00007010024144A0FE003688B420BD38B429B
:1039D00005D95E1A43184768C3E9006700E04368E9
:1039E000136002C004E0021D10680028ECD12046DC
:1039F000002802D1286808B10020F0BD064A074817
:103A00001060074A121A22F00702C0E900240120C0
:103A10002860D7E70802002004020020E479002093
:103A2000E07B00202DE9F05F054688464FF0000955
:103A30004FEA8800FFF7C0FF0446002005E055F874
:103A4000201044F82010401CC0B24045F7D3002796
:103A5000A8F1010A1AE00025A8EB070BABF1010B56
:103A600010E06E1C54F8250054F82610FCF76EFD8B
:103A700007D254F8250054F8261044F8251044F8CD
:103A80002600F5B2AB45ECDC7F1CFFB25745E2DB0C
:103A9000012507E054F825104846FCF7CBFB81468A
:103AA0006D1CEDB25545F5DBA8F10200FCF7FCFCFE
:103AB00001464846FCF748FC05462046FFF744FE11
:103AC0002846BDE8F09F000070B504460B4D2868FD
:103AD0004460E868844206D22968686B091DBDE825
:103AE000704000F0ADBB2968286B091D00F0A8FBF1
:103AF000A86A844200D2AC6270BD00009801002028
:103B000070B5002908D00D467DB14C2000F0FAFABE
:103B1000044634B1256309E0800000F0F3FA05465D
:103B2000F2E7284600F0E0FB00E00024204670BDEC
:103B300010B500F0A9FB0E4C206888B90D4800F0C4
:103B400071FB0C48143000F06DFB0A48A060143083
:103B5000E060002210210A2000F09CFD206018B1D6
:103B6000BDE8104000F0ACBBFCF732FBFEE7000004
:103B7000D0010020B815002070B5124E124D1CE087
:103B800000F00CFD306820B1002401F091F8A4B9D8
:103B900001E00124F9E700F077FBF068C468201D1C
:103BA00000F02EFBA868401EA8606868401E686090
:103BB00000F086FB204600F04CF868680028DFD152
:103BC00070BD0000901500209801002030B40B4615
:103BD000026C002A0CD0C1681144C1604468A14243
:103BE00001D30168C160C16830BC1846FCF710BB46
:103BF00030BC704770B5044615460026226C002A7A
:103C000022D07DB1E068FCF703FBE168206C091A63
:103C1000E1602268914202D26168081AE060022DD8
:103C20000DD011E0A068FCF7F3FA216CA0680844FD
:103C3000A0606168884207D32068A06004E0A06BA0
:103C400010B1A06B401EA063A06B401CA063304667
:103C500070BD10B50446206B00F046FB2046BDE861
:103C6000104000F041BB000007498A681168002934
:103C700004D00021016019B1002070470121F9E74B
:103C8000D068006870470000D00100204FF4C841A0
:103C90000F48420706D0C01D20F007000C49411A0A
:103CA000C1F5C8410B4A1060002353600144083934
:103CB00021F00701103A11604B600B600B1A436052
:103CC00001604068906050604FF00040D0607047E5
:103CD000E0150020FC010020044CFFF74DFF206898
:103CE0000128FAD900F04EFBF7E70000B4140020D9
:103CF00070B504461546002023180A5C83F834206A
:103D00000A5C12B1401C1028F6D3002684F84360E8
:103D1000082D00D30725E562201D00F08EFA04F17E
:103D2000180000F08AFA2461C5F10800A0616462FD
:103D3000666484F8486070BD70B50024124D04EBD1
:103D4000840005EB800000F06DFA641C082CF6D3AB
:103D50000D48A03000F066FA0B48B43000F062FA6B
:103D60000948C83000F05EFA0748DC3000F05AFA23
:103D70000548F03000F056FA03490448A0310163C9
:103D80001431416370BD0000B4140020980100207C
:103D900030B5134900E011460A688242FBD34B68F4
:103DA0005C18844203D140681844486008460D6896
:103DB00044682318AB420DD1094B103B1B689A4253
:103DC00006D05268224442600A681268026002E02B
:103DD000036000E00260814200D0086030BD000056
:103DE000FC01002070B50024416000610C4D91423F
:103DF0000AD8D11A8269914201D301240EE0011D33
:103E0000E86800F01DFA09E09A4203D2994201D312
:103E1000012403E0011DA86800F012FA204670BDDD
:103E2000D001002010B5044600F02EFAA06B20B19E
:103E3000002400F045FA204610BD0124F9E710B532
:103E4000044600F021FAA06BE16B884201D1012405
:103E500000E0002400F034FA204610BDF8B5054615
:103E60000E4612488068C068C468201D00F0C8F97A
:103E7000E069012811D1A0692B464119324620463C
:103E8000FFF7B0FF012808D100200346014600904B
:103E90002A46204600F088FF28B1616A01B020461A
:103EA000BDE8F0400847FCF793F9FEE7D001002099
:103EB00030B587B02A4D49E00398002803DADDE9E0
:103EC000042006999047039800283FDB059C606911
:103ED00010B1201D00F094F902A800F083F802460A
:103EE00003980A2832D2DFE800F005050531222EBA
:103EF000050531220498A169034601442046FFF7D5
:103F000071FF012822D1616A20468847E0690128B3
:103F10001CD1002000900498A16900234218194682
:103F2000204600F041FF88B9FCF752F9FEE70498FB
:103F3000A06128B1811813462046FFF753FF05E022
:103F4000FCF746F9FEE7204600F0CEF900231A46BA
:103F500003A9286800F0C7FB0028ADD107B030BD29
:103F6000D0010020F8B506460D4600F017FB684664
:103F700000F038F80446009810B100F099FEF8BD42
:103F800045B9A64206D800F093FE21463046FFF719
:103F900065FFF8BD09481DB1C168096861B1002518
:103FA000311B2A46006800F0F9F900F081FE002874
:103FB000EFD100F0E7F9F8BD0125F1E7D0010020CD
:103FC0000748016B0968002905D0016BC968C968F9
:103FD0004968816270474FF0FF318162704700008D
:103FE0009801002070B5054600F0C2FD0446074E5A
:103FF0007068844204D200F00BF80120286001E0D0
:10400000002028607460204670BD0000D0010020B0
:10401000F8B5174E1FE0C0680568C468201D00F0A1
:10402000EFF8616A20468847E069012813D1A0694A
:104030002844A84206D960602461211DB06800F0C0
:10404000FFF808E000200346014600902A4620467B
:1040500000F0AAFE40B1B06801680029DBD1B06869
:10406000F168B160F060F8BDFCF7B2F8FEE700005F
:10407000D001002004484068401C02D0FCF7A8F89A
:10408000FEE7FCF7A5F8FEE7E001002008B568466A
:10409000FFF7EAFD0099FFF765FFFFF709FFF6E775
:1040A00070B5044600F0F0F804F124050AE0606AF7
:1040B00058B1284600F0C4FD08B100F0D1F9A06C59
:1040C000401EA064A06C0028F1DC4FF0FF35A56411
:1040D00000F0F6F800F0D8F804F110060AE02069C4
:1040E00058B1304600F0ACFD08B100F0B9F9606C91
:1040F000401E6064606C0028F1DC6564BDE87040BF
:1041000000F0DEB82DE9F0410546002600F046FA41
:10411000294F386808B9FFF7B9FDF868054240D162
:1041200065B10835680709D005F00700C0F108003F
:104130000544680702D0FCF74BF8FEE78DB37868BA
:1041400085422ED81C4910310846046801E02146FA
:1041500004466068A84202D220680028F7D1386877
:1041600084421ED00E680836206808606068411BD3
:10417000102909D96019420702D0FCF729F8FEE797
:1041800041606560FFF704FE61687868401A7860F6
:10419000BA68904200D2B860F868014361600020BC
:1041A000206000F085FD700702D0FCF711F8FEE7F3
:1041B0003046BDE8F0810000EC01002020384FF0CF
:1041C0008073C36181610249416140F820297047D1
:1041D0007540000810B50C46FEF7D6FB0178212982
:1041E0000DD1417833290AD1C178112907D1002294
:1041F00081180979A154521CD2B2042AF8D310BDF7
:104200000169D0E901329A60D0E901235A604A6815
:10421000824201D182684A60002202610868401E21
:104220000860704700F1080141604FF0FF32826082
:10423000C160016100210160704700210161704788
:1042400030B50C68621C02D000F1080202E002697D
:1042500004E01A4653681D68A542FAD953684B60BA
:1042600099608A60516008610168491C016030BD35
:1042700042684A6093688B609368596091600861F6
:104280000168491C0160704710B5FBF7A1FF0A489F
:104290004168491C4160BFF34F8FBFF36F8F406887
:1042A000012807D10548006810F0FF0F02D0FBF786
:1042B0008FFFFEE710BD0000E001002004ED00E0EC
:1042C00010B508494868002807D0401E48600028FB
:1042D00006D1BDE81040FBF782BFFBF779FFFEE790
:1042E00010BD0000E001002070B500281DD0083886
:1042F00004460E4D6068E968084202D1FBF768FF8A
:10430000FEE7226812B1FBF763FFFEE788436060B7
:1043100000F044F960686968084468602046FFF767
:1043200037FDBDE8704000F0C3BC70BDEC0100205B
:104330004FF0E02002494161072101617047000010
:104340003F19010010B5FBF74DFF0C49102809D3A8
:1043500000F1E02090F8F0030A78904202D2FBF7D7
:1043600037FFFEE706480068896800F4E06088428D
:1043700002D9FBF72DFFFEE710BD0000E001002091
:104380000CED00E004494FF080500860BFF34F8F00
:10439000BFF36F8F7047000004ED00E070B5044676
:1043A0000D461646FFF770FF636C4FF000005B1C74
:1043B00000D16064A16C491C00D1A064FFF780FFAC
:1043C000A06B28B93246294604F1240000F07CF89D
:1043D0002046BDE87040FFF763BE000070B505469B
:1043E0000C460022002D06D044B11C4EF06A40B1AC
:1043F000FBF7EEFEFEE7FBF7EBFEFEE7FBF7E8FE62
:10440000FEE700F0CBF8F0682B681C44834205D926
:10441000A34208D9844206D9012204E0A34201D86C
:10442000844200D901222C607AB13068001DFFF768
:10443000E7FE38B9306890F82C10012088403169C7
:10444000814331612046FFF73FFB00F031FC00283B
:1044500003D1BDE87040FFF795BF70BD9801002003
:1044600001490120C86170479801002070B50D46D0
:1044700000280AD0124C21681831FFF7E1FE2068AD
:10448000001DFFF7BDFE18B10AE0FBF7A1FEFEE735
:10449000206890F82C100120884021698143216117
:1044A000681C05D0E0682844BDE87040FFF70CBBED
:1044B0002168BDE87040091D0248FFF7D9BE000021
:1044C00098010020A415002070B50D46164600285E
:1044D0000AD0124C21681831FFF7CAFE2068001D6F
:1044E000FFF78EFE18B10AE0FBF772FEFEE72068C8
:1044F00090F82C1001208840216981432161012E10
:1045000005D0E0682844BDE87040FFF7DDBA2168B7
:10451000BDE87040091D0248FFF7AABE98010020BF
:10452000A415002010B5002805D004490A6A0260CD
:10453000C968416010BDFBF74BFEFEE79801002003
:104540001FB50024009401940294234680220FA1F9
:104550001048039400F084FA012801D100F000FC17
:10456000012804D000280FD1FBF732FEFEE7FBF74D
:104570002FFE09484FF0FF31816201214161C46083
:10458000BDE81F4000F04CB81FBD000049444C4539
:1045900000000000D93C0008980100200248C16AD0
:1045A000491CC162704700009801002010B5134AF1
:1045B000D06A002802D00120D06110BD0020D06157
:1045C0001069B0FA80F0C0F11F000D4900EB8000C7
:1045D00051F8203073B101EB8000416849684160B7
:1045E00000F10803994201D1496841604068C06800
:1045F000106010BDFBF7ECFDFEE700009801002005
:10460000B414002010B51820FFF77CFD044624B137
:1046100000202060201DFFF705FE204610BD000091
:104620001CB5194908780190FF200870087800909F
:104630009DF80000154A00F01000107007209060EF
:1046400006E09068401E90609DF8000040000090D9
:104650009DF800000006F4D4107A000200F4E06037
:104660009060019808700A48016841F47001016087
:10467000016841F070410160FFF75AFE0020506070
:10468000FBF774FD00201CBD00E400E0E001002009
:1046900020ED00E02DE9F04106460D460027002EF2
:1046A00017D0CDB106FB05F0401C4C30FFF72AFDBA
:1046B000044654B195B104F14C002060E6632564D2
:1046C0000121204600F097F827464FB13846BDE853
:1046D000F081FBF77DFDFEE70020E6E72460EDE7D3
:1046E000FBF776FDFEE72DE9FF4182B004460F4659
:1046F00098460025002C01D01FB107E0FBF768FDAC
:10470000FEE7206C10B1FBF763FDFEE700F022FA34
:1047100020B9049810B1FBF75BFDFEE70026FFF718
:10472000B3FDA06B30B3E56839462046FFF74EFA7B
:10473000B8F1000F0FD0E560606A30B104F12400D9
:1047400000F07EFA08B1FFF71DFEFFF7B9FD01206A
:1047500006B0BDE8F081A06B401EA0632069002870
:10476000F3D004F1100000F06BFA0128EDD1FFF74F
:1047700009FEEAE7049808B125B107E0FFF7A0FDBC
:104780000020E5E76846FFF7CDFE0125FFF798FD1D
:10479000FFF704FFFFF778FD606C401C00D16664F2
:1047A000A06C401C00D1A664FFF78AFD04A96846EE
:1047B00000F026F930B12046FFF772FC00F078FADD
:1047C0000020C5E72046FFF72DFB70B104F124005F
:1047D0000499FFF74BFE2046FFF762FC00F068FAF1
:1047E00000289CD1FFF7CEFD99E72046FFF758FC43
:1047F00000F05EFA93E770B504460D46002C23D016
:10480000FFF742FDD4E90F20216802FB001161602F
:104810000021A1632168A160E06B2268216C401E29
:1048200000FB0121E1604FF0FF306064A06404F1FF
:10483000100065B1FFF7F6FC04F12400FFF7F2FC6D
:10484000FFF73EFD012070BDFBF7C2FCFEE72169CA
:104850000029F5D000F0F4F90128F1D1FFF792FD1D
:10486000EEE72DE9FF4182B0044688461F46002549
:10487000002C03D0B8F1000F03D007E0FBF7A8FC31
:10488000FEE7206C10B1FBF7A3FCFEE7022F05D179
:10489000E06B012802D0FBF79BFCFEE700F05AF921
:1048A00020B9049810B1FBF793FCFEE70026FFF750
:1048B000EBFCA06BE16B884205D3022F03D0049878
:1048C000D0B1EDB120E03A4641462046FFF792F9DB
:1048D000616A41B104F1240000F0B2F9012805D168
:1048E000FFF750FD02E008B1FFF74CFDFFF7E8FCD1
:1048F000012006B0BDE8F081FFF7E2FC0020F8E7F8
:104900006846FFF70FFE0125FFF7DAFCFFF746FECA
:10491000FFF7BAFC606C401C00D16664A06C401CC0
:1049200000D1A664FFF7CCFC04A9684600F068F843
:1049300030B12046FFF7B4FB00F0BAF90020D8E709
:104940002046FFF77CFA70B104F110000499FFF7DC
:104950008DFD2046FFF7A4FB00F0AAF90028A6D1A0
:10496000FFF710FDA3E72046FFF79AFB00F0A0F940
:104970009DE72DE9F04104460F4616461D46002CE2
:1049800001D01FB107E0FBF723FCFEE7206C10B15C
:10499000FBF71EFCFEE7022D05D1E06B012802D0DB
:1049A000FBF716FCFEE7FFF7CDFCFBF711FC80469A
:1049B000A06BE16B884208D3022D06D0002440464C
:1049C000FBF70DFC2046BDE8F0812A46394620461B
:1049D000FFF710F9A06C401C04D0A06C401CA06430
:1049E0000124ECE7606A0028FAD004F1240000F00A
:1049F00027F90028F4D0002EF2D001203060EFE734
:104A000070B504460D46002C10D095B1FFF73CFC64
:104A1000124AD06829684B1C0ED02368126A934250
:104A20000CD06268824209D8012413E0FBF7D0FB66
:104A3000FEE7FBF7CDFBFEE700240BE06268801A7F
:104A4000884206D2081A28602046FFF76BFD002432
:104A500000E00124FFF734FC204670BD98010020DF
:104A60002DE9FF4F81B08246DDE90E59109990463D
:104A70009B46BAF1000F04D0082D05D3FBF7A8FB25
:104A8000FEE7FBF7A5FBFEE74046FFF739F80446D3
:104A90002E4F7CB3216BA8F1010001EB800020F0C8
:104AA0000706700702D0FBF793FBFEE7CDF8008006
:104AB0002A462046119B0299FFF71AF95A46514699
:104AC0003046FFF77BFB2060B9F1000F01D0C9F839
:104AD0000040FFF7D9FBB868401CB860386810B1D7
:104AE000786940B10CE03C60B868012808D1FFF754
:104AF00023F905E019E03868C06AA84200D83C6094
:104B0000786A401C7862E06A01213A698140114369
:104B1000396100EB80010E4800EB8100211DFFF799
:104B2000A7FB0124FFF7CCFB01E04FF0FF34012C81
:104B300007D1786928B13868C06AA84201D2FFF766
:104B400021FC05B02046BDE8F08F00009801002050
:104B5000B414002005484169002903D0C06A18B187
:104B60000020704701207047022070479801002004
:104B70000148C06870470000980100202DE9F0410D
:104B800000252D4FF86A002808D0B869401CB8618C
:104B9000F86900B101252846BDE8F081F868401C9D
:104BA000F860FE6876B9386B006810B1FBF710FB4F
:104BB000FEE7386B796B39637863386A401C38627A
:104BC000FFF7FEF9B86ADFF8748086420DD3386BC0
:104BD000006838B1386BC068C468606886420ED21D
:104BE000B86202E04FF0FF30B8623868C06A00EB8C
:104BF000800058F820000128CAD90125C8E7201DE7
:104C0000FFF7FEFAA06A18B104F11800FFF7F8FAEE
:104C1000E06A01213A6981401143396100EB80006B
:104C200008EB8000211DFFF723FBE06A3968C96AA1
:104C30008842CCD30125CAE798010020B414002093
:104C40002DE9F041C068C468002C15D004F11800AB
:104C50000746FFF7D5FA144DEA6A01267AB13946BC
:104C60001248FFF705FBE06A2968C96A884219D92A
:104C70000120EE61BDE8F081FBF7AAFAFEE7201DF6
:104C8000FFF7BEFAE06A2A6906FA00F111432961CA
:104C9000064900EB8000C83901EB8000211DFFF7B9
:104CA000E7FAE0E70020E5E7980100207C15002006
:104CB0002DE9F0410027284DE86A002807D0FFF7CA
:104CC000E3FAE86A401EE862E86A18B13EE0FBF7E2
:104CD0007FFAFEE7A868C8B3DFF8808001261EE0EF
:104CE000D8F80C00C46804F11800FFF789FA201DF9
:104CF000FFF786FAE06A2A6906FA00F11143296192
:104D0000164900EB8000C83901EB8000211DFFF738
:104D1000AFFAE06A2968C96A884200D3EE61D8F820
:104D200000000028DCD1A86938B909E0FFF726FFA8
:104D300000B1EE61A869401EA861A8690028F5D1FC
:104D4000E869012802D10127FFF71CFBFFF7B8FA39
:104D50003846BDE8F0810000980100207C15002055
:104D60001FB50024FEF7E4FE0B48006860B1002088
:104D70000421CDE90010029003468A01039007A1A7
:104D80000848FFF76DFE044614B104B0204610BD7C
:104D9000FBF71EFAFEE70000D0010020546D7220E0
:104DA000537663008D4000082DE9FF4106460A9FB7
:104DB0009C460020002E15D0134D2C68002C0ED0E0
:104DC000009101920296062916DAFFF7C3FE022827
:104DD0000BD000231A4669462868FFF742FD04B04D
:104DE000BDE8F081FBF7F4F9FEE700233A46694697
:104DF0002868FFF736FDF2E7002362466946204641
:104E0000FFF7B7FDEBE70000D001002000C18140B3
:104E100001C0804101C0804100C1814001C080418A
:104E200000C1814000C1814001C0804101C080417A
:104E300000C1814000C1814001C0804100C181406A
:104E400001C0804101C0804100C1814001C080415A
:104E500000C1814000C1814001C0804100C181404A
:104E600001C0804101C0804100C1814000C181403A
:104E700001C0804101C0804100C1814001C080412A
:104E800000C1814000C1814001C0804101C080411A
:104E900000C1814000C1814001C0804100C181400A
:104EA00001C0804101C0804100C1814000C18140FA
:104EB00001C0804101C0804100C1814001C08041EA
:104EC00000C1814000C1814001C0804100C18140DA
:104ED00001C0804101C0804100C1814001C08041CA
:104EE00000C1814000C1814001C0804101C08041BA
:104EF00000C1814000C1814001C0804100C18140AA
:104F000001C0804101C0804100C1814000C0C10199
:104F1000C30302C2C60607C705C5C404CC0C0DCD29
:104F20000FCFCE0E0ACACB0BC90908C8D81819D999
:104F30001BDBDA1A1EDEDF1FDD1D1CDC14D4D515C9
:104F4000D71716D6D21213D311D1D010F03031F1B9
:104F500033F3F23236F6F737F53534F43CFCFD3DE9
:104F6000FF3F3EFEFA3A3BFB39F9F83828E8E929D9
:104F7000EB2B2AEAEE2E2FEF2DEDEC2CE42425E589
:104F800027E7E62622E2E323E12120E0A06061A1F9
:104F900063A3A26266A6A767A56564A46CACAD6DA9
:104FA000AF6F6EAEAA6A6BAB69A9A86878B8B97919
:104FB000BB7B7ABABE7E7FBF7DBDBC7CB47475B549
:104FC00077B7B67672B2B373B17170B05090915139
:104FD0009353529296565797559594549C5C5D9D69
:104FE0005F9F9E5E5A9A9B5B995958988848498959
:104FF0004B8B8A4A4E8E8F4F8D4D4C8C4484854509
:1050000087474686824243834181804000080140B1
:1050100001000000000801400200000000080140FB
:1050200004000000000801400800000000080140E2
:1050300010000000000801402000000000080140AE
:10504000400000000008014080000000000C01400A
:1050500001000000000C014002000000000C0140B3
:1050600040000000000C014080000000000C0140E6
:1050700000010000000C014000020000001001408F
:10508000010000000010014002000000001001407B
:105090000400000000100140080000000010014062
:1050A0001000000000100140200000000003030673
:1050B00001040602050003051F1C1F1E1F1E1F1FE3
:1050C0001E1F1E1FE4500008000000200C020000FC
:1050D000EA060008605100080C020020D48100009C
:1050E000682C0008019C135C503308025A640801C4
:1050F00010124413024014380140322062402A80CA
:10510000143A440E293342042A1C1412486A4027D8
:1051100032011B5804142A4C0F1B0210277A10600E
:105120006A504A49296A5864694F19147A6C64595B
:105130005219145A306479272914696412021A101A
:10514000142B100279E964113D020406086D2C024B
:10515000030404054E060708091AAA0101240000E9
:0400000508000131BD
:00000001FF
