:020000040800F2
:10000000B8850020ED01000871190008AD1800083E
:100010006F1900089D0F000855300008000000000F
:10002000000000000000000000000000490100087E
:100030007D150008000000008D010008D11F000898
:1000400007020008ED190008070200084D1D00080E
:10005000070200080702000807020008070200085C
:100060000702000807020008E91500080702000857
:10007000070200080702000807020008070200083C
:10008000070200080702000807020008070200082C
:10009000E92F00080702000807020008070200080D
:1000A000070200080702000807020008070200080C
:1000B00049220008070200089123000807020008EF
:1000C00007020008070200080702000807020008EC
:1000D0000702000807020008892B0008F52B00081A
:1000E000811500080702000807020008070200083F
:1000F00025290008070200089528000807020008C3
:10010000070200080702000815250008070200087A
:100110000702000807020008FD260008C92700089A
:10012000070200080702000807020008070200088B
:10013000DFF810D000F0ACFA00480047C55A0008BC
:10014000AFF30080B8850020204B19680868B0E83C
:10015000F00F80F30988BFF36F8F4FF0000080F33A
:1001600011884EF00D0E7047000000000648006830
:10017000006880F3088862B661B6BFF34F8FBFF3A3
:100180006F8F00DF00BF00BF08ED00E0EFF30980D4
:10019000BFF36F8F0D4B1A6820E9F00F106008B5A0
:1001A0004FF0100080F3118806F040FA4FF0000085
:1001B00080F31188BDE8084019680868B0E8F00FBE
:1001C00080F30988BFF36F8F704700BFBC01002028
:1001D000EFF311804FF0100181F31188704780F325
:1001E00011887047EFF3058070470000064880478C
:1001F00006480047FEE7FEE7FEE7FEE7FEE7FEE70C
:10020000FEE7FEE7FEE7FEE7F51F00083101000804
:10021000F0B480EA0102D40F4200B2EB410F02D2E7
:100220000246084611464A0042D0C30DDDB2C1F372
:10023000C752AD1A202D35DAC1F3160141F4000280
:1002400004B15242C5F1200602FA06F12A411044D7
:10025000B3EBD05F23D0C4B1012DA0EBC35009DCB8
:10026000F0BC4FF0004202EAC352DBB200F50000DE
:1002700000F083B9400000F1807000EBC350A0F1A2
:10028000807040EAD170490009E0490841EAC07134
:10029000A0EBC35000F50000400800EBC350F0BCD9
:1002A00000F062B96142012202EB4101001BF6E756
:1002B000F0BC704781F00041AAE780F00040A7E75A
:1002C00080EA010210B502F00043400022D04A004B
:1002D0001FD0010E01EB1261C0F35600C2F35602AB
:1002E00040F4000042F40002A0FB022000047F3929
:1002F000140400D0401C50EA124001D44000491EB2
:10030000C2B20C0604EBD010401C4008802A02D078
:1003100003E0002010BD20F00100002900DA0020D9
:10032000184310BD30B480EA010202F0004530F0FD
:10033000004221F0004013D090B1C30DD40DC2F3A0
:100340001601C0F31600E41A41F4000140F4000263
:100350007D34914201D3641C00E04900002C02DA94
:1003600030BC002070474FF400000023914201D3BD
:10037000891A034340084FEA4101F7D151B1914234
:1003800002D14FF0004105E002D24FF0010101E03F
:100390006FF0010103EBC450284430BC00F0E4B816
:1003A000420005D0C0F3C7525242914201DC002006
:1003B000704700EBC15070472DE9FE4F81EA0304FE
:1003C00004F0004421F0004100944FF0000B23F0B2
:1003D000004350EA01045ED052EA03045BD0C3F349
:1003E0000A54C1F30A552C44A4F2F3340194A0FB3F
:1003F0000254C1F3130141F48011C3F3130343F416
:10040000801301FB024400FB034E840A970A44EA6E
:10041000815447EA8357A4FB076802958D0A05FBC0
:1004200007854FEA932C04FB0C542705029D4FEAE5
:10043000065847EA1637B5EB08056EEB070C870E32
:10044000920E47EA811742EA8312A7FB0201B6EB3C
:100450000B0164EB00042B0D43EA0C335E1844EBF4
:100460001C50DA465146E7FB0201C5F313044FEA7C
:100470000B3343EA14534FEA0432019C43EA060368
:10048000A4F10C040294009CCDE900B400F0B2F891
:1004900003B0BDE8F08F00200146F9E7C10F80EA04
:1004A000E0700844CA079623002100F066B896233E
:1004B0000022114600F061B820F00040C10DC0F3E9
:1004C000160040F400007F2901DA002070479629C9
:1004D00003DCC1F19601C8407047963988407047E7
:1004E00000F0004230F000400AD0C10D01F560710B
:1004F000C0F3160042EA0151C20840071143704799
:1005000000200146704701F0004330B421F0004163
:1005100050EA010206D00A0DA2F56072C1F3130180
:10052000002A02DC30BC00207047440F44EAC104BA
:10053000C100E01830BC00EBC25000F015B800005C
:10054000002801DBC0F10040002901DBC1F10041BE
:1005500081427047002801DBC0F10040002901DB27
:10056000C1F10041884270470029A8BF7047401C74
:10057000490008BF20F00100704710B4B0FA80FCB9
:1005800000FA0CF050EA010404BF10BC704749B1F6
:10059000CCF1200421FA04F411FA0CF118BF012166
:1005A00021430843A3EB0C01CB1D4FEA00614FEA46
:1005B000102042BF002010BC704700EBC350104415
:1005C0000029A4BF10BC7047401C490008BF20F0A0
:1005D000010010BC704710B5141E73F1000408DA56
:1005E000401C41F1000192185B411A4301D120F0F7
:1005F000010010BD2DE9F04D92469B4611B1B1FAB4
:1006000081F202E0B0FA80F22032904600F052F817
:1006100004460F4640EA0A0041EA0B0153465A4697
:10062000084313D0114653EA010019D0C8F1400223
:10063000504600F04EF805460E4650465946424692
:1006400000F038F8084305D0012004E02046394680
:10065000BDE8F08D0020054346EAE0762C433743A1
:100660000A986305E40AA0EB08000022FD0A44EAA8
:1006700047540A3002D500200146E9E70105101968
:100680006941DDE9084500196941BDE8F04DA2E77F
:10069000064C074D06E0E06840F0010394E80700CF
:1006A00098471034AC42F6D3FFF746FD406E000881
:1006B000606E0008202A04DB203A00FA02F10020D4
:1006C00070479140C2F1200320FA03F31943904090
:1006D0007047202A04DB203A21FA02F000217047FB
:1006E00021FA02F3D040C2F120029140084319469A
:1006F000704770B58C1810F8015B15F0070301D135
:1007000010F8013B2A1106D110F8012B03E010F874
:10071000016B01F8016B5B1EF9D12B0705D4002397
:10072000521E0DD401F8013BFAE710F8013BCB1A39
:10073000921C03E013F8015B01F8015B521EF9D52E
:10074000A142D8D3002070BD002904D0816841F0B7
:10075000010181607047816821F00101816070476B
:10076000002904D0816841F48071816070478168FC
:1007700021F4807181607047014600208968490733
:1007800000D501207047014600208968090700D57F
:100790000120704710B542680E4B1A400C790B6867
:1007A00042EA04221343436082680B4B1A40D1E9AA
:1007B000024323434C7942EA440213438360C26AF2
:1007C00022F47002097C491EC9B242EA0151C16299
:1007D00010BD0000FFFEF0FFFDF7F1FF70B507262A
:1007E00009290AD9C568A1F10A0404EB4404A6400A
:1007F000B543A3401D43C56007E0056901EB410413
:10080000A640B543A3401D4305611F23072A09D213
:10081000446B521E02EB820293409C4391400C4376
:10082000446370BD0D2A09D2046BD21F02EB820211
:1008300093409C4391400C43046370BDC46A0D3ADD
:1008400002EB820293409C4391400C43C46270BD12
:10085000816841F0080181607047002904D08168F7
:1008600041F4A00181607047816821F4A00181609A
:100870007047816841F00401816070472DE9F05FA5
:100880000646DDF828A0894690460024A6F2B270FC
:10089000822802D30120BDE8F09F40F2B275284FB4
:1008A000DFF8A0B008E0284601F04AF808B13C445F
:1008B00000E05C446D1CADB2B542F4D3A9F101096E
:1008C00009F0FF070025DFF88090DFF880B00FE027
:1008D00019F8050040F2A321484304EBC014304648
:1008E00001F02EF810B1012D00D15C446D1CADB2A9
:1008F000BD42EDD3A8F1010840F2A32008FB00F8A7
:1009000004EBC810C3EB4311C1EB032100EB011052
:10091000CAEB0A1100EB81000B99441801214FF03A
:10092000C05001F099F8012001F072F801F04EF981
:10093000204601F0AFFA01F0DDFA0020ABE700003D
:100940000085E2018033E101346E0008805101002E
:1009500030B505460C46002D0BD0022C09D9A01E3F
:10096000C1B2284600F086FF291901F8020D000ADD
:10097000487030BD10B5012001F08AF8BDE8104084
:10098000002001F085B8000008B503490844009034
:100990000098008808BD0000006C004008B5034ABC
:1009A000104400900098016008BD0000006C0040F9
:1009B0002DE9F04788B00746DDE910A8DDF848903A
:1009C0000E4614461D460121480601F045F88DF8F3
:1009D00018408DF819508DF81760ADF814A0002458
:1009E0008DF81A4001258DF81B5007948DF816409C
:1009F00005A9384600F00AFC8DF80A408DF80B4036
:100A00008DF80C50ADF80040ADF80240ADF8044050
:100A1000ADF80640ADF808408DF80D50684600F07E
:100A20001BFB01220221384600F0E6FB14208DF862
:100A300010008DF811808DF812908DF8135004A8D5
:100A400000F098FF08B0BDE8F08738B504460D46C1
:100A5000204600F013F8A088ADF800008DF8035090
:100A600003208DF802006946206800F0A1FE38BD21
:100A70008188006889B200F0EEBE0000124A016869
:100A8000914201D104201CE0104A914201D108207A
:100A900017E00F4A914201D1102012E00D4A914215
:100AA00001D120200DE00C4A914201D1402008E004
:100AB0000A4A914201D1802003E0094A914200D1C3
:100AC0008815012100F0D6BF00080140000C01404C
:100AD000001001400014014000180140001C0140BA
:100AE000002001402DE9F04F87B08246DDE911B8C2
:100AF000109F894616461D46504600F0E3F81DB18A
:100B000028212868FFF7A1FF1FB128213868FFF7C7
:100B10009CFFBBF1000F03D028212868FFF795FF49
:100B2000B8F1000F04D02821D8F80000FFF78DFF9E
:100B3000ADF810600026ADF81260ADF81490ADF875
:100B4000166004A9504601F0D1FF4FF0010985B1AC
:100B500044F00204ADF80460A888ADF80600ADF8D2
:100B60000890ADF80A60ADF80C6001A9504601F09C
:100B70000DFF8FB144F004040420ADF80400A888F0
:100B8000ADF80600ADF80890ADF80A60ADF80C605D
:100B900001A9504601F0FAFEBBF1000F11D044F05C
:100BA00008040820ADF80400A888ADF80600ADF8E8
:100BB0000890ADF80A60ADF80C6001A9504601F04C
:100BC000E5FEB8F1000F11D044F010040C20ADF890
:100BD0000400A888ADF80600ADF80890ADF80A60EA
:100BE000ADF80C6001A9504601F0D0FE44F00101BF
:100BF0000122504601F010FF0121504601F0ADFEE8
:100C00001398FF2816D01498FF2813D0504601F0EF
:100C100035FFDDE9131200F046F80848824502D09E
:100C20000748824506D1504601F0FEFADDE913126D
:100C300000F039F807B0BDE8F08F0000002C01404B
:100C4000003401402DE9FF4180460A9F0C461646BC
:100C50001D46404600F036F8ADF80840ADF8046097
:100C60000021ADF80610ADF80A1001A9404601F0C8
:100C70003DFF01221146404601F0CEFE01214046D3
:100C800001F06BFE404601F0F9FE8DF800008DF892
:100C900001508DF8027001208DF80300684600F0C5
:100CA00069FEBDE8FF8108B58DF800008DF80110E0
:100CB0008DF8022001208DF80300684600F05AFEEE
:100CC00008BD00003149884203D10121C01400F061
:100CD000D1BEB0F1804F06D02D49884207D1012105
:100CE000022000F0B9BE0121084600F0B5BE294936
:100CF000884203D10121042000F0AEBE264988427B
:100D000003D10121082000F0A7BE2449884203D165
:100D10000121102000F0A0BE2149884203D1012109
:100D2000202000F099BE1F49884203D101214014C0
:100D300000F0A0BE1C49884203D10121C80400F084
:100D400099BE1A49884203D10121080500F092BEDC
:100D50001749884203D10121480500F08BBE15498F
:100D6000884203D10121402000F076BE124988421A
:100D700003D10121802000F06FBE1049884203D1C9
:100D80000121801500F068BE70470000002C014072
:100D90000004004000080040000C0040001000402B
:100DA0000014004000340140004C0140005001405C
:100DB0000054014000180040001C0040002000408A
:100DC00030B58BB004462078002829D001210220BC
:100DD00000F034FE606800F035FBA068001D009054
:100DE0006078002508B30295A06801F0E9FF019042
:100DF000A06802F089F8039004958020059006957C
:100E0000079508954FF4405009900A956946606827
:100E100000F097FB0121606800F006FB0BB030BDCD
:100E20000121084600F00AFED4E710200290A068D5
:100E300001F0F4FF0190A06802F08CF80390DBE76A
:100E40002DE9F04385B00646DDE90C780C461546E1
:100E50009946304600F058F81CB118212046FFF79B
:100E6000F4FD1DB104212846FFF7EFFDCDF80090F9
:100E70000020ADF80400ADF80600ADF80800ADF8AC
:100E80000C000C20ADF80A006946304601F03AFF2C
:100E9000DFF87090FF2F20D0B8F1FF0F1DD0304643
:100EA00002F07EF88DF810008DF811708DF8128028
:100EB00001208DF8130004A800F05CFD4E4506D01B
:100EC000012240F22441304601F000FF05E00122FA
:100ED00040F22551304601F0F9FE4E450BD024B1C9
:100EE00001228021304601F0C7FE25B101224021B8
:100EF000304601F0C1FE0121304601F0B1FE05B0DF
:100F0000BDE8F083005000401149884203D101211F
:100F1000880300F0AFBD0F49884203D10121480486
:100F200000F09ABD0C49884203D10121880400F0E9
:100F300093BD0A49884203D10121C80400F08CBD49
:100F40000749884203D10121080500F085BD70479B
:100F5000003801400044004000480040004C004080
:100F60000050004070B504460D461646606800F01B
:100F7000E5FA0028FAD10021606800F055FAD4E9BA
:100F80000301084300F044FA6068C5606068466089
:100F90006068BDE87040012100F046BAFEE700003D
:100FA0000A4A914202D1002181617047C1F31302C4
:100FB0008B0101D5C26070474B0101D502617047BA
:100FC000090101D582607047426070477000F030BF
:100FD00030B5082310240422B1F5007F33D011DC92
:100FE00020292AD007DC012922D0042923D008296E
:100FF00000D1C46030BD402921D0B1F5807FF9D146
:10100000426030BD0025B1F5004F20D008DCB1F5BD
:10101000806F1AD0B1F5006FF3D18561426030BDA9
:10102000B1F5803F0DD0B1F5003FF8D1446030BD3F
:101030000849816030BDC36030BD036130BD0461CB
:1010400030BD436030BD426030BD426030BD85611F
:10105000426030BD01010100F0B5827A012191406A
:10106000304C226842F0010222602E4D1C352A6865
:101070008A432A602B4A067B0C322B4B002E14D15C
:1010800016688E4316604688C78846EA0746877A00
:1010900003EBC707C7F840660688878846EA074615
:1010A000877A03EBC707C7F84466067B012E14D185
:1010B00016680E4316604288068842EA0642867A1F
:1010C00003EBC606C6F84026C288868842EA064276
:1010D000867A03EBC603C3F84426124AC37A121D6C
:1010E0003BB113680B4313600E4A0389143223B1DA
:1010F00006E013688B431360F6E713688B431360B5
:101100000389012B02D113680B431360407B012834
:1011100002D1286808432860206820F00100206080
:10112000F0BD000000660040006000400246002064
:1011300053690B425DD0B1F5807F4AD016DC082997
:1011400037D009DC01292CD002292ED0042950D116
:10115000D068082100F01DB910292ED0202930D0E8
:10116000402946D11069102100F013B9B1F5004FA4
:101170003BD00CDCB1F5007F2FD0B1F5806F30D0C3
:10118000B1F5006F35D19069702100F002B9B1F569
:10119000803F1AD0B1F5003F2BD15068102100F0EC
:1011A000F8B89068134900F0F4B8D068032100F053
:1011B000F0B8D068102100F0ECB81069032100F0FD
:1011C000E8B81069082100F0E4B85068082100F080
:1011D000E0B89069012100F0DCB89069022100F0CC
:1011E000D8B89069042100F0D4B85068042100F008
:1011F000D0B8704701010100002A03D042690A43B8
:101200004261704742698A434261704710B50022CB
:10121000036823F002030360036843F001030360E3
:101220004FF6FF7300E0521C4468E40701D19A4274
:10123000F9D14268D2073ED08A79012A3DD00268AE
:1012400022F080020260CA79012A3BD0026822F0B3
:10125000400202600A7A012A39D0026822F0200294
:1012600002604A7A012A37D0026822F01002026036
:101270008A7A012A35D0026822F008020260CA7A0E
:10128000012A33D0026822F0040202608A78CC7806
:10129000920742EA04620C7942EA04424C790988D6
:1012A00042EA0452491E0A43C261016821F0010169
:1012B0000160002120E0002010BD026842F08002A1
:1012C0000260C0E7026842F040020260C2E70268C2
:1012D00042F020020260C4E7026842F0100202609D
:1012E000C6E7026842F008020260C8E7026842F0FE
:1012F00004020260CAE7491C4268D20701D0994241
:10130000F9D14068C00701D0002010BD012010BDF8
:1013100010B500EB0113D3F8B04104F004041472CB
:10132000002C2CD0D3F8B041E408546003F5D873F6
:101330001C6804F0020454725C6804F00F04947298
:101340005C68240AD4749C68D4729C68240A147360
:101350009C68240C54739C68240E9473DC68D473CA
:10136000DC68240A1474DC68240C5474DB681B0EDB
:10137000937449B1016941F02001016110BDD3F8B6
:10138000B041640D1460D1E7C16841F02001C16033
:1013900010BD024600200A4200D001207047000024
:1013A0000122064B8240002903D0186810431860C0
:1013B0007047186890431860704700000074004040
:1013C00030B5084C236840F6FE7282409343D1E961
:1013D00000252A43D1E902510D432A4382401A4392
:1013E000226030BD0074004008B5034A1044083044
:1013F00000900098016008BD0074004008B5034AE1
:101400001044143000900098016008BD0074004042
:10141000C10002D502490860704702494860704720
:101420000404024000000240002904D0016841F099
:1014300001010160704701684FF6FE7211400160C2
:101440007047000001684FF6FE72114001600021F4
:10145000016041608160C1603649364A0839904276
:1014600004D1486840F00F0048607047314A143298
:10147000904204D1486840F0F000486070472D4A1F
:101480002832904204D1486840F470604860704748
:10149000284A3C32904204D1486840F47040486089
:1014A0007047244A5032904204D1486840F470207A
:1014B000486070471F4A6432904204D1486840F443
:1014C0007000486070471B4A7832904204D14868E7
:1014D00040F0706048607047174A111F904204D175
:1014E000086840F00F0008607047134A14329042B9
:1014F00004D1086840F0F000086070470E4A2832B6
:10150000904204D1086840F47060086070470A4A4D
:101510003C32904204D1086840F470400860704743
:10152000054A50329042FAD1086840F470200860B1
:10153000704700000800024008040240406880B282
:10154000704730B5026847F6F0739A430C6A8B68AF
:101550002343D1E904452C4323438C692343CC69BD
:1015600023434C6A23438C6A234313430360CA68B2
:1015700042600A6882604968C16030BD70470000FF
:1015800070B54FF40065284600F052F8002825D0C9
:1015900003F062FE03281CD011480124046003F00C
:1015A000CFFE0078A8B903F0CBFE047003F050FE24
:1015B00090F8344003F04CFE80F8354003F04CFEC8
:1015C0000849087003F044FE90F83410042004F039
:1015D00059FD2846BDE8704000F024B870BD0000F9
:1015E000AC8122422700002010B5102000F020F826
:1015F000002815D003F03EFE044600684FF0FF318E
:10160000FEF7CEFE206003F035FE0121017403F0E9
:1016100031FE0021C160BDE81040102000F002B88A
:1016200010BD00000149086070470000140401402B
:1016300001460020054A12680A40044B14331B6817
:101640000B4202D0002A00D0012070470004014064
:1016500030B51B4A83790168002B2AD013688B436D
:101660001360111D0B680468A3430B6001791144DA
:101670000B68046823430B60114C0834216803682D
:1016800099432160231D19680568A94319604179B0
:10169000102905D011440A68006802430A6030BD71
:1016A00021680268114321601968006801431960CC
:1016B00030BD0079104402688A43026030BD0000EA
:1016C000000401400149C86070470000002002404A
:1016D00070B505464FF43026304600F059F804281E
:1016E00011D1094C206940F0020020616561206938
:1016F00040F040002061304600F04AF8216941F690
:10170000FD721140216170BD002002400420084993
:10171000CA68D20701D001207047CA68520701D5B4
:1017200002207047C968C906FBD503207047000036
:10173000002002400248016941F0800101617047C8
:1017400000200240F0B506460D464FF400573846DB
:1017500000F01EF804280CD1064C206940F001006E
:1017600020613580384600F013F82169BA1E114017
:101770002161F0BD00200240034802494160034955
:10178000416070472301674500200240AB89EFCDDF
:1017900000B50346FFF7BAFF02E0FFF7B7FF5B1E95
:1017A000012801D1002BF8D1002B00D1052000BD6C
:1017B0002DE9F0410022CC7804F00F03E40601D5B6
:1017C0008C7823430C784FF00F0714F0FF0F4FF085
:1017D000010C1CD005680CFA02F40E882640A642C3
:1017E00011D1960007FA06F825EA080503FA06F86B
:1017F00048EA0505CE78282E02D0482E02D002E015
:10180000446100E00461521C082AE4D305600A88A0
:10181000FF2A1ED94568002202F108060CFA06F4D8
:101820000E882640A64210D1960007FA06F825EA4F
:10183000080503FA06F848EA0505CE78282E00D1F7
:101840004461CE78482E00D10461521C082AE3D3AB
:101850004560BDE8F08141F480328261816182613E
:101860008169806970470246002092680A4200D070
:101870000120704770B5FF22FF23002801D0022904
:1018800002D84FF6FF7070BD074D05F5807605E074
:1018900010F8014B54402A5D5A40335D491EC9B2CD
:1018A000F6D243EA022070BD6C69000806A300204E
:1018B000104C211F1A5C22800A885206FCD5401C5D
:1018C000C0B22A28F6D3FEE70D0A456E7465722071
:1018D000486172644661756C745F48616E646C65E2
:1018E000722C2053797374656D2048616C742E0DD1
:1018F0000A0000000438014002494CF6CC40086060
:101900007047000000300040AFF3008002494AF603
:10191000AA2008607047000000300040014948607C
:1019200070470000003000400149886070470000A7
:10193000003000400149086070470000003000405E
:10194000810701D0002070476421B0FBF1F201FB58
:10195000120109B1012070474FF4C871B0FBF1F2D8
:1019600001FB120008B10020704701207047FEE71C
:101970007047000070B50F23C27801260178002A55
:101980001ED0144A126802F4E062C2F5E062120A44
:10199000C2F10404D3404578A54082781A402A4316
:1019A000120101F1E02181F80024007800F01F010C
:1019B0008E404009800000F1E020C0F8006170BD59
:1019C00001F01F0086404809800000F1E020C0F8C7
:1019D000806170BD0CED00E00249084302490860D7
:1019E000704700000000FA050CED00E010B54FF460
:1019F0008030FFF717FE03F0F1FC0021017003F0C7
:101A0000EDFC0178BDE810400820FEF7C7BF0000DC
:101A1000014908627047000000000E420149086158
:101A20007047000000000E42034A116821F0E001F7
:101A3000014311607047000000700040054A002912
:101A400003D051690143516170475169814351612C
:101A50007047000000100240054A002903D0D169F8
:101A60000143D1617047D1698143D1617047000062
:101A700000100240054A002903D091690143916199
:101A800070479169814391617047000000100240E6
:101A900001490860704700004004424210B5264AE0
:101AA000516801F00C01254B002927D0042927D0CB
:101AB000082927D00360516801F0F0010909204B83
:101AC0005C5C0168E1404160546804F4E064240A0D
:101AD0001C5D21FA04F48460546804F46054E40A40
:101AE0001B5DD940C160526802F44042920B144B16
:101AF0001B1F9A5CB1FBF2F1016110BD0360DAE7D4
:101B00000360D8E7516801F47011536803F480331F
:101B1000022404EB914133B153689B0307D5094B71
:101B200059430160C7E7074B59430160C3E7034BC3
:101B300059430160BFE700000010024000127A0024
:101B4000AA01002000093D00034600205909094A66
:101B500001290AD002290AD0516A03F01F02012389
:101B600093400B4200D0012070471168F5E7116ADD
:101B7000F3E7000000100240084900220A7001F853
:101B80002029012805D0042802D1052081F8200051
:101B90007047012081F820007047000020100240AB
:101BA00001490860704700003C04424202490A6A49
:101BB00002430A62704700000010024002490A888E
:101BC00082430A80704700000428004002480188D0
:101BD00041F010010180704704280040024801884C
:101BE00021F0100101807047042800402DE9F047E2
:101BF00000F06AF80646304FB6FBF7F32F48304D39
:101C00000188994231D0038040F2B2744FF4B77822
:101C10004FF4B6790FE02046FFF792FE38B1434506
:101C200002D3A3F5B77304E0641CA4B205E0A3F2E9
:101C30006D13641CA4B24B45EDD8AC800024DFF8D2
:101C400084800CE0A888FFF77BFE08B1012C2FD020
:101C500018F80400984204D81B1A641CA4B21C2B68
:101C6000F0D2641CAC715B1CEB71B6FBF7F007FBA8
:101C700010604FF46161B0FBF1F22A70B0FBF1F239
:101C800001FB12033C22B3FBF2F36B70B0FBF1F3E8
:101C900001FB1300B0FBF2F102FB1100A870EA791E
:101CA000A979A88800F02AF828720020BDE8F087FA
:101CB0001D2BD6D31D3BD0E780510100A40100208D
:101CC000A8160020346E0008034800880249091F46
:101CD000098840EA014070471C28004006490988ED
:101CE000C2B21140044A121F1288024202D009B146
:101CF00001207047002070470428004030B564235D
:101D0000B0FBF3F4E4B2B0FBF3F503FB1500132CC6
:101D100001D96430C0B200EB90030724B3FBF4F5A3
:101D200004FB1533084D1A440D4415F8015C2A4490
:101D300092B2800703D1032901D2521E92B2B2FBA4
:101D4000F4F004FB102030BD286E000810B501200F
:101D5000FFF7C4FF08B1FFF749FF0220FFF7BEFFFE
:101D600030B107480168491C01600220FFF726FFD7
:101D70000520FFF723FFBDE8104000F0BBB80000CE
:101D8000D8000020054A002903D0118801431180A2
:101D9000704711888143118070470000002800407F
:101DA00008B503228DF800208DF801008DF802108F
:101DB00001208DF803006846FFF7DCFD08BD000038
:101DC0002DE9F05F0646DDF828A0894690460024FC
:101DD000A6F2B270822802D30120BDE8F09F40F243
:101DE000B275284FDFF8A0B008E02846FFF7A8FD3D
:101DF00008B13C4400E05C446D1CADB2B542F4D384
:101E0000A9F1010909F0FF070025DFF88090DFF84C
:101E100080B00FE019F8050040F2A321484304EB1D
:101E2000C0143046FFF78CFD10B1012D00D15C4489
:101E30006D1CADB2BD42EDD3A8F1010840F2A32064
:101E400008FB00F804EBC810C3EB4311C1EB0321FE
:101E500000EB0110CAEB0A1100EB81000B9944184A
:101E600001214FF0C050FFF7F7FD0120FFF7D0FD33
:101E7000204600F01FF800F03DF8FFF7B7FE002005
:101E8000ABE700000085E2018033E101346E000819
:101E90008051010000B50246FFF798FE0449100C7E
:101EA0000880081D02805DF804EBFFF797BE000074
:101EB0002028004000B50246FFF788FE0449100CB8
:101EC0000880081D02805DF804EBFFF787BE000064
:101ED0001828004000B50246FFF778FE0449C2F317
:101EE00003400880081D02805DF804EBFFF776BE12
:101EF00008280040024801888906FCD57047000088
:101F0000042800400448018821F00801018001886C
:101F10000907FCD57047000004280040AFF300809B
:101F20000CB50022019200922748016841F48031EB
:101F300001604FF4A063016801F400310091019940
:101F4000491C0191009911B901999942F3D1016895
:101F5000890302D50121009100E000920099012936
:101F600030D11A490A6842F010020A600A6822F069
:101F700003020A600A6842F002020A604168416096
:101F800041684160416841F480614160416821F4E9
:101F90007C114160416841F4E8114160016841F001
:101FA0008071016001688901FCD5416821F003015D
:101FB0004160416841F0020141604168C1F3810123
:101FC0000229FAD10CBD000000100240002002409E
:101FD00010B5FEF7FDF804F00FFC18B104494FF0FE
:101FE00080500860BDE810400020FEF7F8B80000FF
:101FF00004ED00E010B50F48016841F001010160F7
:1020000041680D4A1140416001680C4A114001606D
:10201000016821F480210160416821F4FE014160E2
:102020004FF41F018160FFF779FF05494FF0006011
:10203000086010BD001002400000FFF8FFFFF6FE30
:1020400008ED00E070B5048C24F001040484058BD5
:10205000048C25F0F3054FF6FF7606EA03131343CD
:102060002B43104A90420ED00F4A90420BD0B0F151
:10207000804F08D00D4A904205D00D4A904202D0C0
:102080000C4A904205D124F002020A4342F00101B9
:1020900004E024F00A020A4342F0010103830184B0
:1020A00070BD0000002C01400034014000040040DD
:1020B00000080040000C0040F0B5048C24F010042F
:1020C0000484068B048C4FF6FF7505EA011726F48D
:1020D000734605EA0333334305EA02221A43104BE1
:1020E00098420ED00F4B98420BD0B0F1804F08D0E1
:1020F0000D4B984205D00D4B984202D00C4B9842A4
:1021000005D124F02001394341F0100104E024F00E
:10211000A0030B4343F0100102830184F0BD0000D3
:10212000002C014000340140000400400008004041
:10213000000C0040F0B5048C24F480740484858B7A
:10214000048C4FF6FF7707EA012625F0F30507EA2E
:10215000031313432B43104A90420ED00F4A904270
:102160000BD0B0F1804F08D00D4A904205D00D4AF7
:10217000904202D00C4A904205D124F400713143C0
:1021800041F4807104E024F420620A4342F4807137
:1021900083830184F0BD0000002C01400034014025
:1021A0000004004000080040000C0040F0B5048C22
:1021B00024F480540484868B048C4FF6FF7505EA62
:1021C000013726F4734605EA0222324305EA033357
:1021D0001343104A90420ED00F4A90420BD0B0F1F8
:1021E000804F08D00D4A904205D00D4A904202D04F
:1021F0000C4A904205D124F40051394341F48051F6
:1022000004E024F402420A4342F4805183830184AF
:10221000F0BD0000002C01400034014000040040EB
:1022200000080040000C00400146054A914201D1DF
:102230001B207047034A9142FBD12E2070470000BB
:10224000002C01400034014070B501218D07284663
:1022500000F08FFB00287DD002F0FAFF90F83600E6
:10226000002428B102F0F4FF018F491C018702E02D
:1022700002F0EEFF048703F0B1F8807B0A2816D342
:1022800003F0ACF801780820FEF788FB02F0E4FFC9
:1022900001460C20FEF782FB02F0DAFF90F83410C2
:1022A0001020FEF77BFB03F099F8847304E003F041
:1022B00095F8817B491C817303F058F890F8400031
:1022C00080B102F0CFFF407960B903F04FF8416C64
:1022D000491E416403F04AF8406C18B903F046F80F
:1022E00080F8404003F042F890F8480080B102F0D6
:1022F000B9FF407960B903F039F8C16C491EC16477
:1023000003F034F8C06C18B903F030F880F8484096
:1023100003F02CF890F8400060B902F0A3FF407978
:1023200040B903F023F8C46017488481C481046075
:102330004460046103F01AF890F8480070B902F0A4
:1023400091FF407950B903F011F804610F4884817E
:10235000C48100E016E004604460046102F0F0FF14
:10236000407848B103F002F890F8200003F002F83A
:10237000044602F0E5FF44602846BDE870400121B4
:1023800000F0E8BA70BD0000B8070020D0070020B8
:102390002DE9F05FDFF868A10121504600F0E9FA6D
:1023A000584C594D58B1216809B1491C2160296820
:1023B00009B1491C29600121504600F0CBFA0221E5
:1023C000504600F0D6FADFF8449100270126002895
:1023D00050D002F047FF407958B902F0C7FF80F8AB
:1023E000406002F0C3FFD0F8508002F0BFFFC0F899
:1023F0004480DFF80C81206808F1340818B3B8F87D
:102400000010E181401EE189C0EB00400844A18931
:10241000401A2061FEF74BF801464846FDF782FF5F
:10242000606002F0A3FF01686068FDF749FF38496A
:10243000FDF746FF834602F099FFC0F80CB0276015
:10244000A8F8007005E0A8F80070B8F80000A081B6
:10245000266002F007FF407940B102F06DFF067080
:1024600002F06AFF446802F067FF84600221504670
:1024700000F070FA0421504600F07BFA00283CD0AE
:1024800002F0F0FE407948B902F070FF80F8486031
:1024900002F06CFF046D02F069FFC464184C2868F8
:1024A000383400B32188E981401EE989C0EB00403F
:1024B0000844A989401A2861FDF7F9FF01464846FA
:1024C000FDF730FF686002F051FF41686868FDF772
:1024D000F7FE0F49FDF7F4FE064602F047FF0661DE
:1024E0002F60278003E027802088A8812E60504637
:1024F000BDE8F05F042100F02DBABDE8F09F0000B8
:1025000000080040B8070020D00700200050C34753
:102510000000704270B5774E0121304600F029FA74
:10252000002870D002F098FE0024032804D002F0A6
:1025300093FE022828D0D5E002F08AFE90F82C0005
:10254000F0B102F097FE007C0028F4D102F092FE78
:10255000C068694988420DD302F08CFEC46002F065
:1025600089FE044602F086FE41682068FDF750FEB1
:102570002060B7E002F07EFEC168491CC160B1E096
:1025800002F078FEC460ADE002F06CFE40790028F5
:1025900075D002F0D1FE00780028CCD002F0CCFE3D
:1025A000806878B302F0C8FE8168491E816002F03D
:1025B00059FE006A0A285BD302F054FE046202F05E
:1025C000BBFE00F10C0402F0B7FE01692068FDF7C4
:1025D0001FFE206002F0ACFE0078032102F0B4FE82
:1025E000B0B102F03FFE446902F0A6FEC068214689
:1025F000FDF7B0FF76D202F035FE446902F09CFE92
:10260000C4606FE000E073E002F096FE0470CEE775
:1026100002F01EFE90F83A00C8B102F023FE807965
:1026200002F032FE044602F01DFE846002F01AFE43
:10263000846802F081FEC0682146FDF78BFF51D807
:1026400002F010FE846802F077FEC4604AE002F0F7
:1026500009FEC46802F070FEC0682146FDF77AFFEB
:1026600040D202F0FFFDC46802F066FEC46039E0AB
:1026700002F0F8FD016A491C016233E0FFE702F055
:1026800057FE0078032102F05FFE70B902F0EAFD08
:10269000006A0A2804D302F0E5FD007F01280FD06C
:1026A00002F0E0FD016A491C016202F05FFE90F851
:1026B0005400A0B102F05AFE016E491C016611E0FF
:1026C00002F0D0FD046202F051FE00F11C0502F0A0
:1026D0004DFE416A2868FDF79BFD2860E5E702F0A2
:1026E00045FE04663046BDE87040012100F032B975
:1026F00070BD0000000C0040E093040070B5234D55
:102700000121284600F035F900283ED0204C2078E1
:1027100020490A2801D3087828B120780A282ED227
:10272000087818B12BE00120087028E002F05AFE6A
:10273000194800681949227841F8220018480068B1
:102740001849227841F8220017480168174A207872
:1027500042F82010164800681649227841F82200F5
:10276000154800681549227841F82200144800688D
:102770001449227841F822002178491C217028460A
:10278000BDE87040012100F0E5B870BD00100040C8
:102790004B0000204A00002054000020D8050020F3
:1027A00058000020000600205C00002028060020C1
:1027B0006000002050060020640000207806002001
:1027C00068000020A006002070B5234D0121284696
:1027D00000F0CFF800283ED0204C207820490A286D
:1027E00001D3087828B120780A282ED2087818B1A9
:1027F0002BE00120087028E002F040FE1948006834
:102800001949227841F822001848006818492278AE
:1028100041F8220017480168174A207842F8201032
:10282000164800681649227841F8220015480068C9
:102830001549227841F8220014480068144922788A
:1028400041F822002178491C21702846BDE87040DB
:10285000012100F07FB870BD001400404D00002041
:102860004C0000206C000020C806002070000020F2
:10287000F0060020740000201807002078000020D7
:10288000400700207C000020680700208000002016
:10289000900700202DE9F0411E4F0221384600F03C
:1028A00068F8002834D01C4C1A4E343620680025B5
:1028B00018B33188E181401EE189C0EB0040084433
:1028C000A189401A2061FDF7F2FD01461348FDF78A
:1028D00029FD6060217D124A42F821002560491CD3
:1028E000C8B2207535800A280CD30A21104603F09F
:1028F00031F9A0602575656004E035803088A081DD
:10290000012020603846BDE8F041022100F022B8E5
:10291000BDE8F08100340140E8070020001BB74902
:102920000008002010B5094C0121204600F021F8D4
:1029300000280AD00649086808B1401C08602046F3
:10294000BDE81040012100F005B810BD0034014081
:10295000E8070020C94301827047002904D001889C
:1029600041F0010101807047018821F001010180DF
:10297000704702460020138A0B4092890A40002BC0
:1029800002D0002A00D001207047000070B5054633
:102990000C461D48854209D01C48854206D0B5F139
:1029A000804F03D01A48854200D01A482088618899
:1029B000A288238960B1042813D008281AD0284699
:1029C000FFF7F4FBE1882846BDE8704000F04AB804
:1029D0002846FFF737FBE1882846BDE8704000F045
:1029E00025B82846FFF768FBE1882846BDE8704017
:1029F00000F024B82846FFF79DFBE1882846BDE893
:102A0000704000F027B80000002C01400034014065
:102A10000004004000080040002A03D082890A43D5
:102A20008281704782898A4382817047028B22F0BB
:102A30000C020283028B0A4302837047028B22F44A
:102A400040620283028B4FF6FF7303EA01210A43BF
:102A500002837047828B22F00C028283828B0A43AE
:102A600082837047828B22F440628283828B4FF68E
:102A7000FF7303EA01210A43828370470146B1F1E3
:102A8000804F04D0124A914203D11D2070471C2070
:102A90007047104A914201D11E2070470E4A914260
:102AA00001D1322070470D4A914201D13620704742
:102AB0000B4A914201D1372070470A4A914201D115
:102AC00019207047084A9142FBD12C207047000022
:102AD0000004004000080040000C004000100040CE
:102AE00000140040002C01400034014030B5028841
:102AF0001B4C1C4DA0420DD0A8420BD0B0F1804F12
:102B000008D0194B984205D0184B984202D0184B68
:102B1000984203D122F070034A881A43154B984219
:102B200006D0154B984203D022F44073CA881A434A
:102B300002808A8882850A880285A0420AD0A8423B
:102B400008D00E4A904205D00D4A904202D00D4A5C
:102B5000904201D1097A01860121818230BD0000B5
:102B6000002C0140003401400004004000080040F7
:102B7000000C0040001000400014004000400140E4
:102B8000004401400048014070B5164D40F2244118
:102B9000284600F07BF8002823D02888281D0088CC
:102BA000114E00213046FEF73FFC3046FEF7C6FCD2
:102BB000C0F1400084B24FF4C000FEF729FC0A497E
:102BC00040206C39086701213046FEF72DFC002CAF
:102BD00007D00649284602F07FFD05480168491CD8
:102BE000016070BD004400406C00024045000020C0
:102BF000D400002070B5164D40F22441284600F064
:102C000045F8002822D02888281D0088114E002170
:102C10003046FEF709FC3046FEF790FCC0F5007028
:102C200084B26020FEF7F4FB0A4968151C39C865B8
:102C300001213046FEF7F8FB002C07D00649284654
:102C400003F00AFA05480168491C016070BD0000E4
:102C5000004800401C000240CC000020D4000020AE
:102C6000002904D0818941F4005181817047818914
:102C700021F4005181817047002A03D0828A0A43DF
:102C800082827047828A8A438282704770B50024AC
:102C900040F66A12C1F3421301F01F05012606FA3D
:102CA00005F2012B0CD0022B0DD0838A1340090AA8
:102CB0008E40008830400BB100B10124204670BD29
:102CC00083891340F3E7038A1340F0E710B540F619
:102CD0006A13C1F3421301F01F040121A140012B2B
:102CE00007D0022B07D014303AB102680A430260C1
:102CF00010BD0C30F8E71030F6E702688A43026036
:102D000010BD000030B585B004460D46208A4CF653
:102D1000FF710840E98801432182A0894EF6F31132
:102D20000840A9882A8911436A8902431143A18175
:102D3000A08A4FF6FF410840A9890143A182684655
:102D4000FEF7ACFE1D48844201D1039800E00298D2
:102D5000A189090408D500EBC00101EB0010296826
:102D60004900B0FBF1F007E000EBC00101EB0010FF
:102D700029688900B0FBF1F06422B0FBF2F109018F
:102D80000B096FF018056B4300EB8300A3891D044A
:102D90004FF0320307D503EBC000B0FBF2F000F0B8
:102DA0000700084306E003EB0010B0FBF2F000F070
:102DB0000F000843208105B030BD000000380140FD
:102DC00001460D4A914201D10C4870470C4A91428C
:102DD00001D10C4870470C4A914202D10948403059
:102DE00070470A4A914201D109487047094A914205
:102DF000FBD1094870470000003801402808002036
:102E0000004400402809002000480040004C0040D9
:102E1000680B002000500040680D002001460D4A5C
:102E2000914201D10C4870470C4A914201D10C48A3
:102E300070470C4A914202D10948403070470A4A13
:102E4000914201D109487047094A9142FBD1094892
:102E50007047000000380140680F00200044004027
:102E60006810002000480040004C0040A8120020DC
:102E700000500040A8140020F0B502461C4C1D4B29
:102E80001D4D1E4E1E4F802905D0402902D1A24261
:102E90001AD11C48F0BDA24202D11A486438F0BDD4
:102EA0009A4202D117485038F0BDAA4202D11548C3
:102EB0003C38F0BDB24202D112482838F0BDBA42C7
:102EC000FCD110481438F0BD9A4202D10D4814309C
:102ED000F0BDAA4202D10B482830F0BDB24202D167
:102EE00008483C30F0BDBA42FCD106485030F0BD35
:102EF000003801400044004000480040004C0040C1
:102F0000005000404001002001460D4A914201D18D
:102F1000801570470B4A914201D1402070470A4BFF
:102F20005A15994201D110467047084B994201D178
:102F300010467047064B9942FBD11046704700007F
:102F4000003801400044004000480040004C004070
:102F50000050004001460D4A914201D18015704752
:102F60000B4A914201D1402070470A4B5A159942B1
:102F700001D110467047084B994201D11046704765
:102F8000064B9942FBD110467047000000380140C3
:102F90000044004000480040004C00400050004009
:102FA00001460C4A914201D1252070470A4A9142BC
:102FB00001D126207047094A914201D1272070474C
:102FC000074A914201D134207047064A9142FBD111
:102FD0003520704700380140004400400048004060
:102FE000004C00400050004010B586B0144C022147
:102FF0002046FEF79BF8002820D004212046FDF74C
:10300000E7FF10492046FDF7CBFF01AA002120462B
:10301000FEF77EF90198A0F50070093806D0012866
:1030200008D1094901A801F0F4FB03E0074901A810
:1030300001F0EFFB06480168491C016006B010BDB5
:103040000064004008000032320000203A000020F6
:10305000D0000020FEE730B505460C46002D01D01B
:10306000022C01D8002030BDA01EC1B22846FEF7B8
:1030700001FC2919C2B211F8023C9A4206D111F89A
:10308000011CB1EB102F01D1012030BD002030BD5B
:1030900002E008C8121F08C1002AFAD17047704721
:1030A000002001E001C1121F002AFBD1704700007F
:1030B0002DE9F041594C6068FDF7F9F9584D294662
:1030C000FDF7FEF8064602F0C3F8866002F030F91C
:1030D000217A0170E068FDF7EAF9064602F0C2F8CD
:1030E0000661E069FDF7E3F9064602F03FF9066381
:1030F0002069FDF7DCF92946FDF7E2F8064602F003
:1031000035F946636069FDF7D2F92946FDF7D8F82D
:10311000064602F02BF98663A069FDF7C8F9294637
:10312000FDF7CEF8064602F093F8C661606AFDF737
:10313000BEF92946FDF7C4F8064602F089F8066292
:10314000206AFDF7B4F92946FDF7BAF8064602F001
:1031500089F8466102F00AF9E16B816502F0ECF84A
:10316000216C416002F002F9616C016502F0FEF829
:10317000A16CC165E06CFDF79AF92946FDF7A0F84E
:10318000064602F0DDF80661206DFDF790F929464C
:10319000FDF796F8064602F0D3F84661606BFDF73E
:1031A00086F90746A06AFDF782F92946FDF788F8F7
:1031B0001C4E3146FDF784F83946FDF7B3F8074653
:1031C00002F0D4F80760A06BFDF771F90746E06ADA
:1031D000FDF76DF92946FDF773F83146FDF770F8F4
:1031E0003946FDF79FF8064602F0C0F8466002F047
:1031F0002FF880684FF0FF31FDF7D2F8064602F055
:1032000039F88660206BFDF752F92946FDF758F82A
:10321000044602F0ABF8C462BDE8F0814002002031
:103220000AD7233CDB0F494070B50124064E074DF9
:1032300006EB840105EB4400022201F075FA641CE0
:10324000E4B2152CF4D370BD400200200030030816
:1032500070B50024064E074D06EB840105EB4400D3
:10326000022201F079FA641CE4B2152CF4D370BD8B
:10327000400200200030030810B500F0A7FD01F067
:103280006FF900F0EBFE00F0FBF8BDE810400148DC
:10329000FEF704BC2002002010B51D480221016089
:1032A00040F6C4124260002181601923C3600261AC
:1032B000FA22426181614FF49671C1616422026217
:1032C000C1634FF4AF720264416481644FF47A7158
:1032D000C164016532214162282282621E22C262DB
:1032E0004FF4FA72026341634FF40071816302226A
:1032F0000849094801F018FA06480078FF2803D069
:10330000BDE81040FFF790BFBDE81040FFF7A0BF39
:1033100040020020250000200030030810B50A21DB
:10332000144802F017FC144908600A21134802F0FF
:1033300011FC134908600A21124802F00BFC1249E3
:1033400008600A21114802F005FC114908600A21B1
:10335000104802F0FFFB104908600A210F4802F0F4
:10336000F9FB0F4908600F49002008700E490870EA
:1033700010BD0000D80500208400002000060020B9
:1033800088000020280600208C0000205006002025
:10339000900000207806002094000020A006002065
:1033A000980000204A0000204B00002010B50A21A0
:1033B000144802F0CFFB144908600A21134802F0B8
:1033C000C9FB134908600A21124802F0C3FB1249E5
:1033D00008600A21114802F0BDFB114908600A216A
:1033E000104802F0B7FB104908600A210F4802F0AC
:1033F000B1FB0F4908600F49002008700E490870A2
:1034000010BD0000C80600209C000020F00600202F
:10341000A000002018070020A40000204007002082
:10342000A800002068070020AC00002090070020C2
:10343000B00000204C0000204D00002008B503F033
:10344000D5F900900C4C0D4D0221684603F07AF836
:10345000207818B1FFF762FF03F03EF8287818B122
:10346000FFF7A4FF03F038F8207829780843EBD160
:1034700003F032F8E8E700004A0000204C0000208A
:103480001FB500200649CDE901100622034600922F
:1034900003904FF4007203A1034803F02DF91FBD00
:1034A00094020020414443003D34000810B501F06F
:1034B000CFFE90F834000021032860D018DC534C74
:1034C00050B3012845D0022811D1010400225048F0
:1034D00001F084FE4E480068D0B320684D49884210
:1034E00005DB01F0B5FE10F8341F491C017010BD5A
:1034F000042851D005286CD06328F8D101F0A8FE2B
:1035000080F83A1001F0A4FE80F83B100021BDE8DD
:103510001040052002F0B6BD3F4801603E486421DE
:103520001C3802F01DFD20683C498842DFDB3A4828
:103530003221243802F014FD01F08AFE012180F8C6
:10354000361001F085FE10F8341F491C017010BDC3
:103550000FE001F07DFE008F0528F8D301F078FE22
:1035600080F8361001F074FE10F8341F491C017009
:10357000EDE76321BDE81040022002F083BD00208A
:1035800001F05CF9002001F071F901F061FE10F822
:10359000341F491C0170DAE700F042F801F08AFE9E
:1035A000407A042101F084FE38B901F083FE407AAC
:1035B000012101F07DFE0028C9D101F049FE90F8FB
:1035C0003A000028C3D16321BDE81040022002F078
:1035D00059BD01F03DFE90F83B0040B901F038FEC6
:1035E00090F83A0018B10421022002F04BFD01F0DE
:1035F00061FE407A042101F05BFE0028A7D0632120
:10360000BDE81040022002F03DBD0000A0000020F7
:10361000080123420000EB43B08122420000D24364
:1036200070B501F01FFE4079002468B101280AD16D
:1036300001F00EFEC07B002871D001F013FE447132
:1036400001F010FE047770BD01F00CFE007F012533
:10365000784E0528F7D2DFE800F0031037A5CA003E
:1036600001F0F6FDC07B0028EDD0C6F89C4101F0CA
:10367000F9FD017F491C017770BD01F0E9FDC07BB8
:1036800020B101F0E5FD90F83B0018B101F058FEC3
:10369000007818B1BDE8704002F0FEBC01F0D8FD22
:1036A00090F8480030B101F0DDFD457101F0DAFD20
:1036B000047770BD01F05AFE80F8545001F0D2FD3D
:1036C000017F491C017770BD01F0C2FD90F83A00FE
:1036D000C0B301F0BDFD90F83B0088B101F046FE9B
:1036E000016E01F043FEC06D814246D301F0BAFD88
:1036F000017F491C017701F039FE80F854403CE01D
:1037000001F0A6FDC07B58B101F030FE80F85440B6
:1037100001F02CFE046601F0A5FD05772DE084E0A4
:1037200001F024FE016E01F021FEC06D814224D320
:1037300001F098FD017F491C017701F017FE80F828
:1037400054401AE0FFE701F083FDC07B20B101F097
:103750007FFD90F83A00D0B101F008FE016E01F053
:1037600005FE806D814208D301F07CFD017F491C7C
:10377000017701F0FBFD80F8544001F0F7FD90F86F
:10378000540000289FD0BDE8704002F05DBD01F0FC
:10379000EDFD80F8544001F0E9FD046601F062FDA2
:1037A0000577EAE701F05EFD80692349884205DC80
:1037B00001F058FD017F491C017770BD01F0D6FD75
:1037C00000F11C04C0694FF0FF31FCF7E9FD2060F7
:1037D00001F0CCFDC06901F031F801F0C7FDC0690E
:1037E00001F044F8BDE87040642002F081BE01F0B1
:1037F000BDFDC46101F0BAFDC06901F01FF801F020
:10380000B5FDC06901F032F8C6F89C5101F02AFDFF
:10381000047701F01DFD90F83B000028CDD0BDE8F5
:1038200070400521022002F02DBCBDE8704002F07E
:1038300033BB0000008022420000204110B501F09F
:1038400015FD817801F012FD017001F00FFD017886
:1038500001F00CFD407881420DD001F007FD0078A9
:1038600020B16421074802F07BFB04E00548642195
:103870000C3002F075FB01F0F9FC017801F0F6FC68
:10388000417010BD9481214270B501F0E1FC806867
:103890001749FCF715FD174C6060207C28B100200B
:1038A00020740121144802F065FBA1682068FCF730
:1038B00051FE01D2A068206001F0CAFC0F4E85685D
:1038C00031462068FCF7FCFC2946FCF72BFD00F094
:1038D000B5FF01F0BDFC856831462068FCF7F0FCBF
:1038E0002946FCF71FFDBDE8704000F0BFBF000097
:1038F000CDCC4C3D3C030020BC01214200004040A7
:103900002DE9F04101F0A4FC90F834000024614F4F
:10391000614D012604286DD018DCDFF8808108B3E2
:1039200001283CD002284AD003280DD1002000F005
:1039300085FF002000F09AFFC5F89C4101F088FC4B
:1039400010F8341F491C0170BDE8F081052861D0D2
:1039500006287DD06328F7D1BDE8F041042101207D
:1039600002F090BBC7F8A041C5F8B04164214C48B3
:1039700002F0F6FAD8F800004A498842E4DB4848E9
:103980003221083802F0ECFA01F062FC80F836606F
:1039900001F05EFC10F8341F491C0170D4E701F0FF
:1039A00057FC008F0528CFD301F052FC80F8364039
:1039B00001F04EFC10F8341F491C0170C4E70022CE
:1039C0004FF40031384801F009FC3748006858B11D
:1039D000D8F8000035498842B6DB01F039FC10F810
:1039E000341F491C0170AFE7BDE8F04100210320FE
:1039F00002F048BB01F02CFC90F82C0018B1BDE897
:103A0000F041FFF741BF01F023FC10F8341F491CBF
:103A1000017099E701F026FC80692549884206DC9F
:103A200001F016FC10F8341F491C01708CE701F0FE
:103A300021FC044600684FF0FF31FCF7B1FC206028
:103A400001F018FC006800F0F9FE01F013FC00E042
:103A500007E0006800F00AFFBDE8F041642002F0D2
:103A600047BD01F007FC0460002000F0E7FE0020E5
:103A700000F0FCFEC5F89C6109486421001D02F0BD
:103A80006FFAC7F8A061BDE8F0416321032002F09E
:103A9000F9BA00000000214200802242A00000206C
:103AA000948122420000D243080123420000EB43EC
:103AB000000020412DE9F04701F0CAFB90F83400E6
:103AC000DFF8BC810124DFF8B4916D4F00266D4D05
:103AD00008F1140803284AD019DC40B3012836D075
:103AE000022812D1C1030022674801F077FBD9F800
:103AF0000001002809D001F0ABFB80F8364001F04E
:103B0000A7FB10F8341F491C0170BDE8F08704289A
:103B10006AD06328F9D101F09BFB90F82C000028B3
:103B20007DD0BDE8F0470021032002F0ABBA544835
:103B30006421001F02F014FA01F08AFB80F836407D
:103B400001F086FB10F8341F491C0170DDE701F01D
:103B50007FFB008F1428D8D901F07AFB80F83660FB
:103B600001F076FB10F8341F491C0170CDE701F01D
:103B70006FFB008FB0F5FA7F07D901F069FB80F881
:103B8000366042480660C5F8906101F093FB407AC8
:103B9000022101F08DFBB0B901F05AFB90F83A0018
:103BA00088B901F055FB80F83660C5F89041642172
:103BB000384602F0D5F96421404602F0D1F90021DF
:103BC000084602F05FFAD5F8900100289DD101F077
:103BD0003FFB90F83000000797D401F039FB10F854
:103BE000341F491C017090E701F064FB407A022108
:103BF00001F05EFB90B901F02BFB90F83A0068B938
:103C0000C5F890416421384602F0AAF96421404683
:103C100002F0A6F90021084602F034FA00E027E09D
:103C200001F016FB90F8300080078FD401F010FBF4
:103C300090F83000400789D401F03CFB407A012124
:103C400001F036FB50B901F003FB90F82C0028B9C5
:103C500001F0FEFA90F83A00002887D0D9F8000168
:103C60000028C0D0BDE8F0476321012002F00ABA65
:103C7000BDE8F0470021022002F004BA0000234210
:103C8000848122420080224200012342B0812142ED
:103C900070B501F0DDFA8068FCF70EFC354C606011
:103CA00001F046FB0078A06001F0DCFA0069FCF747
:103CB00003FCE06001F05AFB006BFCF7FDFBE061E8
:103CC00001F054FB2C4D406B2946FCF7F9FAFCF748
:103CD000F3FB206101F04AFB806B2946FCF7F0FA08
:103CE000FCF7EAFB606101F0B3FAC0692946FCF712
:103CF000E7FAFCF7E1FBA06101F0AAFA006A2946A5
:103D0000FCF7DEFAFCF7D8FB606201F0ABFA406921
:103D10002946FCF7D5FAFCF7CFFB206201F026FB21
:103D2000806DE06301F008FB4068206401F01EFB39
:103D3000006D606401F01AFBA16CC16501F000FB2D
:103D400000692946FCF7BCFAFCF7B6FBE06401F019
:103D5000F7FA40692946FCF7B3FAFCF7ADFB20659A
:103D600001F004FBC06A2946FCF7AAFAFCF7A4FBA1
:103D7000206370BD400200200000C84208B502F078
:103D800035FD00900521684602F0DCFB01F064FA85
:103D9000062815D2DFE800F00306090C0F1200F028
:103DA0007BF90DE0FFF786FE0AE0FFF77FFB07E0F7
:103DB000FFF7A6FD04E000F02BF801E000F0AEF9FB
:103DC000FFF73CFD00F01AF8DCE700001FB500200B
:103DD0000649CDE9011006220346009203904FF4F4
:103DE000007203A1044802F087FC1FBD50030020AD
:103DF000494E5055540000007D3D000810B500F0BC
:103E000017FF02488168491D816010BD50030020E2
:103E10002DE9F04101F094FA007B002501247E4950
:103E20007E4FDFF8FC817F4E03287DD011DC38B354
:103E300001282ED002280AD101F014FA80697A49AB
:103E400088425FDC01F07CFA017B491C0173BDE80C
:103E5000F081042869D06328F9D1C8F8AC5101F089
:103E60006FFA057001F06CFA057301F0F1F990F842
:103E7000354001F003FA2146BDE8F04102F002B9F5
:103E800001F05EFA447001F05BFA017B491C01739A
:103E9000DDE701F055FA00F1080401F051FA40683D
:103EA000FCF70EFA3946FCF70BFA2168FCF7B0F97B
:103EB000206001F045FA016901F042FA8068FCF7E0
:103EC00049FB0AD801F03CFA457001F039FA8560E7
:103ED00001F036FA017B491C017301F031FA407898
:103EE0000028B4D001F0CAF90228B0D101F0BAF923
:103EF000407918B1BDE8F04101F0CEBFBDE8F04116
:103F000002F0A2B901F0AEF940794FF0FF35B0B13F
:103F100001F012FA00F10C04C0682946FCF740FADF
:103F2000206001F009FA01E021E03BE0C06800F008
:103F300085FC01F001FAC06800F098FC12E001F085
:103F400015FA00F11C04C0692946FCF729FA206023
:103F500001F00CFAC06900F071FC01F007FAC069C9
:103F600000F084FCBDE8F041642002F0C1BA01F029
:103F7000FDF9C56101F0E0F9C560002000F05EFCCC
:103F8000002000F073FCC8F89C41C6F8B041C6F8A8
:103F9000A04101F0D5F9447001F0D2F9017B491C30
:103FA000017354E701F0CCF900F1080401F0C8F9FD
:103FB0004068FCF785F93946FCF782F92168FCF77F
:103FC00027F9206001F0BCF9416901F0B9F9806876
:103FD000FCF7C0FA07D8C6F8A05101F0B1F9457056
:103FE00001F0AEF9856001F0ABF940780028D8D136
:103FF00006F59A7630687168C0B2490640EA1160E9
:10400000B168890640EA11600228CAD001F098F927
:10401000632101731BE700008D7A883C0AD7233C9B
:1040200000802242008021420000204108B502F0B9
:10403000DDFB0090084D1E240221684602F082FA42
:104040002868B0FBF4F104FB110008B900F01EF879
:104050002868401C2860EFE72C0000201FB50020D6
:104060000649CDE9011007220346009203904FF460
:10407000807203A1044802F03FFB1FBDAC03002087
:1040800053455249414C00002D400008014801F0C1
:1040900041BB00000044004010B501F0D9F890F891
:1040A000340048B101281AD0632817D10021BDE897
:1040B0001040012001F0E6BF01F0CAF890F830008E
:1040C00080070BD401F0C4F890F83000400705D405
:1040D00001F0BEF810F8341F491C017010BD01F04A
:1040E000E9F8407A012101F0E3F888B901F0E2F83B
:1040F000407A022101F0DCF850B901F0A9F890F8FB
:104100002C0028B901F0A4F890F83A000028E5D076
:104110006321BDE81040002001F0B4BF70B501F08C
:1041200097F890F834000125494E4A4C02286DD08A
:104130001FDC60B301281BD101F0FEF80024C4602D
:1041400001F014F9C46101F08DF80477002000F04B
:1041500075FB002000F08AFBC6F89C5164213E48A4
:1041600001F0FEFE01F074F810F8341F491C0170D4
:1041700070BD0328FCD06328FAD1D4F800010028D0
:1041800060D0BDE870400421012001F07BBF01F048
:1041900069F880693149884206DC01F059F810F865
:1041A000341F491C017070BD01F05CF840794FF07C
:1041B000FF3598B101F0C0F800F10C04C068294641
:1041C000FCF7EEF8206001F0B7F8C06800F036FBAD
:1041D00001F0B2F8C06800F049FB12E001F0C6F847
:1041E00000F11C04C0692946FCF7DAF8206001F0F0
:1041F000BDF8C06900F022FB01F0B8F8C06900F01A
:1042000035FBBDE87040642002F072B94FF47A705B
:1042100002F06EF9D4F8080170B1D4F80401002856
:10422000C1D0C6F8B451C6F8985101F011F810F891
:10423000341F491C017070BD01F00AF8632180F839
:10424000341070BDBDE870400021084601F01ABF6F
:104250000080224200002342988122420000204137
:1042600010B51D480068002823D000F0F1FF90F839
:104270003000000628D419480168CCB24168806833
:10428000490644EA1164800644EA106400F0E0FF45
:10429000016B21F0780101631148D0F8900100B161
:1042A00074B100F0D5FF016B641C41EAC4010163E5
:1042B00010BD00F0CDFF016B21F07801016310BD4E
:1042C000BDE8104000F0C4BF00F0C2FF016B21F058
:1042D0007801016310BD0000300123423481214286
:1042E0000080224208B502F081FA0090DFF838829F
:1042F00001258E4F4FF4807908F1040A0024022131
:10430000684602F01FF98A48006808B9FFF7A8FF5D
:104310008548012202210C3800F060FF8448012208
:1043200004218C3800F05AFF01228021404600F021
:1043300055FF01224946504600F050FF7A480122BD
:104340005102083000F04AFF7748012291022438D8
:1043500000F044FF74480122D102203800F03EFFF3
:104360007148012211031C3800F038FF6E48012209
:104370005103183800F032FF6B48012291031438C2
:1043800000F02CFF00F0D4FF0078182100F0DCFFD3
:10439000064600F0EBFF80F8206000F0C9FF0078CF
:1043A000042100F0D1FF634EC6F8A0016248006806
:1043B0006249884206DA00F04BFF016B41F480212C
:1043C000016305E000F044FF016B21F480210163EB
:1043D00000F03EFF90F82D0090B100F039FF016B26
:1043E00021F40021016300F033FFC57300F030FFBA
:1043F00090F8480030B300F02BFFC07BF8B121E00B
:1044000000F026FFD0F820B000F0B0FFC068594699
:10441000FCF796F809D200F01BFF016B41F4002174
:10442000016300F015FFC473E0E700F011FF016BBA
:1044300021F40021016300F00BFFC573D6E700F003
:1044400011FF4571D6F8A001A8B1D7F80C0140B111
:1044500000F0FEFE80F83A5000F0FAFE80F83B4093
:1044600011E000F0F5FE90F83A0060B100F0F0FEC7
:1044700080F83B5007E000F0EBFE80F83A4000F097
:10448000E7FE80F83B4000F0E3FE866800F0E0FEC7
:10449000C0692B49FBF714FF3146FBF743FF064683
:1044A00000F0E0FEC66000F0D3FE81682548006899
:1044B000FBF706FF2449FBF735FF064600F0D2FE66
:1044C000866100F053FF90F8200000F053FF06468D
:1044D00000F04CFF86601D480068FBF7EDFF81B2DD
:1044E00000221B4800F0EAFE1A49FBF7E9FE0646E7
:1044F00000F0AEFE4660184E307820B10A21174811
:1045000001F02EFD3470D7F80001707000F066FFE6
:10451000407B30B1FFF7BCFBFEF79AFE00F05EFF78
:104520004473FDF7F1F9EAE6340123420000234227
:10453000B081214200002142A00000200000EB4396
:10454000000040408C000020A3AB6845980000208C
:104550006C6B0008CDCCCC3D30000020B8812242ED
:104560001FB500200649CDE901100522034600923F
:1045700003904FF4807203A1054802F0BDF81FBDFF
:10458000B80300205355504552564953494F5200E5
:10459000E542000810B501214FF0C050FDF75CFA6C
:1045A000BDE810400120FDF733BA00000D4B811823
:1045B000994201D90320704712B10123002109E07B
:1045C000002070470378FF2B01D0022070470023A2
:1045D000401C491C9142F5D3012B01D001207047AA
:1045E00000207047000004086FF30A00704710B500
:1045F0004FF44070FDF7F0F9FFF7CCFF00F02BF817
:1046000000F005F800F0EAFE0121017010BDFEB5D2
:10461000E020FDF709FA0120FDF700FA01248DF8EA
:10462000084008258DF8095000278DF80A708DF88C
:104630000B4002A8FDF79EF926043046FCF7F2FF76
:1046400000968DF804708DF805508DF80640684688
:10465000FCF7FEFFFEBD7CB500240420FCF794F9B6
:1046600045F25005A8424FD0FCF784F90120FDF730
:1046700083FA04E0641CE4B20A2000F00BF9412044
:10468000FDF762FA0028F5D0FA2C01D301207CBD99
:104690004FF48070FDF78AFA0120FDF781FAFDF7EB
:1046A00029FCFDF72FFC01210220FDF76BFBFDF734
:1046B00021FCFDF78BFA0020FDF7FCFBFDF71AFC4F
:1046C00047F6FF70FDF706FCFDF714FC00200224FE
:1046D000CDE9004040F2E7760B2309220521304660
:1046E000FDF76EFB1421CDE900410B2309220521C2
:1046F0003046FCF7C3F8FDF7FDFBFDF76FFA2946DE
:104700000420FCF74BF907E0FDF7FCFB0121022038
:10471000FDF738FBFDF7EEFB00210320FDF740FB22
:10472000FDF764FA00207CBD10B50A4C8318A34243
:1047300001D9012010BD0AB1002306E0012010BDFF
:1047400010F8014B01F8014B5B1C9342F8D3002099
:1047500010BD0000000004082DE9F041074688461E
:10476000164604252549B819884202D90120BDE81A
:10477000F0811EB1F00703D00120F8E70020F6E732
:10478000324641463846FFF711FF044654B1012036
:1047900080F31088FCF7F0FF3520FCF793FF022C24
:1047A00002D00BE00020E2E73846FFF71DFFFCF7E0
:1047B0008FFF0546042D01D00220D8E700240EE02B
:1047C00018F8140008EB4401497840EA0121384602
:1047D000FCF7B8FF0546042D04D1BF1C641CB4EBE4
:1047E000560FEDD3FCF7A6FF002080F31088042DB0
:1047F00001D00220BBE70020B9E700000000040858
:1048000030B5DDE9034501608280C38004814581C4
:1048100030BD027BC37A42EA03220A80827B437B5B
:1048200042EA03224A80027CC37B42EA03228A8056
:10483000827C407C42EA0020C880704710B508495D
:10484000FBF770FD0749FBF73BFDFBF735FE81B237
:1048500005480180BDE810400020FCF7C5BD000000
:104860003333534000F07F454200002010B5074924
:10487000FBF758FD0649FBF723FDFBF71DFE81B250
:10488000BDE810400020FCF7B9BD000033335340B1
:1048900000F07F4510B50022044C04E02146491E7B
:1048A0004B1CFCD1521C8242F8DB10BD40190100A8
:1048B00030B591B001210846FDF7C0F8484D2846B3
:1048C000FCF7C0FD4748019047480290002403943C
:1048D0003C210491059480210691490007918800AC
:1048E00008902020099000020A900B9401A9284604
:1048F000FCF727FE01212846FCF796FD012148021E
:10490000FDF7B8F800213948FCF79FF80021384836
:10491000FCF79BF800213748FCF797F80021364850
:10492000FCF793F800213548FCF78FF80021344854
:10493000FCF78BF80C9401208DF834008DF83500CD
:104940004FF460200E900F9406208DF84000254C07
:104950000CA94C3C2046FBF71DFF07230122062132
:104960002046FBF73BFF0723022219462046FBF7B0
:1049700035FF0723032208212046FBF72FFF0723DB
:10498000042209212046FBF729FF072305220E21D7
:104990002046FBF723FF072306220F212046FBF7C3
:1049A0001DFF01212046FBF7DBFE01212046FBF71E
:1049B000CBFE2046FBF74CFF2046FBF7E4FE002829
:1049C000FAD12046FBF755FF2046FBF7D5FE00281D
:1049D000FAD101212046FBF740FF11B030BD0000A5
:1049E000080002404C24014038040020686C000894
:1049F000706C0008986C0008A06C0008206D00081E
:104A0000286D000830B591B001210220FDF716F89D
:104A1000484D2846FCF716FD47480190474802904C
:104A2000002403943C2104910594802106914900BF
:104A30000791880008902020099000020A900B94AA
:104A400001A92846FCF77DFD01212846FCF7ECFC76
:104A50000121C803FDF70EF800213948FBF7F5FFE7
:104A600000213848FBF7F1FF00213748FBF7EDFF45
:104A700000213648FBF7E9FF00213548FBF7E5FF49
:104A800000213448FBF7E1FF0C9401208DF834003D
:104A90008DF835004FF460200E900F9406208DF8AD
:104AA0004000254C0CA94C3C2046FBF773FE072325
:104AB000012200212046FBF791FE0723022201215B
:104AC0002046FBF78BFE072303220A212046FBF733
:104AD00085FE072304220B212046FBF77FFE0723D8
:104AE00005220C212046FBF779FE072306220D2123
:104AF0002046FBF773FE01212046FBF731FE012122
:104B00002046FBF721FE2046FBF7A2FE2046FBF7DE
:104B10003AFE0028FAD12046FBF7ABFE2046FBF711
:104B20002BFE0028FAD101212046FBF796FE11B09A
:104B300030BD0000580402404C3C0140B00400204D
:104B4000386C0008406C0008006D0008086D000813
:104B5000106D0008186D000808B5002100910323AE
:104B6000632240F60F61FCF76DF808BD70B586B0A2
:104B700000240F480525A0F108034FF6FF760090AA
:104B80000194CDE9024540F2CF2231460494094810
:104B9000FBF7A8FF064B0194CDE9024504940833C6
:104BA0002F22314604480094FBF79CFF06B070BDED
:104BB000BC000020000800400034014000B51A4944
:104BC000002801D000200870087808B1002000BD3E
:104BD00001200870154B991D184600F051F808B1D6
:104BE000012000BDD91D581C00F04AF808B1022070
:104BF00000BD0E49981C083100F042F808B10320AE
:104C000000BD0A49D81C093100F03AF808B1042067
:104C100000BD0649181D0A3100F032F808B1052020
:104C200000BD002000BD000044000020040400205E
:104C300070B5104D04212846FCF715FE0E4C20706F
:104C400002212846FCF70FFEE07020210B48FCF7FC
:104C50000AFE607008212846FCF705FEA0700121BD
:104C60002846FCF700FE20710120FFF7A7FFE07245
:104C700070BD00000018014004040020000801403D
:104C8000024600201278002A02D0012A06D103E051
:104C90000A78521C0A7001E000220A7009780A2979
:104CA00000D90120704700002DE9FC470646DDE9E8
:104CB0000A950C9C0F46904618461021FBF7C5FE3E
:104CC000CDE900544B46424639463046FCF7B8F829
:104CD00080213046FEF7D0F8FCF772F840213046CC
:104CE000FEF7CAF8FCF76CF8024901200860BDE83D
:104CF000FC870000BC8122423EB505460C461821C7
:104D00000848FBF7A2FE48210748FBF79EFECDE9C5
:104D10000154022000900723082200210348FBF7DA
:104D200047FE3EBD886C0008806C000800640040AF
:104D30001FB501214807FCF78FFE00210A48FBF749
:104D400084FE0020009001900290022003906946AA
:104D50000020FCF735FB01210020FCF721FB00219E
:104D60000846FCF741FB1FBD586C00081FB5012128
:104D70004807FCF771FE00210A48FBF766FE002099
:104D80000090019002900220039069461020FCF7E9
:104D900017FB01211020FCF703FB00210846FCF75C
:104DA0002DFB1FBD606C00087CB50546DDE90640A3
:104DB000CDE900402846FCF743F880212846FEF75D
:104DC0005BF8FBF7FDFF40212846FEF755F8BDE8EC
:104DD0007C40FBF7F5BF70B505460C4645F25550D3
:104DE000FCF7A8FD2846FCF799FD2046FCF79CFD42
:104DF000FCF78CFDBDE87040FCF77EBD2DE9FE435D
:104E000000F07EF800F024FA90F83000C00701D1DD
:104E100000F0CEF9002441F61F4506232A466321FF
:104E20004FF080400094FBF70DFF05232A466321D5
:104E300027480094FBF706FFFFF73AFDFFF7E2FD76
:104E40002448FFF789FE2448FFF786FEFFF770FF2E
:104E5000FFF78CFFFFF78AFE00210220FFF74CFFCF
:104E600040F27D5540F61D07CDE9007540F22A3825
:104E700040F27F764346324640F20A211748FFF758
:104E8000BFFC2B46424640F209211548CDE9006798
:104E9000FFF7B6FC0420CDE900044FF4E133114ADA
:104EA00011491248FFF780FF0320CDE901044FF4B8
:104EB000165100910E4B0F4A0F491048FFF7F4FEB0
:104EC00003B040F63541BDE8F0430420FFF783BF4F
:104ED000000C00400010004000140040EC030020D3
:104EE000F8030020506C0008486C000800440040A3
:104EF000B06D0008D86C0008D06C00080048004075
:104F000010B510218348FBF7A0FD10218248FBF764
:104F10009CFD28218148FBF798FD10218048FBF774
:104F200094FD28217F48FBF790FD28217E48FBF760
:104F30008CFD28217D48FBF788FD28217C48FBF764
:104F400084FD28217B48FBF780FD10217A48FBF780
:104F50007CFD10217948FBF778FD10217848FBF79C
:104F600074FD10217748FBF770FD10217648FBF7A0
:104F70006CFD10217548FBF768FD10217448FBF7A4
:104F800064FD10217348FBF760FD10217248FBF7A8
:104F90005CFD10217148FBF758FD10217048FBF7AC
:104FA00054FD10216F48FBF750FD10216E48FBF7B0
:104FB0004CFD10216D48FBF748FD10216C48FBF7B4
:104FC00044FD10216B48FBF740FD28216A48FBF7A0
:104FD0003CFD28216948FBF738FD28216848FBF78C
:104FE00034FD28216748FBF730FD28216648FBF790
:104FF0002CFD28216548FBF728FD28216448FBF794
:1050000024FD28216348FBF720FD28216248FBF797
:105010001CFD28216148FBF718FD28216048FBF79B
:1050200014FD28215F48FBF710FD28215E48FBF79F
:105030000CFD3848FBF71CFD3748FBF719FD3748D6
:10504000FBF716FD3648FBF713FD3648FBF710FD5E
:105050003548FBF70DFD3548FBF70AFD3448FBF7F3
:1050600007FD3448FBF704FD3348FBF701FD3448E6
:10507000FBF7FEFC3348FBF7FBFC3348FBF7F8FC7F
:105080003248FBF7F5FC3248FBF7F2FC3148FBF7FE
:10509000EFFC3148FBF7ECFC3048FBF7E9FC30480B
:1050A000FBF7E6FC2F48FBF7E3FC2F48FBF7E0FC9F
:1050B0002E48FBF7DDFC2E48FBF7DAFC2D48FBF70A
:1050C000D7FC2D48FBF7D4FC2D48FBF7D1FC2D482D
:1050D000FBF7CEFC2C48FBF7CBFC2C48FBF7C8FCBD
:1050E0002B48FBF7C5FC2B48FBF7C2FC2A48FBF713
:1050F000BFFC2A48FBF7BCFC2948FBF7B9FC294850
:10510000FBF7B6FC2848FBF7B3FC28480121C16136
:10511000016010BD786C0008906C0008C86C000835
:10512000E06C0008E86C0008F06C0008F86C0008FF
:10513000086E0008386D0008A86C0008C06C0008F4
:10514000406D0008486D0008506D0008606D000853
:10515000686D0008586D0008706D0008786D0008D3
:10516000806D0008886D0008906D0008986D00083B
:10517000A06D0008A86D0008B86D0008C06D00089B
:10518000C86D0008D06D0008D86D0008E06D0008FB
:10519000E86D0008F06D0008F86D0008006E00086A
:1051A000106E0008186E0008206E0008A001214251
:1051B00010B5084C0120E06020620749C1F8B00139
:1051C0002060A0626420FFF765FB0020A0622062DF
:1051D00010BD0000908122420080214210B50C4693
:1051E0000068904205D100F033F8016B2143016360
:1051F00010BD00F02DF8016BA143016310BD00004C
:1052000010B5002821D0114B0022001F196803E0BF
:10521000814203D80A4649680029F9D152B113687E
:10522000841A9C4204D1006818441060104602E0C1
:10523000506000E0186039B102680B1A934203D144
:105240000B681A4402604968416010BD18020020D2
:10525000004870475C030020014800787047000058
:105260002600002000487047A00200200048704738
:1052700028000020004870473C0300200148407887
:1052800070470000260000200649020005D0012AD0
:1052900007D105480068FBF713B804480068FBF71E
:1052A0000FB8704700004040B0000020940000207C
:1052B0000840704700487047340200202DE9F04153
:1052C00005460E4617463146284600F094FC044633
:1052D0002888B04202D23846BDE8F081B5F8C8004F
:1052E000B04205D33846BDE8F0411049FAF790BF07
:1052F000611C35F8140015F81110411AC9B2801B51
:1053000000EB8000400090FBF1F0FBF7C7F805468A
:1053100004EB84004000FBF7CAF83946FAF778FF3F
:105320002946BDE8F041FAF773BF000000007A4457
:10533000004870472400002000487047C402002045
:1053400000487047D4030020032907D0042908D05F
:10535000182902D100F01800C008704700F00300BF
:10536000704700F004008008704700000048704754
:10537000D802002010B5010014D0012916D002294E
:1053800018D003290DD1FFF763FF416A1148006867
:10539000FAF796FF0146FFF7E9FF8161FFF7E6FFA5
:1053A000806910BDFFF7E2FFC06810BDFFF7DEFFA8
:1053B000006910BDFFF74CFF416A07480068FAF723
:1053C0007FFF0146FFF7D2FF4161FFF7CFFF406942
:1053D00010BD0000A8000020AC000020004870476D
:1053E000C4030020F0B587B0002600251C4F002420
:1053F00004EB440007EB800030F81500FBF757F88A
:105400003146FAF705FF0646641CE4B20A2CEFD3D6
:1054100014493046FAF754FF01A941F82500002647
:105420006D1CEDB2062DE2D30F490198FAF748FF43
:105430000E4C60600E490298FAF742FFA060039894
:10544000E0600C490498FAF73BFF20610A4905988F
:10545000FAF736FF60610698A06107B0F0BD000062
:1054600038040020CDCCCC3D810C483D50000020BC
:10547000A10F7A3E010A203B00088039F0B587B0C1
:1054800000260025244F002404EB440007EB800095
:1054900030F81500FBF70BF83146FAF7B9FE06466F
:1054A000641C0A2CF0DB3046FBF71AF81B4A1C4B35
:1054B000FAF782FFFBF727F801A941F8250000263B
:1054C0006D1C062DDFDB17490198FAF7F9FE164C23
:1054D000E06116490298FAF7F3FE20621449039836
:1054E000FAF7EEFE6062134D04982946FAF7E2FEE1
:1054F000114E3146FAF7E4FEA06210490598FAF71A
:10550000DFFEE06229460698FAF7D4FE3146FAF744
:10551000D7FE206307B0F0BDB00400209A99999996
:105520009999B93F410B343D500000206109163E66
:10553000365C434000C04C44010AA0390008803961
:105540002DE9F0470546FFF783FEE9780170FFF784
:105550007FFE00785E4E08284CD2DFE800F04B0456
:105560004D9FA54B4BAFFFF7A5FE2979052441724E
:105570000020584F2146641C695CE4B23954401C39
:10558000C0B20228F6D3FFF76DFE007920B10128E2
:1055900018D0022820D10AE03888FAF788FF31466F
:1055A000FAF78EFE0646FFF75DFEC66014E0388807
:1055B000FAF77DFF3146FAF783FE0646FFF752FE03
:1055C000066109E03888FAF772FF3146FAF778FE8B
:1055D0000646FFF7CBFE4663601CC6B2285D03217A
:1055E000FFF7B2FE0446FFF73DFE0471FFF7F6FE3B
:1055F000A95D4173BDE8F087FFF79AFE297905247C
:10560000017000203349891C2246641CAA5CE4B264
:105610000A54401CC0B20228F6D300202D4F3F1D73
:105620002246641CAA5CE4B23A54401CC0B2022870
:10563000F6D30020DFF89C8008F106082246641C9F
:10564000AA5CE4B208F80020401CC0B20228F5D3DE
:105650000888FAF72CFF3146FAF732FE8146FFF749
:10566000F7FDC0F81C90B8F80000FAF720FF3146AB
:10567000FAF726FE8046FFF7F5FDC0F8108038885F
:10568000FAF715FF3146FAF71BFE0646FFF76EFEE6
:105690004663FFF7A3FE295D4173ABE7FFF7D8FD33
:1056A000297980F82C10A5E7FFF7D2FD297980F839
:1056B0002D10FFF793FE697941739BE7FFF7C8FD53
:1056C000297980F84810FFF789FE6979417391E7DD
:1056D0000AD7233C1C00002010B5FDF771FB0446DF
:1056E0002078C52815D16078642812D1A178201FB0
:1056F000085CA9280DD1E01E085CD42809D12046F9
:10570000FDF7A9FC002804D02046BDE81040FFF7B3
:1057100017BF10BD2DE9F14F0098FDF77FFB05463F
:10572000AD202870B520687000200324A870FFF712
:105730008FFDCD4E0078DFF82C83B71E012806D0F0
:10574000022832D0032857D006282DD168E0FFF771
:1057500089FD80694146FAF7B3FDFAF7ADFE38805E
:10576000002021463A5C641CE4B26A54401CC0B27A
:105770000228F6D3FFF7FAFD80684146FAF7A0FD4C
:10578000FAF79AFE308000202146325C641CE4B2B5
:105790006A54401CC0B20228F6D3FFF759FDC17B02
:1057A0002046641CE4B2295445E1FFF75BFD8069A3
:1057B0004146FAF785FDFAF77FFE38800020214642
:1057C0003A5C641CE4B26A54401CC0B20228F6D3AE
:1057D000FFF7CCFD80684146FAF772FDFAF76CFEE0
:1057E000308000202146325C641CE4B26A54401CC4
:1057F000C0B20228F6D31EE1FFF734FD80694146AE
:10580000FAF75EFDFAF758FE3880002021463A5C30
:10581000641CE4B26A54401CC0B20228F6D30AE108
:10582000934892490068FAF74BFDFAF745FE8E4916
:10583000891C088090488F490068FAF741FDFAF703
:105840003BFE8949091D08808D488C490068FAF79C
:1058500037FDFAF731FE8449891D08808A48894955
:105860000068FAF72DFDFAF727FE7F4E08363080E4
:10587000874886490068FAF723FDFAF71DFEB71C32
:105880003880854883490068FAF71AFDFAF714FE54
:1058900006F10408A8F800008148DFF800B2594674
:1058A0000068FAF70DFDFAF707FE06F10609A9F8F8
:1058B00000007D487B490068FAF702FD7B49FAF752
:1058C000A7FCFAF7F9FD06F1080AAAF800007848E3
:1058D00059460068FAF7F4FCFAF7EEFD06F10A0BF8
:1058E000ABF8000073486F490068FAF7E9FC6F49AC
:1058F000FAF78EFCFAF7E0FD06F10C0108806F481C
:105900006D490068FAF7DCFCFAF7D6FD06F10E01E6
:1059100008806B4868490068FAF7D2FCFAF7CCFDBA
:1059200006F1100108800020B21FA446135C641C1D
:10593000E4B205F80C30401CC0B20228F5D30020B8
:10594000494A121DA446135C641CE4B205F80C30ED
:10595000401CC0B20228F5D30020434A921DA44641
:10596000135C641CE4B205F80C30401CC0B2022881
:10597000F5D300202246335C641CE4B2AB54401CD7
:10598000C0B20228F6D3002022463B5C641CE4B27D
:10599000AB54401CC0B20228F6D30020224618F8AF
:1059A0000030641CE4B2AB54401CC0B20228F5D3F2
:1059B0000020224619F80030641CE4B2AB54401CAD
:1059C000C0B20228F5D3002022461AF80030641C29
:1059D000E4B2AB54401CC0B20228F5D300202246EA
:1059E0001BF80030641CE4B2AB54401CC0B2022867
:1059F000F5D300201C4A14322346165C641CE4B222
:105A0000EE54401CC0B20228F6D30020164A1632CB
:105A10002346165C641CE4B2EE54401CC0B202285B
:105A2000F6D3002022460B5C641CE4B2AB54401C4D
:105A3000C0B20228F6D30D21601CC0B22955AA229B
:105A4000411C2A54891CC9B2A9702846FAF780FF64
:105A500080210098FDF710FAAA782946BDE8F84F92
:105A6000FBF780BA0000C842020000200000B040EE
:105A7000A0000020FCA992419C000020000084406E
:105A8000880000200000844184000020022B873E13
:105A9000A40000200000A5439000002000404E45D7
:105AA000AC00002000002545A8000020000025448F
:105AB00094000020B000002004564E3F98000020C3
:105AC0008C00002010B5002080F31088FDF7E4FB67
:105AD000FDF7EEFAFEF78BFDFFF790F9FDF7CCFB33
