:020000040800F2
:10000000487F0020ED01000845150008AD140008E8
:1000100043150008510B0008E31C00080000000015
:10002000000000000000000000000000490100087E
:1000300071120008000000008D010008A1170008DF
:10004000070200080702000807020008070200086C
:10005000070200080702000807020008070200085C
:10006000070200080702000807020008070200084C
:10007000070200080702000807020008070200083C
:10008000070200080702000807020008070200082C
:10009000751C000807020008070200080702000894
:1000A000070200080702000807020008070200080C
:1000B00007020008070200080702000807020008FC
:1000C00007020008070200080702000807020008EC
:1000D0000702000807020008151800088118000828
:1000E00007020008070200080702000807020008CC
:1000F00007020008070200080702000807020008BC
:1001000007020008070200080702000807020008AB
:10011000070200080702000807020008070200089B
:10012000070200080702000807020008070200088B
:10013000DFF810D000F082FA0048004739290008A3
:10014000AFF30080487F0020204B19680868B0E8B2
:10015000F00F80F30988BFF36F8F4FF0000080F33A
:1001600011884EF00D0E7047000000000648006830
:10017000006880F3088862B661B6BFF34F8FBFF3A3
:100180006F8F00DF00BF00BF08ED00E0EFF30980D4
:10019000BFF36F8F0D4B1A6820E9F00F106008B5A0
:1001A0004FF0100080F3118802F0A2FE4FF0000023
:1001B00080F31188BDE8084019680868B0E8F00FBE
:1001C00080F30988BFF36F8F704700BF18010020CC
:1001D000EFF311804FF0100181F31188704780F325
:1001E00011887047EFF3058070470000064880478C
:1001F00006480047FEE7FEE7FEE7FEE7FEE7FEE70C
:10020000FEE7FEE7FEE7FEE7C5170008310100083C
:10021000F0B480EA0102D40F4200B2EB410F02D2E7
:100220000246084611464A0042D0C30DDDB2C1F372
:10023000C752AD1A202D35DAC1F3160141F4000280
:1002400004B15242C5F1200602FA06F12A411044D7
:10025000B3EBD05F23D0C4B1012DA0EBC35009DCB8
:10026000F0BC4FF0004202EAC352DBB200F50000DE
:1002700000F059B9400000F1807000EBC350A0F1CC
:10028000807040EAD170490009E0490841EAC07134
:10029000A0EBC35000F50000400800EBC350F0BCD9
:1002A00000F038B96142012202EB4101001BF6E780
:1002B000F0BC704781F00041AAE780F00040A7E75A
:1002C00080EA010210B502F00043400022D04A004B
:1002D0001FD0010E01EB1261C0F35600C2F35602AB
:1002E00040F4000042F40002A0FB022000047F3929
:1002F000140400D0401C50EA124001D44000491EB2
:10030000C2B20C0604EBD010401C4008802A02D078
:1003100003E0002010BD20F00100002900DA0020D9
:10032000184310BD30B480EA010202F0004530F0FD
:10033000004221F0004013D090B1C30DD40DC2F3A0
:100340001601C0F31600E41A41F4000140F4000263
:100350007D34914201D3641C00E04900002C02DA94
:1003600030BC002070474FF400000023914201D3BD
:10037000891A034340084FEA4101F7D151B1914234
:1003800002D14FF0004105E002D24FF0010101E03F
:100390006FF0010103EBC450284430BC00F0BAB840
:1003A0002DE9FE4F81EA030404F0004421F00041EE
:1003B00000944FF0000B23F0004350EA01045ED09C
:1003C00052EA03045BD0C3F30A54C1F30A552C4428
:1003D000A4F2F3340194A0FB0254C1F3130141F4DD
:1003E0008011C3F3130343F4801301FB024400FBA9
:1003F000034E840A970A44EA815447EA8357A4FBD0
:10040000076802958D0A05FB07854FEA932C04FBCC
:100410000C542705029D4FEA065847EA1637B5EBFC
:1004200008056EEB070C870E920E47EA811742EA29
:100430008312A7FB0201B6EB0B0164EB00042B0D4A
:1004400043EA0C335E1844EB1C50DA465146E7FB96
:100450000201C5F313044FEA0B3343EA14534FEA86
:100460000432019C43EA0603A4F10C040294009CAC
:10047000CDE900B400F094F803B0BDE8F08F00209F
:100480000146F9E796230022114600F04CB820F00F
:100490000040C10DC0F3160040F400007F2901DACE
:1004A00000207047962903DCC1F19601C8407047CF
:1004B00096398840704700F0004230F000400AD082
:1004C000C10D01F56071C0F3160042EA0151C20886
:1004D00040071143704700200146704701F0004378
:1004E00030B421F0004150EA010206D00A0DA2F515
:1004F0006072C1F31301002A02DC30BC0020704797
:10050000440F44EAC104C100E01830BC00EBC25003
:10051000AFF300800029A8BF7047401C490008BF06
:1005200020F00100704710B4B0FA80FC00FA0CF023
:1005300050EA010404BF10BC704749B1CCF120045B
:1005400021FA04F411FA0CF118BF012121430843E8
:10055000A3EB0C01CB1D4FEA00614FEA102042BF14
:10056000002010BC704700EBC35010440029A4BF0A
:1005700010BC7047401C490008BF20F0010010BCAF
:10058000704710B5141E73F1000408DA401C41F1E5
:10059000000192185B411A4301D120F0010010BD07
:1005A0002DE9F04D92469B4611B1B1FA81F202E07D
:1005B000B0FA80F22032904600F052F804460F461E
:1005C00040EA0A0041EA0B0153465A46084313D059
:1005D000114653EA010019D0C8F14002504600F01C
:1005E0004EF805460E4650465946424600F038F849
:1005F000084305D0012004E020463946BDE8F08DCF
:100600000020054346EAE0762C4337430A98630509
:10061000E40AA0EB08000022FD0A44EA47540A302D
:1006200002D500200146E9E7010510196941DDE91D
:10063000084500196941BDE8F04DA2E7064C074D99
:1006400006E0E06840F0010394E8070098471034A2
:10065000AC42F6D3FFF770FDE03400080035000827
:10066000202A04DB203A00FA02F100207047914072
:10067000C2F1200320FA03F3194390407047202A67
:1006800004DB203A21FA02F00021704721FA02F33C
:10069000D040C2F12002914008431946704770B51E
:1006A0008C1810F8015B15F0070301D110F8013B1D
:1006B0002A1106D110F8012B03E010F8016B01F8A4
:1006C000016B5B1EF9D12B0705D40023521E0DD4FC
:1006D00001F8013BFAE710F8013BCB1A921C03E04A
:1006E00013F8015B01F8015B521EF9D5A142D8D382
:1006F000002070BD002904D0816841F001018160B3
:100700007047816821F0010181607047002904D0A1
:10071000816841F4807181607047816821F4807143
:1007200081607047014600208968490700D5012093
:100730007047014600208968090700D501207047ED
:1007400010B542680E4B1A400C790B6842EA04223D
:100750001343436082680B4B1A40D1E902432343A1
:100760004C7942EA440213438360C26A22F4700265
:10077000097C491EC9B242EA0151C16210BD0000A4
:10078000FFFEF0FFFDF7F1FF70B5072609290AD932
:10079000C568A1F10A0404EB4404A640B543A34094
:1007A0001D43C56007E0056901EB4104A640B54360
:1007B000A3401D4305611F23072A09D2446B521E23
:1007C00002EB820293409C4391400C43446370BD12
:1007D0000D2A09D2046BD21F02EB820293409C4384
:1007E00091400C43046370BDC46A0D3A02EB82026F
:1007F00093409C4391400C43C46270BD816841F0BA
:10080000080181607047002904D0816841F4A0018B
:1008100081607047816821F4A00181607047816820
:1008200041F004018160704730B505460C46002D4B
:100830000BD0022C09D9A01EC1B2284600F01AFE26
:10084000291901F8020D000A487030BD2DE9F04762
:1008500088B00746DDE910A8DDF848900E4614463A
:100860001D460121480600F0B9FE8DF818408DF8AC
:1008700019508DF81760ADF814A000248DF81A40B7
:1008800001258DF81B5007948DF8164005A93846B0
:1008900000F096FA8DF80A408DF80B408DF80C5058
:1008A000ADF80040ADF80240ADF80440ADF80640A8
:1008B000ADF808408DF80D50684600F0A7F9012208
:1008C0000221384600F072FA14208DF810008DF8DD
:1008D00011808DF812908DF8135004A800F034FEAA
:1008E00008B0BDE8F08738B504460D46204600F054
:1008F0000DF8A088ADF800008DF8035003208DF8A6
:1009000002006946206800F02BFD38BD124A0168DC
:10091000914201D104201CE0104A914201D10820EB
:1009200017E00F4A914201D1102012E00D4A914286
:1009300001D120200DE00C4A914201D1402008E075
:100940000A4A914201D1802003E0094A914200D134
:100950008815012100F050BE00080140000C014044
:10096000001001400014014000180140001C01402B
:100970000020014030B58BB004462078002829D0F3
:100980000121022000F01CFE606800F0D5FBA06889
:10099000001D00906078002508B30295A06801F062
:1009A00055F80190A06801F0F5F8039004958020B7
:1009B00005900695079508954FF4405009900A95C3
:1009C0006946606800F037FC0121606800F0A6FB12
:1009D0000BB030BD0121084600F0F2FDD4E7102035
:1009E0000290A06801F060F80190A06801F0F8F8AA
:1009F0000390DBE72DE9F04385B00646DDE90C788E
:100A00000C4615469946304600F058F81CB118219E
:100A10002046FFF768FF1DB104212846FFF763FF5A
:100A2000CDF800900020ADF80400ADF80600ADF858
:100A30000800ADF80C000C20ADF80A0069463046FD
:100A400000F0A6FFDFF87090FF2F20D0B8F1FF0F65
:100A50001DD0304601F0EAF88DF810008DF81170C5
:100A60008DF8128001208DF8130004A800F06CFDB1
:100A70004E4506D0012240F22441304600F06CFF82
:100A800005E0012240F22551304600F065FF4E4559
:100A90000BD024B101228021304600F033FF25B174
:100AA00001224021304600F02DFF0121304600F0A8
:100AB0001DFF05B0BDE8F083005000401149884299
:100AC00003D10121880300F097BD0F49884203D16B
:100AD0000121480400F082BD0C49884203D1012164
:100AE000880400F07BBD0A49884203D10121C80473
:100AF00000F074BD0749884203D10121080500F0C8
:100B00006DBD70470038014000440040004800407F
:100B1000004C00400050004070B504460D4616469B
:100B2000606800F085FB0028FAD10021606800F0C1
:100B3000F5FAD4E90301084300F0E4FA6068C560FF
:100B4000606846606068BDE87040012100F0E6BA68
:100B5000FEE700000A4A914202D1002181617047FC
:100B6000C1F313028B0101D5C26070474B0101D55F
:100B700002617047090101D5826070474260704789
:100B80007000F03030B5082310240422B1F5007F46
:100B900033D011DC20292AD007DC012922D00429F6
:100BA00023D0082900D1C46030BD402921D0B1F53F
:100BB000807FF9D1426030BD0025B1F5004F20D0D3
:100BC00008DCB1F5806F1AD0B1F5006FF3D1856103
:100BD000426030BDB1F5803F0DD0B1F5003FF8D196
:100BE000446030BD0849816030BDC36030BD0361E1
:100BF00030BD046130BD436030BD426030BD4260F5
:100C000030BD8561426030BD01010100F0B5827ADE
:100C100001219140304C226842F0010222602E4DA9
:100C20001C352A688A432A602B4A067B0C322B4BE0
:100C3000002E14D116688E4316604688C78846EA8F
:100C40000746877A03EBC707C7F840660688878898
:100C500046EA0746877A03EBC707C7F84466067B70
:100C6000012E14D116680E4316604288068842EAA7
:100C70000642867A03EBC606C6F84026C2888688F6
:100C800042EA0642867A03EBC603C3F84426124AB8
:100C9000C37A121D3BB113680B4313600E4A0389DC
:100CA000143223B106E013688B431360F6E7136830
:100CB0008B4313600389012B02D113680B4313602C
:100CC000407B012802D1286808432860206820F072
:100CD00001002060F0BD00000066004000600040A0
:100CE0000246002053690B425DD0B1F5807F4AD0A7
:100CF00016DC082937D009DC01292CD002292ED096
:100D0000042950D1D068082100F0BCB910292ED098
:100D1000202930D0402946D11069102100F0B2B905
:100D2000B1F5004F3BD00CDCB1F5007F2FD0B1F511
:100D3000806F30D0B1F5006F35D19069702100F02F
:100D4000A1B9B1F5803F1AD0B1F5003F2BD1506861
:100D5000102100F097B99068134900F093B9D0685A
:100D6000032100F08FB9D068102100F08BB9106911
:100D7000032100F087B91069082100F083B9506899
:100D8000082100F07FB99069012100F07BB99069DA
:100D9000022100F077B99069042100F073B950681E
:100DA000042100F06FB9704701010100002A03D04F
:100DB00042690A434261704742698A43426170470F
:100DC00010B50022036823F002030360036843F0B8
:100DD000010303604FF6FF7300E0521C4468E40710
:100DE00001D19A42F9D14268D2073ED08A79012ACC
:100DF0003DD0026822F080020260CA79012A3BD00D
:100E0000026822F0400202600A7A012A39D00268A0
:100E100022F0200202604A7A012A37D0026822F0CA
:100E2000100202608A7A012A35D0026822F0080294
:100E30000260CA7A012A33D0026822F004020260FA
:100E40008A78CC78920742EA04620C7942EA04423A
:100E50004C79098842EA0452491E0A43C26101687A
:100E600021F001010160002120E0002010BD026896
:100E700042F080020260C0E7026842F04002026075
:100E8000C2E7026842F020020260C4E7026842F052
:100E900010020260C6E7026842F008020260C8E77A
:100EA000026842F004020260CAE7491C4268D207A5
:100EB00001D09942F9D14068C00701D0002010BD8F
:100EC000012010BD10B500EB0113D3F8B04104F0C0
:100ED00004041472002C2CD0D3F8B041E408546000
:100EE00003F5D8731C6804F0020454725C6804F0C3
:100EF0000F0494725C68240AD4749C68D4729C6851
:100F0000240A14739C68240C54739C68240E9473F4
:100F1000DC68D473DC68240A1474DC68240C547410
:100F2000DB681B0E937449B1016941F02001016136
:100F300010BDD3F8B041640D1460D1E7C16841F031
:100F40002001C16010BD30B50246002093685B01EE
:100F50000AD49068000101D5012005E09068C00026
:100F600001D5022000E0042004283BD002EB00124F
:100F7000D2F8803103F00103C2F880310B7A93B3C9
:100F8000D2F880414D681C434B7A43EAC5031C43A9
:100F9000C2F880418B7A03F00F038B7202F5C072A6
:100FA000536823F00F03536053688C7A23435360D4
:100FB000CB7A8C7B0D7B43EA04634C7B240444EAAC
:100FC000052423439360CB7B8C7C43EA04634C7CF5
:100FD000097C240444EA01210B43D360116841F0E9
:100FE0000101116030BDFFE7D2F880314C7A234314
:100FF0000C8843EA4453C2F88031CBE70022002931
:1010000004D0012906D002290BD107E082681848D4
:10101000024006E082681748024002E082681648F3
:1010200002401649501A8A4218D007DC92B16FF07C
:101030008060101810D0022809D113E0B0F5007FAD
:1010400012D00F4940180BD0B0F5003F0ED0002051
:10105000C0B270470220FBE70020F9E70020F7E765
:101060000020F5E70120F3E70120F1E70120EFE799
:101070000300000400030008000003100001000842
:101080000001FFF7024600200A4200D0012070470D
:10109000704700000122064B8240002903D01868E7
:1010A000104318607047186890431860704700003C
:1010B0000074004030B5084C236840F6FE72824050
:1010C0009343D1E900252A43D1E902510D432A4334
:1010D00082401A43226030BD0074004008B5034AC4
:1010E0001044083000900098016008BD0074004072
:1010F00008B5034A1044143000900098016008BD00
:1011000000740040C10002D50249086070470249DE
:10111000486070470404024000000240002904D0E7
:10112000016841F001010160704701684FF6FE72ED
:10113000114001607047000001684FF6FE721140D7
:1011400001600021016041608160C1603649364A1A
:101150000839904204D1486840F00F004860704759
:10116000314A1432904204D1486840F0F00048609F
:1011700070472D4A2832904204D1486840F470608C
:1011800048607047284A3C32904204D1486840F495
:10119000704048607047244A5032904204D14868F9
:1011A00040F47020486070471F4A6432904204D176
:1011B000486840F47000486070471B4A783290429B
:1011C00004D1486840F0706048607047174A111FAA
:1011D000904204D1086840F00F0008607047134A3D
:1011E0001432904204D1086840F0F0000860704763
:1011F0000E4A2832904204D1086840F470600860BA
:1012000070470A4A3C32904204D1086840F470406A
:1012100008607047054A50329042FAD1086840F49D
:101220007020086070470000080002400804024077
:10123000406880B2704730B5026847F6F0739A4351
:101240000C6A8B682343D1E904452C4323438C6902
:101250002343CC6923434C6A23438C6A23431343BF
:101260000360CA6842600A6882604968C16030BD34
:10127000704700000149C86070470000002002402C
:1012800070B505464FF43026304600F059F8042872
:1012900011D1094C206940F002002061656120698C
:1012A00040F040002061304600F04AF8216941F6E4
:1012B000FD721140216170BD0020024004200849E8
:1012C000CA68D20701D001207047CA68520701D509
:1012D00002207047C968C906FBD50320704700008B
:1012E000002002400248016941F08001016170471D
:1012F00000200240F0B506460D464FF40057384630
:1013000000F01EF804280CD1064C206940F00100C2
:1013100020613580384600F013F82169BA1E11406B
:101320002161F0BD002002400348024941600349A9
:10133000416070472301674500200240AB89EFCD33
:1013400000B50346FFF7BAFF02E0FFF7B7FF5B1EE9
:10135000012801D1002BF8D1002B00D1052000BDC0
:101360002DE9F0410022CC7804F00F03E40601D50A
:101370008C7823430C784FF00F0714F0FF0F4FF0D9
:10138000010C1CD005680CFA02F40E882640A64217
:1013900011D1960007FA06F825EA080503FA06F8BF
:1013A00048EA0505CE78282E02D0482E02D002E069
:1013B000446100E00461521C082AE4D305600A88F5
:1013C000FF2A1ED94568002202F108060CFA06F42D
:1013D0000E882640A64210D1960007FA06F825EAA4
:1013E000080503FA06F848EA0505CE78282E00D14C
:1013F0004461CE78482E00D10461521C082AE3D300
:101400004560BDE8F0810000F0B5154C002801DA18
:10141000E36900E06368C0F30346420D120185B240
:10142000C0F301579540032F07D0C2020CD5032209
:10143000B240934343F0706209E023F07062636846
:1014400023F07063636002E0AB4343F0706201B16C
:101450002A43002801DAE261F0BD6260F0BD0000BD
:10146000000001400246002092680A4200D001209C
:101470007047000070B5FF22FF23002801D0022929
:1014800002D84FF6FF7070BD074D05F5807605E078
:1014900010F8014B54402A5D5A40335D491EC9B2D1
:1014A000F6D243EA022070BD3032000806A30020C5
:1014B000104C211F1A5C22800A885206FCD5401C61
:1014C000C0B22A28F6D3FEE70D0A456E7465722075
:1014D000486172644661756C745F48616E646C65E6
:1014E000722C2053797374656D2048616C742E0DD5
:1014F0000A0000000438014002494CF6CC40086064
:101500007047000000300040AFF3008002494AF607
:10151000AA20086070470000003000400149486080
:1015200070470000003000400149886070470000AB
:101530000030004001490860704700000030004062
:101540007047FEE77047000070B50F23C278012690
:101550000178002A1ED0144A126802F4E062C2F533
:10156000E062120AC2F10404D3404578A5408278B3
:101570001A402A43120101F1E02181F80024007889
:1015800000F01F018E404009800000F1E020C0F80B
:10159000006170BD01F01F0086404809800000F125
:1015A000E020C0F8806170BD0CED00E00249084306
:1015B00002490860704700000000FA050CED00E0E9
:1015C000054A002903D051690143516170475169AF
:1015D000814351617047000000100240054A002914
:1015E00003D0D1690143D1617047D1698143D16191
:1015F0007047000000100240054A002903D091699D
:101600000143916170479169814391617047000086
:101610000010024010B5264A516801F00C01254B1C
:10162000002927D0042927D0082927D00360516832
:1016300001F0F0010909204B5C5C0168E140416068
:10164000546804F4E064240A1C5D21FA04F4846004
:10165000546804F46054E40A1B5DD940C1605268C8
:1016600002F44042920B144B1B1F9A5CB1FBF2F147
:10167000016110BD0360DAE70360D8E7516801F447
:101680007011536803F48033022404EB914133B1A9
:1016900053689B0307D5094B59430160C7E7074BC4
:1016A00059430160C3E7034B59430160BFE70000A2
:1016B0000010024000127A000801002000093D00DD
:1016C00008B501210820FFF797FF03208DF80200DD
:1016D00010208DF803000420ADF800006946024890
:1016E000FFF73EFE08BD0000000C0140AFF3008094
:1016F0000CB50022019200922748016841F4803124
:1017000001604FF4A063016801F400310091019978
:10171000491C0191009911B901999942F3D10168CD
:10172000890302D50121009100E00092009901296E
:1017300030D11A490A6842F010020A600A6822F0A1
:1017400003020A600A6842F002020A6041684160CE
:1017500041684160416841F480614160416821F421
:101760007C114160416841F4E8114160016841F039
:101770008071016001688901FCD5416821F0030195
:101780004160416841F0020141604168C1F381015B
:101790000229FAD10CBD00000010024000200240D6
:1017A00010B5FEF715FD01F089FC18B104494FF0A2
:1017B00080500860BDE810400020FEF710BD00001A
:1017C00004ED00E010B50F48016841F0010101602F
:1017D00041680D4A1140416001680C4A11400160A6
:1017E000016821F480210160416821F4FE0141601B
:1017F0004FF41F018160FFF779FF05494FF000604A
:10180000086010BD001002400000FFF8FFFFF6FE68
:1018100008ED00E070B5164D40F22441284600F076
:101820007BF8002823D02888281D0088114E00212D
:101830003046FFF773FC3046FFF7FAFCC0F140007A
:1018400084B24FF4C000FFF75DFC0A4940206C39B8
:10185000086701213046FFF761FC002C07D00649DC
:10186000284601F015F805480168491C016070BD63
:10187000004400406C0002402F000020380000208F
:1018800070B5164D40F22441284600F045F8002876
:1018900022D02888281D0088114E00213046FFF7ED
:1018A0003DFC3046FFF7C4FCC0F5007084B26020F8
:1018B000FFF728FC0A4968151C39C8650121304624
:1018C000FFF72CFC002C07D00649284601F0D8F978
:1018D00005480168491C016070BD000000480040D7
:1018E0001C0002402600002038000020002904D0FF
:1018F000818941F4005181817047818921F400512F
:1019000081817047002A03D0828A0A43828270470D
:10191000828A8A438282704770B5002440F66A1238
:10192000C1F3421301F01F05012606FA05F2012B4F
:101930000CD0022B0DD0838A1340090A8E400088F8
:1019400030400BB100B10124204670BD83891340A3
:10195000F3E7038A1340F0E710B540F66A13C1F3CA
:10196000421301F01F040121A140012B07D0022BDB
:1019700007D014303AB102680A43026010BD0C303F
:10198000F8E71030F6E702688A43026010BD0000F5
:1019900030B585B004460D46208A4CF6FF710840EC
:1019A000E98801432182A0894EF6F3110840A988F5
:1019B0002A8911436A8902431143A181A08A4FF603
:1019C000FF410840A9890143A1826846FFF722FE32
:1019D0001D48844201D1039800E00298A1890904BE
:1019E00008D500EBC00101EB001029684900B0FBED
:1019F000F1F007E000EBC00101EB0010296889005D
:101A0000B0FBF1F06422B0FBF2F109010B096FF0B9
:101A100018056B4300EB8300A3891D044FF03203CC
:101A200007D503EBC000B0FBF2F000F0070008435D
:101A300006E003EB0010B0FBF2F000F00F000843EB
:101A4000208105B030BD00000038014001460D4A3C
:101A5000914201D10C4870470C4A914201D10C4887
:101A600070470C4A914202D10948403070470A4AF7
:101A7000914201D109487047094A9142FBD1094876
:101A80007047000000380140C003002000440040BF
:101A9000C004002000480040004C00400007002027
:101AA000005000400009002001460D4A914201D13A
:101AB0000C4870470C4A914201D10C4870470C4ABF
:101AC000914202D10948403070470A4A914201D1FF
:101AD00009487047094A9142FBD109487047000004
:101AE00000380140000B002000440040000C0020A2
:101AF00000480040004C0040400E002000500040D4
:101B000040100020F0B502461C4C1D4B1D4D1E4ED2
:101B10001E4F802905D0402902D1A2421AD11C486B
:101B2000F0BDA24202D11A486438F0BD9A4202D1F7
:101B300017485038F0BDAA4202D115483C38F0BDD4
:101B4000B24202D112482838F0BDBA42FCD1104846
:101B50001438F0BD9A4202D10D481430F0BDAA42AB
:101B600002D10B482830F0BDB24202D108483C30C7
:101B7000F0BDBA42FCD106485030F0BD00380140FB
:101B80000044004000480040004C0040005000402D
:101B9000A000002001460D4A914201D180157047F6
:101BA0000B4A914201D1402070470A4B5A15994285
:101BB00001D110467047084B994201D11046704739
:101BC000064B9942FBD11046704700000038014097
:101BD0000044004000480040004C004000500040DD
:101BE00001460D4A914201D1801570470B4A91423E
:101BF00001D1402070470A4B5A15994201D1104635
:101C00007047084B994201D110467047064B9942E4
:101C1000FBD11046704700000038014000440040EE
:101C200000480040004C00400050004001460C4A73
:101C3000914201D1252070470A4A914201D12620C4
:101C40007047094A914201D127207047074A9142C3
:101C500001D134207047064A9142FBD135207047AC
:101C6000003801400044004000480040004C004063
:101C70000050004010B586B0144C02212046FFF7FA
:101C80002FF8002820D004212046FEF77BFF1049C2
:101C90002046FEF75FFF01AA00212046FFF712F958
:101CA0000198A0F50070093806D0012808D109492B
:101CB00001A800F03EFA03E0074901A800F039FA54
:101CC00006480168491C016006B010BD0064004070
:101CD00008000032160000201E0000203400002002
:101CE0007047FEE730B505460C46002D01D0022CAA
:101CF00001D8002030BDA01EC1B22846FFF7BAFBB4
:101D00002919C2B211F8023C9A4206D111F8011CFD
:101D1000B1EB102F01D1012030BD002030BD02E019
:101D200008C8121F08C1002AFAD170477047002066
:101D300001E001C1121F002AFBD1704770B50124D8
:101D4000064E074D06EB840105EB4400022200F02D
:101D50003DF9641CE4B2042CF4D370BD880100206A
:101D60000030030870B50024064E074D06EB8401D1
:101D700005EB4400022200F041F9641CE4B2042C9B
:101D8000F4D370BD880100200030030810B500F0C6
:101D9000B2F800F089FC00F009F800F061F8BDE845
:101DA00010400148FFF736BC7401002010B50C4804
:101DB00002210160002141608160C1600222094965
:101DC000094800F003F907480078FF2803D0BDE870
:101DD0001040FFF7B3BFBDE81040FFF7C3BF0000DE
:101DE00088010020000000200030030808B501F041
:101DF0005FF90090154F0026DFF85480154D32240E
:101E00000521684601F000F800F042F8686800F02B
:101E1000A5F9A86800F0B6F90F49384600F042F974
:101E2000287810B1FFF79EFF2E70E968B1FBF4F03F
:101E300004FB101020B905220849404600F04AFD75
:101E4000FFF762FBE868401CE860D9E700640040E7
:101E50000044004004000020A80300202A000020C5
:101E60001FB500200649CDE9011006220346009265
:101E700003904FF4007203A1044801F09FF81FBDC6
:101E800098010020494E505554000000ED1D0008F7
:101E900010B500F019FB064800F09AFC0448183011
:101EA00000F0C6FC02480C388168491D816010BDF5
:101EB000A40100200D4B8118994201D903207047DD
:101EC00012B10123002109E0002070470378FF2BA5
:101ED00001D0022070470023401C491C9142F5D3D9
:101EE000012B01D00120704700207047000004083A
:101EF0006FF30A00704710B54FF44070FFF756FBC0
:101F000000F03CF8BDE81040AFF3008038B5012187
:101F10008020FFF771FB012000F03CF8022000F068
:101F200039F8032000F036F8042000F033F80320DD
:101F30008DF8020010208DF80300C001ADF80000FC
:101F40000D4C69462046FFF70BFA8021ADF80010D2
:101F500069462046FFF704FAA115ADF8001069465E
:101F60002046FFF7FDF96115ADF8001069462046DF
:101F7000FFF7F6F938BD0000001C014010B5FFF76F
:101F8000AFFEFFF7DDFAFFF79BFBBDE81040FFF760
:101F90007FB80000401EC0B20B49002808D00128BD
:101FA0000AD002280BD0032801D1481508607047D9
:101FB0004FF40060086070478020086070474FF45D
:101FC0008070086070470000101C014010B50A4C7A
:101FD0008318A34201D9012010BD0AB1002306E0F5
:101FE000012010BD10F8014B01F8014B5B1C93421E
:101FF000F8D3002010BD0000000004082DE9F041D6
:1020000007468846164604252549B819884202D94C
:102010000120BDE8F0811EB1F00703D00120F8E7F0
:102020000020F6E7324641463846FFF743FF0446B4
:1020300054B1012080F31088FFF776F93520FFF7BF
:1020400019F9022C02D00BE00020E2E73846FFF736
:102050004FFFFFF715F90546042D01D00220D8E700
:1020600000240EE018F8140008EB4401497840EA17
:1020700001213846FFF73EF90546042D04D1BF1C67
:10208000641CB4EB560FEDD3FFF72CF9002080F35E
:102090001088042D01D00220BBE70020B9E7000022
:1020A00000000408F0B585B00646002408680090DA
:1020B00000208DF808008DF8090008208DF80A002E
:1020C0008888000A8DF80B0088888DF80C00C88875
:1020D000000A8DF80D00C8888DF80E000889000AE6
:1020E0008DF80F0008898DF810004889000A8DF8D6
:1020F000110048898DF8120069463046FEF723FF2B
:10210000074640F6FF7503E0641CA4B2AC4205D25A
:1021100039463046FEF772FF0028F5D005B0F0BD15
:1021200030B5DDE9034501608280C38004814581CB
:1021300030BD027BC37A42EA03220A80827B437B62
:1021400042EA03224A80027CC37B42EA03228A805D
:10215000827C407C42EA0020C880704710B5074965
:10216000FEF7E0F80649FEF7ABF8FEF790F981B20A
:10217000BDE810400020FEF7B1BF000033335340EC
:1021800000F07F4510B50749FEF7CCF80649FEF789
:1021900097F8FEF77CF981B2BDE810400020FEF709
:1021A000A7BF00003333534000F07F4530B591B0F6
:1021B00001210846FFF704FA484D2846FEF7BCFF08
:1021C0004748019047480290002403943C21049121
:1021D00005948021069149000791880008902020ED
:1021E000099000020A900B9401A92846FFF723F8F2
:1021F00001212846FEF792FF01214802FFF7FCF972
:1022000000213948FEF76FFB00213848FEF76BFBD1
:1022100000213748FEF767FB00213648FEF763FBD5
:1022200000213548FEF75FFB00213448FEF75BFBD9
:102230000C9401208DF834008DF835004FF46020A7
:102240000E900F9406208DF84000254C0CA94C3CB4
:102250002046FEF775FA0523012206212046FEF7E7
:1022600093FA0523022207212046FEF78DFA052363
:10227000032208212046FEF787FA052304220921BC
:102280002046FEF781FA05231A460E212046FEF766
:102290007BFA052306220F212046FEF775FA01215D
:1022A0002046FEF733FA01212046FEF723FA2046A6
:1022B000FEF7A4FA2046FEF73CFA0028FAD12046A1
:1022C000FEF7ADFA2046FEF72DFA0028FAD10121DB
:1022D0002046FEF798FA11B030BD00000800024019
:1022E0004C240140080200206034000868340008D3
:1022F0007034000878340008C0340008C83400087E
:1023000030B591B001210220FFF75AF9484D284617
:10231000FEF712FF474801904748029000240394BB
:102320003C21049105948021069149000791880081
:1023300008902020099000020A900B9401A92846D9
:10234000FEF779FF01212846FEF7E8FE0121C803C8
:10235000FFF752F900213948FEF7C5FA0021384845
:10236000FEF7C1FA00213748FEF7BDFA00213648D2
:10237000FEF7B9FA00213548FEF7B5FA00213448D6
:10238000FEF7B1FA0C9401208DF834008DF8350079
:102390004FF460200E900F9406208DF84000254CDD
:1023A0000CA94C3C2046FEF7CBF905230122002165
:1023B0002046FEF7E9F90523022201212046FEF717
:1023C000E3F9052303220A212046FEF7DDF9052360
:1023D00004220B212046FEF7D7F905231A460C21CB
:1023E0002046FEF7D1F9052306220D212046FEF7EF
:1023F000CBF901212046FEF789F901212046FEF79D
:1024000079F92046FEF7FAF92046FEF792F90028FE
:10241000FAD12046FEF703FA2046FEF783F900289A
:10242000FAD101212046FEF7EEF911B030BD0000CF
:10243000580402404C3C0140800200203034000827
:1024400038340008A0340008A8340008B03400086C
:10245000B834000800B51A49002801D000200870DF
:10246000087808B1002000BD01200870154B991DA7
:10247000184600F051F808B1012000BDD91D581CC4
:1024800000F04AF808B1022000BD0E49981C08313E
:1024900000F042F808B1032000BD0A49D81C0931F8
:1024A00000F03AF808B1042000BD0649181D0A31B1
:1024B00000F032F808B1052000BD002000BD00008A
:1024C00014000020D401002070B5104D04212846CE
:1024D000FEF7C8FF0E4C207002212846FEF7C2FF0F
:1024E000E07020210B48FEF7BDFF607008212846F0
:1024F000FEF7B8FFA07001212846FEF7B3FF207158
:102500000120FFF7A7FFE07270BD00000018014036
:10251000D401002000080140024600201278002A61
:1025200002D0012A06D103E00A78521C0A7001E0A9
:1025300000220A7009780A2900D90120704700009A
:102540002DE9FC470646DDE90A950C9C0F469046AE
:1025500018461021FEF7C7F9CDE900544B46424614
:1025600039463046FEF746FA80213046FFF7CAFA70
:10257000FEF700FA40213046FFF7C4FAFEF7FAF9F9
:10258000024901200860BDE8FC870000BC812242AE
:102590003EB505460C4601210846FFF72DF81821E7
:1025A0000B48FEF7A0F948210A48FEF79CF90121E3
:1025B0004FF4EA10FEF728FFCDE901540220009005
:1025C0000723082200210448FEF740F93EBD000021
:1025D0008834000880340008006400401FB50121E1
:1025E0004807FEF7FBFF00210A48FEF77CF90020B0
:1025F0000090019002900220039069460020FEF7AF
:1026000059FD01210020FEF745FD00210846FEF797
:1026100065FD1FBD503400081FB501214807FEF7B6
:10262000DDFF00210A48FEF75EF9002000900190CE
:1026300002900220039069461020FEF73BFD012125
:102640001020FEF727FD00210846FEF751FD1FBDB3
:10265000583400087CB50546DDE90640CDE9004068
:102660002846FEF7C7F980212846FFF74BFAFEF708
:1026700081F940212846FFF745FABDE87C40FEF786
:1026800079B970B505460C4645F25550FEF752FF34
:102690002846FEF743FF2046FEF746FFFEF736FFCB
:1026A000BDE87040FEF728BFFEB5FFF77FFDFFF7DE
:1026B00027FEFFF793FFFFF7AFFF00210220FFF790
:1026C00067FF40F27D5440F61D06CDE9006440F2FC
:1026D0002A3740F27F753B462A4640F20A211848C5
:1026E000FFF71EFDCDE9005623463A4640F2092188
:1026F0001448FFF715FD00240420CDE900044FF431
:10270000E133114A11491248FFF7A4FF0320CDE934
:1027100001044FF4165100910E4B0F4A0F49104817
:10272000FFF70EFF40F271210420FFF7AAFF00F02F
:102730001BF803B01021BDE8F0400A48FEF7D3B8FB
:10274000A8030020B40300204834000840340008E7
:1027500000440040D8340008983400089034000841
:1027600000480040D034000838B501216420FEF74D
:1027700043FF03208DF8020048208DF80300042059
:10278000ADF80000104C69462046FEF7E9FD022135
:10279000ADF8001069462046FEF7E2FD2021ADF8B5
:1027A000001069460948FEF7DBFD0821ADF800106E
:1027B00069462046FEF7D4FD0121ADF800106946B8
:1027C0002046FEF7CDFD38BD00180140000801404D
:1027D0002DE9F04106464FF000080025114F002476
:1027E00004EB440007EB800030F81500FDF74AFECB
:1027F0004146FDF70DFD8046641C0A2CF0DB404687
:10280000FDF759FE084A094BFDF7CAFDFDF766FEC4
:1028100046F825004FF000086D1C062DDFDBBDE8F3
:10282000F0810000080200209A9999999999B93F7E
:102830002DE9F04106464FF000080025114F002415
:1028400004EB440007EB800030F81500FDF71AFE9A
:102850004146FDF7DDFC8046641C0A2CF0DB404657
:10286000FDF729FE084A094BFDF79AFDFDF736FEF4
:1028700046F825004FF000086D1C062DDFDBBDE893
:10288000F0810000800200209A9999999999B93FA6
:1028900070B50D46FFF7DAF804462078C52818D140
:1028A0006078642815D1A178201F085CA92810D170
:1028B000E01E085CD4280CD12046FFF713FA00284C
:1028C00007D00022A018C078A854521CD2B2052A02
:1028D000F8D370BD2DE9F04107460D46164638463F
:1028E000FFF7E2F80446AD212170B52161700022A6
:1028F0000321A270002006E00A462B5C491CC9B2E5
:10290000A354401CC0B2B042F6D30D22481CC0B242
:102910006254AA21421C2154921CD1B2A1702046BB
:10292000FDF782FF80213846FFF7ECF8A2782146B8
:10293000BDE8F041FEF7F0B810B5002080F3108834
:10294000FFF724FA00F0A2FA002010BD70B504468B
:102950000B4D28684460E868844206D22968686B99
:10296000091DBDE8704000F0C1B92968286B091D38
:1029700000F0BCF9A86A844200D2AC6270BD0000CD
:102980001801002070B5002908D00D467DB14C20FB
:1029900000F00EF9044634B1256309E0800000F030
:1029A00007F90546F2E7284600F0F4F900E00024B4
:1029B000204670BD70B5124E124D1CE000F090FA2A
:1029C000306820B1002400F0DBFBA4B901E0012451
:1029D000F9E700F0AFF9F068C468201D00F066F96F
:1029E000A868401EA8606868401E686000F0BEF9D4
:1029F000204600F009F868680028DFD170BD0000AB
:102A00001C1300201801002010B50446206B00F0B4
:102A1000C1F92046BDE8104000F0BCB94FF4C841F0
:102A20000F48420706D0C01D20F007000C49411A8C
:102A3000C1F5C8410B4A10600023536001440839B6
:102A400021F00701103A11604B600B600B1A4360D4
:102A500001604068906050604FF00040D060704767
:102A6000441300206C010020044CFFF7A3FF2068F2
:102A70000128FAD900F0BCF9F7E700004012002065
:102A800070B504461546002023180A5C83F83420EC
:102A90000A5C12B1401C1028F6D3002684F843606B
:102AA000082D00D30725E562201D00F01CF904F174
:102AB000180000F018F92461C5F10800A0616462F3
:102AC000666484F8486070BD70B50024124D04EB54
:102AD000840005EB800000F0FBF8641C082CF6D3A2
:102AE0000D48A03000F0F4F80B48B43000F0F0F8D6
:102AF0000948C83000F0ECF80748DC3000F0E8F88E
:102B00000548F03000F0E4F803490448A0310163BF
:102B10001431416370BD00004012002018010020F4
:102B200030B5134900E011460A688242FBD34B6876
:102B30005C18844203D140681844486008460D6818
:102B400044682318AB420DD1094B103B1B689A42D5
:102B500006D05268224442600A681268026002E0AD
:102B6000036000E00260814200D0086030BD0000D8
:102B70006C0100200748016B0968002905D0016B32
:102B8000C968C9684968816270474FF0FF31816246
:102B9000704700001801002004484068401C02D023
:102BA000FDF716FBFEE7FDF713FBFEE750010020E3
:102BB0002DE9F0410546002600F092F9294F3868CA
:102BC00008B9FFF72BFFF868054240D165B1083519
:102BD000680709D005F00700C0F108000544680740
:102BE00002D0FDF7F5FAFEE78DB3786885422ED85E
:102BF0001C4910310846046801E02146044660681B
:102C0000A84202D220680028F7D1386884421ED03A
:102C10000E680836206808606068411B102909D9D1
:102C20006019420702D0FDF7D3FAFEE74160656004
:102C3000FFF776FF61687868401A7860BA6890425A
:102C400000D2B860F868014361600020206000F0A5
:102C500097FA700702D0FDF7BBFAFEE73046BDE8F1
:102C6000F08100005C01002020384FF08073C361C8
:102C700081610249416140F820297047992B000881
:102C800010B50C46FEF7E2FE017821290DD14178FE
:102C900033290AD1C178112907D100228118097975
:102CA000A154521CD2B2042AF8D310BD0169D0E954
:102CB00001329A60D0E901235A604A68824201D108
:102CC00082684A60002202610868401E08607047FE
:102CD00000F1080141604FF0FF328260C160016184
:102CE00000210160704700210161704730B50C6818
:102CF000621C02D000F1080202E0026904E01A46F8
:102D000053681D68A542FAD953684B6099608A6080
:102D1000516008610168491C016030BD42684A6029
:102D200093688B6093685960916008610168491CE1
:102D30000160704710B5FDF74BFA0A484168491C1D
:102D40004160BFF34F8FBFF36F8F4068012807D1F9
:102D50000548006810F0FF0F02D0FDF739FAFEE7D2
:102D600010BD00005001002004ED00E010B508493E
:102D70004868002807D0401E4860002806D1BDE8FA
:102D80001040FDF72CBAFDF723FAFEE710BD000056
:102D90005001002070B500281DD0083804460E4DA3
:102DA0006068E968084202D1FDF712FAFEE722687E
:102DB00012B1FDF70DFAFEE78843606000F090F86D
:102DC00060686968084468602046FFF7A9FEBDE8AE
:102DD000704000F0D5B970BD5C0100204FF0E020DC
:102DE0000249416107210161704700003F1901005C
:102DF00004494FF080500860BFF34F8FBFF36F8FCF
:102E00007047000004ED00E070B505460C46002256
:102E1000002D06D044B11C4EF06A40B1FDF7D8F940
:102E2000FEE7FDF7D5F9FEE7FDF7D2F9FEE700F082
:102E300057F8F0682B681C44834205D9A34208D98F
:102E4000844206D9012204E0A34201D8844200D979
:102E500001222C607AB13068001DFFF727FF38B9D6
:102E6000306890F82C10012088403169814331612D
:102E70002046FFF76BFD00F083F9002803D1BDE881
:102E80007040FFF7B5BF70BD180100201FB50024CA
:102E9000009401940294234680220DA10E480394CD
:102EA00000F08CF8012804D000280FD1FDF790F92C
:102EB000FEE7FDF78DF909484FF0FF3181620121EE
:102EC0004161C460BDE81F4000F03EB81FBD000076
:102ED00049444C4500000000692A00081801002000
:102EE0000248C16A491CC1627047000018010020F5
:102EF00010B5134AD06A002802D00120D06110BD5D
:102F00000020D0611069B0FA80F0C0F11F000D49B7
:102F100000EB800051F8203073B101EB8000416874
:102F20004968416000F10803994201D14968416054
:102F30004068C068106010BDFDF74AF9FEE7000068
:102F400018010020401200201CB519490878019092
:102F5000FF200870087800909DF80000154A00F0E6
:102F6000100010700720906006E09068401E90608E
:102F70009DF80000400000909DF800000006F4D489
:102F8000107A000200F4E0609060019808700A482E
:102F9000016841F470010160016841F07041016015
:102FA000FFF71CFF00205060FDF7E0F800201CBD7B
:102FB00000E400E05001002020ED00E02DE9FF4F8B
:102FC00081B08246DDE90E59109990469B46BAF1D0
:102FD000000F04D0082D05D3FDF7FAF8FEE7FDF742
:102FE000F7F8FEE74046FFF7CDFC04462E4F7CB3D2
:102FF000216BA8F1010001EB800020F007067007AB
:1030000002D0FDF7E5F8FEE7CDF800802A4620461D
:10301000119B0299FFF734FD5A4651463046FFF79F
:1030200023FE2060B9F1000F01D0C9F80040FFF77E
:1030300081FEB868401CB860386810B1786940B14A
:103040000CE03C60B868012808D1FFF73DFD05E0C1
:1030500019E03868C06AA84200D83C60786A401C11
:103060007862E06A01213A6981401143396100EBDD
:1030700080010E4800EB8100211DFFF74FFE012467
:10308000FFF774FE01E04FF0FF34012C07D178699F
:1030900028B13868C06AA84201D2FFF7A9FE05B07E
:1030A0002046BDE8F08F00001801002040120020EB
:1030B0000148C06870470000180100202DE9F04168
:1030C00000252D4FF86A002808D0B869401CB86167
:1030D000F86900B101252846BDE8F081F868401C78
:1030E000F860FE6876B9386B006810B1FDF770F8CB
:1030F000FEE7386B796B39637863386A401C386255
:10310000FFF738FDB86ADFF8748086420DD3386B5C
:10311000006838B1386BC068C468606886420ED2F7
:10312000B86202E04FF0FF30B8623868C06A00EB66
:10313000800058F820000128CAD90125C8E7201DC1
:10314000FFF7B4FDA06A18B104F11800FFF7AEFD57
:10315000E06A01213A6981401143396100EB800046
:1031600008EB8000211DFFF7D9FDE06A3968C96AC4
:103170008842CCD30125CAE7180100204012002064
:103180002DE9F0410027284DE86A002807D0FFF715
:10319000D1FDE86A401EE862E86A18B13EE0FDF73A
:1031A00017F8FEE7A868C8B3DFF8808001261EE0A4
:1031B000D8F80C00C46804F11800FFF777FD201D53
:1031C000FFF774FDE06A2A6906FA00F111432961EC
:1031D000164900EB8000C83901EB8000211DFFF784
:1031E0009DFDE06A2968C96A884200D3EE61D8F87B
:1031F00000000028DCD1A86938B909E0FFF75EFFBC
:1032000000B1EE61A869401EA861A8690028F5D147
:10321000E869012802D10127FFF7EAFDFFF7A6FDC3
:103220003846BDE8F0810000180100200813002096
:1032300000C1814001C0804101C0804100C1814086
:1032400001C0804100C1814000C1814001C0804176
:1032500001C0804100C1814000C1814001C0804166
:1032600000C1814001C0804101C0804100C1814056
:1032700001C0804100C1814000C1814001C0804146
:1032800000C1814001C0804101C0804100C1814036
:1032900000C1814001C0804101C0804100C1814026
:1032A00001C0804100C1814000C1814001C0804116
:1032B00001C0804100C1814000C1814001C0804106
:1032C00000C1814001C0804101C0804100C18140F6
:1032D00000C1814001C0804101C0804100C18140E6
:1032E00001C0804100C1814000C1814001C08041D6
:1032F00000C1814001C0804101C0804100C18140C6
:1033000001C0804100C1814000C1814001C08041B5
:1033100001C0804100C1814000C1814001C08041A5
:1033200000C1814001C0804101C0804100C1814095
:1033300000C0C101C30302C2C60607C705C5C40455
:10334000CC0C0DCD0FCFCE0E0ACACB0BC90908C8C5
:10335000D81819D91BDBDA1A1EDEDF1FDD1D1CDCB5
:1033600014D4D515D71716D6D21213D311D1D01025
:10337000F03031F133F3F23236F6F737F53534F415
:103380003CFCFD3DFF3F3EFEFA3A3BFB39F9F83885
:1033900028E8E929EB2B2AEAEE2E2FEF2DEDEC2C75
:1033A000E42425E527E7E62622E2E323E12120E0E5
:1033B000A06061A163A3A26266A6A767A56564A4D5
:1033C0006CACAD6DAF6F6EAEAA6A6BAB69A9A86845
:1033D00078B8B979BB7B7ABABE7E7FBF7DBDBC7C35
:1033E000B47475B577B7B67672B2B373B17170B0A5
:1033F0005090915193535292965657975595945495
:103400009C5C5D9D5F9F9E5E5A9A9B5B9959589804
:10341000884849894B8B8A4A4E8E8F4F8D4D4C8CF4
:103420004484854587474686824243834181804064
:1034300000080140010000000008014002000000F7
:1034400000080140040000000008014008000000DE
:1034500000080140100000000008014020000000AA
:10346000000801404000000000080140800000000A
:10347000000C014001000000000C014002000000AF
:10348000000C014000010000000C0140000200009F
:10349000000C014000040000000C01400008000086
:1034A0000010014001000000001001400200000077
:1034B000001001400400000000100140080000005E
:1034C000001001401000000000100140200000002A
:1034D0000014014080000000001401400080000042
:1034E0000035000800000020740100009E0600085E
:1034F0007035000874010020D47D00002E1D0008E6
:103500000140124413024014380140322062402A24
:1035100080143A440E320242042A1C1412486A40B3
:103520002732011B5804142A4C0F1B0210272A10A3
:103530002D516A504A49296A5864694F19147A6CA6
:1035400064595219145A3064792729146964120293
:103550001A10142B100279D9643D020406086B2C52
:1035600002030404053C060708091AAA01011C000D
:0400000508000131BD
:00000001FF
