:020000040800F2
:1000000068840020ED010008B9190008F5180008FF
:10001000B719000855100008952D000800000000D1
:10002000000000000000000000000000490100087E
:1000300035160008000000008D0100080D200008A2
:1000400007020008351A000807020008891D000889
:10005000070200080702000807020008070200085C
:10006000070200080702000807020008070200084C
:10007000070200080702000807020008070200083C
:10008000070200080702000807020008070200082C
:10009000292D0008070200080702000807020008CF
:1000A000070200080702000807020008070200080C
:1000B0008522000807020008BD2200080702000888
:1000C00007020008070200080702000807020008EC
:1000D0000702000807020008C9280008352900089F
:1000E00007020008070200080702000807020008CC
:1000F000AD250008070200082125000807020008B6
:1001000007020008070200080702000807020008AB
:10011000070200080702000891230008592400087C
:10012000070200080702000807020008070200088B
:10013000DFF810D000F01EFB00480047F541000832
:10014000AFF3008068840020204B19680868B0E88D
:10015000F00F80F30988BFF36F8F4FF0000080F33A
:1001600011884EF00D0E7047000000000648006830
:10017000006880F3088862B661B6BFF34F8FBFF3A3
:100180006F8F00DF00BF00BF08ED00E0EFF30980D4
:10019000BFF36F8F0D4B1A6820E9F00F106008B5A0
:1001A0004FF0100080F3118804F0ECFB4FF00000DA
:1001B00080F31188BDE8084019680868B0E8F00FBE
:1001C00080F30988BFF36F8F704700BFA001002044
:1001D000EFF311804FF0100181F31188704780F325
:1001E00011887047EFF3058070470000064880478C
:1001F00006480047FEE7FEE7FEE7FEE7FEE7FEE70C
:10020000FEE7FEE7FEE7FEE73120000831010008C7
:10021000F0B480EA0102D40F4200B2EB410F02D2E7
:100220000246084611464A0042D0C30DDDB2C1F372
:10023000C752AD1A202D35DAC1F3160141F4000280
:1002400004B15242C5F1200602FA06F12A411044D7
:10025000B3EBD05F23D0C4B1012DA0EBC35009DCB8
:10026000F0BC4FF0004202EAC352DBB200F50000DE
:1002700000F0A3B9400000F1807000EBC350A0F182
:10028000807040EAD170490009E0490841EAC07134
:10029000A0EBC35000F50000400800EBC350F0BCD9
:1002A00000F082B96142012202EB4101001BF6E736
:1002B000F0BC704781F00041AAE780F00040A7E75A
:1002C00080EA010210B502F00043400022D04A004B
:1002D0001FD0010E01EB1261C0F35600C2F35602AB
:1002E00040F4000042F40002A0FB022000047F3929
:1002F000140400D0401C50EA124001D44000491EB2
:10030000C2B20C0604EBD010401C4008802A02D078
:1003100003E0002010BD20F00100002900DA0020D9
:10032000184310BD30B480EA010202F0004530F0FD
:10033000004221F0004013D090B1C30DD40DC2F3A0
:100340001601C0F31600E41A41F4000140F4000263
:100350007D34914201D3641C00E04900002C02DA94
:1003600030BC002070474FF400000023914201D3BD
:10037000891A034340084FEA4101F7D151B1914234
:1003800002D14FF0004105E002D24FF0010101E03F
:100390006FF0010103EBC450284430BC00F004B9F5
:1003A0002DE9FE4F81EA030404F0004421F00041EE
:1003B00000944FF0000B23F0004350EA01045ED09C
:1003C00052EA03045BD0C3F30A54C1F30A552C4428
:1003D000A4F2F3340194A0FB0254C1F3130141F4DD
:1003E0008011C3F3130343F4801301FB024400FBA9
:1003F000034E840A970A44EA815447EA8357A4FBD0
:10040000076802958D0A05FB07854FEA932C04FBCC
:100410000C542705029D4FEA065847EA1637B5EBFC
:1004200008056EEB070C870E920E47EA811742EA29
:100430008312A7FB0201B6EB0B0164EB00042B0D4A
:1004400043EA0C335E1844EB1C50DA465146E7FB96
:100450000201C5F313044FEA0B3343EA14534FEA86
:100460000432019C43EA0603A4F10C040294009CAC
:10047000CDE900B400F0DEF803B0BDE8F08F002055
:100480000146F9E7C10F80EAE0700844CA079623E5
:10049000002100F092B896230022114600F08DB89A
:1004A0000EB540F2334102910021CDE900110A4618
:1004B0000B4600F0BFF803B000BD20F00040C10DB6
:1004C000C0F3160040F400007F2901DA00207047D5
:1004D000962903DCC1F19601C840704796398840DF
:1004E0007047C1F30A5210B5C1F3130140F2FF3354
:1004F00041F480119A4201DA002010BD40F23343EA
:100500009A42A2F2334203DC524200F03DF810BDA1
:10051000904010BD00F0004230F000400AD0C10D04
:1005200001F56071C0F3160042EA0151C2084007AC
:100530001143704700200146704701F0004330B47A
:1005400021F0004150EA010206D00A0DA2F56072C6
:10055000C1F31301002A02DC30BC00207047440FB5
:1005600044EAC104C100E01830BC00EBC25000F006
:100570001BB80000002801DBC0F10040002901DBAE
:10058000C1F1004188427047202A04DB203A21FA59
:1005900002F00021704721FA02F3D040C2F120029C
:1005A00091400843194670470029A8BF7047401C76
:1005B000490008BF20F00100704710B4B0FA80FC79
:1005C00000FA0CF050EA010404BF10BC704749B1B6
:1005D000CCF1200421FA04F411FA0CF118BF012126
:1005E00021430843A3EB0C01CB1D4FEA00614FEA06
:1005F000102042BF002010BC704700EBC3501044D5
:100600000029A4BF10BC7047401C490008BF20F05F
:10061000010010BC704710B5141E73F1000408DA15
:10062000401C41F1000192185B411A4301D120F0B6
:10063000010010BD2DE9F04D92469B4611B1B1FA73
:1006400081F202E0B0FA80F22032904600F0A4F885
:1006500004460F4640EA0A0041EA0B0153465A4657
:10066000084313D0114653EA010019D0C8F14002E3
:100670005046FFF789FF05460E465046594642460A
:1006800000F08AF8084305D0012004E020463946EE
:10069000BDE8F08D0020054346EAE0762C43374361
:1006A0000A986305E40AA0EB08000022FD0A44EA68
:1006B00047540A3002D500200146E9E70105101928
:1006C0006941DDE9084500196941BDE8F04DA2E73F
:1006D0002DE9F04D00231A461B1A8A4103DB002046
:1006E0000146BDE8F08DC1F30A52C1F3130141F494
:1006F00080154FF0000BD10702D100186D41521E3A
:100700000027044640F2FF11384601EB620A3E46DC
:100710008046024600204FF48011FFF735FFC219D2
:100720007141BB1846EB0100B4EB030C75EB000CF8
:1007300004D3E41A65EB000517460E46241908F1A8
:1007400001006D4180463428E3DDF91946EB0600CF
:10075000091BA84103D24FF0FF32134601E00022EB
:1007600013461BEB070046EB0A51BDE8F04DFFF7BF
:1007700052BF0000064C074D06E0E06840F0010360
:1007800094E8070098471034AC42F6D3FFF7D4FC46
:10079000B4500008D4500008202A04DB203A00FAA4
:1007A00002F1002070479140C2F1200320FA03F3C8
:1007B00019439040704770B58C1810F8015B15F024
:1007C000070301D110F8013B2A1106D110F8012BC3
:1007D00003E010F8016B01F8016B5B1EF9D12B07E8
:1007E00005D40023521E0DD401F8013BFAE710F89E
:1007F000013BCB1A921C03E013F8015B01F8015B8B
:10080000521EF9D5A142D8D3002070BD002904D0D2
:10081000816841F0010181607047816821F0010128
:1008200081607047002904D0816841F48071816043
:100830007047816821F48071816070470146002013
:100840008968490700D50120704701460020896862
:10085000090700D50120704710B542680E4B1A40B9
:100860000C790B6842EA04221343436082680B4B05
:100870001A40D1E9024323434C7942EA440213432C
:100880008360C26A22F47002097C491EC9B242EA3E
:100890000151C16210BD0000FFFEF0FFFDF7F1FF46
:1008A00070B5072609290AD9C568A1F10A0404EB25
:1008B0004404A640B543A3401D43C56007E0056955
:1008C00001EB4104A640B543A3401D4305611F232E
:1008D000072A09D2446B521E02EB820293409C43CA
:1008E00091400C43446370BD0D2A09D2046BD21FA2
:1008F00002EB820293409C4391400C43046370BD21
:10090000C46A0D3A02EB820293409C4391400C432F
:10091000C46270BD816841F00801816070470029A0
:1009200004D0816841F4A00181607047816821F49E
:10093000A00181607047816841F0040181607047C7
:100940002DE9F05F0646DDF828A089469046002490
:10095000A6F2B270822802D30120BDE8F09F40F2D7
:10096000B275284FDFF8A0B008E0284601F00CF877
:1009700008B13C4400E05C446D1CADB2B542F4D318
:10098000A9F1010909F0FF070025DFF88090DFF8E1
:1009900080B00FE019F8050040F2A321484304EBB2
:1009A000C014304600F0F0FF10B1012D00D15C44BE
:1009B0006D1CADB2BD42EDD3A8F1010840F2A320F9
:1009C00008FB00F804EBC810C3EB4311C1EB032193
:1009D00000EB0110CAEB0A1100EB81000B994418DF
:1009E00001214FF0C05001F055F8012001F02EF820
:1009F00001F00AF9204601F06BFA01F099FA0020A3
:100A0000ABE700000085E2018033E101A850000857
:100A10008051010030B505460C46002D0BD0022C4C
:100A200009D9A01EC1B2284600F048FF291901F8D3
:100A3000020D000A487030BD10B5012001F046F8E3
:100A4000BDE81040002001F041B8000008B503499E
:100A5000084400900098008808BD0000006C004029
:100A600008B5034A104400900098016008BD0000DA
:100A7000006C00402DE9F04788B00746DDE910A87A
:100A8000DDF848900E4614461D460121480601F047
:100A900001F88DF818408DF819508DF81760ADF8F1
:100AA00014A000248DF81A4001258DF81B500794DE
:100AB0008DF8164005A9384600F004FC8DF80A4070
:100AC0008DF80B408DF80C50ADF80040ADF80240A9
:100AD000ADF80440ADF80640ADF808408DF80D5073
:100AE000684600F015FB01220221384600F0E0FBC9
:100AF00014208DF810008DF811808DF812908DF86B
:100B0000135004A800F05AFF08B0BDE8F08738B5CC
:100B100004460D46204600F00DF8A088ADF8000010
:100B20008DF8035003208DF802006946206800F01C
:100B300039FE38BD124A0168914201D104201CE0FF
:100B4000104A914201D1082017E00F4A914201D189
:100B5000102012E00D4A914201D120200DE00C4AF4
:100B6000914201D1402008E00A4A914201D18020FF
:100B700003E0094A914200D18815012100F098BF95
:100B800000080140000C0140001001400014014029
:100B900000180140001C0140002001402DE9F04FE9
:100BA00087B08246DDE911B8109F894616461D467A
:100BB000504600F0E3F81DB128212868FFF7A7FF91
:100BC0001FB128213868FFF7A2FFBBF1000F03D047
:100BD00028212868FFF79BFFB8F1000F04D02821D7
:100BE000D8F80000FFF793FFADF810600026ADF8CD
:100BF0001260ADF81490ADF8166004A9504601F0EB
:100C000015FE4FF0010985B144F00204ADF804600F
:100C1000A888ADF80600ADF80890ADF80A60ADF808
:100C20000C6001A9504601F0F3FC8FB144F00404BC
:100C30000420ADF80400A888ADF80600ADF80890CF
:100C4000ADF80A60ADF80C6001A9504601F0E0FC77
:100C5000BBF1000F11D044F008040820ADF80400E7
:100C6000A888ADF80600ADF80890ADF80A60ADF8B8
:100C70000C6001A9504601F0CBFCB8F1000F11D077
:100C800044F010040C20ADF80400A888ADF806006C
:100C9000ADF80890ADF80A60ADF80C6001A95046B7
:100CA00001F0B6FC44F001010122504601F0F6FCCF
:100CB0000121504601F093FC1398FF2816D0149898
:100CC000FF2813D0504601F079FDDDE9131200F042
:100CD00046F80848824502D00748824506D150466A
:100CE00001F0C0FADDE9131200F039F807B0BDE8F1
:100CF000F08F0000002C0140003401402DE9FF413D
:100D000080460A9F0C4616461D46404600F036F8BF
:100D1000ADF80840ADF804600021ADF80610ADF85C
:100D20000A1001A9404601F081FD0122114640460A
:100D300001F0B4FC0121404601F051FC404601F0B5
:100D40003DFD8DF800008DF801508DF802700120F6
:100D50008DF80300684600F031FEBDE8FF8108B55C
:100D60008DF800008DF801108DF8022001208DF81B
:100D70000300684600F022FE08BD000031498842A9
:100D800003D10121C01400F093BEB0F1804F06D012
:100D90002D49884207D10121022000F07BBE0121AC
:100DA000084600F077BE2949884203D1012104207A
:100DB00000F070BE2649884203D10121082000F0CE
:100DC00069BE2449884203D10121102000F062BE8F
:100DD0002149884203D10121202000F05BBE1F4938
:100DE000884203D10121401400F062BE1C498842B0
:100DF00003D10121C80400F05BBE1A49884203D127
:100E00000121080500F054BE1749884203D1012191
:100E1000480500F04DBE1549884203D1012140200C
:100E200000F038BE1249884203D10121802000F031
:100E300031BE1049884203D10121801500F02ABE3D
:100E400070470000002C01400004004000080040F2
:100E5000000C00400010004000140040003401402D
:100E6000004C014000500140005401400018004077
:100E7000001C00400020004030B58BB004462078B4
:100E8000002829D00121022000F0F6FD606800F062
:100E900035FBA068001D00906078002508B302951E
:100EA000A06801F02DFE0190A06801F0CDFE039036
:100EB0000495802005900695079508954FF44050BD
:100EC00009900A956946606800F097FB0121606807
:100ED00000F006FB0BB030BD0121084600F0CCFD50
:100EE000D4E710200290A06801F038FE0190A068BD
:100EF00001F0D0FE0390DBE72DE9F04385B0064614
:100F0000DDE90C780C4615469946304600F058F855
:100F10001CB118212046FFF7FAFD1DB10421284617
:100F2000FFF7F5FDCDF800900020ADF80400ADF816
:100F30000600ADF80800ADF80C000C20ADF80A0072
:100F40006946304601F07EFDDFF87090FF2F20D01B
:100F5000B8F1FF0F1DD0304601F0C2FE8DF8100031
:100F60008DF811708DF8128001208DF8130004A8FF
:100F700000F024FD4E4506D0012240F224413046C7
:100F800001F044FD05E0012240F22551304601F018
:100F90003DFD4E450BD024B101228021304601F0A9
:100FA0000BFD25B101224021304601F005FD012154
:100FB000304601F0F5FC05B0BDE8F083005000407C
:100FC0001149884203D10121880300F071BD0F4906
:100FD000884203D10121480400F05CBD0C498842DD
:100FE00003D10121880400F055BD0A49884203D18C
:100FF0000121C80400F04EBD0749884203D10121F8
:10100000080500F047BD704700380140004400402B
:1010100000480040004C00400050004070B50446BD
:101020000D461646606800F0E5FA0028FAD1002166
:10103000606800F055FAD4E90301084300F044FA6F
:101040006068C560606846606068BDE87040012106
:1010500000F046BAFEE700000A4A914202D10021A0
:1010600081617047C1F313028B0101D5C2607047E3
:101070004B0101D502617047090101D582607047BB
:10108000426070477000F03030B50823102404220D
:10109000B1F5007F33D011DC20292AD007DC0129EB
:1010A00022D0042923D0082900D1C46030BD4029B2
:1010B00021D0B1F5807FF9D1426030BD0025B1F576
:1010C000004F20D008DCB1F5806F1AD0B1F5006F69
:1010D000F3D18561426030BDB1F5803F0DD0B1F5EF
:1010E000003FF8D1446030BD0849816030BDC36025
:1010F00030BD036130BD046130BD436030BD42602E
:1011000030BD426030BD8561426030BD01010100EB
:10111000F0B5827A01219140304C226842F0010200
:1011200022602E4D1C352A688A432A602B4A067B92
:101130000C322B4B002E14D116688E431660468855
:10114000C78846EA0746877A03EBC707C7F84066B1
:101150000688878846EA0746877A03EBC707C7F8F9
:101160004466067B012E14D116680E431660428831
:10117000068842EA0642867A03EBC606C6F840268F
:10118000C288868842EA0642867A03EBC603C3F821
:101190004426124AC37A121D3BB113680B431360F5
:1011A0000E4A0389143223B106E013688B4313609F
:1011B000F6E713688B4313600389012B02D1136890
:1011C0000B431360407B012802D128680843286044
:1011D000206820F001002060F0BD000000660040A3
:1011E000006000400246002053690B425DD0B1F51B
:1011F000807F4AD016DC082937D009DC01292CD0A1
:1012000002292ED0042950D1D068082100F01DB940
:1012100010292ED0202930D0402946D11069102124
:1012200000F013B9B1F5004F3BD00CDCB1F5007FF5
:101230002FD0B1F5806F30D0B1F5006F35D1906906
:10124000702100F002B9B1F5803F1AD0B1F5003F2E
:101250002BD15068102100F0F8B89068134900F0C5
:10126000F4B8D068032100F0F0B8D068102100F085
:10127000ECB81069032100F0E8B81069082100F00B
:10128000E4B85068082100F0E0B89069012100F04E
:10129000DCB89069022100F0D8B89069042100F010
:1012A000D4B85068042100F0D0B8704701010100A3
:1012B000002A03D042690A434261704742698A4367
:1012C0004261704710B50022036823F002030360F7
:1012D000036843F0010303604FF6FF7300E0521C04
:1012E0004468E40701D19A42F9D14268D2073ED05E
:1012F0008A79012A3DD0026822F080020260CA7910
:10130000012A3BD0026822F0400202600A7A012AD8
:1013100039D0026822F0200202604A7A012A37D0CE
:10132000026822F0100202608A7A012A35D002682F
:1013300022F008020260CA7A012A33D0026822F041
:10134000040202608A78CC78920742EA04620C793F
:1013500042EA04424C79098842EA0452491E0A438F
:10136000C261016821F001010160002120E000203C
:1013700010BD026842F080020260C0E7026842F0DD
:1013800040020260C2E7026842F020020260C4E745
:10139000026842F010020260C6E7026842F00802EA
:1013A0000260C8E7026842F004020260CAE7491C12
:1013B0004268D20701D09942F9D14068C00701D0F4
:1013C000002010BD012010BD10B500EB0113D3F8B3
:1013D000B04104F004041472002C2CD0D3F8B041B6
:1013E000E408546003F5D8731C6804F002045472D6
:1013F0005C6804F00F0494725C68240AD4749C68DE
:10140000D4729C68240A14739C68240C54739C68DE
:10141000240E9473DC68D473DC68240A1474DC68CA
:10142000240C5474DB681B0E937449B1016941F0BC
:101430002001016110BDD3F8B041640D1460D1E703
:10144000C16841F02001C16010BD024600200A427F
:1014500000D00120704700000122064B8240002985
:1014600003D01868104318607047186890431860DC
:10147000704700000074004030B5084C236840F607
:10148000FE7282409343D1E900252A43D1E90251FB
:101490000D432A4382401A43226030BD007400404D
:1014A00008B5034A1044083000900098016008BD58
:1014B0000074004008B5034A1044143000900098AE
:1014C000016008BD00740040C10002D502490860F7
:1014D000704702494860704704040240000002401F
:1014E000002904D0016841F00101016070470168E2
:1014F0004FF6FE72114001607047000001684FF620
:10150000FE72114001600021016041608160C16094
:101510003649364A0839904204D1486840F00F00F5
:1015200048607047314A1432904204D1486840F014
:10153000F000486070472D4A2832904204D1486834
:1015400040F4706048607047284A3C32904204D1B1
:10155000486840F4704048607047244A50329042D6
:1015600004D1486840F47020486070471F4A6432D4
:10157000904204D1486840F47000486070471B4AAC
:101580007832904204D1486840F0706048607047FB
:10159000174A111F904204D1086840F00F000860FC
:1015A0007047134A1432904204D1086840F0F000AA
:1015B000086070470E4A2832904204D1086840F40F
:1015C0007060086070470A4A3C32904204D1086853
:1015D00040F4704008607047054A50329042FAD19A
:1015E000086840F47020086070470000080002405E
:1015F00008040240406880B2704730B5026847F680
:10160000F0739A430C6A8B682343D1E904452C4359
:1016100023438C692343CC6923434C6A23438C6A5C
:10162000234313430360CA6842600A6882604968C2
:10163000C16030BD7047000001490860704700007C
:101640001404014030B51B4A83790168002B2AD06D
:1016500013688B431360111D0B680468A3430B6070
:10166000017911440B68046823430B60114C083462
:101670002168036899432160231D19680568A943FF
:1016800019604179102905D011440A6800680243A5
:101690000A6030BD21680268114321601968006842
:1016A0000143196030BD0079104402688A4302602A
:1016B00030BD0000000401400149C86070470000CF
:1016C0000020024070B505464FF43026304600F049
:1016D00059F8042811D1094C206940F0020020611A
:1016E0006561206940F040002061304600F04AF812
:1016F000216941F6FD721140216170BD0020024058
:1017000004200849CA68D20701D001207047CA687E
:10171000520701D502207047C968C906FBD50320CE
:1017200070470000002002400248016941F080013A
:101730000161704700200240F0B506460D464FF4A7
:101740000057384600F01EF804280CD1064C2069DA
:1017500040F0010020613580384600F013F821691F
:10176000BA1E11402161F0BD002002400348024929
:1017700041600349416070472301674500200240F2
:10178000AB89EFCD00B50346FFF7BAFF02E0FFF7E4
:10179000B7FF5B1E012801D1002BF8D1002B00D12F
:1017A000052000BD2DE9F0410022CC7804F00F03A4
:1017B000E40601D58C7823430C784FF00F0714F022
:1017C000FF0F4FF0010C1CD005680CFA02F40E88D4
:1017D0002640A64211D1960007FA06F825EA080528
:1017E00003FA06F848EA0505CE78282E02D0482EDE
:1017F00002D002E0446100E00461521C082AE4D3F4
:1018000005600A88FF2A1ED94568002202F10806F1
:101810000CFA06F40E882640A64210D1960007FA6C
:1018200006F825EA080503FA06F848EA0505CE7821
:10183000282E00D14461CE78482E00D10461521C7C
:10184000082AE3D34560BDE8F0810000F0B5154CEF
:10185000002801DAE36900E06368C0F30346420D43
:10186000120185B2C0F301579540032F07D0C20281
:101870000CD50322B240934343F0706209E023F099
:101880007062636823F07063636002E0AB4343F00F
:10189000706201B12A43002801DAE261F0BD6260A2
:1018A000F0BD0000000001400121FFF7CFBF02465C
:1018B000002092680A4200D00120704770B5FF22D4
:1018C000FF23002801D0022902D84FF6FF7070BD17
:1018D000074D05F5807605E010F8014B54402A5D70
:1018E0005A40335D491EC9B2F6D243EA022070BDA8
:1018F000C44C000806A30020104C211F1A5C228053
:101900000A885206FCD5401CC0B22A28F6D3FEE74E
:101910000D0A456E74657220486172644661756C8B
:10192000745F48616E646C65722C205379737465C2
:101930006D2048616C742E0D0A00000004380140CF
:1019400002494CF6CC40086070470000003000406F
:10195000AFF3008002494AF6AA20086070470000F1
:1019600000300040014948607047000000300040EE
:10197000014988607047000000300040014908605C
:101980007047000000300040810701D00020704700
:101990006421B0FBF1F201FB120109B10120704793
:1019A0004FF4C871B0FBF1F201FB120008B1002046
:1019B000704701207047FEE77047000070B50F23A5
:1019C000C27801260178002A1ED0144A126802F457
:1019D000E062C2F5E062120AC2F10404D340457825
:1019E000A54082781A402A43120101F1E02181F8D2
:1019F0000024007800F01F018E404009800000F1B3
:101A0000E020C0F8006170BD01F01F008640480969
:101A1000800000F1E020C0F8806170BD0CED00E0B6
:101A20000249084302490860704700000000FA05B7
:101A30000CED00E010B54FF48030FFF7FDFD002104
:101A4000BDE810400820FFF70BB80000014908620C
:101A50007047000000000E42014908617047000015
:101A600000000E42034A116821F0E00101431160B9
:101A70007047000000700040054A002903D05169FA
:101A800001435161704751698143516170470000C2
:101A900000100240054A002903D0D1690143D161F9
:101AA0007047D1698143D161704700000010024046
:101AB000054A002903D091690143916170479169FA
:101AC00081439161704700000010024001490860A5
:101AD000704700004004424210B5264A516801F0A8
:101AE0000C01254B002927D0042927D0082927D00D
:101AF0000360516801F0F0010909204B5C5C01684A
:101B0000E1404160546804F4E064240A1C5D21FA59
:101B100004F48460546804F46054E40A1B5DD94002
:101B2000C160526802F44042920B144B1B1F9A5C36
:101B3000B1FBF2F1016110BD0360DAE70360D8E7A1
:101B4000516801F47011536803F48033022404EBEC
:101B5000914133B153689B0307D5094B5943016049
:101B6000C7E7074B59430160C3E7034B5943016083
:101B7000BFE700000010024000127A008E01002032
:101B800000093D00034600205909094A01290AD0ED
:101B900002290AD0516A03F01F02012393400B422D
:101BA00000D0012070471168F5E7116AF3E70000E3
:101BB00000100240084900220A7001F8202901287B
:101BC00005D0042802D1052081F8200070470120AB
:101BD00081F8200070470000201002400149086091
:101BE000704700003C04424202490A6A02430A620A
:101BF000704700000010024002490A8882430A80B0
:101C000070470000042800400248018841F010019C
:101C100001807047042800400248018821F010012B
:101C200001807047042800402DE9F04700F06AF871
:101C30000646304FB6FBF7F32F48304D01889942E6
:101C400031D0038040F2B2744FF4B7784FF4B679D4
:101C50000FE02046FFF798FE38B1434502D3A3F5C5
:101C6000B77304E0641CA4B205E0A3F26D13641C16
:101C7000A4B24B45EDD8AC800024DFF884800CE0A2
:101C8000A888FFF781FE08B1012C2FD018F80400B6
:101C9000984204D81B1A641CA4B21C2BF0D2641CFA
:101CA000AC715B1CEB71B6FBF7F007FB10604FF4F7
:101CB0006161B0FBF1F22A70B0FBF1F201FB12039B
:101CC0003C22B3FBF2F36B70B0FBF1F301FB1300AA
:101CD000B0FBF2F102FB1100A870EA79A979A8889B
:101CE00000F02AF828720020BDE8F0871D2BD6D31B
:101CF0001D3BD0E7805101008801002058150020CD
:101D0000A8500008034800880249091F098840EAD2
:101D1000014070471C28004006490988C2B21140A2
:101D2000044A121F1288024202D009B101207047F2
:101D3000002070470428004030B56423B0FBF3F462
:101D4000E4B2B0FBF3F503FB1500132C01D96430AA
:101D5000C0B200EB90030724B3FBF4F504FB15338A
:101D6000084D1A440D4415F8015C2A4492B28007CC
:101D700003D1032901D2521E92B2B2FBF4F004FB4C
:101D8000102030BD9C50000810B50120FFF7C4FFA3
:101D900008B1FFF749FF0220FFF7BEFF30B1074847
:101DA0000168491C01600220FFF726FF0520FFF7AC
:101DB00023FFBDE8104000F0BBB80000BC000020CD
:101DC000054A002903D0118801431180704711880A
:101DD00081431180704700000028004008B50322AD
:101DE0008DF800208DF801008DF8021001208DF88B
:101DF00003006846FFF7E2FD08BD00002DE9F05F33
:101E00000646DDF828A0894690460024A6F2B27066
:101E1000822802D30120BDE8F09F40F2B275284F1E
:101E2000DFF8A0B008E02846FFF7AEFD08B13C445B
:101E300000E05C446D1CADB2B542F4D3A9F10109D8
:101E400009F0FF070025DFF88090DFF880B00FE091
:101E500019F8050040F2A321484304EBC0143046B2
:101E6000FFF792FD10B1012D00D15C446D1CADB2A5
:101E7000BD42EDD3A8F1010840F2A32008FB00F811
:101E800004EBC810C3EB4311C1EB032100EB0110BD
:101E9000CAEB0A1100EB81000B99441801214FF0A5
:101EA000C050FFF7F7FD0120FFF7D0FD204600F0FE
:101EB0001FF800F03DF8FFF7B7FE0020ABE7000089
:101EC0000085E2018033E101A85000088051010043
:101ED00000B50246FFF798FE0449100C0880081D63
:101EE00002805DF804EBFFF797BE00002028004059
:101EF00000B50246FFF788FE0449100C0880081D53
:101F000002805DF804EBFFF787BE00001828004050
:101F100000B50246FFF778FE0449C2F3034008808B
:101F2000081D02805DF804EBFFF776BE082800402C
:101F3000024801888906FCD570470000042800404B
:101F40000448018821F00801018001880907FCD5B7
:101F50007047000004280040AFF300800CB5002259
:101F6000019200922748016841F4803101604FF4EA
:101F7000A063016801F4003100910199491C0191AD
:101F8000009911B901999942F3D10168890302D5E9
:101F90000121009100E000920099012930D11A49F5
:101FA0000A6842F010020A600A6822F003020A601E
:101FB0000A6842F002020A6041684160416841607B
:101FC000416841F480614160416821F47C114160C5
:101FD000416841F4E8114160016841F0807101609D
:101FE00001688901FCD5416821F003014160416825
:101FF00041F0020141604168C1F381010229FAD137
:102000000CBD0000001002400020024010B5FEF799
:10201000DFF802F09DFD18B104494FF080500860D0
:10202000BDE810400020FEF7DAB8000004ED00E043
:1020300010B50F48016841F00101016041680D4A87
:102040001140416001680C4A11400160016821F4AF
:1020500080210160416821F4FE0141604FF41F01BD
:102060008160FFF779FF05494FF00060086010BDFF
:10207000001002400000FFF8FFFFF6FE08ED00E050
:1020800070B5048C24F001040484058B048C25F0C5
:10209000F3054FF6FF7606EA031313432B43104A6A
:1020A00090420ED00F4A90420BD0B0F1804F08D032
:1020B0000D4A904205D00D4A904202D00C4A9042FF
:1020C00005D124F002020A4342F0010104E024F0A9
:1020D0000A020A4342F001010383018470BD00003B
:1020E000002C014000340140000400400008004082
:1020F000000C0040F0B5048C24F010040484068B1E
:10210000048C4FF6FF7505EA011726F4734605EABD
:102110000333334305EA02221A43104B98420ED090
:102120000F4B98420BD0B0F1804F08D00D4B984226
:1021300005D00D4B984202D00C4B984205D124F0AB
:102140002001394341F0100104E024F0A0030B43C7
:1021500043F0100102830184F0BD0000002C014017
:10216000003401400004004000080040000C004022
:10217000F0B5048C24F480740484858B048C4FF6B1
:10218000FF7707EA012625F0F30507EA0313134357
:102190002B43104A90420ED00F4A90420BD0B0F120
:1021A000804F08D00D4A904205D00D4A904202D08F
:1021B0000C4A904205D124F40071314341F48071FE
:1021C00004E024F420620A4342F480718383018492
:1021D000F0BD0000002C014000340140000400402C
:1021E00000080040000C0040F0B5048C24F480543A
:1021F0000484868B048C4FF6FF7505EA013726F4BC
:10220000734605EA0222324305EA03331343104AB8
:1022100090420ED00F4A90420BD0B0F1804F08D0C0
:102220000D4A904205D00D4A904202D00C4A90428D
:1022300005D124F40051394341F4805104E024F4E1
:1022400002420A4342F4805183830184F0BD0000BE
:10225000002C014000340140000400400008004010
:10226000000C00400146054A914201D11B207047F5
:10227000034A9142FBD12E2070470000002C014000
:102280000034014010B501218C07204600F0B3F95D
:1022900068B101F0F7FD407E28B101F0F3FD418BFC
:1022A000491C418303E001F0EDFD002141832046FC
:1022B000BDE81040012100F08FB900002DE9F04782
:1022C000DFF8B8900121484600F095F92C4C2D4DCF
:1022D00038B1216809B1491C2160296809B1491C3C
:1022E00029600221484600F086F900264FF00108D7
:1022F000E0B1224F2068343798B13988E181401E1F
:10230000E189C0EB00400844A189401A2061FEF732
:10231000C2F801461C48FEF705F8606026603E8062
:1023200004E03E803888A081C4F80080042148463B
:1023300000F061F9D8B1114C2868383490B1218887
:10234000E981401EE989C0EB00400844A989401A90
:1023500028610E49B1FBF0F0FEF79DF868602E6031
:10236000268004E026802088A881C5F800804846A1
:10237000BDE8F047072100F02FB900000008004039
:1023800068060020800600200050C347A086010098
:1023900070B5224D0121284600F02DF9C0B3204C24
:1023A000207820490A2801D3087828B120780A2803
:1023B0002ED2087818B12BE00120087028E001F037
:1023C00099FD194800681949227841F822001848F7
:1023D00000681849227841F8220017480168174A16
:1023E000207842F82010164800681649227841F8F3
:1023F0002200154800681549227841F82200144847
:1024000000681449227841F822002178491C217083
:102410002846BDE87040012100F0DEB80010004001
:102420002F0000202E00002038000020880400200B
:102430003C000020B004002040000020D804002010
:10244000440000200005002048000020280500204E
:102450004C0000205005002070B5224D0121284677
:1024600000F0C9F8C0B3204C207820490A2801D3D5
:10247000087828B120780A282ED2087818B12BE0E5
:102480000120087028E001F08BFD19480068194907
:10249000227841F82200184800681849227841F84B
:1024A000220017480168174A207842F82010164881
:1024B00000681649227841F822001548006815493D
:1024C000227841F82200144800681449227841F823
:1024D00022002178491C21702846BDE87040012166
:1024E00000F07AB8001400403100002030000020D5
:1024F000500000207805002054000020A005002096
:1025000058000020C80500205C000020F0050020D5
:102510006000002018060020640000204006002013
:102520002DE9F0411D4F0221384600F064F840B318
:102530001B4C1A4E34362068002518B33188E181CF
:10254000401EE189C0EB00400844A189401A206187
:10255000FDF7A1FF01461348FDF7E4FE6060217D11
:10256000114A42F821002560491CC8B22075358007
:102570000A280CD30A21104601F080FEA0602575C0
:10258000656004E035803088A081012020603846F5
:10259000BDE8F041022100F01FB800000034014006
:1025A00098060020001BB749B006002010B5084C63
:1025B0000121204600F01FF820B10649086808B143
:1025C000401C08602046BDE81040012100F004B81E
:1025D0000034014098060020C94301827047002959
:1025E00004D0018841F0010101807047018821F089
:1025F00001010180704702460020138A0B40928936
:102600000A40002B02D0002A00D0012070470000B1
:1026100070B505460C461D48854209D01C488542C8
:1026200006D0B5F1804F03D01A48854200D01A4831
:1026300020886188A288238960B1042813D00828E3
:102640001AD02846FFF7D0FDE1882846BDE8704043
:1026500000F04AB82846FFF713FDE1882846BDE898
:10266000704000F025B82846FFF744FDE188284671
:10267000BDE8704000F024B82846FFF779FDE188F6
:102680002846BDE8704000F027B80000002C01404B
:10269000003401400004004000080040002A03D03C
:1026A00082890A438281704782898A438281704786
:1026B000028B22F00C020283028B0A4302837047D2
:1026C000028B22F440620283028B4FF6FF7303EA0F
:1026D00001210A4302837047828B22F00C0282831D
:1026E000828B0A4382837047828B22F4406282830A
:1026F000828B4FF6FF7303EA01210A4382837047FE
:1027000001461D4A914201D11C487047B1F1804FEA
:1027100004D01B4A914203D11A4870471A487047A7
:102720001A4A914201D188147047194A914201D145
:1027300018487047184A914201D118487047184A02
:10274000914202D1154820307047164A914202D179
:10275000124860307047144A914201D113487047C3
:10276000134A914202D10D48E0307047114A91421C
:10277000FBD1114870470000002C0140C00016003A
:1027800000040040000C1A0000031800000800407C
:10279000000C004001002000004C0140200000809F
:1027A000005001400054014000180040001000801B
:1027B000001C004000200040000200800146B1F1F2
:1027C000804F04D0124A914203D11D2070471C2033
:1027D0007047104A914201D11E2070470E4A914223
:1027E00001D1322070470D4A914201D13620704705
:1027F0000B4A914201D1372070470A4A914201D1D8
:1028000019207047084A9142FBD12C2070470000E4
:102810000004004000080040000C00400010004090
:1028200000140040002C01400034014030B5028803
:102830001B4C1C4DA0420DD0A8420BD0B0F1804FD4
:1028400008D0194B984205D0184B984202D0184B2B
:10285000984203D122F070034A881A43154B9842DC
:1028600006D0154B984203D022F44073CA881A430D
:1028700002808A8882850A880285A0420AD0A842FE
:1028800008D00E4A904205D00D4A904202D00D4A1F
:10289000904201D1097A01860121818230BD000078
:1028A000002C0140003401400004004000080040BA
:1028B000000C0040001000400014004000400140A7
:1028C000004401400048014070B5164D40F22441DB
:1028D000284600F07BF8002823D02888281D00888F
:1028E000114E00213046FEF7FBFD3046FEF782FE1A
:1028F000C0F1400084B24FF4C000FEF7E5FD0A4984
:1029000040206C39086701213046FEF7E9FD002CB4
:1029100007D00649284601F005FC05480168491C16
:10292000016070BD004400406C000240290000209E
:10293000B800002070B5164D40F22441284600F042
:1029400045F8002822D02888281D0088114E002133
:102950003046FEF7C5FD3046FEF74CFEC0F5007070
:1029600084B26020FEF7B0FD0A4968151C39C865BD
:1029700001213046FEF7B4FD002C07D00649284659
:1029800001F072FE05480168491C016070BD00003D
:10299000004800401C000240B0000020B8000020A9
:1029A000002904D0818941F40051818170478189D7
:1029B00021F4005181817047002A03D0828A0A43A2
:1029C00082827047828A8A438282704770B500246F
:1029D00040F66A12C1F3421301F01F05012606FA00
:1029E00005F2012B0CD0022B0DD0838A1340090A6B
:1029F0008E40008830400BB100B10124204670BDEC
:102A000083891340F3E7038A1340F0E710B540F6DB
:102A10006A13C1F3421301F01F040121A140012BED
:102A200007D0022B07D014303AB102680A43026083
:102A300010BD0C30F8E71030F6E702688A430260F8
:102A400010BD000030B585B004460D46208A4CF616
:102A5000FF710840E98801432182A0894EF6F311F5
:102A60000840A9882A8911436A8902431143A18138
:102A7000A08A4FF6FF410840A9890143A182684618
:102A8000FFF72AF81D48844201D1039800E002981C
:102A9000A189090408D500EBC00101EB00102968E9
:102AA0004900B0FBF1F007E000EBC00101EB0010C2
:102AB00029688900B0FBF1F06422B0FBF2F1090152
:102AC0000B096FF018056B4300EB8300A3891D040D
:102AD0004FF0320307D503EBC000B0FBF2F000F07B
:102AE0000700084306E003EB0010B0FBF2F000F033
:102AF0000F000843208105B030BD000000380140C0
:102B000001460D4A914201D10C4870470C4A91424E
:102B100001D10C4870470C4A914202D1094840301B
:102B200070470A4A914201D109487047094A9142C7
:102B3000FBD109487047000000380140D80600204A
:102B400000440040D807002000480040004C0040EE
:102B5000180A002000500040180C002001460D4AC1
:102B6000914201D10C4870470C4A914201D10C4866
:102B700070470C4A914202D10948403070470A4AD6
:102B8000914201D109487047094A9142FBD1094855
:102B90007047000000380140180E0020004400403B
:102BA000180F002000480040004C00405811002041
:102BB0000050004058130020F0B502461C4C1D4B3D
:102BC0001D4D1E4E1E4F802905D0402902D1A24224
:102BD0001AD11C48F0BDA24202D11A486438F0BD97
:102BE0009A4202D117485038F0BDAA4202D1154886
:102BF0003C38F0BDB24202D112482838F0BDBA428A
:102C0000FCD110481438F0BD9A4202D10D4814305E
:102C1000F0BDAA4202D10B482830F0BDB24202D129
:102C200008483C30F0BDBA42FCD106485030F0BDF7
:102C3000003801400044004000480040004C004083
:102C4000005000402401002001460D4A914201D16C
:102C5000801570470B4A914201D1402070470A4BC2
:102C60005A15994201D110467047084B994201D13B
:102C700010467047064B9942FBD110467047000042
:102C8000003801400044004000480040004C004033
:102C90000050004001460D4A914201D18015704715
:102CA0000B4A914201D1402070470A4B5A15994274
:102CB00001D110467047084B994201D11046704728
:102CC000064B9942FBD11046704700000038014086
:102CD0000044004000480040004C004000500040CC
:102CE00001460C4A914201D1252070470A4A91427F
:102CF00001D126207047094A914201D1272070470F
:102D0000074A914201D134207047064A9142FBD1D3
:102D10003520704700380140004400400048004022
:102D2000004C00400050004010B586B0144C022109
:102D30002046FEF757FA002820D004212046FEF74F
:102D4000A3F910492046FEF787F901AA0021204681
:102D5000FEF73AFB0198A0F50070093806D001286B
:102D600008D1094901A800F0D0FB03E0074901A8F8
:102D700000F0CBFB06480168491C016006B010BD9D
:102D800000640040080000321800002020000020ED
:102D9000B4000020FEE730B505460C46002D01D0FA
:102DA000022C01D8002030BDA01EC1B22846FEF77B
:102DB00085FD2919C2B211F8023C9A4206D111F8D8
:102DC000011CB1EB102F01D1012030BD002030BD1E
:102DD00002E008C8121F08C1002AFAD170477047E4
:102DE000002001E001C1121F002AFBD17047000042
:102DF00001490860704700000402002070B501F02E
:102E000041F8174C217A417001F03CF8217B817028
:102E100001F038F8217CC17001F034F8A18A81807A
:102E2000A069FDF738FB0F4D2946FDF749FA064624
:102E300001F028F88660E069FDF72DFB2946FDF7D3
:102E40003FFA064601F01EF8C660206AFDF723FB34
:102E50002946FDF735FA044601F014F8046170BD07
:102E6000380200200AD7233C70B50124064E074DD6
:102E700006EB840105EB4400022200F0D1FA641C49
:102E8000E4B2092CF4D370BD3802002000300308EE
:102E900070B50024064E074D06EB840105EB440097
:102EA000022200F0D5FA641CE4B2092CF4D370BD00
:102EB000380200200030030810B500F00FF8FFF7CB
:102EC0009DFF00F069F900F0ABF900F0E1F8BDE812
:102ED00010400148FEF700BE0802002010B510485F
:102EE0000221016040F6C412426000218160C1608D
:102EF0000161192343618261FA22C26101620222E7
:102F00000849094800F08CFA06480078FF2803D0E9
:102F1000BDE81040FFF7A8BFBDE81040FFF7B8BFFD
:102F200038020020050000200030030810B50A21F7
:102F3000144801F0A3F9144908600A21134801F06C
:102F40009DF9134908600A21124801F097F91249C6
:102F500008600A21114801F091F9114908600A211D
:102F6000104801F08BF9104908600A210F4801F060
:102F700085F90F4908600F49002008700E49087054
:102F800010BD00008804002068000020B00400206C
:102F90006C000020D80400207000002000050020F4
:102FA0007400002028050020780000205005002033
:102FB0007C0000202E0000202F00002010B50A21E8
:102FC000144801F05BF9144908600A21134801F024
:102FD00055F9134908600A21124801F04FF91249C6
:102FE00008600A21114801F049F9114908600A21D5
:102FF000104801F043F9104908600A210F4801F018
:103000003DF90F4908600F49002008700E4908700B
:1030100010BD00007805002080000020A0050020E1
:1030200084000020C805002088000020F005002052
:103030008C00002018060020900000204006002090
:1030400094000020300000203100002008B501F07D
:1030500079FD00900C4C0D4D0221684601F01EFCDC
:10306000207818B1FFF762FF01F0E2FB287818B171
:10307000FFF7A4FF01F0DCFB207829780843EBD1AF
:1030800001F0D6FBE8E700002E0000203000002011
:103090001FB500200649CDE9011005220346009224
:1030A00003904FF4807203A1034801F0D1FC1FBDCF
:1030B0005C020020414443004D30000810B500F090
:1030C000E1FE007E68B1002401281FD0022837D01D
:1030D000632805D1012001F0DDFA00F0D3FE04766B
:1030E00010BD00F0FFFE407A012100F0EDFE38B97E
:1030F00000F0F8FE407A022100F0E6FE0028EFD052
:1031000000F0C0FE017E491C017610BD6421134809
:1031100001F038FA00F0B6FE0121417600F0B2FE6F
:10312000408BB0F5FA7FF0D300F0ACFE44760B484C
:103130001030046000F0A6FE017E491C017610BD2F
:1031400000F0D0FE407A012100F0BEFE0028F6D04B
:1031500000F098FE6321017610BD000080812242BC
:1031600008B501F0EFFC00900A4C002505216846E7
:1031700001F094FB00F08AFE08B9FFF79FFF00F012
:1031800023F8207810B1FFF783FE2570FEF7E0FBEF
:10319000ECE70000080000201FB500200649CDE93B
:1031A000011006220346009203904FF4007203A11F
:1031B000044801F04DFC1FBD68020020494E5055E7
:1031C000540000006131000810B500F0B5FB064C5A
:1031D000606800F0AFF9A06800F0C0F903488168AA
:1031E000491D816010BD0000080000206802002019
:1031F00008B501F0A7FC0090084D32240221684672
:1032000001F04CFB2868B0FBF4F104FB110008B995
:1032100000F01EF82868401C2860EFE7140000202A
:103220001FB500200649CDE9011005220346009292
:1032300003904FF4807203A1044801F009FC1FBD04
:103240009002002053455249414C0000F1310008E2
:10325000014800F085BF00000044004010B5002484
:103260000820FDF7F3FB30B10C20FDF7EFFBC0B2F7
:1032700001F010FA0424204610BD10B501214FF0D2
:10328000C050FEF707FCBDE810400120FEF7DEBB92
:103290000D4B8118994201D90320704712B10123C7
:1032A000002109E0002070470378FF2B01D00220A5
:1032B00070470023401C491C9142F5D3012B01D0DB
:1032C0000120704700207047000004086FF30A00D7
:1032D000704710B54FF44070FEF7A2FBFFF7CDFF2B
:1032E00000F0D0FD00F11404FFF7B8FF2168084397
:1032F000206000F02CF800F006F80121BDE8104035
:103300000820FDF7ADBBFEB5E020FEF7ABFB0120CA
:10331000FEF7A2FB01248DF8084008258DF809501E
:1033200000278DF80A708DF80B4002A8FEF746FBC7
:1033300026043046FEF780F900968DF804708DF86B
:1033400005508DF806406846FEF77CF9FEBD7CB559
:1033500000240420FDF77AFB45F25005A8424FD027
:10336000FDF76AFB0120FEF725FC04E0641CE4B2D3
:103370000A2000F007F94120FEF704FC0028F5D0F0
:10338000FA2C01D301207CBD4FF48070FEF72CFC99
:103390000120FEF723FCFEF7CBFDFEF7D1FD012156
:1033A0000220FEF70DFDFEF7C3FDFEF72DFC002009
:1033B000FEF79EFDFEF7BCFD47F6FF70FEF7A8FD89
:1033C000FEF7B6FD00200224CDE9004040F2E7768A
:1033D0000B23092205213046FEF710FD1421CDE90B
:1033E00000410B23092205213046FDF7A9FAFEF71B
:1033F0009FFDFEF711FC29460420FDF731FB07E095
:10340000FEF79EFD01210220FEF7DAFCFEF790FD9B
:1034100000210320FEF7E2FCFEF706FC00207CBD45
:1034200010B50A4C8318A34201D9012010BD0AB17E
:10343000002306E0012010BD10F8014B01F8014BFC
:103440005B1C9342F8D3002010BD0000000004086C
:103450002DE9F04107468846164604252549B81946
:10346000884202D90120BDE8F0811EB1F00703D0E7
:103470000120F8E70020F6E7324641463846FFF7DC
:1034800007FF044654B1012080F31088FEF76EF95F
:103490003520FEF711F9022C02D00BE00020E2E704
:1034A0003846FFF713FFFEF70DF90546042D01D04E
:1034B0000220D8E700240EE018F8140008EB4401BD
:1034C000497840EA01213846FEF736F90546042DD1
:1034D00004D1BF1C641CB4EB560FEDD3FEF724F9E6
:1034E000002080F31088042D01D00220BBE70020CB
:1034F000B9E700000000040830B5DDE903450160CC
:103500008280C3800481458130BD027BC37A42EA58
:1035100003220A80827B437B42EA03224A80027CA8
:10352000C37B42EA03228A80827C407C42EA0020FC
:10353000C880704710B50749FCF7F4FE0649FCF750
:10354000BFFEFCF7BAFF81B2BDE810400020FDF7D6
:10355000A7BF00003333534000F07F4510B5074943
:10356000FCF7E0FE0649FCF7ABFEFCF7A6FF81B2D4
:10357000BDE810400020FDF79DBF000033335340ED
:1035800000F07F4510B50022044C04E02146491E9E
:103590004B1CFCD1521C8242F8DB10BD40190100CB
:1035A00030B591B001210846FEF766FA484D28462D
:1035B000FDF7A4FF47480190474802900024039478
:1035C0003C210491059480210691490007918800CF
:1035D00008902020099000020A900B9401A9284627
:1035E000FEF70BF801212846FDF77AFF012148027A
:1035F000FEF75EFA00213948FDF789FA00213848C4
:10360000FDF785FA00213748FDF781FA0021364899
:10361000FDF77DFA00213548FDF779FA002134489D
:10362000FDF775FA0C9401208DF834008DF8350003
:103630004FF460200E900F9406208DF84000254C2A
:103640000CA94C3C2046FDF707F90723012206216F
:103650002046FDF725F90723022219462046FDF7EB
:103660001FF90723032208212046FDF719F9072334
:10367000042209212046FDF713F9072305220E2114
:103680002046FDF70DF9072306220F212046FDF7FE
:1036900007F901212046FDF7C5F801212046FDF775
:1036A000B5F82046FDF736F92046FDF7CEF800289C
:1036B000FAD12046FDF73FF92046FDF7BFF8002874
:1036C000FAD101212046FDF72AF911B030BD0000E2
:1036D000080002404C240140E8020020F44E00089B
:1036E000FC4E00080C4F0008144F0008844F0008DF
:1036F0008C4F000830B591B001210220FEF7BCF9D3
:10370000484D2846FDF7FAFE474801904748029089
:10371000002403943C2104910594802106914900E2
:103720000791880008902020099000020A900B94CD
:1037300001A92846FDF761FF01212846FDF7D0FECB
:103740000121C803FEF7B4F900213948FDF7DFF97C
:1037500000213848FDF7DBF900213748FDF7D7F99C
:1037600000213648FDF7D3F900213548FDF7CFF9A0
:1037700000213448FDF7CBF90C9401208DF834007A
:103780008DF835004FF460200E900F9406208DF8D0
:103790004000254C0CA94C3C2046FDF75DF8072362
:1037A000012200212046FDF77BF807230222012198
:1037B0002046FDF775F8072303220A212046FDF76E
:1037C0006FF8072304220B212046FDF769F8072331
:1037D00005220C212046FDF763F8072306220D2160
:1037E0002046FDF75DF801212046FDF71BF8012179
:1037F0002046FDF70BF82046FDF78CF82046FDF734
:1038000024F80028FAD12046FDF795F82046FDF768
:1038100015F80028FAD101212046FDF780F811B0F3
:1038200030BD0000580402404C3C014060030020C1
:10383000C44E0008CC4E0008644F00086C4F0008CE
:10384000744F00087C4F000808B500210091032345
:10385000632240F60F61FDF751FA08BD70B586B0DE
:1038600001210846FEF724F9134D2846FEF748FFCC
:10387000FEF71AF800240620CDE902400F484FF663
:10388000FF76A0F108030090019440F2CF22314668
:1038900004942846FDF782F90520CDE90240074B44
:1038A0000194049408332F22314605480094FDF713
:1038B00075F906B070BD000000080040A0000020AF
:1038C0000034014000B51A49002801D000200870DA
:1038D000087808B1002000BD01200870154B991D23
:1038E000184600F051F808B1012000BDD91D581C40
:1038F00000F04AF808B1022000BD0E49981C0831BA
:1039000000F042F808B1032000BD0A49D81C093173
:1039100000F03AF808B1042000BD0649181D0A312C
:1039200000F032F808B1052000BD002000BD000005
:1039300028000020B402002070B5104D0421284654
:10394000FDF7B5FF0E4C207002212846FDF7AFFFB2
:10395000E07020210B48FDF7AAFF6070082128467F
:10396000FDF7A5FFA07001212846FDF7A0FF2071FB
:103970000120FFF7A7FFE07270BD000000180140B2
:10398000B402002000080140024600201278002AFC
:1039900002D0012A06D103E00A78521C0A7001E025
:1039A00000220A7009780A2900D901207047000016
:1039B0002DE9FC470646DDE90A950C9C0F4690462A
:1039C00018461021FDF7A3F8CDE900544B464246B6
:1039D00039463046FDF790FA80213046FFF7ECF883
:1039E000FDF74AFA40213046FFF7E6F8FDF744FAC2
:1039F000024901200860BDE8FC870000BC8122422A
:103A00003EB505460C4601210846FEF751F818213F
:103A10000B48FDF77CF848210A48FDF778F80121AA
:103A20004FF4EA10FDF712FFCDE901540220009097
:103A30000723082200210448FDF71CF83EBD0000C2
:103A40002C4F0008244F0008006400401FB50121DE
:103A50004807FEF71FF800210A48FDF758F8002034
:103A60000090019002900220039069460020FDF72B
:103A700003FD01210020FDF7EFFC00210846FDF7C2
:103A80000FFD1FBDE44E00081FB501214807FEF7DA
:103A900001F800210A48FDF73AF800200090019053
:103AA00002900220039069461020FDF7E5FC0121F9
:103AB0001020FDF7D1FC00210846FDF7FBFC1FBDDF
:103AC000EC4E00087CB50546DDE90640CDE9004036
:103AD0002846FDF711FA80212846FFF76DF8FDF71B
:103AE000CBF940212846FFF767F8BDE87C40FDF799
:103AF000C3B970B505460C4645F25550FDF73EFF7B
:103B00002846FDF72FFF2046FDF732FFFDF722FF85
:103B1000BDE87040FDF714BF2DE9FE4300F074F8D6
:103B200000F0B0F9007D400701D400F05BF90024FB
:103B3000082341F61F4240F2E731D8060094FDF712
:103B4000DDF8FFF72DFDFFF7D5FD2448FFF77CFEDC
:103B50002348FFF779FEFFF779FFFFF795FFFFF79F
:103B60007DFE00210220FFF74BFF40F27D5540F61D
:103B70001D07CDE9007540F22A3840F27F764346B2
:103B8000324640F20A211748FFF7B6FC2B46424660
:103B900040F209211448CDE90067FFF7ADFC04208D
:103BA000CDE900044FF4E133104A11491148FFF701
:103BB00089FF0320CDE901044FF4165100910E4B0B
:103BC0000E4A0F490F48FFF7F3FE03B040F2712190
:103BD000BDE8F0430420FFF78CBF00000010004058
:103BE000001400409C020020A8020020DC4E0008C7
:103BF000D44E000800440040145000083C4F000818
:103C0000344F00080048004010B510214E48FCF722
:103C10007EFF04214D48FCF77AFF10214C48FCF749
:103C200076FF04214B48FCF772FF04214A48FCF759
:103C30006EFF04214948FCF76AFF04214848FCF75D
:103C400066FF04214748FCF762FF10214648FCF755
:103C50005EFF10214548FCF75AFF10214448FCF74D
:103C600056FF10214348FCF752FF10214248FCF751
:103C70004EFF10214148FCF74AFF10214048FCF755
:103C800046FF10213F48FCF742FF10213E48FCF759
:103C90003EFF10213D48FCF73AFF10213C48FCF75D
:103CA00036FF10213B48FCF732FF10213A48FCF761
:103CB0002EFF10213948FCF72AFF10213848FCF765
:103CC00026FF10213748FCF722FF04213648FCF775
:103CD0001EFF04213548FCF71AFF04213448FCF785
:103CE00016FF04213348FCF712FF04213248FCF789
:103CF0000EFF04213148FCF70AFF04213048FCF78D
:103D000006FF04212F48FCF702FF04212E48FCF790
:103D1000FEFE04212D48FCF7FAFE04212C48FCF796
:103D2000F6FE04212B48FCF7F2FE04212A48FCF79A
:103D3000EEFE04212948FCF7EAFEBDE8104004210C
:103D40002748FCF7E4BE0000044F00082C4F000891
:103D5000444F00084C4F0008544F00085C4F0008C7
:103D60007C5000089C4F00081C4F0008244F00089E
:103D7000A44F0008AC4F0008B44F0008C44F00081F
:103D8000CC4F0008BC4F0008D44F0008DC4F00089F
:103D9000E44F0008EC4F0008F44F0008FC4F000807
:103DA000045000080C5000081C5000082450000863
:103DB0002C500008345000083C50000844500008C3
:103DC0004C500008545000085C5000086450000833
:103DD0006C50000874500008845000088C50000893
:103DE0009450000810B5104C0120E0602062206063
:103DF000A0626420FFF7C6FB0020A0620B48D0F849
:103E0000280128B100F03EF8416941F0010141610B
:103E100007480068002805D000F034F8416941F0F7
:103E20000201416110BD0000908122420000234246
:103E30002481214210B5002821D0114B0022001FFF
:103E4000196803E0814203D80A4649680029F9D17C
:103E500052B11368841A9C4204D10068184410605F
:103E6000104602E0506000E0186039B102680B1A99
:103E7000934203D10B681A4402604968416010BD47
:103E8000FC0100200048704774020020014840787F
:103E90007047000008000020004870470400002020
:103EA00010B504462046FCF708FBFCF7F4FA21465F
:103EB000FCF703FA0349FCF703FAFCF7FEFAC0B279
:103EC00010BD00000000C84270B504460D462846EB
:103ED000FCF7E6FA00F0E4FBFCF703FB2C4024FAC5
:103EE00000F070BD004870471C0200200048704779
:103EF00028020020F0B587B0002600251F4F0024BF
:103F000004EB440007EB800030F81500FCF7C3FA1F
:103F10003146FCF77DF90646641CE4B20A2CEFD367
:103F200017493046FCF7CCF901A941F825000026D5
:103F30006D1CEDB2062DE2D312490198FCF7C0F9D1
:103F4000114C606011490298FCF7BAF9A060104961
:103F50000398FCF7B5F9E0600E490498FCF7B0F956
:103F600020610D490598FCF7ABF960610B49069893
:103F7000FCF7A6F9A06107B0F0BD0000E802002040
:103F8000CDCCCC3D6109963D34000020810C483EEB
:103F9000FDD22F41010A203BC5491C416740533ADD
:103FA000F0B587B000260025214F002404EB440023
:103FB00007EB800030F81500FCF76DFA3146FCF78E
:103FC00027F90646641C0A2CF0DB3046FCF7A2FAFF
:103FD000184A194BFCF7E4F9FCF7AFFA01A941F8CC
:103FE000250000266D1C062DDFDB14490198FCF727
:103FF00067F9134CE06113490298FCF761F92062FC
:1040000011490398FCF75CF96062104D0498294649
:10401000FCF756F9A06229460598FCF751F9E062D1
:1040200029460698FCF74CF9206307B0F0BD000064
:10403000600300209A9999999999B93F010FF03C32
:10404000340000203989133E365C43406740533AC0
:104050002DE9F0410546E878012854D0022857D0D0
:1040600003284ED1042400202C4E2146641C695C98
:10407000E4B23154401CC0B20228F6D3FFF736FF39
:104080003188018000202146641C695CE4B231540F
:10409000401CC0B20228F6D33088FCF7FCF9204F50
:1040A0003946FCF70DF98046FFF720FFC0F8048081
:1040B00000202146641C695CE4B23154401CC0B24B
:1040C0000228F6D33088FCF7E6F93946FCF7F8F811
:1040D0008046FFF70BFFC0F8088000202146641CD3
:1040E000695CE4B23154401CC0B20228F6D3308877
:1040F000FCF7D1F93946FCF7E3F80446FFF7F6FE82
:10410000C460BDE8F081FFF7EDFE29794172F8E760
:10411000FFF7C2FE29790170F3E7000002000020DA
:104120000AD7233C10B5FEF7EBFC04462078C528DF
:1041300015D16078642812D1A178201F085CA928C5
:104140000DD1E01E085CD42809D12046FEF723FEDD
:10415000002804D02046BDE81040FFF779BF10BD0D
:1041600070B506463046FEF7F9FC0446AD202070D7
:10417000B52060700020A070FFF7B4FE0068FCF767
:104180009CF9E070FFF7AEFE0068FFF789FE052599
:104190002071FFF7A7FE4068FCF78FF914490880EB
:1041A00000202A460B5C6D1CEDB2A354401CC0B22B
:1041B0000228F6D3FFF796FE027A681CC1B2625558
:1041C0000D22481CC0B26254AA21421C2154921CE8
:1041D000D1B2A1702046FCF71DFC80213046FEF7CD
:1041E000EBFCA2782146BDE87040FCF717BF000049
:1041F0000000002010B5002080F31088FFF769F858
:10420000FFF78AFCFEF758FE00F08AFB002010BD85
:10421000F0B50B30154D20F007010024144A0FE0D3
:1042200003688B420BD38B4205D95E1A431847684B
:10423000C3E9006700E04368136002C004E0021DA8
:1042400010680028ECD12046002802D1286808B167
:104250000020F0BD064A07481060074A121A22F0F3
:104260000702C0E9002401202860D7E700020020EF
:10427000FC0100206C7A0020687C00202DE9F05FB2
:10428000054688464FF000094FEA8800FFF7C0FF57
:104290000446002005E055F8201044F82010401C8A
:1042A000C0B24045F7D30027A8F1010A1AE0002563
:1042B000A8EB070BABF1010B10E06E1C54F82500C6
:1042C00054F82610FCF756F907D254F8250054F894
:1042D000261044F8251044F82600F5B2AB45ECDC76
:1042E0007F1CFFB25745E2DB012507E054F825109B
:1042F0004846FBF78DFF81466D1CEDB25545F5DB59
:10430000A8F10200FCF7BEF801464846FCF70AF89F
:1043100005462046FFF78EFD2846BDE8F09F0000C9
:1043200070B504460B4D28684460E868844206D2A4
:104330002968686B091DBDE8704000F0F7B929686D
:10434000286B091D00F0F2F9A86A844200D2AC6221
:1043500070BD0000A001002070B5002908D00D46F6
:104360007DB14C2000F018F9044634B1256309E012
:10437000800000F011F90546F2E7284600F02AFA1D
:1043800000E00024204670BD70B5124E124D1CE0B6
:1043900000F0F0FA306820B1002400F03BFCA4B932
:1043A00001E00124F9E700F0E5F9F068C468201D98
:1043B00000F09CF9A868401EA8606868401E68600C
:1043C00000F0F4F9204600F009F868680028DFD111
:1043D00070BD000040160020A001002010B504466A
:1043E000206B00F0F7F92046BDE8104000F0F2B96C
:1043F0004FF4C8410F48420706D0C01D20F0070007
:104400000C49411AC1F5C8410B4A106000235360A2
:104410000144083921F00701103A11604B600B602C
:104420000B1A436001604068906050604FF000409C
:10443000D060704768160020F4010020044CFFF79C
:10444000A3FF20680128FAD900F0F2F9F7E700008D
:104450006415002070B504461546002023180A5C38
:1044600083F834200A5C12B1401C1028F6D30026D1
:1044700084F84360082D00D30725E562201D00F075
:1044800052F904F1180000F04EF92461C5F108005A
:10449000A0616462666484F8486070BD70B50024F1
:1044A000124D04EB840005EB800000F031F9641C30
:1044B000082CF6D30D48A03000F02AF90B48B43090
:1044C00000F026F90948C83000F022F90748DC302E
:1044D00000F01EF90548F03000F01AF903490448CD
:1044E000A03101631431416370BD000064150020E8
:1044F000A001002030B5134900E011460A6882424D
:10450000FBD34B685C18844203D140681844486070
:1045100008460D6844682318AB420DD1094B103B87
:104520001B689A4206D05268224442600A681268A8
:10453000026002E0036000E00260814200D0086097
:1045400030BD0000F40100200748016B0968002914
:1045500005D0016BC968C9684968816270474FF02E
:10456000FF31816270470000A001002004484068CC
:10457000401C02D0FBF72CFEFEE7FBF729FEFEE70E
:10458000D801002010B5044601202060084600F044
:104590005BF90020206010BD2DE9F04105460026A2
:1045A00000F0E8F9294F386808B9FFF721FFF868EB
:1045B000054240D165B10835680709D005F007000C
:1045C000C0F108000544680702D0FBF701FEFEE7D2
:1045D0008DB3786885422ED81C491031084604688E
:1045E00001E0214604466068A84202D22068002803
:1045F000F7D1386884421ED00E68083620680860FB
:104600006068411B102909D96019420702D0FBF7E5
:10461000DFFDFEE741606560FFF76CFF6168786869
:10462000401A7860BA68904200D2B860F8680143D6
:1046300061600020206000F0EDFA700702D0FBF707
:10464000C7FDFEE73046BDE8F0810000E401002030
:1046500020384FF08073C36181610249416140F8A5
:10466000202970476D45000810B50C46FEF748FA42
:10467000017821290DD1417833290AD1C178112936
:1046800007D1002281180979A154521CD2B2042A00
:10469000F8D310BD014948707047000008000020A1
:1046A0002DE9F04106460F46FCF712F8041E0D46B0
:1046B00018BF0120284320F00040C0F17F6000F1C6
:1046C000E040C00F0ED0301C18BF0120384320F04E
:1046D0000040C0F17F6000F1E040C00F04BF012046
:1046E000FEF786FB20462946BDE8F0810169D0E946
:1046F00001329A60D0E901235A604A68824201D1AE
:1047000082684A60002202610868401E08607047A3
:1047100000F1080141604FF0FF328260C160016129
:1047200000210160704700210161704730B50C68BD
:10473000621C02D000F1080202E0026904E01A469D
:1047400053681D68A542FAD953684B6099608A6026
:10475000516008610168491C016030BD42684A60CF
:1047600093688B6093685960916008610168491C87
:104770000160704710B5FBF72BFD0A484168491CE2
:104780004160BFF34F8FBFF36F8F4068012807D19F
:104790000548006810F0FF0F02D0FBF719FDFEE797
:1047A00010BD0000D801002004ED00E010B508495C
:1047B0004868002807D0401E4860002806D1BDE8A0
:1047C0001040FBF70CBDFBF703FDFEE710BD00003A
:1047D000D801002070B500281DD0083804460E4DC1
:1047E0006068E968084202D1FBF7F2FCFEE7226844
:1047F00012B1FBF7EDFCFEE78843606000F0BAF809
:1048000060686968084468602046FFF773FEBDE889
:10481000704000F0FFB970BDE40100204FF0E020CF
:104820000249416107210161704700003F19010001
:1048300004494FF080500860BFF34F8FBFF36F8F74
:104840007047000004ED00E070B502460020002A29
:104850001BD0114CE06A10B1FBF7BAFCFEE700F088
:1048600089F8E06885182068001DFFF73FFF38B918
:10487000206890F82C100120884021698143216133
:104880002846FFF74DFD00F0C5F9002803D1BDE82B
:104890007040FFF7CDBF70BDA001002070B5054688
:1048A0000C460022002D06D044B11C4EF06A40B1E7
:1048B000FBF78EFCFEE7FBF78BFCFEE7FBF788FCC3
:1048C000FEE700F057F8F0682B681C44834205D9D6
:1048D000A34208D9844206D9012204E0A34201D8A8
:1048E000844200D901222C607AB13068001DFFF7A4
:1048F000FDFE38B9306890F82C10012088403169ED
:10490000814331612046FFF70BFD00F083F9002859
:1049100003D1BDE87040FFF78BBF70BDA001002040
:104920001FB50024009401940294234680220DA117
:104930000E48039400F08CF8012804D000280FD111
:10494000FBF746FCFEE7FBF743FC09484FF0FF315D
:10495000816201214161C460BDE81F4000F03EB8A2
:104960001FBD000049444C45000000003D440008C4
:10497000A00100200248C16A491CC16270470000C2
:10498000A001002010B5134AD06A002802D00120EF
:10499000D06110BD0020D0611069B0FA80F0C0F184
:1049A0001F000D4900EB800051F8203073B101EB7E
:1049B000800041684968416000F10803994201D1D3
:1049C000496841604068C068106010BDFBF700FC9A
:1049D000FEE70000A0010020641500201CB5194965
:1049E00008780190FF200870087800909DF800007A
:1049F000154A00F0100010700720906006E09068E3
:104A0000401E90609DF80000400000909DF800005E
:104A10000006F4D4107A000200F4E060906001987F
:104A200008700A48016841F470010160016841F0B2
:104A300070410160FFF7F2FE00205060FBF796FB2B
:104A400000201CBD00E400E0D801002020ED00E0C3
:104A50002DE9FF4F81B08246DDE90E59109990464D
:104A60009B46BAF1000F04D0082D05D3FBF7B0FB2D
:104A7000FEE7FBF7ADFBFEE74046FFF76DFC0446A3
:104A80002E4F7CB3216BA8F1010001EB800020F0D8
:104A90000706700702D0FBF79BFBFEE7CDF800800E
:104AA0002A462046119B0299FFF7D4FC5A465146EC
:104AB0003046FFF7CDFD2060B9F1000F01D0C9F8F5
:104AC0000040FFF757FEB868401CB860386810B166
:104AD000786940B10CE03C60B868012808D1FFF764
:104AE000DDFC05E019E03868C06AA84200D83C60E7
:104AF000786A401C7862E06A01213A69814011437A
:104B0000396100EB80010E4800EB8100211DFFF7A9
:104B100025FE0124FFF74AFE01E04FF0FF34012C8F
:104B200007D1786928B13868C06AA84201D2FFF776
:104B30007FFE05B02046BDE8F08F0000A0010020F8
:104B4000641500200148C06870470000A0010020E3
:104B50002DE9F04100252D4FF86A002808D0B869EA
:104B6000401CB861F86900B101252846BDE8F08114
:104B7000F868401CF860FE6876B9386B006810B1C0
:104B8000FBF726FBFEE7386B796B39637863386A8D
:104B9000401C3862FFF7D8FCB86ADFF874808642A0
:104BA0000DD3386B006838B1386BC068C468606872
:104BB00086420ED2B86202E04FF0FF30B862386829
:104BC000C06A00EB800058F820000128CAD90125EE
:104BD000C8E7201DFFF78AFDA06A18B104F118008C
:104BE000FFF784FDE06A01213A6981401143396190
:104BF00000EB800008EB8000211DFFF7AFFDE06AAD
:104C00003968C96A8842CCD30125CAE7A0010020CF
:104C1000641500202DE9F0410027284DE86A00289E
:104C200007D0FFF7A7FDE86A401EE862E86A18B1FE
:104C30003EE0FBF7CDFAFEE7A868C8B3DFF8808056
:104C400001261EE0D8F80C00C46804F11800FFF734
:104C50004DFD201DFFF74AFDE06A2A6906FA00F1C2
:104C600011432961164900EB8000C83901EB80002F
:104C7000211DFFF773FDE06A2968C96A884200D3E5
:104C8000EE61D8F800000028DCD1A86938B909E045
:104C9000FFF75EFF00B1EE61A869401EA861A86938
:104CA0000028F5D1E869012802D10127FFF7C0FDEE
:104CB000FFF77CFD3846BDE8F0810000A001002030
:104CC0002C16002000C1814001C0804101C08041FC
:104CD00000C1814001C0804100C1814000C18140CC
:104CE00001C0804101C0804100C1814000C18140BC
:104CF00001C0804100C1814001C0804101C08041AC
:104D000000C1814001C0804100C1814000C181409B
:104D100001C0804100C1814001C0804101C080418B
:104D200000C1814000C1814001C0804101C080417B
:104D300000C1814001C0804100C1814000C181406B
:104D400001C0804101C0804100C1814000C181405B
:104D500001C0804100C1814001C0804101C080414B
:104D600000C1814000C1814001C0804101C080413B
:104D700000C1814001C0804100C1814000C181402B
:104D800001C0804100C1814001C0804101C080411B
:104D900000C1814001C0804100C1814000C181400B
:104DA00001C0804101C0804100C1814000C18140FB
:104DB00001C0804100C1814001C0804101C08041EB
:104DC00000C1814000C0C101C30302C2C60607C7BB
:104DD00005C5C404CC0C0DCD0FCFCE0E0ACACB0B2B
:104DE000C90908C8D81819D91BDBDA1A1EDEDF1F5B
:104DF000DD1D1CDC14D4D515D71716D6D21213D34B
:104E000011D1D010F03031F133F3F23236F6F737FA
:104E1000F53534F43CFCFD3DFF3F3EFEFA3A3BFBEA
:104E200039F9F83828E8E929EB2B2AEAEE2E2FEF9A
:104E30002DEDEC2CE42425E527E7E62622E2E3230A
:104E4000E12120E0A06061A163A3A26266A6A7673A
:104E5000A56564A46CACAD6DAF6F6EAEAA6A6BABAA
:104E600069A9A86878B8B979BB7B7ABABE7E7FBFDA
:104E70007DBDBC7CB47475B577B7B67672B2B373CA
:104E8000B17170B05090915193535292965657977A
:104E9000559594549C5C5D9D5F9F9E5E5A9A9B5B6A
:104EA00099595898884849894B8B8A4A4E8E8F4F1A
:104EB0008D4D4C8C4484854587474686824243838A
:104EC00041818040000801400100000000080140CD
:104ED000020000000008014004000000000801403A
:104EE0000800000000080140100000000008014018
:104EF00020000000000801404000000000080140C0
:104F0000800000000008014000010000000C01408A
:104F100001000000000C014002000000000C0140F4
:104F200020000000000C014000010000000C0140C6
:104F300000020000000C014000040000000C0140D1
:104F400000080000000C014000100000000C0140AF
:104F500000200000000C014000400000000C014057
:104F6000008000000010014001000000001001401E
:104F70000200000000100140040000000010014089
:104F80000800000000100140100000000010014067
:104F9000200000000010014040000000001001400F
:104FA00080000000001401400100000000140140D6
:104FB000020000000014014008000000001401403D
:104FC0001000000000140140200000000014014007
:104FD0004000000000140140800000000014014067
:104FE0000001000000140140000200000014014014
:104FF00000040000001401400008000000140140FB
:1050000000100000001401400020000000140140C6
:105010000040000000140140008000000018014022
:1050200001000000001801400200000000180140CB
:1050300004000000001801400800000000180140B2
:10504000100000000018014020000000001801407E
:1050500040000000001801408000000000180140DE
:10506000000100000018014000020000001801408B
:105070000004000000180140000800000018014072
:10508000001000000018014000200000001801403E
:1050900000400000001801400080000000030306EB
:1050A00001040602050003051F1C1F1E1F1E1F1FF3
:1050B0001E1F1E1FD4500008000000200802000020
:1050C000B607000854510008080200206082000062
:1050D000E02D0008019813FC4F3308024B045008E0
:1050E0005A94100114124413024014380140322023
:1050F00062402A80143A440E3947412A1C1412484F
:105100006A402732011B5804142A4C0F1B02102737
:105110007A10646A504A49296A5864694F19147AA6
:105120006C64595219145A3064792729146964122D
:10513000021A10142B100279E964113D02040608CA
:105140006D2C02030404053E060708091AAA010192
:045150002800000033
:0400000508000131BD
:00000001FF
