:020000040800F2
:10000000A8850020ED010008611A00089D1900086C
:100010005F1A00088D100008413100080000000040
:10002000000000000000000000000000490100087E
:100030006D160008000000008D010008C1200008B6
:1000400007020008DD1A0008070200083D1E00082C
:10005000070200080702000807020008070200085C
:100060000702000807020008D91600080702000866
:10007000070200080702000807020008070200083C
:10008000070200080702000807020008070200082C
:10009000D530000807020008070200080702000820
:1000A000070200080702000807020008070200080C
:1000B00039230008070200087D2400080702000811
:1000C00007020008070200080702000807020008EC
:1000D0000702000807020008752C0008E12C000840
:1000E000711600080702000807020008070200084E
:1000F000112A0008070200088129000807020008E9
:10010000070200080702000801260008070200088D
:100110000702000807020008E9270008B5280008C0
:10012000070200080702000807020008070200088B
:10013000DFF810D000F034FB00480047B15400084D
:10014000AFF30080A8850020204B19680868B0E84C
:10015000F00F80F30988BFF36F8F4FF0000080F33A
:1001600011884EF00D0E7047000000000648006830
:10017000006880F3088862B661B6BFF34F8FBFF3A3
:100180006F8F00DF00BF00BF08ED00E0EFF30980D4
:10019000BFF36F8F0D4B1A6820E9F00F106008B5A0
:1001A0004FF0100080F3118805F06EFF4FF0000053
:1001B00080F31188BDE8084019680868B0E8F00FBE
:1001C00080F30988BFF36F8F704700BF9C01002048
:1001D000EFF311804FF0100181F31188704780F325
:1001E00011887047EFF3058070470000064880478C
:1001F00006480047FEE7FEE7FEE7FEE7FEE7FEE70C
:10020000FEE7FEE7FEE7FEE7E52000083101000813
:10021000F0B480EA0102D40F4200B2EB410F02D2E7
:100220000246084611464A0042D0C30DDDB2C1F372
:10023000C752AD1A202D35DAC1F3160141F4000280
:1002400004B15242C5F1200602FA06F12A411044D7
:10025000B3EBD05F23D0C4B1012DA0EBC35009DCB8
:10026000F0BC4FF0004202EAC352DBB200F50000DE
:1002700000F0B9B9400000F1807000EBC350A0F16C
:10028000807040EAD170490009E0490841EAC07134
:10029000A0EBC35000F50000400800EBC350F0BCD9
:1002A00000F098B96142012202EB4101001BF6E720
:1002B000F0BC704781F00041AAE780F00040A7E75A
:1002C00080EA010210B502F00043400022D04A004B
:1002D0001FD0010E01EB1261C0F35600C2F35602AB
:1002E00040F4000042F40002A0FB022000047F3929
:1002F000140400D0401C50EA124001D44000491EB2
:10030000C2B20C0604EBD010401C4008802A02D078
:1003100003E0002010BD20F00100002900DA0020D9
:10032000184310BD30B480EA010202F0004530F0FD
:10033000004221F0004013D090B1C30DD40DC2F3A0
:100340001601C0F31600E41A41F4000140F4000263
:100350007D34914201D3641C00E04900002C02DA94
:1003600030BC002070474FF400000023914201D3BD
:10037000891A034340084FEA4101F7D151B1914234
:1003800002D14FF0004105E002D24FF0010101E03F
:100390006FF0010103EBC450284430BC00F01AB9DF
:1003A000420005D0C0F3C7525242914201DC002006
:1003B000704700EBC15070472DE9FE4F81EA0304FE
:1003C00004F0004421F0004100944FF0000B23F0B2
:1003D000004350EA01045ED052EA03045BD0C3F349
:1003E0000A54C1F30A552C44A4F2F3340194A0FB3F
:1003F0000254C1F3130141F48011C3F3130343F416
:10040000801301FB024400FB034E840A970A44EA6E
:10041000815447EA8357A4FB076802958D0A05FBC0
:1004200007854FEA932C04FB0C542705029D4FEAE5
:10043000065847EA1637B5EB08056EEB070C870E32
:10044000920E47EA811742EA8312A7FB0201B6EB3C
:100450000B0164EB00042B0D43EA0C335E1844EBF4
:100460001C50DA465146E7FB0201C5F313044FEA7C
:100470000B3343EA14534FEA0432019C43EA060368
:10048000A4F10C040294009CCDE900B400F0E8F85B
:1004900003B0BDE8F08F00200146F9E7C10F80EA04
:1004A000E0700844CA079623002100F09CB8962308
:1004B0000022114600F097B80EB540F23341029188
:1004C0000021CDE900110A460B4600F0C9F803B03F
:1004D00000BD20F00040C10DC0F3160040F4000044
:1004E0007F2901DA00207047962903DCC1F19601CB
:1004F000C8407047963988407047C1F30A5210B51A
:10050000C1F3130140F2FF3341F480119A4201DA42
:10051000002010BD40F233439A42A2F2334203DC82
:10052000524200F047F810BD904010BD00F000426C
:1005300030F000400AD0C10D01F56071C0F3160023
:1005400042EA0151C20840071143704700200146AA
:10055000704701F0004330B421F0004150EA01023D
:1005600006D00A0DA2F56072C1F31301002A02DC65
:1005700030BC00207047440F44EAC104C100E018B9
:1005800030BC00EBC25000F025B80000002801DBB1
:10059000C0F10040002901DBC1F1004181427047F8
:1005A000002801DBC0F10040002901DBC1F100415E
:1005B00088427047202A04DB203A21FA02F0002109
:1005C000704721FA02F3D040C2F120029140084363
:1005D000194670470029A8BF7047401C490008BF52
:1005E00020F00100704710B4B0FA80FC00FA0CF063
:1005F00050EA010404BF10BC704749B1CCF120049B
:1006000021FA04F411FA0CF118BF01212143084327
:10061000A3EB0C01CB1D4FEA00614FEA102042BF53
:10062000002010BC704700EBC35010440029A4BF49
:1006300010BC7047401C490008BF20F0010010BCEE
:10064000704710B5141E73F1000408DA401C41F124
:10065000000192185B411A4301D120F0010010BD46
:100660002DE9F04D92469B4611B1B1FA81F202E0BC
:10067000B0FA80F22032904600F0A4F804460F460B
:1006800040EA0A0041EA0B0153465A46084313D098
:10069000114653EA010019D0C8F140025046FFF755
:1006A00089FF05460E4650465946424600F08AF8F4
:1006B000084305D0012004E020463946BDE8F08D0E
:1006C0000020054346EAE0762C4337430A98630549
:1006D000E40AA0EB08000022FD0A44EA47540A306D
:1006E00002D500200146E9E7010510196941DDE95D
:1006F000084500196941BDE8F04DA2E72DE9F04D2C
:1007000000231A461B1A8A4103DB00200146BDE87C
:10071000F08DC1F30A52C1F3130141F480154FF07B
:10072000000BD10702D100186D41521E002704466C
:1007300040F2FF11384601EB620A3E46804602460F
:1007400000204FF48011FFF735FFC2197141BB182B
:1007500046EB0100B4EB030C75EB000C04D3E41A78
:1007600065EB000517460E46241908F101006D419E
:1007700080463428E3DDF91946EB0600091BA84141
:1007800003D24FF0FF32134601E0002213461BEB69
:10079000070046EB0A51BDE8F04DFFF752BF0000DD
:1007A000064C074D06E0E06840F0010394E80700BE
:1007B00098471034AC42F6D3FFF7BEFC9C680008A3
:1007C000BC680008202A04DB203A00FA02F100206D
:1007D00070479140C2F1200320FA03F3194390407F
:1007E000704770B58C1810F8015B15F0070301D144
:1007F00010F8013B2A1106D110F8012B03E010F884
:10080000016B01F8016B5B1EF9D12B0705D40023A6
:10081000521E0DD401F8013BFAE710F8013BCB1A48
:10082000921C03E013F8015B01F8015B521EF9D53D
:10083000A142D8D3002070BD002904D0816841F0C6
:10084000010181607047816821F00101816070477A
:10085000002904D0816841F480718160704781680B
:1008600021F4807181607047014600208968490742
:1008700000D501207047014600208968090700D58E
:100880000120704710B542680E4B1A400C790B6876
:1008900042EA04221343436082680B4B1A40D1E9B9
:1008A000024323434C7942EA440213438360C26A01
:1008B00022F47002097C491EC9B242EA0151C162A8
:1008C00010BD0000FFFEF0FFFDF7F1FF70B5072639
:1008D00009290AD9C568A1F10A0404EB4404A64019
:1008E000B543A3401D43C56007E0056901EB410422
:1008F000A640B543A3401D4305611F23072A09D223
:10090000446B521E02EB820293409C4391400C4385
:10091000446370BD0D2A09D2046BD21F02EB820220
:1009200093409C4391400C43046370BDC46A0D3AEC
:1009300002EB820293409C4391400C43C46270BD21
:10094000816841F0080181607047002904D0816806
:1009500041F4A00181607047816821F4A0018160A9
:100960007047816841F00401816070472DE9F05FB4
:100970000646DDF828A0894690460024A6F2B2700B
:10098000822802D30120BDE8F09F40F2B275284FC3
:10099000DFF8A0B008E0284601F04AF808B13C446E
:1009A00000E05C446D1CADB2B542F4D3A9F101097D
:1009B00009F0FF070025DFF88090DFF880B00FE036
:1009C00019F8050040F2A321484304EBC014304657
:1009D00001F02EF810B1012D00D15C446D1CADB2B8
:1009E000BD42EDD3A8F1010840F2A32008FB00F8B6
:1009F00004EBC810C3EB4311C1EB032100EB011062
:100A0000CAEB0A1100EB81000B99441801214FF049
:100A1000C05001F099F8012001F072F801F04EF990
:100A2000204601F0AFFA01F0DDFA0020ABE700004C
:100A30000085E2018033E1019068000880510100E7
:100A400030B505460C46002D0BD0022C09D9A01E4E
:100A5000C1B2284600F086FF291901F8020D000AEC
:100A6000487030BD10B5012001F08AF8BDE8104093
:100A7000002001F085B8000008B503490844009043
:100A80000098008808BD0000006C004008B5034ACB
:100A9000104400900098016008BD0000006C004008
:100AA0002DE9F04788B00746DDE910A8DDF8489049
:100AB0000E4614461D460121480601F045F88DF802
:100AC00018408DF819508DF81760ADF814A0002467
:100AD0008DF81A4001258DF81B5007948DF81640AB
:100AE00005A9384600F00AFC8DF80A408DF80B4045
:100AF0008DF80C50ADF80040ADF80240ADF8044060
:100B0000ADF80640ADF808408DF80D50684600F08D
:100B10001BFB01220221384600F0E6FB14208DF871
:100B200010008DF811808DF812908DF8135004A8E4
:100B300000F098FF08B0BDE8F08738B504460D46D0
:100B4000204600F013F8A088ADF800008DF803509F
:100B500003208DF802006946206800F0A1FE38BD30
:100B60008188006889B200F0EEBE0000124A016878
:100B7000914201D104201CE0104A914201D1082089
:100B800017E00F4A914201D1102012E00D4A914224
:100B900001D120200DE00C4A914201D1402008E013
:100BA0000A4A914201D1802003E0094A914200D1D2
:100BB0008815012100F0D6BF00080140000C01405B
:100BC000001001400014014000180140001C0140C9
:100BD000002001402DE9F04F87B08246DDE911B8D1
:100BE000109F894616461D46504600F0E3F81DB199
:100BF00028212868FFF7A1FF1FB128213868FFF7D7
:100C00009CFFBBF1000F03D028212868FFF795FF58
:100C1000B8F1000F04D02821D8F80000FFF78DFFAD
:100C2000ADF810600026ADF81260ADF81490ADF884
:100C3000166004A9504601F0CFFF4FF0010985B1BD
:100C400044F00204ADF80460A888ADF80600ADF8E1
:100C50000890ADF80A60ADF80C6001A9504601F0AB
:100C60000BFF8FB144F004040420ADF80400A88801
:100C7000ADF80600ADF80890ADF80A60ADF80C606C
:100C800001A9504601F0F8FEBBF1000F11D044F06D
:100C900008040820ADF80400A888ADF80600ADF8F7
:100CA0000890ADF80A60ADF80C6001A9504601F05B
:100CB000E3FEB8F1000F11D044F010040C20ADF8A1
:100CC0000400A888ADF80600ADF80890ADF80A60F9
:100CD000ADF80C6001A9504601F0CEFE44F00101D0
:100CE0000122504601F00EFF0121504601F0ABFEFB
:100CF0001398FF2816D01498FF2813D0504601F0FF
:100D000033FFDDE9131200F046F80848824502D0AF
:100D10000748824506D1504601F0FEFADDE913127C
:100D200000F039F807B0BDE8F08F0000002C01405A
:100D3000003401402DE9FF4180460A9F0C461646CB
:100D40001D46404600F036F8ADF80840ADF80460A6
:100D50000021ADF80610ADF80A1001A9404601F0D7
:100D60003BFF01221146404601F0CCFE01214046E6
:100D700001F069FE404601F0F7FE8DF800008DF8A5
:100D800001508DF8027001208DF80300684600F0D4
:100D900069FEBDE8FF8108B58DF800008DF80110EF
:100DA0008DF8022001208DF80300684600F05AFEFD
:100DB00008BD00003149884203D10121C01400F070
:100DC000D1BEB0F1804F06D02D49884207D1012114
:100DD000022000F0B9BE0121084600F0B5BE294945
:100DE000884203D10121042000F0AEBE264988428A
:100DF00003D10121082000F0A7BE2449884203D175
:100E00000121102000F0A0BE2149884203D1012118
:100E1000202000F099BE1F49884203D101214014CF
:100E200000F0A0BE1C49884203D10121C80400F093
:100E300099BE1A49884203D10121080500F092BEEB
:100E40001749884203D10121480500F08BBE15499E
:100E5000884203D10121402000F076BE1249884229
:100E600003D10121802000F06FBE1049884203D1D8
:100E70000121801500F068BE70470000002C014081
:100E80000004004000080040000C0040001000403A
:100E90000014004000340140004C0140005001406B
:100EA0000054014000180040001C00400020004099
:100EB00030B58BB004462078002829D001210220CB
:100EC00000F034FE606800F035FBA068001D009063
:100ED0006078002508B30295A06801F0E7FF019053
:100EE000A06802F087F8039004958020059006958D
:100EF000079508954FF4405009900A956946606837
:100F000000F097FB0121606800F006FB0BB030BDDC
:100F10000121084600F00AFED4E710200290A068E4
:100F200001F0F2FF0190A06802F08AF80390DBE77D
:100F30002DE9F04385B00646DDE90C780C461546F0
:100F40009946304600F058F81CB118212046FFF7AA
:100F5000F4FD1DB104212846FFF7EFFDCDF8009008
:100F60000020ADF80400ADF80600ADF80800ADF8BB
:100F70000C000C20ADF80A006946304601F038FF3D
:100F8000DFF87090FF2F20D0B8F1FF0F1DD0304652
:100F900002F07CF88DF810008DF811708DF8128039
:100FA00001208DF8130004A800F05CFD4E4506D02A
:100FB000012240F22441304601F0FEFE05E001220C
:100FC00040F22551304601F0F7FE4E450BD024B1DA
:100FD00001228021304601F0C5FE25B101224021C9
:100FE000304601F0BFFE0121304601F0AFFE05B0F2
:100FF000BDE8F083005000401149884203D101212F
:10100000880300F0AFBD0F49884203D10121480495
:1010100000F09ABD0C49884203D10121880400F0F8
:1010200093BD0A49884203D10121C80400F08CBD58
:101030000749884203D10121080500F085BD7047AA
:10104000003801400044004000480040004C00408F
:101050000050004070B504460D461646606800F02A
:10106000E5FA0028FAD10021606800F055FAD4E9C9
:101070000301084300F044FA6068C5606068466098
:101080006068BDE87040012100F046BAFEE700004C
:101090000A4A914202D1002181617047C1F31302D3
:1010A0008B0101D5C26070474B0101D502617047C9
:1010B000090101D582607047426070477000F030CE
:1010C00030B5082310240422B1F5007F33D011DCA1
:1010D00020292AD007DC012922D0042923D008297D
:1010E00000D1C46030BD402921D0B1F5807FF9D155
:1010F000426030BD0025B1F5004F20D008DCB1F5CD
:10110000806F1AD0B1F5006FF3D18561426030BDB8
:10111000B1F5803F0DD0B1F5003FF8D1446030BD4E
:101120000849816030BDC36030BD036130BD0461DA
:1011300030BD436030BD426030BD426030BD85612E
:10114000426030BD01010100F0B5827A0121914079
:10115000304C226842F0010222602E4D1C352A6874
:101160008A432A602B4A067B0C322B4B002E14D16B
:1011700016688E4316604688C78846EA0746877A0F
:1011800003EBC707C7F840660688878846EA074624
:10119000877A03EBC707C7F84466067B012E14D194
:1011A00016680E4316604288068842EA0642867A2E
:1011B00003EBC606C6F84026C288868842EA064285
:1011C000867A03EBC603C3F84426124AC37A121D7B
:1011D0003BB113680B4313600E4A0389143223B1E9
:1011E00006E013688B431360F6E713688B431360C4
:1011F0000389012B02D113680B431360407B012844
:1012000002D1286808432860206820F0010020608F
:10121000F0BD000000660040006000400246002073
:1012200053690B425DD0B1F5807F4AD016DC0829A6
:1012300037D009DC01292CD002292ED0042950D125
:10124000D068082100F01DB910292ED0202930D0F7
:10125000402946D11069102100F013B9B1F5004FB3
:101260003BD00CDCB1F5007F2FD0B1F5806F30D0D2
:10127000B1F5006F35D19069702100F002B9B1F578
:10128000803F1AD0B1F5003F2BD15068102100F0FB
:10129000F8B89068134900F0F4B8D068032100F062
:1012A000F0B8D068102100F0ECB81069032100F00C
:1012B000E8B81069082100F0E4B85068082100F08F
:1012C000E0B89069012100F0DCB89069022100F0DB
:1012D000D8B89069042100F0D4B85068042100F017
:1012E000D0B8704701010100002A03D042690A43C7
:1012F0004261704742698A434261704710B50022DB
:10130000036823F002030360036843F001030360F2
:101310004FF6FF7300E0521C4468E40701D19A4283
:10132000F9D14268D2073ED08A79012A3DD00268BD
:1013300022F080020260CA79012A3BD0026822F0C2
:10134000400202600A7A012A39D0026822F02002A3
:1013500002604A7A012A37D0026822F01002026045
:101360008A7A012A35D0026822F008020260CA7A1D
:10137000012A33D0026822F0040202608A78CC7815
:10138000920742EA04620C7942EA04424C790988E5
:1013900042EA0452491E0A43C261016821F0010178
:1013A0000160002120E0002010BD026842F08002B0
:1013B0000260C0E7026842F040020260C2E70268D1
:1013C00042F020020260C4E7026842F010020260AC
:1013D000C6E7026842F008020260C8E7026842F00D
:1013E00004020260CAE7491C4268D20701D0994250
:1013F000F9D14068C00701D0002010BD012010BD08
:1014000010B500EB0113D3F8B04104F004041472DA
:10141000002C2CD0D3F8B041E408546003F5D87305
:101420001C6804F0020454725C6804F00F049472A7
:101430005C68240AD4749C68D4729C68240A14736F
:101440009C68240C54739C68240E9473DC68D473D9
:10145000DC68240A1474DC68240C5474DB681B0EEA
:10146000937449B1016941F02001016110BDD3F8C5
:10147000B041640D1460D1E7C16841F02001C16042
:1014800010BD024600200A4200D001207047000033
:101490000122064B8240002903D0186810431860CF
:1014A000704718689043186070470000007400404F
:1014B00030B5084C236840F6FE7282409343D1E970
:1014C00000252A43D1E902510D432A4382401A43A1
:1014D000226030BD0074004008B5034A1044083053
:1014E00000900098016008BD0074004008B5034AF0
:1014F0001044143000900098016008BD0074004052
:10150000C10002D50249086070470249486070472F
:101510000404024000000240002904D0016841F0A8
:1015200001010160704701684FF6FE7211400160D1
:101530007047000001684FF6FE7211400160002103
:10154000016041608160C1603649364A0839904285
:1015500004D1486840F00F0048607047314A1432A7
:10156000904204D1486840F0F000486070472D4A2E
:101570002832904204D1486840F470604860704757
:10158000284A3C32904204D1486840F47040486098
:101590007047244A5032904204D1486840F4702089
:1015A000486070471F4A6432904204D1486840F452
:1015B0007000486070471B4A7832904204D14868F6
:1015C00040F0706048607047174A111F904204D184
:1015D000086840F00F0008607047134A14329042C8
:1015E00004D1086840F0F000086070470E4A2832C5
:1015F000904204D1086840F47060086070470A4A5D
:101600003C32904204D1086840F470400860704752
:10161000054A50329042FAD1086840F470200860C0
:10162000704700000800024008040240406880B291
:10163000704730B5026847F6F0739A430C6A8B68BE
:101640002343D1E904452C4323438C692343CC69CC
:1016500023434C6A23438C6A234313430360CA68C1
:1016600042600A6882604968C16030BD704700000E
:1016700070B54FF40065284600F052F8002825D0D8
:1016800003F09EFC03281CD011480124046003F0E1
:1016900049FD0078A8B903F045FD047003F08CFC07
:1016A00090F8304003F088FC80F8314003F088FC6B
:1016B0000849087003F080FC90F83010042004F012
:1016C000CDF92846BDE8704000F024B870BD000098
:1016D000AC8122420800002010B5102000F020F854
:1016E000002815D003F0A6FC044600684FF0FF3137
:1016F000FEF756FE206003F09DFC0121017403F00B
:1017000099FC0021C160BDE81040102000F002B833
:1017100010BD00000149086070470000140401403A
:1017200001460020054A12680A40044B14331B6826
:101730000B4202D0002A00D0012070470004014073
:1017400030B51B4A83790168002B2AD013688B437C
:101750001360111D0B680468A3430B6001791144E9
:101760000B68046823430B60114C0834216803683C
:1017700099432160231D19680568A94319604179BF
:10178000102905D011440A68006802430A6030BD80
:1017900021680268114321601968006801431960DB
:1017A00030BD0079104402688A43026030BD0000F9
:1017B000000401400149C860704700000020024059
:1017C00070B505464FF43026304600F059F804282D
:1017D00011D1094C206940F0020020616561206947
:1017E00040F040002061304600F04AF8216941F69F
:1017F000FD721140216170BD0020024004200849A3
:10180000CA68D20701D001207047CA68520701D5C3
:1018100002207047C968C906FBD503207047000045
:10182000002002400248016941F0800101617047D7
:1018300000200240F0B506460D464FF400573846EA
:1018400000F01EF804280CD1064C206940F001007D
:1018500020613580384600F013F82169BA1E114026
:101860002161F0BD00200240034802494160034964
:10187000416070472301674500200240AB89EFCDEE
:1018800000B50346FFF7BAFF02E0FFF7B7FF5B1EA4
:10189000012801D1002BF8D1002B00D1052000BD7B
:1018A0002DE9F0410022CC7804F00F03E40601D5C5
:1018B0008C7823430C784FF00F0714F0FF0F4FF094
:1018C000010C1CD005680CFA02F40E882640A642D2
:1018D00011D1960007FA06F825EA080503FA06F87A
:1018E00048EA0505CE78282E02D0482E02D002E024
:1018F000446100E00461521C082AE4D305600A88B0
:10190000FF2A1ED94568002202F108060CFA06F4E7
:101910000E882640A64210D1960007FA06F825EA5E
:10192000080503FA06F848EA0505CE78282E00D106
:101930004461CE78482E00D10461521C082AE3D3BA
:101940004560BDE8F08141F480328261816182614D
:101950008169806970470246002092680A4200D07F
:101960000120704770B5FF22FF23002801D0022913
:1019700002D84FF6FF7070BD074D05F5807605E083
:1019800010F8014B54402A5D5A40335D491EC9B2DC
:10199000F6D243EA022070BDC863000806A3002007
:1019A000104C211F1A5C22800A885206FCD5401C6C
:1019B000C0B22A28F6D3FEE70D0A456E7465722080
:1019C000486172644661756C745F48616E646C65F1
:1019D000722C2053797374656D2048616C742E0DE0
:1019E0000A0000000438014002494CF6CC4008606F
:1019F0007047000000300040AFF3008002494AF613
:101A0000AA2008607047000000300040014948608B
:101A100070470000003000400149886070470000B6
:101A2000003000400149086070470000003000406D
:101A3000810701D0002070476421B0FBF1F201FB67
:101A4000120109B1012070474FF4C871B0FBF1F2E7
:101A500001FB120008B10020704701207047FEE72B
:101A60007047000070B50F23C27801260178002A64
:101A70001ED0144A126802F4E062C2F5E062120A53
:101A8000C2F10404D3404578A54082781A402A4325
:101A9000120101F1E02181F80024007800F01F011B
:101AA0008E404009800000F1E020C0F8006170BD68
:101AB00001F01F0086404809800000F1E020C0F8D6
:101AC000806170BD0CED00E00249084302490860E6
:101AD000704700000000FA050CED00E010B54FF46F
:101AE0008030FFF717FE03F059FB0021017003F06F
:101AF00055FB0178BDE810400820FEF7C7BF000085
:101B0000014908627047000000000E420149086167
:101B10007047000000000E42034A116821F0E00106
:101B2000014311607047000000700040054A002921
:101B300003D051690143516170475169814351613B
:101B40007047000000100240054A002903D0D16907
:101B50000143D1617047D1698143D1617047000071
:101B600000100240054A002903D0916901439161A8
:101B700070479169814391617047000000100240F5
:101B800001490860704700004004424210B5264AEF
:101B9000516801F00C01254B002927D0042927D0DA
:101BA000082927D00360516801F0F0010909204B92
:101BB0005C5C0168E1404160546804F4E064240A1C
:101BC0001C5D21FA04F48460546804F46054E40A4F
:101BD0001B5DD940C160526802F44042920B144B25
:101BE0001B1F9A5CB1FBF2F1016110BD0360DAE7E3
:101BF0000360D8E7516801F47011536803F480332F
:101C0000022404EB914133B153689B0307D5094B80
:101C100059430160C7E7074B59430160C3E7034BD2
:101C200059430160BFE700000010024000127A0033
:101C30008A01002000093D00034600205909094A95
:101C400001290AD002290AD0516A03F01F02012398
:101C500093400B4200D0012070471168F5E7116AEC
:101C6000F3E7000000100240084900220A7001F862
:101C70002029012805D0042802D1052081F8200060
:101C80007047012081F820007047000020100240BA
:101C900001490860704700003C04424202490A6A58
:101CA00002430A62704700000010024002490A889D
:101CB00082430A80704700000428004002480188DF
:101CC00041F010010180704704280040024801885B
:101CD00021F0100101807047042800402DE9F047F1
:101CE00000F06AF80646304FB6FBF7F32F48304D48
:101CF0000188994231D0038040F2B2744FF4B77832
:101D00004FF4B6790FE02046FFF792FE38B1434515
:101D100002D3A3F5B77304E0641CA4B205E0A3F2F8
:101D20006D13641CA4B24B45EDD8AC800024DFF8E1
:101D300084800CE0A888FFF77BFE08B1012C2FD02F
:101D400018F80400984204D81B1A641CA4B21C2B77
:101D5000F0D2641CAC715B1CEB71B6FBF7F007FBB7
:101D600010604FF46161B0FBF1F22A70B0FBF1F248
:101D700001FB12033C22B3FBF2F36B70B0FBF1F3F7
:101D800001FB1300B0FBF2F102FB1100A870EA792D
:101D9000A979A88800F02AF828720020BDE8F08709
:101DA0001D2BD6D31D3BD0E78051010084010020BC
:101DB0009416002090680008034800880249091F13
:101DC000098840EA014070471C28004006490988FC
:101DD000C2B21140044A121F1288024202D009B155
:101DE00001207047002070470428004030B564236C
:101DF000B0FBF3F4E4B2B0FBF3F503FB1500132CD6
:101E000001D96430C0B200EB90030724B3FBF4F5B2
:101E100004FB1533084D1A440D4415F8015C2A449F
:101E200092B2800703D1032901D2521E92B2B2FBB3
:101E3000F4F004FB102030BD8468000810B50120C8
:101E4000FFF7C4FF08B1FFF749FF0220FFF7BEFF0D
:101E500030B107480168491C01600220FFF726FFE6
:101E60000520FFF723FFBDE8104000F0BBB80000DD
:101E7000B8000020054A002903D0118801431180D1
:101E8000704711888143118070470000002800408E
:101E900008B503228DF800208DF801008DF802109E
:101EA00001208DF803006846FFF7DCFD08BD000047
:101EB0002DE9F05F0646DDF828A08946904600240B
:101EC000A6F2B270822802D30120BDE8F09F40F252
:101ED000B275284FDFF8A0B008E02846FFF7A8FD4C
:101EE00008B13C4400E05C446D1CADB2B542F4D393
:101EF000A9F1010909F0FF070025DFF88090DFF85C
:101F000080B00FE019F8050040F2A321484304EB2C
:101F1000C0143046FFF78CFD10B1012D00D15C4498
:101F20006D1CADB2BD42EDD3A8F1010840F2A32073
:101F300008FB00F804EBC810C3EB4311C1EB03210D
:101F400000EB0110CAEB0A1100EB81000B99441859
:101F500001214FF0C050FFF7F7FD0120FFF7D0FD42
:101F6000204600F01FF800F03DF8FFF7B7FE002014
:101F7000ABE700000085E2018033E10190680008D2
:101F80008051010000B50246FFF798FE0449100C8D
:101F90000880081D02805DF804EBFFF797BE000083
:101FA0002028004000B50246FFF788FE0449100CC7
:101FB0000880081D02805DF804EBFFF787BE000073
:101FC0001828004000B50246FFF778FE0449C2F326
:101FD00003400880081D02805DF804EBFFF776BE21
:101FE00008280040024801888906FCD57047000097
:101FF000042800400448018821F00801018001887C
:102000000907FCD57047000004280040AFF30080AA
:102010000CB50022019200922748016841F48031FA
:1020200001604FF4A063016801F40031009101994F
:10203000491C0191009911B901999942F3D10168A4
:10204000890302D50121009100E000920099012945
:1020500030D11A490A6842F010020A600A6822F078
:1020600003020A600A6842F002020A6041684160A5
:1020700041684160416841F480614160416821F4F8
:102080007C114160416841F4E8114160016841F010
:102090008071016001688901FCD5416821F003016C
:1020A0004160416841F0020141604168C1F3810132
:1020B0000229FAD10CBD00000010024000200240AD
:1020C00010B5FEF785F804F0C5F818B104494FF0D3
:1020D00080500860BDE810400020FEF780B8000086
:1020E00004ED00E010B50F48016841F00101016006
:1020F00041680D4A1140416001680C4A114001607D
:10210000016821F480210160416821F4FE014160F1
:102110004FF41F018160FFF779FF05494FF0006020
:10212000086010BD001002400000FFF8FFFFF6FE3F
:1021300008ED00E070B5048C24F001040484058BE4
:10214000048C25F0F3054FF6FF7606EA03131343DC
:102150002B43104A90420ED00F4A90420BD0B0F160
:10216000804F08D00D4A904205D00D4A904202D0CF
:102170000C4A904205D124F002020A4342F00101C8
:1021800004E024F00A020A4342F0010103830184BF
:1021900070BD0000002C01400034014000040040EC
:1021A00000080040000C0040F0B5048C24F010043E
:1021B0000484068B048C4FF6FF7505EA011726F49C
:1021C000734605EA0333334305EA02221A43104BF0
:1021D00098420ED00F4B98420BD0B0F1804F08D0F0
:1021E0000D4B984205D00D4B984202D00C4B9842B3
:1021F00005D124F02001394341F0100104E024F01E
:10220000A0030B4343F0100102830184F0BD0000E2
:10221000002C014000340140000400400008004050
:10222000000C0040F0B5048C24F480740484858B89
:10223000048C4FF6FF7707EA012625F0F30507EA3D
:10224000031313432B43104A90420ED00F4A90427F
:102250000BD0B0F1804F08D00D4A904205D00D4A06
:10226000904202D00C4A904205D124F400713143CF
:1022700041F4807104E024F420620A4342F4807146
:1022800083830184F0BD0000002C01400034014034
:102290000004004000080040000C0040F0B5048C31
:1022A00024F480540484868B048C4FF6FF7505EA71
:1022B000013726F4734605EA0222324305EA033366
:1022C0001343104A90420ED00F4A90420BD0B0F107
:1022D000804F08D00D4A904205D00D4A904202D05E
:1022E0000C4A904205D124F40051394341F4805105
:1022F00004E024F402420A4342F4805183830184BF
:10230000F0BD0000002C01400034014000040040FA
:1023100000080040000C00400146054A914201D1EE
:102320001B207047034A9142FBD12E2070470000CA
:10233000002C01400034014070B501218D07284672
:1023400000F08DFB00287DD002F036FE90F83200C0
:10235000002428B102F030FE818E491C818602E003
:1023600002F02AFE848602F019FF807B0A2816D329
:1023700002F014FF01780820FEF788FB02F020FE2F
:1023800001460C20FEF782FB02F016FE90F830109A
:102390001020FEF77BFB02F001FF847304E002F0E3
:1023A000FDFE817B491C817302F0C0FE90F8400065
:1023B00080B102F037FE407960B902F0B7FE416C9F
:1023C000491E416402F0B2FE406C18B902F0AEFE44
:1023D00080F8404002F0AAFE90F8480080B102F078
:1023E00021FE407960B902F0A1FEC16C491EC164B2
:1023F00002F09CFEC06C18B902F098FE80F84840CC
:1024000002F094FE90F8400058B902F00BFE4079BB
:1024100038B902F08BFEC46016488481C4814460E0
:10242000046102F083FE90F8480068B902F0FAFDFA
:10243000407948B902F07AFE04610F488481C48172
:10244000446000E014E0046102F06CFE407848B1A2
:1024500002F06CFE90F8200002F06CFE044602F0E0
:1024600061FE44602846BDE87040012100F0E8BAF2
:1024700070BD0000A4070020BC0700202DE9F05F1C
:10248000DFF868A10121504600F0E9FA584C594D97
:1024900058B1216809B1491C2160296809B1491C5A
:1024A00029600121504600F0CBFA0221504600F08D
:1024B000D6FADFF8449100270126002850D002F018
:1024C000B1FD407958B902F031FE80F8406002F069
:1024D0002DFED0F8508002F029FEC0F84480DFF8CD
:1024E0000C81206808F1340818B3B8F80010E181B5
:1024F000401EE189C0EB00400844A189401A2061D8
:10250000FDF7D5FF01464846FDF70CFF606002F07D
:102510000DFE01686068FDF7D3FE3849FDF7D0FE77
:10252000834602F003FEC0F80CB02760A8F80070E4
:1025300005E0A8F80070B8F80000A081266002F05D
:1025400071FD407940B102F0E9FD067002F0E6FD50
:10255000446802F0E3FD84600221504600F070FA06
:102560000421504600F07BFA00283CD002F05AFDCE
:10257000407948B902F0DAFD80F8486002F0D6FDF3
:10258000046D02F0D3FDC464184C2868383400B3DD
:102590002188E981401EE989C0EB00400844A989EF
:1025A000401A2861FDF783FF01464846FDF7BAFE51
:1025B000686002F0BBFD41686868FDF781FE0F4965
:1025C000FDF77EFE064602F0B1FD06612F60278012
:1025D00003E027802088A8812E605046BDE8F05F88
:1025E000042100F02DBABDE8F09F00000008004073
:1025F000A4070020BC0700200050C3470000704221
:1026000070B5774E0121304600F029FA002864D0D9
:1026100002F0D6FC0024032842D002F0D1FC0228AC
:102620005BD102F0FFFC407900287CD002F076FDFF
:102630000078002833D002F071FD8068002858D05F
:1026400002F06CFD8168491E816002F0EBFCC069FC
:102650000A2869D302F0E6FCC46102F05FFD00F1D4
:102660000C0402F05BFD01692068FDF7D1FD2060DC
:1026700002F0C0FC0078032102F0A8FCA0B302F035
:10268000D1FC046902F04AFDC0682146FDF788FFCD
:1026900005D202F0C7FC046902F040FDC46098E076
:1026A00002F08AFC90F82800F8B102F0C3FC007C2C
:1026B000002812D102F0BEFCC0684A4988420DD3FE
:1026C00002F0B8FCC46002F0B5FC044602F0B2FCB3
:1026D00041682068FDF79CFD206070BD02F0AAFCF7
:1026E000C168491CC16070BD07E002F0A3FCC46072
:1026F000F9E702F013FD0470A7E702F05DFC90F823
:102700003600E0B102F08EFC807902F0AFFC0446A6
:1027100002F088FC846002F085FC846802F0FEFC14
:10272000C068214601E021E01AE0FDF739FF50D8EA
:1027300002F078FC846802F0F1FCC46049E002F029
:1027400071FCC46802F0EAFCC0682146FDF728FF6E
:102750003FD202F067FCC46802F0E0FCC46038E0DD
:1027600002F060FCC169491CC16132E002F042FC28
:102770000078032102F02AFC70B902F053FCC06912
:102780000A2804D302F04EFC007E01280FD002F08C
:1027900049FCC169491CC16102F0C8FC90F85400B1
:1027A000A0B102F0C3FC016E491C016611E002F009
:1027B00039FCC46102F0BAFC00F11C0502F0B6FC61
:1027C000416A2868FDF724FD2860E5E702F0AEFCC9
:1027D00004663046BDE87040012100F031B90000C8
:1027E000000C0040E093040070B5234D0121284601
:1027F00000F035F900283ED0204C207820490A28E6
:1028000001D3087828B120780A282ED2087818B188
:102810002BE00120087028E002F0C4FC1948006891
:102820001949227841F8220018480068184922788E
:1028300041F8220017480168174A207842F8201012
:10284000164800681649227841F8220015480068A9
:102850001549227841F8220014480068144922786A
:1028600041F822002178491C21702846BDE87040BB
:10287000012100F0E5B870BD001000402B000020E1
:102880002A00002034000020C40500203800002069
:10289000EC0500203C000020140600204000002031
:1028A0003C06002044000020640600204800002070
:1028B0008C06002070B5234D0121284600F0CFF88A
:1028C00000283ED0204C207820490A2801D30878DF
:1028D00028B120780A282ED2087818B12BE00120E0
:1028E000087028E002F0AAFC19480068194922780B
:1028F00041F82200184800681849227841F822005F
:1029000017480168174A207842F8201016480068D6
:102910001649227841F822001548006815492278A6
:1029200041F82200144800681449227841F8220036
:102930002178491C21702846BDE87040012100F033
:102940007FB870BD001400402D0000202C00002036
:102950004C000020B406002050000020DC060020BF
:102960005400002004070020580000202C070020FD
:102970005C00002054070020600000207C0700203D
:102980002DE9F0411E4F0221384600F068F800287A
:1029900034D01C4C1A4E34362068002518B33188C8
:1029A000E181401EE189C0EB00400844A189401A42
:1029B0002061FDF77CFD01461348FDF7B3FC606024
:1029C000217D124A42F821002560491CC8B22075B9
:1029D00035800A280CD30A21104602F0B1FDA06010
:1029E0002575656004E035803088A0810120206075
:1029F0003846BDE8F041022100F022B8BDE8F08180
:102A000000340140D4070020001BB749EC07002028
:102A100010B5094C0121204600F021F800280AD009
:102A20000649086808B1401C08602046BDE810400F
:102A3000012100F005B810BD00340140D40700208A
:102A4000C94301827047002904D0018841F0010187
:102A500001807047018821F0010101807047024622
:102A60000020138A0B4092890A40002B02D0002AD2
:102A700000D001207047000070B505460C461D4887
:102A8000854209D01C48854206D0B5F1804F03D05D
:102A90001A48854200D01A4820886188A288238974
:102AA00060B1042813D008281AD02846FFF7F6FB97
:102AB000E1882846BDE8704000F04AB82846FFF794
:102AC00039FBE1882846BDE8704000F025B828466B
:102AD000FFF76AFBE1882846BDE8704000F024B8A3
:102AE0002846FFF79FFBE1882846BDE8704000F0CC
:102AF00027B80000002C01400034014000040040D1
:102B000000080040002A03D082890A43828170476E
:102B100082898A4382817047028B22F00C020283F1
:102B2000028B0A4302837047028B22F440620283C5
:102B3000028B4FF6FF7303EA01210A4302837047B9
:102B4000828B22F00C028283828B0A43828370473D
:102B5000828B22F440628283828B4FF6FF7303EAFA
:102B600001210A43828370470146B1F1804F04D0AE
:102B7000124A914203D11D2070471C207047104A11
:102B8000914201D11E2070470E4A914201D132205C
:102B900070470D4A914201D1362070470B4A91424D
:102BA00001D1372070470A4A914201D1192070475C
:102BB000084A9142FBD12C207047000000040040DD
:102BC00000080040000C00400010004000140040CD
:102BD000002C01400034014030B502881B4C1C4DD4
:102BE000A0420DD0A8420BD0B0F1804F08D0194BB5
:102BF000984205D0184B984202D0184B984203D106
:102C000022F070034A881A43154B984206D0154BA0
:102C1000984203D022F44073CA881A4302808A88FB
:102C200082850A880285A0420AD0A84208D00E4AAE
:102C3000904205D00D4A904202D00D4A904201D1F7
:102C4000097A01860121818230BD0000002C0140FB
:102C5000003401400004004000080040000C004027
:102C600000100040001400400040014000440140BA
:102C70000048014070B5164D40F22441284600F04E
:102C80007BF8002823D02888281D0088114E0021B9
:102C90003046FEF741FC3046FEF7C8FCC0F140006C
:102CA00084B24FF4C000FEF72BFC0A4940206C3977
:102CB000086701213046FEF72FFC002C07D006499B
:102CC000284602F08DFB05480168491C016070BD73
:102CD000004400406C00024025000020B4000020A9
:102CE00070B5164D40F22441284600F045F8002802
:102CF00022D02888281D0088114E00213046FEF77A
:102D00000BFC3046FEF792FCC0F5007084B26020E8
:102D1000FEF7F6FB0A4968151C39C86501213046E3
:102D2000FEF7FAFB002C07D00649284602F080FE89
:102D300005480168491C016070BD00000048004062
:102D40001C000240AC000020B4000020002904D088
:102D5000818941F4005181817047818921F40051BA
:102D600081817047002A03D0828A0A438282704799
:102D7000828A8A438282704770B5002440F66A12C4
:102D8000C1F3421301F01F05012606FA05F2012BDB
:102D90000CD0022B0DD0838A1340090A8E40008884
:102DA00030400BB100B10124204670BD838913402F
:102DB000F3E7038A1340F0E710B540F66A13C1F356
:102DC000421301F01F040121A140012B07D0022B67
:102DD00007D014303AB102680A43026010BD0C30CB
:102DE000F8E71030F6E702688A43026010BD000081
:102DF00030B585B004460D46208A4CF6FF71084078
:102E0000E98801432182A0894EF6F3110840A98880
:102E10002A8911436A8902431143A181A08A4FF68E
:102E2000FF410840A9890143A1826846FEF7AEFE32
:102E30001D48844201D1039800E00298A189090449
:102E400008D500EBC00101EB001029684900B0FB78
:102E5000F1F007E000EBC00101EB001029688900E8
:102E6000B0FBF1F06422B0FBF2F109010B096FF045
:102E700018056B4300EB8300A3891D044FF0320358
:102E800007D503EBC000B0FBF2F000F007000843E9
:102E900006E003EB0010B0FBF2F000F00F00084377
:102EA000208105B030BD00000038014001460D4AC8
:102EB000914201D10C4870470C4A914201D10C4813
:102EC00070470C4A914202D10948403070470A4A83
:102ED000914201D109487047094A9142FBD1094802
:102EE00070470000003801401408002000440040F2
:102EF0001409002000480040004C0040540B002002
:102F000000500040540D002001460D4A914201D16D
:102F10000C4870470C4A914201D10C4870470C4A4A
:102F2000914202D10948403070470A4A914201D18A
:102F300009487047094A9142FBD10948704700008F
:102F400000380140540F002000440040541000207D
:102F500000480040004C0040941200200050004007
:102F600094140020F0B502461C4C1D4B1D4D1E4E06
:102F70001E4F802905D0402902D1A2421AD11C48F7
:102F8000F0BDA24202D11A486438F0BD9A4202D183
:102F900017485038F0BDAA4202D115483C38F0BD60
:102FA000B24202D112482838F0BDBA42FCD11048D2
:102FB0001438F0BD9A4202D10D481430F0BDAA4237
:102FC00002D10B482830F0BDB24202D108483C3053
:102FD000F0BDBA42FCD106485030F0BD0038014087
:102FE0000044004000480040004C004000500040B9
:102FF0002001002001460D4A914201D18015704701
:103000000B4A914201D1402070470A4B5A15994210
:1030100001D110467047084B994201D110467047C4
:10302000064B9942FBD11046704700000038014022
:103030000044004000480040004C00400050004068
:1030400001460D4A914201D1801570470B4A9142C9
:1030500001D1402070470A4B5A15994201D11046C0
:103060007047084B994201D110467047064B994270
:10307000FBD110467047000000380140004400407A
:1030800000480040004C00400050004001460C4AFF
:10309000914201D1252070470A4A914201D1262050
:1030A0007047094A914201D127207047074A91424F
:1030B00001D134207047064A9142FBD13520704738
:1030C000003801400044004000480040004C0040EF
:1030D0000050004010B586B0144C02212046FEF787
:1030E0009DF8002820D004212046FDF7E9FF104973
:1030F0002046FDF7CDFF01AA00212046FEF780F90A
:103100000198A0F50070093806D0012808D10949B6
:1031100001A801F032FA03E0074901A801F02DFAF5
:1031200006480168491C016006B010BD00640040FB
:1031300008000032120000201A000020B000002019
:10314000FEE730B505460C46002D01D0022C01D813
:10315000002030BDA01EC1B22846FEF703FC29198D
:10316000C2B211F8023C9A4206D111F8011CB1EB2F
:10317000102F01D1012030BD002030BD02E008C871
:10318000121F08C1002AFAD170477047002001E0E1
:1031900001C1121F002AFBD17047000001490860DD
:1031A00070470000000200202DE9F041554C606896
:1031B000FDF77DF9544D2946FDF782F8064601F0EA
:1031C000FBFE466001F0F8FE217A017201F0F4FE88
:1031D000217B417201F0F0FE217C817201F0ECFE56
:1031E000A18A8181606AFDF762F9064601F09EFFBF
:1031F0000663A069FDF75BF92946FDF761F806460D
:1032000001F094FF4663E069FDF751F92946FDF7A7
:1032100057F8064601F08AFF8663206AFDF747F9F2
:103220002946FDF74DF8064601F0C6FE8661E06AC4
:10323000FDF73DF92946FDF743F8064601F0BCFECF
:10324000C661A06AFDF733F92946FDF739F806464D
:1032500001F0E8FE066101F069FF616C816501F033
:103260005DFFA16C416001F061FFE16C016501F05F
:103270005DFF216DC16501F055FFB4F854108181E7
:1032800001F050FFB4F85810C181E06BFDF70FF961
:103290000746206BFDF70BF92946FDF711F81B4E89
:1032A0003146FDF70DF83946FDF73CF8074601F0C9
:1032B0003DFF0760206CFDF7FAF80746606BFDF7ED
:1032C000F6F82946FCF7FCFF3146FCF7F9FF3946D2
:1032D000FDF728F8054601F029FF456001F06CFE76
:1032E00040684FF0FF31FDF75BF8054601F0A2FEA4
:1032F0008560A06BFDF7DBF8044601F017FFC462A0
:10330000BDE8F081340200200AD7233CDB0F49409E
:1033100070B50124064E074D06EB840105EB440011
:10332000022201F0B5F8641CE4B2172CF4D370BD8E
:10333000340200200030030870B50024064E074D0B
:1033400006EB840105EB4400022201F0B9F8641C8D
:10335000E4B2172CF4D370BD34020020003003080F
:1033600010B500F01DFC00F0AFFF00F061FD00F0B3
:10337000FBF8BDE810400148FEF708BC040200203D
:1033800010B51D480221016040F6C41242600021C0
:103390008160C1600161192343618261FA22C261C7
:1033A00001624FF4967141626422826241644FF47B
:1033B000AF728264C16401650A2141658165322171
:1033C000C162282202631E22426305228263C16316
:1033D0004FF40071016402220849094801F058F8CD
:1033E00006480078FF2803D0BDE81040FFF790BFE3
:1033F000BDE81040FFF7A0BF340200200600002007
:103400000030030810B50A21144802F099F8144955
:1034100008600A21134802F093F8134908600A2152
:10342000124802F08DF8124908600A21114802F092
:1034300087F8114908600A21104802F081F8104904
:1034400008600A210F4802F07BF80F4908600F4915
:10345000002008700E49087010BD0000C40500204F
:1034600064000020EC050020680000201406002005
:103470006C0000203C060020700000206406002044
:10348000740000208C060020780000202A00002014
:103490002B00002010B50A21144802F051F81449FD
:1034A00008600A21134802F04BF8134908600A210A
:1034B000124802F045F8124908600A21114802F04A
:1034C0003FF8114908600A21104802F039F8104904
:1034D00008600A210F4802F033F80F4908600F49CD
:1034E000002008700E49087010BD0000B4060020CE
:1034F0007C000020DC060020800000200407002063
:10350000840000202C0700208800002054070020A1
:103510008C0000207C070020900000202C00002060
:103520002D00002008B502F08FFE00900C4C0D4DD0
:103530000221684602F034FD207818B1FFF762FFDF
:1035400002F0F8FC287818B1FFF7A4FF02F0F2FCB3
:10355000207829780843EBD102F0ECFCE8E7000082
:103560002A0000202C0000201FB500200649CDE9CC
:10357000011005220346009203904FF4007203A14C
:10358000034802F0E7FD1FBD9002002041444300C4
:103590002535000810B501F00FFD90F8300000212E
:1035A000032860D018DC534C50B3012845D00228C2
:1035B00011D101040022504801F0C4FC4E480068BB
:1035C000D0B320684D49884205DB01F0F5FC10F8C6
:1035D000301F491C017010BD042851D005286CD043
:1035E0006328F8D101F0E8FC80F8361001F0E4FC23
:1035F00080F837100021BDE81040052002F02EBAF7
:103600003F4801603E4864211C3802F09FF9206861
:103610003C498842DFDB3A483221243802F096F9EF
:1036200001F0CAFC012180F8321001F0C5FC10F84D
:10363000301F491C017010BD0FE001F0BDFC808EF1
:103640000528F8D301F0B8FC80F8321001F0B4FC82
:1036500010F8301F491C0170EDE76321BDE81040F0
:10366000022002F0FBB9002000F09CFF002000F0D7
:10367000B1FF01F0A1FC10F8301F491C0170DAE71E
:1036800000F042F801F008FD407A042101F002FD4B
:1036900038B901F001FD407A012101F0FBFC00285E
:1036A000C9D101F089FC90F836000028C3D163210C
:1036B000BDE81040022002F0D1B901F07DFC90F885
:1036C000370040B901F078FC90F8360018B10421B9
:1036D000022002F0C3F901F0DFFC407A042101F07E
:1036E000D9FC0028A7D06321BDE81040022002F0D9
:1036F000B5B9000080000020080123420000EB4320
:10370000B08122420000D24370B501F08BFC4079B9
:10371000002450B1012820D101F04EFCC06A000302
:1037200070D5BDE8704002F0ADB801F07BFC007EC2
:1037300001257B4E052810D2DFE800F0031038A8E1
:10374000CD0001F039FCC06A000306D4C6F89C41E4
:1037500001F068FC017E491C017670BD01F02CFC73
:10376000C06A000304D401F027FC90F8370018B1B8
:1037700001F0D8FC007818B1BDE8704002F078B9CB
:1037800001F01AFC90F8440030B101F04BFC457197
:1037900001F048FC047670BD01F0C8FC80F854507C
:1037A00001F040FC017E491C017670BD01F004FC73
:1037B00090F8360038B301F0FFFB90F8370088B17D
:1037C00001F0B4FC016E01F0B1FCC06D814248D340
:1037D00001F028FC017E491C017601F0A7FC80F86D
:1037E00054403EE001F0E8FBC06A00030CD401F055
:1037F0009DFC80F8544001F099FC046601F012FC35
:1038000005762EE085E011E001F090FC016E01F0FC
:103810008DFCC06D814224D301F004FC017E491C63
:10382000017601F083FC80F854401AE001F0C4FBFB
:10383000C06A000304D401F0BFFB90F83600D0B199
:1038400001F074FC016E01F071FC806D814208D3BF
:1038500001F0E8FB017E491C017601F067FC80F86D
:10386000544001F063FC90F8540000289DD0BDE85E
:10387000704002F0E3B901F059FC80F8544001F0C7
:1038800055FC046601F0CEFB0576EAE701F0CAFBC1
:1038900040692449884205DC01F0C4FB017E491CD3
:1038A000017670BD01F042FC00F11C04C0694FF0CC
:1038B000FF31FCF775FD206001F038FCC06900F0B5
:1038C00071FE01F033FCC06900F084FEBDE8704079
:1038D000642002F03BBB01F029FCC46101F026FC2E
:1038E000C06900F05FFE01F021FCC06900F072FECB
:1038F000C6F89C5101F096FB047601F05DFB90F850
:1039000037000028CDD0BDE870400521022002F02C
:10391000A5B801F087FB447101F084FB047670BD0B
:10392000008022420000204110B501F07FFB817829
:1039300001F07CFB017001F079FB017801F076FB6E
:10394000407881420DD001F071FB007820B16421F4
:10395000074801F0FBFF04E0054864210C3001F04A
:10396000F5FF01F063FB017801F060FB417010BDD1
:10397000948121422DE9F04701F01EFB90F83000C0
:10398000DFF8C4810124DFF8BC916F4F00266F4D32
:1039900008F1140803284CD019DC50B3012838D0A2
:1039A000022812D1C1030022694801F0CBFAD9F8EC
:1039B0000001002809D001F0FFFA80F8324001F040
:1039C000FBFA10F8301F491C0170BDE8F08704288D
:1039D0006CD06328F9D101F03FFB0078012101F0A0
:1039E0002DFB00287DD0BDE8F0470021032002F028
:1039F00035B855486421001F01F0A8FF01F0DCFA3A
:103A000080F8324001F0D8FA10F8301F491C0170DC
:103A1000DBE701F0D1FA808E1428D6D901F0CCFA78
:103A200080F8326001F0C8FA10F8301F491C0170AC
:103A3000CBE701F0C1FA808EB0F5FA7F07D901F02B
:103A4000BBFA80F8326043480660C5F8906101F027
:103A500023FB407A022101F01DFBB0B901F0ACFA62
:103A600090F8360088B901F0A7FA80F83260C5F8FE
:103A700090416421384601F069FF6421404601F01D
:103A800065FF0021084601F0E9FFD5F89001002804
:103A90009BD101F091FA90F82C00000795D401F029
:103AA0008BFA10F8301F491C01708EE701F0F4FA10
:103AB000407A022101F0EEFA90B901F07DFA90F817
:103AC000360068B9C5F890416421384601F03EFFE0
:103AD0006421404601F03AFF0021084601F0BEFF94
:103AE00000E029E001F068FA90F82C0080078FD4FC
:103AF00001F062FA90F82C00400789D401F0CCFA6A
:103B0000407A012101F0C6FA60B901F0A5FA007807
:103B1000012101F093FA28B901F04EFA90F836002D
:103B2000002885D0D9F800010028BED0BDE8F047B4
:103B30006321012001F092BFBDE8F047002102207F
:103B400001F08CBF00002342848122420080224287
:103B500000012342B081214208B502F075FB0090BC
:103B60000521684602F01CFA01F02AFA062812D252
:103B7000DFE800F0030609110C0F00F077F90AE006
:103B8000FFF7F8FE07E0FFF705FD04E000F02AF874
:103B900001E000F0AFF9FFF7C7FE00F019F8DFE72A
:103BA0001FB500200649CDE9011006220346009208
:103BB00003904FF4007203A1044802F0CBFA1FBD3A
:103BC00048030020494E505554000000593B00085E
:103BD00010B500F0E1FE02488168491D816010BD0A
:103BE000480300202DE9F04101F09CFA807A00257D
:103BF00001247E497E4FDFF8FC817F4E03287DD073
:103C000011DC38B301282ED002280AD101F00AFABB
:103C100040697A4988425FDC01F084FA817A491C64
:103C20008172BDE8F081042869D06328F9D1C8F811
:103C3000AC5101F077FA057001F074FA857201F069
:103C4000BBF990F8314001F00BFA2146BDE8F04194
:103C500001F004BF01F066FA447001F063FA817A62
:103C6000491C8172DDE701F05DFA00F1080401F002
:103C700059FA4068FCF724FB3946FCF721FBFCF7B6
:103C800028FC21880844208001F04CFA018901F0C9
:103C900049FA808981420AD301F044FA457001F063
:103CA00041FA058101F03EFA817A491C817201F0E6
:103CB00039FA40780028B4D001F0D2F90228B0D106
:103CC00001F0B0F9407918B1BDE8F04101F0DABD7A
:103CD000BDE8F04101F0B2BF01F0A4F940794FF026
:103CE000FF35B0B101F01AFA00F10C04C0682946A2
:103CF000FCF756FB206001F011FA01E021E03BE007
:103D0000C06800F04FFC01F009FAC06800F062FCE6
:103D100012E001F00BFA00F11C04C0692946FCF71F
:103D20003FFB206001F002FAC06900F03BFC01F0AB
:103D3000FDF9C06900F04EFCBDE8F041642002F0DE
:103D400005B901F0F3F9C56101F0E8F9C56000209B
:103D500000F028FC002000F03DFCC8F89C41C6F8AB
:103D6000B041C6F8A04101F0DDF9447001F0DAF984
:103D7000817A491C817254E701F0D4F900F10804FA
:103D800001F0D0F94068FCF79BFA3946FCF798FA45
:103D9000FCF79FFB21880844208001F0C3F90189CA
:103DA00001F0C0F9C089814207D3C6F8A05101F0E3
:103DB000B9F9457001F0B6F9058101F0B3F9407821
:103DC0000028D8D106F59A7630687168C0B24906E5
:103DD00040EA1160B168890640EA11600228CAD041
:103DE00001F0A0F9632181721BE700008D7A883C05
:103DF0000AD7233C0080224200802142000020415B
:103E000008B502F021FA0090084D322402216846DC
:103E100002F0C6F82868B0FBF4F104FB110008B901
:103E200000F01EF82868401C2860EFE70C00002016
:103E30001FB500200649CDE9011003220346009278
:103E400003904FF4807203A1044802F083F91FBD70
:103E5000A003002053455249414C0000013E000898
:103E6000014801F0DBBA00000044004010B501F049
:103E7000A3F890F8300048B101281AD0632817D170
:103E80000021BDE81040012001F0E8BD01F094F8E8
:103E900090F82C0080070BD401F08EF890F82C00DD
:103EA000400705D401F088F810F8301F491C017054
:103EB00010BD01F0F1F8407A012101F0EBF898B95A
:103EC00001F0EAF8407A022101F0E4F860B901F06B
:103ED000C3F80078012101F0B1F828B901F06CF8BD
:103EE00090F836000028E3D06321BDE810400020A0
:103EF00001F0B4BD70B501F05FF890F83000012515
:103F0000494E4A4C02286DD01FDC60B301281BD1FA
:103F100001F004F90024C46001F008F9C46101F063
:103F200081F80476002000F03DFB002000F052FBF9
:103F3000C6F89C5164213E4801F008FD01F03CF8B0
:103F400010F8301F491C017070BD0328FCD0632895
:103F5000FAD1D4F80001002860D0BDE870400421F7
:103F6000012001F07BBD01F05DF8406931498842D4
:103F700006DC01F021F810F8301F491C017070BDFB
:103F800001F050F840794FF0FF3598B101F0C6F8D4
:103F900000F10C04C0682946FCF702FA206001F029
:103FA000BDF8C06800F0FEFA01F0B8F8C06800F093
:103FB00011FB12E001F0BAF800F11C04C0692946B7
:103FC000FCF7EEF9206001F0B1F8C06900F0EAFA00
:103FD00001F0ACF8C06900F0FDFABDE87040642063
:103FE00001F0B4BF4FF47A7001F0B0FFD4F80801CB
:103FF00070B1D4F804010028C1D0C6F8B451C6F895
:10400000985100F0D9FF10F8301F491C017070BDA5
:1040100000F0D2FF632180F8301070BDBDE8704021
:104020000021084601F01ABD008022420000234210
:10403000988122420000204110B51D4800680028E8
:1040400023D000F0B9FF90F82C00000628D41948BE
:104050000168CCB241688068490644EA1164800670
:1040600044EA106400F0A8FFC16A21F07801C1623F
:104070001148D0F8900100B174B100F09DFFC16A01
:10408000641C41EAC401C16210BD00F095FFC16A21
:1040900021F07801C16210BDBDE8104000F08CBF76
:1040A00000F08AFFC16A21F07801C16210BD0000F2
:1040B00030012342348121420080224208B502F0BF
:1040C000C3F80090724F0125724E4FF4807807F1CB
:1040D00004094FF4007A00240221684601F060FFD1
:1040E0006D48006808B9FFF7A7FF6948012202215F
:1040F0000C3800F027FF6848012204218C3800F0BA
:1041000021FF01228021384600F01CFF0122414698
:10411000484600F017FF5E4801225146083000F083
:1041200011FF5B4801229102243800F00BFF584830
:104130000122D102203800F005FF55480122110369
:104140001C3800F0FFFE524801225103183800F0DD
:10415000F9FE4F4801229103143800F0F3FE4F4856
:1041600000684F49884206DA00F026FFC16A41F430
:104170008021C16205E000F01FFFC16A21F48021A7
:10418000C16200F019FFD0F81CB000F0CFFFC0688A
:104190005946FCF7FBF906D200F00EFFC16A41F464
:1041A0000021C16205E000F007FFC16A21F400218F
:1041B000C1623C480068A8B1D6F80C0140B100F0DB
:1041C000FBFE80F8365000F0F7FE80F8374011E033
:1041D00000F0F2FE90F8360060B100F0EDFE80F8DD
:1041E000375007E000F0E8FE80F8364000F0E4FECB
:1041F00080F8374000F0E0FED0F804B000F0DCFEBC
:1042000080692949FCF75CF85946FCF78BF883462E
:1042100000F008FFC0F80CB000F0CEFE4168234863
:104220000068FCF74DF82249FCF77CF8834600F063
:10423000F9FEC0F814B01F480068FCF74AF981B2D3
:1042400000221D4800F02CFF1C49FCF739F883467A
:1042500000F0B2FEC0F800B0DFF864B09BF80000D8
:1042600028B10A21174801F071FB8BF80040D6F8FD
:1042700000018BF8010000F091FF407B20B1FFF7B7
:104280005BF800F08BFF4473FDF7B6FB24E70000FA
:104290003401234200002342B081214280000020EB
:1042A0000000EB43A0012142000040406C000020D0
:1042B000A3AB684578000020C8650008CDCCCC3D94
:1042C00010000020B88122421FB500200649CDE928
:1042D00001100422034600920390920103A10648B4
:1042E00001F038FF1FBD0000AC03002053555045BE
:1042F00052564953494F5200BD40000810B50121A4
:104300004FF0C050FDF720FCBDE810400120FDF744
:10431000F7BB00000D4B8118994201D9032070476B
:1043200012B10123002109E0002070470378FF2B20
:1043300001D0022070470023401C491C9142F5D354
:10434000012B01D0012070470020704700000408B5
:104350006FF30A00704710B54FF44070FDF7B4FBDF
:10436000FFF7CCFF00F02BF800F005F800F016FF87
:104370000121017010BDFEB5E020FDF7CDFB01204D
:10438000FDF7C4FB01248DF8084008258DF809507D
:1043900000278DF80A708DF80B4002A8FDF762FB2C
:1043A00026043046FDF7B6F900968DF804708DF8B6
:1043B00005508DF806406846FDF7C2F9FEBD7CB594
:1043C00000240420FCF758FB45F25005A8424FD0CA
:1043D000FCF748FB0120FDF747FC04E0641CE4B255
:1043E0000A2000F00BF94120FDF726FC0028F5D04B
:1043F000FA2C01D301207CBD4FF48070FDF74EFCF8
:104400000120FDF745FCFDF7EDFDFDF7F3FD012172
:104410000220FDF72FFDFDF7E5FDFDF74FFC002025
:10442000FDF7C0FDFDF7DEFD47F6FF70FDF7CAFDA5
:10443000FDF7D8FD00200224CDE9004040F2E776E8
:104440000B23092205213046FDF732FD1421CDE969
:1044500000410B23092205213046FCF787FAFDF7BE
:10446000C1FDFDF733FC29460420FCF70FFB07E0F4
:10447000FDF7C0FD01210220FDF7FCFCFDF7B2FDB8
:1044800000210320FDF704FDFDF728FC00207CBD82
:1044900010B50A4C8318A34201D9012010BD0AB1FE
:1044A000002306E0012010BD10F8014B01F8014B7C
:1044B0005B1C9342F8D3002010BD000000000408EC
:1044C0002DE9F04107468846164604252549B819C6
:1044D000884202D90120BDE8F0811EB1F00703D067
:1044E0000120F8E70020F6E7324641463846FFF75C
:1044F00011FF044654B1012080F31088FDF7B4F990
:104500003520FDF757F9022C02D00BE00020E2E73E
:104510003846FFF71DFFFDF753F90546042D01D07E
:104520000220D8E700240EE018F8140008EB44013C
:10453000497840EA01213846FDF77CF90546042D0B
:1045400004D1BF1C641CB4EB560FEDD3FDF76AF920
:10455000002080F31088042D01D00220BBE700204A
:10456000B9E700000000040830B5DDE9034501604B
:104570008280C3800481458130BD027BC37A42EAD8
:1045800003220A80827B437B42EA03224A80027C28
:10459000C37B42EA03228A80827C407C42EA00207C
:1045A000C880704710B50849FBF7BCFE0749FBF708
:1045B00087FEFBF78EFF81B205480180BDE8104001
:1045C0000020FCF789BF00003333534000F07F45E3
:1045D0002200002010B50749FBF7A4FE0649FBF7AF
:1045E0006FFEFBF776FF81B2BDE810400020FCF7BC
:1045F0007DBF00003333534000F07F4510B50022EB
:10460000044C04E02146491E4B1CFCD1521C824242
:10461000F8DB10BD4019010030B591B0012108460A
:10462000FDF784FA484D2846FCF784FF474801907F
:1046300047480290002403943C2104910594802172
:1046400006914900079188000890202009900002F7
:104650000A900B9401A92846FCF7EBFF012128469C
:10466000FCF75AFF01214802FDF77CFA0021394886
:10467000FCF763FA00213848FCF75FFA002137485D
:10468000FCF75BFA00213648FCF757FA0021354861
:10469000FCF753FA00213448FCF74FFA0C94012040
:1046A0008DF834008DF835004FF460200E900F9493
:1046B00006208DF84000254C0CA94C3C2046FCF708
:1046C000E1F80723012206212046FCF7FFF8072323
:1046D000022219462046FCF7F9F807230322082195
:1046E0002046FCF7F3F80723042209212046FCF7B3
:1046F000EDF8072305220E212046FCF7E7F80723F3
:1047000006220F212046FCF7E1F801212046FCF7A4
:104710009FF801212046FCF78FF82046FCF710F99E
:104720002046FCF7A8F80028FAD12046FCF719F932
:104730002046FCF799F80028FAD101212046FCF721
:1047400004F911B030BD0000080002404C240140C3
:1047500024040020C4660008CC660008F466000843
:10476000FC6600087C6700088467000830B591B0DB
:1047700001210220FDF7DAF9484D2846FCF7DAFE60
:104780004748019047480290002403943C2104913B
:104790000594802106914900079188000890202007
:1047A000099000020A900B9401A92846FCF741FFEA
:1047B00001212846FCF7B0FE0121C803FDF7D2F91C
:1047C00000213948FCF7B9F900213848FCF7B5F960
:1047D00000213748FCF7B1F900213648FCF7ADF964
:1047E00000213548FCF7A9F900213448FCF7A5F968
:1047F0000C9401208DF834008DF835004FF46020C2
:104800000E900F9406208DF84000254C0CA94C3CCE
:104810002046FCF737F80723012200212046FCF749
:1048200055F80723022201212046FCF74FF8072301
:1048300003220A212046FCF749F8072304220B2112
:104840002046FCF743F8072305220C212046FCF7FD
:104850003DF8072306220D212046FCF737F80121F9
:104860002046FBF7F5FF01212046FBF7E5FF204638
:10487000FCF766F82046FBF7FEFF0028FAD1204639
:10488000FCF76FF82046FBF7EFFF0028FAD1012173
:104890002046FCF75AF811B030BD00005804024021
:1048A0004C3C01409C040020946600089C66000873
:1048B0005C670008646700086C670008746700089C
:1048C00008B5002100910323632240F60F61FCF735
:1048D00031FA08BD70B586B000240F480525A0F157
:1048E00008034FF6FF7600900194CDE9024540F2AF
:1048F000CF22314604940948FCF76CF9064B019429
:10490000CDE90245049408332F223146044800942F
:10491000FCF760F906B070BD9C0000200008004064
:104920000034014000B51A49002801D00020087069
:10493000087808B1002000BD01200870154B991DB2
:10494000184600F051F808B1012000BDD91D581CCF
:1049500000F04AF808B1022000BD0E49981C083149
:1049600000F042F808B1032000BD0A49D81C093103
:1049700000F03AF808B1042000BD0649181D0A31BC
:1049800000F032F808B1052000BD002000BD000095
:1049900024000020F003002070B5104D04212846AB
:1049A000FCF7D9FF0E4C207002212846FCF7D3FFFC
:1049B000E07020210B48FCF7CEFF607008212846EC
:1049C000FCF7C9FFA07001212846FCF7C4FF207145
:1049D0000120FFF7A7FFE07270BD00000018014042
:1049E000F003002000080140024600201278002A4F
:1049F00002D0012A06D103E00A78521C0A7001E0B5
:104A000000220A7009780A2900D9012070470000A5
:104A10002DE9FC470646DDE90A950C9C0F469046B9
:104A200018461021FCF789F8CDE900544B46424660
:104A300039463046FCF77CFA80213046FEF792FA80
:104A4000FCF736FA40213046FEF78CFAFCF730FAD4
:104A5000024901200860BDE8FC870000BC812242B9
:104A60003EB505460C4618210848FCF766F8482173
:104A70000748FCF762F8CDE90154022000900723B3
:104A8000082200210348FCF70BF83EBDE46600084D
:104A9000DC660008006400401FB501214807FDF7EF
:104AA00053F800210A48FCF748F8002000900190D4
:104AB00002900220039069460020FCF7F9FC0121D6
:104AC0000020FCF7E5FC00210846FCF705FD1FBDB2
:104AD000B46600081FB501214807FDF735F800212D
:104AE0000A48FCF72AF8002000900190029002206A
:104AF000039069461020FCF7DBFC01211020FCF735
:104B0000C7FC00210846FCF7F1FC1FBDBC6600088D
:104B10007CB50546DDE90640CDE900402846FCF7B6
:104B200007FA80212846FEF71DFAFCF7C1F940215B
:104B30002846FEF717FABDE87C40FCF7B9B970B516
:104B400005460C4645F25550FCF76CFF2846FCF72D
:104B50005DFF2046FCF760FFFCF750FFBDE87040AA
:104B6000FCF742BF2DE9FE4300F07EF800F024FA86
:104B700090F82C00C00701D100F0CEF9002441F6D6
:104B80001F4506232A4663214FF080400094FCF71E
:104B9000D1F805232A46632127480094FCF7CAF878
:104BA000FFF73AFDFFF7E2FD2448FFF789FE2448AE
:104BB000FFF786FEFFF770FFFFF78CFFFFF78AFE17
:104BC00000210220FFF74CFF40F27D5540F61D0703
:104BD000CDE9007540F22A3840F27F7643463246EE
:104BE00040F20A211748FFF7BFFC2B46424640F22D
:104BF00009211548CDE90067FFF7B6FC0420CDE98F
:104C000000044FF4E133114A11491248FFF780FFC5
:104C10000320CDE901044FF4165100910E4B0F4AC9
:104C20000F491048FFF7F4FE03B040F63541BDE8E8
:104C3000F0430420FFF783BF000C00400010004049
:104C400000140040D8030020E4030020AC660008F4
:104C5000A4660008004400400C680008346700089F
:104C60002C6700080048004010B510218348FBF76E
:104C700064FF10218248FBF760FF28218148FBF781
:104C80005CFF10218048FBF758FF28217F48FBF785
:104C900054FF28217E48FBF750FF28217D48FBF771
:104CA0004CFF28217C48FBF748FF28217B48FBF775
:104CB00044FF10217A48FBF740FF10217948FBF7A9
:104CC0003CFF10217848FBF738FF10217748FBF7AD
:104CD00034FF10217648FBF730FF10217548FBF7B1
:104CE0002CFF10217448FBF728FF10217348FBF7B5
:104CF00024FF10217248FBF720FF10217148FBF7B9
:104D00001CFF10217048FBF718FF10216F48FBF7BC
:104D100014FF10216E48FBF710FF10216D48FBF7C0
:104D20000CFF10216C48FBF708FF10216B48FBF7C4
:104D300004FF28216A48FBF700FF28216948FBF798
:104D4000FCFE28216848FBF7F8FE28216748FBF79E
:104D5000F4FE28216648FBF7F0FE28216548FBF7A2
:104D6000ECFE28216448FBF7E8FE28216348FBF7A6
:104D7000E4FE28216248FBF7E0FE28216148FBF7AA
:104D8000DCFE28216048FBF7D8FE28215F48FBF7AE
:104D9000D4FE28215E48FBF7D0FE3848FBF7E0FE42
:104DA0003748FBF7DDFE3748FBF7DAFE3648FBF7FE
:104DB000D7FE3648FBF7D4FE3548FBF7D1FE354821
:104DC000FBF7CEFE3448FBF7CBFE3448FBF7C8FEBA
:104DD0003348FBF7C5FE3448FBF7C2FE3348FBF708
:104DE000BFFE3348FBF7BCFE3248FBF7B9FE324842
:104DF000FBF7B6FE3148FBF7B3FE3148FBF7B0FED8
:104E00003048FBF7ADFE3048FBF7AAFE2F48FBF712
:104E1000A7FE2F48FBF7A4FE2E48FBF7A1FE2E4865
:104E2000FBF79EFE2D48FBF79BFE2D48FBF798FEF7
:104E30002D48FBF795FE2D48FBF792FE2C48FBF71B
:104E40008FFE2C48FBF78CFE2B48FBF789FE2B4886
:104E5000FBF786FE2A48FBF783FE2A48FBF780FE15
:104E60002948FBF77DFE2948FBF77AFE2848FBF727
:104E700077FE28480121C161016010BDD466000899
:104E8000EC660008246700083C67000844670008D7
:104E90004C670008546700086468000894670008BD
:104EA000046700081C6700089C670008A4670008E6
:104EB000AC670008BC670008C4670008B467000856
:104EC000CC670008D4670008DC670008E4670008C6
:104ED000EC670008F4670008FC6700080468000835
:104EE000146800081C680008246800082C68000882
:104EF000346800083C680008446800084C680008F2
:104F0000546800085C6800086C6800087468000851
:104F10007C680008A001214210B5084C0120E06027
:104F200020620749C1F8B0012060A0626420FFF749
:104F300065FB0020A062206210BD0000908122422B
:104F40000080214210B50C460068904205D100F067
:104F500033F8C16A2143C16210BD00F02DF8C16A67
:104F6000A143C16210BD000010B5002821D0114B33
:104F70000022001F196803E0814203D80A464968ED
:104F80000029F9D152B11368841A9C4204D10068F7
:104F900018441060104602E0506000E0186039B11B
:104FA00002680B1A934203D10B681A4402604968E5
:104FB000416010BDF80100200048704754030020F4
:104FC00001480078704700000700002070B50446D3
:104FD0000D46032D0AD02846FBF76EFA00F0E2FEDC
:104FE000FBF78BFA2C4024FA00F070BD04F00300AC
:104FF00070BD0000004870470400002010B5044652
:105000002046FBF766FAFBF752FA2146FBF755F903
:105010000349FBF755F9FBF75CFAC0B210BD00007D
:105020000000C842004870479C02002000487047BA
:1050300009000020004870473403002070B5044682
:105040000D462846FBF738FA00F0ACFEFBF755FAA0
:105050002C4024FA00F070BD004870470500002085
:105060000148407870470000070000200649020010
:1050700005D0012A07D105480068FBF721B904488B
:105080000068FBF71DB97047000040409000002009
:105090007400002008407047004870471802002044
:1050A0002DE9F04105460E4617463146284600F0E8
:1050B00098FA04462888B04202D23846BDE8F0810A
:1050C000B5F8C800B04205D33846BDE8F0411049F4
:1050D000FBF79EB8611C35F8140015F81110411A41
:1050E000C9B2801B00EB8000400090FBF1F0FBF7A1
:1050F000D5F9054604EB84004000FBF7D8F93946A2
:10510000FBF786F82946BDE8F041FBF781B80000BF
:1051100000007A440048704724020020004870478D
:10512000BC02002000487047C803002000487047B8
:10513000D002002010B5010014D0012916D0022998
:1051400018D003290DD1FFF737FF016A1148006815
:10515000FBF7B6F80146FFF7E9FF8161FFF7E6FFCD
:10516000806910BDFFF7E2FFC06810BDFFF7DEFFEA
:10517000006910BDFFF720FF016A07480068FBF7D0
:105180009FF80146FFF7D2FF4161FFF7CFFF40696B
:1051900010BD0000880000208C00002000487047EF
:1051A000B8030020F0B587B0002600251C4F00246E
:1051B00004EB440007EB800030F81500FBF777F9AB
:1051C0003146FBF725F80646641CE4B20A2CEFD3FF
:1051D00014493046FBF774F801A941F82500002670
:1051E0006D1CEDB2062DE2D30F490198FBF768F86C
:1051F0000E4C60600E490298FBF762F8A0600398BD
:10520000E0600C490498FBF75BF820610A490598B7
:10521000FBF756F860610698A06107B0F0BD00008A
:1052200024040020CDCCCC3D810C483D3000002032
:10523000A10F7A3E010A203B00088039F0B587B003
:1052400000260025244F002404EB440007EB8000D7
:1052500030F81500FBF72BF93146FAF7D9FF06466F
:10526000641C0A2CF0DB3046FBF760F91B4A1C4B30
:10527000FBF7A2F8FBF76DF901A941F8250000261C
:105280006D1C062DDFDB17490198FBF719F8164C4A
:10529000E06116490298FBF713F82062144903985D
:1052A000FBF70EF86062134D04982946FBF702F8ED
:1052B000114E3146FBF704F8A06210490598FAF741
:1052C000FFFFE06229460698FAF7F4FF3146FAF745
:1052D000F7FF206307B0F0BD9C0400209A999999CC
:1052E0009999B93F410B343D300000206109163EC9
:1052F000365C434000C04C44010AA03900088039A4
:105300002DE9F0410546E87801280BD002280ED09F
:10531000032811D0042803D1FFF79EFE29790170DC
:10532000BDE8F081FFF7B8FE29794172F8E7FFF791
:1053300061FE29790170F3E704240020264E2146FE
:10534000641C695CE4B23154401CC0B20228F6D33C
:10535000FFF7E0FE3188018000202146641C695C73
:10536000E4B23154401CC0B20228F6D33088FBF7B7
:105370009EF81A4F3946FAF7A3FF8046FFF7CAFE98
:10538000C0F8048000202146641C695CE4B23154FA
:10539000401CC0B20228F6D33088FBF788F83946A3
:1053A000FAF78EFF8046FFF7B5FEC0F808800020B0
:1053B0002146641C695CE4B23154401CC0B202282E
:1053C000F6D33088FBF773F83946FAF779FF0446CD
:1053D000FFF7A0FEC460A3E7020000200AD7233C29
:1053E00010B5FDF763FD04462078C52815D1607817
:1053F000642812D1A178201F085CA9280DD1E01ED5
:10540000085CD42809D12046FDF79BFE002804D073
:105410002046BDE81040FFF773BF10BD70B50646CB
:105420003046FDF771FD0446AD202070B520607058
:105430000020A070FFF730FE0068FBF74AF8E0702C
:10544000FFF72AFE0068FFF7D9FD05252071FFF759
:1054500023FE4068FBF73DF81449088000202A46E7
:105460000B5C6D1CEDB2A354401CC0B20228F6D3F5
:10547000FFF712FE027A681CC1B262550D22481C69
:10548000C0B26254AA21421C2154921CD1B2A17014
:105490002046FBF7D5FA80213046FDF763FDA27860
:1054A0002146BDE87040FBF7D5BD0000000000209C
:1054B00010B5002080F31088FDF762FFFDF774FE41
:1054C000FEF749FFFFF74EFBFDF74AFF00F0AAFD8C
:1054D000002010BDF0B50B30154D20F00701002461
:1054E000144A0FE003688B420BD38B4205D95E1A36
:1054F00043184768C3E9006700E04368136002C0CF
:1055000004E0021D10680028ECD12046002802D1DA
:10551000286808B10020F0BD064A07481060074A15
:10552000121A22F00702C0E9002401202860D7E700
:10553000FC010020F8010020AC7B0020A87D0020A9
:105540002DE9F05F054688464FF000094FEA8800D4
:10555000FFF7C0FF0446002005E055F8201044F88E
:105560002010401CC0B24045F7D30027A8F1010A23
:105570001AE00025A8EB070BABF1010B10E06E1C45
:1055800054F8250054F82610FBF70AF807D254F80F
:10559000250054F8261044F8251044F82600F5B2EA
:1055A000AB45ECDC7F1CFFB25745E2DB012507E091
:1055B00054F825104846FAF72BFE81466D1CEDB2D3
:1055C0005545F5DBA8F10200FAF768FF01464846A9
:1055D000FAF7A8FE05462046FFF7C6FC2846BDE8B8
:1055E000F09F30B50446002264232088884201D809
:1055F000002030BDB4F8C80088420BD3642030BD11
:10560000D018400834F810508D42F8D001D203462B
:1056100000E00246A3EB02000128F1DC104630BD99
:1056200070B504460B4D28684460E868844206D291
:105630002968686B091DBDE8704000F0F9BB296856
:10564000286B091D00F0F4FBA86A844200D2AC620A
:1056500070BD00009C01002070B5002908D00D46E7
:105660007DB14C2000F07CF9044634B1256309E09B
:10567000800000F075F90546F2E7284600F02CFCA2
:1056800000E00024204670BD70B5124E124D1CE0A3
:1056900000F0F2FC306820B1002400F03DFEA4B917
:1056A00001E00124F9E700F0E7FBF068C468201D81
:1056B00000F09EFBA868401EA8606868401E6860F5
:1056C00000F0F6FB204600F009F868680028DFD1FA
:1056D00070BD00007C1700209C01002010B504461E
:1056E000206B00F0F9FB2046BDE8104000F0F4BB51
:1056F0004FF4C8410F48420706D0C01D20F00700F4
:105700000C49411AC1F5C8410B4A1060002353608F
:105710000144083921F00701103A11604B600B6019
:105720000B1A436001604068906050604FF0004089
:10573000D0607047A4170020F0010020044CFFF750
:10574000A3FF20680128FAD900F0F4FBF7E7000076
:10575000A016002070B504461546002023180A5CE8
:1057600083F834200A5C12B1401C1028F6D30026BE
:1057700084F84360082D00D30725E562201D00F062
:1057800054FB04F1180000F050FB2461C5F108003F
:10579000A0616462666484F8486070BD70B50024DE
:1057A000124D04EB840005EB800000F033FB641C19
:1057B000082CF6D30D48A03000F02CFB0B48B43079
:1057C00000F028FB0948C83000F024FB0748DC3013
:1057D00000F020FB0548F03000F01CFB03490448B2
:1057E000A03101631431416370BD0000A016002098
:1057F0009C01002030B5134900E011460A6882423E
:10580000FBD34B685C18844203D14068184448605D
:1058100008460D6844682318AB420DD1094B103B74
:105820001B689A4206D05268224442600A68126895
:10583000026002E0036000E00260814200D0086084
:1058400030BD0000F00100200748016B0968002905
:1058500005D0016BC968C9684968816270474FF01B
:10586000FF318162704700009C01002004484068BD
:10587000401C02D0FAF7ACFCFEE7FAF7A9FCFEE701
:10588000D401002010B5FFF797FB41682C48FAF7C8
:1058900049FD0146FFF742FC0161FFF73FFC00783C
:1058A000284C002168B1C4F89C11FFF737FCC06890
:1058B000FEF778FEFFF732FCC068BDE81040FEF747
:1058C00089BEFFF7AFFBC161FFF7ACFB40691E4A21
:1058D00090421BDCFFF722FCC160FFF71FFCC06891
:1058E000FEF760FEFFF71AFCC068FEF773FE0120AA
:1058F000C4F89C01FFF760FB90F8370000281ED029
:105900000521BDE81040022000F0A8B8FFF706FC12
:1059100000F10C04C0684FF0FF31FAF741FD206040
:10592000FFF7FCFBC068FEF73DFEFFF7F7FBC06822
:10593000FEF750FEBDE81040642000F007BB10BD2C
:105940000000C040008022420000204110B5044603
:1059500001202060084600F0F9FA0020206010BD08
:105960002DE9F0410546002600F086FB294F3868F6
:1059700008B9FFF7BDFEF868054240D165B10835AA
:10598000680709D005F00700C0F108000544680762
:1059900002D0FAF71DFCFEE78DB3786885422ED859
:1059A0001C4910310846046801E02146044660683D
:1059B000A84202D220680028F7D1386884421ED05D
:1059C0000E680836206808606068411B102909D9F4
:1059D0006019420702D0FAF7FBFBFEE74160656001
:1059E000FFF708FF61687868401A7860BA689042EB
:1059F00000D2B860F868014361600020206000F0C8
:105A00008BFC700702D0FAF7E3FBFEE73046BDE8F7
:105A1000F0810000E001002020384FF08073C36166
:105A200081610249416140F8202970476D580008A2
:105A300010B50C46FDF73AFA017821290DD14178CD
:105A400033290AD1C178112907D100228118097997
:105A5000A154521CD2B2042AF8D310BD00B5034A97
:105A60001070FFF7A9FA80F8301000BD0700002081
:105A700070B5FFF7BFFA00780321FFF7A7FA0146D8
:105A8000FFF7D0FA0171FFF7CDFA007928B1684D20
:105A900001283AD0022827D16FE0FFF78DFA41683C
:105AA0006448FAF73FFC0146FFF740FB4162FFF70D
:105AB00083FA90F83600C0B1FFF7B4FA8079FFF7A7
:105AC000D5FA0146FFF7AEFA8160FFF7ABFA8168BD
:105AD000FFF72CFBC069FAF763FD05D8FFF7A2FAC0
