:020000040800F2
:10000000E0830020ED010008211800085D170008BA
:100010001F1800083D0F0008A92A00080000000072
:10002000000000000000000000000000490100087E
:100030001D150008000000008D0100083D1E00088D
:10004000070200080702000807020008B91B0008A1
:10005000070200080702000807020008070200085C
:10006000070200080702000807020008070200084C
:10007000070200080702000807020008070200083C
:10008000070200080702000807020008070200082C
:100090003D2A0008070200080702000807020008BE
:1000A000070200080702000807020008070200080C
:1000B0000702000807020008952000080702000850
:1000C00007020008070200080702000807020008EC
:1000D0000702000807020008DD250008492600087D
:1000E00007020008070200080702000807020008CC
:1000F00007020008070200080702000807020008BC
:1001000007020008070200080702000807020008AB
:1001100007020008070200085D21000825220008E8
:10012000070200080702000807020008070200088B
:10013000DFF810D000F0A6FA00480047053B0008A1
:10014000AFF30080E0830020204B19680868B0E816
:10015000F00F80F30988BFF36F8F4FF0000080F33A
:1001600011884EF00D0E7047000000000648006830
:10017000006880F3088862B661B6BFF34F8FBFF3A3
:100180006F8F00DF00BF00BF08ED00E0EFF30980D4
:10019000BFF36F8F0D4B1A6820E9F00F106008B5A0
:1001A0004FF0100080F3118804F014F84FF00000B5
:1001B00080F31188BDE8084019680868B0E8F00FBE
:1001C00080F30988BFF36F8F704700BF980100204C
:1001D000EFF311804FF0100181F31188704780F325
:1001E00011887047EFF3058070470000064880478C
:1001F00006480047FEE7FEE7FEE7FEE7FEE7FEE70C
:10020000FEE7FEE7FEE7FEE7611E00083101000899
:10021000F0B480EA0102D40F4200B2EB410F02D2E7
:100220000246084611464A0042D0C30DDDB2C1F372
:10023000C752AD1A202D35DAC1F3160141F4000280
:1002400004B15242C5F1200602FA06F12A411044D7
:10025000B3EBD05F23D0C4B1012DA0EBC35009DCB8
:10026000F0BC4FF0004202EAC352DBB200F50000DE
:1002700000F07DB9400000F1807000EBC350A0F1A8
:10028000807040EAD170490009E0490841EAC07134
:10029000A0EBC35000F50000400800EBC350F0BCD9
:1002A00000F05CB96142012202EB4101001BF6E75C
:1002B000F0BC704781F00041AAE780F00040A7E75A
:1002C00080EA010210B502F00043400022D04A004B
:1002D0001FD0010E01EB1261C0F35600C2F35602AB
:1002E00040F4000042F40002A0FB022000047F3929
:1002F000140400D0401C50EA124001D44000491EB2
:10030000C2B20C0604EBD010401C4008802A02D078
:1003100003E0002010BD20F00100002900DA0020D9
:10032000184310BD30B480EA010202F0004530F0FD
:10033000004221F0004013D090B1C30DD40DC2F3A0
:100340001601C0F31600E41A41F4000140F4000263
:100350007D34914201D3641C00E04900002C02DA94
:1003600030BC002070474FF400000023914201D3BD
:10037000891A034340084FEA4101F7D151B1914234
:1003800002D14FF0004105E002D24FF0010101E03F
:100390006FF0010103EBC450284430BC00F0DEB81C
:1003A0002DE9FE4F81EA030404F0004421F00041EE
:1003B00000944FF0000B23F0004350EA01045ED09C
:1003C00052EA03045BD0C3F30A54C1F30A552C4428
:1003D000A4F2F3340194A0FB0254C1F3130141F4DD
:1003E0008011C3F3130343F4801301FB024400FBA9
:1003F000034E840A970A44EA815447EA8357A4FBD0
:10040000076802958D0A05FB07854FEA932C04FBCC
:100410000C542705029D4FEA065847EA1637B5EBFC
:1004200008056EEB070C870E920E47EA811742EA29
:100430008312A7FB0201B6EB0B0164EB00042B0D4A
:1004400043EA0C335E1844EB1C50DA465146E7FB96
:100450000201C5F313044FEA0B3343EA14534FEA86
:100460000432019C43EA0603A4F10C040294009CAC
:10047000CDE900B400F0B8F803B0BDE8F08F00207B
:100480000146F9E7C10F80EAE0700844CA079623E5
:10049000002100F06CB896230022114600F067B8E6
:1004A00020F00040C10DC0F3160040F400007F2989
:1004B00001DA00207047962903DCC1F19601C8409B
:1004C000704796398840704700F0004230F0004095
:1004D0000AD0C10D01F56071C0F3160042EA015166
:1004E000C20840071143704700200146704701F0E1
:1004F000004330B421F0004150EA010206D00A0D59
:10050000A2F56072C1F31301002A02DC30BC0020A6
:100510007047440F44EAC104C100E01830BC00EB4E
:10052000C25000F01BB80000002801DBC0F1004001
:10053000002901DBC1F1004188427047202A04DB19
:10054000203A21FA02F00021704721FA02F3D0404C
:10055000C2F1200291400843194670470029A8BF04
:100560007047401C490008BF20F00100704710B4DC
:10057000B0FA80FC00FA0CF050EA010404BF10BC91
:10058000704749B1CCF1200421FA04F411FA0CF1BE
:1005900018BF012121430843A3EB0C01CB1D4FEAF7
:1005A00000614FEA102042BF002010BC704700EBF2
:1005B000C35010440029A4BF10BC7047401C490020
:1005C00008BF20F0010010BC704710B5141E73F175
:1005D000000408DA401C41F1000192185B411A4303
:1005E00001D120F0010010BD2DE9F04D92469B464F
:1005F00011B1B1FA81F202E0B0FA80F220329046F5
:1006000000F052F804460F4640EA0A0041EA0B01A6
:1006100053465A46084313D0114653EA010019D0F5
:10062000C8F140025046FFF789FF05460E46504686
:100630005946424600F038F8084305D0012004E04E
:1006400020463946BDE8F08D0020054346EAE076B5
:100650002C4337430A986305E40AA0EB0800002204
:10066000FD0A44EA47540A3002D500200146E9E772
:10067000010510196941DDE9084500196941BDE826
:10068000F04DA2E7064C074D06E0E06840F001039C
:1006900094E8070098471034AC42F6D3FFF74CFDBE
:1006A000EC4700080C480008202A04DB203A00FA36
:1006B00002F1002070479140C2F1200320FA03F3B9
:1006C00019439040704770B58C1810F8015B15F015
:1006D000070301D110F8013B2A1106D110F8012BB4
:1006E00003E010F8016B01F8016B5B1EF9D12B07D9
:1006F00005D40023521E0DD401F8013BFAE710F88F
:10070000013BCB1A921C03E013F8015B01F8015B7B
:10071000521EF9D5A142D8D3002070BD002904D0C3
:10072000816841F0010181607047816821F0010119
:1007300081607047002904D0816841F48071816034
:100740007047816821F48071816070470146002004
:100750008968490700D50120704701460020896853
:10076000090700D50120704710B542680E4B1A40AA
:100770000C790B6842EA04221343436082680B4BF6
:100780001A40D1E9024323434C7942EA440213431D
:100790008360C26A22F47002097C491EC9B242EA2F
:1007A0000151C16210BD0000FFFEF0FFFDF7F1FF37
:1007B00070B5072609290AD9C568A1F10A0404EB16
:1007C0004404A640B543A3401D43C56007E0056946
:1007D00001EB4104A640B543A3401D4305611F231F
:1007E000072A09D2446B521E02EB820293409C43BB
:1007F00091400C43446370BD0D2A09D2046BD21F93
:1008000002EB820293409C4391400C43046370BD11
:10081000C46A0D3A02EB820293409C4391400C4320
:10082000C46270BD816841F0080181607047002991
:1008300004D0816841F4A00181607047816821F48F
:10084000A00181607047816841F0040181607047B8
:100850002DE9F05F0646DDF828A089469046002481
:10086000A6F2B270822802D30120BDE8F09F40F2C8
:10087000B275284FDFF8A0B008E0284600F0B8FFB6
:1008800008B13C4400E05C446D1CADB2B542F4D309
:10089000A9F1010909F0FF070025DFF88090DFF8D2
:1008A00080B00FE019F8050040F2A321484304EBA3
:1008B000C014304600F09CFF10B1012D00D15C4403
:1008C0006D1CADB2BD42EDD3A8F1010840F2A320EA
:1008D00008FB00F804EBC810C3EB4311C1EB032184
:1008E00000EB0110CAEB0A1100EB81000B994418D0
:1008F00001214FF0C05000F0E5FF012000F0CEFFD5
:1009000001F09AF8204601F0FBF901F029FA0020E5
:10091000ABE700000085E2018033E101E047000819
:100920008051010030B505460C46002D0BD0022C3D
:1009300009D9A01EC1B2284600F0F4FE291901F819
:10094000020D000A487030BD10B5012000F0D6FF3E
:10095000BDE81040002000F0D1BF000008B50349F9
:10096000084400900098008808BD0000006C00401A
:1009700008B5034A104400900098016008BD0000CB
:10098000006C00402DE9F04788B00746DDE910A86B
:10099000DDF848900E4614461D460121480600F039
:1009A00091FF8DF818408DF819508DF81760ADF84B
:1009B00014A000248DF81A4001258DF81B500794CF
:1009C0008DF8164005A9384600F0F0FB8DF80A4076
:1009D0008DF80B408DF80C50ADF80040ADF802409A
:1009E000ADF80440ADF80640ADF808408DF80D5064
:1009F000684600F001FB01220221384600F0CCFBE2
:100A000014208DF810008DF811808DF812908DF85B
:100A1000135004A800F006FF08B0BDE8F08738B511
:100A200004460D46204600F00DF8A088ADF8000001
:100A30008DF8035003208DF802006946206800F00D
:100A4000E5FD38BD124A0168914201D104201CE045
:100A5000104A914201D1082017E00F4A914201D17A
:100A6000102012E00D4A914201D120200DE00C4AE5
:100A7000914201D1402008E00A4A914201D18020F0
:100A800003E0094A914200D18815012100F028BFF6
:100A900000080140000C014000100140001401401A
:100AA00000180140001C0140002001402DE9FF4FCB
:100AB00087B00F46DDE9169BDDE9148A16461D4610
:100AC000079800F0CFF81DB128212868FFF7A7FF8D
:100AD000B8F1000F04D02821D8F80000FFF79FFFDD
:100AE000BAF1000F03D028212868FFF798FFB9F169
:100AF000000F04D02821D9F80000FFF790FFADF8CF
:100B000010600026ADF81260ADF81470ADF81660F4
:100B100004A9079801F014FD012785B144F00204EF
:100B2000ADF80460A888ADF80600ADF80870ADF81F
:100B30000A60ADF80C6001A9079801F0F3FBB8F169
:100B4000000F11D044F004040420ADF80400A8887C
:100B5000ADF80600ADF80870ADF80A60ADF80C60AD
:100B600001A9079801F0DEFBBAF1000F11D044F0A3
:100B700008040820ADF80400A888ADF80600ADF818
:100B80000870ADF80A60ADF80C6001A9079801F093
:100B9000C9FBB9F1000F11D044F010040C20ADF8DE
:100BA0000400A888ADF80600ADF80870ADF80A603A
:100BB000ADF80C6001A9079801F0B4FB44F0010105
:100BC0000122079801F0F4FB0121079801F091FB45
:100BD000BBF1FF0F11D01898FF280ED0079801F035
:100BE00077FC8DF800008DF801B018988DF80200A0
:100BF0008DF80370684600F015FE0BB0BDE8F08F6D
:100C00002DE9FF4180460A9F0C4616461D46404688
:100C100000F028F8ADF80840ADF804600021ADF808
:100C20000610ADF80A1001A9404601F089FC012226
:100C30001146404601F0BCFB0121404601F059FB42
:100C4000404601F045FC8DF800008DF801508DF80C
:100C5000027001208DF80300684600F0E3FDBDE856
:100C6000FF8100003149884203D10121C01400F006
:100C700037BEB0F1804F06D02D49884207D10121FF
:100C8000022000F01FBE0121084600F01BBE2949CA
:100C9000884203D10121042000F014BE2649884275
:100CA00003D10121082000F00DBE2449884203D160
:100CB0000121102000F006BE2149884203D1012104
:100CC000202000F0FFBD1F49884203D101214014BC
:100CD00000F006BE1C49884203D10121C80400F07F
:100CE000FFBD1A49884203D10121080500F0F8BD73
:100CF0001749884203D10121480500F0F1BD15498B
:100D0000884203D10121402000F0DCBD1249884215
:100D100003D10121802000F0D5BD1049884203D1C4
:100D20000121801500F0CEBD70470000002C01406D
:100D30000004004000080040000C0040001000408B
:100D40000014004000340140004C014000500140BC
:100D50000054014000180040001C004000200040EA
:100D600030B58BB004462078002829D0012102201C
:100D700000F09AFD606800F035FBA068001D00904F
:100D80006078002508B30295A06801F043FD01904A
:100D9000A06801F0E3FD039004958020059006957E
:100DA000079508954FF4405009900A956946606888
:100DB00000F097FB0121606800F006FB0BB030BD2E
:100DC0000121084600F070FDD4E710200290A068D1
:100DD00001F04EFD0190A06801F0E6FD0390DBE715
:100DE0002DE9F04385B00646DDE90C780C46154642
:100DF0009946304600F058F81CB118212046FFF7FC
:100E00000EFE1DB104212846FFF709FECDF8009023
:100E10000020ADF80400ADF80600ADF80800ADF80C
:100E20000C000C20ADF80A006946304601F094FC35
:100E3000DFF87090FF2F20D0B8F1FF0F1DD03046A3
:100E400001F0D8FD8DF810008DF811708DF812802A
:100E500001208DF8130004A800F0E4FC4E4506D0F4
:100E6000012240F22441304601F05AFC05E0012203
:100E700040F22551304601F053FC4E450BD024B1D1
:100E800001228021304601F021FC25B101224021C0
:100E9000304601F01BFC0121304601F00BFC05B08F
:100EA000BDE8F083005000401149884203D1012180
:100EB000880300F015BD0F49884203D10121480481
:100EC00000F000BD0C49884203D10121880400F0E4
:100ED000F9BC0A49884203D10121C80400F0F2BCE0
:100EE0000749884203D10121080500F0EBBC704797
:100EF000003801400044004000480040004C0040E1
:100F00000050004070B504460D461646606800F07B
:100F1000E5FA0028FAD10021606800F055FAD4E91A
:100F20000301084300F044FA6068C56060684660E9
:100F30006068BDE87040012100F046BAFEE700009D
:100F40000A4A914202D1002181617047C1F3130224
:100F50008B0101D5C26070474B0101D5026170471A
:100F6000090101D582607047426070477000F0301F
:100F700030B5082310240422B1F5007F33D011DCF2
:100F800020292AD007DC012922D0042923D00829CE
:100F900000D1C46030BD402921D0B1F5807FF9D1A6
:100FA000426030BD0025B1F5004F20D008DCB1F51E
:100FB000806F1AD0B1F5006FF3D18561426030BD0A
:100FC000B1F5803F0DD0B1F5003FF8D1446030BDA0
:100FD0000849816030BDC36030BD036130BD04612C
:100FE00030BD436030BD426030BD426030BD856180
:100FF000426030BD01010100F0B5827A01219140CB
:10100000304C226842F0010222602E4D1C352A68C5
:101010008A432A602B4A067B0C322B4B002E14D1BC
:1010200016688E4316604688C78846EA0746877A60
:1010300003EBC707C7F840660688878846EA074675
:10104000877A03EBC707C7F84466067B012E14D1E5
:1010500016680E4316604288068842EA0642867A7F
:1010600003EBC606C6F84026C288868842EA0642D6
:10107000867A03EBC603C3F84426124AC37A121DCC
:101080003BB113680B4313600E4A0389143223B13A
:1010900006E013688B431360F6E713688B43136015
:1010A0000389012B02D113680B431360407B012895
:1010B00002D1286808432860206820F001002060E1
:1010C000F0BD0000006600400060004002460020C5
:1010D00053690B425DD0B1F5807F4AD016DC0829F8
:1010E00037D009DC01292CD002292ED0042950D177
:1010F000D068082100F01DB910292ED0202930D049
:10110000402946D11069102100F013B9B1F5004F04
:101110003BD00CDCB1F5007F2FD0B1F5806F30D023
:10112000B1F5006F35D19069702100F002B9B1F5C9
:10113000803F1AD0B1F5003F2BD15068102100F04C
:10114000F8B89068134900F0F4B8D068032100F0B3
:10115000F0B8D068102100F0ECB81069032100F05D
:10116000E8B81069082100F0E4B85068082100F0E0
:10117000E0B89069012100F0DCB89069022100F02C
:10118000D8B89069042100F0D4B85068042100F068
:10119000D0B8704701010100002A03D042690A4318
:1011A0004261704742698A434261704710B500222C
:1011B000036823F002030360036843F00103036044
:1011C0004FF6FF7300E0521C4468E40701D19A42D5
:1011D000F9D14268D2073ED08A79012A3DD002680F
:1011E00022F080020260CA79012A3BD0026822F014
:1011F000400202600A7A012A39D0026822F02002F5
:1012000002604A7A012A37D0026822F01002026096
:101210008A7A012A35D0026822F008020260CA7A6E
:10122000012A33D0026822F0040202608A78CC7866
:10123000920742EA04620C7942EA04424C79098836
:1012400042EA0452491E0A43C261016821F00101C9
:101250000160002120E0002010BD026842F0800201
:101260000260C0E7026842F040020260C2E7026822
:1012700042F020020260C4E7026842F010020260FD
:10128000C6E7026842F008020260C8E7026842F05E
:1012900004020260CAE7491C4268D20701D09942A1
:1012A000F9D14068C00701D0002010BD012010BD59
:1012B00010B500EB0113D3F8B04104F0040414722C
:1012C000002C2CD0D3F8B041E408546003F5D87357
:1012D0001C6804F0020454725C6804F00F049472F9
:1012E0005C68240AD4749C68D4729C68240A1473C1
:1012F0009C68240C54739C68240E9473DC68D4732B
:10130000DC68240A1474DC68240C5474DB681B0E3B
:10131000937449B1016941F02001016110BDD3F816
:10132000B041640D1460D1E7C16841F02001C16093
:1013300010BD024600200A4200D001207047000084
:101340000122064B8240002903D018681043186020
:1013500070471868904318607047000000740040A0
:1013600030B5084C236840F6FE7282409343D1E9C1
:1013700000252A43D1E902510D432A4382401A43F2
:10138000226030BD0074004008B5034A10440830A4
:1013900000900098016008BD0074004008B5034A41
:1013A0001044143000900098016008BD00740040A3
:1013B000C10002D502490860704702494860704781
:1013C0000404024000000240002904D0016841F0FA
:1013D00001010160704701684FF6FE721140016023
:1013E0007047000001684FF6FE7211400160002155
:1013F000016041608160C1603649364A08399042D7
:1014000004D1486840F00F0048607047314A1432F8
:10141000904204D1486840F0F000486070472D4A7F
:101420002832904204D1486840F4706048607047A8
:10143000284A3C32904204D1486840F470404860E9
:101440007047244A5032904204D1486840F47020DA
:10145000486070471F4A6432904204D1486840F4A3
:101460007000486070471B4A7832904204D1486847
:1014700040F0706048607047174A111F904204D1D5
:10148000086840F00F0008607047134A1432904219
:1014900004D1086840F0F000086070470E4A283216
:1014A000904204D1086840F47060086070470A4AAE
:1014B0003C32904204D1086840F4704008607047A4
:1014C000054A50329042FAD1086840F47020086012
:1014D000704700000800024008040240406880B2E3
:1014E000704730B5026847F6F0739A430C6A8B6810
:1014F0002343D1E904452C4323438C692343CC691E
:1015000023434C6A23438C6A234313430360CA6812
:1015100042600A6882604968C16030BD704700005F
:101520000149C860704700000020024070B50546C0
:101530004FF43026304600F059F8042811D1094CF8
:10154000206940F0020020616561206940F04000A0
:101550002061304600F04AF8216941F6FD721140E1
:10156000216170BD0020024004200849CA68D207EA
:1015700001D001207047CA68520701D50220704788
:10158000C968C906FBD5032070470000002002404F
:101590000248016941F0800101617047002002406A
:1015A000F0B506460D464FF40057384600F01EF8D9
:1015B00004280CD1064C206940F0010020613580E0
:1015C000384600F013F82169BA1E11402161F0BDC0
:1015D00000200240034802494160034941607047CE
:1015E0002301674500200240AB89EFCD00B50346DB
:1015F000FFF7BAFF02E0FFF7B7FF5B1E012801D13A
:10160000002BF8D1002B00D1052000BD2DE9F041C1
:101610000022CC7804F00F03E40601D58C78234334
:101620000C784FF00F0714F0FF0F4FF0010C1CD097
:1016300005680CFA02F40E882640A64211D19600E5
:1016400007FA06F825EA080503FA06F848EA050548
:10165000CE78282E02D0482E02D002E0446100E06D
:101660000461521C082AE4D305600A88FF2A1ED9A7
:101670004568002202F108060CFA06F40E8826409E
:10168000A64210D1960007FA06F825EA080503FAE3
:1016900006F848EA0505CE78282E00D14461CE78B8
:1016A000482E00D10461521C082AE3D34560BDE8EE
:1016B000F0810000F0B5154C002801DAE36900E084
:1016C0006368C0F30346420D120185B2C0F30157AF
:1016D0009540032F07D0C2020CD50322B24093439A
:1016E00043F0706209E023F07062636823F0706376
:1016F000636002E0AB4343F0706201B12A4300280B
:1017000001DAE261F0BD6260F0BD0000000001405E
:101710000121FFF7CFBF0246002092680A4200D0A5
:101720000120704770B5FF22FF23002801D0022955
:1017300002D84FF6FF7070BD074D05F5807605E0C5
:1017400010F8014B54402A5D5A40335D491EC9B21E
:10175000F6D243EA022070BD1445000806A300201B
:10176000104C211F1A5C22800A885206FCD5401CAE
:10177000C0B22A28F6D3FEE70D0A456E74657220C2
:10178000486172644661756C745F48616E646C6533
:10179000722C2053797374656D2048616C742E0D22
:1017A0000A0000000438014002494CF6CC400860B1
:1017B0007047000000300040AFF3008002494AF655
:1017C000AA200860704700000030004001494860CE
:1017D00070470000003000400149886070470000F9
:1017E00000300040014908607047000000300040B0
:1017F000810701D0002070476421B0FBF1F201FBAA
:10180000120109B1012070474FF4C871B0FBF1F229
:1018100001FB120008B10020704701207047FEE76D
:101820007047000070B50F23C27801260178002AA6
:101830001ED0144A126802F4E062C2F5E062120A95
:10184000C2F10404D3404578A54082781A402A4367
:10185000120101F1E02181F80024007800F01F015D
:101860008E404009800000F1E020C0F8006170BDAA
:1018700001F01F0086404809800000F1E020C0F818
:10188000806170BD0CED00E0024908430249086028
:10189000704700000000FA050CED00E00149086205
:1018A0007047000000000E42054A002903D051692C
:1018B0000143516170475169814351617047000094
:1018C00000100240054A002903D0D1690143D161CB
:1018D0007047D1698143D161704700000010024018
:1018E000054A002903D091690143916170479169CC
:1018F0008143916170470000001002400149086077
:10190000704700004004424210B5264A516801F079
:101910000C01254B002927D0042927D0082927D0DE
:101920000360516801F0F0010909204B5C5C01681B
:10193000E1404160546804F4E064240A1C5D21FA2B
:1019400004F48460546804F46054E40A1B5DD940D4
:10195000C160526802F44042920B144B1B1F9A5C08
:10196000B1FBF2F1016110BD0360DAE70360D8E773
:10197000516801F47011536803F48033022404EBBE
:10198000914133B153689B0307D5094B594301601B
:10199000C7E7074B59430160C3E7034B5943016055
:1019A000BFE700000010024000127A00860100200C
:1019B00000093D00034600205909094A01290AD0BF
:1019C00002290AD0516A03F01F02012393400B42FF
:1019D00000D0012070471168F5E7116AF3E70000B5
:1019E00000100240084900220A7001F8202901284D
:1019F00005D0042802D1052081F82000704701207D
:101A000081F8200070470000201002400149086062
:101A1000704700003C04424202490A6A02430A62DB
:101A2000704700000010024002490A8882430A8081
:101A300070470000042800400248018841F010016E
:101A400001807047042800400248018821F01001FD
:101A500001807047042800402DE9F04700F06AF843
:101A60000646304FB6FBF7F32F48304D01889942B8
:101A700031D0038040F2B2744FF4B7784FF4B679A6
:101A80000FE02046FFF7B4FE38B1434502D3A3F57B
:101A9000B77304E0641CA4B205E0A3F26D13641CE8
:101AA000A4B24B45EDD8AC800024DFF884800CE074
:101AB000A888FFF79DFE08B1012C2FD018F804006C
:101AC000984204D81B1A641CA4B21C2BF0D2641CCC
:101AD000AC715B1CEB71B6FBF7F007FB10604FF4C9
:101AE0006161B0FBF1F22A70B0FBF1F201FB12036D
:101AF0003C22B3FBF2F36B70B0FBF1F301FB13007C
:101B0000B0FBF2F102FB1100A870EA79A979A8886C
:101B100000F02AF828720020BDE8F0871D2BD6D3EC
:101B20001D3BD0E78051010080010020CC14002033
:101B3000E0470008034800880249091F098840EA75
:101B4000014070471C28004006490988C2B2114074
:101B5000044A121F1288024202D009B101207047C4
:101B6000002070470428004030B56423B0FBF3F434
:101B7000E4B2B0FBF3F503FB1500132C01D964307C
:101B8000C0B200EB90030724B3FBF4F504FB15335C
:101B9000084D1A440D4415F8015C2A4492B280079E
:101BA00003D1032901D2521E92B2B2FBF4F004FB1E
:101BB000102030BDD447000810B50120FFF7C4FF46
:101BC00008B1FFF749FF0220FFF7BEFF30B1074819
:101BD0000168491C01600220FFF726FF0520FFF77E
:101BE00023FFBDE8104000F0BBB80000B4000020A7
:101BF000054A002903D011880143118070471188DC
:101C000081431180704700000028004008B503227E
:101C10008DF800208DF801008DF8021001208DF85C
:101C200003006846FFF7FEFD08BD00002DE9F05FE8
:101C30000646DDF828A0894690460024A6F2B27038
:101C4000822802D30120BDE8F09F40F2B275284FF0
:101C5000DFF8A0B008E02846FFF7CAFD08B13C4411
:101C600000E05C446D1CADB2B542F4D3A9F10109AA
:101C700009F0FF070025DFF88090DFF880B00FE063
:101C800019F8050040F2A321484304EBC014304684
:101C9000FFF7AEFD10B1012D00D15C446D1CADB25B
:101CA000BD42EDD3A8F1010840F2A32008FB00F8E3
:101CB00004EBC810C3EB4311C1EB032100EB01108F
:101CC000CAEB0A1100EB81000B99441801214FF077
:101CD000C050FFF7F7FD0120FFF7E0FD204600F0C0
:101CE0001FF800F03DF8FFF7B7FE0020ABE700005B
:101CF0000085E2018033E101E047000880510100E6
:101D000000B50246FFF798FE0449100C0880081D34
:101D100002805DF804EBFFF797BE0000202800402A
:101D200000B50246FFF788FE0449100C0880081D24
:101D300002805DF804EBFFF787BE00001828004022
:101D400000B50246FFF778FE0449C2F3034008805D
:101D5000081D02805DF804EBFFF776BE08280040FE
:101D6000024801888906FCD570470000042800401D
:101D70000448018821F00801018001880907FCD589
:101D80007047000004280040AFF300800CB500222B
:101D9000019200922748016841F4803101604FF4BC
:101DA000A063016801F4003100910199491C01917F
:101DB000009911B901999942F3D10168890302D5BB
:101DC0000121009100E000920099012930D11A49C7
:101DD0000A6842F010020A600A6822F003020A60F0
:101DE0000A6842F002020A6041684160416841604D
:101DF000416841F480614160416821F47C11416097
:101E0000416841F4E8114160016841F0807101606E
:101E100001688901FCD5416821F0030141604168F6
:101E200041F0020141604168C1F381010229FAD108
:101E30000CBD0000001002400020024010B5FEF76B
:101E4000C7F902F0ADFA18B104494FF080500860AC
:101E5000BDE810400020FEF7C2B9000004ED00E02C
:101E600010B50F48016841F00101016041680D4A59
:101E70001140416001680C4A11400160016821F481
:101E800080210160416821F4FE0141604FF41F018F
:101E90008160FFF779FF05494FF00060086010BDD1
:101EA000001002400000FFF8FFFFF6FE08ED00E022
:101EB00070B5048C24F001040484058B048C25F097
:101EC000F3054FF6FF7606EA031313432B43104A3C
:101ED00090420ED00F4A90420BD0B0F1804F08D004
:101EE0000D4A904205D00D4A904202D00C4A9042D1
:101EF00005D124F002020A4342F0010104E024F07B
:101F00000A020A4342F001010383018470BD00000C
:101F1000002C014000340140000400400008004053
:101F2000000C0040F0B5048C24F010040484068BEF
:101F3000048C4FF6FF7505EA011726F4734605EA8F
:101F40000333334305EA02221A43104B98420ED062
:101F50000F4B98420BD0B0F1804F08D00D4B9842F8
:101F600005D00D4B984202D00C4B984205D124F07D
:101F70002001394341F0100104E024F0A0030B4399
:101F800043F0100102830184F0BD0000002C0140E9
:101F9000003401400004004000080040000C0040F4
:101FA000F0B5048C24F480740484858B048C4FF683
:101FB000FF7707EA012625F0F30507EA0313134329
:101FC0002B43104A90420ED00F4A90420BD0B0F1F2
:101FD000804F08D00D4A904205D00D4A904202D061
:101FE0000C4A904205D124F40071314341F48071D0
:101FF00004E024F420620A4342F480718383018464
:10200000F0BD0000002C01400034014000040040FD
:1020100000080040000C0040F0B5048C24F480540B
:102020000484868B048C4FF6FF7505EA013726F48D
:10203000734605EA0222324305EA03331343104A8A
:1020400090420ED00F4A90420BD0B0F1804F08D092
:102050000D4A904205D00D4A904202D00C4A90425F
:1020600005D124F40051394341F4805104E024F4B3
:1020700002420A4342F4805183830184F0BD000090
:10208000002C0140003401400004004000080040E2
:10209000000C00402DE9F047DFF8AC9001214846E4
:1020A00000F033F9294C2A4D38B1216809B1491C97
:1020B0002160296809B1491C29600221484600F0C5
:1020C00024F9214E00274FF001082436C0B12068C2
:1020D00090B131886181401E6189C0EB00400844A5
:1020E0002189401AE060FEF7D6F901461948FEF74B
:1020F00019F96060276003E030882081C4F800800F
:102100004C460421204600F000F9B8B1286888B197
:1021100031886981401E6989C0EB004008442989E3
:10212000401AE8600C49B1FBF0F0FEF7B4F96860C2
:102130002F6003E030882881C5F800802046BDE884
:10214000F047072100F0D2B8000800402C0600201C
:102150003C0600200050C347A086010070B5224D08
:102160000121284600F0D1F8C0B3204C2078204946
:102170000A2801D3087828B120780A282ED20878B6
:1021800018B12BE00120087028E001F03DFB194850
:1021900000681949227841F8220018480068184957
:1021A000227841F8220017480168174A207842F83F
:1021B0002010164800681649227841F82200154878
:1021C00000681549227841F8220014480068144933
:1021D000227841F822002178491C21702846BDE868
:1021E0007040012100F082B8001000402F00002054
:1021F0002E000020380000204C0400203C0000206D
:1022000074040020400000209C04002044000020B2
:10221000C404002048000020EC0400204C000020F2
:102220001405002070B5224D0121284600F06DF8FC
:10223000C0B3204C207820490A2801D3087828B15F
:1022400020780A282ED2087818B12BE001200870D7
:1022500028E001F02FFB194800681949227841F85D
:102260002200184800681849227841F822001748CF
:102270000168174A207842F820101648006816496D
:10228000227841F82200154800681549227841F863
:102290002200144800681449227841F8220021786D
:1022A000491C21702846BDE87040012100F01EB88D
:1022B00000140040310000203000002050000020B9
:1022C0003C05002054000020640500205800002038
:1022D0008C0500205C000020B40500206000002078
:1022E000DC0500206400002004060020C9430182B0
:1022F0007047002904D0018841F001010180704736
:10230000018821F001010180704702460020138AF4
:102310000B4092890A40002B02D0002A00D00120F5
:102320007047000070B505460C461D48854209D02F
:102330001C48854206D0B5F1804F03D01A4885422B
:1023400000D01A4820886188A288238960B10428B7
:1023500013D008281AD02846FFF75EFEE1882846E9
:10236000BDE8704000F04AB82846FFF7A1FDE188BB
:102370002846BDE8704000F025B82846FFF7D2FD9A
:10238000E1882846BDE8704000F024B82846FFF7F1
:1023900007FEE1882846BDE8704000F027B800003D
:1023A000002C0140003401400004004000080040BF
:1023B000002A03D082890A438281704782898A4336
:1023C00082817047028B22F00C020283028B0A4347
:1023D00002837047028B22F440620283028B4FF625
:1023E000FF7303EA01210A4302837047828B22F0C4
:1023F0000C028283828B0A4382837047828B22F491
:1024000040628283828B4FF6FF7303EA01210A4305
:102410008283704701461D4A914201D11C48704792
:10242000B1F1804F04D01B4A914203D11A48704742
:102430001A4870471A4A914201D188147047194AC4
:10244000914201D118487047184A914201D1184869
:102450007047184A914202D1154820307047164AF9
:10246000914202D1124860307047144A914201D122
:1024700013487047134A914202D10D48E03070472B
:10248000114A9142FBD1114870470000002C0140D5
:10249000C000160000040040000C1A0000031800E1
:1024A00000080040000C004001002000004C0140EA
:1024B00020000080005001400054014000180040FE
:1024C00000100080001C004000200040000200803E
:1024D0000146B1F1804F04D0124A914203D11D2030
:1024E00070471C207047104A914201D11E2070474E
:1024F0000E4A914201D1322070470D4A914201D1DA
:10250000362070470B4A914201D1372070470A4A62
:10251000914201D119207047084A9142FBD12C20E9
:10252000704700000004004000080040000C00401C
:102530000010004000140040002C01400034014015
:1025400030B502881B4C1C4DA0420DD0A8420BD0C8
:10255000B0F1804F08D0194B984205D0184B9842E3
:1025600002D0184B984203D122F070034A881A43D4
:10257000154B984206D0154B984203D022F4407375
:10258000CA881A4302808A8882850A880285A04206
:102590000AD0A84208D00E4A904205D00D4A904277
:1025A00002D00D4A904201D1097A0186012181822F
:1025B00030BD0000002C0140003401400004004008
:1025C00000080040000C00400010004000140040D3
:1025D00000400140004401400048014070B5164DE4
:1025E00040F22441284600F07BF8002823D02888B8
:1025F000281D0088114E00213046FEF7E5FE3046CA
:10260000FEF76CFFC0F1400084B24FF4C000FEF74B
:10261000CFFE0A4940206C39086701213046FEF799
:10262000D3FE002C07D00649284601F007FA0548DA
:102630000168491C016070BD004400406C0002400C
:1026400029000020B000002070B5164D40F2244152
:10265000284600F045F8002822D02888281D008848
:10266000114E00213046FEF7AFFE3046FEF736FF32
:10267000C0F5007084B26020FEF79AFE0A49681522
:102680001C39C86501213046FEF79EFE002C07D09C
:102690000649284601F066FC05480168491C0160AE
:1026A00070BD0000004800401C000240A80000204F
:1026B000B0000020002904D0818941F400518181BB
:1026C0007047818921F4005181817047002A03D02D
:1026D000828A0A4382827047828A8A438282704752
:1026E00070B5002440F66A12C1F3421301F01F05D1
:1026F000012606FA05F2012B0CD0022B0DD0838A9D
:102700001340090A8E40008830400BB100B101240B
:10271000204670BD83891340F3E7038A1340F0E736
:1027200010B540F66A13C1F3421301F01F040121F2
:10273000A140012B07D0022B07D014303AB1026818
:102740000A43026010BD0C30F8E71030F6E702686B
:102750008A43026010BD000030B585B004460D46C6
:10276000208A4CF6FF710840E98801432182A08944
:102770004EF6F3110840A9882A8911436A89024359
:102780001143A181A08A4FF6FF410840A989014366
:10279000A1826846FFF7B8F81D48844201D103982A
:1027A00000E00298A189090408D500EBC00101EB03
:1027B000001029684900B0FBF1F007E000EBC00110
:1027C00001EB001029688900B0FBF1F06422B0FB36
:1027D000F2F109010B096FF018056B4300EB830060
:1027E000A3891D044FF0320307D503EBC000B0FBF3
:1027F000F2F000F00700084306E003EB0010B0FB26
:10280000F2F000F00F000843208105B030BD000059
:102810000038014001460D4A914201D10C487047F1
:102820000C4A914201D10C4870470C4A914202D1A6
:102830000948403070470A4A914201D1094870471F
:10284000094A9142FBD10948704700000038014015
:102850004C060020004400404C0700200048004087
:10286000004C00408C090020005000408C0B0020E0
:1028700001460D4A914201D10C4870470C4A9142E1
:1028800001D10C4870470C4A914202D109484030AE
:1028900070470A4A914201D109487047094A91425A
:1028A000FBD1094870470000003801408C0D002022
:1028B000004400408C0E002000480040004C0040C6
:1028C000CC10002000500040CC120020F0B5024691
:1028D0001C4C1D4B1D4D1E4E1E4F802905D04029FE
:1028E00002D1A2421AD11C48F0BDA24202D11A481C
:1028F0006438F0BD9A4202D117485038F0BDAA4260
:1029000002D115483C38F0BDB24202D112482838F5
:10291000F0BDBA42FCD110481438F0BD9A4202D141
:102920000D481430F0BDAA4202D10B482830F0BD4A
:10293000B24202D108483C30F0BDBA42FCD1064850
:102940005030F0BD003801400044004000480040D5
:10295000004C0040005000401C01002001460D4A80
:10296000914201D1801570470B4A914201D140201C
:1029700070470A4B5A15994201D110467047084BCF
:10298000994201D110467047064B9942FBD110463F
:1029900070470000003801400044004000480040FB
:1029A000004C00400050004001460D4A914201D1C8
:1029B000801570470B4A914201D1402070470A4B65
:1029C0005A15994201D110467047084B994201D1DE
:1029D00010467047064B9942FBD1104670470000E5
:1029E000003801400044004000480040004C0040D6
:1029F0000050004001460C4A914201D12520704709
:102A00000A4A914201D126207047094A914201D1D8
:102A100027207047074A914201D134207047064A67
:102A20009142FBD1352070470038014000440040FE
:102A300000480040004C00400050004010B586B0F7
:102A4000144C02212046FEF741FB002820D004212F
:102A50002046FEF78DFA10492046FEF771FA01AACA
:102A600000212046FEF724FC0198A0F500700938EB
:102A700006D0012808D1094901A800F0ECFA03E0CA
:102A8000074901A800F0E7FA06480168491C0160FF
:102A900006B010BD0064004008000032180000209D
:102AA00020000020AC000020FEE730B505460C46B3
:102AB000002D01D0022C01D8002030BDA01EC1B2D3
:102AC0002846FEF72FFE2919C2B211F8023C9A429D
:102AD00006D111F8011CB1EB102F01D1012030BD3E
:102AE000002030BD02E008C8121F08C1002AFAD138
:102AF00070477047002001E001C1121F002AFBD17E
:102B00007047000070B50124064E074D06EB8401A6
:102B100005EB4400022200F029FA641CE4B2042C04
:102B2000F4D370BD2C0200200030030870B50024DF
:102B3000064E074D06EB840105EB4400022200F02F
:102B40002DFA641CE4B2042CF4D370BD2C020020D6
:102B50000030030810B500F00DF800F009F900F09E
:102B60004BF900F0D9F8BDE810400148FEF7CCBEA3
:102B7000FC01002010B50C480221016000214160D9
:102B80008160C16002220949094800F0EFF9074855
:102B90000078FF2803D0BDE81040FFF7B3BFBDE8C1
:102BA0001040FFF7C3BF00002C02002005000020EA
:102BB0000030030810B50A21144800F0E7FF14495B
:102BC00008600A21134800F0E1FF134908600A2158
:102BD000124800F0DBFF124908600A21114800F09A
:102BE000D5FF114908600A21104800F0CFFF1049B5
:102BF00008600A210F4800F0C9FF0F4908600F491B
:102C0000002008700E49087010BD00004C04002020
:102C100068000020740400206C0000209C04002048
:102C200070000020C404002074000020EC04002088
:102C300078000020140500207C0000202E000020D9
:102C40002F00002010B50A21144800F09FFF1449FE
:102C500008600A21134800F099FF134908600A210F
:102C6000124800F093FF124908600A21114800F051
:102C70008DFF114908600A21104800F087FF1049B4
:102C800008600A210F4800F081FF0F4908600F49D2
:102C9000002008700E49087010BD00003C0500209F
:102CA0008000002064050020840000208C050020A6
:102CB00088000020B40500208C000020DC050020E6
:102CC0009000002004060020940000203000002026
:102CD0003100002008B501F05DFB00900C4C0D4D5B
:102CE0000221684601F002FA207818B1FFF762FF6E
:102CF00001F0F0F9287818B1FFF7A4FF01F0EAF924
:102D0000207829780843EBD101F0E4F9E8E70000E6
:102D10002E000020300000201FB500200649CDE91C
:102D2000011005220346009203904FF4807203A124
:102D3000034801F0B5FA1FBD3C02002041444300A6
:102D4000D52C000808B501F025FB0090074C0025A4
:102D50000521684601F0CAF900F022F8207810B188
:102D6000FFF7E4FE2570FEF727FDF1E708000020DD
:102D70001FB500200649CDE9011006220346009246
:102D800003904FF4007203A1044801F089FA1FBDBB
:102D900048020020494E505554000000452D0008BF
:102DA00010B500F05DFB064C606800F069F9A068A2
:102DB00000F07AF903488168491D816010BD000068
:102DC000080000204802002008B501F0E3FA009056
:102DD000084D32240221684601F088F92868B0FBCA
:102DE000F4F104FB110008B900F01EF82868401C3B
:102DF0002860EFE7140000201FB500200649CDE948
:102E0000011005220346009203904FF4807203A143
:102E1000044801F045FA1FBD5402002053455249B1
:102E2000414C0000C92D0008014800F025BE0000FB
:102E3000004400400D4B8118994201D9032070478E
:102E400012B10123002109E0002070470378FF2B15
:102E500001D0022070470023401C491C9142F5D349
:102E6000012B01D0012070470020704700000408AA
:102E70006FF30A00704710B54FF44070FEF704FD81
:102E8000BDE81040AFF300807CB5002401214FF075
:102E9000C050FEF717FD0120FEF700FD0420FDF7EE
:102EA0005DFD45F25005A8424FD0FDF74DFD0120D4
:102EB000FEF798FD04E0641CE4B20A2000F008F973
:102EC0004120FEF777FD0028F5D0FA2C01D3012030
:102ED0007CBD4FF48070FEF79FFD0120FEF796FD4C
:102EE000FEF73EFFFEF744FF01210220FEF780FEC1
:102EF000FEF736FFFEF7A0FD0020FEF711FFFEF7FC
:102F00002FFF47F6FF70FEF71BFFFEF729FF00209B
:102F10000224CDE9004040F2E7760B230922052187
:102F20003046FEF783FE1421CDE900410B23092230
:102F300005213046FDF78CFCFEF712FFFEF784FDFD
:102F400029460420FDF714FD07E0FEF711FF0121DB
:102F50000220FEF74DFEFEF703FF00210320FEF7DF
:102F600055FEFEF779FD00207CBD000010B50A4C2F
:102F70008318A34201D9012010BD0AB1002306E045
:102F8000012010BD10F8014B01F8014B5B1C93426E
:102F9000F8D3002010BD0000000004082DE9F04126
:102FA00007468846164604252549B819884202D99D
:102FB0000120BDE8F0811EB1F00703D00120F8E741
:102FC0000020F6E7324641463846FFF733FF044615
:102FD00054B1012080F31088FEF7FCFA3520FEF78B
:102FE0009FFA022C02D00BE00020E2E73846FFF700
:102FF0003FFFFEF79BFA0546042D01D00220D8E7DB
:1030000000240EE018F8140008EB4401497840EA67
:1030100001213846FEF7C4FA0546042D04D1BF1C31
:10302000641CB4EB560FEDD3FEF7B2FA002080F328
:103030001088042D01D00220BBE70020B9E7000072
:103040000000040830B5DDE9034501608280C380DB
:103050000481458130BD027BC37A42EA03220A80A3
:10306000827B437B42EA03224A80027CC37B42EAA2
:1030700003228A80827C407C42EA0020C88070471C
:1030800010B50749FDF74EF90649FDF719F9FDF7A7
:1030900007FA81B2BDE810400020FEF775B90000C4
:1030A0003333534000F07F4510B50749FDF73AF937
:1030B0000649FDF705F9FDF7F3F981B2BDE81040C7
:1030C0000020FEF76BB900003333534000F07F451A
:1030D00010B50022044C04E02146491E4B1CFCD1D3
:1030E000521C8242F8DB10BD4019010030B591B08E
:1030F00001210846FEF7D8FB484D2846FEF772F935
:103100004748019047480290002403943C210491D1
:10311000059480210691490007918800089020209D
:10312000099000020A900B9401A92846FEF7D9F9EC
:1031300001212846FEF748F901214802FEF7D0FB9D
:1031400000213948FDF76BFC00213848FDF767FC8A
:1031500000213748FDF763FC00213648FDF75FFC8E
:1031600000213548FDF75BFC00213448FDF757FC92
:103170000C9401208DF834008DF835004FF4602058
:103180000E900F9406208DF84000254C0CA94C3C65
:103190002046FDF7E9FA0723012206212046FDF724
:1031A00007FB0723022219462046FDF701FB0723F0
:1031B000032208212046FDF7FBFA072304220921F8
:1031C0002046FDF7F5FA072305220E212046FDF7DC
:1031D000EFFA072306220F212046FDF7E9FA012125
:1031E0002046FDF7A7FA01212046FDF797FA204671
:1031F000FDF718FB2046FDF7B0FA0028FAD120466B
:10320000FDF721FB2046FDF7A1FA0028FAD10121A4
:103210002046FDF70CFB11B030BD00000800024055
:103220004C240140AC020020444700084C470008F1
:10323000544700085C470008A4470008AC47000852
:1032400030B591B001210220FEF72EFB484D2846F3
:10325000FEF7C8F8474801904748029000240394BD
:103260003C21049105948021069149000791880032
:1032700008902020099000020A900B9401A928468A
:10328000FEF72FF901212846FEF79EF80121C80319
:10329000FEF726FB00213948FDF7C1FB0021384825
:1032A000FDF7BDFB00213748FDF7B9FB002136488B
:1032B000FDF7B5FB00213548FDF7B1FB002134488F
:1032C000FDF7ADFB0C9401208DF834008DF835002E
:1032D0004FF460200E900F9406208DF84000254C8E
:1032E0000CA94C3C2046FDF73FFA072301220021A0
:1032F0002046FDF75DFA0723022201212046FDF753
:1033000057FA072303220A212046FDF751FA072323
:1033100004220B212046FDF74BFA072305220C213E
:103320002046FDF745FA072306220D212046FDF72A
:103330003FFA01212046FDF7FDF901212046FDF766
:10334000EDF92046FDF76EFA2046FDF706FA002853
:10335000FAD12046FDF777FA2046FDF7F7F9002865
:10336000FAD101212046FDF762FA11B030BD00000C
:10337000580402404C3C014024030020144700083C
:103380001C470008844700088C4700089447000841
:103390009C47000808B5002100910323632240F6F2
:1033A0000F61FDF72DFC08BD10B586B00446012164
:1033B0000846FEF795FA2046FFF72CF8FEF7A8F925
:1033C00000200621CDE902010190049006480090FA
:1033D000A0F1080340F2CF224FF6FF712046FDF71F
:1033E00065FB06B010BD0000A000002000B51A4922
:1033F000002801D000200870087808B1002000BD26
:1034000001200870154B991D184600F051F808B1BD
:10341000012000BDD91D581C00F04AF808B1022057
:1034200000BD0E49981C083100F042F808B1032095
:1034300000BD0A49D81C093100F03AF808B104204F
:1034400000BD0649181D0A3100F032F808B1052008
:1034500000BD002000BD00002800002078020020F0
:1034600070B5104D04212846FEF755F90E4C20701A
:1034700002212846FEF74FF9E07020210B48FEF7A5
:103480004AF9607008212846FEF745F9A07001212D
:103490002846FEF740F920710120FFF7A7FFE072F0
:1034A00070BD0000001801407802002000080140B3
:1034B000024600201278002A02D0012A06D103E039
:1034C0000A78521C0A7001E000220A7009780A2961
:1034D00000D90120704700002DE9FC470646DDE9D0
:1034E0000A950C9C0F46904618461021FDF797FA56
:1034F000CDE900544B46424639463046FDF770FC54
:1035000080213046FFF7E2F9FDF72AFC40213046E2
:10351000FFF7DCF9FDF724FC024901200860BDE853
:10352000FC870000BC8122423EB505460C460121C5
:103530000846FEF7D5F918210B48FDF770FA482127
:103540000A48FDF76CFA01214FF4EA10FEF7B2F8D1
:10355000CDE90154022000900723082200210448ED
:10356000FDF710FA3EBD00006C47000864470008F4
:10357000006400401FB501214807FEF7A3F90021B0
:103580000A48FDF74CFA00200090019002900220BA
:10359000039069460020FDF7E3FE01210020FDF7BE
:1035A000CFFE00210846FDF7EFFE1FBD344700089F
:1035B0001FB501214807FEF785F900210A48FDF7EC
:1035C0002EFA00200090019002900220039069469C
:1035D0001020FDF7C5FE01211020FDF7B1FE0021EE
:1035E0000846FDF7DBFE1FBD3C4700087CB50546DD
:1035F000DDE90640CDE900402846FDF7F1FB8021DA
:103600002846FFF763F9FDF7ABFB40212846FFF79B
:103610005DF9BDE87C40FDF7A3BB70B505460C46DF
:1036200045F25550FEF7DEF82846FEF7CFF8204663
:10363000FEF7D2F8FEF7C2F8BDE87040FEF7B4B866
:10364000FEB5FFF753FDFFF7FBFD2848FFF7A2FE8D
:103650002748FFF79FFEFFF78DFFFFF7A9FF2548DB
:10366000FFF7A2FE00210220FFF75EFF40F27D542B
:1036700040F61D06CDE9006440F22A3740F27F751E
:103680003B462A4640F20A211B48FFF7DBFCCDE906
:10369000005623463A4640F209211848FFF7D2FC6B
:1036A00000240420CDE900044FF4E133144A154905
:1036B0001548FFF79BFF0320CDE901044FF4165195
:1036C0000091124B124A13491348FFF705FF40F2CD
:1036D00071210420FFF7A1FF00F022F803B01021B0
:1036E000BDE8F0400D48FDF79AB900000010004019
:1036F0000014004000080040600200206C0200201E
:103700002C4700082447000800440040CC4700082C
:103710007C4700087447000800480040B447000890
:1037200038B501216420FEF7DBF803208DF8020094
:1037300048208DF803000420ADF80000104C6946C5
:103740002046FDF763FF0221ADF8001069462046D0
:10375000FDF75CFF2021ADF8001069460948FDF730
:1037600055FF0821ADF8001069462046FDF74EFFD1
:103770000121ADF8001069462046FDF747FF38BD2E
:10378000001801400008014010B5002821D0114B5D
:103790000022001F196803E0814203D80A464968E5
:1037A0000029F9D152B11368841A9C4204D10068EF
:1037B00018441060104602E0506000E0186039B113
:1037C00002680B1A934203D10B681A4402604968DD
:1037D000416010BDF401002010B504462046FCF7FE
:1037E0005FFEFCF758FE2146FCF767FD0349FCF736
:1037F00067FDFCF755FEC0B210BD00000000C842D6
:10380000004870471C020020F0B587B00026002554
:103810001F4F002404EB440007EB800030F8150034
:10382000FCF739FE3146FCF7F3FC0646641CE4B2B3
:103830000A2CEFD317493046FCF742FD01A941F8A5
:10384000250000266D1CEDB2062DE2D31249019829
:10385000FCF736FD114C606011490298FCF730FD11
:10386000A06010490398FCF72BFDE0600E49049816
:10387000FCF726FD20610D490598FCF721FD6061EC
:103880000B490698FCF71CFDA06107B0F0BD0000D5
:10389000AC020020CDCCCC3D6109963D3400002027
:1038A000810C483EFDD22F41010A203BC5491C41F5
:1038B0006740533AF0B587B000260025214F002419
:1038C00004EB440007EB800030F81500FCF7E3FD43
:1038D0003146FCF79DFC0646641C0A2CF0DB3046A2
:1038E000FCF7F2FD184A194BFCF75AFDFCF7FFFDF7
:1038F00001A941F8250000266D1C062DDFDB1449C7
:103900000198FCF7DDFC134CE06113490298FCF7C9
:10391000D7FC206211490398FCF7D2FC6062104D7D
:1039200004982946FCF7CCFCA06229460598FCF7D0
:10393000C7FCE06229460698FCF7C2FC206307B08A
:10394000F0BD0000240300209A9999999999B93FF4
:10395000010FF03C340000203989133E365C4340AF
:103960006740533A2DE9F0410546E878012854D0E4
:10397000022856D003284ED1042400202B4E214685
:10398000641C695CE4B23154401CC0B20228F6D316
:10399000FFF736FF3188018000202146641C695CF6
:1039A000E4B23154401CC0B20228F6D33088FCF790
:1039B00072FD1F4F3946FCF783FC8046FFF720FF5E
:1039C000C0F8048000202146641C695CE4B23154D4
:1039D000401CC0B20228F6D33088FCF75CFD3946A3
:1039E000FCF76EFC8046FFF70BFFC0F80880002054
:1039F0002146641C695CE4B23154401CC0B2022808
:103A0000F6D33088FCF747FD3946FCF759FC0446ED
:103A1000FFF7F6FEC460BDE8F081064928794872D8
:103A2000F9E7054928790870F5E700000200002051
:103A30000AD7233C100200200400002010B5FEF736
:103A4000E9FE04462078C52815D16078642812D193
:103A5000A178201F085CA9280DD1E01E085CD4289D
:103A600009D12046FFF721F8002804D02046BDE800
:103A70001040FFF777BF10BD2DE9F04107463846EB
:103A8000FEF7F6FE0446AD202070B52060700020E1
:103A9000A0701A4E3068FCF703FDE0703068FFF745
:103AA0009BFE052520717068FCF7FAFC144908801C
:103AB00000202A460B5C6D1CEDB2A354401CC0B222
:103AC0000228F6D3317A681CC0B261550D22411C20
:103AD000C9B22254AA204A1C6054921CD1B2A170CF
:103AE0002046FCF71FFF80213846FEF7EFFEA27844
:103AF0002146BDE8F041FDF705BA000010020020A4
:103B00000000002010B5002080F31088FFF7B3F903
:103B1000FFF796FDFFF71EF800F02AFB002010BD0E
:103B2000F0B50B30154D20F007010024144A0FE0CA
:103B300003688B420BD38B4205D95E1A4318476842
:103B4000C3E9006700E04368136002C004E0021D9F
:103B500010680028ECD12046002802D1286808B15E
:103B60000020F0BD064A07481060074A121A22F0EA
:103B70000702C0E9002401202860D7E7F8010020EF
:103B8000F4010020E4790020E07B00202DE9F05FC3
:103B9000054688464FF000094FEA8800FFF7C0FF4E
:103BA0000446002005E055F8201044F82010401C81
:103BB000C0B24045F7D30027A8F1010A1AE000255A
:103BC000A8EB070BABF1010B10E06E1C54F82500BD
:103BD00054F82610FCF7A8FC07D254F8250054F836
:103BE000261044F8251044F82600F5B2AB45ECDC6D
:103BF0007F1CFFB25745E2DB012507E054F8251092
:103C00004846FCF705FB81466D1CEDB25545F5DBDA
:103C1000A8F10200FCF736FC01464846FCF782FB9F
:103C200005462046FFF7B0FD2846BDE8F09F00009E
:103C300070B504460B4D28684460E868844206D29B
:103C40002968686B091DBDE8704000F0C1B929689A
:103C5000286B091D00F0BCF9A86A844200D2AC624E
:103C600070BD00009801002070B5002908D00D46F5
:103C70007DB14C2000F00EF9044634B1256309E013
:103C8000800000F007F90546F2E7284600F0F4F955
:103C900000E00024204670BD70B5124E124D1CE0AD
:103CA00000F090FA306820B1002400F0DBFBA4B9EA
:103CB00001E00124F9E700F0AFF9F068C468201DC5
:103CC00000F066F9A868401EA8606868401E686039
:103CD00000F0BEF9204600F009F868680028DFD13E
:103CE00070BD0000B41500209801002010B50446F6
:103CF000206B00F0C1F92046BDE8104000F0BCB9CF
:103D00004FF4C8410F48420706D0C01D20F00700FD
:103D10000C49411AC1F5C8410B4A10600023536099
:103D20000144083921F00701103A11604B600B6023
:103D30000B1A436001604068906050604FF0004093
:103D4000D0607047DC150020EC010020044CFFF728
:103D5000A3FF20680128FAD900F0BCF9F7E70000BA
:103D6000D814002070B504461546002023180A5CBC
:103D700083F834200A5C12B1401C1028F6D30026C8
:103D800084F84360082D00D30725E562201D00F06C
:103D90001CF904F1180000F018F92461C5F10800BD
:103DA000A0616462666484F8486070BD70B50024E8
:103DB000124D04EB840005EB800000F0FBF8641C5E
:103DC000082CF6D30D48A03000F0F4F80B48B430BE
:103DD00000F0F0F80948C83000F0ECF80748DC3093
:103DE00000F0E8F80548F03000F0E4F80349044832
:103DF000A03101631431416370BD0000D81400206C
:103E00009801002030B5134900E011460A6882424B
:103E1000FBD34B685C18844203D140681844486067
:103E200008460D6844682318AB420DD1094B103B7E
:103E30001B689A4206D05268224442600A6812689F
:103E4000026002E0036000E00260814200D008608E
:103E500030BD0000EC0100200748016B0968002913
:103E600005D0016BC968C9684968816270474FF025
:103E7000FF318162704700009801002004484068CB
:103E8000401C02D0FCF7A4F9FEE7FCF7A1F9FEE71D
:103E9000D00100202DE9F0410546002600F092F9FE
:103EA000294F386808B9FFF72BFFF868054240D161
:103EB00065B10835680709D005F00700C0F10800B2
:103EC0000544680702D0FCF783F9FEE78DB37868F4
:103ED00085422ED81C4910310846046801E021466D
:103EE00004466068A84202D220680028F7D13868EA
:103EF00084421ED00E680836206808606068411B46
:103F0000102909D96019420702D0FCF761F9FEE7D0
:103F100041606560FFF776FF61687868401A7860F5
:103F2000BA68904200D2B860F8680143616000202E
:103F3000206000F097FA700702D0FCF749F9FEE71D
:103F40003046BDE8F0810000DC01002020384FF051
:103F50008073C36181610249416140F82029704743
:103F60007D3E000810B50C46FEF754FC017821296F
:103F70000DD1417833290AD1C178112907D1002206
:103F800081180979A154521CD2B2042AF8D310BD69
:103F90000169D0E901329A60D0E901235A604A6888
:103FA000824201D182684A60002202610868401E94
:103FB0000860704700F1080141604FF0FF328260F5
:103FC000C1600161002101607047002101617047FB
:103FD00030B50C68621C02D000F1080202E00269F0
:103FE00004E01A4653681D68A542FAD953684B602D
:103FF00099608A60516008610168491C016030BDA8
:1040000042684A6093688B60936859609160086168
:104010000168491C0160704710B5FCF7D9F80A48DF
:104020004168491C4160BFF34F8FBFF36F8F4068F9
:10403000012807D10548006810F0FF0F02D0FCF7F7
:10404000C7F8FEE710BD0000D001002004ED00E03D
:1040500010B508494868002807D0401E486000286D
:1040600006D1BDE81040FCF7BAB8FCF7B1F8FEE79E
:1040700010BD0000D001002070B500281DD0083808
:1040800004460E4D6068E968084202D1FCF7A0F8CA
:10409000FEE7226812B1FCF79BF8FEE788436060F8
:1040A00000F090F860686968084468602046FFF78F
:1040B000A9FEBDE8704000F0D5B970BDDC0100205C
:1040C0004FF0E02002494161072101617047000083
:1040D0003F19010004494FF080500860BFF34F8F33
:1040E000BFF36F8F7047000004ED00E070B5054628
:1040F0000C460022002D06D044B11C4EF06A40B19F
:10410000FCF766F8FEE7FCF763F8FEE7FCF760F8FB
:10411000FEE700F057F8F0682B681C44834205D98D
:10412000A34208D9844206D9012204E0A34201D85F
:10413000844200D901222C607AB13068001DFFF75B
:1041400027FF38B9306890F82C1001208840316979
:10415000814331612046FFF76BFD00F083F90028B1
:1041600003D1BDE87040FFF7B5BF70BD98010020D6
:104170001FB50024009401940294234680220DA1CF
:104180000E48039400F08CF8012804D000280FD1C9
:10419000FCF71EF8FEE7FCF71BF809484FF0FF316B
:1041A000816201214161C460BDE81F4000F03EB85A
:1041B0001FBD000049444C45000000004D3D000873
:1041C000980100200248C16A491CC1627047000082
:1041D0009801002010B5134AD06A002802D00120AF
:1041E000D06110BD0020D0611069B0FA80F0C0F13C
:1041F0001F000D4900EB800051F8203073B101EB36
:10420000800041684968416000F10803994201D18A
:10421000496841604068C068106010BDFBF7D8FF76
:10422000FEE7000098010020D81400201CB51949B1
:1042300008780190FF200870087800909DF8000031
:10424000154A00F0100010700720906006E090689A
:10425000401E90609DF80000400000909DF8000016
:104260000006F4D4107A000200F4E0609060019837
:1042700008700A48016841F470010160016841F06A
:1042800070410160FFF71CFF00205060FBF76EFFDC
:1042900000201CBD00E400E0D001002020ED00E083
:1042A0002DE9FF4F81B08246DDE90E591099904605
:1042B0009B46BAF1000F04D0082D05D3FBF788FF09
:1042C000FEE7FBF785FFFEE74046FFF7CDFC04461F
:1042D0002E4F7CB3216BA8F1010001EB800020F090
:1042E0000706700702D0FBF773FFFEE7CDF80080EA
:1042F0002A462046119B0299FFF734FD5A46514643
:104300003046FFF723FE2060B9F1000F01D0C9F855
:104310000040FFF781FEB868401CB860386810B1F3
:10432000786940B10CE03C60B868012808D1FFF71B
:104330003DFD05E019E03868C06AA84200D83C603D
:10434000786A401C7862E06A01213A698140114331
:10435000396100EB80010E4800EB8100211DFFF761
:104360004FFE0124FFF774FE01E04FF0FF34012CF3
:1043700007D1786928B13868C06AA84201D2FFF72E
:10438000A9FE05B02046BDE8F08F0000980100208E
:10439000D81400200148C068704700009801002030
:1043A0002DE9F04100252D4FF86A002808D0B869A2
:1043B000401CB861F86900B101252846BDE8F081CC
:1043C000F868401CF860FE6876B9386B006810B178
:1043D000FBF7FEFEFEE7386B796B39637863386A6A
:1043E000401C3862FFF738FDB86ADFF874808642F7
:1043F0000DD3386B006838B1386BC068C46860682A
:1044000086420ED2B86202E04FF0FF30B8623868E0
:10441000C06A00EB800058F820000128CAD90125A5
:10442000C8E7201DFFF7B4FDA06A18B104F1180019
:10443000FFF7AEFDE06A01213A698140114339611D
:1044400000EB800008EB8000211DFFF7D9FDE06A3A
:104450003968C96A8842CCD30125CAE7980100208F
:10446000D81400202DE9F0410027284DE86A0028E3
:1044700007D0FFF7D1FDE86A401EE862E86A18B18C
:104480003EE0FBF7A5FEFEE7A868C8B3DFF8808032
:1044900001261EE0D8F80C00C46804F11800FFF7EC
:1044A00077FD201DFFF774FDE06A2A6906FA00F126
:1044B00011432961164900EB8000C83901EB8000E7
:1044C000211DFFF79DFDE06A2968C96A884200D373
:1044D000EE61D8F800000028DCD1A86938B909E0FD
:1044E000FFF75EFF00B1EE61A869401EA861A869F0
:1044F0000028F5D1E869012802D10127FFF7EAFD7C
:10450000FFF7A6FD3846BDE8F081000098010020C5
:10451000A015002000C1814001C0804101C0804140
:1045200000C1814001C0804100C1814000C1814083
:1045300001C0804101C0804100C1814000C1814073
:1045400001C0804100C1814001C0804101C0804163
:1045500000C1814001C0804100C1814000C1814053
:1045600001C0804100C1814001C0804101C0804143
:1045700000C1814000C1814001C0804101C0804133
:1045800000C1814001C0804100C1814000C1814023
:1045900001C0804101C0804100C1814000C1814013
:1045A00001C0804100C1814001C0804101C0804103
:1045B00000C1814000C1814001C0804101C08041F3
:1045C00000C1814001C0804100C1814000C18140E3
:1045D00001C0804100C1814001C0804101C08041D3
:1045E00000C1814001C0804100C1814000C18140C3
:1045F00001C0804101C0804100C1814000C18140B3
:1046000001C0804100C1814001C0804101C08041A2
:1046100000C1814000C0C101C30302C2C60607C772
:1046200005C5C404CC0C0DCD0FCFCE0E0ACACB0BE2
:10463000C90908C8D81819D91BDBDA1A1EDEDF1F12
:10464000DD1D1CDC14D4D515D71716D6D21213D302
:1046500011D1D010F03031F133F3F23236F6F737B2
:10466000F53534F43CFCFD3DFF3F3EFEFA3A3BFBA2
:1046700039F9F83828E8E929EB2B2AEAEE2E2FEF52
:104680002DEDEC2CE42425E527E7E62622E2E323C2
:10469000E12120E0A06061A163A3A26266A6A767F2
:1046A000A56564A46CACAD6DAF6F6EAEAA6A6BAB62
:1046B00069A9A86878B8B979BB7B7ABABE7E7FBF92
:1046C0007DBDBC7CB47475B577B7B67672B2B37382
:1046D000B17170B050909151935352929656579732
:1046E000559594549C5C5D9D5F9F9E5E5A9A9B5B22
:1046F00099595898884849894B8B8A4A4E8E8F4FD2
:104700008D4D4C8C44848545874746868242438341
:104710004181804000080140010000000008014084
:1047200002000000000801400400000000080140F1
:1047300008000000000801401000000000080140CF
:104740002000000000080140400000000008014077
:1047500080000000000C014001000000000C01403E
:1047600002000000000C014000010000000C0140AC
:1047700000020000000C014000040000000C014099
:10478000000800000010014001000000001001407E
:104790000200000000100140040000000010014071
:1047A000080000000010014010000000001001404F
:1047B00020000000001401408000000000140140AF
:1047C000001000000014014000200000001401400F
:1047D0000080000000030306010406020500030533
:1047E0001F1C1F1E1F1E1F1F1E1F1E1F0C48000800
:1047F00000000020FC010000C606000888480008F0
:10480000FC010020E4810000F42A0008019813BC98
:10481000473308025AC408011412441302401438E2
:104820000140322062402A80143A440E2937420463
:104830002A1C1412486A402732011B5804142A4CBF
:104840000F1B0210277A10646A504A49296A58647B
:10485000694F19147A6C64595219145A30647927C3
:104860002914696412021A10142B100279E96411D8
:104870003D020406086D2C02030404053E060708E9
:08488000091AAA01012400003D
:0400000508000131BD
:00000001FF
