:020000040800F2
:10000000F0840020ED0100089D190008D9180008AF
:100010009B1900088D100008D12F00080000000077
:10002000000000000000000000000000490100087E
:100030006D160008000000008D010008FD1F00087B
:1000400007020008191A000807020008791D0008B5
:10005000070200080702000807020008070200085C
:10006000070200080702000807020008070200084C
:10007000070200080702000807020008070200083C
:10008000070200080702000807020008070200082C
:10009000652F000807020008070200080702000891
:1000A000070200080702000807020008070200080C
:1000B0007522000807020008F12200080702000864
:1000C00007020008070200080702000807020008EC
:1000D0000702000807020008052B0008712B000822
:1000E00007020008070200080702000807020008CC
:1000F000A1280008070200081928000807020008C4
:10010000070200080702000835240008070200085B
:100110000702000807020008812600084D27000892
:10012000070200080702000807020008070200088B
:10013000DFF810D000F034FB004800476D4F000896
:10014000AFF30080F0840020204B19680868B0E805
:10015000F00F80F30988BFF36F8F4FF0000080F33A
:1001600011884EF00D0E7047000000000648006830
:10017000006880F3088862B661B6BFF34F8FBFF3A3
:100180006F8F00DF00BF00BF08ED00E0EFF30980D4
:10019000BFF36F8F0D4B1A6820E9F00F106008B5A0
:1001A0004FF0100080F3118805F004FD4FF00000BF
:1001B00080F31188BDE8084019680868B0E8F00FBE
:1001C00080F30988BFF36F8F704700BF980100204C
:1001D000EFF311804FF0100181F31188704780F325
:1001E00011887047EFF3058070470000064880478C
:1001F00006480047FEE7FEE7FEE7FEE7FEE7FEE70C
:10020000FEE7FEE7FEE7FEE72120000831010008D7
:10021000F0B480EA0102D40F4200B2EB410F02D2E7
:100220000246084611464A0042D0C30DDDB2C1F372
:10023000C752AD1A202D35DAC1F3160141F4000280
:1002400004B15242C5F1200602FA06F12A411044D7
:10025000B3EBD05F23D0C4B1012DA0EBC35009DCB8
:10026000F0BC4FF0004202EAC352DBB200F50000DE
:1002700000F0B9B9400000F1807000EBC350A0F16C
:10028000807040EAD170490009E0490841EAC07134
:10029000A0EBC35000F50000400800EBC350F0BCD9
:1002A00000F098B96142012202EB4101001BF6E720
:1002B000F0BC704781F00041AAE780F00040A7E75A
:1002C00080EA010210B502F00043400022D04A004B
:1002D0001FD0010E01EB1261C0F35600C2F35602AB
:1002E00040F4000042F40002A0FB022000047F3929
:1002F000140400D0401C50EA124001D44000491EB2
:10030000C2B20C0604EBD010401C4008802A02D078
:1003100003E0002010BD20F00100002900DA0020D9
:10032000184310BD30B480EA010202F0004530F0FD
:10033000004221F0004013D090B1C30DD40DC2F3A0
:100340001601C0F31600E41A41F4000140F4000263
:100350007D34914201D3641C00E04900002C02DA94
:1003600030BC002070474FF400000023914201D3BD
:10037000891A034340084FEA4101F7D151B1914234
:1003800002D14FF0004105E002D24FF0010101E03F
:100390006FF0010103EBC450284430BC00F01AB9DF
:1003A000420005D0C0F3C7525242914201DC002006
:1003B000704700EBC15070472DE9FE4F81EA0304FE
:1003C00004F0004421F0004100944FF0000B23F0B2
:1003D000004350EA01045ED052EA03045BD0C3F349
:1003E0000A54C1F30A552C44A4F2F3340194A0FB3F
:1003F0000254C1F3130141F48011C3F3130343F416
:10040000801301FB024400FB034E840A970A44EA6E
:10041000815447EA8357A4FB076802958D0A05FBC0
:1004200007854FEA932C04FB0C542705029D4FEAE5
:10043000065847EA1637B5EB08056EEB070C870E32
:10044000920E47EA811742EA8312A7FB0201B6EB3C
:100450000B0164EB00042B0D43EA0C335E1844EBF4
:100460001C50DA465146E7FB0201C5F313044FEA7C
:100470000B3343EA14534FEA0432019C43EA060368
:10048000A4F10C040294009CCDE900B400F0E8F85B
:1004900003B0BDE8F08F00200146F9E7C10F80EA04
:1004A000E0700844CA079623002100F09CB8962308
:1004B0000022114600F097B80EB540F23341029188
:1004C0000021CDE900110A460B4600F0C9F803B03F
:1004D00000BD20F00040C10DC0F3160040F4000044
:1004E0007F2901DA00207047962903DCC1F19601CB
:1004F000C8407047963988407047C1F30A5210B51A
:10050000C1F3130140F2FF3341F480119A4201DA42
:10051000002010BD40F233439A42A2F2334203DC82
:10052000524200F047F810BD904010BD00F000426C
:1005300030F000400AD0C10D01F56071C0F3160023
:1005400042EA0151C20840071143704700200146AA
:10055000704701F0004330B421F0004150EA01023D
:1005600006D00A0DA2F56072C1F31301002A02DC65
:1005700030BC00207047440F44EAC104C100E018B9
:1005800030BC00EBC25000F025B80000002801DBB1
:10059000C0F10040002901DBC1F1004181427047F8
:1005A000002801DBC0F10040002901DBC1F100415E
:1005B00088427047202A04DB203A21FA02F0002109
:1005C000704721FA02F3D040C2F120029140084363
:1005D000194670470029A8BF7047401C490008BF52
:1005E00020F00100704710B4B0FA80FC00FA0CF063
:1005F00050EA010404BF10BC704749B1CCF120049B
:1006000021FA04F411FA0CF118BF01212143084327
:10061000A3EB0C01CB1D4FEA00614FEA102042BF53
:10062000002010BC704700EBC35010440029A4BF49
:1006300010BC7047401C490008BF20F0010010BCEE
:10064000704710B5141E73F1000408DA401C41F124
:10065000000192185B411A4301D120F0010010BD46
:100660002DE9F04D92469B4611B1B1FA81F202E0BC
:10067000B0FA80F22032904600F0A4F804460F460B
:1006800040EA0A0041EA0B0153465A46084313D098
:10069000114653EA010019D0C8F140025046FFF755
:1006A00089FF05460E4650465946424600F08AF8F4
:1006B000084305D0012004E020463946BDE8F08D0E
:1006C0000020054346EAE0762C4337430A98630549
:1006D000E40AA0EB08000022FD0A44EA47540A306D
:1006E00002D500200146E9E7010510196941DDE95D
:1006F000084500196941BDE8F04DA2E72DE9F04D2C
:1007000000231A461B1A8A4103DB00200146BDE87C
:10071000F08DC1F30A52C1F3130141F480154FF07B
:10072000000BD10702D100186D41521E002704466C
:1007300040F2FF11384601EB620A3E46804602460F
:1007400000204FF48011FFF735FFC2197141BB182B
:1007500046EB0100B4EB030C75EB000C04D3E41A78
:1007600065EB000517460E46241908F101006D419E
:1007700080463428E3DDF91946EB0600091BA84141
:1007800003D24FF0FF32134601E0002213461BEB69
:10079000070046EB0A51BDE8F04DFFF752BF0000DD
:1007A000064C074D06E0E06840F0010394E80700BE
:1007B00098471034AC42F6D3FFF7BEFCD86300086C
:1007C000F8630008202A04DB203A00FA02F1002036
:1007D00070479140C2F1200320FA03F3194390407F
:1007E000704770B58C1810F8015B15F0070301D144
:1007F00010F8013B2A1106D110F8012B03E010F884
:10080000016B01F8016B5B1EF9D12B0705D40023A6
:10081000521E0DD401F8013BFAE710F8013BCB1A48
:10082000921C03E013F8015B01F8015B521EF9D53D
:10083000A142D8D3002070BD002904D0816841F0C6
:10084000010181607047816821F00101816070477A
:10085000002904D0816841F480718160704781680B
:1008600021F4807181607047014600208968490742
:1008700000D501207047014600208968090700D58E
:100880000120704710B542680E4B1A400C790B6876
:1008900042EA04221343436082680B4B1A40D1E9B9
:1008A000024323434C7942EA440213438360C26A01
:1008B00022F47002097C491EC9B242EA0151C162A8
:1008C00010BD0000FFFEF0FFFDF7F1FF70B5072639
:1008D00009290AD9C568A1F10A0404EB4404A64019
:1008E000B543A3401D43C56007E0056901EB410422
:1008F000A640B543A3401D4305611F23072A09D223
:10090000446B521E02EB820293409C4391400C4385
:10091000446370BD0D2A09D2046BD21F02EB820220
:1009200093409C4391400C43046370BDC46A0D3AEC
:1009300002EB820293409C4391400C43C46270BD21
:10094000816841F0080181607047002904D0816806
:1009500041F4A00181607047816821F4A0018160A9
:100960007047816841F00401816070472DE9F05FB4
:100970000646DDF828A0894690460024A6F2B2700B
:10098000822802D30120BDE8F09F40F2B275284FC3
:10099000DFF8A0B008E0284600F0E8FF08B13C44CA
:1009A00000E05C446D1CADB2B542F4D3A9F101097D
:1009B00009F0FF070025DFF88090DFF880B00FE036
:1009C00019F8050040F2A321484304EBC014304657
:1009D00000F0CCFF10B1012D00D15C446D1CADB214
:1009E000BD42EDD3A8F1010840F2A32008FB00F8B6
:1009F00004EBC810C3EB4311C1EB032100EB011062
:100A0000CAEB0A1100EB81000B99441801214FF049
:100A1000C05001F037F8012001F010F801F0ECF8B7
:100A2000204601F04DFA01F07BFA0020ABE7000010
:100A30000085E2018033E101CC63000880510100B0
:100A400030B505460C46002D0BD0022C09D9A01E4E
:100A5000C1B2284600F024FF291901F8020D000A4E
:100A6000487030BD10B5012001F028F8BDE81040F5
:100A7000002001F023B8000008B5034908440090A5
:100A80000098008808BD0000006C004008B5034ACB
:100A9000104400900098016008BD0000006C004008
:100AA0002DE9F04788B00746DDE910A8DDF8489049
:100AB0000E4614461D460121480600F0E3FF8DF85E
:100AC00018408DF819508DF81760ADF814A0002467
:100AD0008DF81A4001258DF81B5007948DF81640AB
:100AE00005A9384600F00AFC8DF80A408DF80B4045
:100AF0008DF80C50ADF80040ADF80240ADF8044060
:100B0000ADF80640ADF808408DF80D50684600F08D
:100B10001BFB01220221384600F0E6FB14208DF871
:100B200010008DF811808DF812908DF8135004A8E4
:100B300000F036FF08B0BDE8F08738B504460D4632
:100B4000204600F013F8A088ADF800008DF803509F
:100B500003208DF802006946206800F03FFE38BD92
:100B60008188006889B200F08CBE0000124A0168DA
:100B7000914201D104201CE0104A914201D1082089
:100B800017E00F4A914201D1102012E00D4A914224
:100B900001D120200DE00C4A914201D1402008E013
:100BA0000A4A914201D1802003E0094A914200D1D2
:100BB0008815012100F074BF00080140000C0140BD
:100BC000001001400014014000180140001C0140C9
:100BD000002001402DE9F04F87B08246DDE911B8D1
:100BE000109F894616461D46504600F0E3F81DB199
:100BF00028212868FFF7A1FF1FB128213868FFF7D7
:100C00009CFFBBF1000F03D028212868FFF795FF58
:100C1000B8F1000F04D02821D8F80000FFF78DFFAD
:100C2000ADF810600026ADF81260ADF81490ADF884
:100C3000166004A9504601F017FF4FF0010985B175
:100C400044F00204ADF80460A888ADF80600ADF8E1
:100C50000890ADF80A60ADF80C6001A9504601F0AB
:100C600053FE8FB144F004040420ADF80400A888BA
:100C7000ADF80600ADF80890ADF80A60ADF80C606C
:100C800001A9504601F040FEBBF1000F11D044F025
:100C900008040820ADF80400A888ADF80600ADF8F7
:100CA0000890ADF80A60ADF80C6001A9504601F05B
:100CB0002BFEB8F1000F11D044F010040C20ADF859
:100CC0000400A888ADF80600ADF80890ADF80A60F9
:100CD000ADF80C6001A9504601F016FE44F0010188
:100CE0000122504601F056FE0121504601F0F3FD6D
:100CF0001398FF2816D01498FF2813D0504601F0FF
:100D00007BFEDDE9131200F046F80848824502D068
:100D10000748824506D1504601F09CFADDE91312DE
:100D200000F039F807B0BDE8F08F0000002C01405A
:100D3000003401402DE9FF4180460A9F0C461646CB
:100D40001D46404600F036F8ADF80840ADF80460A6
:100D50000021ADF80610ADF80A1001A9404601F0D7
:100D600083FE01221146404601F014FE0121404657
:100D700001F0B1FD404601F03FFE8DF800008DF816
:100D800001508DF8027001208DF80300684600F0D4
:100D900007FEBDE8FF8108B58DF800008DF8011051
:100DA0008DF8022001208DF80300684600F0F8FD60
:100DB00008BD00003149884203D10121C01400F070
:100DC0006FBEB0F1804F06D02D49884207D1012176
:100DD000022000F057BE0121084600F053BE294909
:100DE000884203D10121042000F04CBE26498842EC
:100DF00003D10121082000F045BE2449884203D1D7
:100E00000121102000F03EBE2149884203D101217A
:100E1000202000F037BE1F49884203D10121401431
:100E200000F03EBE1C49884203D10121C80400F0F5
:100E300037BE1A49884203D10121080500F030BEAF
:100E40001749884203D10121480500F029BE154900
:100E5000884203D10121402000F014BE124988428B
:100E600003D10121802000F00DBE1049884203D13A
:100E70000121801500F006BE70470000002C0140E3
:100E80000004004000080040000C0040001000403A
:100E90000014004000340140004C0140005001406B
:100EA0000054014000180040001C00400020004099
:100EB00030B58BB004462078002829D001210220CB
:100EC00000F0D2FD606800F035FBA068001D0090C6
:100ED0006078002508B30295A06801F02FFF01900B
:100EE000A06801F0CFFF039004958020059006953F
:100EF000079508954FF4405009900A956946606837
:100F000000F097FB0121606800F006FB0BB030BDDC
:100F10000121084600F0A8FDD4E710200290A06847
:100F200001F03AFF0190A06801F0D2FF0390DBE7E7
:100F30002DE9F04385B00646DDE90C780C461546F0
:100F40009946304600F058F81CB118212046FFF7AA
:100F5000F4FD1DB104212846FFF7EFFDCDF8009008
:100F60000020ADF80400ADF80600ADF80800ADF8BB
:100F70000C000C20ADF80A006946304601F080FEF6
:100F8000DFF87090FF2F20D0B8F1FF0F1DD0304652
:100F900001F0C4FF8DF810008DF811708DF81280EB
:100FA00001208DF8130004A800F0FAFC4E4506D08D
:100FB000012240F22441304601F046FE05E00122C4
:100FC00040F22551304601F03FFE4E450BD024B192
:100FD00001228021304601F00DFE25B10122402181
:100FE000304601F007FE0121304601F0F7FD05B063
:100FF000BDE8F083005000401149884203D101212F
:10100000880300F04DBD0F49884203D101214804F7
:1010100000F038BD0C49884203D10121880400F05A
:1010200031BD0A49884203D10121C80400F02ABD1C
:101030000749884203D10121080500F023BD70470C
:10104000003801400044004000480040004C00408F
:101050000050004070B504460D461646606800F02A
:10106000E5FA0028FAD10021606800F055FAD4E9C9
:101070000301084300F044FA6068C5606068466098
:101080006068BDE87040012100F046BAFEE700004C
:101090000A4A914202D1002181617047C1F31302D3
:1010A0008B0101D5C26070474B0101D502617047C9
:1010B000090101D582607047426070477000F030CE
:1010C00030B5082310240422B1F5007F33D011DCA1
:1010D00020292AD007DC012922D0042923D008297D
:1010E00000D1C46030BD402921D0B1F5807FF9D155
:1010F000426030BD0025B1F5004F20D008DCB1F5CD
:10110000806F1AD0B1F5006FF3D18561426030BDB8
:10111000B1F5803F0DD0B1F5003FF8D1446030BD4E
:101120000849816030BDC36030BD036130BD0461DA
:1011300030BD436030BD426030BD426030BD85612E
:10114000426030BD01010100F0B5827A0121914079
:10115000304C226842F0010222602E4D1C352A6874
:101160008A432A602B4A067B0C322B4B002E14D16B
:1011700016688E4316604688C78846EA0746877A0F
:1011800003EBC707C7F840660688878846EA074624
:10119000877A03EBC707C7F84466067B012E14D194
:1011A00016680E4316604288068842EA0642867A2E
:1011B00003EBC606C6F84026C288868842EA064285
:1011C000867A03EBC603C3F84426124AC37A121D7B
:1011D0003BB113680B4313600E4A0389143223B1E9
:1011E00006E013688B431360F6E713688B431360C4
:1011F0000389012B02D113680B431360407B012844
:1012000002D1286808432860206820F0010020608F
:10121000F0BD000000660040006000400246002073
:1012200053690B425DD0B1F5807F4AD016DC0829A6
:1012300037D009DC01292CD002292ED0042950D125
:10124000D068082100F01DB910292ED0202930D0F7
:10125000402946D11069102100F013B9B1F5004FB3
:101260003BD00CDCB1F5007F2FD0B1F5806F30D0D2
:10127000B1F5006F35D19069702100F002B9B1F578
:10128000803F1AD0B1F5003F2BD15068102100F0FB
:10129000F8B89068134900F0F4B8D068032100F062
:1012A000F0B8D068102100F0ECB81069032100F00C
:1012B000E8B81069082100F0E4B85068082100F08F
:1012C000E0B89069012100F0DCB89069022100F0DB
:1012D000D8B89069042100F0D4B85068042100F017
:1012E000D0B8704701010100002A03D042690A43C7
:1012F0004261704742698A434261704710B50022DB
:10130000036823F002030360036843F001030360F2
:101310004FF6FF7300E0521C4468E40701D19A4283
:10132000F9D14268D2073ED08A79012A3DD00268BD
:1013300022F080020260CA79012A3BD0026822F0C2
:10134000400202600A7A012A39D0026822F02002A3
:1013500002604A7A012A37D0026822F01002026045
:101360008A7A012A35D0026822F008020260CA7A1D
:10137000012A33D0026822F0040202608A78CC7815
:10138000920742EA04620C7942EA04424C790988E5
:1013900042EA0452491E0A43C261016821F0010178
:1013A0000160002120E0002010BD026842F08002B0
:1013B0000260C0E7026842F040020260C2E70268D1
:1013C00042F020020260C4E7026842F010020260AC
:1013D000C6E7026842F008020260C8E7026842F00D
:1013E00004020260CAE7491C4268D20701D0994250
:1013F000F9D14068C00701D0002010BD012010BD08
:1014000010B500EB0113D3F8B04104F004041472DA
:10141000002C2CD0D3F8B041E408546003F5D87305
:101420001C6804F0020454725C6804F00F049472A7
:101430005C68240AD4749C68D4729C68240A14736F
:101440009C68240C54739C68240E9473DC68D473D9
:10145000DC68240A1474DC68240C5474DB681B0EEA
:10146000937449B1016941F02001016110BDD3F8C5
:10147000B041640D1460D1E7C16841F02001C16042
:1014800010BD024600200A4200D001207047000033
:101490000122064B8240002903D0186810431860CF
:1014A000704718689043186070470000007400404F
:1014B00030B5084C236840F6FE7282409343D1E970
:1014C00000252A43D1E902510D432A4382401A43A1
:1014D000226030BD0074004008B5034A1044083053
:1014E00000900098016008BD0074004008B5034AF0
:1014F0001044143000900098016008BD0074004052
:10150000C10002D50249086070470249486070472F
:101510000404024000000240002904D0016841F0A8
:1015200001010160704701684FF6FE7211400160D1
:101530007047000001684FF6FE7211400160002103
:10154000016041608160C1603649364A0839904285
:1015500004D1486840F00F0048607047314A1432A7
:10156000904204D1486840F0F000486070472D4A2E
:101570002832904204D1486840F470604860704757
:10158000284A3C32904204D1486840F47040486098
:101590007047244A5032904204D1486840F4702089
:1015A000486070471F4A6432904204D1486840F452
:1015B0007000486070471B4A7832904204D14868F6
:1015C00040F0706048607047174A111F904204D184
:1015D000086840F00F0008607047134A14329042C8
:1015E00004D1086840F0F000086070470E4A2832C5
:1015F000904204D1086840F47060086070470A4A5D
:101600003C32904204D1086840F470400860704752
:10161000054A50329042FAD1086840F470200860C0
:10162000704700000800024008040240406880B291
:10163000704730B5026847F6F0739A430C6A8B68BE
:101640002343D1E904452C4323438C692343CC69CC
:1016500023434C6A23438C6A234313430360CA68C1
:1016600042600A6882604968C16030BD704700000E
:1016700001490860704700001404014030B51B4A5E
:1016800083790168002B2AD013688B431360111DE6
:101690000B680468A3430B60017911440B6804686C
:1016A00023430B60114C083421680368994321607F
:1016B000231D19680568A94319604179102905D0CF
:1016C00011440A68006802430A6030BD216802685C
:1016D00011432160196800680143196030BD007929
:1016E000104402688A43026030BD000000040140DB
:1016F0000149C860704700000020024070B50546EF
:101700004FF43026304600F059F8042811D1094C26
:10171000206940F0020020616561206940F04000CE
:101720002061304600F04AF8216941F6FD7211400F
:10173000216170BD0020024004200849CA68D20718
:1017400001D001207047CA68520701D502207047B6
:10175000C968C906FBD5032070470000002002407D
:101760000248016941F08001016170470020024098
:10177000F0B506460D464FF40057384600F01EF807
:1017800004280CD1064C206940F00100206135800E
:10179000384600F013F82169BA1E11402161F0BDEE
:1017A00000200240034802494160034941607047FC
:1017B0002301674500200240AB89EFCD00B5034609
:1017C000FFF7BAFF02E0FFF7B7FF5B1E012801D168
:1017D000002BF8D1002B00D1052000BD2DE9F041F0
:1017E0000022CC7804F00F03E40601D58C78234363
:1017F0000C784FF00F0714F0FF0F4FF0010C1CD0C6
:1018000005680CFA02F40E882640A64211D1960013
:1018100007FA06F825EA080503FA06F848EA050576
:10182000CE78282E02D0482E02D002E0446100E09B
:101830000461521C082AE4D305600A88FF2A1ED9D5
:101840004568002202F108060CFA06F40E882640CC
:10185000A64210D1960007FA06F825EA080503FA11
:1018600006F848EA0505CE78282E00D14461CE78E6
:10187000482E00D10461521C082AE3D34560BDE81C
:10188000F08141F480328261816182618169806985
:1018900070470246002092680A4200D0012070473B
:1018A00070B5FF22FF23002801D0022902D84FF68D
:1018B000FF7070BD074D05F5807605E010F8014B0F
:1018C00054402A5D5A40335D491EC9B2F6D243EAFC
:1018D000022070BDF45E000806A30020104C211FFA
:1018E0001A5C22800A885206FCD5401CC0B22A2805
:1018F000F6D3FEE70D0A456E746572204861726486
:101900004661756C745F48616E646C65722C20531F
:10191000797374656D2048616C742E0D0A000000A7
:101920000438014002494CF6CC4008607047000082
:1019300000300040AFF3008002494AF6AA20086058
:1019400070470000003000400149486070470000C7
:1019500000300040014988607047000000300040BE
:10196000014908607047000000300040810701D045
:10197000002070476421B0FBF1F201FB120109B1B4
:10198000012070474FF4C871B0FBF1F201FB120067
:1019900008B10020704701207047FEE77047000043
:1019A00070B50F23C27801260178002A1ED0144A90
:1019B000126802F4E062C2F5E062120AC2F10404A5
:1019C000D3404578A54082781A402A43120101F19C
:1019D000E02181F80024007800F01F018E404009CA
:1019E000800000F1E020C0F8006170BD01F01F0030
:1019F00086404809800000F1E020C0F8806170BD99
:101A00000CED00E0024908430249086070470000FD
:101A10000000FA050CED00E010B54FF48030FFF740
:101A200027FE03F00FF90021017003F00BF9017894
:101A3000BDE810400820FFF729B8000001490862FE
:101A40007047000000000E42014908617047000025
:101A500000000E42034A116821F0E00101431160C9
:101A60007047000000700040054A002903D051690A
:101A700001435161704751698143516170470000D2
:101A800000100240054A002903D0D1690143D16109
:101A90007047D1698143D161704700000010024056
:101AA000054A002903D0916901439161704791690A
:101AB00081439161704700000010024001490860B5
:101AC000704700004004424210B5264A516801F0B8
:101AD0000C01254B002927D0042927D0082927D01D
:101AE0000360516801F0F0010909204B5C5C01685A
:101AF000E1404160546804F4E064240A1C5D21FA6A
:101B000004F48460546804F46054E40A1B5DD94012
:101B1000C160526802F44042920B144B1B1F9A5C46
:101B2000B1FBF2F1016110BD0360DAE70360D8E7B1
:101B3000516801F47011536803F48033022404EBFC
:101B4000914133B153689B0307D5094B5943016059
:101B5000C7E7074B59430160C3E7034B5943016093
:101B6000BFE700000010024000127A00860100204A
:101B700000093D00034600205909094A01290AD0FD
:101B800002290AD0516A03F01F02012393400B423D
:101B900000D0012070471168F5E7116AF3E70000F3
:101BA00000100240084900220A7001F8202901288B
:101BB00005D0042802D1052081F8200070470120BB
:101BC00081F82000704700002010024001490860A1
:101BD000704700003C04424202490A6A02430A621A
:101BE000704700000010024002490A8882430A80C0
:101BF00070470000042800400248018841F01001AD
:101C000001807047042800400248018821F010013B
:101C100001807047042800402DE9F04700F06AF881
:101C20000646304FB6FBF7F32F48304D01889942F6
:101C300031D0038040F2B2744FF4B7784FF4B679E4
:101C40000FE02046FFF792FE38B1434502D3A3F5DB
:101C5000B77304E0641CA4B205E0A3F26D13641C26
:101C6000A4B24B45EDD8AC800024DFF884800CE0B2
:101C7000A888FFF77BFE08B1012C2FD018F80400CC
:101C8000984204D81B1A641CA4B21C2BF0D2641C0A
:101C9000AC715B1CEB71B6FBF7F007FB10604FF407
:101CA0006161B0FBF1F22A70B0FBF1F201FB1203AB
:101CB0003C22B3FBF2F36B70B0FBF1F301FB1300BA
:101CC000B0FBF2F102FB1100A870EA79A979A888AB
:101CD00000F02AF828720020BDE8F0871D2BD6D32B
:101CE0001D3BD0E78051010080010020E01500205D
:101CF000CC630008034800880249091F098840EAAC
:101D0000014070471C28004006490988C2B21140B2
:101D1000044A121F1288024202D009B10120704702
:101D2000002070470428004030B56423B0FBF3F472
:101D3000E4B2B0FBF3F503FB1500132C01D96430BA
:101D4000C0B200EB90030724B3FBF4F504FB15339A
:101D5000084D1A440D4415F8015C2A4492B28007DC
:101D600003D1032901D2521E92B2B2FBF4F004FB5C
:101D7000102030BDC063000810B50120FFF7C4FF7C
:101D800008B1FFF749FF0220FFF7BEFF30B1074857
:101D90000168491C01600220FFF726FF0520FFF7BC
:101DA00023FFBDE8104000F0BBB80000B4000020E5
:101DB000054A002903D0118801431180704711881A
:101DC00081431180704700000028004008B50322BD
:101DD0008DF800208DF801008DF8021001208DF89B
:101DE00003006846FFF7DCFD08BD00002DE9F05F49
:101DF0000646DDF828A0894690460024A6F2B27077
:101E0000822802D30120BDE8F09F40F2B275284F2E
:101E1000DFF8A0B008E02846FFF7A8FD08B13C4471
:101E200000E05C446D1CADB2B542F4D3A9F10109E8
:101E300009F0FF070025DFF88090DFF880B00FE0A1
:101E400019F8050040F2A321484304EBC0143046C2
:101E5000FFF78CFD10B1012D00D15C446D1CADB2BB
:101E6000BD42EDD3A8F1010840F2A32008FB00F821
:101E700004EBC810C3EB4311C1EB032100EB0110CD
:101E8000CAEB0A1100EB81000B99441801214FF0B5
:101E9000C050FFF7F7FD0120FFF7D0FD204600F00E
:101EA0001FF800F03DF8FFF7B7FE0020ABE7000099
:101EB0000085E2018033E101CC630008805101001C
:101EC00000B50246FFF798FE0449100C0880081D73
:101ED00002805DF804EBFFF797BE00002028004069
:101EE00000B50246FFF788FE0449100C0880081D63
:101EF00002805DF804EBFFF787BE00001828004061
:101F000000B50246FFF778FE0449C2F3034008809B
:101F1000081D02805DF804EBFFF776BE082800403C
:101F2000024801888906FCD570470000042800405B
:101F30000448018821F00801018001880907FCD5C7
:101F40007047000004280040AFF300800CB5002269
:101F5000019200922748016841F4803101604FF4FA
:101F6000A063016801F4003100910199491C0191BD
:101F7000009911B901999942F3D10168890302D5F9
:101F80000121009100E000920099012930D11A4905
:101F90000A6842F010020A600A6822F003020A602E
:101FA0000A6842F002020A6041684160416841608B
:101FB000416841F480614160416821F47C114160D5
:101FC000416841F4E8114160016841F080710160AD
:101FD00001688901FCD5416821F003014160416835
:101FE00041F0020141604168C1F381010229FAD147
:101FF0000CBD0000001002400020024010B5FEF7AA
:10200000E7F803F0BDFE18B104494FF080500860B6
:10201000BDE810400020FEF7E2B8000004ED00E04B
:1020200010B50F48016841F00101016041680D4A97
:102030001140416001680C4A11400160016821F4BF
:1020400080210160416821F4FE0141604FF41F01CD
:102050008160FFF779FF05494FF00060086010BD0F
:10206000001002400000FFF8FFFFF6FE08ED00E060
:1020700070B5048C24F001040484058B048C25F0D5
:10208000F3054FF6FF7606EA031313432B43104A7A
:1020900090420ED00F4A90420BD0B0F1804F08D042
:1020A0000D4A904205D00D4A904202D00C4A90420F
:1020B00005D124F002020A4342F0010104E024F0B9
:1020C0000A020A4342F001010383018470BD00004B
:1020D000002C014000340140000400400008004092
:1020E000000C0040F0B5048C24F010040484068B2E
:1020F000048C4FF6FF7505EA011726F4734605EACE
:102100000333334305EA02221A43104B98420ED0A0
:102110000F4B98420BD0B0F1804F08D00D4B984236
:1021200005D00D4B984202D00C4B984205D124F0BB
:102130002001394341F0100104E024F0A0030B43D7
:1021400043F0100102830184F0BD0000002C014027
:10215000003401400004004000080040000C004032
:10216000F0B5048C24F480740484858B048C4FF6C1
:10217000FF7707EA012625F0F30507EA0313134367
:102180002B43104A90420ED00F4A90420BD0B0F130
:10219000804F08D00D4A904205D00D4A904202D09F
:1021A0000C4A904205D124F40071314341F480710E
:1021B00004E024F420620A4342F4807183830184A2
:1021C000F0BD0000002C014000340140000400403C
:1021D00000080040000C0040F0B5048C24F480544A
:1021E0000484868B048C4FF6FF7505EA013726F4CC
:1021F000734605EA0222324305EA03331343104AC9
:1022000090420ED00F4A90420BD0B0F1804F08D0D0
:102210000D4A904205D00D4A904202D00C4A90429D
:1022200005D124F40051394341F4805104E024F4F1
:1022300002420A4342F4805183830184F0BD0000CE
:10224000002C014000340140000400400008004020
:10225000000C00400146054A914201D11B20704705
:10226000034A9142FBD12E2070470000002C014010
:102270000034014010B501218C07204600F028FBF6
:102280000121204600F033FB002829D002F0E8FBB2
:1022900090F83100002428B102F0E2FB418E491C85
:1022A000418602E002F0DCFB448602F0CBFC807B3E
:1022B0000A2816D302F0C6FC01780820FEF7E6FBD8
:1022C00002F0D2FB01460C20FEF7E0FB02F0C8FB57
:1022D00090F830101020FEF7D9FB02F0B3FC8473A5
:1022E00010BD02F0AFFC817B491C817310BD000062
:1022F0002DE9F05FDFF828A10721504600F0E8FA49
:102300000121504600F0F3FA464C474D38B12168A0
:1023100009B1491C2160296809B1491C29600221C1
:10232000504600F0E4FADFF8049100260127E8B3F4
:10233000DFF8EC80206808F1340828B3B8F8001002
:10234000E181401EE189C0EB00400844A189401AA8
:102350002061FEF7ACF801464846FDF7E3FF6060F8
:1023600002F0B4FB406801686068FDF7A9FF3049DE
:10237000FDF7A6FF834602F0A9FB4068C0F808B04D
:102380002660A8F8006005E0A8F80060B8F8000032
:10239000A081276002F09AFB407B38B102F096FBE7
:1023A0000068077002F092FB006800E004E04468F7
:1023B00002F08CFB006884600421504600F097FA1C
:1023C000002825D0164C2868383418B32188E981B4
:1023D000401EE989C0EB00400844A989401A2861E1
:1023E000FEF765F801464846FDF79CFF686002F07D
:1023F0006DFB406801686868FDF762FF0C49FDF7F6
:102400005FFF074602F062FB4068C7602E602680CF
:10241000BDE8F09F26802088A8812F60F8E70000A3
:1024200000080040F0060020080700200050C347C5
:102430000000704270B5914C0121204600F048FA2E
:102440000121204600F053FA00287DD002F00CFB59
:10245000022879D102F004FB90F828000024E8B3A8
:1024600002F03CFB407BC8BB02F038FB007B6428D9
:102470000DD302F033FB047302F030FB054602F08B
:102480002DFB41682868FDF7C3FE286004E002F0D8
:1024900025FB017B491C017302F018FB456902F022
:1024A0001DFB00682946FEF77BF805D202F00EFB03
:1024B000456902F013FB056002F010FB407B20B180
:1024C00002F00CFB817B491C817302F007FB807BCF
:1024D000142807D302F002FB447300E002E002F08C
:1024E000FDFA847302F0F2FA407B002877D002F004
:1024F000EDFA406890F8380030B102F0E7FA406831
:10250000416C491C416403E002F0E0FA4068446415
:1025100002F0DCFA00680078002838D002F0D6FA21
:1025200000688068A0B302F0D1FA00688168491E93
:10253000816002F0CBFA406A0A2864D302F0C6FA3E
:10254000446202F0C3FA00E093E0056802F0BEFACC
:1025500000680169E868FDF75BFEE86002F09EFA3A
:102560000078032102F086FAC0B102F0AFFA856963
:1025700002F0ACFA00682946C068FEF711F868D28C
:1025800002F0A4FA856902F0A1FA0068C56060E073
:10259000FFE702F09BFA00680470CAE702F060FAF5
:1025A00090F83400E0B102F091FA807B02F0ACFACE
:1025B000054602F08BFA056102F088FA056902F01F
:1025C00085FA00682946C068FDF7EAFF41D802F0A5
:1025D0007DFA056902F07AFA0068C56039E018E012
:1025E00002F074FA456902F071FA00682946C06881
:1025F000FDF7D6FF2DD202F069FA456902F066FABE
:102600000068C56025E002F061FA416A491C416238
:102610001FE002F043FA0078032102F02BFAC0B960
:1026200002F054FA406A0A280ED302F04FFA4462CC
:1026300002F04CFA456802F049FA4068016AA8695C
:10264000FDF7E6FDA86104E002F040FA416A491C8A
:10265000416202F005FA90F83400002809D002F037
:10266000FFF990F8360028B102F0FAF9816B491CA5
:10267000816370BD02F0F4F9846370BD000C00400A
:1026800010B5234C0121204600F022F901212046FB
:1026900000F02DF9002835D01E4C21781E480A295B
:1026A00001D3017879B321780A292BD20078002848
:1026B00028D102F0CBFA194800681949227841F86C
:1026C0002200184800681849227841F8220017486B
:1026D0000168174A207842F8201016480068164909
:1026E000227841F82200154800681549227841F8FF
:1026F0002200144800681449227841F8220020780A
:10270000401C207010BDFFE701210170FAE70000B6
:10271000001000402700002026000020300000208C
:10272000100500203400002038050020380000206B
:10273000600500203C0000208805002040000020AB
:10274000B005002044000020D805002010B5234C1F
:102750000121204600F0BCF80121204600F0C7F816
:10276000002835D01E4C21781E480A2901D3017853
:1027700079B321780A292BD20078002828D102F0D9
:10278000BBFA194800681949227841F82200184814
:1027900000681849227841F8220017480168174A52
:1027A000207842F82010164800681649227841F82F
:1027B0002200154800681549227841F82200144883
:1027C00000681449227841F822002078401C2070CB
:1027D00010BDFFE701210170FAE70000001400407E
:1027E00029000020280000204800002000060020CA
:1027F0004C00002028060020500000205006002039
:10280000540000207806002058000020A006002078
:102810005C000020C806002070B51D4C0221204637
:1028200000F056F80221204600F061F8002828D078
:10283000184C174E34362068002518B33188E181D2
:10284000401EE189C0EB00400844A189401A206184
:10285000FDF72DFE01461048FDF764FD6060217D07
:102860000E4A42F821002560491CC8B22075358007
:102870000A2806D30A21104602F0C0FBA060257585
:10288000656070BD35803088A0810120206070BDFA
:102890000034014020070020001BB7493807002002
:1028A00010B5094C0121204600F012F80121204604
:1028B00000F01DF8002805D004490868002801D060
:1028C000401C086010BD00000034014020070020BB
:1028D000C94301827047002904D0018841F00101F9
:1028E00001807047018821F0010101807047024694
:1028F0000020138A0B4092890A40002B02D0002A44
:1029000000D001207047000070B505460C461D48F8
:10291000854209D01C48854206D0B5F1804F03D0CE
:102920001A48854200D01A4820886188A2882389E5
:1029300060B1042813D008281AD02846FFF74CFCB1
:10294000E1882846BDE8704000F04AB82846FFF705
:102950008FFBE1882846BDE8704000F025B8284686
:10296000FFF7C0FBE1882846BDE8704000F024B8BE
:102970002846FFF7F5FBE1882846BDE8704000F0E7
:1029800027B80000002C0140003401400004004042
:1029900000080040002A03D082890A4382817047E0
:1029A00082898A4382817047028B22F00C02028363
:1029B000028B0A4302837047028B22F44062028337
:1029C000028B4FF6FF7303EA01210A43028370472B
:1029D000828B22F00C028283828B0A4382837047AF
:1029E000828B22F440628283828B4FF6FF7303EA6C
:1029F00001210A43828370470146B1F1804F04D020
:102A0000124A914203D11D2070471C207047104A82
:102A1000914201D11E2070470E4A914201D13220CD
:102A200070470D4A914201D1362070470B4A9142BE
:102A300001D1372070470A4A914201D119207047CD
:102A4000084A9142FBD12C2070470000000400404E
:102A500000080040000C004000100040001400403E
:102A6000002C01400034014030B502881B4C1C4D45
:102A7000A0420DD0A8420BD0B0F1804F08D0194B26
:102A8000984205D0184B984202D0184B984203D177
:102A900022F070034A881A43154B984206D0154B12
:102AA000984203D022F44073CA881A4302808A886D
:102AB00082850A880285A0420AD0A84208D00E4A20
:102AC000904205D00D4A904202D00D4A904201D169
:102AD000097A01860121818230BD0000002C01406D
:102AE000003401400004004000080040000C004099
:102AF000001000400014004000400140004401402C
:102B00000048014070B5164D40F22441284600F0BF
:102B10007BF8002823D02888281D0088114E00212A
:102B20003046FEF7F9FC3046FEF780FDC0F140006C
:102B300084B24FF4C000FEF7E3FC0A4940206C3930
:102B4000086701213046FEF7E7FC002C07D0064954
:102B5000284602F0A3F905480168491C016070BDD0
:102B6000004400406C00024021000020B000002022
:102B700070B5164D40F22441284600F045F8002873
:102B800022D02888281D0088114E00213046FEF7EB
:102B9000C3FC3046FEF74AFDC0F5007084B26020E9
:102BA000FEF7AEFC0A4968151C39C865012130469C
:102BB000FEF7B2FC002C07D00649284602F0A8FC1C
:102BC00005480168491C016070BD000000480040D4
:102BD0001C000240A8000020B0000020002904D002
:102BE000818941F4005181817047818921F400512C
:102BF00081817047002A03D0828A0A43828270470B
:102C0000828A8A438282704770B5002440F66A1235
:102C1000C1F3421301F01F05012606FA05F2012B4C
:102C20000CD0022B0DD0838A1340090A8E400088F5
:102C300030400BB100B10124204670BD83891340A0
:102C4000F3E7038A1340F0E710B540F66A13C1F3C7
:102C5000421301F01F040121A140012B07D0022BD8
:102C600007D014303AB102680A43026010BD0C303C
:102C7000F8E71030F6E702688A43026010BD0000F2
:102C800030B585B004460D46208A4CF6FF710840E9
:102C9000E98801432182A0894EF6F3110840A988F2
:102CA0002A8911436A8902431143A181A08A4FF600
:102CB000FF410840A9890143A1826846FEF704FF4D
:102CC0001D48844201D1039800E00298A1890904BB
:102CD00008D500EBC00101EB001029684900B0FBEA
:102CE000F1F007E000EBC00101EB0010296889005A
:102CF000B0FBF1F06422B0FBF2F109010B096FF0B7
:102D000018056B4300EB8300A3891D044FF03203C9
:102D100007D503EBC000B0FBF2F000F0070008435A
:102D200006E003EB0010B0FBF2F000F00F000843E8
:102D3000208105B030BD00000038014001460D4A39
:102D4000914201D10C4870470C4A914201D10C4884
:102D500070470C4A914202D10948403070470A4AF4
:102D6000914201D109487047094A9142FBD1094873
:102D70007047000000380140600700200044004018
:102D80006008002000480040004C0040A00A0020DD
:102D900000500040A00C002001460D4A914201D194
:102DA0000C4870470C4A914201D10C4870470C4ABC
:102DB000914202D10948403070470A4A914201D1FC
:102DC00009487047094A9142FBD109487047000001
:102DD00000380140A00E002000440040A00F002059
:102DE00000480040004C0040E0110020005000402E
:102DF000E0130020F0B502461C4C1D4B1D4D1E4E2D
:102E00001E4F802905D0402902D1A2421AD11C4868
:102E1000F0BDA24202D11A486438F0BD9A4202D1F4
:102E200017485038F0BDAA4202D115483C38F0BDD1
:102E3000B24202D112482838F0BDBA42FCD1104843
:102E40001438F0BD9A4202D10D481430F0BDAA42A8
:102E500002D10B482830F0BDB24202D108483C30C4
:102E6000F0BDBA42FCD106485030F0BD00380140F8
:102E70000044004000480040004C0040005000402A
:102E80001C01002001460D4A914201D18015704776
:102E90000B4A914201D1402070470A4B5A15994282
:102EA00001D110467047084B994201D11046704736
:102EB000064B9942FBD11046704700000038014094
:102EC0000044004000480040004C004000500040DA
:102ED00001460D4A914201D1801570470B4A91423B
:102EE00001D1402070470A4B5A15994201D1104632
:102EF0007047084B994201D110467047064B9942E2
:102F0000FBD11046704700000038014000440040EB
:102F100000480040004C00400050004001460C4A70
:102F2000914201D1252070470A4A914201D12620C1
:102F30007047094A914201D127207047074A9142C0
:102F400001D134207047064A9142FBD135207047A9
:102F5000003801400044004000480040004C004060
:102F60000050004010B586B0144C02212046FEF7F8
:102F700055F9002820D004212046FEF7A1F8104979
:102F80002046FEF785F801AA00212046FEF738FA10
:102F90000198A0F50070093806D0012808D1094928
:102FA00001A801F02EF803E0074901A801F029F873
:102FB00006480168491C016006B010BD006400406D
:102FC000080000321000002018000020AC00002093
:102FD000FEE730B505460C46002D01D0022C01D885
:102FE000002030BDA01EC1B22846FEF759FC2919A9
:102FF000C2B211F8023C9A4206D111F8011CB1EBA1
:10300000102F01D1012030BD002030BD02E008C8E2
:10301000121F08C1002AFAD170477047002001E052
:1030200001C1121F002AFBD170470000014908604E
:1030300070470000FC01002070B5274C6068FDF768
:1030400036FA264D2946FDF73BF9064601F008FD04
:10305000466001F005FD217A017201F001FD217B3E
:10306000417201F0FDFC217C817201F0F9FCA18A22
:103070008181A069FDF71BFA2946FDF721F9064673
:1030800001F0EEFC0661E069FDF711FA2946FDF753
:1030900017F9064601F0E4FC4661206AFDF707FADD
:1030A0002946FDF70DF9064601F0DAFC8661606AF3
:1030B000FDF7FDF92946FDF703F9064601F0D0FCBE
:1030C000C661A06AFDF7F3F92946FDF7F9F8044651
:1030D00001F0C6FCC46170BD300200200AD7233C59
:1030E00070B50124064E074D06EB840105EB440044
:1030F000022200F011FF641CE4B20D2CF4D370BD69
:10310000300200200030030870B50024064E074D41
:1031100006EB840105EB4400022200F015FF641C5D
:10312000E4B20D2CF4D370BD30020020003003084F
:1031300010B500F037FC00F0EDFD00F06DFC00F084
:10314000E9F8BDE810400148FEF7BEBC00020020CF
:1031500010B514480221016040F6C41242600021FB
:103160008160C1600161192343618261FA22C261F9
:10317000016232214162282282620522C262016319
:1031800002220949094800F0C7FE07480078FF28D5
:1031900003D0BDE81040FFF7A3BFBDE81040FFF724
:1031A000B3BF0000300200200600002000300308FA
:1031B00010B50A21144801F021FF144908600A21C2
:1031C000134801F01BFF134908600A21124801F05F
:1031D00015FF124908600A21114801F00FFF11493B
:1031E00008600A21104801F009FF104908600A210F
:1031F0000F4801F003FF0F4908600F4900200870D5
:103200000E49087010BD000010050020600000206D
:1032100038050020640000206005002068000020C0
:10322000880500206C000020B00500207000002000
:10323000D805002074000020260000202700002070
:1032400010B50A21144801F0D9FE144908600A217A
:10325000134801F0D3FE134908600A21124801F017
:10326000CDFE124908600A21114801F0C7FE11493C
:1032700008600A21104801F0C1FE104908600A21C7
:103280000F4801F0BBFE0F4908600F49002008708D
:103290000E49087010BD00000006002078000020D4
:1032A000280600207C00002050060020800000201E
:1032B0007806002084000020A0060020880000205E
:1032C000C80600208C0000202800002029000020D3
:1032D00008B502F04FFD00900C4C0D4D02216846E0
:1032E00002F0F4FB207818B1FFF762FF02F0B8FBA0
:1032F000287818B1FFF7A4FF02F0B2FB20782978F4
:103300000843EBD102F0ACFBE8E700002600002008
:10331000280000201FB500200649CDE90110052234
:103320000346009203904FF4807203A1034802F019
:10333000A7FC1FBD6402002041444300D1320008B5
:103340002DE9F04101F08CFB90F830006327002458
:103350000125764E042869D01ADC68B3012840D0D4
:1033600002284ED0032811D1C6F8B041642170481C
:1033700002F052F8002000F059FE002000F06AFE32
:1033800001F06EFB10F8301F491C0170BDE8F081A0
:1033900005287DD006287CD06328F7D101F060FB9A
:1033A00080F8344001F05CFB80F83540BDE8F04126
:1033B0000021032002F0C2B85E4800685E498842DE
:1033C000E4DB5B483221083802F026F801F048FBC4
:1033D00080F8315001F044FB10F8301F491C017097
:1033E000D4E701F03DFB408E0528CFD301F038FB38
:1033F00080F8314001F034FB10F8301F491C017097
:10340000C4E700224FF400314C4801F0EFFA4B487A
:10341000006830B101F024FB10F8301F491C017026
:10342000B4E701F01DFB80F83070AFE701F068FBF6
:103430000078012101F056FB414F48B101F010FB2B
:1034400080F82850C7F8A041C6F89C4100F0A2F9C6
:1034500001F056FB0078012101F044FB08BB01F0AC
:10346000FFFA90F82800E0B101F0FAFA80F828405D
:10347000002000F0DBFD002000F0ECFDC6F89C51C0
:103480002B486421001D01F0C7FF01F027FB01E07C
:103490001BE02FE00460C7F8A0510421012002F0D6
:1034A0004DF801F053FB407A012101F041FB28B9AE
:1034B00001F0D6FA90F83400002891D001F0D0FA4B
:1034C00010F8301F491C017060E700F03BF801F074
:1034D0003DFB407A042101F02BFB002890D001F045
:1034E000BFFA90F8340000288AD101F0B9FA80F8C8
:1034F00030704BE701F0B4FA90F8350048B901F0AC
:10350000AFFA90F8340020B101F0AAFA052180F852
:10351000301001F01BFB407A042101F009FB002868
:10352000D2D001F09DFA80F830702FE7008022425F
:10353000948122427C0000200000EB4308012342DA
:103540000000214270B501F0C1FA407B002450B167
:10355000012822D101F084FAC06A00037DD5BDE8BC
:10356000704001F0EDBE01F0B1FA90F820000125A5
:10357000734E052811D2DFE800F003113891B8002E
:1035800001F06EFAC06A000307D4C6F89C4101F04E
:103590009DFA10F8201F491C017070BD01F060FAFF
:1035A000C06A000304D401F05BFA90F83500C0B1A2
:1035B00001F056FA90F8400038B101F087FA4573EF
:1035C00001F084FA80F8204070BD01F07FFA406875
:1035D00080F8385001F07AFA10F8201F491C017069
:1035E00070BDBDE8704001F0B3BF01F039FAC06AA8
:1035F000000309D501F034FA90F8350090B901F0D4
:103600002FFA90F8340068B101F060FA406880F851
:10361000384001F05BFA4068446401F057FA80F8E2
:10362000205070BD01F01CFA90F83400B0B101F0E8
:103630004DFA4068416C01F049FA4068006C8142E3
:1036400021D301F043FA10F8201F491C017001F04A
:103650003DFA406880F8384015E068E001F036FA3D
:103660004068416C01F032FA4068C06B81420AD375
:1036700001F02CFA10F8201F491C017001F026FA05
:10368000406880F8384001F021FA406890F838002E
:103690000028C6D0BDE8704002F052B801F016FA1A
:1036A000C0692849884206DC01F010FA10F8201F92
:1036B000491C017070BD01F009FA44684FF0FF31F8
:1036C000A069FCF76DFEA06101F000FA4068806916
:1036D00000F0ACFC01F0FAF94068806900F0BAFC37
:1036E000BDE87040642002F0C7B901F0EFF940680E
:1036F000846101F0EBF94068806900F097FC01F00B
:10370000E5F94068806900F0A5FCC6F89C5101F01D
:10371000DDF980F8204001F0A3F990F83500002889
:10372000C8D0BDE870400621022001F007BF01F0BB
:10373000CDF9447301F0CAF980F8204070BD000053
:10374000008022420000204110B501F0C3F98178C9
:1037500001F0C0F9017001F0BDF9017801F0BAF98A
:10376000407881420DD001F0B5F9007820B1642194
:10377000074801F051FE04E0054864210C3001F0D7
:103780004BFE01F0A7F9017801F0A4F9417010BDDA
:103790009481214210B501F063F941684FF07D50EA
:1037A000FCF7C0FD0C4C60600C48006858B101F09B
:1037B00095F90121417301F091F900210160012186
:1037C000074801F033FE206800F030FC2068BDE8B7
:1037D000104000F03FBC000098020020100123427E
:1037E000BC01214270B501F03BF990F83000002196
:1037F0000125564E564C032842D018DC08B3012848
:103800002ED0022812D1C1030022524801F0EEF856
:10381000D6F80001002809D001F022F980F83150D3
:1038200001F01EF910F8301F491C017070BD04280A
:1038300045D06328FAD1BDE870400021022001F094
:103840007DBE6421444801F0E7FD01F009F980F8EC
:10385000315001F005F910F8301F491C017070BD9E
:1038600001F0FEF8408E1428F9D901F0F9F880F83B
:10387000311001F0F5F810F8301F491C017070BDCF
:1038800001F0EEF8408EB0F5FA7F07D901F0E8F8C4
:1038900080F8311031480160C4F89011D4F89001DB
:1038A0000028ECD101F0DCF890F82C000007E6D4F9
:1038B00001F0D6F810F8301F491C017070BD01F0FE
:1038C00045F9407A022101F033F978B922486421A0
:1038D000001D01F0A1FDC4F890511F48642118306B
:1038E00001F09AFD0021084601F028FE01F0B8F829
:1038F00090F82C008007E1D401F0B2F890F82C0089
:103900004007DBD41648006816498842D6DB01F030
:103910001DF9407A012101F00BF960B901F0F0F8CE
:103920000078012101F0DEF828B901F099F890F84B
:1039300034000028C2D0D6F800010028BED001F023
:103940008FF8632180F8301070BD00000000234222
:10395000008022420001234280812242B081214224
:103960007C0000200000EB4308B502F003FA009051
:103970000521684602F0AAF801F076F820B1012886
:1039800005D0022808D105E000F064F804E0FFF754
:1039900029FF01E0FFF7D4FCFFF7D6FE00F01AF88C
:1039A000E6E700001FB500200649CDE90110062218
:1039B0000346009203904FF4007203A1044802F002
:1039C0005FF91FBDA8020020494E50555400000069
:1039D0006939000810B500F021FD02488168491DD1
:1039E000816010BDA802002008B502F0C3F9009064
:1039F000084D32240221684602F068F82868B0FBBE
:103A0000F4F104FB110008B900F01EF82868401C0E
:103A10002860EFE70C0000201FB500200649CDE923
:103A2000011005220346009203904FF4807203A117
:103A3000044802F025F91FBDFC02002053455249FD
:103A4000414C0000E9390008014801F045BA000086
:103A50000044004010B501F003F890F8300048B180
:103A600001281AD0632817D10021BDE81040012099
:103A700001F064BD00F0F4FF90F82C0080070BD437
:103A800000F0EEFF90F82C00400705D400F0E8FFAE
:103A900010F8301F491C017010BD01F057F8407A32
:103AA000012101F045F898B901F050F8407A02215F
:103AB00001F03EF860B901F023F80078012101F02F
:103AC00011F828B900F0CCFF90F834000028E3D0BA
:103AD00000F0C6FF632180F8301010BD10B5124809
:103AE0000068002819D011480168C9B21143426822
:103AF000520641EA12628068800642EA106400F0D1
:103B0000AFFFC16A21F07801C16200F0A9FFC16A6C
:103B1000641C41EAC401C16210BD00F0A1FFC16A8A
:103B200021F07801C16210BD30012342348121426D
:103B300008B502F01FF900906C4F6B4E01254FF451
:103B4000807807F104094FF4007A002402216846C6
:103B500001F0BCFF64488C30006808B1FFF7BEFF7D
:103B60006248012202210C3800F040FF01220421AA
:103B7000304600F03BFF01228021384600F036FF3E
:103B800001224146484600F031FF58480122514683
:103B9000083000F02BFF554801229102243800F034
:103BA00025FF52480122D102203800F01FFF4F4864
:103BB000012211031C3800F019FF4C480122510367
:103BC000183800F013FF494801229103143800F01F
:103BD0000DFF474800684749884206DA00F040FF79
:103BE000C16A41F48021C16205E000F039FFC16A79
:103BF00021F48021C16200F033FFD0F81CB000F046
:103C000065FF406859468068FCF7C0FC06D200F0AA
:103C100027FFC16A41F40021C16205E000F020FFE6
:103C2000C16A21F40021C16233480068B0B12F4855
:103C30002838006840B100F013FF80F8345000F0DD
:103C40000FFF80F8354011E000F00AFF90F83400D3
:103C500060B100F005FF80F8355007E000F000FF8C
:103C600080F8344000F0FCFE80F8354000F0F8FEAB
:103C7000D0F804B000F0F4FE80692049FCF720FB86
:103C80005946FCF74FFB834600F020FFC0F814B004
:103C900000F0E6FE41681A480068FCF711FB19497C
:103CA000FCF740FB834600F011FFC0F81CB016483B
:103CB0000068FCF70EFC81B20022144800F04AFFB5
:103CC0001349FCF7FDFA834600F0CAFEC0F800B0C5
:103CD00000F0B8FF407B20B1FFF716FA00F0B2FF0A
:103CE0004473FDF727FE31E724812142340123424A
:103CF0007C0000200000EB43A00121420000404076
:103D000068000020A3AB684574000020F460000840
:103D1000CDCCCC3D1FB500200649CDE901100522D0
:103D20000346009203904FF4807203A1054801F00E
:103D3000A7FF1FBD08030020535550455256495355
:103D4000494F5200313B000810B500240820FCF711
:103D500093FE58B11020FCF78FFEC4B20C20FCF784
:103D60008BFEC0B2214601F0E9FB0124204610BDC4
:103D700010B501214FF0C050FDF784FEBDE81040A2
:103D80000120FDF75BBE00000D4B8118994201D95F
:103D90000320704712B10123002109E00020704781
:103DA0000378FF2B01D0022070470023401C491CE0
:103DB0009142F5D3012B01D00120704700207047BC
:103DC000000004086FF30A00704710B54FF440700C
:103DD000FDF718FEFFF7CCFF00F042FE00F12C04C7
:103DE000FFF7B2FF21680843206000F02BF800F0D5
:103DF00005F800F027FF0121017010BDFEB5E0209D
:103E0000FDF728FE0120FDF71FFE01248DF8084074
:103E100008258DF8095000278DF80A708DF80B40A1
:103E200002A8FDF7BDFD26043046FDF721FC0096F3
:103E30008DF804708DF805508DF806406846FDF742
:103E40001DFCFEBD7CB500240420FCF715FE45F2E8
:103E50005005A8424FD0FCF705FE0120FDF7A2FE59
:103E600004E0641CE4B20A2000F008F94120FDF7E8
:103E700081FE0028F5D0FA2C01D301207CBD4FF43F
:103E80008070FDF7A9FE0120FDF7A0FEFEF748F8BF
:103E9000FEF74EF801210220FDF78AFFFEF740F8F9
:103EA000FDF7AAFE0020FEF71BF8FEF739F847F6EB
:103EB000FF70FEF725F8FEF733F800200224CDE965
:103EC000004040F2E7760B23092205213046FDF73A
:103ED0008DFF1421CDE900410B2309220521304635
:103EE000FCF744FDFEF71CF8FDF78EFE2946042082
:103EF000FCF7CCFD07E0FEF71BF801210220FDF7DF
:103F000057FFFEF70DF800210320FDF75FFFFDF7D7
:103F100083FE00207CBD000010B50A4C8318A3422C
:103F200001D9012010BD0AB1002306E0012010BD17
:103F300010F8014B01F8014B5B1C9342F8D30020B1
:103F400010BD0000000004082DE9F0410746884636
:103F5000164604252549B819884202D90120BDE832
:103F6000F0811EB1F00703D00120F8E70020F6E74A
:103F7000324641463846FFF707FF044654B1012058
:103F800080F31088FDF70EFC3520FDF7B1FB022C05
:103F900002D00BE00020E2E73846FFF713FFFDF701
:103FA000ADFB0546042D01D00220D8E700240EE029
:103FB00018F8140008EB4401497840EA012138461A
:103FC000FDF7D6FB0546042D04D1BF1C641CB4EBE1
:103FD000560FEDD3FDF7C4FB002080F31088042DAD
:103FE00001D00220BBE70020B9E700000000040870
:103FF00030B5DDE9034501608280C38004814581DD
:1040000030BD027BC37A42EA03220A80827B437B73
:1040100042EA03224A80027CC37B42EA03228A806E
:10402000827C407C42EA0020C880704710B5074976
:10403000FCF778F90649FCF743F9FCF74AFA81B234
:10404000BDE810400020FDF747BA0000333353406D
:1040500000F07F4510B50749FCF764F90649FCF705
:104060002FF9FCF736FA81B2BDE810400020FDF7C9
:104070003DBA00003333534000F07F4510B50022B5
:10408000044C04E02146491E4B1CFCD1521C8242C8
:10409000F8DB10BD4019010030B591B00121084690
:1040A000FDF7E2FC484D2846FDF744FA47480190E9
:1040B00047480290002403943C21049105948021F8
:1040C000069149000791880008902020099000027D
:1040D0000A900B9401A92846FDF7ABFA0121284666
:1040E000FDF71AFA01214802FDF7DAFC00213948F0
:1040F000FCF723FD00213848FCF71FFD002137485D
:10410000FCF71BFD00213648FCF717FD0021354860
:10411000FCF713FD00213448FCF70FFD0C9401203F
:104120008DF834008DF835004FF460200E900F9418
:1041300006208DF84000254C0CA94C3C2046FCF78D
:10414000A1FB0723012206212046FCF7BFFB072322
:10415000022219462046FCF7B9FB07230322082157
:104160002046FCF7B3FB0723042209212046FCF775
:10417000ADFB072305220E212046FCF7A7FB0723F2
:1041800006220F212046FCF7A1FB01212046FCF767
:104190005FFB01212046FCF74FFB2046FCF7D0FBDC
:1041A0002046FCF768FB0028FAD12046FCF7D9FB33
:1041B0002046FCF759FB0028FAD101212046FCF7E4
:1041C000C4FB11B030BD0000080002404C24014087
:1041D00070030020F0610008F86100082062000808
:1041E00028620008A8620008B062000830B591B0EB
:1041F00001210220FDF738FC484D2846FDF79AF9C9
:104200004748019047480290002403943C210491C0
:10421000059480210691490007918800089020208C
:10422000099000020A900B9401A92846FDF701FAB3
:1042300001212846FDF770F90121C803FDF730FC84
:1042400000213948FCF779FC00213848FCF775FC5F
:1042500000213748FCF771FC00213648FCF76DFC63
:1042600000213548FCF769FC00213448FCF765FC67
:104270000C9401208DF834008DF835004FF4602047
:104280000E900F9406208DF84000254C0CA94C3C54
:104290002046FCF7F7FA0723012200212046FCF70D
:1042A00015FB0723022201212046FCF70FFB072301
:1042B00003220A212046FCF709FB072304220B21D5
:1042C0002046FCF703FB072305220C212046FCF7C0
:1042D000FDFA072306220D212046FCF7F7FA0121FB
:1042E0002046FCF7B5FA01212046FCF7A5FA204646
:1042F000FCF726FB2046FCF7BEFA0028FAD1204640
:10430000FCF72FFB2046FCF7AFFA0028FAD1012179
:104310002046FCF71AFB11B030BD000058040240E3
:104320004C3C0140E8030020C0610008C86100085F
:10433000886200089062000898620008A062000885
:1043400008B5002100910323632240F60F61FCF7BA
:10435000F1FC08BD30B585B000240620CDE902404F
:104360000E484FF6FF75A0F108030090019440F24B
:10437000CF22294604940A48FCF72CFC0520CDE9FD
:104380000240064B0194049408332F222946054825
:104390000094FCF71FFC05B030BD00009800002021
:1043A000000800400034014000B51A49002801D03F
:1043B00000200870087808B1002000BD01200870B6
:1043C000154B991D184600F051F808B1012000BDA9
:1043D000D91D581C00F04AF808B1022000BD0E4952
:1043E000981C083100F042F808B1032000BD0A49CA
:1043F000D81C093100F03AF808B1042000BD064984
:10440000181D0A3100F032F808B1052000BD002067
:1044100000BD0000200000203C03002070B5104DBE
:1044200004212846FDF735FA0E4C2070022128465B
:10443000FDF72FFAE07020210B48FDF72AFA607093
:1044400008212846FDF725FAA07001212846FDF72E
:1044500020FA20710120FFF7A7FFE07270BD000075
:10446000001801403C0300200008014002460020E3
:104470001278002A02D0012A06D103E00A78521CE1
:104480000A7001E000220A7009780A2900D9012087
:10449000704700002DE9FC470646DDE90A950C9CB3
:1044A0000F46904618461021FCF747FBCDE9005413
:1044B0004B46424639463046FCF73AFD80213046AD
:1044C000FEF798FCFCF7F4FC40213046FEF792FC26
:1044D000FCF7EEFC024901200860BDE8FC87000003
:1044E000BC8122423EB505460C4618210848FCF71F
:1044F00024FB48210748FCF720FBCDE901540220AA
:1045000000900723082200210348FCF7C9FA3EBDAA
:104510001062000808620008006400401FB5012115
:104520004807FDF7AFFA00210A48FCF706FB002018
:104530000090019002900220039069460020FCF751
:10454000B7FF01210020FCF7A3FF00210846FCF77C
:10455000C3FF1FBDE06100081FB501214807FDF73B
:1045600091FA00210A48FCF7E8FA00200090019037
:1045700002900220039069461020FCF799FF012168
:104580001020FCF785FF00210846FCF7AFFF1FBD98
:10459000E86100087CB50546DDE90640CDE900404C
:1045A0002846FCF7C5FC80212846FEF723FCFCF7D3
:1045B0007FFC40212846FEF71DFCBDE87C40FCF74F
:1045C00077BC70B505460C4645F25550FDF7C8F965
:1045D0002846FDF7B9F92046FDF7BCF9FDF7ACF91F
:1045E000BDE87040FDF79EB92DE9FE4300F080F86C
:1045F00000F036FA90F82C00C00701D100F0E2F983
:104600000024082341F61F4540F2E7362A4631468A
:10461000D8060094FCF78EFB05232A46314628482D
:104620000094FCF787FBFFF737FDFFF7DFFD254818
:10463000FFF786FE2448FFF783FEFFF76FFFFFF7C3
:104640008BFFFFF787FE00210220FFF74BFF40F2B0
:104650007D5540F61D07CDE9007540F22A3840F23D
:104660007F764346324640F20A211848FFF7C0FCE5
:104670002B46424640F209211548CDE90067FFF775
:10468000B7FC0420CDE900044FF4E133114A12498C
:104690001248FFF77FFF0320CDE901044FF41651C4
:1046A00000910F4B0F4A10491048FFF7F3FE03B07B
:1046B00040F63541BDE8F0430420FFF782BF00001B
:1046C000000C0040001000400014004024030020B3
:1046D00030030020D8610008D06100080044004089
:1046E0003863000860620008586200080048004013
:1046F00010B510218A48FCF720FA10218948FCF7F0
:104700001CFA28218848FCF718FA10218748FCF782
:1047100014FA28218648FCF710FA28218548FCF76E
:104720000CFA28218448FCF708FA28218348FCF772
:1047300004FA28218248FCF700FA10218148FCF78E
:10474000FCF910218048FCF7F8F910217F48FCF7AC
:10475000F4F910217E48FCF7F0F910217D48FCF7B0
:10476000ECF910217C48FCF7E8F910217B48FCF7B4
:10477000E4F910217A48FCF7E0F910217948FCF7B8
:10478000DCF910217848FCF7D8F910217748FCF7BC
:10479000D4F910217648FCF7D0F910217548FCF7C0
:1047A000CCF910217448FCF7C8F910217348FCF7C4
:1047B000C4F910217248FCF7C0F928217148FCF7B0
:1047C000BCF928217048FCF7B8F928216F48FCF79C
:1047D000B4F928216E48FCF7B0F928216D48FCF7A0
:1047E000ACF928216C48FCF7A8F928216B48FCF7A4
:1047F000A4F928216A48FCF7A0F928216948FCF7A8
:104800009CF928216848FCF798F928216748FCF7AB
:1048100094F928216648FCF790F928216548FCF7AF
:104820008CF928216448FCF788F928216348FCF7B3
:1048300084F93B48FCF794F93A48FCF791F93A4877
:10484000FCF78EF93948FCF78BF93948FCF788F901
:104850003848FCF785F93848FCF782F93748FCF707
:104860007FF93748FCF77CF93648FCF779F9374887
:10487000FCF776F93648FCF773F93648FCF770F91F
:104880003548FCF76DF93548FCF76AF93448FCF710
:1048900067F93448FCF764F93348FCF761F93348A9
:1048A000FCF75EF93248FCF75BF93248FCF758F93F
:1048B0003148FCF755F93148FCF752F93048FCF71C
:1048C0004FF93048FCF74CF93048FCF749F93048CB
:1048D000FCF746F92F48FCF743F92F48FCF740F95D
:1048E0002E48FCF73DF92E48FCF73AF92D48FCF725
:1048F00037F92D48FCF734F92C48FCF731F92C48EE
:10490000FCF72EF92B48FCF72BF92B48FCF728F97C
:104910002A48FCF725F92A480121C161016010BD30
:10492000006200081862000850620008686200080F
:10493000706200087862000880620008A0630008C6
:10494000C06200083062000848620008C8620008BF
:10495000D0620008D8620008E8620008F06200082F
:10496000E0620008F86200080063000808630008BD
:10497000106300081863000820630008286300081B
:104980003063000840630008486300085063000873
:1049900058630008606300086863000870630008DB
:1049A000786300088063000888630008906300084B
:1049B00098630008A8630008B0630008B8630008A3
:1049C000A001214210B5074C01202060606106491A
:1049D000C1F8B001E0616420FFF750FB0020E06106
:1049E000606110BD9C8122420080214210B50C46BE
:1049F0000068904205D100F033F8C16A2143C162DA
:104A000010BD00F02DF8C16AA143C16210BD0000C5
:104A100010B5002821D0114B0022001F196803E0B7
:104A2000814203D80A4649680029F9D152B1136876
:104A3000841A9C4204D1006818441060104602E0B9
:104A4000506000E0186039B102680B1A934203D13C
:104A50000B681A4402604968416010BDF4010020EF
:104A600000487047B40200200148007870470000F9
:104A70000700002070B504460D46032D0AD02846D5
:104A8000FBF71AFD00F024FFFBF737FD2C4024FA5A
:104A900000F070BD04F0030070BD000000487047D6
:104AA0000400002010B504462046FBF712FDFBF77A
:104AB000FEFC2146FBF701FC0349FBF701FCFBF779
:104AC00008FDC0B210BD00000000C8420048704799
:104AD000700200200048704708000020004870471E
:104AE0009802002070B504460D462846FBF7E4FC0A
:104AF00000F0EEFEFBF701FD2C4024FA00F070BD43
:104B000000487047050000200649020005D0012A30
:104B100007D105480068FBF7D3BB04480068FBF7E2
:104B2000CFBB7047000040405C00002070000020B8
:104B300070B504460D462846FBF7BEFC00F0C8FEE3
:104B4000FBF7DBFC2C4024FA00F070BD00487047F6
:104B5000140200202DE9F04105460E461746314665
:104B6000284600F09CFA04462888B04202D2384613
:104B7000BDE8F081B5F8C800B04205D33846BDE8BD
:104B8000F0411049FBF744BB611C35F8140015F8DF
:104B90001110411AC9B2801B00EB8000400090FB4D
:104BA000F1F0FBF77BFC054604EB84004000FBF7CB
:104BB0007EFC3946FBF72CFB2946BDE8F041FBF7AC
:104BC00027BB000000007A44004870472002002004
:104BD00010B5010016D0012919D002291CD00329D3
:104BE0000FD1FFF73DFF016A14480068FBF768FB2F
:104BF0000146FFF76BFF40684161FFF767FF4068C0
:104C0000406910BDFFF762FF4068806810BDFFF784
:104C10005DFF4068C06810BDFFF722FF016A0848C9
:104C20000068FBF74DFB0146FFF750FF406801614C
:104C3000FFF74CFF4068006910BD000084000020B1
:104C4000880000200048704714030020F0B587B0AA
:104C5000002600251F4F002404EB440007EB8000D2
:104C600030F81500FBF723FC3146FBF7D1FA064676
:104C7000641CE4B20A2CEFD317493046FBF720FB43
:104C800001A941F8250000266D1CEDB2062DE2D3E6
:104C900012490198FBF714FB114C6060114902980E
:104CA000FBF70EFBA06010490398FBF709FBE060DF
:104CB0000E490498FBF704FB20610D490598FBF7AA
:104CC000FFFA60610B490698FBF7FAFAA06107B09A
:104CD000F0BD000070030020CDCCCC3D6109963DB5
:104CE0002C000020810C483EFDD22F41010A203BC0
:104CF000000880396740533AF0B587B00026002598
:104D0000244F002404EB440007EB800030F815002A
:104D1000FBF7CDFB3146FBF77BFA0646641C0A2CF9
:104D2000F0DB3046FBF702FC1B4A1C4BFBF744FB55
:104D3000FBF70FFC01A941F8250000266D1C062D8C
:104D4000DFDB17490198FBF7BBFA164CE061164907
:104D50000298FBF7B5FA206214490398FBF7B0FA02
:104D60006062134D04982946FBF7A4FA114E3146B0
:104D7000FBF7A6FAA06210490598FBF7A1FAE062DA
:104D800029460698FBF796FA3146FBF799FA206315
:104D900007B0F0BDE80300209A9999999999B93F15
:104DA000010FF03C2C0000206109163E365C4340A8
:104DB00000C04C44010AA039000880392DE9F041B7
:104DC0000546E87801280BD002280ED0032811D020
:104DD000042803D1FFF794FE29790170BDE8F08122
:104DE000FFF7B4FE29794172F8E7FFF757FE2979FA
:104DF0000170F3E704240020264E2146641C695C00
:104E0000E4B23154401CC0B20228F6D3FFF7DCFEF6
:104E10003188018000202146641C695CE4B2315471
:104E2000401CC0B20228F6D33088FBF740FB1A4F73
:104E30003946FBF745FA8046FFF7C6FEC0F8048006
:104E400000202146641C695CE4B23154401CC0B2AD
:104E50000228F6D33088FBF72AFB3946FBF730FAF5
:104E60008046FFF7B1FEC0F8088000202146641C90
:104E7000695CE4B23154401CC0B20228F6D33088D9
:104E8000FBF715FB3946FBF71BFA0446FFF79CFEC0
:104E9000C460A3E7020000200AD7233C10B5FDF749
:104EA0004DFF04462078C52815D16078642812D1BA
:104EB000A178201F085CA9280DD1E01E085CD42829
:104EC00009D12046FEF785F8002804D02046BDE829
:104ED0001040FFF773BF10BD70B506463046FDF7B2
:104EE0005BFF0446AD202070B52060700020A070EC
:104EF000FFF72CFE0068FBF7ECFAE070FFF726FEE8
:104F00000068FFF7CFFD05252071FFF71FFE406801
:104F1000FBF7DFFA1449088000202A460B5C6D1C61
:104F2000EDB2A354401CC0B20228F6D3FFF70EFE28
:104F3000027A681CC1B262550D22481CC0B262548C
:104F4000AA21421C2154921CD1B2A1702046FBF729
:104F500077FD80213046FDF74DFFA2782146BDE860
:104F60007040FCF777B800000000002010B500206A
:104F700080F31088FEF7ECF8FEF75EF8FEF725FFE9
:104F8000FFF732FBFEF7D4F800F0E2FD002010BD81
:104F9000F0B50B30154D20F007010024144A0FE046
:104FA00003688B420BD38B4205D95E1A43184768BE
:104FB000C3E9006700E04368136002C004E0021D1B
:104FC00010680028ECD12046002802D1286808B1DA
:104FD0000020F0BD064A07481060074A121A22F066
:104FE0000702C0E9002401202860D7E7F80100206B
:104FF000F4010020F47A0020F07C00202DE9F05F1D
:10500000054688464FF000094FEA8800FFF7C0FFC9
:105010000446002005E055F8201044F82010401CFC
:10502000C0B24045F7D30027A8F1010A1AE00025D5
:10503000A8EB070BABF1010B10E06E1C54F8250038
:1050400054F82610FBF7ACFA07D254F8250054F8B0
:10505000261044F8251044F82600F5B2AB45ECDCE8
:105060007F1CFFB25745E2DB012507E054F825100D
:105070004846FBF7CDF881466D1CEDB25545F5DB92
:10508000A8F10200FBF70AFA01464846FBF74AF985
:1050900005462046FFF7BCFC2846BDE8F09F30B52A
:1050A0000446002264232088884201D8002030BDB5
:1050B000B4F8C80088420BD3642030BDD018400833
:1050C00034F810508D42F8D001D2034600E0024679
:1050D000A3EB02000128F1DC104630BD70B5044698
:1050E0000B4D28684460E868844206D22968686BE2
:1050F000091DBDE8704000F031BC2968286B091D0E
:1051000000F02CFCA86A844200D2AC6270BD0000A2
:105110009801002070B5002908D00D467DB14C20C3
:1051200000F08EF9044634B1256309E0800000F0F8
:1051300087F90546F2E7284600F064FC00E0002409
:10514000204670BD70B5124E124D1CE000F02AFDD5
:10515000306820B1002400F075FEA4B901E00124FC
:10516000F9E700F01FFCF068C468201D00F0D6FBD2
:10517000A868401EA8606868401E686000F02EFCA9
:10518000204600F009F868680028DFD170BD0000F3
:10519000C81600209801002010B50446206B00F0CE
:1051A00031FC2046BDE8104000F02CBC4FF4C84153
:1051B0000F48420706D0C01D20F007000C49411AD5
:1051C000C1F5C8410B4A10600023536001440839FF
:1051D00021F00701103A11604B600B600B1A43601D
:1051E00001604068906050604FF00040D0607047B0
:1051F000F0160020EC010020044CFFF7A3FF20680C
:105200000128FAD900F02CFCF7E70000EC1500208B
:1052100070B504461546002023180A5C83F8342034
:105220000A5C12B1401C1028F6D3002684F84360B3
:10523000082D00D30725E562201D00F08CFB04F14A
:10524000180000F088FB2461C5F10800A0616462C9
:10525000666484F8486070BD70B50024124D04EB9C
:10526000840005EB800000F06BFB641C082CF6D377
:105270000D48A03000F064FB0B48B43000F060FB38
:105280000948C83000F05CFB0748DC3000F058FBF0
:105290000548F03000F054FB03490448A031016395
:1052A0001431416370BD0000EC150020980100200E
:1052B00030B5134900E011460A688242FBD34B68BF
:1052C0005C18844203D140681844486008460D6861
:1052D00044682318AB420DD1094B103B1B689A421E
:1052E00006D05268224442600A681268026002E0F6
:1052F000036000E00260814200D0086030BD000021
:10530000EC0100200748016B0968002905D0016BFA
:10531000C968C9684968816270474FF0FF3181628E
:10532000704700009801002004484068401C02D0EB
:10533000FAF74EFFFEE7FAF74BFFFEE7D001002039
:1053400010B5FFF78DFB41683048FAF7EBFF0146D7
:10535000FFF7BCFB00680161FFF7B8FB00682C4C4D
:105360000021007878B1C4F89C11FFF7AFFB00680A
:10537000C068FEF75BFEFFF7A9FB0068C068BDE8E8
:105380001040FEF767BEFFF7A1FB4162FFF79EFBEF
:10539000C069204A90421EDCFFF798FB0068C1609C
:1053A000FFF794FB0068C068FEF740FEFFF78EFB36
:1053B0000068C068FEF74EFE0120C4F89C01FFF7AC
:1053C0004FFB90F8350000281FD00621BDE81040A3
:1053D000022000F0B3B8FFF779FB04684FF0FF310B
:1053E000E068FAF7DDFFE060FFF770FB0068C06877
:1053F000FEF71CFEFFF76AFB0068C068FEF72AFE96
:10540000BDE81040642000F037BB10BD0000C04074
:10541000008022420000204110B504460120206097
:10542000084600F029FB0020206010BD10B504469E
:1054300000202060084600F01FFB0120206010BD06
:105440002DE9F0410546002600F0ACFB294F3868F5
:1054500008B9FFF7ABFEF868054240D165B10835E1
:10546000680709D005F00700C0F108000544680787
:1054700002D0FAF7ADFEFEE78DB3786885422ED8EC
:105480001C4910310846046801E021460446606862
:10549000A84202D220680028F7D1386884421ED082
:1054A0000E680836206808606068411B102909D919
:1054B0006019420702D0FAF78BFEFEE74160656093
:1054C000FFF7F6FE61687868401A7860BA68904223
:1054D00000D2B860F868014361600020206000F0ED
:1054E000B1FC700702D0FAF773FEFEE73046BDE864
:1054F000F0810000DC01002020384FF08073C36190
:1055000081610249416140F8202970472953000810
:1055100010B50C46FDF712FC017821290DD1417818
:1055200033290AD1C178112907D1002281180979BC
:10553000A154521CD2B2042AF8D310BD00B5034ABC
:105540001070FFF78DFA80F8301000BD07000020C2
:1055500070B5FFF7A3FA00780321FFF78BFA014635
:10556000FFF7B4FA0173FFF7B1FA017B29B1724D6D
:1055700001293FD002292AD175E0FFF771FA41686D
:105580006E48FAF7CFFE0146FFF7A0FA40680162C5
:10559000FFF766FA90F83400D0B1FFF797FA807BF6
:1055A000FFF7B2FA0146FFF791FA0161FFF78EFAB1
:1055B0000169FFF78BFA40688069FAF7F1FF06D8B6
:1055C000FFF784FA0169FFF781FA40688161A4E07E
:1055D000FFF77CFA4169FFF779FA40688069FAF7CA
:1055E000DFFFF4D8FFF772FA4169FFF76FFA4068FE
:1055F000816192E0FFF76AFA4068007FFFF7E8FAFE
:105600000146FFF763FA40684160FFF7DDFA008862
:10561000FAF74DFF0146FFF759FA40684162FFF77C
:1056200055FA4068846AFFF751FA40684168FFF70D
:105630004DFA4068406AFAF743FE2146FAF740FE09
:105640000146FFF743FA40688161FFF73FFA44687B
:10565000FFF706FA41682846FAF764FEA169FAF7EF
:105660002FFEA06159E0FFF731FA4068007FFFF795
:10567000AFFA0146FFF72AFA40684160FFF726FAC1
:105680004068C16AFFF722FA4068006BFAF74AFEE9
:105690000146FFF71BFA40684163FFF717FA4068BD
:1056A0004168FFF713FA4068406BFAF709FE0146BC
:1056B000FFF70CFA40688161FFF708FA8169FFF78C
:1056C00005FA40688069FAF761FF06D2FFF7FEF934
:1056D0008169FFF7FBF940688161FFF7F7F94068DE
:1056E000016BFFF7F3F940688069FAF759FF07D2B9
:1056F000FFF7ECF94068016BFFF7E8F9406881615A
:10570000FFF7E4F94468FFF7ABF941682846FAF778
:1057100009FEA169FAF7D4FDA061FFF7D7F9406847
:105720008069FEF783FCFFF7D1F940688069BDE826
:105730007040FEF78FBC0000000040400000C040F9
:1057400070B5FFF7ABF900780321FFF793F9014635
:10575000FFF7BCF90173FFF7B9F9017B5B4D012934
:1057600002D0022949D149E0FFF7B0F94068007F33
:10577000FFF72EFA0146FFF7A9F940684160FFF7ED
:1057800023FA0088FAF793FE0146FFF79FF9406875
:105790004162FFF79BF94068846AFFF797F9406818
:1057A0004168FFF793F94068406AFAF789FD21469E
:1057B000FAF786FD0146FFF789F940688161FFF736
:1057C00085F98169FFF782F940688069FAF7DEFEA2
:1057D00006D2FFF77BF98169FFF778F940688161AC
:1057E000FFF774F94468FFF73BF941682846FAF778
:1057F00099FDA169FAF764FDA06159E0FFF766F928
:105800004068007FFFF7E4F90146FFF75FF9406861
:105810004160FFF75BF94068C16AFFF757F94068DC
:10582000006BFAF77FFD0146FFF750F940684163CE
:10583000FFF74CF940684168FFF748F94068406B52
:10584000FAF73EFD0146FFF741F940688161FFF735
:105850003DF98169FFF73AF940688069FAF796FEE9
:1058600006D2FFF733F98169FFF730F940688161AB
:10587000FFF72CF94068016BFFF728F94068806951
:10588000FAF78EFE07D2FFF721F94068016BFFF7A8
:105890001DF940688161FFF719F94468FFF7E0F8E6
:1058A00041682846FAF73EFDA169FAF709FDA061B3
:1058B000FFF70CF940688069FEF7B8FBFFF706F9BF
:1058C00040688069BDE87040FEF7C4BB00004040FE
:1058D0002DE9F04106460F46FAF710FF041E0D466B
:1058E00018BF0120284320F00040C0F17F6000F184
:1058F000E040C00F0ED0301C18BF0120384320F00C
:105900000040C0F17F6000F1E040C00F04BF012003
:10591000FDF78CFB20462946BDE8F0810169D0E9FE
:1059200001329A60D0E901235A604A68824201D16B
:1059300082684A60002202610868401E0860704761
:1059400000F1080141604FF0FF328260C1600161E7
:1059500000210160704700210161704730B50C687B
:10596000621C02D000F1080202E0026904E01A465B
:1059700053681D68A542FAD953684B6099608A60E4
:10598000516008610168491C016030BD42684A608D
:1059900093688B6093685960916008610168491C45
:1059A0000160704710B5FAF713FC0A484168491CBA
:1059B0004160BFF34F8FBFF36F8F4068012807D15D
:1059C0000548006810F0FF0F02D0FAF701FCFEE76F
:1059D00010BD0000D001002004ED00E010B5084922
:1059E0004868002807D0401E4860002806D1BDE85E
:1059F0001040FAF7F4BBFAF7EBFBFEE710BD00002E
:105A0000D001002070B500281DD0083804460E4D86
:105A10006068E968084202D1FAF7DAFBFEE722681B
:105A200012B1FAF7D5FBFEE78843606000F0BAF8E0
:105A300060686968084468602046FFF739FCBDE883
:105A4000704000F0FFB970BDDC0100204FF0E02095
:105A50000249416107210161704700003F190100BF
:105A600004494FF080500860BFF34F8FBFF36F8F32
:105A70007047000004ED00E070B502460020002AE7
:105A80001BD0114CE06A10B1FAF7A2FBFEE700F060
:105A900089F8E06885182068001DFFF73FFF38B9D6
:105AA000206890F82C1001208840216981432161F1
:105AB0002846FFF713FB00F0C5F9002803D1BDE825
:105AC0007040FFF7CDBF70BD9801002070B505464E
:105AD0000C460022002D06D044B11C4EF06A40B1A5
