:020000040800F2
:10000000A0860020ED010008D91B0008151B000880
:10001000D71B0008850F00084534000800000000C9
:10002000000000000000000000000000490100087E
:1000300065150008000000008D010008DD220008A1
:1000400007020008551C000851230008B51F0008CE
:10005000070200080702000807020008070200085C
:100060000702000807020008D1150008070200086F
:10007000070200080702000807020008070200083C
:10008000070200080702000807020008070200082C
:10009000D933000807020008070200080702000819
:1000A000070200080702000807020008070200080C
:1000B00079250008070200088527000807020008C4
:1000C00007020008070200080702000807020008EC
:1000D0000702000807020008792F0008E52F000832
:1000E0006915000807020008070200080702000857
:1000F000152D000807020008852C000807020008DB
:100100000702000807020008052900080702000886
:100110000702000807020008ED2A0008B92B0008B2
:10012000070200080702000807020008070200088B
:10013000DFF810D000F0ACFA00480047076C000868
:10014000AFF30080A0860020204B19680868B0E853
:10015000F00F80F30988BFF36F8F4FF0000080F33A
:1001600011884EF00D0E7047000000000648006830
:10017000006880F3088862B661B6BFF34F8FBFF3A3
:100180006F8F00DF00BF00BF08ED00E0EFF30980D4
:10019000BFF36F8F0D4B1A6820E9F00F106008B5A0
:1001A0004FF0100080F3118807F08EFB4FF0000035
:1001B00080F31188BDE8084019680868B0E8F00FBE
:1001C00080F30988BFF36F8F704700BF10020020D3
:1001D000EFF311804FF0100181F31188704780F325
:1001E00011887047EFF3058070470000064880478C
:1001F00006480047FEE7FEE7FEE7FEE7FEE7FEE70C
:10020000FEE7FEE7FEE7FEE70123000831010008F4
:10021000F0B480EA0102D40F4200B2EB410F02D2E7
:100220000246084611464A0042D0C30DDDB2C1F372
:10023000C752AD1A202D35DAC1F3160141F4000280
:1002400004B15242C5F1200602FA06F12A411044D7
:10025000B3EBD05F23D0C4B1012DA0EBC35009DCB8
:10026000F0BC4FF0004202EAC352DBB200F50000DE
:1002700000F083B9400000F1807000EBC350A0F1A2
:10028000807040EAD170490009E0490841EAC07134
:10029000A0EBC35000F50000400800EBC350F0BCD9
:1002A00000F062B96142012202EB4101001BF6E756
:1002B000F0BC704781F00041AAE780F00040A7E75A
:1002C00080EA010210B502F00043400022D04A004B
:1002D0001FD0010E01EB1261C0F35600C2F35602AB
:1002E00040F4000042F40002A0FB022000047F3929
:1002F000140400D0401C50EA124001D44000491EB2
:10030000C2B20C0604EBD010401C4008802A02D078
:1003100003E0002010BD20F00100002900DA0020D9
:10032000184310BD30B480EA010202F0004530F0FD
:10033000004221F0004013D090B1C30DD40DC2F3A0
:100340001601C0F31600E41A41F4000140F4000263
:100350007D34914201D3641C00E04900002C02DA94
:1003600030BC002070474FF400000023914201D3BD
:10037000891A034340084FEA4101F7D151B1914234
:1003800002D14FF0004105E002D24FF0010101E03F
:100390006FF0010103EBC450284430BC00F0E4B816
:1003A000420005D0C0F3C7525242914201DC002006
:1003B000704700EBC15070472DE9FE4F81EA0304FE
:1003C00004F0004421F0004100944FF0000B23F0B2
:1003D000004350EA01045ED052EA03045BD0C3F349
:1003E0000A54C1F30A552C44A4F2F3340194A0FB3F
:1003F0000254C1F3130141F48011C3F3130343F416
:10040000801301FB024400FB034E840A970A44EA6E
:10041000815447EA8357A4FB076802958D0A05FBC0
:1004200007854FEA932C04FB0C542705029D4FEAE5
:10043000065847EA1637B5EB08056EEB070C870E32
:10044000920E47EA811742EA8312A7FB0201B6EB3C
:100450000B0164EB00042B0D43EA0C335E1844EBF4
:100460001C50DA465146E7FB0201C5F313044FEA7C
:100470000B3343EA14534FEA0432019C43EA060368
:10048000A4F10C040294009CCDE900B400F0B2F891
:1004900003B0BDE8F08F00200146F9E7C10F80EA04
:1004A000E0700844CA079623002100F066B896233E
:1004B0000022114600F061B820F00040C10DC0F3E9
:1004C000160040F400007F2901DA002070479629C9
:1004D00003DCC1F19601C8407047963988407047E7
:1004E00000F0004230F000400AD0C10D01F560710B
:1004F000C0F3160042EA0151C20840071143704799
:1005000000200146704701F0004330B421F0004163
:1005100050EA010206D00A0DA2F56072C1F3130180
:10052000002A02DC30BC00207047440F44EAC104BA
:10053000C100E01830BC00EBC25000F015B800005C
:10054000002801DBC0F10040002901DBC1F10041BE
:1005500081427047002801DBC0F10040002901DB27
:10056000C1F10041884270470029A8BF7047401C74
:10057000490008BF20F00100704710B4B0FA80FCB9
:1005800000FA0CF050EA010404BF10BC704749B1F6
:10059000CCF1200421FA04F411FA0CF118BF012166
:1005A00021430843A3EB0C01CB1D4FEA00614FEA46
:1005B000102042BF002010BC704700EBC350104415
:1005C0000029A4BF10BC7047401C490008BF20F0A0
:1005D000010010BC704710B5141E73F1000408DA56
:1005E000401C41F1000192185B411A4301D120F0F7
:1005F000010010BD2DE9F04D92469B4611B1B1FAB4
:1006000081F202E0B0FA80F22032904600F052F817
:1006100004460F4640EA0A0041EA0B0153465A4697
:10062000084313D0114653EA010019D0C8F1400223
:10063000504600F04EF805460E4650465946424692
:1006400000F038F8084305D0012004E02046394680
:10065000BDE8F08D0020054346EAE0762C433743A1
:100660000A986305E40AA0EB08000022FD0A44EAA8
:1006700047540A3002D500200146E9E70105101968
:100680006941DDE9084500196941BDE8F04DA2E77F
:10069000064C074D06E0E06840F0010394E80700CF
:1006A00098471034AC42F6D3FFF746FDEC800008C3
:1006B0000C810008202A04DB203A00FA02F1002015
:1006C00070479140C2F1200320FA03F31943904090
:1006D0007047202A04DB203A21FA02F000217047FB
:1006E00021FA02F3D040C2F120029140084319469A
:1006F000704770B58C1810F8015B15F0070301D135
:1007000010F8013B2A1106D110F8012B03E010F874
:10071000016B01F8016B5B1EF9D12B0705D4002397
:10072000521E0DD401F8013BFAE710F8013BCB1A39
:10073000921C03E013F8015B01F8015B521EF9D52E
:10074000A142D8D3002070BD002904D0816841F0B7
:10075000010181607047816821F00101816070476B
:10076000002904D0816841F48071816070478168FC
:1007700021F4807181607047014600208968490733
:1007800000D501207047014600208968090700D57F
:100790000120704710B542680E4B1A400C790B6867
:1007A00042EA04221343436082680B4B1A40D1E9AA
:1007B000024323434C7942EA440213438360C26AF2
:1007C00022F47002097C491EC9B242EA0151C16299
:1007D00010BD0000FFFEF0FFFDF7F1FF70B507262A
:1007E00009290AD9C568A1F10A0404EB4404A6400A
:1007F000B543A3401D43C56007E0056901EB410413
:10080000A640B543A3401D4305611F23072A09D213
:10081000446B521E02EB820293409C4391400C4376
:10082000446370BD0D2A09D2046BD21F02EB820211
:1008300093409C4391400C43046370BDC46A0D3ADD
:1008400002EB820293409C4391400C43C46270BD12
:10085000816841F0080181607047002904D08168F7
:1008600041F4A00181607047816821F4A00181609A
:100870007047816841F004018160704730B50546DA
:100880000C46002D0BD0022C09D9A01EC1B228465F
:1008900001F024F9291901F8020D000A487030BD51
:1008A0000248018841F0010101807047346C00402A
:1008B0000248018841F0020101807047346C004019
:1008C00010B5012001F018FABDE81040002001F039
:1008D00013BA000001480068C0B27047A4860D42F8
:1008E000014908607047000088860D4208B5034939
:1008F000084400900098008808BD0000006C00408B
:10090000014908607047000000860D4201490860F7
:100910007047000004860D4208B5034A1044009059
:100920000098016008BD0000006C00402DE9F04710
:1009300088B00746DDE910A8DDF848900E46144659
:100940001D460121480601F0BBF98DF818408DF8CD
:1009500019508DF81760ADF814A000248DF81A40D6
:1009600001258DF81B5007948DF8164005A93846CF
:1009700000F040FC8DF80A408DF80B408DF80C50CB
:10098000ADF80040ADF80240ADF80440ADF80640C7
:10099000ADF808408DF80D50684600F051FB01227B
:1009A0000221384600F01CFC14208DF810008DF850
:1009B00011808DF812908DF8135004A801F00EF9F3
:1009C00008B0BDE8F0872DE9FE4307468846164685
:1009D0001D462821384600F02DF80121084601F077
:1009E0007DF9384600F0B0FFC4B2384600F0F8FF99
:1009F000214600F0E3FE384600F056FF009000204C
:100A00008DF804008DF8058001248DF806406846B5
:100A100000F024FE384601F015F88DF808008DF836
:100A200009608DF80A508DF80B4002A801F0D6F845
:100A3000BDE8FE8338B504460D46204600F012F8A6
:100A4000A088ADF800008DF8035003208DF8020057
:100A50006946206800F0C6FE38BD8188006889B20A
:100A600000F013BF124A0168914201D104201CE03A
:100A7000104A914201D1082017E00F4A914201D15A
:100A8000102012E00D4A914201D120200DE00C4AC5
:100A9000914201D1402008E00A4A914201D18020D0
:100AA00003E0094A914200D18815012101F016B9ED
:100AB00000080140000C01400010014000140140FA
:100AC00000180140001C0140002001402DE9F04FBA
:100AD00087B08246DDE911B8109F894616461D464B
:100AE000504600F0E3F81DB128212868FFF7A2FF67
:100AF0001FB128213868FFF79DFFBBF1000F03D01D
:100B000028212868FFF796FFB8F1000F04D02821AC
:100B1000D8F80000FFF78EFFADF810600026ADF8A2
:100B20001260ADF81490ADF8166004A9504602F0BA
:100B3000D5F94FF0010985B144F00204ADF8046025
:100B4000A888ADF80600ADF80890ADF80A60ADF8D9
:100B50000C6001A9504602F011F98FB144F0040471
:100B60000420ADF80400A888ADF80600ADF80890A0
:100B7000ADF80A60ADF80C6001A9504602F0FEF82D
:100B8000BBF1000F11D044F008040820ADF80400B8
:100B9000A888ADF80600ADF80890ADF80A60ADF889
:100BA0000C6001A9504602F0E9F8B8F1000F11D02D
:100BB00044F010040C20ADF80400A888ADF806003D
:100BC000ADF80890ADF80A60ADF80C6001A9504688
:100BD00002F0D4F844F001010122504602F014F969
:100BE0000121504602F0B1F81398FF2816D014984E
:100BF000FF2813D0504602F039F9DDE9131200F056
:100C000046F80848824502D00748824506D150463A
:100C100001F0A2FCDDE9131200F039F807B0BDE8DD
:100C2000F08F0000002C0140003401402DE9FF410D
:100C300080460A9F0C4616461D46404600F036F890
:100C4000ADF80840ADF804600021ADF80610ADF82D
:100C50000A1001A9404602F041F90122114640461E
:100C600002F0D2F80121404602F06FF8404602F04F
:100C7000FDF88DF800008DF801508DF8027001200C
:100C80008DF80300684600F0A9FFBDE8FF8108B5B4
:100C90008DF800008DF801108DF8022001208DF8EC
:100CA0000300684600F09AFF08BD00003149884201
:100CB00003D10121C01401F011B8B0F1804F06D06A
:100CC0002D49884207D10121022000F0F9BF0121FE
:100CD000084600F0F5BF2949884203D101210420CC
:100CE00000F0EEBF2649884203D10121082000F020
:100CF000E7BF2449884203D10121102000F0E0BF62
:100D00002149884203D10121202000F0D9BF1F4989
:100D1000884203D10121401400F0E0BF1C49884201
:100D200003D10121C80400F0D9BF1A49884203D178
:100D30000121080500F0D2BF1749884203D10121E3
:100D4000480500F0CBBF1549884203D1012140205E
:100D500000F0B6BF1249884203D10121802000F083
:100D6000AFBF1049884203D10121801500F0A8BF10
:100D700070470000002C01400004004000080040C3
:100D8000000C0040001000400014004000340140FE
:100D9000004C014000500140005401400018004048
:100DA000001C00400020004030B58BB00446207885
:100DB000002829D00121022000F074FF606800F0B3
:100DC00035FBA068001D00906078002508B30295EF
:100DD000A06802F0EDF90190A06802F08DFA03908E
:100DE0000495802005900695079508954FF440508E
:100DF00009900A956946606800F097FB01216068D8
:100E000000F006FB0BB030BD0121084600F04AFFA0
:100E1000D4E710200290A06802F0F8F90190A068D1
:100E200002F090FA0390DBE72DE9F04385B0064627
:100E3000DDE90C780C4615469946304600F058F826
:100E40001CB118212046FFF7F5FD1DB104212846ED
:100E5000FFF7F0FDCDF800900020ADF80400ADF8EC
:100E60000600ADF80800ADF80C000C20ADF80A0043
:100E70006946304602F03EF9DFF87090FF2F20D02F
:100E8000B8F1FF0F1DD0304602F082FA8DF8100045
:100E90008DF811708DF8128001208DF8130004A8D0
:100EA00000F09CFE4E4506D0012240F2244130461F
:100EB00002F004F905E0012240F22551304602F02B
:100EC000FDF84E450BD024B101228021304602F0BE
:100ED000CBF825B101224021304602F0C5F80121AE
:100EE000304602F0B5F805B0BDE8F0830050004090
:100EF0001149884203D10121880300F0EFBE0F4958
:100F0000884203D10121480400F0DABE0C4988422E
:100F100003D10121880400F0D3BE0A49884203D1DD
:100F20000121C80400F0CCBE0749884203D1012149
:100F3000080500F0C5BE704700380140004400407D
:100F400000480040004C00400050004070B504468E
:100F50000D461646606800F0E5FA0028FAD1002137
:100F6000606800F055FAD4E90301084300F044FA40
:100F70006068C560606846606068BDE870400121D7
:100F800000F046BAFEE700000A4A914202D1002171
:100F900081617047C1F313028B0101D5C2607047B4
:100FA0004B0101D502617047090101D5826070478C
:100FB000426070477000F03030B5082310240422DE
:100FC000B1F5007F33D011DC20292AD007DC0129BC
:100FD00022D0042923D0082900D1C46030BD402983
:100FE00021D0B1F5807FF9D1426030BD0025B1F547
:100FF000004F20D008DCB1F5806F1AD0B1F5006F3A
:10100000F3D18561426030BDB1F5803F0DD0B1F5BF
:10101000003FF8D1446030BD0849816030BDC360F5
:1010200030BD036130BD046130BD436030BD4260FE
:1010300030BD426030BD8561426030BD01010100BC
:10104000F0B5827A01219140304C226842F00102D1
:1010500022602E4D1C352A688A432A602B4A067B63
:101060000C322B4B002E14D116688E431660468826
:10107000C78846EA0746877A03EBC707C7F8406682
:101080000688878846EA0746877A03EBC707C7F8CA
:101090004466067B012E14D116680E431660428802
:1010A000068842EA0642867A03EBC606C6F8402660
:1010B000C288868842EA0642867A03EBC603C3F8F2
:1010C0004426124AC37A121D3BB113680B431360C6
:1010D0000E4A0389143223B106E013688B43136070
:1010E000F6E713688B4313600389012B02D1136861
:1010F0000B431360407B012802D128680843286015
:10110000206820F001002060F0BD00000066004073
:10111000006000400246002053690B425DD0B1F5EB
:10112000807F4AD016DC082937D009DC01292CD071
:1011300002292ED0042950D1D068082100F01DB911
:1011400010292ED0202930D0402946D110691021F5
:1011500000F013B9B1F5004F3BD00CDCB1F5007FC6
:101160002FD0B1F5806F30D0B1F5006F35D19069D7
:10117000702100F002B9B1F5803F1AD0B1F5003FFF
:101180002BD15068102100F0F8B89068134900F096
:10119000F4B8D068032100F0F0B8D068102100F056
:1011A000ECB81069032100F0E8B81069082100F0DC
:1011B000E4B85068082100F0E0B89069012100F01F
:1011C000DCB89069022100F0D8B89069042100F0E1
:1011D000D4B85068042100F0D0B870470101010074
:1011E000002A03D042690A434261704742698A4338
:1011F0004261704710B50022036823F002030360C8
:10120000036843F0010303604FF6FF7300E0521CD4
:101210004468E40701D19A42F9D14268D2073ED02E
:101220008A79012A3DD0026822F080020260CA79E0
:10123000012A3BD0026822F0400202600A7A012AA9
:1012400039D0026822F0200202604A7A012A37D09F
:10125000026822F0100202608A7A012A35D0026800
:1012600022F008020260CA7A012A33D0026822F012
:10127000040202608A78CC78920742EA04620C7910
:1012800042EA04424C79098842EA0452491E0A4360
:10129000C261016821F001010160002120E000200D
:1012A00010BD026842F080020260C0E7026842F0AE
:1012B00040020260C2E7026842F020020260C4E716
:1012C000026842F010020260C6E7026842F00802BB
:1012D0000260C8E7026842F004020260CAE7491CE3
:1012E0004268D20701D09942F9D14068C00701D0C5
:1012F000002010BD012010BD10B500EB0113D3F884
:10130000B04104F004041472002C2CD0D3F8B04186
:10131000E408546003F5D8731C6804F002045472A6
:101320005C6804F00F0494725C68240AD4749C68AE
:10133000D4729C68240A14739C68240C54739C68AF
:10134000240E9473DC68D473DC68240A1474DC689B
:10135000240C5474DB681B0E937449B1016941F08D
:101360002001016110BDD3F8B041640D1460D1E7D4
:10137000C16841F02001C16010BD024600200A4250
:1013800000D00120704700000122064B8240002956
:1013900003D01868104318607047186890431860AD
:1013A000704700000074004030B5084C236840F6D8
:1013B000FE7282409343D1E900252A43D1E90251CC
:1013C0000D432A4382401A43226030BD007400401E
:1013D00008B5034A1044083000900098016008BD29
:1013E0000074004008B5034A10441430009000987F
:1013F000016008BD00740040C10002D502490860C8
:1014000070470249486070470404024000000240EF
:10141000002904D0016841F00101016070470168B2
:101420004FF6FE72114001607047000001684FF6F0
:10143000FE72114001600021016041608160C16065
:101440003649364A0839904204D1486840F00F00C6
:1014500048607047314A1432904204D1486840F0E5
:10146000F000486070472D4A2832904204D1486805
:1014700040F4706048607047284A3C32904204D182
:10148000486840F4704048607047244A50329042A7
:1014900004D1486840F47020486070471F4A6432A5
:1014A000904204D1486840F47000486070471B4A7D
:1014B0007832904204D1486840F0706048607047CC
:1014C000174A111F904204D1086840F00F000860CD
:1014D0007047134A1432904204D1086840F0F0007B
:1014E000086070470E4A2832904204D1086840F4E0
:1014F0007060086070470A4A3C32904204D1086824
:1015000040F4704008607047054A50329042FAD16A
:10151000086840F47020086070470000080002402E
:1015200008040240406880B2704730B5026847F650
:10153000F0739A430C6A8B682343D1E904452C432A
:1015400023438C692343CC6923434C6A23438C6A2D
:10155000234313430360CA6842600A688260496893
:10156000C16030BD7047000070B54FF4006528467B
:1015700000F064F8002825D004F08CFA03281CD071
:1015800011480124046004F0F5FA0078A8B904F0C9
:10159000F1FA047004F07AFA90F83C4004F076FA1C
:1015A00080F83D4004F076FA0849087004F06EFABD
:1015B00090F83C10042005F091FE2846BDE87040EC
:1015C00000F036B870BD0000AC8122427B000020E4
:1015D00070B5102000F032F8002827D004F056FA39
:1015E000816B41F48061816304F012FB407C012532
:1015F00010B904F00DFB457404F00AFB817C491C12
:10160000817404F051FA044600684FF0FF31FEF790
:10161000C7FE206004F048FA057404F045FA002182
:10162000C160BDE87040102000F002B870BD00003D
:101630000149086070470000140401400146002081
:10164000054A12680A40044B14331B680B4202D04F
:10165000002A00D0012070470004014030B51B4A29
:1016600083790168002B2AD013688B431360111D06
:101670000B680468A3430B60017911440B6804688C
:1016800023430B60114C083421680368994321609F
:10169000231D19680568A94319604179102905D0EF
:1016A00011440A68006802430A6030BD216802687C
:1016B00011432160196800680143196030BD007949
:1016C000104402688A43026030BD000000040140FB
:1016D0000149C860704700000020024070B505460F
:1016E0004FF43026304600F059F8042811D1094C47
:1016F000206940F0020020616561206940F04000EF
:101700002061304600F04AF8216941F6FD7211402F
:10171000216170BD0020024004200849CA68D20738
:1017200001D001207047CA68520701D502207047D6
:10173000C968C906FBD5032070470000002002409D
:101740000248016941F080010161704700200240B8
:10175000F0B506460D464FF40057384600F01EF827
:1017600004280CD1064C206940F00100206135802E
:10177000384600F013F82169BA1E11402161F0BD0E
:10178000002002400348024941600349416070471C
:101790002301674500200240AB89EFCD00B5034629
:1017A000FFF7BAFF02E0FFF7B7FF5B1E012801D188
:1017B000002BF8D1002B00D1052000BD10B58A0701
:1017C000120F0F23934021F00304054921448C6834
:1017D0009C438C608B68904003438B6010BD00007D
:1017E000000001402DE9F0410022CC7804F00F0305
:1017F000E40601D58C7823430C784FF00F0714F0E2
:10180000FF0F4FF0010C1CD005680CFA02F40E8893
:101810002640A64211D1960007FA06F825EA0805E7
:1018200003FA06F848EA0505CE78282E02D0482E9D
:1018300002D002E0446100E00461521C082AE4D3B3
:1018400005600A88FF2A1ED94568002202F10806B1
:101850000CFA06F40E882640A64210D1960007FA2C
:1018600006F825EA080503FA06F848EA0505CE78E1
:10187000282E00D14461CE78482E00D10461521C3C
:10188000082AE3D34560BDE8F08141F480328261EB
:101890008161826181698069704702460020926897
:1018A0000A4200D00120704741684FF48072914293
:1018B0003ED014DC102935D009DC01292CD00229B6
:1018C0002CD004292CD0082900D1082070472029C9
:1018D0002AD040292AD08029F8D1802070474FF49F
:1018E000805291422AD00BDC4FF40072914221D0F9
:1018F0005200914220D052009142EFD110467047E1
:101900004FF4005291421BD0520091421AD0520023
:101910009142F4D110467047012070470220704771
:1019200004207047102070472020704740207047E7
:101930001046704710467047104670471046704773
:1019400010467047104670474168B1F5807F3BD024
:1019500014DC102932D009DC012929D0022929D030
:10196000042929D0082900D103207047202927D035
:10197000402927D08029F8D107207047B1F5805F32
:1019800028D00ADCB1F5007F20D0B1F5806F1FD0E0
:10199000B1F5006FF1D10B207047B1F5005F1BD09E
:1019A000B1F5804F1AD0B1F5004FF5D10F20704737
:1019B00000207047012070470220704704207047C4
:1019C000052070470620704708207047092070479F
:1019D0000A2070470C2070470D2070470E2070477A
:1019E000114A0168914201D1002070470F4A91428B
:1019F00001D1012070470E4A914201D10220704767
:101A00000C4A914201D1032070470B4A914201D107
:101A100004207047094A914201D105207047084AC5
:101A20009142FBD10620704700080140000C0140A4
:101A3000001001400014014000180140001C01404A
:101A4000002001404168B1F5807F3BD014DC1029B3
:101A500032D009DC012929D0022929D0042929D032
:101A6000082900D109207047202927D0402927D0F4
:101A70008029F8D117207047B1F5805F28D00ADCA3
:101A8000B1F5007F20D0B1F5806F1FD0B1F5006FA8
:101A9000F1D128207047B1F5005F1BD0B1F5804F20
:101AA0001AD0B1F5004FF5D12820704706207047B5
:101AB00007207047082070470A207047172070479A
:101AC000172070471720704717207047282070474D
:101AD00028207047282070472820704770B5FF22C3
:101AE000FF23002801D0022902D84FF6FF7070BDF5
:101AF000074D05F5807605E010F8014B54402A5D4E
:101B00005A40335D491EC9B2F6D243EA022070BD85
:101B1000087C000806A30020104C211F1A5C2280BC
:101B20000A885206FCD5401CC0B22A28F6D3FEE72C
:101B30000D0A456E74657220486172644661756C69
:101B4000745F48616E646C65722C205379737465A0
:101B50006D2048616C742E0D0A00000004380140AD
:101B600002494CF6CC40086070470000003000404D
:101B7000AFF3008002494AF6AA20086070470000CF
:101B800000300040014948607047000000300040CC
:101B9000014988607047000000300040014908603A
:101BA0007047000000300040810701D000207047DE
:101BB0006421B0FBF1F201FB120109B10120704771
:101BC0004FF4C871B0FBF1F201FB120008B1002024
:101BD000704701207047FEE77047000070B50F2383
:101BE000C27801260178002A1ED0144A126802F435
:101BF000E062C2F5E062120AC2F10404D340457803
:101C0000A54082781A402A43120101F1E02181F8AF
:101C10000024007800F01F018E404009800000F190
:101C2000E020C0F8006170BD01F01F008640480947
:101C3000800000F1E020C0F8806170BD0CED00E094
:101C40000249084302490860704700000000FA0595
:101C50000CED00E010B54FF48030FFF7E9FC03F025
:101C6000D7FF0021017003F0D3FF0178BDE81040D9
:101C70000820FEF751BE00000149086270470000CD
:101C800000000E42014908617047000000000E424A
:101C9000034A116821F0E001014311607047000020
:101CA00000700040054A002903D051690143516189
:101CB0007047516981435161704700000010024034
:101CC000054A002903D0D1690143D1617047D16928
:101CD0008143D1617047000000100240054A00298D
:101CE00003D091690143916170479169814391618A
:101CF0007047000000100240014908607047000072
:101D00004004424210B5264A516801F00C01254BAF
:101D1000002927D0042927D0082927D0036051683B
:101D200001F0F0010909204B5C5C0168E140416071
:101D3000546804F4E064240A1C5D21FA04F484600D
:101D4000546804F46054E40A1B5DD940C1605268D1
:101D500002F44042920B144B1B1F9A5CB1FBF2F150
:101D6000016110BD0360DAE70360D8E7516801F450
:101D70007011536803F48033022404EB914133B1B2
:101D800053689B0307D5094B59430160C7E7074BCD
:101D900059430160C3E7034B59430160BFE70000AB
:101DA0000010024000127A00FE01002000093D00F0
:101DB000034600205909094A01290AD002290AD0FC
:101DC000516A03F01F02012393400B4200D001200F
:101DD00070471168F5E7116AF3E700000010024050
:101DE000084900220A7001F82029012805D004289A
:101DF00002D1052081F820007047012081F82000E1
:101E00007047000020100240014908607047000040
:101E10003C04424202490A6A02430A6270470000D7
:101E20000010024002490A8882430A80704700007D
:101E3000042800400248018841F0100101807047E9
:101E4000042800400248018821F0100101807047F9
:101E5000042800402DE9F04700F06AF80646304FAC
:101E6000B6FBF7F32F48304D0188994231D00380FB
:101E700040F2B2744FF4B7784FF4B6790FE02046D1
:101E8000FFF792FE38B1434502D3A3F5B77304E0E0
:101E9000641CA4B205E0A3F26D13641CA4B24B450C
:101EA000EDD8AC800024DFF884800CE0A888FFF730
:101EB0007BFE08B1012C2FD018F80400984204D8FA
:101EC0001B1A641CA4B21C2BF0D2641CAC715B1CEA
:101ED000EB71B6FBF7F007FB10604FF46161B0FBEC
:101EE000F1F22A70B0FBF1F201FB12033C22B3FBCA
:101EF000F2F36B70B0FBF1F301FB1300B0FBF2F1F6
:101F000002FB1100A870EA79A979A88800F02AF8E4
:101F100028720020BDE8F0871D2BD6D31D3BD0E7EB
:101F200080510100F80100208C170020E08000089B
:101F3000034800880249091F098840EA01407047A8
:101F40001C28004006490988C2B21140044A121FE9
:101F50001288024202D009B1012070470020704768
:101F60000428004030B56423B0FBF3F4E4B2B0FBC6
:101F7000F3F503FB1500132C01D96430C0B200EB5C
:101F800090030724B3FBF4F504FB1533084D1A4402
:101F90000D4415F8015C2A4492B2800703D103294D
:101FA00001D2521E92B2B2FBF4F004FB102030BDFD
:101FB000D480000810B50120FFF7C4FF002865D0C9
:101FC00003F064FDC16D491CC16503F05FFDC06D88
:101FD000B0F5616F08D303F059FD016E491C01662D
:101FE00003F054FD0021C16503F050FD006E052192
:101FF000B0FBF1F201FB120078B903F047FD006E6F
:1020000058B103F043FD446E03F040FD006E84427E
:1020100003D003F0FDFD0121817303F037FD006E55
:102020001821B0FBF1F201FB120030BB03F02EFDD2
:10203000006E10B303F02AFD446E03F027FD006E1E
:1020400084421AD003F022FD806E20B103F01EFD01
:10205000816E491E816603F019FDC06E20B103F048
:1020600015FDC16E491EC16603F010FD006F20B161
:1020700003F00CFD016F491E016703F007FD046EBC
:1020800003F004FD44660520FFF7CCFE0220FFF7B5
:1020900059FF30B105480168491C01600220FFF773
:1020A000C1FEBDE8104000F0ABB800002C010020DC
:1020B000054A002903D01188014311807047118817
:1020C00081431180704700000028004008B50322BA
:1020D0008DF800208DF801008DF8021001208DF898
:1020E00003006846FFF77AFD08BD00002DE9F05FA8
:1020F0000646DDF828A0894690460024A6F2B27074
:10210000822802D30120BDE8F09F40F2B275284F2B
:10211000DFF8A0B008E02846FFF746FD08B13C44D0
:1021200000E05C446D1CADB2B542F4D3A9F10109E5
:1021300009F0FF070025DFF88090DFF880B00FE09E
:1021400019F8050040F2A321484304EBC0143046BF
:10215000FFF72AFD10B1012D00D15C446D1CADB21A
:10216000BD42EDD3A8F1010840F2A32008FB00F81E
:1021700004EBC810C3EB4311C1EB032100EB0110CA
:10218000CAEB0A1100EB81000B99441801214FF0B2
:10219000C050FFF795FD0120FFF76EFD204600F0CF
:1021A0000FF800F02DF8FFF755FE0020ABE7000018
:1021B0000085E2018033E101E080000880510100E8
:1021C00000B50246FFF736FE0449100C0880081DD2
:1021D00002805DF804EBFFF735BE000018280040D0
:1021E00000B50246FFF726FE0449C2F3034008800B
:1021F000081D02805DF804EBFFF724BE08280040AC
:10220000024801888906FCD5704700000428004078
:102210000448018821F00801018001880907FCD5E4
:102220007047000004280040AFF300800CB5002286
:10223000019200922748016841F4803101604FF417
:10224000A063016801F4003100910199491C0191DA
:10225000009911B901999942F3D10168890302D516
:102260000121009100E000920099012930D11A4922
:102270000A6842F010020A600A6822F003020A604B
:102280000A6842F002020A604168416041684160A8
:10229000416841F480614160416821F47C114160F2
:1022A000416841F4E8114160016841F080710160CA
:1022B00001688901FCD5416821F003014160416852
:1022C00041F0020141604168C1F381010229FAD164
:1022D0000CBD0000001002400020024010B5FDF7C8
:1022E00077FF05F0D7FB18B104494FF08050086024
:1022F000BDE810400020FDF772BF000004ED00E0D3
:1023000010B50F48016841F00101016041680D4AB4
:102310001140416001680C4A11400160016821F4DC
:1023200080210160416821F4FE0141604FF41F01EA
:102330008160FFF779FF05494FF00060086010BD2C
:10234000001002400000FFF8FFFFF6FE08ED00E07D
:1023500010B5FEF7BFFA00280AD003F097FB012161
:1023600080F87610FEF7A4FABDE81040FEF798BAA0
:1023700010BD000070B5048C24F001040484058BAA
:10238000048C25F0F3054FF6FF7606EA031313439A
:102390002B43104A90420ED00F4A90420BD0B0F11E
:1023A000804F08D00D4A904205D00D4A904202D08D
:1023B0000C4A904205D124F002020A4342F0010186
:1023C00004E024F00A020A4342F00101038301847D
:1023D00070BD0000002C01400034014000040040AA
:1023E00000080040000C0040F0B5048C24F01004FC
:1023F0000484068B048C4FF6FF7505EA011726F45A
:10240000734605EA0333334305EA02221A43104BAD
:1024100098420ED00F4B98420BD0B0F1804F08D0AD
:102420000D4B984205D00D4B984202D00C4B984270
:1024300005D124F02001394341F0100104E024F0DB
:10244000A0030B4343F0100102830184F0BD0000A0
:10245000002C01400034014000040040000800400E
:10246000000C0040F0B5048C24F480740484858B47
:10247000048C4FF6FF7707EA012625F0F30507EAFB
:10248000031313432B43104A90420ED00F4A90423D
:102490000BD0B0F1804F08D00D4A904205D00D4AC4
:1024A000904202D00C4A904205D124F4007131438D
:1024B00041F4807104E024F420620A4342F4807104
:1024C00083830184F0BD0000002C014000340140F2
:1024D0000004004000080040000C0040F0B5048CEF
:1024E00024F480540484868B048C4FF6FF7505EA2F
:1024F000013726F4734605EA0222324305EA033324
:102500001343104A90420ED00F4A90420BD0B0F1C4
:10251000804F08D00D4A904205D00D4A904202D01B
:102520000C4A904205D124F40051394341F48051C2
:1025300004E024F402420A4342F48051838301847C
:10254000F0BD0000002C01400034014000040040B8
:1025500000080040000C00400146054A914201D1AC
:102560001B207047034A9142FBD12E207047000088
:10257000002C01400034014070B501218D07284630
:1025800000F0EFFB00287DD003F080FA90F83E00C9
:10259000002430B103F07AFA30F8401F491C018062
:1025A00003E003F073FAA0F8404003F031FBC07B76
:1025B0000A2816D303F02CFB01780820FEF7ACF9AB
:1025C00003F068FA01460C20FEF7A6F903F05EFA64
:1025D00090F83C101020FEF79FF903F019FBC4732C
:1025E00004E003F015FBC17B491CC17303F010FB31
:1025F000407B60B103F00CFB017B491C017303F0CD
:1026000007FB007BC82802D303F002FB447303F0EE
:10261000C7FA90F83C0060B903F042FA407940B93B
:1026200003F0BEFAC46055488481C48104604460EC
:10263000046103F0B5FA90F8440060B903F030FA91
:10264000407940B903F0ACFA04614D488481C481FB
:1026500004604460046103F0A3FA90F83C0080B188
:1026600003F01EFA407960B903F09AFA016C491E32
:10267000016403F095FA006C18B903F091FA80F840
:102680003C4000E078E003F08BFA90F8440080B121
:1026900003F006FA407960B903F082FA816C491EB2
:1026A000816403F07DFA806C18B903F079FA80F840
:1026B000444003F05FFA407848B103F071FA90F8B3
:1026C000240003F071FA064603F054FA466003F062
:1026D0009FFA407C0126F8B103F09AFA4169491C3F
:1026E000416103F095FA406941F27071884214D259
:1026F00003F08EFA807C052823D303F089FA007C4E
:1027000050B903F085FA067403F0C4F9052818D00F
:102710000021052004F0E2FD13E003F079FA4461A2
:1027200003F076FA447403F073FA807C052808D22B
:1027300003F06EFA847403F0A9F9816B21F48061CF
:10274000816303F0A3F9007880B903F09FF9416831
:10275000491C416003F09AF94068B0F5167F05D333
:1027600003F094F9446003F091F906702846BDE83F
:102770007040012100F0E6BA70BD00009C08002006
:10278000B40800202DE9F05FDFF864A10121504674
:1027900000F0E7FA574C584D58B1216809B1491C6F
:1027A0002160296809B1491C29600121504600F0C7
:1027B000C9FA0221504600F0D4FA0027DFF83C9114
:1027C0000126C8B303F06CF9407958B903F0E8F971
:1027D00080F83C6003F0E4F9D0F84C8003F0E0F9B5
:1027E000C0F84080DFF80881206808F1340820B381
:1027F000B8F80010E181401EE189C0EB00400844B8
:10280000A189401A2061FDF752FE01464846FDF7B6
:1028100089FD606003F0C4F901686068FDF750FD50
:102820003749FDF74DFD834603F0BAF9C0F80CB007
:102830002760A8F8007004E014E0B8F80000A08158
:10284000266003F02DF9407940B103F08FF906704E
:1028500003F08CF9446803F089F984600221504642
:1028600000F070FA0421504600F07BFA00283CD0BA
:1028700003F016F9407948B903F092F980F8446002
:1028800003F08EF9C46C03F08BF98464184C28684B
:10289000383400B32188E981401EE989C0EB00404B
:1028A0000844A989401A2861FDF701FE01464846FF
:1028B000FDF738FD686003F073F941686868FDF75B
:1028C000FFFC0F49FDF7FCFC064603F069F90661C1
:1028D0002F60278003E027802088A8812E60504643
:1028E000BDE8F05F042100F02DBABDE8F09F0000C4
:1028F000000800409C080020B40800200050C34796
:102900000000704270B5774E0121304600F029FA80
:10291000002870D003F0BEF80024032804D003F090
:10292000B9F8022828D0D5E003F0B0F890F83400C8
:10293000F0B103F0B9F8007C0028F4D103F0B4F84A
:10294000C068694988420DD303F0AEF8C46003F053
:10295000ABF8044603F0A8F841682068FDF758FC7E
:102960002060B7E003F0A0F8C168491CC160B1E085
:1029700003F09AF8C460ADE003F092F840790028C3
:1029800075D003F0F3F800780028CCD003F0EEF80F
:10299000806878B303F0EAF88168491E816003F02B
:1029A0007FF8006A0A285BD303F07AF8046203F028
:1029B000DDF800F10C0403F0D9F801692068FDF797
:1029C00027FC206003F0CEF80078032103F0D6F84E
:1029D000B0B103F065F8446903F0C8F8C068214657
:1029E000FDF7B8FD76D203F05BF8446903F0BEF85A
:1029F000C4606FE000E073E003F0B8F80470CEE765
:102A000003F044F890F84200C8B103F049F8807927
:102A100003F054F8044603F043F8846003F040F8F0
:102A2000846803F0A3F8C0682146FDF793FD51D8F0
:102A300003F036F8846803F099F8C4604AE003F0C4
:102A40002FF8C46803F092F8C0682146FDF782FDB4
:102A500040D203F025F8C46803F088F8C46039E078
:102A600003F01EF8016A491C016233E0FFE703F03E
:102A700079F80078032103F081F870B903F010F8B9
:102A8000006A0A2804D303F00BF8007F01280FD056
:102A900003F006F8016A491C016203F081F890F81E
:102AA0005000A0B103F07CF8C16D491CC16511E074
:102AB00002F0F6FF046203F073F800F11C0503F066
:102AC0006FF8816A2868FDF7A3FB2860E5E703F04B
:102AD00067F8C4653046BDE87040012100F032B9A6
:102AE00070BD0000000C0040E093040070B5234D61
:102AF0000121284600F035F900283ED0204C2078EE
:102B000020490A2801D3087828B120780A282ED233
:102B1000087818B12BE00120087028E003F07CF859
:102B2000194800681949227841F8220018480068BD
:102B30001849227841F8220017480168174A20787E
:102B400042F82010164800681649227841F8220001
:102B5000154800681549227841F822001448006899
:102B60001449227841F822002178491C2170284616
:102B7000BDE87040012100F0E5B870BD00100040D4
:102B80009F0000209E000020A8000020BC0600201E
:102B9000AC000020E4060020B00000200C0700205C
:102BA000B400002034070020B80000205C0700209B
:102BB000BC0000208407002070B5234D0121284669
:102BC00000F0CFF800283ED0204C207820490A2879
:102BD00001D3087828B120780A282ED2087818B1B5
:102BE0002BE00120087028E003F062F81948006823
:102BF0001949227841F822001848006818492278BB
:102C000041F8220017480168174A207842F820103E
:102C1000164800681649227841F8220015480068D5
:102C20001549227841F82200144800681449227896
:102C300041F822002178491C21702846BDE87040E7
:102C4000012100F07FB870BD00140040A1000020F9
:102C5000A0000020C0000020AC070020C40000201D
:102C6000D4070020C8000020FC070020CC00002072
:102C700024080020D00000204C080020D4000020B0
:102C8000740800202DE9F0411E4F0221384600F063
:102C900068F8002834D01C4C1A4E343620680025C1
:102CA00018B33188E181401EE189C0EB004008443F
:102CB000A189401A2061FDF7FAFB01461348FDF790
:102CC00031FB6060217D124A42F821002560491CD9
:102CD000C8B2207535800A280CD30A21104603F0AB
:102CE000DBFFA0602575656004E035803088A08139
:102CF000012020603846BDE8F041022100F022B8F2
:102D0000BDE8F08100340140CC080020001BB74929
:102D1000E408002010B5094C0121204600F021F8FC
:102D200000280AD00649086808B1401C08602046FF
:102D3000BDE81040012100F005B810BD003401408D
:102D4000CC080020C94301827047002904D00188C3
:102D500041F0010101807047018821F001010180EB
:102D6000704702460020138A0B4092890A40002BCC
:102D700002D0002A00D001207047000070B505463F
:102D80000C461D48854209D01C48854206D0B5F145
:102D9000804F03D01A48854200D01A4820886188A5
:102DA000A288238960B1042813D008281AD02846A5
:102DB000FFF794FBE1882846BDE8704000F04AB870
:102DC0002846FFF7D7FAE1882846BDE8704000F0B2
:102DD00025B82846FFF708FBE1882846BDE8704083
:102DE00000F024B82846FFF73DFBE1882846BDE8FF
:102DF000704000F027B80000002C01400034014072
:102E00000004004000080040002A03D082890A43E1
:102E10008281704782898A4382817047028B22F0C7
:102E20000C020283028B0A4302837047028B22F456
:102E300040620283028B4FF6FF7303EA01210A43CB
:102E400002837047828B22F00C028283828B0A43BA
:102E500082837047828B22F440628283828B4FF69A
:102E6000FF7303EA01210A43828370470146B1F1EF
:102E7000804F04D0124A914203D11D2070471C207C
:102E80007047104A914201D11E2070470E4A91426C
:102E900001D1322070470D4A914201D1362070474E
:102EA0000B4A914201D1372070470A4A914201D121
:102EB00019207047084A9142FBD12C20704700002E
:102EC0000004004000080040000C004000100040DA
:102ED00000140040002C01400034014030B502884D
:102EE0001B4C1C4DA0420DD0A8420BD0B0F1804F1E
:102EF00008D0194B984205D0184B984202D0184B75
:102F0000984203D122F070034A881A43154B984225
:102F100006D0154B984203D022F44073CA881A4356
:102F200002808A8882850A880285A0420AD0A84247
:102F300008D00E4A904205D00D4A904202D00D4A68
:102F4000904201D1097A01860121818230BD0000C1
:102F5000002C014000340140000400400008004003
:102F6000000C0040001000400014004000400140F0
:102F7000004401400048014070B5164D40F2244124
:102F8000284600F07BF8002823D02888281D0088D8
:102F9000114E00213046FEF73BFA3046FEF7C2FAEA
:102FA000C0F1400084B24FF4C000FEF725FA0A4990
:102FB00040206C39086701213046FEF729FA002CC1
:102FC00007D00649284603F0DBF905480168491C8B
:102FD000016070BD004400406C0002409900002078
:102FE0002801002070B5164D40F22441284600F01B
:102FF00045F8002822D02888281D0088114E00217D
:103000003046FEF705FA3046FEF78CFAC0F5007040
:1030100084B26020FEF7F0F90A4968151C39C865CA
:1030200001213046FEF7F4F9002C07D00649284666
:1030300004F03EF905480168491C016070BD0000BC
:10304000004800401C000240200100202801002010
:10305000002904D0818941F4005181817047818920
:1030600021F4005181817047002A03D0828A0A43EB
:1030700082827047828A8A438282704770B50024B8
:1030800040F66A12C1F3421301F01F05012606FA49
:1030900005F2012B0CD0022B0DD0838A1340090AB4
:1030A0008E40008830400BB100B10124204670BD35
:1030B00083891340F3E7038A1340F0E710B540F625
:1030C0006A13C1F3421301F01F040121A140012B37
:1030D00007D0022B07D014303AB102680A430260CD
:1030E00010BD0C30F8E71030F6E702688A43026042
:1030F00010BD000030B585B004460D46208A4CF660
:10310000FF710840E98801432182A0894EF6F3113E
:103110000840A9882A8911436A8902431143A18181
:10312000A08A4FF6FF410840A9890143A182684661
:10313000FEF7E8FD1D48844201D1039800E00298A3
:10314000A189090408D500EBC00101EB0010296832
:103150004900B0FBF1F007E000EBC00101EB00100B
:1031600029688900B0FBF1F06422B0FBF2F109019B
:103170000B096FF018056B4300EB8300A3891D0456
:103180004FF0320307D503EBC000B0FBF2F000F0C4
:103190000700084306E003EB0010B0FBF2F000F07C
:1031A0000F000843208105B030BD00000038014009
:1031B00001460D4A914201D10C4870470C4A914298
:1031C00001D10C4870470C4A914202D10948403065
:1031D00070470A4A914201D109487047094A914211
:1031E000FBD1094870470000003801400C0900205D
:1031F000004400400C0A002000480040004C004001
:103200004C0C0020005000404C0E002001460D4A9E
:10321000914201D10C4870470C4A914201D10C48AF
:1032200070470C4A914202D10948403070470A4A1F
:10323000914201D109487047094A9142FBD109489E
:1032400070470000003801404C100020004400404E
:103250004C11002000480040004C00408C1300201E
:10326000005000408C150020F0B502461C4C1D4B50
:103270001D4D1E4E1E4F802905D0402902D1A2426D
:103280001AD11C48F0BDA24202D11A486438F0BDE0
:103290009A4202D117485038F0BDAA4202D11548CF
:1032A0003C38F0BDB24202D112482838F0BDBA42D3
:1032B000FCD110481438F0BD9A4202D10D481430A8
:1032C000F0BDAA4202D10B482830F0BDB24202D173
:1032D00008483C30F0BDBA42FCD106485030F0BD41
:1032E000003801400044004000480040004C0040CD
:1032F000005000409401002001460D4A914201D146
:10330000801570470B4A914201D1402070470A4B0B
:103310005A15994201D110467047084B994201D184
:1033200010467047064B9942FBD11046704700008B
:10333000003801400044004000480040004C00407C
:103340000050004001460D4A914201D1801570475E
:103350000B4A914201D1402070470A4B5A159942BD
:1033600001D110467047084B994201D11046704771
:10337000064B9942FBD110467047000000380140CF
:103380000044004000480040004C00400050004015
:1033900001460C4A914201D1252070470A4A9142C8
:1033A00001D126207047094A914201D12720704758
:1033B000074A914201D134207047064A9142FBD11D
:1033C000352070470038014000440040004800406C
:1033D000004C00400050004010B586B0144C022153
:1033E0002046FDF797FE002820D004212046FDF757
:1033F000E3FD10492046FDF7C7FD01AA0021204644
:10340000FDF77AFF0198A0F50070093806D0012871
:1034100008D1094901A801F006FE03E0074901A807
:1034200001F001FE06480168491C016006B010BDAC
:103430000064004008000032860000208E0000205A
:1034400024010020FEE730B505460C46002D01D0D2
:10345000022C01D8002030BDA01EC1B22846FEF7C4
:103460003DFB2919C2B211F8023C9A4206D111F86B
:10347000011CB1EB102F01D1012030BD002030BD67
:1034800002E008C8121F08C1002AFAD1704770472D
:10349000002001E001C1121F002AFBD1704700008B
:1034A0002DE9F041774C6068FDF701F8764D29462B
:1034B000FCF706FF064602F0E9FA066102F052FB4D
:1034C000217A0170E068FCF7F2FF064602F0E8FAA4
:1034D0000661A069FCF7EBFF2946FCF7F1FE064602
:1034E00002F05EFB46632069FCF7E1FF2946FCF72A
:1034F000E7FE064602F054FB06626069FCF7D7FF60
:103500002946FCF7DDFE064602F0C0FA4662206A54
:10351000FCF7CDFF2946FCF7D3FE064602F0B6FACB
:103520008662E069FCF7C3FF2946FCF7C9FE064640
:1035300002F0B6FA466102F033FBA16B416502F07E
:1035400015FBE16B416002F02BFB216CC16402F0C2
:1035500027FB616C8165A06CFCF7A9FF2946FCF78D
:10356000AFFE064602F006FB0661E06CFCF79FFF2B
:103570002946FCF7A5FE064602F0FCFA4661206DDE
:10358000FCF795FF2946FCF79BFE064602F040FB40
:10359000C661606DFCF78BFF2946FCF791FE06467D
:1035A00002F036FB066202F071FAA16DC16502F00D
:1035B0006DFAE16D016602F069FA216E816602F032
:1035C00065FA616EC16602F061FAA16E016702F0F0
:1035D0005DFAE16E816702F059FA216FC16702F06E
:1035E00055FA616FC0F8801002F050FAA16FC0F870
:1035F0008410206BFCF75BFF8046606AFCF757FF86
:10360000224F3946FCF75CFE214E3146FCF758FE4E
:103610004146FCF787FE804602F0C2FAC0F80080FF
:10362000606BFCF744FF8046A06AFCF740FF394618
:10363000FCF746FE3146FCF743FE4146FCF772FEBE
:10364000064602F0ADFA466002F020FA00694FF03B
:10365000FF31FCF7A5FE064602F026FA8660E06A16
:10366000FCF725FF2946FCF72BFE054602F098FAE9
:10367000056302F00BFA94F87C1080F85010BDE856
:10368000F0810000AC0200200AD7233CACC52737EC
:10369000DB0F494070B50124064E074D06EB84014F
:1036A00005EB4400022201F027FC641CE4B2202C4C
:1036B000F4D370BDAC0200200030030870B50024C4
:1036C000064E074D06EB840105EB4400022201F093
:1036D0004DFC641CE4B2202CF4D370BDAC0200207D
:1036E0000030030810B500F0F3FD01F029FB00F0F5
:1036F0003DFF00F011F9BDE810400148FEF702BBA4
:103700007402002070B527480221016040F6C412FF
:103710004260002181601923C3600261416147F268
:10372000305585616424C4614FF4967383634FF40C
:10373000AF76C663036443644FF47A738364C364EF
:10374000026541653222026249F640434362856266
:103750004FF4FA73C36202634FF4007242638165EF
:10376000C1650466FA22426640F26D1282660E4A14
:10377000C26640F27F72026740F22A324267816776
:10378000C167022209490A4801F0B6FB07480078E0
:10379000FF2803D0BDE87040FFF77CBFBDE8704054
:1037A000FFF78CBFAC02002052BF0100790000205F
:1037B0000030030810B50A21144803F06DFA1449CB
:1037C00008600A21134803F067FA134908600A21C8
:1037D000124803F061FA124908600A21114803F007
:1037E0005BFA114908600A21104803F055FA1049A4
:1037F00008600A210F4803F04FFA0F4908600F498B
:10380000002008700E49087010BD0000BC060020A2
:10381000D8000020E4060020DC0000200C07002077
:10382000E000002034070020E40000205C070020B6
:10383000E800002084070020EC0000209E0000200B
:103840009F00002010B50A21144803F025FA1449FE
:1038500008600A21134803F01FFA134908600A217F
:10386000124803F019FA124908600A21114803F0BE
:1038700013FA114908600A21104803F00DFA1049A3
:1038800008600A210F4803F007FA0F4908600F4942
:10389000002008700E49087010BD0000AC07002021
:1038A000F0000020D4070020F4000020FC070020D6
:1038B000F800002024080020FC0000204C08002014
:1038C000000100207408002004010020A000002056
:1038D000A100002008B504F0D7F800900C4C0D4D65
:1038E0000221684603F07CFF207818B1FFF762FFE1
:1038F00003F040FF287818B1FFF7A4FF03F03AFF68
:10390000207829780843EBD103F034FFE8E7000082
:103910009E000020A00000201FB500200649CDE930
:10392000011006220346009203904FF4007203A197
:10393000034804F02FF81FBD2C030020414443002E
:10394000D538000810B502F0A1F890F83C0000212D
:10395000032861D018DC4E4C50B3012845D0022812
:1039600011D1010400224B4802F056F84948006882
:10397000D0B320684849884205DB02F087F810F888
:103980003C1F491C017010BD042852D005286DD081
:103990006328F8D102F07AF880F8421002F076F845
:1039A00080F843100021BDE81040052003F096BCCC
:1039B0003A480160394864211C3803F073FB2068E1
:1039C00037498842DFDB35483221243803F06AFB6F
:1039D00002F05CF8012180F83E1002F057F810F870
:1039E0003C1F491C017010BD10E002F04FF8B0F808
:1039F00040000528F7D302F049F880F83E1002F0A5
:103A000045F810F83C1F491C0170ECE76321BDE844
:103A10001040022003F062BC002001F019FB0020DE
:103A200001F02EFB02F032F810F83C1F491C017027
:103A3000D9E700F037F802F057F8407A042102F095
:103A400051F838B902F050F8407A012102F04AF8F2
:103A50000028C8D102F01AF890F842000028C2D11C
:103A60006321BDE81040022003F038BC02F00EF8DC
:103A700090F843000028B6D102F008F890F8420010
:103A80000028B0D00421BDE81040022003F026BC7D
:103A9000F4000020080123420000E143B0812242EB
:103AA0000000D24370B501F0FBFF407950B101280E
:103AB00021D101F0EBFFC07D00281CD1BDE8704092
:103AC00003F08CBA01F0ECFF007F002401258D4E3D
:103AD000052810D2DFE800F0031063D0F50001F0F4
:103AE000D5FFC07D002806D0C6F89C4101F0D8FF64
:103AF000017F491C017770BD01F0C8FFC07D20B176
:103B000001F0C4FF90F8430018B102F033F80078D8
:103B100028B103F0EDFB01F0B9FF457670BD01F06F
:103B2000B5FF90F8420020B301F0B0FF90F84300D9
:103B300048B102F035F880F8505001F0B1FF017F34
:103B4000491C017770BD01F0A1FF90F8500030B121
:103B500001F0A6FF457101F0A3FF047770BD02F0EC
:103B60001FF880F8505001F09BFF017F491C01773E
:103B700070BD01F08BFF90F8500030B101F090FF64
:103B8000457101F08DFF047770BD02F009F880F8EF
:103B9000505001F085FF017F491C017770BD01F095
:103BA00075FF90F84200B8B301F070FF90F8430041
:103BB00088B101F0F5FFC16D01F0F2FF806D814227
:103BC00045D301F06DFF017F491C017701F0E8FF4B
:103BD00080F850403BE001F059FFC07D50B101F04A
:103BE000DFFF80F8504001F0DBFFC46501F058FFB3
:103BF00005772CE001F0D4FFC16D01F0D1FF806D9D
:103C0000814224D301F04CFF017F491C017701F070
:103C1000C7FF80F850401AE0FFE701F037FFC07D92
:103C200020B101F033FF90F84200D0B101F0B8FFAD
:103C3000C16D01F0B5FF406D814208D301F030FF46
:103C4000017F491C017701F0ABFF80F8504001F083
:103C5000A7FF90F850000028A0D0BDE8704003F006
:103C600041BC01F09DFF80F8504001F099FFC46510
:103C700001F016FF0577EAE701F012FF806922499B
:103C8000884205DC01F00CFF017F491C017770BD03
:103C900001F086FF00F11C04C0694FF0FF31FCF712
:103CA0007FFB206001F07CFFC06901F0D1F901F0D9
:103CB00077FFC06901F0E4F9BDE87040642003F0CB
:103CC00065BD01F0E3FE447601F06AFFC46101F0D6
:103CD00067FFC06901F0BCF901F062FFC06901F043
:103CE000CFF9C6F89C5101F0DBFE047701F0CEFE5F
:103CF00090F843000028CAD0BDE87040052102209A
:103D000003F0ECBA008022420000204170B501F0BF
:103D1000BDFE00691749FCF7D3FA174C6060207CA0
:103D200028B1002020743221144803F0C5F9A1689D
:103D30002068FCF70FFC01D2A068206001F0A6FE0D
:103D40000F4E056931462068FCF7BAFA2946FCF7A0
:103D5000E9FA01F07DF901F099FE05693146206824
:103D6000FCF7AEFA2946FCF7DDFABDE8704001F039
:103D700087B90000CDCC4C3DD0030020BC012142CE
:103D8000333353402DE9F04101F080FE90F83C00C0
:103D90000024614F614D012604286ED018DCDFF845
:103DA000808108B301283CD002284BD003280DD1D4
:103DB000002001F04DF9002001F062F9C5F89C41A6
:103DC00001F064FE10F83C1F491C0170BDE8F08151
:103DD000052862D006287CD06328F7D1BDE8F041E1
:103DE0000421012003F07ABAC7F8A041C5F8B04118
:103DF00064214C4803F056F9D8F800004A4988423B
:103E0000E4DB48483221083803F04CF901F03EFE6B
:103E100080F83E6001F03AFE10F83C1F491C01702A
:103E2000D4E701F033FEB0F840000528CED301F00E
:103E30002DFE80F83E4001F029FE10F83C1F491C81
:103E40000170C3E700224FF40031384801F0E4FD6F
:103E50003648006858B1D8F8000035498842B5DBCB
:103E600001F014FE10F83C1F491C0170AEE7BDE8DC
:103E7000F0410021032003F031BA01F007FE90F871
:103E8000340018B1BDE8F041FFF740BF01F0FEFD7E
:103E900010F83C1F491C017098E701F001FE806991
:103EA0002449884206DC01F0F1FD10F83C1F491C52
:103EB00001708BE701F0F8FD044600684FF0FF3118
:103EC000FCF76EFA206001F0EFFD006801F0C0F829
:103ED00000E009E001F0E8FD006801F0D1F8BDE87C
:103EE000F041642003F052BC01F0DEFD04600020CC
:103EF00001F0AEF8002001F0C3F8C5F89C61094854
:103F00006421001D03F0CEF8C7F8A061BDE8F041C0
:103F10006321032003F0E2B9000021420080224225
:103F2000F4000020948122420000D2430801234281
:103F30000000E143000020412DE9F04701F0A6FD1B
:103F400090F83C00DFF8CC81DFF8C491714F002677
:103F5000714D012408F1140803284BD019DC40B33B
:103F6000012836D0022812D1C10300226B4801F08B
:103F700053FDD9F80001002809D001F087FD80F831
:103F80003E4001F083FD10F83C1F491C0170BDE864
:103F9000F08704286CD06328F9D101F077FD90F800
:103FA000340000287DD0BDE8F0470021032003F055
:103FB00095B958486421001F03F074F801F066FDBC
:103FC00080F83E4001F062FD10F83C1F491C017072
:103FD000DDE701F05BFDB0F840001428D7D901F00F
:103FE00055FD80F83E6001F051FD10F83C1F491C62
:103FF0000170CCE701F04AFDB0F84000B0F5FA7F5F
:1040000007D901F043FD80F83E6045480660C5F8D9
:10401000906101F069FD407A022101F063FDB0B9C1
:1040200001F034FD90F8420088B901F02FFD80F8CE
:104030003E60C5F890416421384603F033F86421AE
:10404000404603F02FF80021084603F047F9D5F861
:10405000900100289BD101F019FD90F8380000076D
:1040600095D401F013FD10F83C1F491C01708EE738
:1040700001F03AFD407A022101F034FDA0B901F0CF
:1040800005FD90F8420078B9C5F8904164213846A2
:1040900003F008F86421404603F004F800210846C4
:1040A00000E02FE003F01AF901F0F0FC90F838007E
:1040B00080078DD401F0EAFC90F83800400787D4DF
:1040C00001F012FD407A012101F00CFD50B901F020
:1040D000DDFC90F8340028B901F0D8FC90F84200DB
:1040E000002886D0D9F800010028C0D001F090FD4A
:1040F000447301F08DFD0673BDE8F0476321012094
:1041000003F0ECB8BDE8F0470021022003F0E6B868
:104110000000234284812242008022420001234287
:10412000B081214270B501F0B1FC544D00692946BF
:10413000FCF7C6F8FCF7C0F9514C606001F030FDA7
:10414000006A2946FCF7BCF8FCF7B6F9206101F0DB
:10415000A7FC40692946FCF7B3F8FCF7ADF9E0612C
:1041600001F01EFD406B2946FCF7AAF8FCF7A4F904
:10417000A06101F015FD006B2946FCF7A1F8FCF7E2
:104180009BF9E06201F082FC806A2946FCF798F80E
:10419000FCF792F9206201F003FD406DA06301F08D
:1041A000FFFC806D606401F0E1FC4068E06301F0B9
:1041B000E1FC00692946FCF783F8FCF77DF9A0646F
:1041C00001F0D8FC40692946FCF77AF8FCF774F94D
:1041D000E06401F01DFDC0692946FCF771F8FCF7A9
:1041E0006BF9206501F014FD006A2946FCF768F8B8
:1041F000FCF762F9606501F0B5FC0078A06001F0A1
:104200004FFC0069FCF758F9E06001F03FFC406AA0
:104210002946FCF755F8FCF74FF9606101F0C0FC46
:10422000C06C206401F032FCC06DA06501F02EFC72
:10423000006EE06501F02AFC806E206601F026FC2D
:10424000C06E606601F022FC006FA06601F01EFCEB
:10425000806FE06601F01AFCC06FE06601F016FCAA
:10426000D0F88000E06601F011FCD0F88400A0676F
:1042700001F00CFC90F85000E06770BD0000C842EF
:10428000AC02002008B503F0FFFB00900521684652
:1042900003F0A6FA01F0FEFB062815D2DFE800F0D5
:1042A0000306090C0F1200F07FF90DE0FFF744FE42
:1042B0000AE0FFF747FB07E0FFF764FD04E000F0CA
:1042C00029F801E000F0B2F900F01AF8DEE700008A
:1042D0001FB500200649CDE90110062203460092D1
:1042E00003904FF4007203A1044803F053FB1FBD79
:1042F000E4030020494E5055540000008542000858
:1043000010B501F0A7F802488168491D816010BD11
:10431000E40300202DE9F04101F02CFC007B002596
:1043200001248149814FDFF80882824E03287DD025
:1043300011DC50B3012831D002280AD101F0B0FBC2
:1043400080697D49884262DC01F014FC017B491CD4
:104350000173BDE8F081042869D06328F9D1C8F859
:10436000AC5101F007FC057001F004FC057301F08D
:1043700001FC456001F08AFB90F83D4001F098FB9C
:104380002146BDE8F04102F0A9BF01F0F3FB447003
:1043900001F0F0FB017B491C0173DAE701F0EAFB55
:1043A00000F1080401F0E6FB4068FBF789FF39469D
:1043B000FBF786FF2168FBF72BFF206001F0DAFB9B
:1043C000016901F0D7FB8068FCF7C4F80AD801F056
:1043D000D1FB457001F0CEFB856001F0CBFB017B8A
:1043E000491C017301F0C6FB40780028B1D001F0F0
:1043F0005FFB0228ADD101F053FB407918B1BDE855
:10440000F04102F0EBBDBDE8F04103F06BB801F004
:1044100047FB40794FF0FF35B0B101F0A7FB00F149
:104420000C04C0682946FBF7BBFF01E024E042E032
:10443000206001F09BFBC06800F00AFE01F096FBD3
:10444000C06800F01DFE12E001F0AAFB00F11C04A0
:10445000C0692946FBF7A4FF206001F0A1FBC069F9
:1044600000F0F6FD01F09CFBC06900F009FEBDE81C
:10447000F041642003F08AB901F092FBC56101F0BC
:1044800075FBC560002000F0E3FD002000F0F8FDA2
:10449000C8F89C41C6F8B041C6F8A04101F06AFBDB
:1044A0000221017001F066FB447001F063FB017BA7
:1044B000491C01734DE701F05DFB00F1080401F0B8
:1044C00059FB4068FBF7FCFE3946FBF7F9FE216813
:1044D000FBF79EFE206001F04DFB416901F04AFBB5
:1044E0008068FCF737F807D8C6F8A05101F042FB06
:1044F000457001F03FFB856001F03CFB40780028EF
:10450000D8D106F59A7630687168C0B2490640EA9B
:104510001160B168890640EA11600228CAD001F032
:1045200029FB6321017314E78D7A883C0AD7233C69
:1045300000802242008021420000204108B503F0A3
:10454000A3FA0090084D1E240221684603F048F9A2
:104550002868B0FBF4F104FB110008B900F01EF864
:104560002868401C2860EFE7800000201FB500206D
:104570000649CDE9011007220346009203904FF44B
:10458000807203A1044803F005FA1FBD7C040020DB
:1045900053455249414C00003D450008014801F097
:1045A0000DBF00000044004010B501F06FFA90F814
:1045B0003C0048B101281AD0632817D10021BDE87A
:1045C0001040012002F08ABE01F060FA90F8380035
:1045D00080070BD401F05AFA90F83800400705D450
:1045E00001F054FA10F83C1F491C017010BD01F095
:1045F0007BFA407A012101F075FA88B901F074FA6A
:10460000407A022101F06EFA50B901F03FFA90F8B9
:10461000340028B901F03AFA90F842000028E5D0B9
:104620006321BDE81040002002F058BE70B501F0D3
:104630002DFA90F83C00002401268D4D03287DD0F2
:104640001DDC30B301286FD0022817D14FF47A70E7
:1046500003F09CF88748D0F8081100296FD0D0F8F3
:10466000040100280AD0C5F8B46101F0D1FA06743B
:1046700001F00CFA10F83C1F491C017070BD0428B1
:1046800071D06328FAD1BDE870400421012002F006
:1046900025BE01F0BDFA007C08B1C5F8B46101F097
:1046A00023FA417A21F00101417201F0F9F98069A0
:1046B0007149884206DC01F0E9F910F83C1F491CF9
:1046C000017070BD01F0ECF940794FF0FF3598B101
:1046D00001F04CFA00F10C04C0682946FBF760FEBB
:1046E000206001F043FAC06800F0B2FC01F03EFA2D
:1046F000C06800F0C5FC12E001F052FA00F11C04A1
:10470000C0692946FBF74CFE206001F049FAC069F8
:1047100000F09EFC01F044FAC06900F0B1FCBDE875
:104720007040642003F032B801F020FAC46001F058
:1047300037FAC46101F0B4F9047701E035E013E021
:10474000002000F085FC002000F09AFCC5F89C6178
:1047500064214A4802F0A6FC01F098F910F83C1FC9
:10476000491C017070BD67E001F052FA007C30B165
:1047700001F08CF910F83C1F491C0170F2E701F0C0
:1047800085F990F8750020B901F080F990F876006D
:1047900028B1BDE870400421052002F09FBDBDE8AE
:1047A00070406321052002F099BDC5F8986101F0C1
:1047B0006DF990F858000028D4D001F067F980F81E
:1047C00058402E480A21203002F06CFCC5F8B44154
:1047D000C5F8984101F01CFA047401F057F9816B97
:1047E00021F48061816301F051F9816B21F4802112
:1047F000816301F04BF9816B21F40021816301F0A9
:1048000007FA847401F004FA047601F03FF990F895
:10481000750020B901F03AF990F8760030B101F056
:1048200035F910F83C1F491C01709BE7BDE870404A
:104830006321052002F052BD01F028F990F87500BF
:1048400000288FD101F022F990F87600002889D154
:1048500001F0DEF9007C28B1BDE87040032105209D
:1048600002F03CBDBDE870406321052002F036BD7A
:104870000080224200002342000020419881224211
:1048800010B51D480068002823D001F0FFF890F80B
:104890003800000628D419480168CCB24168806805
:1048A000490644EA1164800644EA106401F0EEF817
:1048B000816B21F0780181631148D0F8900100B13B
:1048C00074B101F0E3F8816B641C41EAC4018163B7
:1048D00010BD01F0DBF8816B21F07801816310BD20
:1048E000BDE8104001F0D2B801F0D0F8816B21F0A2
:1048F0007801816310BD00003001234234812142E0
:104900000080224208B503F0BFF80090DFF8E0A372
:104910000124DFF8E0934FF4807B002502216846F4
:1049200002F05EFFF44FD7F8B00108B9FFF7A8FF17
:1049300001220221F14801F06FF801220421F04820
:1049400001F06AF8ED48012280210C3001F064F892
:10495000EA4801225946103001F05EF8E74801228A
:104960005102143001F058F8E4480122D102143801
:1049700001F052F8E14801221103103801F04CF81F
:10498000DE48012251030C3801F046F8DB480122D1
:104990009103083801F040F801F0E4F8007818219C
:1049A00001F0ECF8064601F0FBF880F8246001F015
:1049B000D9F80078042101F0E1F8DFF84883C8F85D
:1049C000A00101F067F8022828D101F021F9007B4D
:1049D000C82823D3DAF80000CB49884206DA01F070
:1049E00055F8816B41F48021816305E001F04EF8B8
:1049F000816B21F480218163DAF80000C349884289
:104A000006DA01F043F8816B41F40021816305E08F
:104A100001F03CF8816B21F40021816301F036F84C
:104A200090F83500A8B101F031F8C475C7F8944189
:104A3000B74ED6F8900128B301F028F8057601F0BA
:104A400025F890F85000C0B301F020F8C07D48B3BD
:104A500033E001F01BF8866A01F0A2F8C068314625
:104A6000FBF76EFD05D201F011F8C575C7F894513A
:104A7000DEE701F00BF8C475C7F8944101F010F8B7
:104A80004571D5E701F002F890F83800C0F3C30093
:104A9000012803D000F0FAFF0476D0E700F0F6FF1B
:104AA0000576CCE700F0FCFF447101F079F880F85E
:104AB0003C4001F075F880F84440D8F8A001A8B156
:104AC000D9F80C0140B100F0E1FF80F8424000F05D
:104AD000DDFF80F8435011E000F0D8FF90F842006D
:104AE00060B100F0D3FF80F8434007E000F0CEFF54
:104AF00080F8425000F0CAFF80F8435000F0C6FF33
:104B0000D0F8108000F0C2FF406A8249FBF7D8FB62
:104B10004146FBF707FC804600F0C2FFC0F80C805E
:104B200000F0B4FF01697C480068FBF7C9FB7B49D2
:104B3000FBF7F8FB804600F0B3FFC0F8188001F0E7
:104B40002FF890F8240001F02FF8804601F028F8A3
:104B5000C0F8088001F05CF8D0F8208000F0A0FFD9
:104B600080694146FBF7ECFC02D2C6F8A44111E093
:104B700001F04EF8D0F81C8000F092FF80694146A9
:104B8000FBF7E8FC02D2C6F8A84103E0C6F8A4414E
:104B9000C6F8A84100F084FFD0F8188000F076FF36
:104BA00000695F49FBF78CFB4146FBF7C9FC02D863
:104BB000C6F8A04101E0C6F8A05100F067FF008FE1
:104BC00040050BD501F024F8017E01F021F8807C2E
:104BD000814203D03221534802F06EFA01F018F8F6
:104BE000817C01F015F8017600F050FF007828B3C1
:104BF000D7F8B00188B900F049FF90F8380010F0FC
:104C0000780F0AD001F004F8047400F043FF05287F
:104C100003D00021052002F061FB00F037FF806B1C
:104C2000414908420AD000F0F3FF047400F032FF5B
:104C3000052803D00021052002F050FB3B48006806
:104C4000FBF73AFC81B20022394800F051FF3949A4
:104C5000FBF736FB064600F019FFC66000F016FFB2
:104C6000D0F8846000F012FFD0F88000864204D0B3
:104C700001F04EFF02F092FA0BE000F007FF80F81F
:104C8000755000F003FF80F8884000F0FFFE80F8C8
:104C9000745000F0FBFE90F8750020B900F0F6FEAD
:104CA00090F8760058B100F0F5FE022807D000F029
:104CB000F1FE052803D00021052002F00FFB1E4E57
:104CC000307820B10A211D4802F0ECF93570D9F88E
:104CD0000001707000F09CFF807B30B1FFF722FA7A
:104CE000FEF7ECFC00F094FF8573FCF741FF15E63E
:104CF000F4000020000023420080214228012342CA
:104D000024812142000021420000E1430000EB43E6
:104D10000080224233335340E0000020A3AB6845BB
:104D20000AD7233CBC01214286F30700EC00002097
:104D3000087E0008CDCCCC3D84000020B881224202
:104D40001FB500200649CDE9011005220346009257
:104D500003904FF4807203A1054802F01BFE1FBDB3
:104D6000880400205355504552564953494F52002C
:104D70000549000810B501214FF0C050FCF7A0FF15
:104D8000BDE810400120FCF777BF00000D4B8118F3
:104D9000994201D90320704712B10123002109E093
:104DA000002070470378FF2B01D0022070470023BA
:104DB000401C491C9142F5D3012B01D001207047C2
:104DC00000207047000004086FF30A00704710B518
:104DD0004FF44070FCF734FFFFF7CCFF00F0A4F86D
:104DE00000F02BF800F005F800F012FF012101702F
:104DF00010BDFEB5E020FCF74BFF0120FCF742FFA1
:104E000001248DF8084008258DF8095000278DF8F9
:104E10000A708DF80B4002A8FCF7E0FE260430462D
:104E2000FCF706FC00968DF804708DF805508DF89F
:104E300006406846FCF712FCFEBD7CB50024042049
:104E4000FBF754FD45F25005A84245D0FBF738FD6D
:104E50000120FCF7C5FF04E0641CE4B20A2000F066
:104E600023F94120FCF7A4FF0028F5D0FA2C01D348
:104E700001207CBD4FF48070FCF7CCFF0120FCF7D3
:104E8000C3FFFDF7BDF9FDF7C3F901210846FDF7A2
:104E90000FF9FDF7B5F9FCF7CDFF0020FDF790F90C
:104EA000FDF7AEF947F6FF70FDF79AF9FDF7A8F99F
:104EB00000200221CDE900100B230922052140F238
:104EC000E770FDF713F9FDF79BF9FCF7BBFF2946E7
:104ED0000420FBF721FD07E0FDF79AF901210846C0
:104EE000FDF7E6F8FDF78CF900210320FDF7EEF859
:104EF000FCF7B0FF00207CBD10B50A4C8318A3421C
:104F000001D9012010BD0AB1002306E0012010BD27
:104F100010F8014B01F8014B5B1C9342F8D30020C1
:104F200010BD00000000040808B50020FBF7E8FCF5
:104F30000020FBF7D5FC0120FBF7E8FCFBF7B0FCF9
:104F400002208DF8000008208DF8010000208DF867
:104F5000020001208DF803006846FCF73FFE0120A7
:104F6000FBF7BEFC0120FBF7CBFC08BD2DE9F041AF
:104F700007468846164604252549B819884202D9AD
:104F80000120BDE8F0811EB1F00703D00120F8E751
:104F90000020F6E7324641463846FFF7F7FE044662
:104FA00054B1012080F31088FCF7ECFB3520FCF7AE
:104FB0008FFB022C02D00BE00020E2E73846FFF71F
:104FC00003FFFCF78BFB0546042D01D00220D8E738
:104FD00000240EE018F8140008EB4401497840EA78
:104FE00001213846FCF7B4FB0546042D04D1BF1C53
:104FF000641CB4EB560FEDD3FCF7A2FB002080F34A
:105000001088042D01D00220BBE70020B9E7000082
:105010000000040830B5DDE9034501608280C380EB
:105020000481458130BD027BC37A42EA03220A80B3
:10503000827B437B42EA03224A80027CC37B42EAB2
:1050400003228A80827C407C42EA0020C88070472C
:1050500010B50849FBF766F90749FBF731F9FBF78B
:105060002BFA81B205480180BDE810400020FCF712
:10507000AFB900003333534000F07F459600002065
:1050800010B50749FBF74EF90649FBF719F9FBF78D
:1050900013FA81B2BDE810400020FCF7A3B900006C
:1050A0003333534000F07F4510B50022044C04E038
:1050B0002146491E4B1CFCD1521C8242F8DB10BD1C
:1050C000401901000023052208210148FBF77BBCA1
:1050D0007480000830B591B001210846FCF7E2FD6C
:1050E000484D2846FCF7A2F94748019047480290EE
:1050F000002403943C2104910594802106914900E9
:105100000791880008902020099000020A900B94D3
:1051100001A92846FCF709FA01212846FCF778F98D
:1051200001214802FCF7DAFD00213948FBF782FC37
:1051300000213848FBF77EFC00213748FBF77AFC5A
:1051400000213648FBF776FC00213548FBF772FC5E
:1051500000213448FBF76EFC0C9401208DF83400DC
:105160008DF835004FF460200E900F9406208DF8D6
:105170004000254C0CA94C3C2046FBF70BFB0723B9
:10518000012206212046FBF729FB072302221946AC
:105190002046FBF723FB0723032208212046FBF7C9
:1051A0001DFB0723042209212046FBF717FB0723D9
:1051B00005220E212046FBF711FB072306220F21B3
:1051C0002046FBF70BFB01212046FBF7C9FA012122
:1051D0002046FBF7B9FA2046FBF73AFB2046FBF7DF
:1051E000D2FA0028FAD12046FBF743FB2046FBF712
:1051F000C3FA0028FAD101212046FBF72EFB11B09B
:1052000030BD0000080002404C2401401C05002075
:10521000047F00080C7F0008347F00083C7F0008F2
:10522000BC7F0008C47F000830B591B00121022086
:10523000FCF738FD484D2846FCF7F8F84748019040
:1052400047480290002403943C2104910594802156
:1052500006914900079188000890202009900002DB
:105260000A900B9401A92846FCF75FF90121284612
:10527000FCF7CEF80121C803FCF730FD00213948C6
:10528000FBF7D8FB00213848FBF7D4FB0021374857
:10529000FBF7D0FB00213648FBF7CCFB002135485B
:1052A000FBF7C8FB00213448FBF7C4FB0C9401203A
:1052B0008DF834008DF835004FF460200E900F9477
:1052C00006208DF84000254C0CA94C3C2046FBF7ED
:1052D00061FA0723012200212046FBF77FFA07230A
:1052E000022201212046FBF779FA072303220A2133
:1052F0002046FBF773FA072304220B212046FBF715
:105300006DFA072305220C212046FBF767FA0723D5
:1053100006220D212046FBF761FA01212046FBF70A
:105320001FFA01212046FBF70FFA2046FBF790FAFF
:105330002046FBF728FA0028FAD12046FBF799FA15
:105340002046FBF719FA0028FAD101212046FBF785
:1053500084FA11B030BD0000580402404C3C0140BA
:1053600094050020D47E0008DC7E00089C7F0008A5
:10537000A47F0008AC7F0008B47F000808B50021B6
:1053800000910323632240F60F61FBF74FFC08BD39
:1053900070B586B000240F480525A0F108034FF62C
:1053A000FF7600900194CDE9024540F2CF223146CC
:1053B00004940948FBF78AFB064B0194CDE90245AA
:1053C000049408332F22314604480094FBF77EFBF7
:1053D00006B070BD100100200008004000340140FC
:1053E00000B51A49002801D000200870087808B1DB
:1053F000002000BD01200870154B991D184600F0D3
:1054000051F808B1012000BDD91D581C00F04AF820
:1054100008B1022000BD0E49981C083100F042F886
:1054200008B1032000BD0A49D81C093100F03AF840
:1054300008B1042000BD0649181D0A3100F032F8F9
:1054400008B1052000BD002000BD0000980000202C
:10545000E804002070B5104D04212846FCF71DFA21
:105460000E4C207002212846FCF717FAE07020212C
:105470000B48FCF712FA607008212846FCF70DFA79
:10548000A07001212846FCF708FA20710120FFF7DF
:10549000A7FFE07270BD000000180140E804002082
:1054A00000080140024600201278002A02D0012A9A
:1054B00006D103E00A78521C0A7001E000220A704B
:1054C00009780A2900D90120704700002DE9FC471E
:1054D0000646DDE90A950C9C0F46904618461021B9
:1054E000FBF7A8FACDE900544B4642463946304610
:1054F000FBF79AFC80213046FDF7B6FEFBF754FC23
:1055000040213046FDF7B0FEFBF74EFC024901207A
:105510000860BDE8FC870000BC8122423EB505461C
:105520000C4618210848FBF785FA48210748FBF785
:1055300081FACDE9015402200090072308220021BE
:105540000348FBF7F3F93EBD247F00081C7F0008E9
:10555000006400401FB501214807FCF7B1FB0021A2
:105560000A48FBF767FA00200090019002900220A1
:10557000039069460020FBF717FF01210020FBF78D
:1055800003FF00210846FBF723FF1FBDF47E000840
:105590001FB501214807FCF793FB00210A48FBF7E0
:1055A00049FA002000900190029002200390694681
:1055B0001020FBF7F9FE01211020FBF7E5FE00218A
:1055C0000846FBF70FFF1FBDFC7E00087CB50546B3
:1055D000DDE90640CDE900402846FBF725FC8021A7
:1055E0002846FDF741FEFBF7DFFB40212846FDF78B
:1055F0003BFEBDE87C40FBF7D7BB70B505460C46CB
:1056000045F25550FCF7CAFA2846FCF7BBFA20468B
:10561000FCF7BEFAFCF7AEFABDE87040FCF7A0BAA2
:105620002DE9FE4300F082F800F0EEF9FFF74AFDA5
:1056300000F02CFA90F83800C00701D100F0CEF944
:10564000002441F61F4506232A4663214FF080407F
:105650000094FBF7EBFA05232A46632127480094C0
:10566000FBF7E4FAFFF736FDFFF7DEFD2448FFF70E
:1056700085FE2448FFF782FEFFF76CFFFFF788FFE7
:10568000FFF786FE00210220FFF748FF40F27D551C
:1056900040F61D07CDE9007540F22A3840F27F76CA
:1056A0004346324640F20A211748FFF7B3FC2B4627
:1056B000424640F209211548CDE90067FFF7AAFCF0
:1056C0000420CDE900044FF4E133114A1149124896
:1056D000FFF77CFF0320CDE901044FF41651009140
:1056E0000E4B0F4A0F491048FFF7F0FE03B040F68B
:1056F0003541BDE8F0430420FFF77FBF000C0040B8
:105700000010004000140040D0040020DC04002001
:10571000EC7E0008E47E0008004400404C80000855
:10572000747F00086C7F00080048004010B510210D
:105730008348FBF77FF910218248FBF77BF928218A
:105740008148FBF777F910218048FBF773F928218E
:105750007F48FBF76FF928217E48FBF76BF928217A
:105760007D48FBF767F928217C48FBF763F928217E
:105770007B48FBF75FF910217A48FBF75BF91021B2
:105780007948FBF757F910217848FBF753F91021B6
:105790007748FBF74FF910217648FBF74BF91021BA
:1057A0007548FBF747F910217448FBF743F91021BE
:1057B0007348FBF73FF910217248FBF73BF91021C2
:1057C0007148FBF737F910217048FBF733F91021C6
:1057D0006F48FBF72FF910216E48FBF72BF91021CA
:1057E0006D48FBF727F910216C48FBF723F91021CE
:1057F0006B48FBF71FF928216A48FBF71BF92821A2
:105800006948FBF717F928216848FBF713F92821A5
:105810006748FBF70FF928216648FBF70BF92821A9
:105820006548FBF707F928216448FBF703F92821AD
:105830006348FBF7FFF828216248FBF7FBF82821B3
:105840006148FBF7F7F828216048FBF7F3F82821B7
:105850005F48FBF7EFF828215E48FBF7EBF8384884
:10586000FBF7FBF83748FBF7F8F83748FBF7F5F894
:105870003648FBF7F2F83648FBF7EFF83548FBF708
:10588000ECF83548FBF7E9F83448FBF7E6F834481C
:10589000FBF7E3F83348FBF7E0F83448FBF7DDF8B3
:1058A0003348FBF7DAF83348FBF7D7F83248FBF711
:1058B000D4F83248FBF7D1F83148FBF7CEF831483D
:1058C000FBF7CBF83048FBF7C8F83048FBF7C5F8D2
:1058D0002F48FBF7C2F82F48FBF7BFF82E48FBF71D
:1058E000BCF82E48FBF7B9F82D48FBF7B6F82D4861
:1058F000FBF7B3F82D48FBF7B0F82D48FBF7ADF8F0
:105900002C48FBF7AAF82C48FBF7A7F82B48FBF725
:10591000A4F82B48FBF7A1F82A48FBF79EF82A4881
:10592000FBF79BF82948FBF798F82948FBF795F80F
:105930002848FBF792F828480121C161016010BD99
:10594000147F00082C7F0008647F00087C7F00081B
:10595000847F00088C7F0008947F0008B4800008D2
:10596000D47F0008447F00085C7F0008DC7F0008CB
:10597000E47F0008EC7F0008FC7F0008048000083A
:10598000F47F00080C800008148000081C800008C8
:10599000248000082C800008348000083C80000827
:1059A00044800008548000085C800008648000087F
:1059B0006C8000087C800008848000088C800008CF
:1059C000948000089C800008A4800008BC80000827
:1059D000C4800008CC800008A001214210B5084C0A
:1059E0000120E06020620749C1F8B0012060A06298
:1059F0006420FFF759FB0020A062206210BD000068
:105A00009081224200802142002306220821014881
:105A1000FAF7D9BFAC80000810B50C460068904278
:105A200005D100F033F8816B2143816310BD00F094
:105A30002DF8816BA143816310BD000010B50028D3
:105A400021D0114B0022001F196803E0814203D8C6
:105A50000A4649680029F9D152B11368841A9C4258
:105A600004D1006818441060104602E0506000E065
:105A7000186039B102680B1A934203D10B681A44BB
:105A800002604968416010BD6C0200200048704708
:105A9000F003002001480078704700007A000020E1
:105AA000004870473803002000487047D0030020AA
:105AB00001484078704700007A0000200649020043
:105AC00005D0012A07D105480068FAF7F9BB044858
:105AD0000068FAF7F5BB70473333534004010020E8
