:020000040800F2
:10000000887D0020ED010008D11400080D140008BF
:10001000CF140008BD0A0008DD250008000000001C
:10002000000000000000000000000000490100087E
:10003000D9110008000000008D010008ED1A000829
:1000400007020008070200080702000869180008F4
:10005000070200080702000807020008070200085C
:10006000070200080702000807020008070200084C
:10007000070200080702000807020008070200083C
:10008000070200080702000807020008070200082C
:10009000712500080702000807020008070200088F
:1000A000070200080702000807020008070200080C
:1000B000451D0008051E0008070200080702000889
:1000C00007020008070200080702000807020008EC
:1000D0000702000807020008112100087D2100081E
:1000E00007020008070200080702000807020008CC
:1000F00007020008070200080702000807020008BC
:1001000007020008070200080702000807020008AB
:10011000070200080702000807020008070200089B
:10012000070200080702000807020008070200088B
:10013000DFF810D000F02CF900480047412D0008EE
:10014000AFF30080887D0020204B19680868B0E874
:10015000F00F80F30988BFF36F8F4FF0000080F33A
:1001600011884EF00D0E7047000000000648006830
:10017000006880F3088862B661B6BFF34F8FBFF3A3
:100180006F8F00DF00BF00BF08ED00E0EFF30980D4
:10019000BFF36F8F0D4B1A6820E9F00F106008B5A0
:1001A0004FF0100080F3118803F0A8F84FF0000022
:1001B00080F31188BDE8084019680868B0E8F00FBE
:1001C00080F30988BFF36F8F704700BF30010020B4
:1001D000EFF311804FF0100181F31188704780F325
:1001E00011887047EFF3058070470000064880478C
:1001F00006480047FEE7FEE7FEE7FEE7FEE7FEE70C
:10020000FEE7FEE7FEE7FEE7111B000831010008EC
:1002100080EA010210B502F00043400022D04A00FB
:100220001FD0010E01EB1261C0F35600C2F356025B
:1002300040F4000042F40002A0FB022000047F39D9
:10024000140400D0401C50EA124001D44000491E62
:10025000C2B20C0604EBD010401C4008802A02D029
:1002600003E0002010BD20F00100002900DA00208A
:10027000184310BD30B480EA010202F0004530F0AE
:10028000004221F0004013D090B1C30DD40DC2F351
:100290001601C0F31600E41A41F4000140F4000214
:1002A0007D34914201D3641C00E04900002C02DA45
:1002B00030BC002070474FF400000023914201D36E
:1002C000891A034340084FEA4101F7D151B19142E5
:1002D00002D14FF0004105E002D24FF0010101E0F0
:1002E0006FF0010103EBC450284430BC00F019B892
:1002F00096230022114600F01DB820F00040C10DE9
:10030000C0F3160040F400007F2901DA0020704796
:10031000962903DCC1F19601C840704796398840A0
:1003200070470029A8BF7047401C490008BF20F053
:100330000100704710B4B0FA80FC00FA0CF050EAEB
:10034000010404BF10BC704749B1CCF1200421FA6C
:1003500004F411FA0CF118BF012121430843A3EB67
:100360000C01CB1D4FEA00614FEA102042BF002074
:1003700010BC704700EBC35010440029A4BF10BC50
:100380007047401C490008BF20F0010010BC7047B6
:10039000064C074D06E0E06840F0010394E80700D2
:1003A00098471034AC42F6D3FFF7C6FE94380008E5
:1003B000B438000870B58C1810F8015B15F007030D
:1003C00001D110F8013B2A1106D110F8012B03E0EE
:1003D00010F8016B01F8016B5B1EF9D12B0705D4F6
:1003E0000023521E0DD401F8013BFAE710F8013B3F
:1003F000CB1A921C03E013F8015B01F8015B521E5B
:10040000F9D5A142D8D3002070BD00002DE9F05FDE
:100410000646DDF828A0894690460024A6F2B27070
:10042000822802D30120BDE8F09F40F2B275284F28
:10043000DFF8A0B008E0284601F032F808B13C44EB
:1004400000E05C446D1CADB2B542F4D3A9F10109E2
:1004500009F0FF070025DFF88090DFF880B00FE09B
:1004600019F8050040F2A321484304EBC0143046BC
:1004700001F016F810B1012D00D15C446D1CADB235
:10048000BD42EDD3A8F1010840F2A32008FB00F81B
:1004900004EBC810C3EB4311C1EB032100EB0110C7
:1004A000CAEB0A1100EB81000B99441801214FF0AF
:1004B000C05001F05FF8012001F048F801F014F994
:1004C000204601F075FA01F0A3FA0020ABE7000026
:1004D0000085E2018033E101883800088051010085
:1004E00030B505460C46002D0BD0022C09D9A01EB4
:1004F000C1B2284600F06EFF291901F8020D000A6A
:10050000487030BD10B5012001F050F8BDE8104032
:10051000002001F04BB8000008B5034908440090E2
:100520000098008808BD0000006C004008B5034A30
:10053000104400900098016008BD0000006C00406D
:100540002DE9F04788B00746DDE910A8DDF84890AE
:100550000E4614461D460121480601F00BF88DF8A1
:1005600018408DF819508DF81760ADF814A00024CC
:100570008DF81A4001258DF81B5007948DF8164010
:1005800005A9384600F0D2FB8DF80A408DF80B40E3
:100590008DF80C50ADF80040ADF80240ADF80440C5
:1005A000ADF80640ADF808408DF80D50684600F0F3
:1005B000E3FA01220221384600F0AEFB14208DF848
:1005C00010008DF811808DF812908DF8135004A84A
:1005D00000F080FF08B0BDE8F08738B504460D464E
:1005E000204600F00DF8A088ADF800008DF803500B
:1005F00003208DF802006946206800F065FE38BDD2
:10060000124A0168914201D104201CE0104A914233
:1006100001D1082017E00F4A914201D1102012E0C9
:100620000D4A914201D120200DE00C4A914201D1A6
:10063000402008E00A4A914201D1802003E0094AA3
:10064000914200D18815012100F0A2BF00080140AD
:10065000000C01400010014000140140001801404E
:10066000001C0140002001402DE9FF4F87B00F46DC
:10067000DDE9169BDDE9148A16461D46079800F051
:10068000B1F845B128212868FFF7A7FF079801F0C6
:100690005BFC00F09BFEB8F1000F09D02821D8F8D0
:1006A0000000FFF79AFF079801F04EFC00F08EFE65
:1006B000BAF1000F08D028212868FFF78EFF0798AD
:1006C00001F042FC00F082FEB9F1000F09D02821B0
:1006D000D9F80000FFF781FF079801F035FC00F022
:1006E00075FEADF810600026ADF81260ADF814701C
:1006F000ADF8166004A9079801F0BCFC012785B18C
:1007000044F00204ADF80460A888ADF80600ADF826
:100710000870ADF80A60ADF80C6001A9079801F007
:100720009BFBB8F1000F11D044F004040420ADF895
:100730000400A888ADF80600ADF80870ADF80A60AE
:10074000ADF80C6001A9079801F086FBBAF1000F23
:1007500011D044F008040820ADF80400A888ADF8D2
:100760000600ADF80870ADF80A60ADF80C6001A99C
:10077000079801F071FBB9F1000F11D044F010049B
:100780000C20ADF80400A888ADF80600ADF808709C
:10079000ADF80A60ADF80C6001A9079801F05CFBA8
:1007A00044F001010122079801F09CFB0121079808
:1007B00001F039FBBBF1FF0F11D01898FF280ED0C4
:1007C000079801F01FFC8DF800008DF801B0189813
:1007D0008DF802008DF80370684600F07BFE0BB0C8
:1007E000BDE8F08F3149884203D10121C01400F0E7
:1007F000CFBEB0F1804F06D02D49884207D10121EC
:10080000022000F0B7BE0121084600F0B3BE29491E
:10081000884203D10121042000F0ACBE2649884261
:1008200003D10121082000F0A5BE2449884203D14C
:100830000121102000F09EBE2149884203D10121F0
:10084000202000F097BE1F49884203D101214014A7
:1008500000F09EBE1C49884203D10121C80400F06B
:1008600097BE1A49884203D10121080500F090BEC5
:100870001749884203D10121480500F089BE154976
:10088000884203D10121402000F074BE1249884201
:1008900003D10121802000F06DBE1049884203D1B0
:1008A0000121801500F066BE70470000002C014059
:1008B0000004004000080040000C00400010004010
:1008C0000014004000340140004C01400050014041
:1008D0000054014000180040001C0040002000406F
:1008E00030B58BB004462078002829D001210220A1
:1008F00000F032FE606800F0D3FBA068001D00909D
:100900006078002508B30295A06801F01DFD0190F4
:10091000A06801F0BDFD0390049580200590069528
:10092000079508954FF4405009900A95694660680C
:1009300000F035FC0121606800F0A4FB0BB030BD75
:100940000121084600F008FED4E710200290A068BC
:1009500001F028FD0190A06801F0C0FD0390DBE7E5
:100960002DE9F04385B00646DDE90C780C461546C6
:100970009946304600F058F81CB118212046FFF780
:100980002CFE1DB104212846FFF727FECDF800906C
:100990000020ADF80400ADF80600ADF80800ADF891
:1009A0000C000C20ADF80A006946304601F06EFCE0
:1009B000DFF87090FF2F20D0B8F1FF0F1DD0304628
:1009C00001F0B2FD8DF810008DF811708DF81280D5
:1009D00001208DF8130004A800F07CFD4E4506D0E0
:1009E000012240F22441304601F034FC05E00122AE
:1009F00040F22551304601F02DFC4E450BD024B17C
:100A000001228021304601F0FBFB25B1012240216B
:100A1000304601F0F5FB0121304601F0E5FB05B061
:100A2000BDE8F083005000401149884203D1012104
:100A3000880300F0ADBD0F49884203D1012148046D
:100A400000F098BD0C49884203D10121880400F0D0
:100A500091BD0A49884203D10121C80400F08ABD32
:100A60000749884203D10121080500F083BD704782
:100A7000003801400044004000480040004C004065
:100A80000050004070B504460D461646606800F000
:100A900083FB0028FAD10021606800F0F3FAD4E962
:100AA0000301084300F0E2FA6068C56060684660D0
:100AB0006068BDE87040012100F0E4BAFEE7000084
:100AC0000A4A914202D1002181617047C1F31302A9
:100AD0008B0101D5C26070474B0101D5026170479F
:100AE000090101D582607047426070477000F030A4
:100AF00030B5082310240422B1F5007F33D011DC77
:100B000020292AD007DC012922D0042923D0082952
:100B100000D1C46030BD402921D0B1F5807FF9D12A
:100B2000426030BD0025B1F5004F20D008DCB1F5A2
:100B3000806F1AD0B1F5006FF3D18561426030BD8E
:100B4000B1F5803F0DD0B1F5003FF8D1446030BD24
:100B50000849816030BDC36030BD036130BD0461B0
:100B600030BD436030BD426030BD426030BD856104
:100B7000426030BD01010100F0B5827A012191404F
:100B8000304C226842F0010222602E4D1C352A684A
:100B90008A432A602B4A067B0C322B4B002E14D141
:100BA00016688E4316604688C78846EA0746877AE5
:100BB00003EBC707C7F840660688878846EA0746FA
:100BC000877A03EBC707C7F84466067B012E14D16A
:100BD00016680E4316604288068842EA0642867A04
:100BE00003EBC606C6F84026C288868842EA06425B
:100BF000867A03EBC603C3F84426124AC37A121D51
:100C00003BB113680B4313600E4A0389143223B1BE
:100C100006E013688B431360F6E713688B43136099
:100C20000389012B02D113680B431360407B012819
:100C300002D1286808432860206820F00100206065
:100C4000F0BD000000660040006000400246002049
:100C500053690B425DD0B1F5807F4AD016DC08297C
:100C600037D009DC01292CD002292ED0042950D1FB
:100C7000D068082100F0BCB910292ED0202930D02E
:100C8000402946D11069102100F0B2B9B1F5004FEA
:100C90003BD00CDCB1F5007F2FD0B1F5806F30D0A8
:100CA000B1F5006F35D19069702100F0A1B9B1F5AF
:100CB000803F1AD0B1F5003F2BD15068102100F0D1
:100CC00097B99068134900F093B9D068032100F0F8
:100CD0008FB9D068102100F08BB91069032100F0A2
:100CE00087B91069082100F083B95068082100F025
:100CF0007FB99069012100F07BB99069022100F071
:100D000077B99069042100F073B95068042100F0AC
:100D10006FB9704701010100002A03D042690A43FC
:100D20004261704742698A434261704710B50022B0
:100D3000036823F002030360036843F001030360C8
:100D40004FF6FF7300E0521C4468E40701D19A4259
:100D5000F9D14268D2073ED08A79012A3DD0026893
:100D600022F080020260CA79012A3BD0026822F098
:100D7000400202600A7A012A39D0026822F0200279
:100D800002604A7A012A37D0026822F0100202601B
:100D90008A7A012A35D0026822F008020260CA7AF3
:100DA000012A33D0026822F0040202608A78CC78EB
:100DB000920742EA04620C7942EA04424C790988BB
:100DC00042EA0452491E0A43C261016821F001014E
:100DD0000160002120E0002010BD026842F0800286
:100DE0000260C0E7026842F040020260C2E70268A7
:100DF00042F020020260C4E7026842F01002026082
:100E0000C6E7026842F008020260C8E7026842F0E2
:100E100004020260CAE7491C4268D20701D0994225
:100E2000F9D14068C00701D0002010BD012010BDDD
:100E300010B500EB0113D3F8B04104F004041472B0
:100E4000002C2CD0D3F8B041E408546003F5D873DB
:100E50001C6804F0020454725C6804F00F0494727D
:100E60005C68240AD4749C68D4729C68240A147345
:100E70009C68240C54739C68240E9473DC68D473AF
:100E8000DC68240A1474DC68240C5474DB681B0EC0
:100E9000937449B1016941F02001016110BDD3F89B
:100EA000B041640D1460D1E7C16841F02001C16018
:100EB00010BD30B50246002093685B010AD49068EB
:100EC000000101D5012005E09068C00001D5022095
:100ED00000E0042004283BD002EB0012D2F880315D
:100EE00003F00103C2F880310B7A93B3D2F880414A
:100EF0004D681C434B7A43EAC5031C43C2F880414A
:100F00008B7A03F00F038B7202F5C072536823F0E3
:100F10000F03536053688C7A23435360CB7A8C7BE6
:100F20000D7B43EA04634C7B240444EA05242343F9
:100F30009360CB7B8C7C43EA04634C7C097C240467
:100F400044EA01210B43D360116841F001011160B3
:100F500030BDFFE7D2F880314C7A23430C8843EA56
:100F60004453C2F88031CBE70022002904D0012984
:100F700006D002290BD107E082681848024006E03B
:100F800082681748024002E082681648024016490B
:100F9000501A8A4218D007DC92B16FF080601018A6
:100FA00010D0022809D113E0B0F5007F12D00F490C
:100FB00040180BD0B0F5003F0ED00020C0B27047F3
:100FC0000220FBE70020F9E70020F7E70020F5E723
:100FD0000120F3E70120F1E70120EFE7030000041F
:100FE0000003000800000310000100080001FFF7E3
:100FF000024600200A4200D0012070470122064B21
:101000008240002903D018681043186070471868A0
:1010100090431860704700000074004030B5084CE1
:10102000236840F6FE7282409343D1E900252A43AB
:10103000D1E902510D432A4382401A43226030BD58
:101040000074004008B5034A10440830009000982E
:10105000016008BD0074004008B5034A1044143014
:1010600000900098016008BD00740040C10002D5E6
:101070000249086070470249486070470404024012
:1010800000000240002904D0016841F00101016024
:10109000704701684FF6FE72114001607047000012
:1010A00001684FF6FE72114001600021016041604D
:1010B0008160C1603649364A0839904204D1486897
:1010C00040F00F0048607047314A1432904204D11A
:1010D000486840F0F000486070472D4A283290423E
:1010E00004D1486840F4706048607047284A3C3238
:1010F000904204D1486840F4704048607047244AE8
:101100005032904204D1486840F4702048607047E3
:101110001F4A6432904204D1486840F4700048602D
:1011200070471B4A7832904204D1486840F07060A2
:1011300048607047174A111F904204D1086840F078
:101140000F0008607047134A1432904204D10868B7
:1011500040F0F000086070470E4A2832904204D1F7
:10116000086840F47060086070470A4A3C32904258
:1011700004D1086840F4704008607047054A503256
:101180009042FAD1086840F470200860704700006F
:101190000800024008040240406880B2704730B541
:1011A000026847F6F0739A430C6A8B682343D1E9CF
:1011B00004452C4323438C692343CC6923434C6A65
:1011C00023438C6A234313430360CA6842600A685E
:1011D00082604968C16030BD704700000149C86045
:1011E000704700000020024070B505464FF43026DD
:1011F000304600F059F8042811D1094C206940F01C
:10120000020020616561206940F0400020613046A5
:1012100000F04AF8216941F6FD721140216170BD6C
:101220000020024004200849CA68D20701D00120EA
:101230007047CA68520701D502207047C968C906BD
:10124000FBD50320704700000020024002480169DE
:1012500041F080010161704700200240F0B5064670
:101260000D464FF40057384600F01EF804280CD104
:10127000064C206940F0010020613580384600F0BE
:1012800013F82169BA1E11402161F0BD002002400F
:1012900003480249416003494160704723016745A3
:1012A00000200240AB89EFCD00B50346FFF7BAFF3F
:1012B00002E0FFF7B7FF5B1E012801D1002BF8D138
:1012C000002B00D1052000BD2DE9F0410022CC7893
:1012D00004F00F03E40601D58C7823430C784FF01B
:1012E0000F0714F0FF0F4FF0010C1CD005680CFA2B
:1012F00002F40E882640A64211D1960007FA06F89D
:1013000025EA080503FA06F848EA0505CE78282EEE
:1013100002D0482E02D002E0446100E00461521C79
:10132000082AE4D305600A88FF2A1ED945680022EE
:1013300002F108060CFA06F40E882640A64210D1E7
:10134000960007FA06F825EA080503FA06F848EABF
:101350000505CE78282E00D14461CE78482E00D1E4
:101360000461521C082AE3D34560BDE8F081000007
:10137000F0B5154C002801DAE36900E06368C0F3BA
:101380000346420D120185B2C0F301579540032F69
:1013900007D0C2020CD50322B240934343F07062DF
:1013A00009E023F07062636823F07063636002E019
:1013B000AB4343F0706201B12A43002801DAE261D5
:1013C000F0BD6260F0BD0000000001400121FFF7A8
:1013D000CFBF000070B5FF22FF23002801D00229F3
:1013E00002D84FF6FF7070BD074D05F5807605E019
:1013F00010F8014B54402A5D5A40335D491EC9B272
:10140000F6D243EA022070BD3C36000806A3002055
:10141000104C211F1A5C22800A885206FCD5401C01
:10142000C0B22A28F6D3FEE70D0A456E7465722015
:10143000486172644661756C745F48616E646C6586
:10144000722C2053797374656D2048616C742E0D75
:101450000A0000000438014002494CF6CC40086004
:101460007047000000300040AFF3008002494AF6A8
:10147000AA20086070470000003000400149486021
:10148000704700000030004001498860704700004C
:101490000030004001490860704700000030004003
:1014A000810701D0002070476421B0FBF1F201FBFD
:1014B000120109B1012070474FF4C871B0FBF1F27D
:1014C00001FB120008B10020704701207047FEE7C1
:1014D0007047000070B50F23C27801260178002AFA
:1014E0001ED0144A126802F4E062C2F5E062120AE9
:1014F000C2F10404D3404578A54082781A402A43BB
:10150000120101F1E02181F80024007800F01F01B0
:101510008E404009800000F1E020C0F8006170BDFD
:1015200001F01F0086404809800000F1E020C0F86B
:10153000806170BD0CED00E002490843024908607B
:10154000704700000000FA050CED00E00149086258
:101550007047000000000E42054A002903D051697F
:1015600001435161704751698143516170470000E7
:1015700000100240054A002903D0D1690143D1611E
:101580007047D1698143D16170470000001002406B
:10159000054A002903D0916901439161704791691F
:1015A00081439161704700000010024001490860CA
:1015B000704700004004424210B5264A516801F0CD
:1015C0000C01254B002927D0042927D0082927D032
:1015D0000360516801F0F0010909204B5C5C01686F
:1015E000E1404160546804F4E064240A1C5D21FA7F
:1015F00004F48460546804F46054E40A1B5DD94028
:10160000C160526802F44042920B144B1B1F9A5C5B
:10161000B1FBF2F1016110BD0360DAE70360D8E7C6
:10162000516801F47011536803F48033022404EB11
:10163000914133B153689B0307D5094B594301606E
:10164000C7E7074B59430160C3E7034B59430160A8
:10165000BFE700000010024000127A001E010020C7
:1016600000093D00034600205909094A01290AD012
:1016700002290AD0516A03F01F02012393400B4252
:1016800000D0012070471168F5E7116AF3E7000008
:1016900000100240084900220A7001F820290128A0
:1016A00005D0042802D1052081F8200070470120D0
:1016B00081F82000704700002010024001490860B6
:1016C000704700003C04424202490A6A02430A622F
:1016D000704700000010024002490A8882430A80D5
:1016E00070470000042800400248018841F01001C2
:1016F00001807047042800400248018821F0100151
:1017000001807047042800402DE9F04700F06AF896
:101710000646304FB6FBF7F32F48304D018899420B
:1017200031D0038040F2B2744FF4B7784FF4B679F9
:101730000FE02046FFF7B4FE38B1434502D3A3F5CE
:10174000B77304E0641CA4B205E0A3F26D13641C3B
:10175000A4B24B45EDD8AC800024DFF884800CE0C7
:10176000A888FFF79DFE08B1012C2FD018F80400BF
:10177000984204D81B1A641CA4B21C2BF0D2641C1F
:10178000AC715B1CEB71B6FBF7F007FB10604FF41C
:101790006161B0FBF1F22A70B0FBF1F201FB1203C0
:1017A0003C22B3FBF2F36B70B0FBF1F301FB1300CF
:1017B000B0FBF2F102FB1100A870EA79A979A888C0
:1017C00000F02AF828720020BDE8F0871D2BD6D340
:1017D0001D3BD0E78051010018010020741000204B
:1017E00088380008034800880249091F098840EA30
:1017F000014070471C28004006490988C2B21140C8
:10180000044A121F1288024202D009B10120704717
:10181000002070470428004030B56423B0FBF3F487
:10182000E4B2B0FBF3F503FB1500132C01D96430CF
:10183000C0B200EB90030724B3FBF4F504FB1533AF
:10184000084D1A440D4415F8015C2A4492B28007F1
:1018500003D1032901D2521E92B2B2FBF4F004FB71
:10186000102030BD7C38000810B50120FFF7C4FF00
:1018700008B1FFF749FF0220FFF7BEFF30B107486C
:101880000168491C01600220FFF726FF0520FFF7D1
:1018900023FFBDE8104000F0BBB800004C00002062
:1018A000054A002903D0118801431180704711882F
:1018B00081431180704700000028004008B50322D2
:1018C0008DF800208DF801008DF8021001208DF8B0
:1018D00003006846FFF7FEFD08BD00002DE9F05F3C
:1018E0000646DDF828A0894690460024A6F2B2708C
:1018F000822802D30120BDE8F09F40F2B275284F44
:10190000DFF8A0B008E02846FFF7CAFD08B13C4464
:1019100000E05C446D1CADB2B542F4D3A9F10109FD
:1019200009F0FF070025DFF88090DFF880B00FE0B6
:1019300019F8050040F2A321484304EBC0143046D7
:10194000FFF7AEFD10B1012D00D15C446D1CADB2AE
:10195000BD42EDD3A8F1010840F2A32008FB00F836
:1019600004EBC810C3EB4311C1EB032100EB0110E2
:10197000CAEB0A1100EB81000B99441801214FF0CA
:10198000C050FFF7F7FD0120FFF7E0FD204600F013
:101990001FF800F03DF8FFF7B7FE0020ABE70000AE
:1019A0000085E2018033E1018838000880510100A0
:1019B00000B50246FFF798FE0449100C0880081D88
:1019C00002805DF804EBFFF797BE0000202800407E
:1019D00000B50246FFF788FE0449100C0880081D78
:1019E00002805DF804EBFFF787BE00001828004076
:1019F00000B50246FFF778FE0449C2F303400880B1
:101A0000081D02805DF804EBFFF776BE0828004051
:101A1000024801888906FCD5704700000428004070
:101A20000448018821F00801018001880907FCD5DC
:101A30007047000004280040AFF300800CB500227E
:101A4000019200922748016841F4803101604FF40F
:101A5000A063016801F4003100910199491C0191D2
:101A6000009911B901999942F3D10168890302D50E
:101A70000121009100E000920099012930D11A491A
:101A80000A6842F010020A600A6822F003020A6043
:101A90000A6842F002020A604168416041684160A0
:101AA000416841F480614160416821F47C114160EA
:101AB000416841F4E8114160016841F080710160C2
:101AC00001688901FCD5416821F00301416041684A
:101AD00041F0020141604168C1F381010229FAD15C
:101AE0000CBD0000001002400020024010B5FEF7BF
:101AF0006FFB01F0E9FC18B104494FF08050086019
:101B0000BDE810400020FEF76ABB000004ED00E0D5
:101B100010B50F48016841F00101016041680D4AAC
:101B20001140416001680C4A11400160016821F4D4
:101B300080210160416821F4FE0141604FF41F01E2
:101B40008160FFF779FF05494FF00060086010BD24
:101B5000001002400000FFF8FFFFF6FE08ED00E075
:101B600070B5048C24F001040484058B048C25F0EA
:101B7000F3054FF6FF7606EA031313432B43104A8F
:101B800090420ED00F4A90420BD0B0F1804F08D057
:101B90000D4A904205D00D4A904202D00C4A904224
:101BA00005D124F002020A4342F0010104E024F0CE
:101BB0000A020A4342F001010383018470BD000060
:101BC000002C0140003401400004004000080040A7
:101BD000000C0040F0B5048C24F010040484068B43
:101BE000048C4FF6FF7505EA011726F4734605EAE3
:101BF0000333334305EA02221A43104B98420ED0B6
:101C00000F4B98420BD0B0F1804F08D00D4B98424B
:101C100005D00D4B984202D00C4B984205D124F0D0
:101C20002001394341F0100104E024F0A0030B43EC
:101C300043F0100102830184F0BD0000002C01403C
:101C4000003401400004004000080040000C004047
:101C5000F0B5048C24F480740484858B048C4FF6D6
:101C6000FF7707EA012625F0F30507EA031313437C
:101C70002B43104A90420ED00F4A90420BD0B0F145
:101C8000804F08D00D4A904205D00D4A904202D0B4
:101C90000C4A904205D124F40071314341F4807123
:101CA00004E024F420620A4342F4807183830184B7
:101CB000F0BD0000002C0140003401400004004051
:101CC00000080040000C0040F0B5048C24F480545F
:101CD0000484868B048C4FF6FF7505EA013726F4E1
:101CE000734605EA0222324305EA03331343104ADE
:101CF00090420ED00F4A90420BD0B0F1804F08D0E6
:101D00000D4A904205D00D4A904202D00C4A9042B2
:101D100005D124F40051394341F4805104E024F406
:101D200002420A4342F4805183830184F0BD0000E3
:101D3000002C014000340140000400400008004035
:101D4000000C00402DE9F0474FF080490121484642
:101D500000F075F8284C294D38B1216809B1491CAB
:101D60002160296809B1491C29600221484600F018
:101D700066F8234F00264FF00108C0B1216889B1F1
:101D8000B9F824006081491EC1EB01406189084413
:101D90002189401AE060B7FBF0F0FEF7A9FA606015
:101DA000266004E0B9F824002081C4F800800421F2
:101DB000484600F044F8C0B1296889B1B9F8240058
:101DC0006881491EC1EB0140698908442989411A8B
:101DD000E960B7FBF1F0FEF78BFA68602E6004E073
:101DE000B9F824002881C5F800804846BDE8F047CE
:101DF000072100F015B80000D4010020E401002004
:101E0000A086010010B5054C0121204600F017F80E
:101E10002046BDE81040012100F002B80004004057
:101E2000C94301827047002904D0018841F00101B3
:101E300001807047018821F001010180704702464E
:101E40000020138A0B4092890A40002B02D0002AFE
:101E500000D001207047000070B505460C461D48B3
:101E6000854209D01C48854206D0B5F1804F03D089
:101E70001A48854200D01A4820886188A2882389A0
:101E800060B1042813D008281AD02846FFF71CFF99
:101E9000E1882846BDE8704000F04AB82846FFF7C0
:101EA0005FFEE1882846BDE8704000F025B828466E
:101EB000FFF790FEE1882846BDE8704000F024B8A6
:101EC0002846FFF7C5FEE1882846BDE8704000F0CF
:101ED00027B80000002C01400034014000040040FD
:101EE00000080040002A03D082890A43828170479B
:101EF00082898A4382817047028B22F00C0202831E
:101F0000028B0A4302837047028B22F440620283F1
:101F1000028B4FF6FF7303EA01210A4302837047E5
:101F2000828B22F00C028283828B0A438283704769
:101F3000828B22F440628283828B4FF6FF7303EA26
:101F400001210A438283704701461D4A914201D113
:101F50001C487047B1F1804F04D01B4A914203D115
:101F60001A4870471A4870471A4A914201D188149A
:101F70007047194A914201D118487047184A914256
:101F800001D118487047184A914202D115482030B3
:101F90007047164A914202D1124860307047144A85
:101FA000914201D113487047134A914202D10D4822
:101FB000E0307047114A9142FBD111487047000050
:101FC000002C0140C000160000040040000C1A0064
:101FD0000003180000080040000C00400100200031
:101FE000004C01402000008000500140005401409E
:101FF0000018004000100080001C0040002000403D
:10200000000200800146B1F1804F04D0124A914293
:1020100003D11D2070471C207047104A914201D106
:102020001E2070470E4A914201D1322070470D4A5E
:10203000914201D1362070470B4A914201D137209D
:1020400070470A4A914201D119207047084A9142CB
:10205000FBD12C2070470000000400400008004025
:10206000000C00400010004000140040002C014013
:102070000034014030B502881B4C1C4DA0420DD0ED
:10208000A8420BD0B0F1804F08D0194B984205D030
:10209000184B984202D0184B984203D122F070039B
:1020A0004A881A43154B984206D0154B984203D0E4
:1020B00022F44073CA881A4302808A8882850A887B
:1020C0000285A0420AD0A84208D00E4A904205D00C
:1020D0000D4A904202D00D4A904201D1097A018600
:1020E0000121818230BD0000002C014000340140FC
:1020F0000004004000080040000C004000100040B8
:1021000000140040004001400044014000480140EC
:1021100070B5164D40F22441284600F07BF80028A7
:1021200023D02888281D0088114E00213046FEF754
:10213000A9FF3046FFF730F8C0F1400084B24FF4F9
:10214000C000FEF793FF0A4940206C39086701215F
:102150003046FEF797FF002C07D00649284600F0CE
:102160009BFD05480168491C016070BD00440040AA
:102170006C0002402D0000204800002070B5164D74
:1021800040F22441284600F045F8002822D0288853
:10219000281D0088114E00213046FEF773FF30469F
:1021A000FEF7FAFFC0F5007084B26020FEF75EFF14
:1021B0000A4968151C39C86501213046FEF762FFDF
:1021C000002C07D00649284600F060FF054801684A
:1021D000491C016070BD0000004800401C00024026
:1021E0002400002048000020002904D0818941F407
:1021F000005181817047818921F4005181817047AC
:10220000002A03D0828A0A4382827047828A8A43E4
:102210008282704770B5002440F66A12C1F34213FF
:1022200001F01F05012606FA05F2012B0CD0022B46
:102230000DD0838A1340090A8E40008830400BB1CC
:1022400000B10124204670BD83891340F3E7038A5F
:102250001340F0E710B540F66A13C1F3421301F0E2
:102260001F040121A140012B07D0022B07D01430FD
:102270003AB102680A43026010BD0C30F8E7103032
:10228000F6E702688A43026010BD000030B585B0F1
:1022900004460D46208A4CF6FF710840E988014348
:1022A0002182A0894EF6F3110840A9882A8911439A
:1022B0006A8902431143A181A08A4FF6FF41084079
:1022C000A9890143A1826846FFF776F91D48844237
:1022D00001D1039800E00298A189090408D500EB18
:1022E000C00101EB001029684900B0FBF1F007E0E4
:1022F00000EBC00101EB001029688900B0FBF1F090
:102300006422B0FBF2F109010B096FF018056B4371
:1023100000EB8300A3891D044FF0320307D503EBC4
:10232000C000B0FBF2F000F00700084306E003EB4A
:102330000010B0FBF2F000F00F000843208105B060
:1023400030BD00000038014001460D4A914201D1E4
:102350000C4870470C4A914201D10C4870470C4A16
:10236000914202D10948403070470A4A914201D156
:1023700009487047094A9142FBD10948704700005B
:1023800000380140F401002000440040F402002025
:1023900000480040004C0040340500200050004040
:1023A0003407002001460D4A914201D10C48704784
:1023B0000C4A914201D10C4870470C4A914202D11B
:1023C0000948403070470A4A914201D10948704794
:1023D000094A9142FBD1094870470000003801408A
:1023E0003409002000440040340A00200048004026
:1023F000004C0040740C002000500040740E00207F
:10240000F0B502461C4C1D4B1D4D1E4E1E4F802923
:1024100005D0402902D1A2421AD11C48F0BDA242E7
:1024200002D11A486438F0BD9A4202D11748503898
:10243000F0BDAA4202D115483C38F0BDB24202D1EB
:1024400012482838F0BDBA42FCD110481438F0BD0B
:102450009A4202D10D481430F0BDAA4202D10B4875
:102460002830F0BDB24202D108483C30F0BDBA423B
:10247000FCD106485030F0BD003801400044004017
:1024800000480040004C004000500040B4000020D4
:1024900001460D4A914201D1801570470B4A914285
:1024A00001D1402070470A4B5A15994201D110467C
:1024B0007047084B994201D110467047064B99422C
:1024C000FBD1104670470000003801400044004036
:1024D00000480040004C00400050004001460D4ABA
:1024E000914201D1801570470B4A914201D14020A1
:1024F00070470A4B5A15994201D110467047084B54
:10250000994201D110467047064B9942FBD11046C3
:10251000704700000038014000440040004800407F
:10252000004C00400050004001460C4A914201D14D
:10253000252070470A4A914201D126207047094A56
:10254000914201D127207047074A914201D134209E
:102550007047064A9142FBD1352070470038014050
:102560000044004000480040004C00400050004043
:1025700010B586B0144C02212046FEF767FB0028F8
:1025800020D004212046FEF7B3FA10492046FEF77A
:1025900097FA01AA00212046FEF74AFC0198A0F50F
:1025A0000070093806D0012808D1094901A800F0B7
:1025B00042FA03E0074901A800F03DFA0648016825
:1025C000491C016006B010BD0064004008000032E4
:1025D000140000201C00002044000020FEE730B55D
:1025E00005460C46002D01D0022C01D8002030BD3C
:1025F000A01EC1B22846FEF7EDFE2919C2B211F89D
:10260000023C9A4206D111F8011CB1EB102F01D106
:10261000012030BD002030BD02E008C8121F08C1F3
:10262000002AFAD170477047002001E001C1121F53
:10263000002AFBD17047000070B50124064E074DFB
:1026400006EB840105EB4400022200F041F9641C12
:10265000E4B2042CF4D370BDA001002000300308C4
:1026600070B50024064E074D06EB840105EB4400CF
:10267000022200F045F9641CE4B2042CF4D370BDCE
:10268000A00100200030030810B500F0C1FA00F0EE
:1026900009F800F061F8BDE810400148FEF78CBF72
:1026A0008C01002010B50C4802210160002141601E
:1026B0008160C16002220949094800F009F9074810
:1026C0000078FF2803D0BDE81040FFF7B5BFBDE894
:1026D0001040FFF7C5BF0000A0010020000000204F
:1026E0000030030808B500F0E9FE0090154F002601
:1026F000DFF85480154D32240521684600F08AFD2C
:1027000000F042F8686800F0ABF9A86800F0BCF986
:102710000F49384600F048F9287810B1FFF7A0FFBC
:102720002E70E968B1FBF4F004FB101020B905220B
:102730000849404600F0D2FAFEF796FEE868401CD1
:10274000E860D9E700640040004400400400002035
:10275000BC010020280000201FB500200649CDE95B
:10276000011006220346009203904FF4007203A169
:10277000044800F029FE1FBDB0010020494E50550D
:1027800054000000E526000802488168491D816068
:1027900070470000B00100200D4B8118994201D90B
:1027A0000320704712B10123002109E00020704787
:1027B0000378FF2B01D0022070470023401C491CE6
:1027C0009142F5D3012B01D00120704700207047C2
:1027D000000004086FF30A00704710B54FF4407012
:1027E000FEF7AAFEBDE81040AFF300807CB50024E0
:1027F00001214FF0C050FEF7BDFE0120FEF7A6FEFE
:102800000420FDF789FE45F25105A8424FD0FDF79F
:1028100079FE0120FEF73EFF04E0641CE4B20A20CA
:1028200000F046F94120FEF71DFF0028F5D0FA2CF4
:1028300001D301207CBD4FF48070FEF745FF0120DD
:10284000FEF73CFFFFF7E4F8FFF7EAF8012102206A
:10285000FFF726F8FFF7DCF8FEF746FF0020FFF74A
:10286000B7F8FFF7D5F847F6FF70FFF7C1F8FFF7A5
:10287000CFF800200224CDE9004040F2E7760B2398
:10288000092205213046FFF729F81421CDE900413E
:102890000B23092205213046FDF7B8FDFFF7B8F8F4
:1028A000FEF72AFF29460420FDF740FE07E0FFF768
:1028B000B7F801210220FEF7F3FFFFF7A9F8002186
:1028C0000320FEF7FBFFFEF71FFF00207CBD00008A
:1028D00010B50A4C8318A34201D9012010BD0AB1DA
:1028E000002306E0012010BD10F8014B01F8014B58
:1028F0005B1C9342F8D3002010BD000000000408C8
:102900002DE9F04107468846164604252549B819A1
:10291000884202D90120BDE8F0811EB1F00703D042
:102920000120F8E70020F6E7324641463846FFF737
:1029300033FF044654B1012080F31088FEF7A8FC51
:102940003520FEF74BFC022C02D00BE00020E2E722
:102950003846FFF73FFFFEF747FC0546042D01D040
:102960000220D8E700240EE018F8140008EB440118
:10297000497840EA01213846FEF770FC0546042DEF
:1029800004D1BF1C641CB4EB560FEDD3FEF75EFC04
:10299000002080F31088042D01D00220BBE7002026
:1029A000B9E7000000000408F0B585B00646002431
:1029B0000868009000208DF808008DF809000820B4
:1029C0008DF80A008888000A8DF80B0088888DF839
:1029D0000C00C888000A8DF80D00C8888DF80E001C
:1029E0000889000A8DF80F0008898DF810004889C1
:1029F000000A8DF8110048898DF8120069463046AA
:102A0000FEF757FA074640F6FF7503E0641CA4B2D0
:102A1000AC4205D239463046FEF7A6FA0028F5D07A
:102A200005B0F0BD30B5DDE9034501608280C380AB
:102A30000481458130BD027BC37A42EA03220A80C9
:102A4000827B437B42EA03224A80027CC37B42EAC8
:102A500003228A80827C407C42EA0020C880704742
:102A600010B50749FDF706FC0649FDF7D1FBFDF758
:102A700044FC81B2BDE810400020FEF7E3BA00003C
:102A80003333534000F07F4510B50749FDF7F2FBA3
:102A90000649FDF7BDFBFDF730FC81B2BDE81040F3
:102AA0000020FEF7D9BA00003333534000F07F45D1
:102AB00010B50022044C04E02146491E4B1CFCD1F9
:102AC000521C8242F8DB10BD4019010000B585B0F0
:102AD00000210622CDE902120191049105490091DD
:102AE000A1F1080340F2CF224FF6FF71FDF7BCFDC4
:102AF00005B000BD3C0000203EB505460C46012156
:102B00000846FEF745FD18210B48FDF766FD4821F4
:102B10000A48FDF762FD01214FF4EA10FEF728FC98
:102B2000CDE9015402200090072308220021044827
:102B3000FDF706FD3EBD0000743800086C38000843
:102B4000006400401FB501214807FEF713FD002176
:102B50000A48FDF742FD00200090019002900220FB
:102B6000039069460020FEF759FA01210020FEF784
:102B700045FA00210846FEF765FA1FBD5C380008DB
:102B80001FB501214807FEF7F5FC00210A48FDF7B3
:102B900024FD0020009001900290022003906946DD
:102BA0001020FEF73BFA01211020FEF727FA002142
:102BB0000846FEF751FA1FBD643800087CB505468B
:102BC000DDE90640CDE900402846FDF7C9FE802139
:102BD0002846FFF715FCFDF783FE40212846FFF746
:102BE0000FFCBDE87C40FDF77BBE70B505460C468A
:102BF00045F25550FEF74EFC2846FEF73FFC2046B6
:102C0000FEF742FCFEF732FCBDE87040FEF724BC44
:102C10002DE9FC41FFF796FFFFF7B2FF4FF0804030
:102C2000FFF754FF00210220FFF766FF40F27D54BA
:102C300040F61D06CDE9006440F22A3740F27F7568
:102C40003B462A4640F20A210E48FFF7EBFECDE94B
:102C5000005623463A4640F209210B48FFF7E2FEB0
:102C600000200421CDE900104FF4E133074A084960
:102C70000848FFF7A3FFBDE8FC4140F271210420A2
:102C8000FFF7B3BFBC010020C80100205438000882
:102C90004C3800080044004070B50D46FFF754FB67
:102CA00004462078C52818D16078642815D1A17809
:102CB000201F085CA92810D1E01E085CD4280CD184
:102CC0002046FFF78CFC002807D00022A018C0780F
:102CD000A854521CD2B2052AF8D370BD2DE9F04198
:102CE00007460D4616463846FFF75CFB0446AD2105
:102CF0002170B521617000220321A270002006E03E
:102D00000A462B5C491CC9B2A354401CC0B2B04255
:102D1000F6D30D22481CC0B26254AA21421C215491
:102D2000921CD1B2A1702046FDF7DAFB8021384613
:102D3000FFF766FBA2782146BDE8F041FDF7A2BE91
:102D400010B5002080F31088FFF747FDFFF79CFCCB
:102D500000F0A2FA002010BD70B504460B4D2868A3
:102D60004460E868844206D22968686B091DBDE8A2
:102D7000704000F0C1B92968286B091D00F0BCF94A
:102D8000A86A844200D2AC6270BD0000300100200D
:102D900070B5002908D00D467DB14C2000F00EF929
:102DA000044634B1256309E0800000F007F90546C8
:102DB000F2E7284600F0F4F900E00024204670BD58
:102DC00070B5124E124D1CE000F090FA306820B140
:102DD000002400F0DBFBA4B901E00124F9E700F0D6
:102DE000AFF9F068C468201D00F066F9A868401EBD
:102DF000A8606868401E686000F0BEF9204600F0D8
:102E000009F868680028DFD170BD00005C1100205F
:102E10003001002010B50446206B00F0C1F92046B7
:102E2000BDE8104000F0BCB94FF4C8410F4842075C
:102E300006D0C01D20F007000C49411AC1F5C84159
:102E40000B4A1060002353600144083921F0070148
:102E5000103A11604B600B600B1A436001604068D0
:102E6000906050604FF00040D060704784110020A7
:102E700084010020044CFFF7A3FF20680128FAD941
:102E800000F0BCF9F7E700008010002070B50446A0
:102E90001546002023180A5C83F834200A5C12B11E
:102EA000401C1028F6D3002684F84360082D00D378
:102EB0000725E562201D00F01CF904F1180000F060
:102EC00018F92461C5F10800A0616462666484F8A1
:102ED000486070BD70B50024124D04EB840005EB12
:102EE000800000F0FBF8641C082CF6D30D48A030DD
:102EF00000F0F4F80B48B43000F0F0F80948C8309E
:102F000000F0ECF80748DC3000F0E8F80548F03055
:102F100000F0E4F803490448A0310163143141632F
:102F200070BD0000801000203001002030B5134932
:102F300000E011460A688242FBD34B685C18844269
:102F400003D140681844486008460D684468231857
:102F5000AB420DD1094B103B1B689A4206D0526818
:102F6000224442600A681268026002E0036000E0E6
:102F70000260814200D0086030BD00008401002062
:102F80000748016B0968002905D0016BC968C96849
:102F90004968816270474FF0FF31816270470000DD
:102FA0003001002004484068401C02D0FDF710F9B1
:102FB000FEE7FDF70DF9FEE7680100202DE9F0417D
:102FC0000546002600F092F9294F386808B9FFF746
:102FD0002BFFF868054240D165B10835680709D074
:102FE00005F00700C0F108000544680702D0FDF7AE
:102FF000EFF8FEE78DB3786885422ED81C49103172
:103000000846046801E0214604466068A84202D2EE
:1030100020680028F7D1386884421ED00E68083630
:10302000206808606068411B102909D960194207AF
:1030300002D0FDF7CDF8FEE741606560FFF776FF4F
:1030400061687868401A7860BA68904200D2B860C7
:10305000F868014361600020206000F097FA700773
:1030600002D0FDF7B5F8FEE73046BDE8F08100007C
:103070007401002020384FF08073C36181610249E0
:10308000416140F820297047A52F000810B50C4673
:10309000FFF75AF9017821290DD1417833290AD156
:1030A000C178112907D1002281180979A154521C35
:1030B000D2B2042AF8D310BD0169D0E901329A6076
:1030C000D0E901235A604A68824201D182684A608D
:1030D000002202610868401E0860704700F1080184
:1030E00041604FF0FF328260C160016100210160E8
:1030F000704700210161704730B50C68621C02D036
:1031000000F1080202E0026904E01A4653681D68F3
:10311000A542FAD953684B6099608A605160086192
:103120000168491C016030BD42684A6093688B6049
:1031300093685960916008610168491C016070479B
:1031400010B5FDF745F80A484168491C4160BFF3D6
:103150004F8FBFF36F8F4068012807D10548006883
:1031600010F0FF0F02D0FDF733F8FEE710BD0000AE
:103170006801002004ED00E010B508494868002807
:1031800007D0401E4860002806D1BDE81040FDF77A
:1031900026B8FDF71DF8FEE710BD0000680100200D
:1031A00070B500281DD0083804460E4D6068E968E7
:1031B000084202D1FDF70CF8FEE7226812B1FDF7D4
:1031C00007F8FEE78843606000F090F8606869687F
:1031D000084468602046FFF7A9FEBDE8704000F093
:1031E000D5B970BD740100204FF0E0200249416163
:1031F00007210161704700003F19010004494FF0A9
:1032000080500860BFF34F8FBFF36F8F704700008F
:1032100004ED00E070B505460C460022002D06D0F6
:1032200044B11C4EF06A40B1FCF7D2FFFEE7FCF758
:10323000CFFFFEE7FCF7CCFFFEE700F057F8F068A1
:103240002B681C44834205D9A34208D9844206D97D
:10325000012204E0A34201D8844200D901222C605B
:103260007AB13068001DFFF727FF38B9306890F851
:103270002C10012088403169814331612046FFF7DD
:103280006BFD00F083F9002803D1BDE87040FFF723
:10329000B5BF70BD300100201FB50024009401941B
:1032A0000294234680220DA10E48039400F08CF86E
:1032B000012804D000280FD1FCF78AFFFEE7FCF7B5
:1032C00087FF09484FF0FF31816201214161C460ED
:1032D000BDE81F4000F03EB81FBD000049444C450A
:1032E00000000000752E0008300100200248C16A6D
:1032F000491CC162704700003001002010B5134A1C
:10330000D06A002802D00120D06110BD0020D06119
:103310001069B0FA80F0C0F11F000D4900EB800089
:1033200051F8203073B101EB800041684968416079
:1033300000F10803994201D1496841604068C068C2
:10334000106010BDFCF744FFFEE7000030010020D4
:10335000801000201CB5194908780190FF200870E2
:10336000087800909DF80000154A00F010001070D9
:103370000720906006E09068401E90609DF8000075
:10338000400000909DF800000006F4D4107A00027E
:1033900000F4E0609060019808700A48016841F408
:1033A00070010160016841F070410160FFF71CFF8E
:1033B00000205060FCF7DAFE00201CBD00E400E0B5
:1033C0006801002020ED00E02DE9FF4F81B082462A
:1033D000DDE90E59109990469B46BAF1000F04D0D2
:1033E000082D05D3FCF7F4FEFEE7FCF7F1FEFEE73F
:1033F0004046FFF7CDFC04462E4F7CB3216BA8F16D
:10340000010001EB800020F00706700702D0FCF7F6
:10341000DFFEFEE7CDF800802A462046119B029988
:10342000FFF734FD5A4651463046FFF723FE206031
:10343000B9F1000F01D0C9F80040FFF781FEB8686C
:10344000401CB860386810B1786940B10CE03C604D
:10345000B868012808D1FFF73DFD05E019E038689C
:10346000C06AA84200D83C60786A401C7862E06A72
:1034700001213A6981401143396100EB80010E4816
:1034800000EB8100211DFFF74FFE0124FFF774FEC2
:1034900001E04FF0FF34012C07D1786928B138687A
:1034A000C06AA84201D2FFF7A9FE05B02046BDE8D8
:1034B000F08F000030010020801000200148C0681B
:1034C00070470000300100202DE9F04100252D4F0C
:1034D000F86A002808D0B869401CB861F86900B1E2
:1034E00001252846BDE8F081F868401CF860FE68B8
:1034F00076B9386B006810B1FCF76AFEFEE7386BEE
:10350000796B39637863386A401C3862FFF738FD9D
:10351000B86ADFF8748086420DD3386B006838B122
:10352000386BC068C468606886420ED2B86202E038
:103530004FF0FF30B8623868C06A00EB800058F87E
:1035400020000128CAD90125C8E7201DFFF7B4FDD6
:10355000A06A18B104F11800FFF7AEFDE06A01217E
:103560003A6981401143396100EB800008EB80002B
:10357000211DFFF7D9FDE06A3968C96A8842CCD3BA
:103580000125CAE730010020801000202DE9F0411C
:103590000027284DE86A002807D0FFF7D1FDE86A28
:1035A000401EE862E86A18B13EE0FCF711FEFEE753
:1035B000A868C8B3DFF8808001261EE0D8F80C00A8
:1035C000C46804F11800FFF777FD201DFFF774FDB4
:1035D000E06A2A6906FA00F111432961164900EBF5
:1035E0008000C83901EB8000211DFFF79DFDE06AD6
:1035F0002968C96A884200D3EE61D8F80000002823
:10360000DCD1A86938B909E0FFF75EFF00B1EE61CF
:10361000A869401EA861A8690028F5D1E8690128B9
:1036200002D10127FFF7EAFDFFF7A6FD3846BDE806
:10363000F0810000300100204811002000C18140CD
:1036400001C0804101C0804100C1814001C0804172
:1036500000C1814000C1814001C0804101C0804162
:1036600000C1814000C1814001C0804100C1814052
:1036700001C0804101C0804100C1814001C0804142
:1036800000C1814000C1814001C0804100C1814032
:1036900001C0804101C0804100C1814000C1814022
:1036A00001C0804101C0804100C1814001C0804112
:1036B00000C1814000C1814001C0804101C0804102
:1036C00000C1814000C1814001C0804100C18140F2
:1036D00001C0804101C0804100C1814000C18140E2
:1036E00001C0804101C0804100C1814001C08041D2
:1036F00000C1814000C1814001C0804100C18140C2
:1037000001C0804101C0804100C1814001C08041B1
:1037100000C1814000C1814001C0804101C08041A1
:1037200000C1814000C1814001C0804100C1814091
:1037300001C0804101C0804100C1814000C0C10181
:10374000C30302C2C60607C705C5C404CC0C0DCD11
:103750000FCFCE0E0ACACB0BC90908C8D81819D981
:103760001BDBDA1A1EDEDF1FDD1D1CDC14D4D515B1
:10377000D71716D6D21213D311D1D010F03031F1A1
:1037800033F3F23236F6F737F53534F43CFCFD3DD1
:10379000FF3F3EFEFA3A3BFB39F9F83828E8E929C1
:1037A000EB2B2AEAEE2E2FEF2DEDEC2CE42425E571
:1037B00027E7E62622E2E323E12120E0A06061A1E1
:1037C00063A3A26266A6A767A56564A46CACAD6D91
:1037D000AF6F6EAEAA6A6BAB69A9A86878B8B97901
:1037E000BB7B7ABABE7E7FBF7DBDBC7CB47475B531
:1037F00077B7B67672B2B373B17170B05090915121
:103800009353529296565797559594549C5C5D9D50
:103810005F9F9E5E5A9A9B5B995958988848498940
:103820004B8B8A4A4E8E8F4F8D4D4C8C44848545F0
:103830008747468682424383418180400008014099
:1038400001000000000801400200000000080140E3
:1038500004000000000801400800000000080140CA
:10386000100000000008014020000000000C014092
:1038700000010000000C01400002000000030306EC
:1038800001040602050003051F1C1F1E1F1E1F1F2B
:103890001E1F1E1FB4380008000000208C0100000D
:1038A000B4030008303900088C010020FC7B0000C4
:1038B000282600080134133C3842085A44080110F5
:1038C000124413024014380140322062402A80140E
:1038D0003A440E320242042A1C1412486A4027322B
:1038E000011B5804142A4C0F1B0210272A102D51BB
:1038F0006A504A49296A5864694F19147A6C6459A4
:103900005219145A306479272914696412021A1062
:10391000142B100279E964113C020406DE2D010229
:10392000030404053E060708091AAA01011C000049
:0400000508000131BD
:00000001FF
