:020000040800F2
:10000000E86B002009020008050B00086D0A0008D3
:10001000030B000879070008AB0C00080000000083
:100020000000000000000000000000006501000862
:10003000CB08000800000000A9010008350C0008EA
:1000400023020008230200082302000823020008FC
:1000500023020008230200082302000823020008EC
:1000600023020008230200082302000823020008DC
:1000700023020008230200082302000823020008CC
:1000800023020008230200082302000823020008BC
:1000900023020008230200082302000823020008AC
:1000A000230200082302000823020008230200089C
:1000B000230200082302000823020008230200088C
:1000C000230200082302000823020008230200087C
:1000D000230200082302000823020008230200086C
:1000E0002302000823020008230200080000000089
:1000F0000000000000000000000000000000000000
:100100000000000000000000230200082302000895
:10011000230200082302000823020008230200082B
:10012000230200082302000823020008230200081B
:10013000230200082302000823020008230200080B
:1001400023020008230200082302000823020008FB
:10015000DFF80CD000F0FCF900480047C914000893
:10016000E86B0020204B19680868B0E8F00F80F3B6
:100170000988BFF36F8F4FF0000080F311884EF0B5
:100180000D0E70470000000006480068006880F30C
:10019000088862B661B6BFF34F8FBFF36F8F00DF81
:1001A00000BF00BF08ED00E0EFF30980BFF36F8FE1
:1001B0000D4B1A6820E9F00F106008B54FF01000E1
:1001C00080F3118801F046FC4FF0000080F31188A5
:1001D000BDE8084019680868B0E8F00F80F30988A6
:1001E000BFF36F8F704700BF04000020EFF3118052
:1001F0004FF0100181F31188704780F31188704728
:10020000EFF3058070470000064880470648004726
:10021000FEE7FEE7FEE7FEE7FEE7FEE7FEE7FEE7B6
:10022000FEE7FEE7590C000851010008F0B480EA2F
:100230000102D40F4200B2EB410F02D2024608463F
:1002400011464A0042D0C30DDDB2C1F3C752AD1A08
:10025000202D35DAC1F3160141F4000204B15242F7
:10026000C5F1200602FA06F12A411044B3EBD05F33
:1002700023D0C4B1012DA0EBC35009DCF0BC4FF07A
:10028000004202EAC352DBB200F5000000F0D5B82C
:10029000400000F1807000EBC350A0F1807040EA94
:1002A000D170490009E0490841EAC071A0EBC35090
:1002B00000F50000400800EBC350F0BC00F0B4B8FB
:1002C0006142012202EB4101001BF6E7F0BC7047DE
:1002D00081F00041AAE780F00040A7E72DE9FE4F3A
:1002E00081EA030404F0004421F0004100944FF03F
:1002F000000B23F0004350EA01045ED052EA0304ED
:100300005BD0C3F30A54C1F30A552C44A4F2F3346E
:100310000194A0FB0254C1F3130141F48011C3F313
:10032000130343F4801301FB024400FB034E840AD1
:10033000970A44EA815447EA8357A4FB0768029569
:100340008D0A05FB07854FEA932C04FB0C54270507
:10035000029D4FEA065847EA1637B5EB08056EEBE3
:10036000070C870E920E47EA811742EA8312A7FB19
:100370000201B6EB0B0164EB00042B0D43EA0C33D6
:100380005E1844EB1C50DA465146E7FB0201C5F308
:1003900013044FEA0B3343EA14534FEA0432019C2F
:1003A00043EA0603A4F10C040294009CCDE900B4D6
:1003B00000F080F803B0BDE8F08F00200146F9E7B7
:1003C00096230022114600F038B800F0004230F0C9
:1003D00000400AD0C10D01F56071C0F3160042EA79
:1003E0000151C20840071143704700200146704781
:1003F00001F0004330B421F0004150EA010206D080
:100400000A0DA2F56072C1F31301002A02DC30BCB0
:1004100000207047440F44EAC104C100E01830BC1A
:1004200000EBC250AFF300800029A8BF7047401C0A
:10043000490008BF20F00100704710B4B0FA80FCFA
:1004400000FA0CF050EA010404BF10BC704749B137
:10045000CCF1200421FA04F411FA0CF118BF0121A7
:1004600021430843A3EB0C01CB1D4FEA00614FEA87
:10047000102042BF002010BC704700EBC350104456
:100480000029A4BF10BC7047401C490008BF20F0E1
:10049000010010BC704710B5141E73F1000408DA97
:1004A000401C41F1000192185B411A4301D120F038
:1004B000010010BD2DE9F04D92469B4611B1B1FAF5
:1004C00081F202E0B0FA80F22032904600F052F859
:1004D00004460F4640EA0A0041EA0B0153465A46D9
:1004E000084313D0114653EA010019D0C8F1400265
:1004F000504600F04EF805460E46504659464246D4
:1005000000F038F8084305D0012004E020463946C1
:10051000BDE8F08D0020054346EAE0762C433743E2
:100520000A986305E40AA0EB08000022FD0A44EAE9
:1005300047540A3002D500200146E9E701051019A9
:100540006941DDE9084500196941BDE8F04DA2E7C0
:10055000064C074D06E0E06840F0010394E8070010
:1005600098471034AC42F6D3FFF7F6FDFC1D0008A7
:100570001C1E0008202A04DB203A00FA02F10020A9
:1005800070479140C2F1200320FA03F319439040D1
:100590007047202A04DB203A21FA02F0002170473C
:1005A00021FA02F3D040C2F12002914008431946DB
:1005B0007047002904D0816841F0010181607047D3
:1005C000816821F0010181607047002904D08168B1
:1005D00041F4807181607047816821F4807181608D
:1005E0007047014600208968490700D501207047FF
:1005F000014600208968090700D5012070470000E6
:1006000010B542680E4B1A400C790B6842EA04227E
:100610001343436082680B4B1A40D1E902432343E2
:100620004C7942EA440213438360C26A22F47002A6
:10063000097C491EC9B242EA0151C16210BD0000E5
:10064000FFFEF0FFFDF7F1FF70B5072609290AD973
:10065000C568A1F10A0404EB4404A640B543A340D5
:100660001D43C56007E0056901EB4104A640B543A1
:10067000A3401D4305611F23072A09D2446B521E64
:1006800002EB820293409C4391400C43446370BD53
:100690000D2A09D2046BD21F02EB820293409C43C5
:1006A00091400C43046370BDC46A0D3A02EB8202B0
:1006B00093409C4391400C43C46270BD816841F0FB
:1006C000080181607047002904D0816841F4A001CD
:1006D00081607047816821F4A00181607047816862
:1006E00041F004018160704738B504460D4620464C
:1006F00000F00EF8A088ADF800008DF8035003203C
:100700008DF802006946206800F056F938BD0000F7
:10071000124A0168914201D104201CE0104A914222
:1007200001D1082017E00F4A914201D1102012E0B8
:100730000D4A914201D120200DE00C4A914201D195
:10074000402008E00A4A914201D1802003E0094A92
:10075000914200D18815012100F0EEB90008014056
:10076000000C01400010014000140140001801403D
:10077000001C014000200140FEE77047002904D022
:10078000016841F001010160704701684FF6FE7297
:10079000114001607047000001684FF6FE72114081
:1007A00001600021016041608160C1603649364AC4
:1007B0000839904204D1486840F00F004860704703
:1007C000314A1432904204D1486840F0F000486049
:1007D00070472D4A2832904204D1486840F4706036
:1007E00048607047284A3C32904204D1486840F43F
:1007F000704048607047244A5032904204D14868A3
:1008000040F47020486070471F4A6432904204D11F
:10081000486840F47000486070471B4A7832904244
:1008200004D1486840F0706048607047174A111F53
:10083000904204D1086840F00F0008607047134AE6
:100840001432904204D1086840F0F000086070470C
:100850000E4A2832904204D1086840F47060086063
:1008600070470A4A3C32904204D1086840F4704014
:1008700008607047054A50329042FAD1086840F447
:100880007020086070470000080002400804024021
:1008900030B5026847F6F0739A430C6A8B682343BD
:1008A000D1E904452C4323438C692343CC6923437A
:1008B0004C6A23438C6A234313430360CA68426033
:1008C0000A6882604968C16030BD70470149C860EC
:1008D000704700000020024070B505464FF43026F6
:1008E000304600F059F8042811D1094C206940F035
:1008F000020020616561206940F0400020613046BF
:1009000000F04AF8216941F6FD721140216170BD85
:100910000020024004200849CA68D20701D0012003
:100920007047CA68520701D502207047C968C906D6
:10093000FBD50320704700000020024002480169F7
:1009400041F080010161704700200240F0B5064689
:100950000D464FF40057384600F01EF804280CD11D
:10096000064C206940F0010020613580384600F0D7
:1009700013F82169BA1E11402161F0BD0020024028
:1009800003480249416003494160704723016745BC
:1009900000200240AB89EFCD00B50346FFF7BAFF58
:1009A00002E0FFF7B7FF5B1E012801D1002BF8D151
:1009B000002B00D1052000BD2DE9F0410022CC78AC
:1009C00004F00F03E40601D58C7823430C784FF034
:1009D0000F0714F0FF0F4FF0010C1CD005680CFA44
:1009E00002F40E882640A64211D1960007FA06F8B6
:1009F00025EA080503FA06F848EA0505CE78282E08
:100A000002D0482E02D002E0446100E00461521C92
:100A1000082AE4D305600A88FF2A1ED94568002207
:100A200002F108060CFA06F40E882640A64210D100
:100A3000960007FA06F825EA080503FA06F848EAD8
:100A40000505CE78282E00D14461CE78482E00D1FD
:100A50000461521C082AE3D34560BDE8F0810246D8
:100A6000002092680A4200D00120704706A30020AF
:100A7000104C211F1A5C22800A885206FCD5401CAB
:100A8000C0B22A28F6D3FEE70D0A456E74657220BF
:100A9000486172644661756C745F48616E646C6530
:100AA000722C2053797374656D2048616C742E0D1F
:100AB0000A0000000438014002494CF6CC400860AE
:100AC0007047000000300040AFF3008002494AF652
:100AD000AA200860704700000030004001494860CB
:100AE00070470000003000400149886070470000F6
:100AF00000300040014908607047000000300040AD
:100B00007047FEE770470000024908430249086049
:100B1000704700000000FA050CED00E0054A0029CE
:100B200003D051690143516170475169814351615B
:100B30007047000000100240054A002903D0916967
:100B40000143916170479169814391617047000051
:100B50000010024008B501210820FFF7EDFF032037
:100B60008DF8020010208DF803000420ADF800007D
:100B700069460248FFF720FF08BD0000000C014055
:100B8000AFF300800CB50022019200922748016863
:100B900041F4803101604FF4A063016801F4003139
:100BA00000910199491C0191009911B9019999424B
:100BB000F3D10168890302D50121009100E0009280
:100BC0000099012930D11A490A6842F010020A60DE
:100BD0000A6822F003020A600A6842F002020A6010
:100BE0004168416041684160416841F48061416011
:100BF000416821F47C114160416841F4E811416091
:100C0000016841F08071016001688901FCD541688B
:100C100021F003014160416841F0020141604168F7
:100C2000C1F381010229FAD10CBD0000001002407D
:100C30000020024010B5FFF7D9FA00F0F1FF18B11B
:100C400004494FF080500860BDE810400020FFF7D5
:100C5000D4BA000004ED00E010B50F48016841F07F
:100C60000101016041680D4A1140416001680C4A70
:100C700011400160016821F480210160416821F484
:100C8000FE0141604FF41F018160FFF779FF0549C4
:100C90004FF00060086010BD001002400000FFF837
:100CA000FFFFF6FE08ED00E07047FEE702E008C82F
:100CB000121F08C1002AFAD170477047002001E0D6
:100CC00001C1121F002AFBD17047000070B501243A
:100CD000064E074D06EB840105EB4400022200F0AE
:100CE00003F9641CE4B21D2CF4D370BD6000002035
:100CF0000030030870B50024064E074D06EB840152
:100D000005EB4400022200F007F9641CE4B21D2C3C
:100D1000F4D370BD600000200030030810B500F06F
:100D200078F800F029FB00F005F8BDE8104000F06D
:100D300025B8000010B502220749084800F0D4F891
:100D400005480078FF2803D0BDE81040FFF7BEBF7C
:100D5000BDE81040FFF7CEBF0000002000300308C0
:100D600008B500F057FF00900521684600F0FEFD31
:100D700000F01CF8FFF7A8FEF6E700001FB5002002
:100D80000649CDE9011006220346009203904FF474
:100D9000007203A1044800F0C3FE1FBDD400002070
:100DA000494E505554000000610D000810B500F088
:100DB00095FA064800F028FB0448183000F054FB70
:100DC00002480C388168491D816010BDE000002098
:100DD0000D4B8118994201D90320704712B10123AC
:100DE000002109E0002070470378FF2B01D002208A
:100DF00070470023401C491C9142F5D3012B01D0C0
:100E00000120704700207047000004086FF30A00BB
:100E1000704710B54FF44070FFF776FE00F03CF8D5
:100E2000BDE81040AFF3008038B501218020FFF706
:100E300083FE012000F03CF8022000F039F8032086
:100E400000F036F8042000F033F803208DF802009B
:100E500010208DF80300C001ADF800000D4C69466C
:100E60002046FFF7A9FD8021ADF800106946204615
:100E7000FFF7A2FDA115ADF8001069462046FFF767
:100E80009BFD6115ADF8001069462046FFF794FD03
:100E900038BD0000001C014010B5FFF705FFFFF74B
:100EA0002FFEFFF757FEBDE81040FFF766BC0000BD
:100EB000401EC0B20B49002808D001280AD00228E1
:100EC0000BD0032801D14815086070474FF400602B
:100ED000086070478020086070474FF48070086099
:100EE00070470000101C014010B50A4C8318A34243
:100EF00001D9012010BD0AB1002306E0012010BD78
:100F000010F8014B01F8014B5B1C9342F8D3002011
:100F100010BD0000000004082DE9F0410746884696
:100F2000164604252549B819884202D90120BDE892
:100F3000F0811EB1F00703D00120F8E70020F6E7AA
:100F4000324641463846FFF743FF044654B101207C
:100F500080F31088FFF714FD3520FFF7B7FC022C53
:100F600002D00BE00020E2E73846FFF74FFFFFF723
:100F7000B3FC0546042D01D00220D8E700240EE082
:100F800018F8140008EB4401497840EA012138467A
:100F9000FFF7DCFC0546042D04D1BF1C641CB4EB38
:100FA000560FEDD3FFF7CAFC002080F31088042D04
:100FB00001D00220BBE70020B9E7000000000408D0
:100FC00030B591B001210846FFF7A8FD484D2846ED
:100FD000FFF7E2FB47480190474802900024039442
:100FE0003C210491059480210691490007918800D5
:100FF00008902020099000020A900B9401A928462D
:10100000FFF746FC01212846FFF7B8FB0121480203
:10101000FFF792FD00213948FFF766FB00213848B1
:10102000FFF762FB00213748FFF75EFB00213648DF
:10103000FFF75AFB00213548FFF756FB00213448E3
:10104000FFF752FB0C9401208DF834008DF8350029
:101050004FF460200E900F9406208DF84000254C30
:101060000CA94C3C2046FFF7CBFA052301220621B0
:101070002046FFF7E9FA0523022207212046FFF761
:10108000E3FA0523032208212046FFF7DDFA0523B2
:10109000042209212046FFF7D7FA05231A460E211C
:1010A0002046FFF7D1FA052306220F212046FFF73D
:1010B000CBFA01212046FFF788FA01212046FFF7ED
:1010C00078FA2046FFF7FAFA2046FFF791FA00284F
:1010D000FAD12046FFF703FB2046FFF782FA0028EB
:1010E000FAD101212046FFF7EEFA11B030BD000021
:1010F000080002404C24014044010020A41D0008C7
:10110000AC1D0008B41D0008BC1D0008E41D00084B
:10111000EC1D000830B591B001210220FFF7FEFC64
:10112000484D2846FFF738FB474801904748029052
:10113000002403943C2104910594802106914900E8
:101140000791880008902020099000020A900B94D3
:1011500001A92846FFF79CFB01212846FFF70EFB5B
:101160000121C803FFF7E8FC00213948FFF7BCFA6A
:1011700000213848FFF7B8FA00213748FFF7B4FAE2
:1011800000213648FFF7B0FA00213548FFF7ACFAE6
:1011900000213448FFF7A8FA0C9401208DF83400A0
:1011A0008DF835004FF460200E900F9406208DF8D6
:1011B0004000254C0CA94C3C2046FFF721FA0523A2
:1011C000012200212046FFF73FFA052302220121D8
:1011D0002046FFF739FA052303220A212046FFF7AC
:1011E00033FA052304220B212046FFF72DFA0523AD
:1011F0001A460C212046FFF727FA052306220D2167
:101200002046FFF721FA01212046FFF7DEF90121F0
:101210002046FFF7CEF92046FFF750FA2046FFF7A9
:10122000E7F90028FAD12046FFF759FA2046FFF7E0
:10123000D8F90028FAD101212046FFF744FA11B06D
:1012400030BD0000580402404C3C0140BC0100206D
:10125000941D00089C1D0008C41D0008CC1D00083A
:10126000D41D0008DC1D000800B51A49002801D073
:1012700000200870087808B1002000BD0120087027
:10128000154B991D184600F051F808B1012000BD1A
:10129000D91D581C00F04AF808B1022000BD0E49C3
:1012A000981C083100F042F808B1032000BD0A493B
:1012B000D81C093100F03AF808B1042000BD0649F5
:1012C000181D0A3100F032F808B1052000BD0020D9
:1012D00000BD0000010000201001002070B5104D7D
:1012E00004212846FFF7BBFB0E4C20700221284644
:1012F000FFF7B5FBE07020210B48FFF7B0FB6070F3
:1013000008212846FFF7ABFBA07001212846FFF714
:10131000A6FB20710120FFF7A7FFE07270BD00005F
:101320000018014010010020000801400246002082
:101330001278002A02D0012A06D103E00A78521C52
:101340000A7001E000220A7009780A2900D90120F8
:10135000704770B505460C4645F25550FFF7CAFB7D
:101360002846FFF7BBFB2046FFF7BEFBFFF7AEFBAF
:10137000BDE87040FFF7A0BB10B5FFF721FEFFF7F7
:10138000C9FE40F271210420FFF7E3FF00F008F8E6
:10139000BDE8104010210148FFF7A6B9F41D000870
:1013A00038B501216420FFF7C7FB03208DF8020048
:1013B00048208DF803000420ADF80000104C694669
:1013C0002046FFF7F9FA0221ADF8001069462046E1
:1013D000FFF7F2FA2021ADF8001069460948FFF73F
:1013E000EBFA0821ADF8001069462046FFF7E4FA51
:1013F0000121ADF8001069462046FFF7DDFA38BD3F
:1014000000180140000801402DE9F04106464FF068
:1014100000080025114F002404EB440007EB800076
:1014200030F81500FEF7CCFF4146FEF7FFFE804680
:10143000641C0A2CF0DB4046FEF7C7FF084A094B44
:10144000FEF74CFFFEF7D4FF46F825004FF00008EA
:101450006D1C062DDFDBBDE8F0810000440100209B
:101460009A9999999999B93F2DE9F04106464FF01B
:1014700000080025114F002404EB440007EB800016
:1014800030F81500FEF79CFF4146FEF7CFFE804680
:10149000641C0A2CF0DB4046FEF797FF084A094B14
:1014A000FEF71CFFFEF7A4FF46F825004FF00008EA
:1014B0006D1C062DDFDBBDE8F0810000BC010020C3
:1014C0009A9999999999B93F10B5012080F310889C
:1014D000FFF724FC00F08CFA002010BD70B5044624
:1014E0000B4D28684460E868844206D22968686B1E
:1014F000091DBDE8704000F0ABB92968286B091DD3
:1015000000F0A6F9A86A844200D2AC6270BD000067
:101510000400002070B5002908D00D467DB14C2094
:1015200000F00EF9044634B1256309E0800000F0B4
:1015300007F90546F2E7284600F0DEF900E000244E
:10154000204670BD70B5124E124D1CE000F07AFAC4
:10155000306820B1002400F0C5FBA4B901E00124EB
:10156000F9E700F099F9F068C468201D00F050F91F
:10157000A868401EA8606868401E686000F0A8F96E
:10158000204600F009F868680028DFD170BD00002F
:10159000C00300200400002010B50446206B00F0BA
:1015A000ABF92046BDE8104000F0A6B94FF4C841A1
:1015B0000F48420706D0C01D20F007000C49411A11
:1015C000C1F5C8410B4A106000235360014408393B
:1015D00021F00701103A11604B600B600B1A436059
:1015E00001604068906050604FF00040D0607047EC
:1015F000E803002058000020044CFFF7A3FF2068F8
:101600000128FAD900F0A6F9F7E70000E40200206B
:1016100070B504461546002023180A5C83F8342070
:101620000A5C12B1401C1028F6D3002684F84360EF
:10163000082D00D30725E562201D00F006F904F10E
:10164000180000F002F92461C5F10800A06164628D
:10165000666484F8486070BD70B50024124D04EBD8
:10166000840005EB800000F0E5F8641C082CF6D33C
:101670000D48A03000F0DEF80B48B43000F0DAF886
:101680000948C83000F0D6F80748DC3000F0D2F83E
:101690000548F03000F0CEF803490448A03101635A
:1016A0001431416370BD0000E402002004000020FA
:1016B00030B5134900E011460A688242FBD34B68FB
:1016C0005C18844203D140681844486008460D689D
:1016D00044682318AB420DD1094B103B1B689A425A
:1016E00006D05268224442600A681268026002E032
:1016F000036000E00260814200D0086030BD00005D
:10170000580000200748016B0968002905D0016BCB
:10171000C968C9684968816270474FF0FF318162CA
:10172000704700000400002004484068401C02D0BC
:10173000FEF75CFDFEE7FEF759FDFEE73C000020EA
:101740002DE9F0410546002600F07CF9294F386864
:1017500008B9FFF72BFFF868054240D165B108359D
:10176000680709D005F00700C0F1080005446807C4
:1017700002D0FEF73BFDFEE78DB3786885422ED898
:101780001C4910310846046801E02146044660689F
:10179000A84202D220680028F7D1386884421ED0BF
:1017A0000E680836206808606068411B102909D956
:1017B0006019420702D0FEF719FDFEE7416065603F
:1017C000FFF776FF61687868401A7860BA689042DF
:1017D00000D2B860F868014361600020206000F02A
:1017E00081FA700702D0FEF701FDFEE73046BDE842
:1017F000F08100004800002020384FF08073C36162
:1018000081610249416140F8202970472917000889
:101810000169D0E901329A60D0E901235A604A682F
:10182000824201D182684A60002202610868401E3B
:101830000860704700F1080141604FF0FF3282609C
:10184000C1600161002101607047002101617047A2
:1018500030B50C68621C02D000F1080202E0026997
:1018600004E01A4653681D68A542FAD953684B60D4
:1018700099608A60516008610168491C016030BD4F
:1018800042684A6093688B60936859609160086110
:101890000168491C0160704710B5FEF7A7FC0A48B3
:1018A0004168491C4160BFF34F8FBFF36F8F4068A1
:1018B000012807D10548006810F0FF0F02D0FEF79D
:1018C00095FCFEE710BD00003C00002004ED00E0A8
:1018D00010B508494868002807D0401E4860002815
:1018E00006D1BDE81040FEF788BCFEF77FFCFEE79E
:1018F00010BD00003C00002070B500281DD0083845
:1019000004460E4D6068E968084202D1FEF76EFC9D
:10191000FEE7226812B1FEF769FCFEE788436060CB
:1019200000F090F860686968084468602046FFF736
:10193000BFFEBDE8704000F0D5B970BD4800002082
:101940004FF0E0200249416107210161704700002A
:101950003F19010004494FF080500860BFF34F8FDA
:10196000BFF36F8F7047000004ED00E070B50546CF
:101970000C460022002D06D044B11C4EF06A40B146
:10198000FEF734FCFEE7FEF731FCFEE7FEF72EFC27
:10199000FEE700F057F8F0682B681C44834205D935
:1019A000A34208D9844206D9012204E0A34201D807
:1019B000844200D901222C607AB13068001DFFF703
:1019C00027FF38B9306890F82C1001208840316921
:1019D000814331612046FFF781FD00F083F9002843
:1019E00003D1BDE87040FFF7B5BF70BD0400002013
:1019F0001FB50024009401940294234680220DA177
:101A00000E48039400F08CF8012804D000280FD170
:101A1000FEF7ECFBFEE7FEF7E9FB09484FF0FF316C
:101A2000816201214161C460BDE81F4000F03EB801
:101A30001FBD000049444C4500000000F915000896
:101A4000040000200248C16A491CC16270470000BE
:101A50000400002010B5134AD06A002802D00120EB
:101A6000D06110BD0020D0611069B0FA80F0C0F1E3
:101A70001F000D4900EB800051F8203073B101EBDD
:101A8000800041684968416000F10803994201D132
:101A9000496841604068C068106010BDFEF7A6FB51
:101AA000FEE7000004000020E40200201CB51949F4
:101AB00008780190FF200870087800909DF80000D9
:101AC000154A00F0100010700720906006E0906842
:101AD000401E90609DF80000400000909DF80000BE
:101AE0000006F4D4107A000200F4E06090600198DF
:101AF00008700A48016841F470010160016841F012
:101B000070410160FFF71CFF00205060FEF73CFBB6
:101B100000201CBD00E400E03C00002020ED00E0BF
:101B20002DE9FF4F81B08246DDE90E5910999046AC
:101B30009B46BAF1000F04D0082D05D3FEF756FBE3
:101B4000FEE7FEF753FBFEE74046FFF7E3FC0446E3
:101B50002E4F7CB3216BA8F1010001EB800020F037
:101B60000706700702D0FEF741FBFEE7CDF80080C4
:101B70002A462046119B0299FFF74AFD5A465146D4
:101B80003046FFF739FE2060B9F1000F01D0C9F8E7
:101B90000040FFF781FEB868401CB860386810B19B
:101BA000786940B10CE03C60B868012808D1FFF7C3
:101BB00053FD05E019E03868C06AA84200D83C60CF
:101BC000786A401C7862E06A01213A6981401143D9
:101BD000396100EB80010E4800EB8100211DFFF709
:101BE0004FFE0124FFF774FE01E04FF0FF34012C9B
:101BF00007D1786928B13868C06AA84201D2FFF7D6
:101C0000A9FE05B02046BDE8F08F000004000020CA
:101C1000E40200200148C068704700000400002072
:101C20002DE9F04100252D4FF86A002808D0B86949
:101C3000401CB861F86900B101252846BDE8F08173
:101C4000F868401CF860FE6876B9386B006810B11F
:101C5000FEF7CCFAFEE7386B796B39637863386A44
:101C6000401C3862FFF74EFDB86ADFF87480864288
:101C70000DD3386B006838B1386BC068C4686068D1
:101C800086420ED2B86202E04FF0FF30B862386888
:101C9000C06A00EB800058F820000128CAD901254D
:101CA000C8E7201DFFF7B4FDA06A18B104F11800C1
:101CB000FFF7AEFDE06A01213A69814011433961C5
:101CC00000EB800008EB8000211DFFF7D9FDE06AE2
:101CD0003968C96A8842CCD30125CAE704000020CC
:101CE000E40200202DE9F0410027284DE86A002891
:101CF00007D0FFF7D1FDE86A401EE862E86A18B134
:101D00003EE0FEF773FAFEE7A868C8B3DFF880800C
:101D100001261EE0D8F80C00C46804F11800FFF793
:101D200077FD201DFFF774FDE06A2A6906FA00F1CD
:101D300011432961164900EB8000C83901EB80008E
:101D4000211DFFF79DFDE06A2968C96A884200D31A
:101D5000EE61D8F800000028DCD1A86938B909E0A4
:101D6000FFF75EFF00B1EE61A869401EA861A86997
:101D70000028F5D1E869012802D10127FFF7EAFD23
:101D8000FFF7A6FD3846BDE8F08100000400002002
:101D9000AC030020000801400100000000080140E1
:101DA000020000000008014040000000000801405F
:101DB00080000000000C014001000000000C014008
:101DC000020000000010014001000000001001406E
:101DD000020000000010014004000000001001405B
:101DE0000800000000100140100000000010014039
:101DF0002000000000140140800000001C1E0008AC
:101E00000000002060000000AC0C00087C1E0008F0
:101E100060000020886B0000BC0C0008000000007F
:101E200000000000000000000000000000000000B2
:101E300000000000000000000000000000000000A2
:101E40000000000000000000000000000000000092
:101E5000000000000000000000000000AAAAAAAADA
:101E60000000000000000000000000000000000072
:0C1E700000000000000000000000000066
:04000005080001519D
:00000001FF
