:020000040800F2
:1000000088840020ED01000871190008AD1800086F
:100010006F19000861100008DD2C000800000000C6
:10002000000000000000000000000000490100087E
:1000300041160008000000008D010008D11F0008D3
:1000400007020008ED190008070200084D1D00080E
:10005000070200080702000807020008070200085C
:10006000070200080702000807020008070200084C
:10007000070200080702000807020008070200083C
:10008000070200080702000807020008070200082C
:10009000712C000807020008070200080702000888
:1000A000070200080702000807020008070200080C
:1000B0004922000807020008C122000807020008C0
:1000C00007020008070200080702000807020008EC
:1000D0000702000807020008112800087D28000810
:1000E00007020008070200080702000807020008CC
:1000F000B1250008070200082525000807020008AE
:1001000007020008070200080702000807020008AB
:100110000702000807020008952300085D24000874
:10012000070200080702000807020008070200088B
:10013000DFF810D000F01EFB0048004739430008EC
:10014000AFF3008088840020204B19680868B0E86D
:10015000F00F80F30988BFF36F8F4FF0000080F33A
:1001600011884EF00D0E7047000000000648006830
:10017000006880F3088862B661B6BFF34F8FBFF3A3
:100180006F8F00DF00BF00BF08ED00E0EFF30980D4
:10019000BFF36F8F0D4B1A6820E9F00F106008B5A0
:1001A0004FF0100080F3118804F08EFC4FF0000037
:1001B00080F31188BDE8084019680868B0E8F00FBE
:1001C00080F30988BFF36F8F704700BFA001002044
:1001D000EFF311804FF0100181F31188704780F325
:1001E00011887047EFF3058070470000064880478C
:1001F00006480047FEE7FEE7FEE7FEE7FEE7FEE70C
:10020000FEE7FEE7FEE7FEE7F51F00083101000804
:10021000F0B480EA0102D40F4200B2EB410F02D2E7
:100220000246084611464A0042D0C30DDDB2C1F372
:10023000C752AD1A202D35DAC1F3160141F4000280
:1002400004B15242C5F1200602FA06F12A411044D7
:10025000B3EBD05F23D0C4B1012DA0EBC35009DCB8
:10026000F0BC4FF0004202EAC352DBB200F50000DE
:1002700000F0A3B9400000F1807000EBC350A0F182
:10028000807040EAD170490009E0490841EAC07134
:10029000A0EBC35000F50000400800EBC350F0BCD9
:1002A00000F082B96142012202EB4101001BF6E736
:1002B000F0BC704781F00041AAE780F00040A7E75A
:1002C00080EA010210B502F00043400022D04A004B
:1002D0001FD0010E01EB1261C0F35600C2F35602AB
:1002E00040F4000042F40002A0FB022000047F3929
:1002F000140400D0401C50EA124001D44000491EB2
:10030000C2B20C0604EBD010401C4008802A02D078
:1003100003E0002010BD20F00100002900DA0020D9
:10032000184310BD30B480EA010202F0004530F0FD
:10033000004221F0004013D090B1C30DD40DC2F3A0
:100340001601C0F31600E41A41F4000140F4000263
:100350007D34914201D3641C00E04900002C02DA94
:1003600030BC002070474FF400000023914201D3BD
:10037000891A034340084FEA4101F7D151B1914234
:1003800002D14FF0004105E002D24FF0010101E03F
:100390006FF0010103EBC450284430BC00F004B9F5
:1003A0002DE9FE4F81EA030404F0004421F00041EE
:1003B00000944FF0000B23F0004350EA01045ED09C
:1003C00052EA03045BD0C3F30A54C1F30A552C4428
:1003D000A4F2F3340194A0FB0254C1F3130141F4DD
:1003E0008011C3F3130343F4801301FB024400FBA9
:1003F000034E840A970A44EA815447EA8357A4FBD0
:10040000076802958D0A05FB07854FEA932C04FBCC
:100410000C542705029D4FEA065847EA1637B5EBFC
:1004200008056EEB070C870E920E47EA811742EA29
:100430008312A7FB0201B6EB0B0164EB00042B0D4A
:1004400043EA0C335E1844EB1C50DA465146E7FB96
:100450000201C5F313044FEA0B3343EA14534FEA86
:100460000432019C43EA0603A4F10C040294009CAC
:10047000CDE900B400F0DEF803B0BDE8F08F002055
:100480000146F9E7C10F80EAE0700844CA079623E5
:10049000002100F092B896230022114600F08DB89A
:1004A0000EB540F2334102910021CDE900110A4618
:1004B0000B4600F0BFF803B000BD20F00040C10DB6
:1004C000C0F3160040F400007F2901DA00207047D5
:1004D000962903DCC1F19601C840704796398840DF
:1004E0007047C1F30A5210B5C1F3130140F2FF3354
:1004F00041F480119A4201DA002010BD40F23343EA
:100500009A42A2F2334203DC524200F03DF810BDA1
:10051000904010BD00F0004230F000400AD0C10D04
:1005200001F56071C0F3160042EA0151C2084007AC
:100530001143704700200146704701F0004330B47A
:1005400021F0004150EA010206D00A0DA2F56072C6
:10055000C1F31301002A02DC30BC00207047440FB5
:1005600044EAC104C100E01830BC00EBC25000F006
:100570001BB80000002801DBC0F10040002901DBAE
:10058000C1F1004188427047202A04DB203A21FA59
:1005900002F00021704721FA02F3D040C2F120029C
:1005A00091400843194670470029A8BF7047401C76
:1005B000490008BF20F00100704710B4B0FA80FC79
:1005C00000FA0CF050EA010404BF10BC704749B1B6
:1005D000CCF1200421FA04F411FA0CF118BF012126
:1005E00021430843A3EB0C01CB1D4FEA00614FEA06
:1005F000102042BF002010BC704700EBC3501044D5
:100600000029A4BF10BC7047401C490008BF20F05F
:10061000010010BC704710B5141E73F1000408DA15
:10062000401C41F1000192185B411A4301D120F0B6
:10063000010010BD2DE9F04D92469B4611B1B1FA73
:1006400081F202E0B0FA80F22032904600F0A4F885
:1006500004460F4640EA0A0041EA0B0153465A4657
:10066000084313D0114653EA010019D0C8F14002E3
:100670005046FFF789FF05460E465046594642460A
:1006800000F08AF8084305D0012004E020463946EE
:10069000BDE8F08D0020054346EAE0762C43374361
:1006A0000A986305E40AA0EB08000022FD0A44EA68
:1006B00047540A3002D500200146E9E70105101928
:1006C0006941DDE9084500196941BDE8F04DA2E73F
:1006D0002DE9F04D00231A461B1A8A4103DB002046
:1006E0000146BDE8F08DC1F30A52C1F3130141F494
:1006F00080154FF0000BD10702D100186D41521E3A
:100700000027044640F2FF11384601EB620A3E46DC
:100710008046024600204FF48011FFF735FFC219D2
:100720007141BB1846EB0100B4EB030C75EB000CF8
:1007300004D3E41A65EB000517460E46241908F1A8
:1007400001006D4180463428E3DDF91946EB0600CF
:10075000091BA84103D24FF0FF32134601E00022EB
:1007600013461BEB070046EB0A51BDE8F04DFFF7BF
:1007700052BF0000064C074D06E0E06840F0010360
:1007800094E8070098471034AC42F6D3FFF7D4FC46
:100790001852000838520008202A04DB203A00FAD8
:1007A00002F1002070479140C2F1200320FA03F3C8
:1007B00019439040704770B58C1810F8015B15F024
:1007C000070301D110F8013B2A1106D110F8012BC3
:1007D00003E010F8016B01F8016B5B1EF9D12B07E8
:1007E00005D40023521E0DD401F8013BFAE710F89E
:1007F000013BCB1A921C03E013F8015B01F8015B8B
:10080000521EF9D5A142D8D3002070BD002904D0D2
:10081000816841F0010181607047816821F0010128
:1008200081607047002904D0816841F48071816043
:100830007047816821F48071816070470146002013
:100840008968490700D50120704701460020896862
:10085000090700D50120704710B542680E4B1A40B9
:100860000C790B6842EA04221343436082680B4B05
:100870001A40D1E9024323434C7942EA440213432C
:100880008360C26A22F47002097C491EC9B242EA3E
:100890000151C16210BD0000FFFEF0FFFDF7F1FF46
:1008A00070B5072609290AD9C568A1F10A0404EB25
:1008B0004404A640B543A3401D43C56007E0056955
:1008C00001EB4104A640B543A3401D4305611F232E
:1008D000072A09D2446B521E02EB820293409C43CA
:1008E00091400C43446370BD0D2A09D2046BD21FA2
:1008F00002EB820293409C4391400C43046370BD21
:10090000C46A0D3A02EB820293409C4391400C432F
:10091000C46270BD816841F00801816070470029A0
:1009200004D0816841F4A00181607047816821F49E
:10093000A00181607047816841F0040181607047C7
:100940002DE9F05F0646DDF828A089469046002490
:10095000A6F2B270822802D30120BDE8F09F40F2D7
:10096000B275284FDFF8A0B008E0284600F0E8FF95
:1009700008B13C4400E05C446D1CADB2B542F4D318
:10098000A9F1010909F0FF070025DFF88090DFF8E1
:1009900080B00FE019F8050040F2A321484304EBB2
:1009A000C014304600F0CCFF10B1012D00D15C44E2
:1009B0006D1CADB2BD42EDD3A8F1010840F2A320F9
:1009C00008FB00F804EBC810C3EB4311C1EB032193
:1009D00000EB0110CAEB0A1100EB81000B994418DF
:1009E00001214FF0C05001F037F8012001F010F85C
:1009F00001F0ECF8204601F04DFA01F07BFA0020FE
:100A0000ABE700000085E2018033E1010C520008F1
:100A10008051010030B505460C46002D0BD0022C4C
:100A200009D9A01EC1B2284600F024FF291901F8F7
:100A3000020D000A487030BD10B5012001F028F801
:100A4000BDE81040002001F023B8000008B50349BC
:100A5000084400900098008808BD0000006C004029
:100A600008B5034A104400900098016008BD0000DA
:100A7000006C00402DE9F04788B00746DDE910A87A
:100A8000DDF848900E4614461D460121480600F048
:100A9000E3FF8DF818408DF819508DF81760ADF808
:100AA00014A000248DF81A4001258DF81B500794DE
:100AB0008DF8164005A9384600F00AFC8DF80A406A
:100AC0008DF80B408DF80C50ADF80040ADF80240A9
:100AD000ADF80440ADF80640ADF808408DF80D5073
:100AE000684600F01BFB01220221384600F0E6FBBD
:100AF00014208DF810008DF811808DF812908DF86B
:100B0000135004A800F036FF08B0BDE8F08738B5F0
:100B100004460D46204600F013F8A088ADF800000A
:100B20008DF8035003208DF802006946206800F01C
:100B30003FFE38BD8188006889B200F08CBE00009D
:100B4000124A0168914201D104201CE0104A9142EE
:100B500001D1082017E00F4A914201D1102012E084
:100B60000D4A914201D120200DE00C4A914201D161
:100B7000402008E00A4A914201D1802003E0094A5E
:100B8000914200D18815012100F074BF0008014096
:100B9000000C014000100140001401400018014009
:100BA000001C0140002001402DE9F04F87B0824633
:100BB000DDE911B8109F894616461D46504600F0E3
:100BC000E3F81DB128212868FFF7A1FF1FB12821F4
:100BD0003868FFF79CFFBBF1000F03D0282128687D
:100BE000FFF795FFB8F1000F04D02821D8F80000D6
:100BF000FFF78DFFADF810600026ADF81260ADF87C
:100C00001490ADF8166004A9504601F0B3FD4FF002
:100C1000010985B144F00204ADF80460A888ADF87C
:100C20000600ADF80890ADF80A60ADF80C6001A9B7
:100C3000504601F0EFFC8FB144F004040420ADF8FD
:100C40000400A888ADF80600ADF80890ADF80A6079
:100C5000ADF80C6001A9504601F0DCFCBBF1000FBF
:100C600011D044F008040820ADF80400A888ADF8BD
:100C70000600ADF80890ADF80A60ADF80C6001A967
:100C8000504601F0C7FCB8F1000F11D044F0100439
:100C90000C20ADF80400A888ADF80600ADF8089067
:100CA000ADF80A60ADF80C6001A9504601F0B2FC45
:100CB00044F001010122504601F0F2FC01215046AE
:100CC00001F08FFC1398FF2816D01498FF2813D03A
:100CD000504601F017FDDDE9131200F046F8084810
:100CE000824502D00748824506D1504601F09CFA61
:100CF000DDE9131200F039F807B0BDE8F08F00000D
:100D0000002C0140003401402DE9FF4180460A9F3C
:100D10000C4616461D46404600F036F8ADF8084031
:100D2000ADF804600021ADF80610ADF80A1001A975
:100D3000404601F01FFD01221146404601F0B0FC83
:100D40000121404601F04DFC404601F0DBFC8DF8EE
:100D500000008DF801508DF8027001208DF803001D
:100D6000684600F007FEBDE8FF8108B58DF8000079
:100D70008DF801108DF8022001208DF803006846DF
:100D800000F0F8FD08BD00003149884203D101217F
:100D9000C01400F06FBEB0F1804F06D02D498842DC
:100DA00007D10121022000F057BE0121084600F0C2
:100DB00053BE2949884203D10121042000F04CBED2
:100DC0002649884203D10121082000F045BE24496C
:100DD000884203D10121102000F03EBE2149884203
:100DE00003D10121202000F037BE1F49884203D1E2
:100DF0000121401400F03EBE1C49884203D101216C
:100E0000C80400F037BE1A49884203D10121080501
:100E100000F030BE1749884203D10121480500F097
:100E200029BE1549884203D10121402000F014BE9B
:100E30001249884203D10121802000F00DBE1049E3
:100E4000884203D10121801500F006BE70470000E2
:100E5000002C01400004004000080040000C00404D
:100E6000001000400014004000340140004C0140DC
:100E7000005001400054014000180040001C004098
:100E80000020004030B58BB004462078002829D0DF
:100E90000121022000F0D2FD606800F035FBA0685F
:100EA000001D00906078002508B30295A06801F04D
:100EB000CBFD0190A06801F06BFE039004958020AB
:100EC00005900695079508954FF4405009900A95AE
:100ED0006946606800F097FB0121606800F006FB3E
:100EE0000BB030BD0121084600F0A8FDD4E710206A
:100EF0000290A06801F0D6FD0190A06801F06EFE9E
:100F00000390DBE72DE9F04385B00646DDE90C7878
:100F10000C4615469946304600F058F81CB1182189
:100F20002046FFF7F4FD1DB104212846FFF7EFFD31
:100F3000CDF800900020ADF80400ADF80600ADF843
:100F40000800ADF80C000C20ADF80A0069463046E8
:100F500001F01CFDDFF87090FF2F20D0B8F1FF0FDB
:100F60001DD0304601F060FE8DF810008DF8117034
:100F70008DF8128001208DF8130004A800F0FAFC0F
:100F80004E4506D0012240F22441304601F0E2FCF9
:100F900005E0012240F22551304601F0DBFC4E45D0
:100FA0000BD024B101228021304601F0A9FC25B1EB
:100FB00001224021304601F0A3FC0121304601F01E
:100FC00093FC05B0BDE8F083005000401149884211
:100FD00003D10121880300F04DBD0F49884203D1A0
:100FE0000121480400F038BD0C49884203D1012199
:100FF000880400F031BD0A49884203D10121C804A8
:1010000000F02ABD0749884203D10121080500F0FC
:1010100023BD7047003801400044004000480040B4
:10102000004C00400050004070B504460D46164686
:10103000606800F0E5FA0028FAD10021606800F04D
:1010400055FAD4E90301084300F044FA6068C5602A
:10105000606846606068BDE87040012100F046BAF3
:10106000FEE700000A4A914202D1002181617047E7
:10107000C1F313028B0101D5C26070474B0101D54A
:1010800002617047090101D5826070474260704774
:101090007000F03030B5082310240422B1F5007F31
:1010A00033D011DC20292AD007DC012922D00429E1
:1010B00023D0082900D1C46030BD402921D0B1F52A
:1010C000807FF9D1426030BD0025B1F5004F20D0BE
:1010D00008DCB1F5806F1AD0B1F5006FF3D18561EE
:1010E000426030BDB1F5803F0DD0B1F5003FF8D181
:1010F000446030BD0849816030BDC36030BD0361CC
:1011000030BD046130BD436030BD426030BD4260DF
:1011100030BD8561426030BD01010100F0B5827AC9
:1011200001219140304C226842F0010222602E4D94
:101130001C352A688A432A602B4A067B0C322B4BCB
:10114000002E14D116688E4316604688C78846EA7A
:101150000746877A03EBC707C7F840660688878883
:1011600046EA0746877A03EBC707C7F84466067B5B
:10117000012E14D116680E4316604288068842EA92
:101180000642867A03EBC606C6F84026C2888688E1
:1011900042EA0642867A03EBC603C3F84426124AA3
:1011A000C37A121D3BB113680B4313600E4A0389C7
:1011B000143223B106E013688B431360F6E713681B
:1011C0008B4313600389012B02D113680B43136017
:1011D000407B012802D1286808432860206820F05D
:1011E00001002060F0BD000000660040006000408B
:1011F0000246002053690B425DD0B1F5807F4AD092
:1012000016DC082937D009DC01292CD002292ED080
:10121000042950D1D068082100F01DB910292ED022
:10122000202930D0402946D11069102100F013B98F
:10123000B1F5004F3BD00CDCB1F5007F2FD0B1F5FC
:10124000806F30D0B1F5006F35D19069702100F01A
:1012500002B9B1F5803F1AD0B1F5003F2BD15068EB
:10126000102100F0F8B89068134900F0F4B8D06885
:10127000032100F0F0B8D068102100F0ECB810693C
:10128000032100F0E8B81069082100F0E4B85068C4
:10129000082100F0E0B89069012100F0DCB8906905
:1012A000022100F0D8B89069042100F0D4B8506849
:1012B000042100F0D0B8704701010100002A03D0DA
:1012C00042690A434261704742698A4342617047FA
:1012D00010B50022036823F002030360036843F0A3
:1012E000010303604FF6FF7300E0521C4468E407FB
:1012F00001D19A42F9D14268D2073ED08A79012AB7
:101300003DD0026822F080020260CA79012A3BD0F7
:10131000026822F0400202600A7A012A39D002688B
:1013200022F0200202604A7A012A37D0026822F0B5
:10133000100202608A7A012A35D0026822F008027F
:101340000260CA7A012A33D0026822F004020260E5
:101350008A78CC78920742EA04620C7942EA044225
:101360004C79098842EA0452491E0A43C261016865
:1013700021F001010160002120E0002010BD026881
:1013800042F080020260C0E7026842F04002026060
:10139000C2E7026842F020020260C4E7026842F03D
:1013A00010020260C6E7026842F008020260C8E765
:1013B000026842F004020260CAE7491C4268D20790
:1013C00001D09942F9D14068C00701D0002010BD7A
:1013D000012010BD10B500EB0113D3F8B04104F0AB
:1013E00004041472002C2CD0D3F8B041E4085460EB
:1013F00003F5D8731C6804F0020454725C6804F0AE
:101400000F0494725C68240AD4749C68D4729C683B
:10141000240A14739C68240C54739C68240E9473DF
:10142000DC68D473DC68240A1474DC68240C5474FB
:10143000DB681B0E937449B1016941F02001016121
:1014400010BDD3F8B041640D1460D1E7C16841F01C
:101450002001C16010BD024600200A4200D00120D8
:10146000704700000122064B8240002903D0186813
:101470001043186070471868904318607047000068
:101480000074004030B5084C236840F6FE7282407C
:101490009343D1E900252A43D1E902510D432A4360
:1014A00082401A43226030BD0074004008B5034AF0
:1014B0001044083000900098016008BD007400409E
:1014C00008B5034A1044143000900098016008BD2C
:1014D00000740040C10002D502490860704702490B
:1014E000486070470404024000000240002904D014
:1014F000016841F001010160704701684FF6FE721A
:10150000114001607047000001684FF6FE72114003
:1015100001600021016041608160C1603649364A46
:101520000839904204D1486840F00F004860704785
:10153000314A1432904204D1486840F0F0004860CB
:1015400070472D4A2832904204D1486840F47060B8
:1015500048607047284A3C32904204D1486840F4C1
:10156000704048607047244A5032904204D1486825
:1015700040F47020486070471F4A6432904204D1A2
:10158000486840F47000486070471B4A78329042C7
:1015900004D1486840F0706048607047174A111FD6
:1015A000904204D1086840F00F0008607047134A69
:1015B0001432904204D1086840F0F000086070478F
:1015C0000E4A2832904204D1086840F470600860E6
:1015D00070470A4A3C32904204D1086840F4704097
:1015E00008607047054A50329042FAD1086840F4CA
:1015F00070200860704700000800024008040240A4
:10160000406880B2704730B5026847F6F0739A437D
:101610000C6A8B682343D1E904452C4323438C692E
:101620002343CC6923434C6A23438C6A23431343EB
:101630000360CA6842600A6882604968C16030BD60
:101640007047000001490860704700001404014021
:1016500030B51B4A83790168002B2AD013688B436D
:101660001360111D0B680468A3430B6001791144DA
:101670000B68046823430B60114C0834216803682D
:1016800099432160231D19680568A94319604179B0
:10169000102905D011440A68006802430A6030BD71
:1016A00021680268114321601968006801431960CC
:1016B00030BD0079104402688A43026030BD0000EA
:1016C000000401400149C86070470000002002404A
:1016D00070B505464FF43026304600F059F804281E
:1016E00011D1094C206940F0020020616561206938
:1016F00040F040002061304600F04AF8216941F690
:10170000FD721140216170BD002002400420084993
:10171000CA68D20701D001207047CA68520701D5B4
:1017200002207047C968C906FBD503207047000036
:10173000002002400248016941F0800101617047C8
:1017400000200240F0B506460D464FF400573846DB
:1017500000F01EF804280CD1064C206940F001006E
:1017600020613580384600F013F82169BA1E114017
:101770002161F0BD00200240034802494160034955
:10178000416070472301674500200240AB89EFCDDF
:1017900000B50346FFF7BAFF02E0FFF7B7FF5B1E95
:1017A000012801D1002BF8D1002B00D1052000BD6C
:1017B0002DE9F0410022CC7804F00F03E40601D5B6
:1017C0008C7823430C784FF00F0714F0FF0F4FF085
:1017D000010C1CD005680CFA02F40E882640A642C3
:1017E00011D1960007FA06F825EA080503FA06F86B
:1017F00048EA0505CE78282E02D0482E02D002E015
:10180000446100E00461521C082AE4D305600A88A0
:10181000FF2A1ED94568002202F108060CFA06F4D8
:101820000E882640A64210D1960007FA06F825EA4F
:10183000080503FA06F848EA0505CE78282E00D1F7
:101840004461CE78482E00D10461521C082AE3D3AB
:101850004560BDE8F08141F480328261816182613E
:101860008169806970470246002092680A4200D070
:101870000120704770B5FF22FF23002801D0022904
:1018800002D84FF6FF7070BD074D05F5807605E074
:1018900010F8014B54402A5D5A40335D491EC9B2CD
:1018A000F6D243EA022070BD084E000806A30020CD
:1018B000104C211F1A5C22800A885206FCD5401C5D
:1018C000C0B22A28F6D3FEE70D0A456E7465722071
:1018D000486172644661756C745F48616E646C65E2
:1018E000722C2053797374656D2048616C742E0DD1
:1018F0000A0000000438014002494CF6CC40086060
:101900007047000000300040AFF3008002494AF603
:10191000AA2008607047000000300040014948607C
:1019200070470000003000400149886070470000A7
:10193000003000400149086070470000003000405E
:10194000810701D0002070476421B0FBF1F201FB58
:10195000120109B1012070474FF4C871B0FBF1F2D8
:1019600001FB120008B10020704701207047FEE71C
:101970007047000070B50F23C27801260178002A55
:101980001ED0144A126802F4E062C2F5E062120A44
:10199000C2F10404D3404578A54082781A402A4316
:1019A000120101F1E02181F80024007800F01F010C
:1019B0008E404009800000F1E020C0F8006170BD59
:1019C00001F01F0086404809800000F1E020C0F8C7
:1019D000806170BD0CED00E00249084302490860D7
:1019E000704700000000FA050CED00E010B54FF460
:1019F0008030FFF727FE02F01BFB0021017002F090
:101A000017FB0178BDE810400820FFF729B8000057
:101A1000014908627047000000000E420149086158
:101A20007047000000000E42034A116821F0E001F7
:101A3000014311607047000000700040054A002912
:101A400003D051690143516170475169814351612C
:101A50007047000000100240054A002903D0D169F8
:101A60000143D1617047D1698143D1617047000062
:101A700000100240054A002903D091690143916199
:101A800070479169814391617047000000100240E6
:101A900001490860704700004004424210B5264AE0
:101AA000516801F00C01254B002927D0042927D0CB
:101AB000082927D00360516801F0F0010909204B83
:101AC0005C5C0168E1404160546804F4E064240A0D
:101AD0001C5D21FA04F48460546804F46054E40A40
:101AE0001B5DD940C160526802F44042920B144B16
:101AF0001B1F9A5CB1FBF2F1016110BD0360DAE7D4
:101B00000360D8E7516801F47011536803F480331F
:101B1000022404EB914133B153689B0307D5094B71
:101B200059430160C7E7074B59430160C3E7034BC3
:101B300059430160BFE700000010024000127A0024
:101B40008E01002000093D00034600205909094A82
:101B500001290AD002290AD0516A03F01F02012389
:101B600093400B4200D0012070471168F5E7116ADD
:101B7000F3E7000000100240084900220A7001F853
:101B80002029012805D0042802D1052081F8200051
:101B90007047012081F820007047000020100240AB
:101BA00001490860704700003C04424202490A6A49
:101BB00002430A62704700000010024002490A888E
:101BC00082430A80704700000428004002480188D0
:101BD00041F010010180704704280040024801884C
:101BE00021F0100101807047042800402DE9F047E2
:101BF00000F06AF80646304FB6FBF7F32F48304D39
:101C00000188994231D0038040F2B2744FF4B77822
:101C10004FF4B6790FE02046FFF792FE38B1434506
:101C200002D3A3F5B77304E0641CA4B205E0A3F2E9
:101C30006D13641CA4B24B45EDD8AC800024DFF8D2
:101C400084800CE0A888FFF77BFE08B1012C2FD020
:101C500018F80400984204D81B1A641CA4B21C2B68
:101C6000F0D2641CAC715B1CEB71B6FBF7F007FBA8
:101C700010604FF46161B0FBF1F22A70B0FBF1F239
:101C800001FB12033C22B3FBF2F36B70B0FBF1F3E8
:101C900001FB1300B0FBF2F102FB1100A870EA791E
:101CA000A979A88800F02AF828720020BDE8F087FA
:101CB0001D2BD6D31D3BD0E78051010088010020A9
:101CC000741500200C520008034800880249091FBF
:101CD000098840EA014070471C28004006490988ED
:101CE000C2B21140044A121F1288024202D009B146
:101CF00001207047002070470428004030B564235D
:101D0000B0FBF3F4E4B2B0FBF3F503FB1500132CC6
:101D100001D96430C0B200EB90030724B3FBF4F5A3
:101D200004FB1533084D1A440D4415F8015C2A4490
:101D300092B2800703D1032901D2521E92B2B2FBA4
:101D4000F4F004FB102030BD0052000810B5012053
:101D5000FFF7C4FF08B1FFF749FF0220FFF7BEFFFE
:101D600030B107480168491C01600220FFF726FFD7
:101D70000520FFF723FFBDE8104000F0BBB80000CE
:101D8000BC000020054A002903D0118801431180BE
:101D9000704711888143118070470000002800407F
:101DA00008B503228DF800208DF801008DF802108F
:101DB00001208DF803006846FFF7DCFD08BD000038
:101DC0002DE9F05F0646DDF828A0894690460024FC
:101DD000A6F2B270822802D30120BDE8F09F40F243
:101DE000B275284FDFF8A0B008E02846FFF7A8FD3D
:101DF00008B13C4400E05C446D1CADB2B542F4D384
:101E0000A9F1010909F0FF070025DFF88090DFF84C
:101E100080B00FE019F8050040F2A321484304EB1D
:101E2000C0143046FFF78CFD10B1012D00D15C4489
:101E30006D1CADB2BD42EDD3A8F1010840F2A32064
:101E400008FB00F804EBC810C3EB4311C1EB0321FE
:101E500000EB0110CAEB0A1100EB81000B9944184A
:101E600001214FF0C050FFF7F7FD0120FFF7D0FD33
:101E7000204600F01FF800F03DF8FFF7B7FE002005
:101E8000ABE700000085E2018033E1010C5200085D
:101E90008051010000B50246FFF798FE0449100C7E
:101EA0000880081D02805DF804EBFFF797BE000074
:101EB0002028004000B50246FFF788FE0449100CB8
:101EC0000880081D02805DF804EBFFF787BE000064
:101ED0001828004000B50246FFF778FE0449C2F317
:101EE00003400880081D02805DF804EBFFF776BE12
:101EF00008280040024801888906FCD57047000088
:101F0000042800400448018821F00801018001886C
:101F10000907FCD57047000004280040AFF300809B
:101F20000CB50022019200922748016841F48031EB
:101F300001604FF4A063016801F400310091019940
:101F4000491C0191009911B901999942F3D1016895
:101F5000890302D50121009100E000920099012936
:101F600030D11A490A6842F010020A600A6822F069
:101F700003020A600A6842F002020A604168416096
:101F800041684160416841F480614160416821F4E9
:101F90007C114160416841F4E8114160016841F001
:101FA0008071016001688901FCD5416821F003015D
:101FB0004160416841F0020141604168C1F3810123
:101FC0000229FAD10CBD000000100240002002409E
:101FD00010B5FEF7FDF802F05DFE18B104494FF0B0
:101FE00080500860BDE810400020FEF7F8B80000FF
:101FF00004ED00E010B50F48016841F001010160F7
:1020000041680D4A1140416001680C4A114001606D
:10201000016821F480210160416821F4FE014160E2
:102020004FF41F018160FFF779FF05494FF0006011
:10203000086010BD001002400000FFF8FFFFF6FE30
:1020400008ED00E070B5048C24F001040484058BD5
:10205000048C25F0F3054FF6FF7606EA03131343CD
:102060002B43104A90420ED00F4A90420BD0B0F151
:10207000804F08D00D4A904205D00D4A904202D0C0
:102080000C4A904205D124F002020A4342F00101B9
:1020900004E024F00A020A4342F0010103830184B0
:1020A00070BD0000002C01400034014000040040DD
:1020B00000080040000C0040F0B5048C24F010042F
:1020C0000484068B048C4FF6FF7505EA011726F48D
:1020D000734605EA0333334305EA02221A43104BE1
:1020E00098420ED00F4B98420BD0B0F1804F08D0E1
:1020F0000D4B984205D00D4B984202D00C4B9842A4
:1021000005D124F02001394341F0100104E024F00E
:10211000A0030B4343F0100102830184F0BD0000D3
:10212000002C014000340140000400400008004041
:10213000000C0040F0B5048C24F480740484858B7A
:10214000048C4FF6FF7707EA012625F0F30507EA2E
:10215000031313432B43104A90420ED00F4A904270
:102160000BD0B0F1804F08D00D4A904205D00D4AF7
:10217000904202D00C4A904205D124F400713143C0
:1021800041F4807104E024F420620A4342F4807137
:1021900083830184F0BD0000002C01400034014025
:1021A0000004004000080040000C0040F0B5048C22
:1021B00024F480540484868B048C4FF6FF7505EA62
:1021C000013726F4734605EA0222324305EA033357
:1021D0001343104A90420ED00F4A90420BD0B0F1F8
:1021E000804F08D00D4A904205D00D4A904202D04F
:1021F0000C4A904205D124F40051394341F48051F6
:1022000004E024F402420A4342F4805183830184AF
:10221000F0BD0000002C01400034014000040040EB
:1022200000080040000C00400146054A914201D1DF
:102230001B207047034A9142FBD12E2070470000BB
:10224000002C01400034014070B501218C0720466C
:1022500000F0D3F938B301F0B3FE407E002528B179
:1022600001F0AEFE418B491C418302E001F0A8FE63
:10227000458301F0DDFE407B0A2815D301F0D8FE2E
:1022800001780820FEF7ECFB01F09EFE01460C20D1
:10229000FEF7E6FB01F094FE017E1020FEF7E0FB66
:1022A00001F0C6FE457304E001F0C2FE417B491C0B
:1022B00041732046BDE87040012100F08FB9000055
:1022C0002DE9F047DFF8B8900121484600F095F974
:1022D0002C4C2D4D38B1216809B1491C2160296869
:1022E00009B1491C29600221484600F086F9002600
:1022F0004FF00108E0B1224F2068343798B1398897
:10230000E181401EE189C0EB00400844A189401AE8
:102310002061FEF7C0F801461C48FEF703F8606034
:1023200026603E8004E03E803888A081C4F80080AA
:102330000421484600F061F9D8B1114C28683834BE
:1023400090B12188E981401EE989C0EB0040084432
:10235000A989401A28610E49B1FBF0F0FEF79BF8FD
:1023600068602E60268004E026802088A881C5F859
:1023700000804846BDE8F047072100F02FB9000073
:1023800000080040840600209C0600200050C3473F
:10239000A086010070B5224D0121284600F02DF9DC
:1023A000C0B3204C207820490A2801D3087828B1EE
:1023B00020780A282ED2087818B12BE00120087066
:1023C00028E001F039FE194800681949227841F8DF
:1023D0002200184800681849227841F8220017485E
:1023E0000168174A207842F82010164800681649FC
:1023F000227841F82200154800681549227841F8F2
:102400002200144800681449227841F822002178FB
:10241000491C21702846BDE87040012100F0DEB85B
:10242000001000402F0000202E0000203800002067
:10243000A40400203C000020CC0400204000002028
:10244000F4040020440000201C0500204800002067
:10245000440500204C0000206C05002070B5224D82
:102460000121284600F0C9F8C0B3204C207820494B
:102470000A2801D3087828B120780A282ED20878B3
:1024800018B12BE00120087028E001F02BFE19485C
:1024900000681949227841F8220018480068184954
:1024A000227841F8220017480168174A207842F83C
:1024B0002010164800681649227841F82200154875
:1024C00000681549227841F8220014480068144930
:1024D000227841F822002178491C21702846BDE865
:1024E0007040012100F07AB8001400403100002053
:1024F00030000020500000209405002054000020EF
:10250000BC05002058000020E40500205C000020ED
:102510000C0600206000002034060020640000202B
:102520005C0600202DE9F0411D4F0221384600F0E5
:1025300064F840B31B4C1A4E34362068002518B39B
:102540003188E181401EE189C0EB00400844A18947
:10255000401A2061FDF79FFF01461348FDF7E2FE98
:102560006060217D114A42F821002560491CC8B2F3
:10257000207535800A280CD30A21104601F020FF6F
:10258000A0602575656004E035803088A081012059
:1025900020603846BDE8F041022100F01FB800007D
:1025A00000340140B4060020001BB749CC060020CF
:1025B00010B5084C0121204600F01FF820B1064953
:1025C000086808B1401C08602046BDE810400121A1
:1025D00000F004B800340140B4060020C943018271
:1025E0007047002904D0018841F001010180704743
:1025F000018821F001010180704702460020138A02
:102600000B4092890A40002B02D0002A00D0012002
:102610007047000070B505460C461D48854209D03C
:102620001C48854206D0B5F1804F03D01A48854238
:1026300000D01A4820886188A288238960B10428C4
:1026400013D008281AD02846FFF7B0FDE1882846A5
:10265000BDE8704000F04AB82846FFF7F3FCE18877
:102660002846BDE8704000F025B82846FFF724FD55
:10267000E1882846BDE8704000F024B82846FFF7FE
:1026800059FDE1882846BDE8704000F027B80000F9
:10269000002C0140003401400004004000080040CC
:1026A000002A03D082890A438281704782898A4343
:1026B00082817047028B22F00C020283028B0A4354
:1026C00002837047028B22F440620283028B4FF632
:1026D000FF7303EA01210A4302837047828B22F0D1
:1026E0000C028283828B0A4382837047828B22F49E
:1026F00040628283828B4FF6FF7303EA01210A4313
:10270000828370470146B1F1804F04D0124A914252
:1027100003D11D2070471C207047104A914201D1FF
:102720001E2070470E4A914201D1322070470D4A57
:10273000914201D1362070470B4A914201D1372096
:1027400070470A4A914201D119207047084A9142C4
:10275000FBD12C207047000000040040000800401E
:10276000000C00400010004000140040002C01400C
:102770000034014030B502881B4C1C4DA0420DD0E6
:10278000A8420BD0B0F1804F08D0194B984205D029
:10279000184B984202D0184B984203D122F0700394
:1027A0004A881A43154B984206D0154B984203D0DD
:1027B00022F44073CA881A4302808A8882850A8874
:1027C0000285A0420AD0A84208D00E4A904205D005
:1027D0000D4A904202D00D4A904201D1097A0186F9
:1027E0000121818230BD0000002C014000340140F5
:1027F0000004004000080040000C004000100040B1
:1028000000140040004001400044014000480140E5
:1028100070B5164D40F22441284600F07BF80028A0
:1028200023D02888281D0088114E00213046FEF74D
:102830005DFE3046FEF7E4FEC0F1400084B24FF486
:10284000C000FEF747FE0A4940206C3908670121A5
:102850003046FEF74BFE002C07D00649284601F013
:1028600003FD05480168491C016070BD004400403B
:102870006C00024029000020B800002070B5164D01
:1028800040F22441284600F045F8002822D028884C
:10289000281D0088114E00213046FEF727FE3046E5
:1028A000FEF7AEFEC0F5007084B26020FEF712FEA7
:1028B0000A4968151C39C86501213046FEF716FE25
:1028C000002C07D00649284601F070FF0548016832
:1028D000491C016070BD0000004800401C0002401F
:1028E000B0000020B8000020002904D0818941F404
:1028F000005181817047818921F4005181817047A5
:10290000002A03D0828A0A4382827047828A8A43DD
:102910008282704770B5002440F66A12C1F34213F8
:1029200001F01F05012606FA05F2012B0CD0022B3F
:102930000DD0838A1340090A8E40008830400BB1C5
:1029400000B10124204670BD83891340F3E7038A58
:102950001340F0E710B540F66A13C1F3421301F0DB
:102960001F040121A140012B07D0022B07D01430F6
:102970003AB102680A43026010BD0C30F8E710302B
:10298000F6E702688A43026010BD000030B585B0EA
:1029900004460D46208A4CF6FF710840E988014341
:1029A0002182A0894EF6F3110840A9882A89114393
:1029B0006A8902431143A181A08A4FF6FF41084072
:1029C000A9890143A1826846FFF768F81D4884423F
:1029D00001D1039800E00298A189090408D500EB11
:1029E000C00101EB001029684900B0FBF1F007E0DD
:1029F00000EBC00101EB001029688900B0FBF1F089
:102A00006422B0FBF2F109010B096FF018056B436A
:102A100000EB8300A3891D044FF0320307D503EBBD
:102A2000C000B0FBF2F000F00700084306E003EB43
:102A30000010B0FBF2F000F00F000843208105B059
:102A400030BD00000038014001460D4A914201D1DD
:102A50000C4870470C4A914201D10C4870470C4A0F
:102A6000914202D10948403070470A4A914201D14F
:102A700009487047094A9142FBD109487047000054
:102A800000380140F406002000440040F407002014
:102A900000480040004C0040340A00200050004034
:102AA000340C002001460D4A914201D10C48704778
:102AB0000C4A914201D10C4870470C4A914202D114
:102AC0000948403070470A4A914201D1094870478D
:102AD000094A9142FBD10948704700000038014083
:102AE000340E002000440040340F00200048004015
:102AF000004C00407411002000500040741300206E
:102B0000F0B502461C4C1D4B1D4D1E4E1E4F80291C
:102B100005D0402902D1A2421AD11C48F0BDA242E0
:102B200002D11A486438F0BD9A4202D11748503891
:102B3000F0BDAA4202D115483C38F0BDB24202D1E4
:102B400012482838F0BDBA42FCD110481438F0BD04
:102B50009A4202D10D481430F0BDAA4202D10B486E
:102B60002830F0BDB24202D108483C30F0BDBA4234
:102B7000FCD106485030F0BD003801400044004010
:102B800000480040004C004000500040240100205C
:102B900001460D4A914201D1801570470B4A91427E
:102BA00001D1402070470A4B5A15994201D1104675
:102BB0007047084B994201D110467047064B994225
:102BC000FBD110467047000000380140004400402F
:102BD00000480040004C00400050004001460D4AB3
:102BE000914201D1801570470B4A914201D140209A
:102BF00070470A4B5A15994201D110467047084B4D
:102C0000994201D110467047064B9942FBD11046BC
:102C10007047000000380140004400400048004078
:102C2000004C00400050004001460C4A914201D146
:102C3000252070470A4A914201D126207047094A4F
:102C4000914201D127207047074A914201D1342097
:102C50007047064A9142FBD1352070470038014049
:102C60000044004000480040004C0040005000403C
:102C700010B586B0144C02212046FEF7B9FA0028A0
:102C800020D004212046FEF705FA10492046FEF721
:102C9000E9F901AA00212046FEF79CFB0198A0F566
:102CA0000070093806D0012808D1094901A800F0B0
:102CB00072FC03E0074901A800F06DFC06480168BA
:102CC000491C016006B010BD0064004008000032DD
:102CD0001800002020000020B4000020FEE730B5DE
:102CE00005460C46002D01D0022C01D8002030BD35
:102CF000A01EC1B22846FEF7BDFD2919C2B211F8C7
:102D0000023C9A4206D111F8011CB1EB102F01D1FF
:102D1000012030BD002030BD02E008C8121F08C1EC
:102D2000002AFAD170477047002001E001C1121F4C
:102D3000002AFBD17047000001490860704700007D
:102D40000402002070B501F03BF9174C217A0170A4
:102D500001F036F9217B417001F032F9217C81705C
:102D600001F02EF9A18A8180A069FDF794FB0F4D37
:102D70002946FDF7A5FA064601F022F98660E069CA
:102D8000FDF789FB2946FDF79BFA064601F018F985
:102D9000C660206AFDF77FFB2946FDF791FA0446DD
:102DA00001F00EF9046170BD380200200AD7233CFF
:102DB00070B50124064E074D06EB840105EB440077
:102DC000022200F073FB641CE4B2092CF4D370BD42
:102DD000380200200030030870B50024064E074D6D
:102DE00006EB840105EB4400022200F077FB641C33
:102DF000E4B2092CF4D370BD38020020003003087F
:102E000010B500F011F8FFF79DFF00F05FF900F03A
:102E100049FA00F09FF900F0E1F8BDE810400148E0
:102E2000FEF73CBE0802002010B5104802210160E8
:102E300040F6C412426000218160C1600161192323
:102E400043618261FA22C261016202220849094893
:102E500000F02CFB06480078FF2803D0BDE81040A6
:102E6000FFF7A6BFBDE81040FFF7B6BF380200204D
:102E7000050000200030030810B50A21144801F0B5
:102E80009FFA144908600A21134801F099FA13497E
:102E900008600A21124801F093FA124908600A21D9
:102EA000114801F08DFA114908600A21104801F01B
:102EB00087FA104908600A210F4801F081FA0F498A
:102EC00008600F49002008700E49087010BD00000E
:102ED000A404002068000020CC0400206C00002026
:102EE000F4040020700000201C0500207400002065
:102EF00044050020780000206C0500207C000020A4
:102F00002E0000202F00002010B50A21144801F0E7
:102F100057FA144908600A21134801F051FA13497D
:102F200008600A21124801F04BFA124908600A2190
:102F3000114801F045FA114908600A21104801F0D2
:102F40003FFA104908600A210F4801F039FA0F4989
:102F500008600F49002008700E49087010BD00007D
:102F60009405002080000020BC0500208400002083
:102F7000E4050020880000200C0600208C000020C2
:102F800034060020900000205C0600209400002001
:102F9000300000203100002008B501F075FE0090DF
:102FA0000C4C0D4D0221684601F01AFD207818B135
:102FB000FFF762FF01F0DEFC287818B1FFF7A4FFED
:102FC00001F0D8FC207829780843EBD101F0D2FC3D
:102FD000E8E700002E000020300000201FB5002090
:102FE0000649CDE9011005220346009203904FF4F3
:102FF000807203A1034801F0CDFD1FBD5C020020DB
:1030000041444300992F000810B500F0D9FF007E1D
:1030100068B1002401281FD0022836D0632805D1CA
:10302000012001F0D9FB00F0CBFF047610BD00F0C9
:10303000F7FF407A012100F0E5FF38B900F0F0FF1A
:10304000407A022100F0DEFF0028EFD000F0B8FF48
:10305000017E491C017610BD6421124801F034FB49
:1030600000F0AEFF0121417600F0AAFF408BB0F5E1
:10307000FA7FF0D300F0A4FF44760B48046000F020
:103080009FFF017E491C017610BD00F0C9FF407A08
:10309000012100F0B7FF0028F6D000F091FF632176
:1030A000017610BD80812242B081214208B501F035
:1030B000EBFD00900521684601F092FC00F084FFD2
:1030C00008B9FFF7A1FF00F019F8F3E71FB50020DA
:1030D0000649CDE9011006220346009203904FF401
:1030E000007203A1044801F055FD1FBD68020020D5
:1030F000494E505554000000AD30000810B500F0A6
:1031000057FC064C606800F05BFAA06800F06CFAAF
:1031100003488168491D816010BD0000080000203F
:103120006802002008B501F0AFFD0090084D322480
:103130000221684601F054FC2868B0FBF4F104FB5E
:10314000110008B900F01EF82868401C2860EFE75D
:10315000140000201FB500200649CDE9011005220A
:103160000346009203904FF4807203A1044801F0DB
:1031700011FD1FBD9002002053455249414C0000F3
:1031800025310008014801F08DB8000000440040DE
:1031900010B512480068002819D011480168C9B25A
:1031A00011434268520641EA12628068800642EA90
:1031B000106400F005FF416921F07801416100F0E1
:1031C000FFFE4169641C41EAC401416110BD00F089
:1031D000F7FE416921F07801416110BD30012342C1
:1031E0003481214208B501F04FFD00902B4F2A4C4D
:1031F0000C372A4D2A4E07F104094FF480784FF41A
:10320000007A09F1040B0221684601F0E9FBD4F8C9
:10321000B00108B1FFF7BCFF0221284600F096FE7E
:103220000421304600F092FE8021384600F08EFEE8
:103230004146484600F08AFE5146584600F086FE58
:1032400016484FF48061183800F080FE13484FF4A0
:103250000061143800F07AFE10484FF480511038A5
:1032600000F074FE0D484FF400510C3800F06EFE73
:103270000A484FF48041083800F068FE00F0D8FE9C
:10328000007B28B1FFF7A8FD00F0D2FE00210173FA
:10329000FEF73AFBB7E700000080214228012342F5
:1032A000248121421FB500200649CDE901100522E5
:1032B0000346009203904FF4807203A1054801F089
:1032C00069FC1FBD9C02002053555045525649537E
:1032D000494F5200E531000810B500240820FDF7E1
:1032E000B5FB68B10C20FDF7B1FBC0B201F074FA78
:1032F0001020FDF7ABFB044600F062FE04760124CB
:10330000204610BD10B501214FF0C050FEF7A4FBC0
:10331000BDE810400120FEF77BBB00000D4B81187B
:10332000994201D90320704712B10123002109E01D
:10333000002070470378FF2B01D002207047002344
:10334000401C491C9142F5D3012B01D0012070474C
:1033500000207047000004086FF30A00704710B5A2
:103360004FF44070FEF738FBFFF7CCFF00F028FE6B
:1033700000F11404FFF7B0FF21680843206000F05B
:103380002BF800F005F800F053FE0121017010BD8C
:10339000FEB5E020FEF748FB0120FEF73FFB0124CD
:1033A0008DF8084008258DF8095000278DF80A701F
:1033B0008DF80B4002A8FEF7DDFA26043046FEF732
:1033C00041F900968DF804708DF805508DF806408F
:1033D0006846FEF73DF9FEBD7CB500240420FDF7EC
:1033E00035FB45F25005A8424FD0FDF725FB0120E3
:1033F000FEF7C2FB04E0641CE4B20A2000F008F906
:103400004120FEF7A1FB0028F5D0FA2C01D30120C2
:103410007CBD4FF48070FEF7C9FB0120FEF7C0FBB6
:10342000FEF768FDFEF76EFD01210220FEF7AAFC03
:10343000FEF760FDFEF7CAFB0020FEF73BFDFEF73E
:1034400059FD47F6FF70FEF745FDFEF753FD0020DE
:103450000224CDE9004040F2E7760B230922052142
:103460003046FEF7ADFC1421CDE900410B230922C3
:1034700005213046FDF764FAFEF73CFDFEF7AEFB92
:1034800029460420FDF7ECFA07E0FEF73BFD012199
:103490000220FEF777FCFEF72DFD00210320FEF74A
:1034A0007FFCFEF7A3FB00207CBD000010B50A4C9A
:1034B0008318A34201D9012010BD0AB1002306E000
:1034C000012010BD10F8014B01F8014B5B1C934229
:1034D000F8D3002010BD0000000004082DE9F041E1
:1034E00007468846164604252549B819884202D958
:1034F0000120BDE8F0811EB1F00703D00120F8E7FC
:103500000020F6E7324641463846FFF707FF0446FB
:1035100054B1012080F31088FEF72EF93520FEF714
:10352000D1F8022C02D00BE00020E2E73846FFF78A
:1035300013FFFEF7CDF80546042D01D00220D8E791
:1035400000240EE018F8140008EB4401497840EA22
:1035500001213846FEF7F6F80546042D04D1BF1CBC
:10356000641CB4EB560FEDD3FEF7E4F8002080F3B3
:103570001088042D01D00220BBE70020B9E700002D
:103580000000040830B5DDE9034501608280C38096
:103590000481458130BD027BC37A42EA03220A805E
:1035A000827B437B42EA03224A80027CC37B42EA5D
:1035B00003228A80827C407C42EA0020C8807047D7
:1035C00010B50749FCF7AEFE0649FCF779FEFCF79B
:1035D00074FF81B2BDE810400020FDF767BF000016
:1035E0003333534000F07F4510B50749FCF79AFE8E
:1035F0000649FCF765FEFCF760FF81B2BDE81040AC
:103600000020FDF75DBF00003333534000F07F45DD
:1036100010B50022044C04E02146491E4B1CFCD18D
:10362000521C8242F8DB10BD4019010030B591B048
:1036300001210846FEF702FA484D2846FDF764FFCF
:103640004748019047480290002403943C2104918C
:103650000594802106914900079188000890202058
:10366000099000020A900B9401A92846FDF7CBFFB0
:1036700001212846FDF73AFF01214802FEF7FAF939
:1036800000213948FDF743FA00213848FDF73FFA99
:1036900000213748FDF73BFA00213648FDF737FA9D
:1036A00000213548FDF733FA00213448FDF72FFAA1
:1036B0000C9401208DF834008DF835004FF4602013
:1036C0000E900F9406208DF84000254C0CA94C3C20
:1036D0002046FDF7C1F80723012206212046FDF709
:1036E000DFF80723022219462046FDF7D9F8072301
:1036F000032208212046FDF7D3F8072304220921DD
:103700002046FDF7CDF8072305220E212046FDF7C0
:10371000C7F8072306220F212046FDF7C1F8012133
:103720002046FDF77FF801212046FDF76FF820467F
:10373000FDF7F0F82046FDF788F80028FAD120467A
:10374000FDF7F9F82046FDF779F80028FAD10121B4
:103750002046FDF7E4F811B030BD0000080002403B
:103760004C24014004030020385000084050000859
:103770006050000868500008E8500008F050000849
:1037800030B591B001210220FEF758F9484D284686
:10379000FDF7BAFE47480190474802900024039481
:1037A0003C210491059480210691490007918800ED
:1037B00008902020099000020A900B9401A9284645
:1037C000FDF721FF01212846FDF790FE0121C803E6
:1037D000FEF750F900213948FDF799F900213848E2
:1037E000FDF795F900213748FDF791F9002136489A
:1037F000FDF78DF900213548FDF789F9002134489E
:10380000FDF785F90C9401208DF834008DF8350012
:103810004FF460200E900F9406208DF84000254C48
:103820000CA94C3C2046FDF717F807230122002184
:103830002046FDF735F80723022201212046FDF737
:103840002FF8072303220A212046FDF729F8072332
:1038500004220B212046FDF723F8072305220C2123
:103860002046FDF71DF8072306220D212046FDF70F
:1038700017F801212046FCF7D5FF01212046FCF76F
:10388000C5FF2046FDF746F82046FCF7DEFF00287E
:10389000FAD12046FDF74FF82046FCF7CFFF00286D
:1038A000FAD101212046FDF73AF811B030BD0000F1
:1038B000580402404C3C01407C03002008500008A2
:1038C00010500008C8500008D0500008D850000818
:1038D000E050000808B5002100910323632240F660
:1038E0000F61FDF711FA08BD30B585B00024062040
:1038F000CDE902400E484FF6FF75A0F10803009095
:10390000019440F2CF22294604940A48FDF74CF96D
:103910000520CDE90240064B0194049408332F2280
:10392000294605480094FDF73FF905B030BD000079
:10393000A0000020000800400034014000B51A49F2
:10394000002801D000200870087808B1002000BDD0
:1039500001200870154B991D184600F051F808B168
:10396000012000BDD91D581C00F04AF808B1022002
:1039700000BD0E49981C083100F042F808B1032040
:1039800000BD0A49D81C093100F03AF808B10420FA
:1039900000BD0649181D0A3100F032F808B10520B3
:1039A00000BD002000BD000028000020D002002043
:1039B00070B5104D04212846FDF755FF0E4C2070C0
:1039C00002212846FDF74FFFE07020210B48FDF74C
:1039D0004AFF607008212846FDF745FFA0700121CD
:1039E0002846FDF740FF20710120FFF7A7FFE07296
:1039F00070BD000000180140D00200200008014006
:103A0000024600201278002A02D0012A06D103E0E3
:103A10000A78521C0A7001E000220A7009780A290B
:103A200000D90120704700002DE9FC470646DDE97A
:103A30000A950C9C0F46904618461021FDF767F832
:103A4000CDE900544B46424639463046FDF75AFA16
:103A500080213046FFF754F8FDF714FA4021304634
:103A6000FFF74EF8FDF70EFA024901200860BDE8A5
:103A7000FC870000BC8122423EB505460C46182159
:103A80000848FDF744F848210748FDF740F8CDE91C
:103A90000154022000900723082200210348FCF76C
:103AA000E9FF3EBD58500008505000080064004037
:103AB0001FB501214807FDF7CFFF00210A48FDF798
:103AC00026F80020009001900290022003906946A1
:103AD0000020FDF7D7FC01210020FDF7C3FC0021E9
:103AE0000846FDF7E3FC1FBD285000081FB5012163
:103AF0004807FDF7B1FF00210A48FDF708F800204C
:103B00000090019002900220039069461020FDF77A
:103B1000B9FC01211020FDF7A5FC00210846FDF7A6
:103B2000CFFC1FBD305000087CB50546DDE90640DE
:103B3000CDE900402846FDF7E5F980212846FEF74B
:103B4000DFFFFDF79FF940212846FEF7D9FFBDE8CA
:103B50007C40FDF797B970B505460C4645F25550C7
:103B6000FDF7E8FE2846FDF7D9FE2046FDF7DCFE0E
:103B7000FDF7CCFEBDE87040FDF7BEBE2DE9FE436B
:103B800000F074F800F01CFA007DC00701D100F0CD
:103B9000C9F90024082341F61F4240F2E731D80654
:103BA0000094FDF7B1F8FFF741FDFFF7E9FD244868
:103BB000FFF790FE2348FFF78DFEFFF779FFFFF731
:103BC00095FFFFF791FE00210220FFF755FF40F21D
:103BD0007D5540F61D07CDE9007540F22A3840F2C8
:103BE0007F764346324640F20A211748FFF7CAFC67
:103BF0002B46424640F209211448CDE90067FFF701
:103C0000C1FC0420CDE900044FF4E133104A11490E
:103C10001148FFF789FF0320CDE901044FF4165145
:103C200000910E4B0E4A0F490F48FFF7FDFE03B0FF
:103C300040F63541BDE8F0430420FFF78CBF00009B
:103C40000010004000140040B8020020C402002010
:103C50002050000818500008004400407851000827
:103C6000A0500008985000080048004010B51021EE
:103C70008548FCF74CFF28218448FCF748FF1021B9
:103C80008348FCF744FF28218248FCF740FF2821A5
:103C90008148FCF73CFF28218048FCF738FF2821A9
:103CA0007F48FCF734FF28217E48FCF730FF1021C5
:103CB0007D48FCF72CFF10217C48FCF728FF1021E1
:103CC0007B48FCF724FF10217A48FCF720FF1021E5
:103CD0007948FCF71CFF10217848FCF718FF1021E9
:103CE0007748FCF714FF10217648FCF710FF1021ED
:103CF0007548FCF70CFF10217448FCF708FF1021F1
:103D00007348FCF704FF10217248FCF700FF1021F4
:103D10007148FCF7FCFE10217048FCF7F8FE1021FA
:103D20006F48FCF7F4FE10216E48FCF7F0FE2821E6
:103D30006D48FCF7ECFE28216C48FCF7E8FE2821D2
:103D40006B48FCF7E4FE28216A48FCF7E0FE2821D6
:103D50006948FCF7DCFE28216848FCF7D8FE2821DA
:103D60006748FCF7D4FE28216648FCF7D0FE2821DE
:103D70006548FCF7CCFE28216448FCF7C8FE2821E2
:103D80006348FCF7C4FE28216248FCF7C0FE2821E6
:103D90006148FCF7BCFE28216048FCF7B8FE2821EA
:103DA0005F48FCF7B4FE3848FCF7C4FE3748FCF720
:103DB000C1FE3748FCF7BEFE3648FCF7BBFE36486E
:103DC000FCF7B8FE3548FCF7B5FE3548FCF7B2FE07
:103DD0003448FCF7AFFE3448FCF7ACFE3448FCF73F
:103DE000A9FE3448FCF7A6FE3348FCF7A3FE33488F
:103DF000FCF7A0FE3248FCF79DFE3248FCF79AFE25
:103E00003148FCF797FE3148FCF794FE3048FCF748
:103E100091FE3048FCF78EFE2F48FCF78BFE2F48B2
:103E2000FCF788FE2E48FCF785FE2E48FCF782FE44
:103E30002D48FCF77FFE2E48FCF77CFE2D48FCF752
:103E400079FE2D48FCF776FE2C48FCF773FE2C48D3
:103E5000FCF770FE2B48FCF76DFE2B48FCF76AFE62
:103E60002A48FCF767FE2A48FCF764FE2948FCF75D
:103E700061FE2948FCF75EFE2848FCF75BFEBDE8C2
:103E800010402748FCF756BE4850000890500008E4
:103E9000A8500008B0500008B8500008C0500008F2
:103EA000E0510008005100087050000888500008D8
:103EB0000851000810510008185100082851000846
:103EC00030510008205100083851000840510008C6
:103ED000485100085051000858510008605100082E
:103EE000685100087051000880510008885100088E
:103EF0009051000898510008A0510008A8510008EE
:103F0000B0510008B8510008C0510008C85100085D
:103F1000D0510008D8510008E8510008F0510008BD
:103F2000F851000810B5074C012020606061064977
:103F3000C1F8B001E0616420FFF76AFB0020E06196
:103F400010BD00009C8122420080214210B50C4629
:103F50000068002805D000F033F841692143416131
:103F600010BD00F02DF84169A143416110BD000072
:103F700010B5002821D0114B0022001F196803E062
:103F8000814203D80A4649680029F9D152B1136821
:103F9000841A9C4204D1006818441060104602E064
:103FA000506000E0186039B102680B1A934203D1E7
:103FB0000B681A4402604968416010BDFC01002092
:103FC00000487047740200200148007870470000E4
:103FD00008000020004870470400002010B5044687
:103FE0002046FCF76AFAFCF756FA2146FCF765F919
:103FF0000349FCF765F9FCF760FAC0B210BD000098
:104000000000C84270B504460D462846FCF748FA41
:1040100000F0E8FBFCF765FA2C4024FA00F070BDD4
:10402000004870471C02002000487047280200200A
:1040300000487047A8020020F0B587B00026002590
:104040001F4F002404EB440007EB800030F81500FC
:10405000FCF721FA3146FCF7DBF80646641CE4B2B3
:104060000A2CEFD317493046FCF72AF901A941F889
:10407000250000266D1CEDB2062DE2D312490198F1
:10408000FCF71EF9114C606011490298FCF718F911
:10409000A06010490398FCF713F9E0600E490498FA
:1040A000FCF70EF920610D490598FCF709F96061EC
:1040B0000B490698FCF704F9A06107B0F0BD0000B9
:1040C00004030020CDCCCC3D6109963D3400002096
:1040D000810C483EFDD22F41010A203BC5491C41BD
:1040E0006740533AF0B587B000260025214F0024E1
:1040F00004EB440007EB800030F81500FCF7CBF927
:104100003146FCF785F80646641C0A2CF0DB304685
:10411000FCF700FA184A194BFCF742F9FCF70DFAC4
:1041200001A941F8250000266D1C062DDFDB14498E
:104130000198FCF7C5F8134CE06113490298FCF7AD
:10414000BFF8206211490398FCF7BAF86062104D7D
:1041500004982946FCF7B4F8A06229460598FCF7B4
:10416000AFF8E06229460698FCF7AAF8206307B08A
:10417000F0BD00007C0300209A9999999999B93F64
:10418000010FF03C340000203989133E365C434077
:104190006740533A2DE9F0410546E878012854D0AC
:1041A000022857D003284ED1042400202C4E21464B
:1041B000641C695CE4B23154401CC0B20228F6D3DE
:1041C000FFF732FF3188018000202146641C695CC2
:1041D000E4B23154401CC0B20228F6D33088FCF758
:1041E0005AF9204F3946FCF76BF88046FFF71CFF61
:1041F000C0F8048000202146641C695CE4B231549C
:10420000401CC0B20228F6D33088FCF744F9394686
:10421000FCF756F88046FFF707FFC0F8088000203B
:104220002146641C695CE4B23154401CC0B20228CF
:10423000F6D33088FCF72FF93946FCF741F80446ED
:10424000FFF7F2FEC460BDE8F081FFF7E9FE2979CF
:104250004172F8E7FFF7BEFE29790170F3E700002D
:10426000020000200AD7233C10B5FEF7EDFB044600
:104270002078C52815D16078642812D1A178201F34
:10428000085CA9280DD1E01E085CD42809D120467D
:10429000FEF725FD002804D02046BDE81040FFF7BA
:1042A00079BF10BD70B506463046FEF7FBFB0446ED
:1042B000AD202070B52060700020A070FFF7B0FE28
:1042C0000068FCF7FAF8E070FFF7AAFE0068FFF755
:1042D00085FE05252071FFF7A3FE4068FCF7EDF889
:1042E0001449088000202A460B5C6D1CEDB2A354D3
:1042F000401CC0B20228F6D3FFF792FE027A681C77
:10430000C1B262550D22481CC0B26254AA21421C9F
:104310002154921CD1B2A1702046FCF77BFB802176
:104320003046FEF7EDFBA2782146BDE87040FCF771
:104330007BBE00000000002010B5002080F3108834
:10434000FFF70DF8FFF71AFCFEF75AFD00F08AFBA5
:10435000002010BDF0B50B30154D20F007010024F2
:10436000144A0FE003688B420BD38B4205D95E1AC7
:1043700043184768C3E9006700E04368136002C060
:1043800004E0021D10680028ECD12046002802D16C
:10439000286808B10020F0BD064A07481060074AA7
:1043A000121A22F00702C0E9002401202860D7E792
:1043B00000020020FC0100208C7A0020887C002074
:1043C0002DE9F05F054688464FF000094FEA880066
:1043D000FFF7C0FF0446002005E055F8201044F820
:1043E0002010401CC0B24045F7D30027A8F1010AB5
:1043F0001AE00025A8EB070BABF1010B10E06E1CD7
:1044000054F8250054F82610FCF7B4F807D254F8F5
:10441000250054F8261044F8251044F82600F5B27B
:10442000AB45ECDC7F1CFFB25745E2DB012507E022
:1044300054F825104846FBF7EBFE81466D1CEDB2A3
:104440005545F5DBA8F10200FCF71CF8014648468B
:10445000FBF768FF05462046FFF78AFD2846BDE8C2
:10446000F09F000070B504460B4D28684460E86872
:10447000844206D22968686B091DBDE8704000F0CF
:10448000F7B92968286B091D00F0F2F9A86A84427F
:1044900000D2AC6270BD0000A001002070B5002900
:1044A00008D00D467DB14C2000F018F9044634B117
:1044B000256309E0800000F011F90546F2E728467F
:1044C00000F02AFA00E00024204670BD70B5124EBC
:1044D000124D1CE000F0F0FA306820B1002400F02A
:1044E0003BFCA4B901E00124F9E700F0E5F9F0682C
:1044F000C468201D00F09CF9A868401EA860686888
:10450000401E686000F0F4F9204600F009F8686881
:104510000028DFD170BD00005C160020A001002043
:1045200010B50446206B00F0F7F92046BDE81040B6
:1045300000F0F2B94FF4C8410F48420706D0C01D41
:1045400020F007000C49411AC1F5C8410B4A106020
:10455000002353600144083921F00701103A11602B
:104560004B600B600B1A43600160406890605060C4
:104570004FF00040D060704784160020F401002006
:10458000044CFFF7A3FF20680128FAD900F0F2F9E4
:10459000F7E700008015002070B50446154600209E
:1045A00023180A5C83F834200A5C12B1401C1028DE
:1045B000F6D3002684F84360082D00D30725E56272
:1045C000201D00F052F904F1180000F04EF92461AA
:1045D000C5F10800A0616462666484F8486070BD3B
:1045E00070B50024124D04EB840005EB800000F050
:1045F00031F9641C082CF6D30D48A03000F02AF9DC
:104600000B48B43000F026F90948C83000F022F910
:104610000748DC3000F01EF90548F03000F01AF9C8
:1046200003490448A03101631431416370BD0000A7
:1046300080150020A001002030B5134900E011468C
:104640000A688242FBD34B685C18844203D14068FD
:104650001844486008460D6844682318AB420DD1E1
:10466000094B103B1B689A4206D0526822444260B4
:104670000A681268026002E0036000E002608142A2
:1046800000D0086030BD0000F40100200748016B35
:104690000968002905D0016BC968C9684968816249
:1046A00070474FF0FF31816270470000A001002089
:1046B00004484068401C02D0FBF78AFDFEE7FBF788
:1046C00087FDFEE7D801002010B5044601202060D8
:1046D000084600F05BF90020206010BD2DE9F04194
:1046E0000546002600F0E8F9294F386808B9FFF7B9
:1046F00021FFF868054240D165B10835680709D047
:1047000005F00700C0F108000544680702D0FBF778
:104710005FFDFEE78DB3786885422ED81C491031C5
:104720000846046801E0214604466068A84202D2B7
:1047300020680028F7D1386884421ED00E680836F9
:10474000206808606068411B102909D96019420778
:1047500002D0FBF73DFDFEE741606560FFF76CFFAF
:1047600061687868401A7860BA68904200D2B86090
:10477000F868014361600020206000F0EDFA7007E6
:1047800002D0FBF725FDFEE73046BDE8F0810000D2
:10479000E401002020384FF08073C3618161024939
:1047A000416140F820297047B146000810B50C4619
:1047B000FEF74AF9017821290DD1417833290AD130
:1047C000C178112907D1002281180979A154521CFE
:1047D000D2B2042AF8D310BD014908707047000016
:1047E000080000202DE9F04106460F46FBF770FF58
:1047F000041E0D4618BF0120284320F00040C0F1E0
:104800007F6000F1E040C00F0ED0301C18BF0120C7
:10481000384320F00040C0F17F6000F1E040C00F5D
:1048200004BF0120FEF788FA20462946BDE8F08142
:104830000169D0E901329A60D0E901235A604A68DF
:10484000824201D182684A60002202610868401EEB
:104850000860704700F1080141604FF0FF3282604C
:10486000C160016100210160704700210161704752
:1048700030B50C68621C02D000F1080202E0026947
:1048800004E01A4653681D68A542FAD953684B6084
:1048900099608A60516008610168491C016030BDFF
:1048A00042684A6093688B609368596091600861C0
:1048B0000168491C0160704710B5FBF789FC0A4884
:1048C0004168491C4160BFF34F8FBFF36F8F406851
:1048D000012807D10548006810F0FF0F02D0FBF750
:1048E00077FCFEE710BD0000D801002004ED00E0D9
:1048F00010B508494868002807D0401E48600028C5
:1049000006D1BDE81040FBF76ABCFBF761FCFEE78F
:1049100010BD0000D801002070B500281DD0083857
:1049200004460E4D6068E968084202D1FBF750FC6E
:10493000FEE7226812B1FBF74BFCFEE7884360609C
:1049400000F0BAF860686968084468602046FFF7BC
:1049500073FEBDE8704000F0FFB970BDE4010020B7
:104960004FF0E020024941610721016170470000DA
:104970003F19010004494FF080500860BFF34F8F8A
:10498000BFF36F8F7047000004ED00E070B5024682
:104990000020002A1BD0114CE06A10B1FBF718FC74
:1049A000FEE700F089F8E06885182068001DFFF731
:1049B0003FFF38B9206890F82C1001208840216909
:1049C000814321612846FFF74DFD00F0C5F900281D
:1049D00003D1BDE87040FFF7CDBF70BDA00100203E
:1049E00070B505460C460022002D06D044B11C4E81
:1049F000F06A40B1FBF7ECFBFEE7FBF7E9FBFEE7F3
:104A0000FBF7E6FBFEE700F057F8F0682B681C4464
:104A1000834205D9A34208D9844206D9012204E081
:104A2000A34201D8844200D901222C607AB13068B7
:104A3000001DFFF7FDFE38B9306890F82C100120FA
:104A400088403169814331612046FFF70BFD00F05A
:104A500083F9002803D1BDE87040FFF78BBF70BD1C
:104A6000A00100201FB50024009401940294234665
:104A700080220DA10E48039400F08CF8012804D088
:104A800000280FD1FBF7A4FBFEE7FBF7A1FB0948C9
:104A90004FF0FF31816201214161C460BDE81F40D8
:104AA00000F03EB81FBD000049444C450000000026
:104AB00081450008A00100200248C16A491CC1626A
:104AC00070470000A001002010B5134AD06A0028EA
:104AD00002D00120D06110BD0020D0611069B0FA71
:104AE00080F0C0F11F000D4900EB800051F820302C
:104AF00073B101EB800041684968416000F108032F
:104B0000994201D1496841604068C068106010BD99
:104B1000FBF75EFBFEE70000A001002080150020EF
:104B20001CB5194908780190FF200870087800909A
:104B30009DF80000154A00F01000107007209060EA
:104B400006E09068401E90609DF8000040000090D4
:104B50009DF800000006F4D4107A000200F4E06032
:104B60009060019808700A48016841F47001016082
:104B7000016841F070410160FFF7F2FE00205060D3
:104B8000FBF7F4FA00201CBD00E400E0D80100208F
:104B900020ED00E02DE9FF4F81B08246DDE90E599E
:104BA000109990469B46BAF1000F04D0082D05D30A
:104BB000FBF70EFBFEE7FBF70BFBFEE74046FFF7BC
:104BC0006DFC04462E4F7CB3216BA8F1010001EB74
:104BD000800020F00706700702D0FBF7F9FAFEE725
:104BE000CDF800802A462046119B0299FFF7D4FC9D
:104BF0005A4651463046FFF7CDFD2060B9F1000F0F
:104C000001D0C9F80040FFF757FEB868401CB860F3
:104C1000386810B1786940B10CE03C60B868012890
:104C200008D1FFF7DDFC05E019E03868C06AA8424A
:104C300000D83C60786A401C7862E06A01213A69D9
:104C400081401143396100EB80010E4800EB810087
:104C5000211DFFF725FE0124FFF74AFE01E04FF07A
:104C6000FF34012C07D1786928B13868C06AA8429E
:104C700001D2FFF77FFE05B02046BDE8F08F0000AF
:104C8000A0010020801500200148C0687047000086
:104C9000A00100202DE9F04100252D4FF86A0028E1
:104CA00008D0B869401CB861F86900B101252846F0
:104CB000BDE8F081F868401CF860FE6876B9386B92
:104CC000006810B1FBF784FAFEE7386B796B396343
:104CD0007863386A401C3862FFF7D8FCB86ADFF89E
:104CE000748086420DD3386B006838B1386BC06869
:104CF000C468606886420ED2B86202E04FF0FF30AE
:104D0000B8623868C06A00EB800058F820000128BB
:104D1000CAD90125C8E7201DFFF78AFDA06A18B18E
:104D200004F11800FFF784FDE06A01213A6981402F
:104D30001143396100EB800008EB8000211DFFF773
:104D4000AFFDE06A3968C96A8842CCD30125CAE759
:104D5000A0010020801500202DE9F0410027284DFA
:104D6000E86A002807D0FFF7A7FDE86A401EE8625E
:104D7000E86A18B13EE0FBF72BFAFEE7A868C8B373
:104D8000DFF8808001261EE0D8F80C00C46804F12A
:104D90001800FFF74DFD201DFFF74AFDE06A2A6964
:104DA00006FA00F111432961164900EB8000C83969
:104DB00001EB8000211DFFF773FDE06A2968C96AD5
:104DC000884200D3EE61D8F800000028DCD1A86941
:104DD00038B909E0FFF75EFF00B1EE61A869401E37
:104DE000A861A8690028F5D1E869012802D1012746
:104DF000FFF7C0FDFFF77CFD3846BDE8F0810000FD
:104E0000A00100204816002000C1814001C080415F
:104E100001C0804100C1814001C0804100C181408A
:104E200000C1814001C0804101C0804100C181407A
:104E300000C1814001C0804100C1814001C080416A
:104E400001C0804100C1814001C0804100C181405A
:104E500000C1814001C0804100C1814001C080414A
:104E600001C0804100C1814000C1814001C080413A
:104E700001C0804100C1814001C0804100C181402A
:104E800000C1814001C0804101C0804100C181401A
:104E900000C1814001C0804100C1814001C080410A
:104EA00001C0804100C1814000C1814001C08041FA
:104EB00001C0804100C1814001C0804100C18140EA
:104EC00000C1814001C0804100C1814001C08041DA
:104ED00001C0804100C1814001C0804100C18140CA
:104EE00000C1814001C0804101C0804100C18140BA
:104EF00000C1814001C0804100C1814001C08041AA
:104F000001C0804100C1814000C0C101C30302C291
:104F1000C60607C705C5C404CC0C0DCD0FCFCE0EF9
:104F20000ACACB0BC90908C8D81819D91BDBDA1A69
:104F30001EDEDF1FDD1D1CDC14D4D515D71716D6D9
:104F4000D21213D311D1D010F03031F133F3F23249
:104F500036F6F737F53534F43CFCFD3DFF3F3EFEB9
:104F6000FA3A3BFB39F9F83828E8E929EB2B2AEA29
:104F7000EE2E2FEF2DEDEC2CE42425E527E7E62699
:104F800022E2E323E12120E0A06061A163A3A26209
:104F900066A6A767A56564A46CACAD6DAF6F6EAE79
:104FA000AA6A6BAB69A9A86878B8B979BB7B7ABAE9
:104FB000BE7E7FBF7DBDBC7CB47475B577B7B67659
:104FC00072B2B373B17170B05090915193535292C9
:104FD00096565797559594549C5C5D9D5F9F9E5E39
:104FE0005A9A9B5B99595898884849894B8B8A4AA9
:104FF0004E8E8F4F8D4D4C8C448485458747468619
:10500000824243834181804000080140010000004A
:1050100000080140020000000008014004000000F8
:1050200000080140080000000008014010000000D6
:10503000000801402000000000080140400000007E
:10504000000801408000000000080140000100004D
:1050500000080140000800000008014000100000A6
:10506000000C014001000000000C014002000000A3
:10507000000C014020000000000C01404000000036
:10508000000C014080000000000C01400001000005
:10509000000C014000020000000C01400004000070
:1050A000000C014000080000000C0140001000004E
:1050B000000C014000200000000C014000400000F6
:1050C000000C0140008000000010014001000000C1
:1050D0000010014002000000001001400400000028
:1050E0000010014008000000001001401000000006
:1050F00000100140200000000010014040000000AE
:105100000010014080000000001401400100000078
:1051100000140140020000000014014008000000DB
:1051200000140140100000000014014020000000A5
:105130000014014040000000001401408000000005
:1051400000140140000100000014014000020000B2
:105150000014014000040000001401400008000099
:105160000014014000100000001401400020000065
:1051700000140140004000000014014000800000C5
:10518000001801400100000000180140020000006A
:105190000018014004000000001801400800000051
:1051A000001801401000000000180140200000001D
:1051B000001801404000000000180140800000007D
:1051C000001801400001000000180140000200002A
:1051D0000018014000040000001801400008000011
:1051E00000180140001000000018014000200000DD
:1051F000001801400040000000180140008000003D
:105200000003030601040602050003051F1C1F1E00
:105210001F1E1F1F1E1F1E1F3852000800000020E7
:1052200008020000B6070008B85200080802002073
:1052300080820000282D000801981378503308025E
:105240005A80085AF8080114124413024014380115
:1052500040322062402A80143A440E293742042A00
:105260001C1412486A402732011B5804142A4C0FA0
:105270001B0210277A10646A504A49296A586469E7
:105280004F19147A6C64595219145A3064792729C9
:1052900014696412021A10142B100279E964113D8A
:1052A000020406086D2C02030404053E06070809E3
:0852B0001AAA01012800000008
:0400000508000131BD
:00000001FF
