:020000040800F2
:1000000080860020ED010008D91B0008151B0008A0
:10001000D71B0008850F00084534000800000000C9
:10002000000000000000000000000000490100087E
:1000300065150008000000008D010008DD220008A1
:1000400007020008551C000851230008B51F0008CE
:10005000070200080702000807020008070200085C
:100060000702000807020008D1150008070200086F
:10007000070200080702000807020008070200083C
:10008000070200080702000807020008070200082C
:10009000D933000807020008070200080702000819
:1000A000070200080702000807020008070200080C
:1000B00079250008070200088527000807020008C4
:1000C00007020008070200080702000807020008EC
:1000D0000702000807020008792F0008E52F000832
:1000E0006915000807020008070200080702000857
:1000F000152D000807020008852C000807020008DB
:100100000702000807020008052900080702000886
:100110000702000807020008ED2A0008B92B0008B2
:10012000070200080702000807020008070200088B
:10013000DFF810D000F0ACFA00480047EF69000883
:10014000AFF3008080860020204B19680868B0E873
:10015000F00F80F30988BFF36F8F4FF0000080F33A
:1001600011884EF00D0E7047000000000648006830
:10017000006880F3088862B661B6BFF34F8FBFF3A3
:100180006F8F00DF00BF00BF08ED00E0EFF30980D4
:10019000BFF36F8F0D4B1A6820E9F00F106008B5A0
:1001A0004FF0100080F3118807F082FA4FF0000042
:1001B00080F31188BDE8084019680868B0E8F00FBE
:1001C00080F30988BFF36F8F704700BF04020020DF
:1001D000EFF311804FF0100181F31188704780F325
:1001E00011887047EFF3058070470000064880478C
:1001F00006480047FEE7FEE7FEE7FEE7FEE7FEE70C
:10020000FEE7FEE7FEE7FEE70123000831010008F4
:10021000F0B480EA0102D40F4200B2EB410F02D2E7
:100220000246084611464A0042D0C30DDDB2C1F372
:10023000C752AD1A202D35DAC1F3160141F4000280
:1002400004B15242C5F1200602FA06F12A411044D7
:10025000B3EBD05F23D0C4B1012DA0EBC35009DCB8
:10026000F0BC4FF0004202EAC352DBB200F50000DE
:1002700000F083B9400000F1807000EBC350A0F1A2
:10028000807040EAD170490009E0490841EAC07134
:10029000A0EBC35000F50000400800EBC350F0BCD9
:1002A00000F062B96142012202EB4101001BF6E756
:1002B000F0BC704781F00041AAE780F00040A7E75A
:1002C00080EA010210B502F00043400022D04A004B
:1002D0001FD0010E01EB1261C0F35600C2F35602AB
:1002E00040F4000042F40002A0FB022000047F3929
:1002F000140400D0401C50EA124001D44000491EB2
:10030000C2B20C0604EBD010401C4008802A02D078
:1003100003E0002010BD20F00100002900DA0020D9
:10032000184310BD30B480EA010202F0004530F0FD
:10033000004221F0004013D090B1C30DD40DC2F3A0
:100340001601C0F31600E41A41F4000140F4000263
:100350007D34914201D3641C00E04900002C02DA94
:1003600030BC002070474FF400000023914201D3BD
:10037000891A034340084FEA4101F7D151B1914234
:1003800002D14FF0004105E002D24FF0010101E03F
:100390006FF0010103EBC450284430BC00F0E4B816
:1003A000420005D0C0F3C7525242914201DC002006
:1003B000704700EBC15070472DE9FE4F81EA0304FE
:1003C00004F0004421F0004100944FF0000B23F0B2
:1003D000004350EA01045ED052EA03045BD0C3F349
:1003E0000A54C1F30A552C44A4F2F3340194A0FB3F
:1003F0000254C1F3130141F48011C3F3130343F416
:10040000801301FB024400FB034E840A970A44EA6E
:10041000815447EA8357A4FB076802958D0A05FBC0
:1004200007854FEA932C04FB0C542705029D4FEAE5
:10043000065847EA1637B5EB08056EEB070C870E32
:10044000920E47EA811742EA8312A7FB0201B6EB3C
:100450000B0164EB00042B0D43EA0C335E1844EBF4
:100460001C50DA465146E7FB0201C5F313044FEA7C
:100470000B3343EA14534FEA0432019C43EA060368
:10048000A4F10C040294009CCDE900B400F0B2F891
:1004900003B0BDE8F08F00200146F9E7C10F80EA04
:1004A000E0700844CA079623002100F066B896233E
:1004B0000022114600F061B820F00040C10DC0F3E9
:1004C000160040F400007F2901DA002070479629C9
:1004D00003DCC1F19601C8407047963988407047E7
:1004E00000F0004230F000400AD0C10D01F560710B
:1004F000C0F3160042EA0151C20840071143704799
:1005000000200146704701F0004330B421F0004163
:1005100050EA010206D00A0DA2F56072C1F3130180
:10052000002A02DC30BC00207047440F44EAC104BA
:10053000C100E01830BC00EBC25000F015B800005C
:10054000002801DBC0F10040002901DBC1F10041BE
:1005500081427047002801DBC0F10040002901DB27
:10056000C1F10041884270470029A8BF7047401C74
:10057000490008BF20F00100704710B4B0FA80FCB9
:1005800000FA0CF050EA010404BF10BC704749B1F6
:10059000CCF1200421FA04F411FA0CF118BF012166
:1005A00021430843A3EB0C01CB1D4FEA00614FEA46
:1005B000102042BF002010BC704700EBC350104415
:1005C0000029A4BF10BC7047401C490008BF20F0A0
:1005D000010010BC704710B5141E73F1000408DA56
:1005E000401C41F1000192185B411A4301D120F0F7
:1005F000010010BD2DE9F04D92469B4611B1B1FAB4
:1006000081F202E0B0FA80F22032904600F052F817
:1006100004460F4640EA0A0041EA0B0153465A4697
:10062000084313D0114653EA010019D0C8F1400223
:10063000504600F04EF805460E4650465946424692
:1006400000F038F8084305D0012004E02046394680
:10065000BDE8F08D0020054346EAE0762C433743A1
:100660000A986305E40AA0EB08000022FD0A44EAA8
:1006700047540A3002D500200146E9E70105101968
:100680006941DDE9084500196941BDE8F04DA2E77F
:10069000064C074D06E0E06840F0010394E80700CF
:1006A00098471034AC42F6D3FFF746FDD47E0008DD
:1006B000F47E0008202A04DB203A00FA02F1002030
:1006C00070479140C2F1200320FA03F31943904090
:1006D0007047202A04DB203A21FA02F000217047FB
:1006E00021FA02F3D040C2F120029140084319469A
:1006F000704770B58C1810F8015B15F0070301D135
:1007000010F8013B2A1106D110F8012B03E010F874
:10071000016B01F8016B5B1EF9D12B0705D4002397
:10072000521E0DD401F8013BFAE710F8013BCB1A39
:10073000921C03E013F8015B01F8015B521EF9D52E
:10074000A142D8D3002070BD002904D0816841F0B7
:10075000010181607047816821F00101816070476B
:10076000002904D0816841F48071816070478168FC
:1007700021F4807181607047014600208968490733
:1007800000D501207047014600208968090700D57F
:100790000120704710B542680E4B1A400C790B6867
:1007A00042EA04221343436082680B4B1A40D1E9AA
:1007B000024323434C7942EA440213438360C26AF2
:1007C00022F47002097C491EC9B242EA0151C16299
:1007D00010BD0000FFFEF0FFFDF7F1FF70B507262A
:1007E00009290AD9C568A1F10A0404EB4404A6400A
:1007F000B543A3401D43C56007E0056901EB410413
:10080000A640B543A3401D4305611F23072A09D213
:10081000446B521E02EB820293409C4391400C4376
:10082000446370BD0D2A09D2046BD21F02EB820211
:1008300093409C4391400C43046370BDC46A0D3ADD
:1008400002EB820293409C4391400C43C46270BD12
:10085000816841F0080181607047002904D08168F7
:1008600041F4A00181607047816821F4A00181609A
:100870007047816841F004018160704730B50546DA
:100880000C46002D0BD0022C09D9A01EC1B228465F
:1008900001F024F9291901F8020D000A487030BD51
:1008A0000248018841F0010101807047346C00402A
:1008B0000248018841F0020101807047346C004019
:1008C00010B5012001F018FABDE81040002001F039
:1008D00013BA000001480068C0B27047A4860D42F8
:1008E000014908607047000088860D4208B5034939
:1008F000084400900098008808BD0000006C00408B
:10090000014908607047000000860D4201490860F7
:100910007047000004860D4208B5034A1044009059
:100920000098016008BD0000006C00402DE9F04710
:1009300088B00746DDE910A8DDF848900E46144659
:100940001D460121480601F0BBF98DF818408DF8CD
:1009500019508DF81760ADF814A000248DF81A40D6
:1009600001258DF81B5007948DF8164005A93846CF
:1009700000F040FC8DF80A408DF80B408DF80C50CB
:10098000ADF80040ADF80240ADF80440ADF80640C7
:10099000ADF808408DF80D50684600F051FB01227B
:1009A0000221384600F01CFC14208DF810008DF850
:1009B00011808DF812908DF8135004A801F00EF9F3
:1009C00008B0BDE8F0872DE9FE4307468846164685
:1009D0001D462821384600F02DF80121084601F077
:1009E0007DF9384600F0B0FFC4B2384600F0F8FF99
:1009F000214600F0E3FE384600F056FF009000204C
:100A00008DF804008DF8058001248DF806406846B5
:100A100000F024FE384601F015F88DF808008DF836
:100A200009608DF80A508DF80B4002A801F0D6F845
:100A3000BDE8FE8338B504460D46204600F012F8A6
:100A4000A088ADF800008DF8035003208DF8020057
:100A50006946206800F0C6FE38BD8188006889B20A
:100A600000F013BF124A0168914201D104201CE03A
:100A7000104A914201D1082017E00F4A914201D15A
:100A8000102012E00D4A914201D120200DE00C4AC5
:100A9000914201D1402008E00A4A914201D18020D0
:100AA00003E0094A914200D18815012101F016B9ED
:100AB00000080140000C01400010014000140140FA
:100AC00000180140001C0140002001402DE9F04FBA
:100AD00087B08246DDE911B8109F894616461D464B
:100AE000504600F0E3F81DB128212868FFF7A2FF67
:100AF0001FB128213868FFF79DFFBBF1000F03D01D
:100B000028212868FFF796FFB8F1000F04D02821AC
:100B1000D8F80000FFF78EFFADF810600026ADF8A2
:100B20001260ADF81490ADF8166004A9504602F0BA
:100B3000D5F94FF0010985B144F00204ADF8046025
:100B4000A888ADF80600ADF80890ADF80A60ADF8D9
:100B50000C6001A9504602F011F98FB144F0040471
:100B60000420ADF80400A888ADF80600ADF80890A0
:100B7000ADF80A60ADF80C6001A9504602F0FEF82D
:100B8000BBF1000F11D044F008040820ADF80400B8
:100B9000A888ADF80600ADF80890ADF80A60ADF889
:100BA0000C6001A9504602F0E9F8B8F1000F11D02D
:100BB00044F010040C20ADF80400A888ADF806003D
:100BC000ADF80890ADF80A60ADF80C6001A9504688
:100BD00002F0D4F844F001010122504602F014F969
:100BE0000121504602F0B1F81398FF2816D014984E
:100BF000FF2813D0504602F039F9DDE9131200F056
:100C000046F80848824502D00748824506D150463A
:100C100001F0A2FCDDE9131200F039F807B0BDE8DD
:100C2000F08F0000002C0140003401402DE9FF410D
:100C300080460A9F0C4616461D46404600F036F890
:100C4000ADF80840ADF804600021ADF80610ADF82D
:100C50000A1001A9404602F041F90122114640461E
:100C600002F0D2F80121404602F06FF8404602F04F
:100C7000FDF88DF800008DF801508DF8027001200C
:100C80008DF80300684600F0A9FFBDE8FF8108B5B4
:100C90008DF800008DF801108DF8022001208DF8EC
:100CA0000300684600F09AFF08BD00003149884201
:100CB00003D10121C01401F011B8B0F1804F06D06A
:100CC0002D49884207D10121022000F0F9BF0121FE
:100CD000084600F0F5BF2949884203D101210420CC
:100CE00000F0EEBF2649884203D10121082000F020
:100CF000E7BF2449884203D10121102000F0E0BF62
:100D00002149884203D10121202000F0D9BF1F4989
:100D1000884203D10121401400F0E0BF1C49884201
:100D200003D10121C80400F0D9BF1A49884203D178
:100D30000121080500F0D2BF1749884203D10121E3
:100D4000480500F0CBBF1549884203D1012140205E
:100D500000F0B6BF1249884203D10121802000F083
:100D6000AFBF1049884203D10121801500F0A8BF10
:100D700070470000002C01400004004000080040C3
:100D8000000C0040001000400014004000340140FE
:100D9000004C014000500140005401400018004048
:100DA000001C00400020004030B58BB00446207885
:100DB000002829D00121022000F074FF606800F0B3
:100DC00035FBA068001D00906078002508B30295EF
:100DD000A06802F0EDF90190A06802F08DFA03908E
:100DE0000495802005900695079508954FF440508E
:100DF00009900A956946606800F097FB01216068D8
:100E000000F006FB0BB030BD0121084600F04AFFA0
:100E1000D4E710200290A06802F0F8F90190A068D1
:100E200002F090FA0390DBE72DE9F04385B0064627
:100E3000DDE90C780C4615469946304600F058F826
:100E40001CB118212046FFF7F5FD1DB104212846ED
:100E5000FFF7F0FDCDF800900020ADF80400ADF8EC
:100E60000600ADF80800ADF80C000C20ADF80A0043
:100E70006946304602F03EF9DFF87090FF2F20D02F
:100E8000B8F1FF0F1DD0304602F082FA8DF8100045
:100E90008DF811708DF8128001208DF8130004A8D0
:100EA00000F09CFE4E4506D0012240F2244130461F
:100EB00002F004F905E0012240F22551304602F02B
:100EC000FDF84E450BD024B101228021304602F0BE
:100ED000CBF825B101224021304602F0C5F80121AE
:100EE000304602F0B5F805B0BDE8F0830050004090
:100EF0001149884203D10121880300F0EFBE0F4958
:100F0000884203D10121480400F0DABE0C4988422E
:100F100003D10121880400F0D3BE0A49884203D1DD
:100F20000121C80400F0CCBE0749884203D1012149
:100F3000080500F0C5BE704700380140004400407D
:100F400000480040004C00400050004070B504468E
:100F50000D461646606800F0E5FA0028FAD1002137
:100F6000606800F055FAD4E90301084300F044FA40
:100F70006068C560606846606068BDE870400121D7
:100F800000F046BAFEE700000A4A914202D1002171
:100F900081617047C1F313028B0101D5C2607047B4
:100FA0004B0101D502617047090101D5826070478C
:100FB000426070477000F03030B5082310240422DE
:100FC000B1F5007F33D011DC20292AD007DC0129BC
:100FD00022D0042923D0082900D1C46030BD402983
:100FE00021D0B1F5807FF9D1426030BD0025B1F547
:100FF000004F20D008DCB1F5806F1AD0B1F5006F3A
:10100000F3D18561426030BDB1F5803F0DD0B1F5BF
:10101000003FF8D1446030BD0849816030BDC360F5
:1010200030BD036130BD046130BD436030BD4260FE
:1010300030BD426030BD8561426030BD01010100BC
:10104000F0B5827A01219140304C226842F00102D1
:1010500022602E4D1C352A688A432A602B4A067B63
:101060000C322B4B002E14D116688E431660468826
:10107000C78846EA0746877A03EBC707C7F8406682
:101080000688878846EA0746877A03EBC707C7F8CA
:101090004466067B012E14D116680E431660428802
:1010A000068842EA0642867A03EBC606C6F8402660
:1010B000C288868842EA0642867A03EBC603C3F8F2
:1010C0004426124AC37A121D3BB113680B431360C6
:1010D0000E4A0389143223B106E013688B43136070
:1010E000F6E713688B4313600389012B02D1136861
:1010F0000B431360407B012802D128680843286015
:10110000206820F001002060F0BD00000066004073
:10111000006000400246002053690B425DD0B1F5EB
:10112000807F4AD016DC082937D009DC01292CD071
:1011300002292ED0042950D1D068082100F01DB911
:1011400010292ED0202930D0402946D110691021F5
:1011500000F013B9B1F5004F3BD00CDCB1F5007FC6
:101160002FD0B1F5806F30D0B1F5006F35D19069D7
:10117000702100F002B9B1F5803F1AD0B1F5003FFF
:101180002BD15068102100F0F8B89068134900F096
:10119000F4B8D068032100F0F0B8D068102100F056
:1011A000ECB81069032100F0E8B81069082100F0DC
:1011B000E4B85068082100F0E0B89069012100F01F
:1011C000DCB89069022100F0D8B89069042100F0E1
:1011D000D4B85068042100F0D0B870470101010074
:1011E000002A03D042690A434261704742698A4338
:1011F0004261704710B50022036823F002030360C8
:10120000036843F0010303604FF6FF7300E0521CD4
:101210004468E40701D19A42F9D14268D2073ED02E
:101220008A79012A3DD0026822F080020260CA79E0
:10123000012A3BD0026822F0400202600A7A012AA9
:1012400039D0026822F0200202604A7A012A37D09F
:10125000026822F0100202608A7A012A35D0026800
:1012600022F008020260CA7A012A33D0026822F012
:10127000040202608A78CC78920742EA04620C7910
:1012800042EA04424C79098842EA0452491E0A4360
:10129000C261016821F001010160002120E000200D
:1012A00010BD026842F080020260C0E7026842F0AE
:1012B00040020260C2E7026842F020020260C4E716
:1012C000026842F010020260C6E7026842F00802BB
:1012D0000260C8E7026842F004020260CAE7491CE3
:1012E0004268D20701D09942F9D14068C00701D0C5
:1012F000002010BD012010BD10B500EB0113D3F884
:10130000B04104F004041472002C2CD0D3F8B04186
:10131000E408546003F5D8731C6804F002045472A6
:101320005C6804F00F0494725C68240AD4749C68AE
:10133000D4729C68240A14739C68240C54739C68AF
:10134000240E9473DC68D473DC68240A1474DC689B
:10135000240C5474DB681B0E937449B1016941F08D
:101360002001016110BDD3F8B041640D1460D1E7D4
:10137000C16841F02001C16010BD024600200A4250
:1013800000D00120704700000122064B8240002956
:1013900003D01868104318607047186890431860AD
:1013A000704700000074004030B5084C236840F6D8
:1013B000FE7282409343D1E900252A43D1E90251CC
:1013C0000D432A4382401A43226030BD007400401E
:1013D00008B5034A1044083000900098016008BD29
:1013E0000074004008B5034A10441430009000987F
:1013F000016008BD00740040C10002D502490860C8
:1014000070470249486070470404024000000240EF
:10141000002904D0016841F00101016070470168B2
:101420004FF6FE72114001607047000001684FF6F0
:10143000FE72114001600021016041608160C16065
:101440003649364A0839904204D1486840F00F00C6
:1014500048607047314A1432904204D1486840F0E5
:10146000F000486070472D4A2832904204D1486805
:1014700040F4706048607047284A3C32904204D182
:10148000486840F4704048607047244A50329042A7
:1014900004D1486840F47020486070471F4A6432A5
:1014A000904204D1486840F47000486070471B4A7D
:1014B0007832904204D1486840F0706048607047CC
:1014C000174A111F904204D1086840F00F000860CD
:1014D0007047134A1432904204D1086840F0F0007B
:1014E000086070470E4A2832904204D1086840F4E0
:1014F0007060086070470A4A3C32904204D1086824
:1015000040F4704008607047054A50329042FAD16A
:10151000086840F47020086070470000080002402E
:1015200008040240406880B2704730B5026847F650
:10153000F0739A430C6A8B682343D1E904452C432A
:1015400023438C692343CC6923434C6A23438C6A2D
:10155000234313430360CA6842600A688260496893
:10156000C16030BD7047000070B54FF4006528467B
:1015700000F064F8002825D004F018FA03281CD0E5
:1015800011480124046004F081FA0078A8B904F03D
:101590007DFA047004F006FA90F83C4004F002FA78
:1015A00080F83D4004F002FA0849087004F0FAF9A6
:1015B00090F83C10042005F085FD2846BDE87040F9
:1015C00000F036B870BD0000AC8122426F000020F0
:1015D00070B5102000F032F8002827D004F0E2F9AE
:1015E000816B41F48061816304F09EFA407C0125A7
:1015F00010B904F099FA457404F096FA817C491CFC
:10160000817404F0DDF9044600684FF0FF31FEF705
:10161000C7FE206004F0D4F9057404F0D1F900216C
:10162000C160BDE87040102000F002B870BD00003D
:101630000149086070470000140401400146002081
:10164000054A12680A40044B14331B680B4202D04F
:10165000002A00D0012070470004014030B51B4A29
:1016600083790168002B2AD013688B431360111D06
:101670000B680468A3430B60017911440B6804688C
:1016800023430B60114C083421680368994321609F
:10169000231D19680568A94319604179102905D0EF
:1016A00011440A68006802430A6030BD216802687C
:1016B00011432160196800680143196030BD007949
:1016C000104402688A43026030BD000000040140FB
:1016D0000149C860704700000020024070B505460F
:1016E0004FF43026304600F059F8042811D1094C47
:1016F000206940F0020020616561206940F04000EF
:101700002061304600F04AF8216941F6FD7211402F
:10171000216170BD0020024004200849CA68D20738
:1017200001D001207047CA68520701D502207047D6
:10173000C968C906FBD5032070470000002002409D
:101740000248016941F080010161704700200240B8
:10175000F0B506460D464FF40057384600F01EF827
:1017600004280CD1064C206940F00100206135802E
:10177000384600F013F82169BA1E11402161F0BD0E
:10178000002002400348024941600349416070471C
:101790002301674500200240AB89EFCD00B5034629
:1017A000FFF7BAFF02E0FFF7B7FF5B1E012801D188
:1017B000002BF8D1002B00D1052000BD10B58A0701
:1017C000120F0F23934021F00304054921448C6834
:1017D0009C438C608B68904003438B6010BD00007D
:1017E000000001402DE9F0410022CC7804F00F0305
:1017F000E40601D58C7823430C784FF00F0714F0E2
:10180000FF0F4FF0010C1CD005680CFA02F40E8893
:101810002640A64211D1960007FA06F825EA0805E7
:1018200003FA06F848EA0505CE78282E02D0482E9D
:1018300002D002E0446100E00461521C082AE4D3B3
:1018400005600A88FF2A1ED94568002202F10806B1
:101850000CFA06F40E882640A64210D1960007FA2C
:1018600006F825EA080503FA06F848EA0505CE78E1
:10187000282E00D14461CE78482E00D10461521C3C
:10188000082AE3D34560BDE8F08141F480328261EB
:101890008161826181698069704702460020926897
:1018A0000A4200D00120704741684FF48072914293
:1018B0003ED014DC102935D009DC01292CD00229B6
:1018C0002CD004292CD0082900D1082070472029C9
:1018D0002AD040292AD08029F8D1802070474FF49F
:1018E000805291422AD00BDC4FF40072914221D0F9
:1018F0005200914220D052009142EFD110467047E1
:101900004FF4005291421BD0520091421AD0520023
:101910009142F4D110467047012070470220704771
:1019200004207047102070472020704740207047E7
:101930001046704710467047104670471046704773
:1019400010467047104670474168B1F5807F3BD024
:1019500014DC102932D009DC012929D0022929D030
:10196000042929D0082900D103207047202927D035
:10197000402927D08029F8D107207047B1F5805F32
:1019800028D00ADCB1F5007F20D0B1F5806F1FD0E0
:10199000B1F5006FF1D10B207047B1F5005F1BD09E
:1019A000B1F5804F1AD0B1F5004FF5D10F20704737
:1019B00000207047012070470220704704207047C4
:1019C000052070470620704708207047092070479F
:1019D0000A2070470C2070470D2070470E2070477A
:1019E000114A0168914201D1002070470F4A91428B
:1019F00001D1012070470E4A914201D10220704767
:101A00000C4A914201D1032070470B4A914201D107
:101A100004207047094A914201D105207047084AC5
:101A20009142FBD10620704700080140000C0140A4
:101A3000001001400014014000180140001C01404A
:101A4000002001404168B1F5807F3BD014DC1029B3
:101A500032D009DC012929D0022929D0042929D032
:101A6000082900D109207047202927D0402927D0F4
:101A70008029F8D117207047B1F5805F28D00ADCA3
:101A8000B1F5007F20D0B1F5806F1FD0B1F5006FA8
:101A9000F1D128207047B1F5005F1BD0B1F5804F20
:101AA0001AD0B1F5004FF5D12820704706207047B5
:101AB00007207047082070470A207047172070479A
:101AC000172070471720704717207047282070474D
:101AD00028207047282070472820704770B5FF22C3
:101AE000FF23002801D0022902D84FF6FF7070BDF5
:101AF000074D05F5807605E010F8014B54402A5D4E
:101B00005A40335D491EC9B2F6D243EA022070BD85
:101B1000F079000806A30020104C211F1A5C2280D7
:101B20000A885206FCD5401CC0B22A28F6D3FEE72C
:101B30000D0A456E74657220486172644661756C69
:101B4000745F48616E646C65722C205379737465A0
:101B50006D2048616C742E0D0A00000004380140AD
:101B600002494CF6CC40086070470000003000404D
:101B7000AFF3008002494AF6AA20086070470000CF
:101B800000300040014948607047000000300040CC
:101B9000014988607047000000300040014908603A
:101BA0007047000000300040810701D000207047DE
:101BB0006421B0FBF1F201FB120109B10120704771
:101BC0004FF4C871B0FBF1F201FB120008B1002024
:101BD000704701207047FEE77047000070B50F2383
:101BE000C27801260178002A1ED0144A126802F435
:101BF000E062C2F5E062120AC2F10404D340457803
:101C0000A54082781A402A43120101F1E02181F8AF
:101C10000024007800F01F018E404009800000F190
:101C2000E020C0F8006170BD01F01F008640480947
:101C3000800000F1E020C0F8806170BD0CED00E094
:101C40000249084302490860704700000000FA0595
:101C50000CED00E010B54FF48030FFF7E9FC03F025
:101C600063FF0021017003F05FFF0178BDE81040C1
:101C70000820FEF751BE00000149086270470000CD
:101C800000000E42014908617047000000000E424A
:101C9000034A116821F0E001014311607047000020
:101CA00000700040054A002903D051690143516189
:101CB0007047516981435161704700000010024034
:101CC000054A002903D0D1690143D1617047D16928
:101CD0008143D1617047000000100240054A00298D
:101CE00003D091690143916170479169814391618A
:101CF0007047000000100240014908607047000072
:101D00004004424210B5264A516801F00C01254BAF
:101D1000002927D0042927D0082927D0036051683B
:101D200001F0F0010909204B5C5C0168E140416071
:101D3000546804F4E064240A1C5D21FA04F484600D
:101D4000546804F46054E40A1B5DD940C1605268D1
:101D500002F44042920B144B1B1F9A5CB1FBF2F150
:101D6000016110BD0360DAE70360D8E7516801F450
:101D70007011536803F48033022404EB914133B1B2
:101D800053689B0307D5094B59430160C7E7074BCD
:101D900059430160C3E7034B59430160BFE70000AB
:101DA0000010024000127A00F201002000093D00FC
:101DB000034600205909094A01290AD002290AD0FC
:101DC000516A03F01F02012393400B4200D001200F
:101DD00070471168F5E7116AF3E700000010024050
:101DE000084900220A7001F82029012805D004289A
:101DF00002D1052081F820007047012081F82000E1
:101E00007047000020100240014908607047000040
:101E10003C04424202490A6A02430A6270470000D7
:101E20000010024002490A8882430A80704700007D
:101E3000042800400248018841F0100101807047E9
:101E4000042800400248018821F0100101807047F9
:101E5000042800402DE9F04700F06AF80646304FAC
:101E6000B6FBF7F32F48304D0188994231D00380FB
:101E700040F2B2744FF4B7784FF4B6790FE02046D1
:101E8000FFF792FE38B1434502D3A3F5B77304E0E0
:101E9000641CA4B205E0A3F26D13641CA4B24B450C
:101EA000EDD8AC800024DFF884800CE0A888FFF730
:101EB0007BFE08B1012C2FD018F80400984204D8FA
:101EC0001B1A641CA4B21C2BF0D2641CAC715B1CEA
:101ED000EB71B6FBF7F007FB10604FF46161B0FBEC
:101EE000F1F22A70B0FBF1F201FB12033C22B3FBCA
:101EF000F2F36B70B0FBF1F301FB1300B0FBF2F1F6
:101F000002FB1100A870EA79A979A88800F02AF8E4
:101F100028720020BDE8F0871D2BD6D31D3BD0E7EB
:101F200080510100EC01002070170020C87E0008DD
:101F3000034800880249091F098840EA01407047A8
:101F40001C28004006490988C2B21140044A121FE9
:101F50001288024202D009B1012070470020704768
:101F60000428004030B56423B0FBF3F4E4B2B0FBC6
:101F7000F3F503FB1500132C01D96430C0B200EB5C
:101F800090030724B3FBF4F504FB1533084D1A4402
:101F90000D4415F8015C2A4492B2800703D103294D
:101FA00001D2521E92B2B2FBF4F004FB102030BDFD
:101FB000BC7E000810B50120FFF7C4FF002865D0E3
:101FC00003F0F0FCC16D491CC16503F0EBFCC06D72
:101FD000B0F5616F08D303F0E5FC016E491C0166A2
:101FE00003F0E0FC0021C16503F0DCFC006E05217C
:101FF000B0FBF1F201FB120078B903F0D3FC006EE4
:1020000058B103F0CFFC446E03F0CCFC006E844268
:1020100003D003F089FD0121817303F0C3FC006E3E
:102020001821B0FBF1F201FB120030BB03F0BAFC47
:10203000006E10B303F0B6FC446E03F0B3FC006E08
:1020400084421AD003F0AEFC806E20B103F0AAFCEB
:10205000816E491E816603F0A5FCC06E20B103F0BD
:10206000A1FCC16E491EC16603F09CFC006F20B14B
:1020700003F098FC016F491E016703F093FC046EA6
:1020800003F090FC44660520FFF7CCFE0220FFF72A
:1020900059FF30B105480168491C01600220FFF773
:1020A000C1FEBDE8104000F0ABB8000020010020E8
:1020B000054A002903D01188014311807047118817
:1020C00081431180704700000028004008B50322BA
:1020D0008DF800208DF801008DF8021001208DF898
:1020E00003006846FFF77AFD08BD00002DE9F05FA8
:1020F0000646DDF828A0894690460024A6F2B27074
:10210000822802D30120BDE8F09F40F2B275284F2B
:10211000DFF8A0B008E02846FFF746FD08B13C44D0
:1021200000E05C446D1CADB2B542F4D3A9F10109E5
:1021300009F0FF070025DFF88090DFF880B00FE09E
:1021400019F8050040F2A321484304EBC0143046BF
:10215000FFF72AFD10B1012D00D15C446D1CADB21A
:10216000BD42EDD3A8F1010840F2A32008FB00F81E
:1021700004EBC810C3EB4311C1EB032100EB0110CA
:10218000CAEB0A1100EB81000B99441801214FF0B2
:10219000C050FFF795FD0120FFF76EFD204600F0CF
:1021A0000FF800F02DF8FFF755FE0020ABE7000018
:1021B0000085E2018033E101C87E00088051010002
:1021C00000B50246FFF736FE0449100C0880081DD2
:1021D00002805DF804EBFFF735BE000018280040D0
:1021E00000B50246FFF726FE0449C2F3034008800B
:1021F000081D02805DF804EBFFF724BE08280040AC
:10220000024801888906FCD5704700000428004078
:102210000448018821F00801018001880907FCD5E4
:102220007047000004280040AFF300800CB5002286
:10223000019200922748016841F4803101604FF417
:10224000A063016801F4003100910199491C0191DA
:10225000009911B901999942F3D10168890302D516
:102260000121009100E000920099012930D11A4922
:102270000A6842F010020A600A6822F003020A604B
:102280000A6842F002020A604168416041684160A8
:10229000416841F480614160416821F47C114160F2
:1022A000416841F4E8114160016841F080710160CA
:1022B00001688901FCD5416821F003014160416852
:1022C00041F0020141604168C1F381010229FAD164
:1022D0000CBD0000001002400020024010B5FDF7C8
:1022E00077FF05F0CBFA18B104494FF08050086031
:1022F000BDE810400020FDF772BF000004ED00E0D3
:1023000010B50F48016841F00101016041680D4AB4
:102310001140416001680C4A11400160016821F4DC
:1023200080210160416821F4FE0141604FF41F01EA
:102330008160FFF779FF05494FF00060086010BD2C
:10234000001002400000FFF8FFFFF6FE08ED00E07D
:1023500010B5FEF7BFFA00280AD003F023FB0121D5
:1023600080F87610FEF7A4FABDE81040FEF798BAA0
:1023700010BD000070B5048C24F001040484058BAA
:10238000048C25F0F3054FF6FF7606EA031313439A
:102390002B43104A90420ED00F4A90420BD0B0F11E
:1023A000804F08D00D4A904205D00D4A904202D08D
:1023B0000C4A904205D124F002020A4342F0010186
:1023C00004E024F00A020A4342F00101038301847D
:1023D00070BD0000002C01400034014000040040AA
:1023E00000080040000C0040F0B5048C24F01004FC
:1023F0000484068B048C4FF6FF7505EA011726F45A
:10240000734605EA0333334305EA02221A43104BAD
:1024100098420ED00F4B98420BD0B0F1804F08D0AD
:102420000D4B984205D00D4B984202D00C4B984270
:1024300005D124F02001394341F0100104E024F0DB
:10244000A0030B4343F0100102830184F0BD0000A0
:10245000002C01400034014000040040000800400E
:10246000000C0040F0B5048C24F480740484858B47
:10247000048C4FF6FF7707EA012625F0F30507EAFB
:10248000031313432B43104A90420ED00F4A90423D
:102490000BD0B0F1804F08D00D4A904205D00D4AC4
:1024A000904202D00C4A904205D124F4007131438D
:1024B00041F4807104E024F420620A4342F4807104
:1024C00083830184F0BD0000002C014000340140F2
:1024D0000004004000080040000C0040F0B5048CEF
:1024E00024F480540484868B048C4FF6FF7505EA2F
:1024F000013726F4734605EA0222324305EA033324
:102500001343104A90420ED00F4A90420BD0B0F1C4
:10251000804F08D00D4A904205D00D4A904202D01B
:102520000C4A904205D124F40051394341F48051C2
:1025300004E024F402420A4342F48051838301847C
:10254000F0BD0000002C01400034014000040040B8
:1025500000080040000C00400146054A914201D1AC
:102560001B207047034A9142FBD12E207047000088
:10257000002C01400034014070B501218D07284630
:1025800000F0EFFB00287DD003F00CFA90F83E003D
:10259000002430B103F006FA30F8401F491C0180D6
:1025A00003E003F0FFF9A0F8404003F0BDFAC07B60
:1025B0000A2816D303F0B8FA01780820FEF7ACF920
:1025C00003F0F4F901460C20FEF7A6F903F0EAF94E
:1025D00090F83C101020FEF79FF903F0A5FAC473A1
:1025E00004E003F0A1FAC17B491CC17303F09CFA1B
:1025F000407B60B103F098FA017B491C017303F042
:1026000093FA007BC82802D303F08EFA447303F0D8
:1026100053FA90F83C0060B903F0CEF9407940B924
:1026200003F04AFAC46055488481C4810460446060
:10263000046103F041FA90F8440060B903F0BCF97A
:10264000407940B903F038FA04614D488481C4816F
:1026500004604460046103F02FFA90F83C0080B1FC
:1026600003F0AAF9407960B903F026FA016C491E1B
:10267000016403F021FA006C18B903F01DFA80F828
:102680003C4000E078E003F017FA90F8440080B195
:1026900003F092F9407960B903F00EFA816C491E9B
:1026A000816403F009FA806C18B903F005FA80F828
:1026B000444003F0EBF9407848B103F0FDF990F89D
:1026C000240003F0FDF9064603F0E0F9466003F04C
:1026D0002BFA407C0126F8B103F026FA4169491C27
:1026E000416103F021FA406941F27071884214D2CD
:1026F00003F01AFA807C052823D303F015FA007C36
:1027000050B903F011FA067403F050F9052818D0F7
:102710000021052004F0D6FC13E003F005FA446123
:1027200003F002FA447403F0FFF9807C052808D214
:1027300003F0FAF9847403F035F9816B21F48061B8
:10274000816303F02FF9007880B903F02BF9416819
:10275000491C416003F026F94068B0F5167F05D3A7
:1027600003F020F9446003F01DF906702846BDE827
:102770007040012100F0E6BA70BD00008008002022
:10278000980800202DE9F05FDFF864A10121504690
:1027900000F0E7FA574C584D58B1216809B1491C6F
:1027A0002160296809B1491C29600121504600F0C7
:1027B000C9FA0221504600F0D4FA0027DFF83C9114
:1027C0000126C8B303F0F8F8407958B903F074F95A
:1027D00080F83C6003F070F9D0F84C8003F06CF99D
:1027E000C0F84080DFF80881206808F1340820B381
:1027F000B8F80010E181401EE189C0EB00400844B8
:10280000A189401A2061FDF752FE01464846FDF7B6
:1028100089FD606003F050F901686068FDF750FDC4
:102820003749FDF74DFD834603F046F9C0F80CB07B
:102830002760A8F8007004E014E0B8F80000A08158
:10284000266003F0B9F8407940B103F01BF9067037
:1028500003F018F9446803F015F98460022150462A
:1028600000F070FA0421504600F07BFA00283CD0BA
:1028700003F0A2F8407948B903F01EF980F84460EB
:1028800003F01AF9C46C03F017F98464184C286833
:10289000383400B32188E981401EE989C0EB00404B
:1028A0000844A989401A2861FDF701FE01464846FF
:1028B000FDF738FD686003F0FFF841686868FDF7D0
:1028C000FFFC0F49FDF7FCFC064603F0F5F8066136
:1028D0002F60278003E027802088A8812E60504643
:1028E000BDE8F05F042100F02DBABDE8F09F0000C4
:1028F0000008004080080020980800200050C347CE
:102900000000704270B5774E0121304600F029FA80
:10291000002870D003F04AF80024032804D003F004
:1029200045F8022828D0D5E003F03CF890F83400B0
:10293000F0B103F045F8007C0028F4D103F040F832
:10294000C068694988420DD303F03AF8C46003F0C7
:1029500037F8044603F034F841682068FDF758FC66
:102960002060B7E003F02CF8C168491CC160B1E0F9
:1029700003F026F8C460ADE003F01EF840790028AB
:1029800075D003F07FF800780028CCD003F07AF8F7
:10299000806878B303F076F88168491E816003F09F
:1029A0000BF8006A0A285BD303F006F8046203F010
:1029B00069F800F10C0403F065F801692068FDF77F
:1029C00027FC206003F05AF80078032103F062F836
:1029D000B0B102F0F1FF446903F054F8C068214639
:1029E000FDF7B8FD76D202F0E7FF446903F04AF83C
:1029F000C4606FE000E073E003F044F80470CEE7D9
:102A000002F0D0FF90F84200C8B102F0D5FF807903
:102A100002F0E0FF044602F0CFFF846002F0CCFF3A
:102A2000846803F02FF8C0682146FDF793FD51D864
:102A300002F0C2FF846803F025F8C4604AE002F0A7
:102A4000BBFFC46803F01EF8C0682146FDF782FD95
:102A500040D202F0B1FFC46803F014F8C46039E05A
:102A600002F0AAFF016A491C016233E0FFE703F0AC
:102A700005F80078032103F00DF870B902F09CFF0F
:102A8000006A0A2804D302F097FF007F01280FD0C4
:102A900002F092FF016A491C016203F00DF890F800
:102AA0005000A0B103F008F8C16D491CC16511E0E8
:102AB00002F082FF046202F0FFFF00F11C0502F049
:102AC000FBFF816A2868FDF7A3FB2860E5E702F0B9
:102AD000F3FFC4653046BDE87040012100F032B913
:102AE00070BD0000000C0040E093040070B5234D61
:102AF0000121284600F035F900283ED0204C2078EE
:102B000020490A2801D3087828B120780A282ED233
:102B1000087818B12BE00120087028E003F008F8CD
:102B2000194800681949227841F8220018480068BD
:102B30001849227841F8220017480168174A20787E
:102B400042F82010164800681649227841F8220001
:102B5000154800681549227841F822001448006899
:102B60001449227841F822002178491C2170284616
:102B7000BDE87040012100F0E5B870BD00100040D4
:102B800093000020920000209C000020A00600205E
:102B9000A0000020C8060020A4000020F0060020AD
:102BA000A800002018070020AC00002040070020EB
:102BB000B00000206807002070B5234D0121284691
:102BC00000F0CFF800283ED0204C207820490A2879
:102BD00001D3087828B120780A282ED2087818B1B5
:102BE0002BE00120087028E002F0EEFF1948006891
:102BF0001949227841F822001848006818492278BB
:102C000041F8220017480168174A207842F820103E
:102C1000164800681649227841F8220015480068D5
:102C20001549227841F82200144800681449227896
:102C300041F822002178491C21702846BDE87040E7
:102C4000012100F07FB870BD001400409500002005
:102C500094000020B400002090070020B80000205D
:102C6000B8070020BC000020E0070020C0000020C2
:102C700008080020C400002030080020C800002000
:102C8000580800202DE9F0411E4F0221384600F07F
:102C900068F8002834D01C4C1A4E343620680025C1
:102CA00018B33188E181401EE189C0EB004008443F
:102CB000A189401A2061FDF7FAFB01461348FDF790
:102CC00031FB6060217D124A42F821002560491CD9
:102CD000C8B2207535800A280CD30A21104603F0AB
:102CE000CFFEA0602575656004E035803088A08146
:102CF000012020603846BDE8F041022100F022B8F2
:102D0000BDE8F08100340140B0080020001BB74945
:102D1000C808002010B5094C0121204600F021F818
:102D200000280AD00649086808B1401C08602046FF
:102D3000BDE81040012100F005B810BD003401408D
:102D4000B0080020C94301827047002904D00188DF
:102D500041F0010101807047018821F001010180EB
:102D6000704702460020138A0B4092890A40002BCC
:102D700002D0002A00D001207047000070B505463F
:102D80000C461D48854209D01C48854206D0B5F145
:102D9000804F03D01A48854200D01A4820886188A5
:102DA000A288238960B1042813D008281AD02846A5
:102DB000FFF794FBE1882846BDE8704000F04AB870
:102DC0002846FFF7D7FAE1882846BDE8704000F0B2
:102DD00025B82846FFF708FBE1882846BDE8704083
:102DE00000F024B82846FFF73DFBE1882846BDE8FF
:102DF000704000F027B80000002C01400034014072
:102E00000004004000080040002A03D082890A43E1
:102E10008281704782898A4382817047028B22F0C7
:102E20000C020283028B0A4302837047028B22F456
:102E300040620283028B4FF6FF7303EA01210A43CB
:102E400002837047828B22F00C028283828B0A43BA
:102E500082837047828B22F440628283828B4FF69A
:102E6000FF7303EA01210A43828370470146B1F1EF
:102E7000804F04D0124A914203D11D2070471C207C
:102E80007047104A914201D11E2070470E4A91426C
:102E900001D1322070470D4A914201D1362070474E
:102EA0000B4A914201D1372070470A4A914201D121
:102EB00019207047084A9142FBD12C20704700002E
:102EC0000004004000080040000C004000100040DA
:102ED00000140040002C01400034014030B502884D
:102EE0001B4C1C4DA0420DD0A8420BD0B0F1804F1E
:102EF00008D0194B984205D0184B984202D0184B75
:102F0000984203D122F070034A881A43154B984225
:102F100006D0154B984203D022F44073CA881A4356
:102F200002808A8882850A880285A0420AD0A84247
:102F300008D00E4A904205D00D4A904202D00D4A68
:102F4000904201D1097A01860121818230BD0000C1
:102F5000002C014000340140000400400008004003
:102F6000000C0040001000400014004000400140F0
:102F7000004401400048014070B5164D40F2244124
:102F8000284600F07BF8002823D02888281D0088D8
:102F9000114E00213046FEF73BFA3046FEF7C2FAEA
:102FA000C0F1400084B24FF4C000FEF725FA0A4990
:102FB00040206C39086701213046FEF729FA002CC1
:102FC00007D00649284603F033F905480168491C33
:102FD000016070BD004400406C0002408D00002084
:102FE0001C01002070B5164D40F22441284600F027
:102FF00045F8002822D02888281D0088114E00217D
:103000003046FEF705FA3046FEF78CFAC0F5007040
:1030100084B26020FEF7F0F90A4968151C39C865CA
:1030200001213046FEF7F4F9002C07D00649284666
:1030300004F032F805480168491C016070BD0000C9
:10304000004800401C000240140100201C01002028
:10305000002904D0818941F4005181817047818920
:1030600021F4005181817047002A03D0828A0A43EB
:1030700082827047828A8A438282704770B50024B8
:1030800040F66A12C1F3421301F01F05012606FA49
:1030900005F2012B0CD0022B0DD0838A1340090AB4
:1030A0008E40008830400BB100B10124204670BD35
:1030B00083891340F3E7038A1340F0E710B540F625
:1030C0006A13C1F3421301F01F040121A140012B37
:1030D00007D0022B07D014303AB102680A430260CD
:1030E00010BD0C30F8E71030F6E702688A43026042
:1030F00010BD000030B585B004460D46208A4CF660
:10310000FF710840E98801432182A0894EF6F3113E
:103110000840A9882A8911436A8902431143A18181
:10312000A08A4FF6FF410840A9890143A182684661
:10313000FEF7E8FD1D48844201D1039800E00298A3
:10314000A189090408D500EBC00101EB0010296832
:103150004900B0FBF1F007E000EBC00101EB00100B
:1031600029688900B0FBF1F06422B0FBF2F109019B
:103170000B096FF018056B4300EB8300A3891D0456
:103180004FF0320307D503EBC000B0FBF2F000F0C4
:103190000700084306E003EB0010B0FBF2F000F07C
:1031A0000F000843208105B030BD00000038014009
:1031B00001460D4A914201D10C4870470C4A914298
:1031C00001D10C4870470C4A914202D10948403065
:1031D00070470A4A914201D109487047094A914211
:1031E000FBD109487047000000380140F00800207A
:1031F00000440040F009002000480040004C00401E
:10320000300C002000500040300E002001460D4AD6
:10321000914201D10C4870470C4A914201D10C48AF
:1032200070470C4A914202D10948403070470A4A1F
:10323000914201D109487047094A9142FBD109489E
:10324000704700000038014030100020004400406A
:103250003011002000480040004C00407013002056
:103260000050004070150020F0B502461C4C1D4B6C
:103270001D4D1E4E1E4F802905D0402902D1A2426D
:103280001AD11C48F0BDA24202D11A486438F0BDE0
:103290009A4202D117485038F0BDAA4202D11548CF
:1032A0003C38F0BDB24202D112482838F0BDBA42D3
:1032B000FCD110481438F0BD9A4202D10D481430A8
:1032C000F0BDAA4202D10B482830F0BDB24202D173
:1032D00008483C30F0BDBA42FCD106485030F0BD41
:1032E000003801400044004000480040004C0040CD
:1032F000005000408801002001460D4A914201D152
:10330000801570470B4A914201D1402070470A4B0B
:103310005A15994201D110467047084B994201D184
:1033200010467047064B9942FBD11046704700008B
:10333000003801400044004000480040004C00407C
:103340000050004001460D4A914201D1801570475E
:103350000B4A914201D1402070470A4B5A159942BD
:1033600001D110467047084B994201D11046704771
:10337000064B9942FBD110467047000000380140CF
:103380000044004000480040004C00400050004015
:1033900001460C4A914201D1252070470A4A9142C8
:1033A00001D126207047094A914201D12720704758
:1033B000074A914201D134207047064A9142FBD11D
:1033C000352070470038014000440040004800406C
:1033D000004C00400050004010B586B0144C022153
:1033E0002046FDF797FE002820D004212046FDF757
:1033F000E3FD10492046FDF7C7FD01AA0021204644
:10340000FDF77AFF0198A0F50070093806D0012871
:1034100008D1094901A801F092FD03E0074901A87C
:1034200001F08DFD06480168491C016006B010BD21
:1034300000640040080000327A0000208200002072
:1034400018010020FEE730B505460C46002D01D0DE
:10345000022C01D8002030BDA01EC1B22846FEF7C4
:103460003DFB2919C2B211F8023C9A4206D111F86B
:10347000011CB1EB102F01D1012030BD002030BD67
:1034800002E008C8121F08C1002AFAD1704770472D
:10349000002001E001C1121F002AFBD1704700008B
:1034A0002DE9F0416D4C6068FDF701F86C4D29463F
:1034B000FCF706FF064602F075FA066102F0DEFA36
:1034C000217A0170E068FCF7F2FF064602F074FA18
:1034D0000661A069FCF7EBFF2946FCF7F1FE064602
:1034E00002F0EAFA46632069FCF7E1FF2946FCF79F
:1034F000E7FE064602F0E0FA06626069FCF7D7FFD5
:103500002946FCF7DDFE064602F04CFA4662206AC8
:10351000FCF7CDFF2946FCF7D3FE064602F042FA3F
:103520008662E069FCF7C3FF2946FCF7C9FE064640
:1035300002F042FA466102F0BFFAA16B416502F067
:10354000A1FAE16B416002F0B7FA216CC16402F0AC
:10355000B3FA616C8165A06CFCF7A9FF2946FCF702
:10356000AFFE064602F092FA0661E06CFCF79FFFA0
:103570002946FCF7A5FE064602F088FA466102F0ED
:1035800011FA216DC16502F00DFA616D016602F05C
:1035900009FAA16D816602F005FAE16DC16602F0DB
:1035A00001FA216E016702F0FDF9616E816702F098
:1035B000F9F9A16EC16702F0F5F9E16EC0F880106B
:1035C00002F0F0F9216FC0F88410206BFCF76FFF58
:1035D0008046606AFCF76BFF224F3946FCF770FEAD
:1035E000214E3146FCF76CFE4146FCF79BFE8046BF
:1035F00002F062FAC0F80080606BFCF758FF80466A
:10360000A06AFCF754FF3946FCF75AFE3146FCF736
:1036100057FE4146FCF786FE064602F04DFA46602C
:1036200002F0C0F900694FF0FF31FCF7B9FE064621
:1036300002F0C6F98660E06AFCF739FF2946FCF71C
:103640003FFE054602F038FA056302F0ABF994F844
:10365000741080F85010BDE8F0810000A002002036
:103660000AD7233CACC52737DB0F494070B501248E
:10367000064E074D06EB840105EB4400022201F0E3
:10368000C7FB641CE4B21E2CF4D370BDA002002062
:103690000030030870B50024064E074D06EB840188
:1036A00005EB4400022201F0EDFB641CE4B21E2C89
:1036B000F4D370BDA00200200030030810B500F064
:1036C000BBFD01F0C9FA00F005FF00F00FF9BDE8FD
:1036D00010400148FEF716BB6802002070B526486E
:1036E0000221016040F6C41242600021816019236A
:1036F000C3600261416147F2305383616424C46155
:103700004FF4967282634FF4AF75C56302644264EE
:103710004FF47A728264C2643222026249F64045F2
:10372000456283624FF4FA73C36202634FF400721E
:103730004263016541658465FA22C26540F26D12FB
:1037400002660E4A426640F27F72826640F22A3278
:10375000C26601674167022209490A4801F058FB25
:1037600007480078FF2803D0BDE87040FFF77EBF10
:10377000BDE87040FFF78EBFA002002052BF0100DD
:103780006D0000200030030810B50A21144803F032
:1037900077F9144908600A21134803F071F91349B5
:1037A00008600A21124803F06BF9124908600A21E7
:1037B000114803F065F9114908600A21104803F027
:1037C0005FF9104908600A210F4803F059F90F49C1
:1037D00008600F49002008700E49087010BD0000F5
:1037E000A0060020CC000020C8060020D000002049
:1037F000F0060020D400002018070020D800002088
:1038000040070020DC00002068070020E0000020C6
:10381000920000209300002010B50A21144803F004
:103820002FF9144908600A21134803F029F91349B4
:1038300008600A21124803F023F9124908600A219E
:10384000114803F01DF9114908600A21104803F0DE
:1038500017F9104908600A210F4803F011F90F49C0
:1038600008600F49002008700E49087010BD000064
:1038700090070020E4000020B8070020E8000020A6
:10388000E0070020EC00002008080020F0000020E5
:1038900030080020F400002058080020F800002024
:1038A000940000209500002008B503F0E1FF00908F
:1038B0000C4C0D4D0221684603F086FE207818B1AD
:1038C000FFF762FF03F04AFE287818B1FFF7A4FF64
:1038D00003F044FE207829780843EBD103F03EFE44
:1038E000E8E7000092000020940000201FB50020AF
:1038F0000649CDE9011006220346009203904FF4D9
:10390000007203A1034803F039FF1FBD1803002014
:1039100041444300A938000810B502F043F890F87C
:103920003C000021032861D018DC534C50B301281F
:1039300045D0022811D101040022504801F0F8FFBF
:103940004E480068D0B320684D49884205DB02F03C
:1039500029F810F83C1F491C017010BD042852D0F2
:1039600005286DD06328F8D102F01CF880F84210C9
:1039700002F018F880F843100021BDE8104005203F
:1039800003F0A0BB3F4801603E4864211C3803F0AF
:103990007DFA20683C498842DFDB3A4832212438EE
:1039A00003F074FA01F0FEFF012180F83E1001F0EF
:1039B000F9FF10F83C1F491C017010BD10E001F028
:1039C000F1FFB0F840000528F7D301F0EBFF80F8D5
:1039D0003E1001F0E7FF10F83C1F491C0170ECE7B6
:1039E0006321BDE81040022003F06CBB002001F011
:1039F000BBFA002001F0D0FA01F0D4FF10F83C1F10
:103A0000491C0170D9E700F041F801F0F9FF407A54
:103A1000042101F0F3FF38B901F0F2FF407A0121EF
:103A200001F0ECFF0028C8D101F0BCFF90F8420083
:103A30000028C2D16321BDE81040022003F042BB40
:103A400001F0B0FF90F8430040B901F0ABFF90F8EF
:103A5000420018B10421022003F034FB01F0D0FF32
:103A6000407A042101F0CAFF0028A6D06321BDE8F6
:103A70001040022003F026BBE8000020080123428A
:103A80000000E143B08122420000D24370B501F052
:103A900093FF407950B1012821D101F083FFC07D0F
:103AA00000281CD1BDE8704003F08CB901F084FF00
:103AB000007F00240125764E052810D2DFE800F0B3
:103AC000031037A4C90001F06DFFC07D002806D0A7
:103AD000C6F89C4101F070FF017F491C017770BD61
:103AE00001F060FFC07D20B101F05CFF90F8430061
:103AF00018B101F0CBFF007818B1BDE8704003F0B9
:103B0000EBBA01F04FFF90F8500030B101F054FFD4
:103B1000457101F051FF047770BD01F0CDFF80F8D1
:103B2000505001F049FF017F491C017770BD01F041
:103B300039FF90F84200B8B301F034FF90F8430029
:103B400088B101F0B9FFC16D01F0B6FF806D81420F
:103B500045D301F031FF017F491C017701F0ACFF33
:103B600080F850403BE001F01DFFC07D50B101F0F6
:103B7000A3FF80F8504001F09FFFC46501F01CFFD7
:103B800005772CE001F098FFC16D01F095FF806D85
:103B9000814224D301F010FF017F491C017701F01D
:103BA0008BFF80F850401AE0FFE701F0FBFEC07D7C
:103BB00020B101F0F7FE90F84200D0B101F07CFF97
:103BC000C16D01F079FF406D814208D301F0F4FE30
:103BD000017F491C017701F06FFF80F8504001F030
:103BE0006BFF90F850000028A0D0BDE8704003F0B3
:103BF0006DBB01F061FF80F8504001F05DFFC465CE
:103C000001F0DAFE0577EAE701F0D6FE8069214986
:103C1000884205DC01F0D0FE017F491C017770BDB0
:103C200001F04AFF00F11C04C0694FF0FF31FCF7BE
:103C3000B7FB206001F040FFC06901F095F901F089
:103C40003BFFC06901F0A8F9BDE87040642003F0B3
:103C500091BC01F031FFC46101F02EFFC06901F099
:103C600083F901F029FFC06901F096F9C6F89C516B
:103C700001F0A2FE047701F095FE90F843000028C1
:103C8000CDD0BDE870400521022003F01BBA000032
:103C9000008022420000204170B501F083FE0069DF
:103CA0001749FCF70DFB174C6060207C28B1002001
:103CB00020743221144803F0F3F8A1682068FCF75F
:103CC00049FC01D2A068206001F06CFE0F4E05692E
:103CD00031462068FCF7F4FA2946FCF723FB01F093
:103CE00043F901F05FFE056931462068FCF7E8FA08
:103CF0002946FCF717FBBDE8704001F04DB9000004
:103D0000CDCC4C3DBC030020BC0121423333534099
:103D10002DE9F04101F046FE90F83C000024614F8F
:103D2000614D012604286ED018DCDFF8808108B3CD
:103D300001283CD002284BD003280DD1002001F0EF
:103D400013F9002001F028F9C5F89C4101F02AFE82
:103D500010F83C1F491C0170BDE8F081052862D0B5
:103D600006287CD06328F7D1BDE8F041042101206A
:103D700003F0A8B9C7F8A041C5F8B04164214C4888
:103D800003F084F8D8F800004A498842E4DB484848
:103D90003221083803F07AF801F004FE80F83E6022
:103DA00001F000FE10F83C1F491C0170D4E701F03F
:103DB000F9FDB0F840000528CED301F0F3FD80F8FE
:103DC0003E4001F0EFFD10F83C1F491C0170C3E7B5
:103DD00000224FF40031384801F0AAFD364800684F
:103DE00058B1D8F8000035498842B5DB01F0DAFD5A
:103DF00010F83C1F491C0170AEE7BDE8F0410021FE
:103E0000032003F05FB901F0CDFD90F8340018B144
:103E1000BDE8F041FFF740BF01F0C4FD10F83C1FC2
:103E2000491C017098E701F0C7FD80692449884268
:103E300006DC01F0B7FD10F83C1F491C01708BE750
:103E400001F0BEFD044600684FF0FF31FCF7A8FA10
:103E5000206001F0B5FD006801F086F800E009E09F
:103E600001F0AEFD006801F097F8BDE8F041642074
:103E700003F080BB01F0A4FD0460002001F074F8A1
:103E8000002001F089F8C5F89C6109486421001DF3
:103E900002F0FCFFC7F8A061BDE8F04163210320F8
:103EA00003F010B90000214200802242E800002007
:103EB000948122420000D243080123420000E143E2
:103EC000000020412DE9F04701F06CFD90F83C0026
:103ED000DFF8CC81DFF8C491714F0026714D0124C9
:103EE00008F1140803284BD019DC40B3012836D060
:103EF000022812D1C10300226B4801F019FDD9F844
:103F00000001002809D001F04DFD80F83E4001F08D
:103F100049FD10F83C1F491C0170BDE8F0870428DA
:103F20006CD06328F9D101F03DFD90F834000028F1
:103F30007DD0BDE8F0470021032003F0C3B8584806
:103F40006421001F02F0A2FF01F02CFD80F83E402A
:103F500001F028FD10F83C1F491C0170DDE701F05D
:103F600021FDB0F840001428D7D901F01BFD80F8DE
:103F70003E6001F017FD10F83C1F491C0170CCE7B2
:103F800001F010FDB0F84000B0F5FA7F07D901F05C
:103F900009FD80F83E6045480660C5F8906101F073
:103FA0002FFD407A022101F029FDB0B901F0FAFCA1
:103FB00090F8420088B901F0F5FC80F83E60C5F841
:103FC00090416421384602F061FF6421404602F0CE
:103FD0005DFF0021084603F075F8D5F89001002830
:103FE0009BD101F0DFFC90F83800000795D401F078
:103FF000D9FC10F83C1F491C01708EE701F000FD50
:10400000407A022101F0FAFCA0B901F0CBFC90F853
:10401000420078B9C5F890416421384602F036FF75
:104020006421404602F032FF0021084600E02FE004
:1040300003F048F801F0B6FC90F8380080078DD402
:1040400001F0B0FC90F83800400787D401F0D8FCAC
:10405000407A012101F0D2FC50B901F0A3FC90F8A4
:10406000340028B901F09EFC90F84200002886D068
:10407000D9F800010028C0D001F056FD447301F0CA
:1040800053FD0673BDE8F0476321012003F01AB821
:10409000BDE8F0470021022003F014B800002342DD
:1040A000848122420080224200012342B0812142C9
:1040B00070B501F077FC4B4D00692946FCF700F91B
:1040C000FCF7FAF9484C606001F0F6FC006A2946FA
:1040D000FCF7F6F8FCF7F0F9206101F06DFC40699F
:1040E0002946FCF7EDF8FCF7E7F9E06101F0E4FCA4
:1040F000406B2946FCF7E4F8FCF7DEF9A06101F01B
:10410000DBFC006B2946FCF7DBF8FCF7D5F9E06235
:1041100001F048FC806A2946FCF7D2F8FCF7CCF99C
:10412000206201F0C9FC406DA06301F0C5FC806D08
:10413000606401F0A7FC4068E06301F0A7FC00693F
:104140002946FCF7BDF8FCF7B7F9A06401F09EFC26
:1041500040692946FCF7B4F8FCF7AEF9E06401F0D9
:104160008DFC0078A06001F027FC0069FCF7A4F941
:10417000E06001F017FC406A2946FCF7A1F8FCF763
:104180009BF9606101F098FCC06C206401F00AFCAE
:10419000C06D206501F006FC006E606501F002FC58
:1041A000806EA06501F0FEFBC06EE06501F0FAFBD9
:1041B000006F206601F0F6FB806F606601F0F2FB95
:1041C000C06F606601F0EEFBD0F88000606601F021
:1041D000E9FBD0F88400206701F0E4FB90F8500080
:1041E000606770BD0000C842A002002008B503F05F
:1041F0003FFB00900521684603F0E6F901F0D6FB8D
:10420000062815D2DFE800F00306090C0F1200F0B3
:104210007FF90DE0FFF756FE0AE0FFF77DFB07E0B0
:10422000FFF776FD04E000F029F801E000F0B2F9B4
:1042300000F01AF8DEE700001FB500200649CDE9BE
:10424000011006220346009203904FF4007203A16E
:10425000044803F093FA1FBDD0030020494E505587
:1042600054000000ED41000810B501F07FF802484D
:104270008168491D816010BDD00300202DE9F04107
:1042800001F004FC007B002501248149814FDFF807
:104290000882824E03287DD011DC50B3012831D032
:1042A00002280AD101F088FB80697D49884262DCDE
:1042B00001F0ECFB017B491C0173BDE8F08104288F
:1042C00069D06328F9D1C8F8AC5101F0DFFB057063
:1042D00001F0DCFB057301F0D9FB456001F062FBE6
:1042E00090F83D4001F070FB2146BDE8F04102F03E
:1042F000E9BE01F0CBFB447001F0C8FB017B491C17
:104300000173DAE701F0C2FB00F1080401F0BEFB23
:104310004068FBF7D5FF3946FBF7D2FF2168FBF772
:1043200077FF206001F0B2FB016901F0AFFB80680C
:10433000FCF710F90AD801F0A9FB457001F0A6FBC3
:10434000856001F0A3FB017B491C017301F09EFB1A
:1043500040780028B1D001F037FB0228ADD101F040
:104360002BFB407918B1BDE8F04102F02BBDBDE850
:10437000F04102F0ABBF01F01FFB40794FF0FF3579
:10438000B0B101F07FFB00F10C04C0682946FCF7D6
:1043900007F801E024E042E0206001F073FBC06810
:1043A00000F0E2FD01F06EFBC06800F0F5FD12E0E8
:1043B00001F082FB00F11C04C0692946FBF7F0FF05
:1043C000206001F079FBC06900F0CEFD01F074FBC4
:1043D000C06900F0E1FDBDE8F041642003F0CAB817
:1043E00001F06AFBC56101F04DFBC560002000F0E3
:1043F000BBFD002000F0D0FDC8F89C41C6F8B041DC
:10440000C6F8A04101F042FB0221017001F03EFB21
:10441000447001F03BFB017B491C01734DE701F047
:1044200035FB00F1080401F031FB4068FBF748FF61
:104430003946FBF745FF2168FBF7EAFE206001F0F3
:1044400025FB416901F022FB8068FCF783F807D85F
:10445000C6F8A05101F01AFB457001F017FB85600A
:1044600001F014FB40780028D8D106F59A76306820
:104470007168C0B2490640EA1160B168890640EA35
:1044800011600228CAD001F001FB6321017314E717
:104490008D7A883C0AD7233C00802242008021424A
:1044A0000000204108B503F0E3F90090084D1E24F8
:1044B0000221684603F088F82868B0FBF4F104FB99
:1044C000110008B900F01EF82868401C2860EFE7CA
:1044D000740000201FB500200649CDE90110072215
:1044E0000346009203904FF4807203A1044803F046
:1044F00045F91FBD6804002053455249414C000056
:10450000A5440008014801F0B1BE0000004400408D
:1045100010B501F047FA90F83C0048B101281AD0D4
:10452000632817D10021BDE81040012002F0CABD68
:1045300001F038FA90F8380080070BD401F032FA15
:1045400090F83800400705D401F02CFA10F83C1F11
:10455000491C017010BD01F053FA407A012101F0AD
:104560004DFA88B901F04CFA407A022101F046FA7E
:1045700050B901F017FA90F8340028B901F012FA96
:1045800090F842000028E5D06321BDE810400020EB
:1045900002F098BD2DE9F04101F004FA90F83C00DA
:1045A00000240126934F944D03287DD01DDC50B389
:1045B000012873D0022816D14FF47A7002F0DAFF86
:1045C000D7F80801002870D0D7F8040100280AD0D5
:1045D000C5F8B46101F0A8FA067401F0E3F910F827
:1045E0003C1F491C0170BDE8F081042875D0632888
:1045F000F9D1D7F80001002870D0BDE8F0410421BE
:10460000012002F05FBD01F08FFA007C08B1C5F80F
:10461000B46101F0F5F9417A21F00101417201F034
:10462000CBF980697549884206DC01F0BBF910F8C6
:104630003C1F491C0170D6E701F0BEF940794FF0EC
:10464000FF3598B101F01EFA00F10C04C06829464C
:10465000FBF7A6FE206001F015FAC06800F084FCAC
:1046600001F010FAC06800F097FC12E001F024FAA3
:1046700000F11C04C0692946FBF792FE206001F09E
:104680001BFAC06900F070FC01F016FAC06900F076
:1046900083FCBDE8F041642002F06CBF01F0F2F948
:1046A000C46001F009FA01E03AE018E0C46101F0E9
:1046B00083F90477002000F057FC002000F06CFC28
:1046C000C5F89C6164214E4802F0E0FB01F06AF9F4
:1046D00010F83C1F491C017085E768E083E001F099
:1046E00023FA007C30B101F05DF910F83C1F491C41
:1046F000017078E701F056F990F8750020B901F0E3
:1047000051F990F8760028B1BDE8F0410421052068
:1047100002F0D8BCBDE8F0416321052002F0D2BC14
:10472000C5F8986101F03EF990F858000028D3D000
:1047300001F038F980F8584031480A21203002F061
:10474000A5FBC5F8B441C5F8984101F0EDF9047432
:1047500001F028F9816B21F48061816301F022F975
:10476000816B21F48021816301F01CF9816B21F4BC
:104770000021816301F0D8F9847401F0D5F9047641
:1047800001F010F990F8750020B901F00BF990F8DC
:10479000760030B101F006F910F83C1F491C017099
:1047A00021E7BDE8F0416321052002F08BBC01F058
:1047B000F9F890F8750000288ED101F0F3F890F820
:1047C0007600002888D101F0AFF9007C28B1BDE85F
:1047D000F0410321052002F075BCBDE8F0416321E2
:1047E000052002F06FBCBDE8F0410021084602F050
:1047F00069BC0000000023420080224200002041EA
:104800009881224210B51D480068002823D001F08D
:10481000C9F890F83800000628D419480168CCB2CD
:1048200041688068490644EA1164800644EA1064DD
:1048300001F0B8F8816B21F0780181631148D0F85C
:10484000900100B174B101F0ADF8816B641C41EAD4
:10485000C401816310BD01F0A5F8816B21F07801DE
:10486000816310BDBDE8104001F09CB801F09AF8DA
:10487000816B21F07801816310BD0000300123427B
:10488000348121420080224208B502F0F1FF0090FD
:10489000DF4F0124DFF87C934FF4807A002502215A
:1048A000684602F091FEDC4ED6F8B00108B9FFF779
:1048B000A9FF01220221D94801F03AF8012204217E
:1048C000D74801F035F8D548012280210C3001F09D
:1048D0002FF8D24801225146103001F029F8CF4874
:1048E00001225102143001F023F8CC480122D102F8
:1048F000143801F01DF8C94801221103103801F0E5
:1049000017F8C648012251030C3801F011F8C348CA
:1049100001229103083801F00BF801F0AFF800789C
:10492000182101F0B7F8804601F0C6F880F824801D
:1049300001F0A4F80078042101F0ACF8DFF8E4827B
:10494000C8F8A00101F032F8022826D101F0ECF8F5
:10495000007BC82821D33868B349884206DA01F0C1
:1049600021F8816B41F48021816305E001F01AF8A0
:10497000816B21F4802181633868AC49884206DA72
:1049800001F010F8816B41F40021816305E001F032
:1049900009F8816B21F40021816301F003F890F89C
:1049A0003500A0B100F0FEFFC475C6F89441A048E0
:1049B000006830B300F0F6FF057600F0F3FF90F8E2
:1049C000500070B300F0EEFFC07D58B336E000F049
:1049D000E9FFD0F828B001F06FF8C0685946FBF73E
:1049E000AFFD05D200F0DEFFC575C6F89451DEE7D5
:1049F00000F0D8FFC475C6F8944100F0DDFF4571A2
:104A0000D5E700F0CFFF90F83800C0F3C3000128CD
:104A100003D000F0C7FF0476CFE700F0C3FF0576B0
:104A2000CBE70BE0FFE700F0C7FF447101F044F86B
:104A300080F83C4001F040F880F84440D8F8A001EC
:104A4000A8B1D9F80C0140B100F0ACFF80F84240A9
:104A500000F0A8FF80F8435011E000F0A3FF90F8A9
:104A6000420060B100F09EFF80F8434007E000F094
:104A700099FF80F8425000F095FF80F8435000F015
:104A800091FFD0F8108000F08DFF406A6949FBF774
:104A900017FC4146FBF746FC804600F08DFFC0F84E
:104AA0000C8000F07FFF016963480068FBF708FC99
:104AB0006249FBF737FC804600F07EFFC0F81880A3
:104AC00000F0FAFF90F8240000F0FAFF804600F0B2
:104AD000F3FFC0F8088000F065FF008F40050BD59C
:104AE00001F022F8017E01F01FF8807C814203D0A2
:104AF0003221534802F0D4F901F016F8817C01F01C
:104B000013F8017600F04EFF007828B3D6F8B00114
:104B100088B900F047FF90F8380010F0780F0AD0FD
:104B200001F002F8047400F041FF052803D00021D1
:104B3000052002F0C7FA00F035FF806B41490842BA
:104B40000AD000F0F1FF047400F030FF052803D014
:104B50000021052002F0B6FA3B480068FBF7ACFCE8
:104B600081B20022394800F04FFF3949FBF7A8FB1A
:104B7000064600F017FFC66000F014FFD0F884600E
:104B800000F010FFD0F88000864204D001F0B4FE9F
:104B900002F0F8F90BE000F005FF80F8755000F026
:104BA00001FF80F8884000F0FDFE80F8745000F0AE
:104BB000F9FE90F8750020B900F0F4FE90F8760048
:104BC00058B100F0F3FE022807D000F0EFFE0528F0
:104BD00003D00021052002F075FA1E4E307828B16E
:104BE00013480A21283002F051F93570D9F8000134
:104BF000707000F099FF807B30B1FFF759FAFEF733
:104C000049FD00F091FF8573FCF7B2FF47E6000015
:104C1000E8000020000023420080214228012342B6
:104C200024812142000021420000E1430000EB43C7
:104C30009081224233335340D4000020A3AB684517
:104C4000BC01214286F30700E0000020F07B000851
:104C5000CDCCCC3D780000201FB500200649CDE921
:104C6000011005220346009203904FF4807203A1C5
:104C7000054802F083FD1FBD7404002053555045C4
:104C800052564953494F52008948000810B5012136
:104C90004FF0C050FDF714F8BDE810400120FCF7BC
:104CA000EBBF00000D4B8118994201D903207047DA
:104CB00012B10123002109E0002070470378FF2B87
:104CC00001D0022070470023401C491C9142F5D3BB
:104CD000012B01D00120704700207047000004081C
:104CE0006FF30A00704710B54FF44070FCF7A8FF4F
:104CF000FFF7CCFF00F0A4F800F02BF800F005F867
:104D000000F012FF0121017010BDFEB5E020FCF79C
:104D1000BFFF0120FCF7B6FF01248DF808400825ED
:104D20008DF8095000278DF80A708DF80B4002A805
:104D3000FCF754FF26043046FCF77AFC00968DF809
:104D400004708DF805508DF806406846FCF786FC27
:104D5000FEBD7CB500240420FBF7C8FD45F25005DC
:104D6000A84245D0FBF7ACFD0120FDF739F804E07F
:104D7000641CE4B20A2000F023F94120FDF718F882
:104D80000028F5D0FA2C01D301207CBD4FF48070AF
:104D9000FDF740F80120FDF737F8FDF731FAFDF790
:104DA00037FA01210846FDF783F9FDF729FAFDF7E7
:104DB00041F80020FDF704FAFDF722FA47F6FF70EC
:104DC000FDF70EFAFDF71CFA00200221CDE90010D4
:104DD0000B230922052140F2E770FDF787F9FDF763
:104DE0000FFAFDF72FF829460420FBF795FD07E0A1
:104DF000FDF70EFA01210846FDF75AF9FDF700FA12
:104E000000210320FDF762F9FDF724F800207CBDA6
:104E100010B50A4C8318A34201D9012010BD0AB174
:104E2000002306E0012010BD10F8014B01F8014BF2
:104E30005B1C9342F8D3002010BD00000000040862
:104E400008B50020FBF75CFD0020FBF749FD0120C1
:104E5000FBF75CFDFBF724FD02208DF80000082025
:104E60008DF8010000208DF8020001208DF803006C
:104E70006846FCF7B3FE0120FBF732FD0120FBF78B
:104E80003FFD08BD2DE9F04107468846164604253A
:104E90002549B819884202D90120BDE8F0811EB128
:104EA000F00703D00120F8E70020F6E7324641463C
:104EB0003846FFF7F7FE044654B1012080F310880E
:104EC000FCF760FC3520FCF703FC022C02D00BE061
:104ED0000020E2E73846FFF703FFFCF7FFFB05463B
:104EE000042D01D00220D8E700240EE018F81400A9
:104EF00008EB4401497840EA01213846FCF728FCD8
:104F00000546042D04D1BF1C641CB4EB560FEDD331
:104F1000FCF716FC002080F31088042D01D002203D
:104F2000BBE70020B9E700000000040830B5DDE968
:104F3000034501608280C3800481458130BD027BCE
:104F4000C37A42EA03220A80827B437B42EA03223D
:104F50004A80027CC37B42EA03228A80827C407CB6
:104F600042EA0020C880704710B50849FBF7DAF91B
:104F70000749FBF7A5F9FBF79FFA81B205480180C5
:104F8000BDE810400020FCF723BA00003333534043
:104F900000F07F458A00002010B50749FBF7C2F9F1
:104FA0000649FBF78DF9FBF787FA81B2BDE810409F
:104FB0000020FCF717BA00003333534000F07F4560
:104FC00010B50022044C04E02146491E4B1CFCD1C4
:104FD000521C8242F8DB10BD40190100002305225B
:104FE00008210148FBF7EFBC5C7E000830B591B0AA
:104FF00001210846FCF756FE484D2846FCF716FAF4
:105000004748019047480290002403943C210491B2
:10501000059480210691490007918800089020207E
:10502000099000020A900B9401A92846FCF77DFA2A
:1050300001212846FCF7ECF901214802FCF74EFE5D
:1050400000213948FBF7F6FC00213848FBF7F2FC59
:1050500000213748FBF7EEFC00213648FBF7EAFC5D
:1050600000213548FBF7E6FC00213448FBF7E2FC61
:105070000C9401208DF834008DF835004FF4602039
:105080000E900F9406208DF84000254C0CA94C3C46
:105090002046FBF77FFB0723012206212046FBF772
:1050A0009DFB0723022219462046FBF797FB0723A7
:1050B000032208212046FBF791FB07230422092144
:1050C0002046FBF78BFB072305220E212046FBF72A
:1050D00085FB072306220F212046FBF77FFB0121DA
:1050E0002046FBF73DFB01212046FBF72DFB204628
:1050F000FBF7AEFB2046FBF746FB0028FAD1204623
:10510000FBF7B7FB2046FBF737FB0028FAD101215C
:105110002046FBF7A2FB11B030BD000008000240A2
:105120004C24014000050020EC7C0008F47C0008C1
:105130001C7D0008247D0008A47D0008AC7D0008CB
:1051400030B591B001210220FCF7ACFD484D284656
:10515000FCF76CF9474801904748029000240394FB
:105160003C21049105948021069149000791880013
:1051700008902020099000020A900B9401A928466B
:10518000FCF7D3F901212846FCF742F90121C803B5
:10519000FCF7A4FD00213948FBF74CFC00213848FE
:1051A000FBF748FC00213748FBF744FC0021364858
:1051B000FBF740FC00213548FBF73CFC002134485C
:1051C000FBF738FC0C9401208DF834008DF8350085
:1051D0004FF460200E900F9406208DF84000254C6F
:1051E0000CA94C3C2046FBF7D5FA072301220021ED
:1051F0002046FBF7F3FA0723022201212046FBF7A2
:10520000EDFA072303220A212046FBF7E7FA0723DA
:1052100004220B212046FBF7E1FA072305220C218B
:105220002046FBF7DBFA072306220D212046FBF779
:10523000D5FA01212046FBF793FA01212046FBF71E
:1052400083FA2046FBF704FB2046FBF79CFA002874
:10525000FAD12046FBF70DFB2046FBF78DFA00281C
:10526000FAD101212046FBF7F8FA11B030BD000059
:10527000580402404C3C014078050020BC7C0008EA
:10528000C47C0008847D00088C7D0008947D0008A3
:105290009C7D000808B5002100910323632240F69D
:1052A0000F61FBF7C3FC08BD70B586B000240F4842
:1052B0000525A0F108034FF6FF7600900194CDE993
:1052C000024540F2CF22314604940948FBF7FEFB29
:1052D000064B0194CDE90245049408332F22314650
:1052E00004480094FBF7F2FB06B070BD04010020F7
:1052F000000800400034014000B51A49002801D0E0
:1053000000200870087808B1002000BD0120087056
:10531000154B991D184600F051F808B1012000BD49
:10532000D91D581C00F04AF808B1022000BD0E49F2
:10533000981C083100F042F808B1032000BD0A496A
:10534000D81C093100F03AF808B1042000BD064924
:10535000181D0A3100F032F808B1052000BD002008
:1053600000BD00008C000020CC04002070B5104D62
:1053700004212846FCF791FA0E4C207002212846A1
:10538000FCF78BFAE07020210B48FCF786FA60707E
:1053900008212846FCF781FAA07001212846FCF775
:1053A0007CFA20710120FFF7A7FFE07270BD0000BA
:1053B00000180140CC0400200008014002460020F3
:1053C0001278002A02D0012A06D103E00A78521C82
:1053D0000A7001E000220A7009780A2900D9012028
:1053E000704700002DE9FC470646DDE90A950C9C54
:1053F0000F46904618461021FBF71CFBCDE90054E0
:105400004B46424639463046FBF70EFD802130467A
:10541000FDF72AFFFBF7C8FC40213046FDF724FFCB
:10542000FBF7C2FC024901200860BDE8FC870000D0
:10543000BC8122423EB505460C4618210848FBF7C0
:10544000F9FA48210748FBF7F5FACDE901540220A3
:1054500000900723082200210348FBF767FA3EBDAE
:105460000C7D0008047D0008006400401FB5012188
:105470004807FCF725FC00210A48FBF7DBFA00206F
:105480000090019002900220039069460020FBF7F3
:105490008BFF01210020FBF777FF00210846FBF777
:1054A00097FF1FBDDC7C00081FB501214807FCF7F2
:1054B00007FC00210A48FBF7BDFA0020009001908C
:1054C00002900220039069461020FBF76DFF012136
:1054D0001020FBF759FF00210846FBF783FF1FBD93
:1054E000E47C00087CB50546DDE90640CDE90040D6
:1054F0002846FBF799FC80212846FDF7B5FEFBF70F
:1055000053FC40212846FDF7AFFEBDE87C40FBF789
:105510004BBC70B505460C4645F25550FCF73EFBBA
:105520002846FCF72FFB2046FCF732FBFCF722FB5A
:10553000BDE87040FCF714BB2DE9FE4300F082F893
:1055400000F0EEF9FFF74AFD00F02CFA90F8380071
:10555000C00701D100F0CEF9002441F61F45062313
:105560002A4663214FF080400094FBF75FFB052340
:105570002A46632127480094FBF758FBFFF736FDC6
:10558000FFF7DEFD2448FFF785FE2448FFF782FE83
:10559000FFF76CFFFFF788FFFFF786FE0021022070
:1055A000FFF748FF40F27D5540F61D07CDE9007535
:1055B00040F22A3840F27F764346324640F20A21D2
:1055C0001748FFF7B3FC2B46424640F20921154825
:1055D000CDE90067FFF7AAFC0420CDE900044FF4F1
:1055E000E133114A11491248FFF77CFF0320CDE94E
:1055F00001044FF4165100910E4B0F4A0F49104809
:10560000FFF7F0FE03B040F63541BDE8F04304205B
:10561000FFF77FBF000C0040001000400014004066
:10562000B4040020C0040020D47C0008CC7C000816
:1056300000440040347E00085C7D0008547D000872
:105640000048004010B510218348FBF7F3F9102102
:105650008248FBF7EFF928218148FBF7EBF910218D
:105660008048FBF7E7F928217F48FBF7E3F9282179
:105670007E48FBF7DFF928217D48FBF7DBF928217D
:105680007C48FBF7D7F928217B48FBF7D3F9102199
:105690007A48FBF7CFF910217948FBF7CBF91021B5
:1056A0007848FBF7C7F910217748FBF7C3F91021B9
:1056B0007648FBF7BFF910217548FBF7BBF91021BD
:1056C0007448FBF7B7F910217348FBF7B3F91021C1
:1056D0007248FBF7AFF910217148FBF7ABF91021C5
:1056E0007048FBF7A7F910216F48FBF7A3F91021C9
:1056F0006E48FBF79FF910216D48FBF79BF91021CD
:105700006C48FBF797F910216B48FBF793F92821B8
:105710006A48FBF78FF928216948FBF78BF92821A4
:105720006848FBF787F928216748FBF783F92821A8
:105730006648FBF77FF928216548FBF77BF92821AC
:105740006448FBF777F928216348FBF773F92821B0
:105750006248FBF76FF928216148FBF76BF92821B4
:105760006048FBF767F928215F48FBF763F92821B8
:105770005E48FBF75FF93848FBF76FF93748FBF7EE
:105780006CF93748FBF769F93648FBF766F9364894
:10579000FBF763F93548FBF760F93548FBF75DF92E
:1057A0003448FBF75AF93448FBF757F93348FBF70D
:1057B00054F93448FBF751F93348FBF74EF93348B5
:1057C000FBF74BF93248FBF748F93248FBF745F94C
:1057D0003148FBF742F93148FBF73FF93048FBF716
:1057E0003CF93048FBF739F92F48FBF736F92F48D9
:1057F000FBF733F92E48FBF730F92E48FBF72DF96C
:105800002D48FBF72AF92D48FBF727F92D48FBF720
:1058100024F92D48FBF721F92C48FBF71EF92C48F9
:10582000FBF71BF92B48FBF718F92B48FBF715F989
:105830002A48FBF712F92A48FBF70FF92948FBF72A
:105840000CF92948FBF709F92848FBF706F928481D
:105850000121C161016010BDFC7C0008147D0008BD
:105860004C7D0008647D00086C7D0008747D000894
:105870007C7D00089C7E0008BC7D00082C7D000813
:10588000447D0008C47D0008CC7D0008D47D00085C
:10589000E47D0008EC7D0008DC7D0008F47D000854
:1058A000FC7D0008047E00080C7E0008147E0008C1
:1058B0001C7E0008247E00082C7E00083C7E000828
:1058C000447E00084C7E0008547E0008647E000878
:1058D0006C7E0008747E00087C7E0008847E0008D0
:1058E0008C7E0008A47E0008AC7E0008B47E000810
:1058F000A001214210B5084C0120E0602062074958
:10590000C1F8B0012060A0626420FFF759FB0020BD
:10591000A062206210BD00009081224200802142DE
:105920000023062208210148FBF74DB8947E0008A9
:1059300010B50C460068904205D100F033F8816B39
:105940002143816310BD00F02DF8816BA143816379
:1059500010BD000010B5002821D0114B0022001FFF
:10596000196803E0814203D80A4649680029F9D141
:1059700052B11368841A9C4204D100681844106024
:10598000104602E0506000E0186039B102680B1A5E
:10599000934203D10B681A4402604968416010BD0C
:1059A0006002002000487047DC03002001480078B6
:1059B000704700006E00002000487047240300205C
:1059C00000487047BC030020014840787047000041
:1059D0006E0000200649020005D0012A07D10548C3
:1059E0000068FAF76DBC04480068FAF769BC7047B4
:1059F00033335340F8000020DC000020084070479B
:105A000000487047940200202DE9F04105460E46FB
:105A100017463146284601F084F804462888B042EB
:105A200002D23846BDE8F081B5F8C800B04205D3CF
:105A30003846BDE8F0411049FAF7EABB611C35F879
:105A4000140015F81110411AC9B2801B00EB800038
:105A5000400090FBF1F0FAF721FD054604EB8400CD
:105A60004000FAF724FD3946FAF7D2FB2946BDE893
:105A7000F041FAF7CDBB000000007A4400487047BF
:105A80006C00002000487047480300200048704721
:105A90009C040020032907D0042908D0182902D12A
:105AA00000F01800C008704700F00300704700F0D5
:105AB0000400800870470000004870475C03002025
:105AC00010B5010014D0012916D0022918D00329DD
:105AD0000DD1FFF767FFC16A11480068FAF7F0FBC4
