:020000040800F2
:1000000080860020ED010008D91B0008151B0008A0
:10001000D71B0008850F00083134000800000000DD
:10002000000000000000000000000000490100087E
:1000300065150008000000008D010008DD220008A1
:1000400007020008551C000851230008B51F0008CE
:10005000070200080702000807020008070200085C
:100060000702000807020008D1150008070200086F
:10007000070200080702000807020008070200083C
:10008000070200080702000807020008070200082C
:10009000C53300080702000807020008070200082D
:1000A000070200080702000807020008070200080C
:1000B00079250008070200087127000807020008D8
:1000C00007020008070200080702000807020008EC
:1000D0000702000807020008652F0008D12F00085A
:1000E0006915000807020008070200080702000857
:1000F000012D000807020008712C00080702000803
:100100000702000807020008F1280008070200089B
:100110000702000807020008D92A0008A52B0008DA
:10012000070200080702000807020008070200088B
:10013000DFF810D000F0ACFA00480047A7690008CB
:10014000AFF3008080860020204B19680868B0E873
:10015000F00F80F30988BFF36F8F4FF0000080F33A
:1001600011884EF00D0E7047000000000648006830
:10017000006880F3088862B661B6BFF34F8FBFF3A3
:100180006F8F00DF00BF00BF08ED00E0EFF30980D4
:10019000BFF36F8F0D4B1A6820E9F00F106008B5A0
:1001A0004FF0100080F3118807F05EFA4FF0000066
:1001B00080F31188BDE8084019680868B0E8F00FBE
:1001C00080F30988BFF36F8F704700BF04020020DF
:1001D000EFF311804FF0100181F31188704780F325
:1001E00011887047EFF3058070470000064880478C
:1001F00006480047FEE7FEE7FEE7FEE7FEE7FEE70C
:10020000FEE7FEE7FEE7FEE70123000831010008F4
:10021000F0B480EA0102D40F4200B2EB410F02D2E7
:100220000246084611464A0042D0C30DDDB2C1F372
:10023000C752AD1A202D35DAC1F3160141F4000280
:1002400004B15242C5F1200602FA06F12A411044D7
:10025000B3EBD05F23D0C4B1012DA0EBC35009DCB8
:10026000F0BC4FF0004202EAC352DBB200F50000DE
:1002700000F083B9400000F1807000EBC350A0F1A2
:10028000807040EAD170490009E0490841EAC07134
:10029000A0EBC35000F50000400800EBC350F0BCD9
:1002A00000F062B96142012202EB4101001BF6E756
:1002B000F0BC704781F00041AAE780F00040A7E75A
:1002C00080EA010210B502F00043400022D04A004B
:1002D0001FD0010E01EB1261C0F35600C2F35602AB
:1002E00040F4000042F40002A0FB022000047F3929
:1002F000140400D0401C50EA124001D44000491EB2
:10030000C2B20C0604EBD010401C4008802A02D078
:1003100003E0002010BD20F00100002900DA0020D9
:10032000184310BD30B480EA010202F0004530F0FD
:10033000004221F0004013D090B1C30DD40DC2F3A0
:100340001601C0F31600E41A41F4000140F4000263
:100350007D34914201D3641C00E04900002C02DA94
:1003600030BC002070474FF400000023914201D3BD
:10037000891A034340084FEA4101F7D151B1914234
:1003800002D14FF0004105E002D24FF0010101E03F
:100390006FF0010103EBC450284430BC00F0E4B816
:1003A000420005D0C0F3C7525242914201DC002006
:1003B000704700EBC15070472DE9FE4F81EA0304FE
:1003C00004F0004421F0004100944FF0000B23F0B2
:1003D000004350EA01045ED052EA03045BD0C3F349
:1003E0000A54C1F30A552C44A4F2F3340194A0FB3F
:1003F0000254C1F3130141F48011C3F3130343F416
:10040000801301FB024400FB034E840A970A44EA6E
:10041000815447EA8357A4FB076802958D0A05FBC0
:1004200007854FEA932C04FB0C542705029D4FEAE5
:10043000065847EA1637B5EB08056EEB070C870E32
:10044000920E47EA811742EA8312A7FB0201B6EB3C
:100450000B0164EB00042B0D43EA0C335E1844EBF4
:100460001C50DA465146E7FB0201C5F313044FEA7C
:100470000B3343EA14534FEA0432019C43EA060368
:10048000A4F10C040294009CCDE900B400F0B2F891
:1004900003B0BDE8F08F00200146F9E7C10F80EA04
:1004A000E0700844CA079623002100F066B896233E
:1004B0000022114600F061B820F00040C10DC0F3E9
:1004C000160040F400007F2901DA002070479629C9
:1004D00003DCC1F19601C8407047963988407047E7
:1004E00000F0004230F000400AD0C10D01F560710B
:1004F000C0F3160042EA0151C20840071143704799
:1005000000200146704701F0004330B421F0004163
:1005100050EA010206D00A0DA2F56072C1F3130180
:10052000002A02DC30BC00207047440F44EAC104BA
:10053000C100E01830BC00EBC25000F015B800005C
:10054000002801DBC0F10040002901DBC1F10041BE
:1005500081427047002801DBC0F10040002901DB27
:10056000C1F10041884270470029A8BF7047401C74
:10057000490008BF20F00100704710B4B0FA80FCB9
:1005800000FA0CF050EA010404BF10BC704749B1F6
:10059000CCF1200421FA04F411FA0CF118BF012166
:1005A00021430843A3EB0C01CB1D4FEA00614FEA46
:1005B000102042BF002010BC704700EBC350104415
:1005C0000029A4BF10BC7047401C490008BF20F0A0
:1005D000010010BC704710B5141E73F1000408DA56
:1005E000401C41F1000192185B411A4301D120F0F7
:1005F000010010BD2DE9F04D92469B4611B1B1FAB4
:1006000081F202E0B0FA80F22032904600F052F817
:1006100004460F4640EA0A0041EA0B0153465A4697
:10062000084313D0114653EA010019D0C8F1400223
:10063000504600F04EF805460E4650465946424692
:1006400000F038F8084305D0012004E02046394680
:10065000BDE8F08D0020054346EAE0762C433743A1
:100660000A986305E40AA0EB08000022FD0A44EAA8
:1006700047540A3002D500200146E9E70105101968
:100680006941DDE9084500196941BDE8F04DA2E77F
:10069000064C074D06E0E06840F0010394E80700CF
:1006A00098471034AC42F6D3FFF746FD847E00082D
:1006B000A47E0008202A04DB203A00FA02F1002080
:1006C00070479140C2F1200320FA03F31943904090
:1006D0007047202A04DB203A21FA02F000217047FB
:1006E00021FA02F3D040C2F120029140084319469A
:1006F000704770B58C1810F8015B15F0070301D135
:1007000010F8013B2A1106D110F8012B03E010F874
:10071000016B01F8016B5B1EF9D12B0705D4002397
:10072000521E0DD401F8013BFAE710F8013BCB1A39
:10073000921C03E013F8015B01F8015B521EF9D52E
:10074000A142D8D3002070BD002904D0816841F0B7
:10075000010181607047816821F00101816070476B
:10076000002904D0816841F48071816070478168FC
:1007700021F4807181607047014600208968490733
:1007800000D501207047014600208968090700D57F
:100790000120704710B542680E4B1A400C790B6867
:1007A00042EA04221343436082680B4B1A40D1E9AA
:1007B000024323434C7942EA440213438360C26AF2
:1007C00022F47002097C491EC9B242EA0151C16299
:1007D00010BD0000FFFEF0FFFDF7F1FF70B507262A
:1007E00009290AD9C568A1F10A0404EB4404A6400A
:1007F000B543A3401D43C56007E0056901EB410413
:10080000A640B543A3401D4305611F23072A09D213
:10081000446B521E02EB820293409C4391400C4376
:10082000446370BD0D2A09D2046BD21F02EB820211
:1008300093409C4391400C43046370BDC46A0D3ADD
:1008400002EB820293409C4391400C43C46270BD12
:10085000816841F0080181607047002904D08168F7
:1008600041F4A00181607047816821F4A00181609A
:100870007047816841F004018160704730B50546DA
:100880000C46002D0BD0022C09D9A01EC1B228465F
:1008900001F024F9291901F8020D000A487030BD51
:1008A0000248018841F0010101807047346C00402A
:1008B0000248018841F0020101807047346C004019
:1008C00010B5012001F018FABDE81040002001F039
:1008D00013BA000001480068C0B27047A4860D42F8
:1008E000014908607047000088860D4208B5034939
:1008F000084400900098008808BD0000006C00408B
:10090000014908607047000000860D4201490860F7
:100910007047000004860D4208B5034A1044009059
:100920000098016008BD0000006C00402DE9F04710
:1009300088B00746DDE910A8DDF848900E46144659
:100940001D460121480601F0BBF98DF818408DF8CD
:1009500019508DF81760ADF814A000248DF81A40D6
:1009600001258DF81B5007948DF8164005A93846CF
:1009700000F040FC8DF80A408DF80B408DF80C50CB
:10098000ADF80040ADF80240ADF80440ADF80640C7
:10099000ADF808408DF80D50684600F051FB01227B
:1009A0000221384600F01CFC14208DF810008DF850
:1009B00011808DF812908DF8135004A801F00EF9F3
:1009C00008B0BDE8F0872DE9FE4307468846164685
:1009D0001D462821384600F02DF80121084601F077
:1009E0007DF9384600F0B0FFC4B2384600F0F8FF99
:1009F000214600F0E3FE384600F056FF009000204C
:100A00008DF804008DF8058001248DF806406846B5
:100A100000F024FE384601F015F88DF808008DF836
:100A200009608DF80A508DF80B4002A801F0D6F845
:100A3000BDE8FE8338B504460D46204600F012F8A6
:100A4000A088ADF800008DF8035003208DF8020057
:100A50006946206800F0C6FE38BD8188006889B20A
:100A600000F013BF124A0168914201D104201CE03A
:100A7000104A914201D1082017E00F4A914201D15A
:100A8000102012E00D4A914201D120200DE00C4AC5
:100A9000914201D1402008E00A4A914201D18020D0
:100AA00003E0094A914200D18815012101F016B9ED
:100AB00000080140000C01400010014000140140FA
:100AC00000180140001C0140002001402DE9F04FBA
:100AD00087B08246DDE911B8109F894616461D464B
:100AE000504600F0E3F81DB128212868FFF7A2FF67
:100AF0001FB128213868FFF79DFFBBF1000F03D01D
:100B000028212868FFF796FFB8F1000F04D02821AC
:100B1000D8F80000FFF78EFFADF810600026ADF8A2
:100B20001260ADF81490ADF8166004A9504602F0BA
:100B3000CBF94FF0010985B144F00204ADF804602F
:100B4000A888ADF80600ADF80890ADF80A60ADF8D9
:100B50000C6001A9504602F007F98FB144F004047B
:100B60000420ADF80400A888ADF80600ADF80890A0
:100B7000ADF80A60ADF80C6001A9504602F0F4F837
:100B8000BBF1000F11D044F008040820ADF80400B8
:100B9000A888ADF80600ADF80890ADF80A60ADF889
:100BA0000C6001A9504602F0DFF8B8F1000F11D037
:100BB00044F010040C20ADF80400A888ADF806003D
:100BC000ADF80890ADF80A60ADF80C6001A9504688
:100BD00002F0CAF844F001010122504602F00AF97D
:100BE0000121504602F0A7F81398FF2816D0149858
:100BF000FF2813D0504602F02FF9DDE9131200F060
:100C000046F80848824502D00748824506D150463A
:100C100001F0A2FCDDE9131200F039F807B0BDE8DD
:100C2000F08F0000002C0140003401402DE9FF410D
:100C300080460A9F0C4616461D46404600F036F890
:100C4000ADF80840ADF804600021ADF80610ADF82D
:100C50000A1001A9404602F037F901221146404628
:100C600002F0C8F80121404602F065F8404602F063
:100C7000F3F88DF800008DF801508DF80270012016
:100C80008DF80300684600F0A9FFBDE8FF8108B5B4
:100C90008DF800008DF801108DF8022001208DF8EC
:100CA0000300684600F09AFF08BD00003149884201
:100CB00003D10121C01401F011B8B0F1804F06D06A
:100CC0002D49884207D10121022000F0F9BF0121FE
:100CD000084600F0F5BF2949884203D101210420CC
:100CE00000F0EEBF2649884203D10121082000F020
:100CF000E7BF2449884203D10121102000F0E0BF62
:100D00002149884203D10121202000F0D9BF1F4989
:100D1000884203D10121401400F0E0BF1C49884201
:100D200003D10121C80400F0D9BF1A49884203D178
:100D30000121080500F0D2BF1749884203D10121E3
:100D4000480500F0CBBF1549884203D1012140205E
:100D500000F0B6BF1249884203D10121802000F083
:100D6000AFBF1049884203D10121801500F0A8BF10
:100D700070470000002C01400004004000080040C3
:100D8000000C0040001000400014004000340140FE
:100D9000004C014000500140005401400018004048
:100DA000001C00400020004030B58BB00446207885
:100DB000002829D00121022000F074FF606800F0B3
:100DC00035FBA068001D00906078002508B30295EF
:100DD000A06802F0E3F90190A06802F083FA0390A2
:100DE0000495802005900695079508954FF440508E
:100DF00009900A956946606800F097FB01216068D8
:100E000000F006FB0BB030BD0121084600F04AFFA0
:100E1000D4E710200290A06802F0EEF90190A068DB
:100E200002F086FA0390DBE72DE9F04385B0064631
:100E3000DDE90C780C4615469946304600F058F826
:100E40001CB118212046FFF7F5FD1DB104212846ED
:100E5000FFF7F0FDCDF800900020ADF80400ADF8EC
:100E60000600ADF80800ADF80C000C20ADF80A0043
:100E70006946304602F034F9DFF87090FF2F20D039
:100E8000B8F1FF0F1DD0304602F078FA8DF810004F
:100E90008DF811708DF8128001208DF8130004A8D0
:100EA00000F09CFE4E4506D0012240F2244130461F
:100EB00002F0FAF805E0012240F22551304602F036
:100EC000F3F84E450BD024B101228021304602F0C8
:100ED000C1F825B101224021304602F0BBF80121C2
:100EE000304602F0ABF805B0BDE8F083005000409A
:100EF0001149884203D10121880300F0EFBE0F4958
:100F0000884203D10121480400F0DABE0C4988422E
:100F100003D10121880400F0D3BE0A49884203D1DD
:100F20000121C80400F0CCBE0749884203D1012149
:100F3000080500F0C5BE704700380140004400407D
:100F400000480040004C00400050004070B504468E
:100F50000D461646606800F0E5FA0028FAD1002137
:100F6000606800F055FAD4E90301084300F044FA40
:100F70006068C560606846606068BDE870400121D7
:100F800000F046BAFEE700000A4A914202D1002171
:100F900081617047C1F313028B0101D5C2607047B4
:100FA0004B0101D502617047090101D5826070478C
:100FB000426070477000F03030B5082310240422DE
:100FC000B1F5007F33D011DC20292AD007DC0129BC
:100FD00022D0042923D0082900D1C46030BD402983
:100FE00021D0B1F5807FF9D1426030BD0025B1F547
:100FF000004F20D008DCB1F5806F1AD0B1F5006F3A
:10100000F3D18561426030BDB1F5803F0DD0B1F5BF
:10101000003FF8D1446030BD0849816030BDC360F5
:1010200030BD036130BD046130BD436030BD4260FE
:1010300030BD426030BD8561426030BD01010100BC
:10104000F0B5827A01219140304C226842F00102D1
:1010500022602E4D1C352A688A432A602B4A067B63
:101060000C322B4B002E14D116688E431660468826
:10107000C78846EA0746877A03EBC707C7F8406682
:101080000688878846EA0746877A03EBC707C7F8CA
:101090004466067B012E14D116680E431660428802
:1010A000068842EA0642867A03EBC606C6F8402660
:1010B000C288868842EA0642867A03EBC603C3F8F2
:1010C0004426124AC37A121D3BB113680B431360C6
:1010D0000E4A0389143223B106E013688B43136070
:1010E000F6E713688B4313600389012B02D1136861
:1010F0000B431360407B012802D128680843286015
:10110000206820F001002060F0BD00000066004073
:10111000006000400246002053690B425DD0B1F5EB
:10112000807F4AD016DC082937D009DC01292CD071
:1011300002292ED0042950D1D068082100F01DB911
:1011400010292ED0202930D0402946D110691021F5
:1011500000F013B9B1F5004F3BD00CDCB1F5007FC6
:101160002FD0B1F5806F30D0B1F5006F35D19069D7
:10117000702100F002B9B1F5803F1AD0B1F5003FFF
:101180002BD15068102100F0F8B89068134900F096
:10119000F4B8D068032100F0F0B8D068102100F056
:1011A000ECB81069032100F0E8B81069082100F0DC
:1011B000E4B85068082100F0E0B89069012100F01F
:1011C000DCB89069022100F0D8B89069042100F0E1
:1011D000D4B85068042100F0D0B870470101010074
:1011E000002A03D042690A434261704742698A4338
:1011F0004261704710B50022036823F002030360C8
:10120000036843F0010303604FF6FF7300E0521CD4
:101210004468E40701D19A42F9D14268D2073ED02E
:101220008A79012A3DD0026822F080020260CA79E0
:10123000012A3BD0026822F0400202600A7A012AA9
:1012400039D0026822F0200202604A7A012A37D09F
:10125000026822F0100202608A7A012A35D0026800
:1012600022F008020260CA7A012A33D0026822F012
:10127000040202608A78CC78920742EA04620C7910
:1012800042EA04424C79098842EA0452491E0A4360
:10129000C261016821F001010160002120E000200D
:1012A00010BD026842F080020260C0E7026842F0AE
:1012B00040020260C2E7026842F020020260C4E716
:1012C000026842F010020260C6E7026842F00802BB
:1012D0000260C8E7026842F004020260CAE7491CE3
:1012E0004268D20701D09942F9D14068C00701D0C5
:1012F000002010BD012010BD10B500EB0113D3F884
:10130000B04104F004041472002C2CD0D3F8B04186
:10131000E408546003F5D8731C6804F002045472A6
:101320005C6804F00F0494725C68240AD4749C68AE
:10133000D4729C68240A14739C68240C54739C68AF
:10134000240E9473DC68D473DC68240A1474DC689B
:10135000240C5474DB681B0E937449B1016941F08D
:101360002001016110BDD3F8B041640D1460D1E7D4
:10137000C16841F02001C16010BD024600200A4250
:1013800000D00120704700000122064B8240002956
:1013900003D01868104318607047186890431860AD
:1013A000704700000074004030B5084C236840F6D8
:1013B000FE7282409343D1E900252A43D1E90251CC
:1013C0000D432A4382401A43226030BD007400401E
:1013D00008B5034A1044083000900098016008BD29
:1013E0000074004008B5034A10441430009000987F
:1013F000016008BD00740040C10002D502490860C8
:1014000070470249486070470404024000000240EF
:10141000002904D0016841F00101016070470168B2
:101420004FF6FE72114001607047000001684FF6F0
:10143000FE72114001600021016041608160C16065
:101440003649364A0839904204D1486840F00F00C6
:1014500048607047314A1432904204D1486840F0E5
:10146000F000486070472D4A2832904204D1486805
:1014700040F4706048607047284A3C32904204D182
:10148000486840F4704048607047244A50329042A7
:1014900004D1486840F47020486070471F4A6432A5
:1014A000904204D1486840F47000486070471B4A7D
:1014B0007832904204D1486840F0706048607047CC
:1014C000174A111F904204D1086840F00F000860CD
:1014D0007047134A1432904204D1086840F0F0007B
:1014E000086070470E4A2832904204D1086840F4E0
:1014F0007060086070470A4A3C32904204D1086824
:1015000040F4704008607047054A50329042FAD16A
:10151000086840F47020086070470000080002402E
:1015200008040240406880B2704730B5026847F650
:10153000F0739A430C6A8B682343D1E904452C432A
:1015400023438C692343CC6923434C6A23438C6A2D
:10155000234313430360CA6842600A688260496893
:10156000C16030BD7047000070B54FF4006528467B
:1015700000F064F8002825D004F0FEF903281CD000
:1015800011480124046004F067FA0078A8B904F057
:1015900063FA047004F0ECF990F83C4004F0E8F9C8
:1015A00080F83D4004F0E8F90849087004F0E0F9DB
:1015B00090F83C10042005F061FD2846BDE870401D
:1015C00000F036B870BD0000AC8122426F000020F0
:1015D00070B5102000F032F8002827D004F0C8F9C8
:1015E000816B41F48061816304F084FA407C0125C1
:1015F00010B904F07FFA457404F07CFA817C491C30
:10160000817404F0C3F9044600684FF0FF31FEF71F
:10161000C7FE206004F0BAF9057404F0B7F90021A0
:10162000C160BDE87040102000F002B870BD00003D
:101630000149086070470000140401400146002081
:10164000054A12680A40044B14331B680B4202D04F
:10165000002A00D0012070470004014030B51B4A29
:1016600083790168002B2AD013688B431360111D06
:101670000B680468A3430B60017911440B6804688C
:1016800023430B60114C083421680368994321609F
:10169000231D19680568A94319604179102905D0EF
:1016A00011440A68006802430A6030BD216802687C
:1016B00011432160196800680143196030BD007949
:1016C000104402688A43026030BD000000040140FB
:1016D0000149C860704700000020024070B505460F
:1016E0004FF43026304600F059F8042811D1094C47
:1016F000206940F0020020616561206940F04000EF
:101700002061304600F04AF8216941F6FD7211402F
:10171000216170BD0020024004200849CA68D20738
:1017200001D001207047CA68520701D502207047D6
:10173000C968C906FBD5032070470000002002409D
:101740000248016941F080010161704700200240B8
:10175000F0B506460D464FF40057384600F01EF827
:1017600004280CD1064C206940F00100206135802E
:10177000384600F013F82169BA1E11402161F0BD0E
:10178000002002400348024941600349416070471C
:101790002301674500200240AB89EFCD00B5034629
:1017A000FFF7BAFF02E0FFF7B7FF5B1E012801D188
:1017B000002BF8D1002B00D1052000BD10B58A0701
:1017C000120F0F23934021F00304054921448C6834
:1017D0009C438C608B68904003438B6010BD00007D
:1017E000000001402DE9F0410022CC7804F00F0305
:1017F000E40601D58C7823430C784FF00F0714F0E2
:10180000FF0F4FF0010C1CD005680CFA02F40E8893
:101810002640A64211D1960007FA06F825EA0805E7
:1018200003FA06F848EA0505CE78282E02D0482E9D
:1018300002D002E0446100E00461521C082AE4D3B3
:1018400005600A88FF2A1ED94568002202F10806B1
:101850000CFA06F40E882640A64210D1960007FA2C
:1018600006F825EA080503FA06F848EA0505CE78E1
:10187000282E00D14461CE78482E00D10461521C3C
:10188000082AE3D34560BDE8F08141F480328261EB
:101890008161826181698069704702460020926897
:1018A0000A4200D00120704741684FF48072914293
:1018B0003ED014DC102935D009DC01292CD00229B6
:1018C0002CD004292CD0082900D1082070472029C9
:1018D0002AD040292AD08029F8D1802070474FF49F
:1018E000805291422AD00BDC4FF40072914221D0F9
:1018F0005200914220D052009142EFD110467047E1
:101900004FF4005291421BD0520091421AD0520023
:101910009142F4D110467047012070470220704771
:1019200004207047102070472020704740207047E7
:101930001046704710467047104670471046704773
:1019400010467047104670474168B1F5807F3BD024
:1019500014DC102932D009DC012929D0022929D030
:10196000042929D0082900D103207047202927D035
:10197000402927D08029F8D107207047B1F5805F32
:1019800028D00ADCB1F5007F20D0B1F5806F1FD0E0
:10199000B1F5006FF1D10B207047B1F5005F1BD09E
:1019A000B1F5804F1AD0B1F5004FF5D10F20704737
:1019B00000207047012070470220704704207047C4
:1019C000052070470620704708207047092070479F
:1019D0000A2070470C2070470D2070470E2070477A
:1019E000114A0168914201D1002070470F4A91428B
:1019F00001D1012070470E4A914201D10220704767
:101A00000C4A914201D1032070470B4A914201D107
:101A100004207047094A914201D105207047084AC5
:101A20009142FBD10620704700080140000C0140A4
:101A3000001001400014014000180140001C01404A
:101A4000002001404168B1F5807F3BD014DC1029B3
:101A500032D009DC012929D0022929D0042929D032
:101A6000082900D109207047202927D0402927D0F4
:101A70008029F8D117207047B1F5805F28D00ADCA3
:101A8000B1F5007F20D0B1F5806F1FD0B1F5006FA8
:101A9000F1D128207047B1F5005F1BD0B1F5804F20
:101AA0001AD0B1F5004FF5D12820704706207047B5
:101AB00007207047082070470A207047172070479A
:101AC000172070471720704717207047282070474D
:101AD00028207047282070472820704770B5FF22C3
:101AE000FF23002801D0022902D84FF6FF7070BDF5
:101AF000074D05F5807605E010F8014B54402A5D4E
:101B00005A40335D491EC9B2F6D243EA022070BD85
:101B1000A879000806A30020104C211F1A5C22801F
:101B20000A885206FCD5401CC0B22A28F6D3FEE72C
:101B30000D0A456E74657220486172644661756C69
:101B4000745F48616E646C65722C205379737465A0
:101B50006D2048616C742E0D0A00000004380140AD
:101B600002494CF6CC40086070470000003000404D
:101B7000AFF3008002494AF6AA20086070470000CF
:101B800000300040014948607047000000300040CC
:101B9000014988607047000000300040014908603A
:101BA0007047000000300040810701D000207047DE
:101BB0006421B0FBF1F201FB120109B10120704771
:101BC0004FF4C871B0FBF1F201FB120008B1002024
:101BD000704701207047FEE77047000070B50F2383
:101BE000C27801260178002A1ED0144A126802F435
:101BF000E062C2F5E062120AC2F10404D340457803
:101C0000A54082781A402A43120101F1E02181F8AF
:101C10000024007800F01F018E404009800000F190
:101C2000E020C0F8006170BD01F01F008640480947
:101C3000800000F1E020C0F8806170BD0CED00E094
:101C40000249084302490860704700000000FA0595
:101C50000CED00E010B54FF48030FFF7E9FC03F025
:101C600049FF0021017003F045FF0178BDE81040F5
:101C70000820FEF751BE00000149086270470000CD
:101C800000000E42014908617047000000000E424A
:101C9000034A116821F0E001014311607047000020
:101CA00000700040054A002903D051690143516189
:101CB0007047516981435161704700000010024034
:101CC000054A002903D0D1690143D1617047D16928
:101CD0008143D1617047000000100240054A00298D
:101CE00003D091690143916170479169814391618A
:101CF0007047000000100240014908607047000072
:101D00004004424210B5264A516801F00C01254BAF
:101D1000002927D0042927D0082927D0036051683B
:101D200001F0F0010909204B5C5C0168E140416071
:101D3000546804F4E064240A1C5D21FA04F484600D
:101D4000546804F46054E40A1B5DD940C1605268D1
:101D500002F44042920B144B1B1F9A5CB1FBF2F150
:101D6000016110BD0360DAE70360D8E7516801F450
:101D70007011536803F48033022404EB914133B1B2
:101D800053689B0307D5094B59430160C7E7074BCD
:101D900059430160C3E7034B59430160BFE70000AB
:101DA0000010024000127A00F201002000093D00FC
:101DB000034600205909094A01290AD002290AD0FC
:101DC000516A03F01F02012393400B4200D001200F
:101DD00070471168F5E7116AF3E700000010024050
:101DE000084900220A7001F82029012805D004289A
:101DF00002D1052081F820007047012081F82000E1
:101E00007047000020100240014908607047000040
:101E10003C04424202490A6A02430A6270470000D7
:101E20000010024002490A8882430A80704700007D
:101E3000042800400248018841F0100101807047E9
:101E4000042800400248018821F0100101807047F9
:101E5000042800402DE9F04700F06AF80646304FAC
:101E6000B6FBF7F32F48304D0188994231D00380FB
:101E700040F2B2744FF4B7784FF4B6790FE02046D1
:101E8000FFF792FE38B1434502D3A3F5B77304E0E0
:101E9000641CA4B205E0A3F26D13641CA4B24B450C
:101EA000EDD8AC800024DFF884800CE0A888FFF730
:101EB0007BFE08B1012C2FD018F80400984204D8FA
:101EC0001B1A641CA4B21C2BF0D2641CAC715B1CEA
:101ED000EB71B6FBF7F007FB10604FF46161B0FBEC
:101EE000F1F22A70B0FBF1F201FB12033C22B3FBCA
:101EF000F2F36B70B0FBF1F301FB1300B0FBF2F1F6
:101F000002FB1100A870EA79A979A88800F02AF8E4
:101F100028720020BDE8F0871D2BD6D31D3BD0E7EB
:101F200080510100EC01002070170020787E00082D
:101F3000034800880249091F098840EA01407047A8
:101F40001C28004006490988C2B21140044A121FE9
:101F50001288024202D009B1012070470020704768
:101F60000428004030B56423B0FBF3F4E4B2B0FBC6
:101F7000F3F503FB1500132C01D96430C0B200EB5C
:101F800090030724B3FBF4F504FB1533084D1A4402
:101F90000D4415F8015C2A4492B2800703D103294D
:101FA00001D2521E92B2B2FBF4F004FB102030BDFD
:101FB0006C7E000810B50120FFF7C4FF002865D033
:101FC00003F0D6FCC16D491CC16503F0D1FCC06DA6
:101FD000B0F5616F08D303F0CBFC016E491C0166BC
:101FE00003F0C6FC0021C16503F0C2FC006E0521B0
:101FF000B0FBF1F201FB120078B903F0B9FC006EFE
:1020000058B103F0B5FC446E03F0B2FC006E84429C
:1020100003D003F06FFD0121817303F0A9FC006E72
:102020001821B0FBF1F201FB120030BB03F0A0FC61
:10203000006E10B303F09CFC446E03F099FC006E3C
:1020400084421AD003F094FC806E20B103F090FC1F
:10205000816E491E816603F08BFCC06E20B103F0D7
:1020600087FCC16E491EC16603F082FC006F20B17F
:1020700003F07EFC016F491E016703F079FC046EDA
:1020800003F076FC44660520FFF7CCFE0220FFF744
:1020900059FF30B105480168491C01600220FFF773
:1020A000C1FEBDE8104000F0ABB8000020010020E8
:1020B000054A002903D01188014311807047118817
:1020C00081431180704700000028004008B50322BA
:1020D0008DF800208DF801008DF8021001208DF898
:1020E00003006846FFF77AFD08BD00002DE9F05FA8
:1020F0000646DDF828A0894690460024A6F2B27074
:10210000822802D30120BDE8F09F40F2B275284F2B
:10211000DFF8A0B008E02846FFF746FD08B13C44D0
:1021200000E05C446D1CADB2B542F4D3A9F10109E5
:1021300009F0FF070025DFF88090DFF880B00FE09E
:1021400019F8050040F2A321484304EBC0143046BF
:10215000FFF72AFD10B1012D00D15C446D1CADB21A
:10216000BD42EDD3A8F1010840F2A32008FB00F81E
:1021700004EBC810C3EB4311C1EB032100EB0110CA
:10218000CAEB0A1100EB81000B99441801214FF0B2
:10219000C050FFF795FD0120FFF76EFD204600F0CF
:1021A0000FF800F02DF8FFF755FE0020ABE7000018
:1021B0000085E2018033E101787E00088051010052
:1021C00000B50246FFF736FE0449100C0880081DD2
:1021D00002805DF804EBFFF735BE000018280040D0
:1021E00000B50246FFF726FE0449C2F3034008800B
:1021F000081D02805DF804EBFFF724BE08280040AC
:10220000024801888906FCD5704700000428004078
:102210000448018821F00801018001880907FCD5E4
:102220007047000004280040AFF300800CB5002286
:10223000019200922748016841F4803101604FF417
:10224000A063016801F4003100910199491C0191DA
:10225000009911B901999942F3D10168890302D516
:102260000121009100E000920099012930D11A4922
:102270000A6842F010020A600A6822F003020A604B
:102280000A6842F002020A604168416041684160A8
:10229000416841F480614160416821F47C114160F2
:1022A000416841F4E8114160016841F080710160CA
:1022B00001688901FCD5416821F003014160416852
:1022C00041F0020141604168C1F381010229FAD164
:1022D0000CBD0000001002400020024010B5FDF7C8
:1022E00077FF05F0A7FA18B104494FF08050086055
:1022F000BDE810400020FDF772BF000004ED00E0D3
:1023000010B50F48016841F00101016041680D4AB4
:102310001140416001680C4A11400160016821F4DC
:1023200080210160416821F4FE0141604FF41F01EA
:102330008160FFF779FF05494FF00060086010BD2C
:10234000001002400000FFF8FFFFF6FE08ED00E07D
:1023500010B5FEF7BFFA00280AD003F009FB0121EF
:1023600080F87610FEF7A4FABDE81040FEF798BAA0
:1023700010BD000070B5048C24F001040484058BAA
:10238000048C25F0F3054FF6FF7606EA031313439A
:102390002B43104A90420ED00F4A90420BD0B0F11E
:1023A000804F08D00D4A904205D00D4A904202D08D
:1023B0000C4A904205D124F002020A4342F0010186
:1023C00004E024F00A020A4342F00101038301847D
:1023D00070BD0000002C01400034014000040040AA
:1023E00000080040000C0040F0B5048C24F01004FC
:1023F0000484068B048C4FF6FF7505EA011726F45A
:10240000734605EA0333334305EA02221A43104BAD
:1024100098420ED00F4B98420BD0B0F1804F08D0AD
:102420000D4B984205D00D4B984202D00C4B984270
:1024300005D124F02001394341F0100104E024F0DB
:10244000A0030B4343F0100102830184F0BD0000A0
:10245000002C01400034014000040040000800400E
:10246000000C0040F0B5048C24F480740484858B47
:10247000048C4FF6FF7707EA012625F0F30507EAFB
:10248000031313432B43104A90420ED00F4A90423D
:102490000BD0B0F1804F08D00D4A904205D00D4AC4
:1024A000904202D00C4A904205D124F4007131438D
:1024B00041F4807104E024F420620A4342F4807104
:1024C00083830184F0BD0000002C014000340140F2
:1024D0000004004000080040000C0040F0B5048CEF
:1024E00024F480540484868B048C4FF6FF7505EA2F
:1024F000013726F4734605EA0222324305EA033324
:102500001343104A90420ED00F4A90420BD0B0F1C4
:10251000804F08D00D4A904205D00D4A904202D01B
:102520000C4A904205D124F40051394341F48051C2
:1025300004E024F402420A4342F48051838301847C
:10254000F0BD0000002C01400034014000040040B8
:1025500000080040000C00400146054A914201D1AC
:102560001B207047034A9142FBD12E207047000088
:10257000002C01400034014070B501218D07284630
:1025800000F0E5FB00287DD003F0F2F990F83E0062
:10259000002430B103F0ECF930F8401F491C0180F1
:1025A00003E003F0E5F9A0F8404003F0A3FAC07B94
:1025B0000A2816D303F09EFA01780820FEF7ACF93A
:1025C00003F0DAF901460C20FEF7A6F903F0D0F982
:1025D00090F83C101020FEF79FF903F08BFAC473BB
:1025E00004E003F087FAC17B491CC17303F082FA4F
:1025F000407B60B103F07EFA017B491C017303F05C
:1026000079FA007BC82802D303F074FA447303F00C
:1026100039FA90F83C0060B903F0B4F9407940B958
:1026200003F030FAC46050488481C481046044607F
:10263000046103F027FA90F8440060B903F0A2F9AE
:10264000407940B903F01EFA046148488481C4818E
:1026500004604460046103F015FA90F83C0080B116
:1026600003F090F9407960B903F00CFA016C491E4F
:10267000016403F007FA006C18B903F003FA80F85C
:102680003C4000E06FE003F0FDF990F8440080B1B9
:1026900003F078F9407960B903F0F4F9816C491ED0
:1026A000816403F0EFF9806C18B903F0EBF980F85E
:1026B000444003F0D1F9407848B103F0E3F990F8D1
:1026C000240003F0E3F9064603F0C6F9466003F080
:1026D00011FA407C012608B303F00CFA4169491C49
:1026E000416103F007FA406941F2707188421FD3DB
:1026F00003F000FA446103F0FDF9447403F0FAF9C1
:10270000807C05280BD303F0F5F9067403F034F947
:1027100005280DD00021052004F0B0FC08E003F0EE
:10272000E9F9847403F024F9816B21F480618163F9
:1027300003F01EF9007880B903F01AF94168491CCA
:10274000416003F015F94068B0F5167F05D303F03A
:102750000FF9446003F00CF906702846BDE870409C
:10276000012100F0E5BA70BD800800209808002023
:102770002DE9F05FDFF864A10121504600F0E7FA8F
:10278000574C584D58B1216809B1491C216029683E
:1027900009B1491C29600121504600F0C9FA022103
:1027A000504600F0D4FA0027DFF83C910126C8B368
:1027B00003F0E8F8407958B903F064F980F83C6018
:1027C00003F060F9D0F84C8003F05CF9C0F8408069
:1027D000DFF80881206808F1340820B3B8F8001049
:1027E000E181401EE189C0EB00400844A189401A04
:1027F0002061FDF75CFE01464846FDF793FD6060F1
:1028000003F040F901686068FDF75AFD3749FDF7AC
:1028100057FD834603F036F9C0F80CB02760A8F8DE
:10282000007004E014E0B8F80000A081266003F016
:10283000A9F8407940B103F00BF9067003F008F9EC
:10284000446803F005F984600221504600F070FAF4
:102850000421504600F07BFA00283CD003F092F8A7
:10286000407948B903F00EF980F8446003F00AF9A2
:10287000C46C03F007F98464184C2868383400B33A
:102880002188E981401EE989C0EB00400844A989FC
:10289000401A2861FDF70BFE01464846FDF742FD50
:1028A000686003F0EFF841686868FDF709FD0F49BB
:1028B000FDF706FD064603F0E5F806612F60278068
:1028C00003E027802088A8812E605046BDE8F05F95
:1028D000042100F02DBABDE8F09F00000008004080
:1028E00080080020980800200050C3470000704274
:1028F00070B5774E0121304600F029FA002870D0DB
:1029000003F03AF80024032804D003F035F8022835
:1029100028D0D5E003F02CF890F83400F0B103F0A3
:1029200035F8007C0028F4D103F030F8C06869491C
:1029300088420DD303F02AF8C46003F027F8044658
:1029400003F024F841682068FDF762FC2060B7E0DE
:1029500003F01CF8C168491CC160B1E003F016F82F
:10296000C460ADE003F00EF84079002875D003F0A4
:102970006FF800780028CCD003F06AF8806878B34C
:1029800003F066F88168491E816002F0FBFF006A6F
:102990000A285BD302F0F6FF046203F059F800F155
:1029A0000C0403F055F801692068FDF731FC206044
:1029B00003F04AF80078032103F052F8B0B102F0B6
:1029C000E1FF446903F044F8C0682146FDF7C2FD09
:1029D00076D202F0D7FF446903F03AF8C4606FE0A2
:1029E00000E073E003F034F80470CEE702F0C0FFBB
:1029F00090F84200C8B102F0C5FF807902F0D0FF24
:102A0000044602F0BFFF846002F0BCFF846803F05C
:102A10001FF8C0682146FDF79DFD51D802F0B2FFB6
:102A2000846803F015F8C4604AE002F0ABFFC468A4
:102A300003F00EF8C0682146FDF78CFD40D202F08D
:102A4000A1FFC46803F004F8C46039E002F09AFF03
:102A5000016A491C016233E0FFE702F0F5FF0078EC
:102A6000032102F0FDFF70B902F08CFF006A0A2812
:102A700004D302F087FF007F01280FD002F082FF0D
:102A8000016A491C016202F0FDFF90F85000A0B1FC
:102A900002F0F8FFC16D491CC16511E002F072FF40
:102AA000046202F0EFFF00F11C0502F0EBFF816A07
:102AB0002868FDF7ADFB2860E5E702F0E3FFC46599
:102AC0003046BDE87040012100F032B970BD000011
:102AD000000C0040E093040070B5234D012128460E
:102AE00000F035F900283ED0204C207820490A28F3
:102AF00001D3087828B120780A282ED2087818B196
:102B00002BE00120087028E002F0F8FF1948006867
:102B10001949227841F8220018480068184922789B
:102B200041F8220017480168174A207842F820101F
:102B3000164800681649227841F8220015480068B6
:102B40001549227841F82200144800681449227877
:102B500041F822002178491C21702846BDE87040C8
:102B6000012100F0E5B870BD001000409300002086
:102B7000920000209C000020A0060020A000002061
:102B8000C8060020A4000020F0060020A8000020B5
:102B900018070020AC00002040070020B0000020F3
:102BA0006807002070B5234D0121284600F0CFF8BA
:102BB00000283ED0204C207820490A2801D30878EC
:102BC00028B120780A282ED2087818B12BE00120ED
:102BD000087028E002F0DEFF1948006819492278E1
:102BE00041F82200184800681849227841F822006C
:102BF00017480168174A207842F8201016480068E4
:102C00001649227841F822001548006815492278B3
:102C100041F82200144800681449227841F8220043
:102C20002178491C21702846BDE87040012100F040
:102C30007FB870BD00140040950000209400002073
:102C4000B400002090070020B8000020B807002042
:102C5000BC000020E0070020C00000200808002081
:102C6000C400002030080020C800002058080020C0
:102C70002DE9F0411E4F0221384600F068F8002887
:102C800034D01C4C1A4E34362068002518B33188D5
:102C9000E181401EE189C0EB00400844A189401A4F
:102CA0002061FDF704FC01461348FDF73BFB606023
:102CB000217D124A42F821002560491CC8B22075C6
:102CC00035800A280CD30A21104603F0B5FEA06017
:102CD0002575656004E035803088A0810120206082
:102CE0003846BDE8F041022100F022B8BDE8F0818D
:102CF00000340140B0080020001BB749C80800207C
:102D000010B5094C0121204600F021F800280AD016
:102D10000649086808B1401C08602046BDE810401C
:102D2000012100F005B810BD00340140B0080020BA
:102D3000C94301827047002904D0018841F0010194
:102D400001807047018821F001010180704702462F
:102D50000020138A0B4092890A40002B02D0002ADF
:102D600000D001207047000070B505460C461D4894
:102D7000854209D01C48854206D0B5F1804F03D06A
:102D80001A48854200D01A4820886188A288238981
:102D900060B1042813D008281AD02846FFF79EFBFC
:102DA000E1882846BDE8704000F04AB82846FFF7A1
:102DB000E1FAE1882846BDE8704000F025B82846D1
:102DC000FFF712FBE1882846BDE8704000F024B808
:102DD0002846FFF747FBE1882846BDE8704000F031
:102DE00027B80000002C01400034014000040040DE
:102DF00000080040002A03D082890A43828170477C
:102E000082898A4382817047028B22F00C020283FE
:102E1000028B0A4302837047028B22F440620283D2
:102E2000028B4FF6FF7303EA01210A4302837047C6
:102E3000828B22F00C028283828B0A43828370474A
:102E4000828B22F440628283828B4FF6FF7303EA07
:102E500001210A43828370470146B1F1804F04D0BB
:102E6000124A914203D11D2070471C207047104A1E
:102E7000914201D11E2070470E4A914201D1322069
:102E800070470D4A914201D1362070470B4A91425A
:102E900001D1372070470A4A914201D11920704769
:102EA000084A9142FBD12C207047000000040040EA
:102EB00000080040000C00400010004000140040DA
:102EC000002C01400034014030B502881B4C1C4DE1
:102ED000A0420DD0A8420BD0B0F1804F08D0194BC2
:102EE000984205D0184B984202D0184B984203D113
:102EF00022F070034A881A43154B984206D0154BAE
:102F0000984203D022F44073CA881A4302808A8808
:102F100082850A880285A0420AD0A84208D00E4ABB
:102F2000904205D00D4A904202D00D4A904201D104
:102F3000097A01860121818230BD0000002C014008
:102F4000003401400004004000080040000C004034
:102F500000100040001400400040014000440140C7
:102F60000048014070B5164D40F22441284600F05B
:102F70007BF8002823D02888281D0088114E0021C6
:102F80003046FEF745FA3046FEF7CCFAC0F1400075
:102F900084B24FF4C000FEF72FFA0A4940206C3982
:102FA000086701213046FEF733FA002C07D00649A6
:102FB000284603F01DF905480168491C016070BDF1
:102FC000004400406C0002408D0000201C010020E5
:102FD00070B5164D40F22441284600F045F800280F
:102FE00022D02888281D0088114E00213046FEF787
:102FF0000FFA3046FEF796FAC0F5007084B26020F2
:10300000FEF7FAF90A4968151C39C86501213046EE
:10301000FEF7FEF9002C07D00649284604F018F800
:1030200005480168491C016070BD0000004800406F
:103030001C000240140100201C010020002904D0C3
:10304000818941F4005181817047818921F40051C7
:1030500081817047002A03D0828A0A4382827047A6
:10306000828A8A438282704770B5002440F66A12D1
:10307000C1F3421301F01F05012606FA05F2012BE8
:103080000CD0022B0DD0838A1340090A8E40008891
:1030900030400BB100B10124204670BD838913403C
:1030A000F3E7038A1340F0E710B540F66A13C1F363
:1030B000421301F01F040121A140012B07D0022B74
:1030C00007D014303AB102680A43026010BD0C30D8
:1030D000F8E71030F6E702688A43026010BD00008E
:1030E00030B585B004460D46208A4CF6FF71084085
:1030F000E98801432182A0894EF6F3110840A9888E
:103100002A8911436A8902431143A181A08A4FF69B
:10311000FF410840A9890143A1826846FEF7F2FDFC
:103120001D48844201D1039800E00298A189090456
:1031300008D500EBC00101EB001029684900B0FB85
:10314000F1F007E000EBC00101EB001029688900F5
:10315000B0FBF1F06422B0FBF2F109010B096FF052
:1031600018056B4300EB8300A3891D044FF0320365
:1031700007D503EBC000B0FBF2F000F007000843F6
:1031800006E003EB0010B0FBF2F000F00F00084384
:10319000208105B030BD00000038014001460D4AD5
:1031A000914201D10C4870470C4A914201D10C4820
:1031B00070470C4A914202D10948403070470A4A90
:1031C000914201D109487047094A9142FBD109480F
:1031D0007047000000380140F00800200044004023
:1031E000F009002000480040004C0040300C002056
:1031F00000500040300E002001460D4A914201D19E
:103200000C4870470C4A914201D10C4870470C4A57
:10321000914202D10948403070470A4A914201D197
:1032200009487047094A9142FBD10948704700009C
:1032300000380140301000200044004030110020D0
:1032400000480040004C0040701300200050004037
:1032500070150020F0B502461C4C1D4B1D4D1E4E36
:103260001E4F802905D0402902D1A2421AD11C4804
:10327000F0BDA24202D11A486438F0BD9A4202D190
:1032800017485038F0BDAA4202D115483C38F0BD6D
:10329000B24202D112482838F0BDBA42FCD11048DF
:1032A0001438F0BD9A4202D10D481430F0BDAA4244
:1032B00002D10B482830F0BDB24202D108483C3060
:1032C000F0BDBA42FCD106485030F0BD0038014094
:1032D0000044004000480040004C004000500040C6
:1032E0008801002001460D4A914201D180157047A6
:1032F0000B4A914201D1402070470A4B5A1599421E
:1033000001D110467047084B994201D110467047D1
:10331000064B9942FBD1104670470000003801402F
:103320000044004000480040004C00400050004075
:1033300001460D4A914201D1801570470B4A9142D6
:1033400001D1402070470A4B5A15994201D11046CD
:103350007047084B994201D110467047064B99427D
:10336000FBD1104670470000003801400044004087
:1033700000480040004C00400050004001460C4A0C
:10338000914201D1252070470A4A914201D126205D
:103390007047094A914201D127207047074A91425C
:1033A00001D134207047064A9142FBD13520704745
:1033B000003801400044004000480040004C0040FC
:1033C0000050004010B586B0144C02212046FDF795
:1033D000A1FE002820D004212046FDF7EDFD104974
:1033E0002046FDF7D1FD01AA00212046FDF784FF0C
:1033F0000198A0F50070093806D0012808D10949C4
:1034000001A801F08CFD03E0074901A801F087FD48
:1034100006480168491C016006B010BD0064004008
:10342000080000327A0000208200002018010020ED
:10343000FEE730B505460C46002D01D0022C01D820
:10344000002030BDA01EC1B22846FEF747FB291957
:10345000C2B211F8023C9A4206D111F8011CB1EB3C
:10346000102F01D1012030BD002030BD02E008C87E
:10347000121F08C1002AFAD170477047002001E0EE
:1034800001C1121F002AFBD1704700002DE9F04155
:103490006D4C6068FDF70BF86C4D2946FCF710FF8A
:1034A000064602F065FA066102F0CEFA217A017052
:1034B000E068FCF7FCFF064602F064FA0661A069CA
:1034C000FCF7F5FF2946FCF7FBFE064602F0DAFAA8
:1034D00046632069FCF7EBFF2946FCF7F1FE064640
:1034E00002F0D0FA06626069FCF7E1FF2946FCF7BA
:1034F000E7FE064602F03CFA4662206AFCF7D7FF78
:103500002946FCF7DDFE064602F032FA8662E069E3
:10351000FCF7CDFF2946FCF7D3FE064602F032FA4F
:10352000466102F0AFFAA16B416502F091FAE16BDE
:10353000416002F0A7FA216CC16402F0A3FA616C49
:103540008165A06CFCF7B3FF2946FCF7B9FE06467F
:1035500002F082FA0661E06CFCF7A9FF2946FCF74D
:10356000AFFE064602F078FA466102F001FA216DDC
:10357000C16502F0FDF9616D016602F0F9F9A16D16
:10358000816602F0F5F9E16DC16602F0F1F9216E94
:10359000016702F0EDF9616E816702F0E9F9A16E51
:1035A000C16702F0E5F9E16EC0F8801002F0E0F9C1
:1035B000216FC0F88410206BFCF779FF8046606AA9
:1035C000FCF775FF224F3946FCF77AFE214E314653
:1035D000FCF776FE4146FCF7A5FE804602F052FA63
:1035E000C0F80080606BFCF762FF8046A06AFCF7C1
:1035F0005EFF3946FCF764FE3146FCF761FE41464A
:10360000FCF790FE064602F03DFA466002F0B0F983
:1036100000694FF0FF31FCF7C3FE064602F0B6F931
:103620008660E06AFCF743FF2946FCF749FE054641
:1036300002F028FA056302F09BF994F8741080F800
:103640005010BDE8F0810000A00200200AD7233C02
:10365000ACC52737DB0F494070B50124064E074D36
:1036600006EB840105EB4400022201F0C1FB641C5F
:10367000E4B21E2CF4D370BDA00200200030030879
:1036800070B50024064E074D06EB840105EB44009F
:10369000022201F0E7FB641CE4B21E2CF4D370BDDF
:1036A000A00200200030030810B500F0BBFD01F0BF
:1036B000C3FA00F005FF00F00FF9BDE81040014823
:1036C000FEF720BB6802002070B526480221016089
:1036D00040F6C4124260002181601923C360026178
:1036E000416147F2305383616424C4614FF49672A0
:1036F00082634FF4AF75C563026442644FF47A721B
:103700008264C2643222026249F6404545628362A5
:103710004FF4FA73C36202634FF4007242630165AF
:1037200041658465FA22C26540F26D1202660E4A56
:10373000426640F27F72826640F22A32C2660167B8
:103740004167022209490A4801F052FB0748007804
:10375000FF2803D0BDE87040FFF77EBFBDE8704092
:10376000FFF78EBFA002002052BF01006D000020B5
:103770000030030810B50A21144803F05DF914491C
:1037800008600A21134803F057F9134908600A2119
:10379000124803F051F9124908600A21114803F058
:1037A0004BF9114908600A21104803F045F9104906
:1037B00008600A210F4803F03FF90F4908600F49DC
:1037C000002008700E49087010BD0000A0060020FF
:1037D000CC000020C8060020D0000020F006002009
:1037E000D400002018070020D80000204007002047
:1037F000DC00002068070020E0000020920000208C
:103800009300002010B50A21144803F015F914495B
:1038100008600A21134803F00FF9134908600A21D0
:10382000124803F009F9124908600A21114803F00F
:1038300003F9114908600A21104803F0FDF8104906
:1038400008600A210F4803F0F7F80F4908600F4994
:10385000002008700E49087010BD0000900700207D
:10386000E4000020B8070020E8000020E007002066
:10387000EC00002008080020F000002030080020A4
:10388000F400002058080020F800002094000020D8
:103890009500002008B503F0C7FF00900C4C0D4DBB
:1038A0000221684603F06CFE207818B1FFF762FF32
:1038B00003F030FE287818B1FFF7A4FF03F02AFECA
:1038C000207829780843EBD103F024FEE8E70000D4
:1038D00092000020940000201FB500200649CDE989
:1038E000011006220346009203904FF4007203A1D8
:1038F000034803F01FFF1FBD18030020414443008D
:103900009538000810B502F033F890F83C0000211B
:10391000032861D018DC534C50B3012845D002284D
:1039200011D101040022504801F0E8FF4E48006820
:10393000D0B320684D49884205DB02F019F810F831
:103940003C1F491C017010BD042852D005286DD0C1
:103950006328F8D102F00CF880F8421002F008F861
:1039600080F843100021BDE81040052003F086BB1D
:103970003F4801603E4864211C3803F063FA206828
:103980003C498842DFDB3A483221243803F05AFAB6
:1039900001F0EEFF012180F83E1001F0E9FF10F880
:1039A0003C1F491C017010BD10E001F0E1FFB0F8B0
:1039B00040000528F7D301F0DBFF80F83E1001F04E
:1039C000D7FF10F83C1F491C0170ECE76321BDE8EC
:1039D0001040022003F052BB002001F0B5FA002095
:1039E00001F0CAFA01F0C4FF10F83C1F491C017035
:1039F000D9E700F041F801F0E9FF407A042101F035
:103A0000E3FF38B901F0E2FF407A012101F0DCFF69
:103A10000028C8D101F0ACFF90F842000028C2D1C4
:103A20006321BDE81040022003F028BB01F0A0FF95
:103A300090F8430040B901F09BFF90F8420018B1A4
:103A40000421022003F01AFB01F0C0FF407A042198
:103A500001F0BAFF0028A6D06321BDE81040022083
:103A600003F00CBBE8000020080123420000E14302
:103A7000B08122420000D24370B501F083FF40794B
:103A800050B1012821D101F073FFC07D00281CD165
:103A9000BDE8704003F072B901F074FF007F0024AC
:103AA0000125764E052810D2DFE800F0031037A478
:103AB000C90001F05DFFC07D002806D0C6F89C411A
:103AC00001F060FF017F491C017770BD01F050FFDC
:103AD000C07D20B101F04CFF90F8430018B101F017
:103AE000BBFF007818B1BDE8704003F0D1BA01F017
:103AF0003FFF90F8500030B101F044FF457101F0F4
:103B000041FF047770BD01F0BDFF80F8505001F017
:103B100039FF017F491C017770BD01F029FF90F842
:103B20004200B8B301F024FF90F8430088B101F0DF
:103B3000A9FFC16D01F0A6FF806D814245D301F060
:103B400021FF017F491C017701F09CFF80F8504064
:103B50003BE001F00DFFC07D50B101F093FF80F814
:103B6000504001F08FFFC46501F00CFF05772CE099
:103B700001F088FFC16D01F085FF806D814224D383
:103B800001F000FF017F491C017701F07BFF80F805
:103B900050401AE0FFE701F0EBFEC07D20B101F0DC
:103BA000E7FE90F84200D0B101F06CFFC16D01F06A
:103BB00069FF406D814208D301F0E4FE017F491C9A
:103BC000017701F05FFF80F8504001F05BFF90F853
:103BD00050000028A0D0BDE8704003F053BB01F0B6
:103BE00051FF80F8504001F04DFFC46501F0CAFE5E
:103BF0000577EAE701F0C6FE80692149884205DCC5
:103C000001F0C0FE017F491C017770BD01F03AFF51
:103C100000F11C04C0694FF0FF31FCF7C1FB2060CC
:103C200001F030FFC06901F08FF901F02BFFC0698E
:103C300001F0A2F9BDE87040642003F077BC01F008
:103C400021FFC46101F01EFFC06901F07DF901F0A0
:103C500019FFC06901F090F9C6F89C5101F092FE7D
:103C6000047701F085FE90F843000028CDD0BDE830
:103C700070400521022003F001BA000000802242BA
:103C80000000204170B501F073FE00691749FCF790
:103C900017FB174C6060207C28B100202074322173
:103CA000144803F0D9F8A1682068FCF753FC01D24E
:103CB000A068206001F05CFE0F4E05693146206867
:103CC000FCF7FEFA2946FCF72DFB01F03DF901F067
:103CD0004FFE056931462068FCF7F2FA2946FCF7E9
:103CE00021FBBDE8704001F047B90000CDCC4C3D50
:103CF000BC030020BC012142333353402DE9F04185
:103D000001F036FE90F83C000024614F614D012621
:103D100004286ED018DCDFF8808108B301283CD07D
:103D200002284BD003280DD1002001F00DF900200E
:103D300001F022F9C5F89C4101F01AFE10F83C1F71
:103D4000491C0170BDE8F081052862D006287CD0AE
:103D50006328F7D1BDE8F0410421012003F08EB9BA
:103D6000C7F8A041C5F8B04164214C4803F06AF897
:103D7000D8F800004A498842E4DB48483221083834
:103D800003F060F801F0F4FD80F83E6001F0F0FD12
:103D900010F83C1F491C0170D4E701F0E9FDB0F8B0
:103DA00040000528CED301F0E3FD80F83E4001F04D
:103DB000DFFD10F83C1F491C0170C3E700224FF4DF
:103DC0000031384801F09AFD3648006858B1D8F8FB
:103DD000000035498842B5DB01F0CAFD10F83C1FF0
:103DE000491C0170AEE7BDE8F0410021032003F05B
:103DF00045B901F0BDFD90F8340018B1BDE8F041BF
:103E0000FFF740BF01F0B4FD10F83C1F491C0170E2
:103E100098E701F0B7FD80692449884206DC01F08B
:103E2000A7FD10F83C1F491C01708BE701F0AEFDA7
:103E3000044600684FF0FF31FCF7B2FA206001F051
:103E4000A5FD006801F080F800E009E001F09EFDAA
:103E5000006801F091F8BDE8F041642003F066BB12
:103E600001F094FD0460002001F06EF8002001F0E4
:103E700083F8C5F89C6109486421001D02F0E2FF47
:103E8000C7F8A061BDE8F0416321032003F0F6B854
:103E90000000214200802242E8000020948122425A
:103EA0000000D243080123420000E143000020410A
:103EB0002DE9F04701F05CFD90F83C00DFF8CC8183
:103EC000DFF8C491714F0026714D012408F11408E8
:103ED00003284BD019DC40B3012836D0022812D178
:103EE000C10300226B4801F009FDD9F80001002848
:103EF00009D001F03DFD80F83E4001F039FD10F899
:103F00003C1F491C0170BDE8F08704286CD0632871
:103F1000F9D101F02DFD90F8340000287DD0BDE8E6
:103F2000F0470021032003F0A9B858486421001F7E
:103F300002F088FF01F01CFD80F83E4001F018FD02
:103F400010F83C1F491C0170DDE701F011FDB0F8CD
:103F500040001428D7D901F00BFD80F83E6001F035
:103F600007FD10F83C1F491C0170CCE701F000FD73
:103F7000B0F84000B0F5FA7F07D901F0F9FC80F8FD
:103F80003E6045480660C5F8906101F01FFD407A2B
:103F9000022101F019FDB0B901F0EAFC90F84200ED
:103FA00088B901F0E5FC80F83E60C5F890416421D5
:103FB000384602F047FF6421404602F043FF0021EB
:103FC000084603F05BF8D5F8900100289BD101F07A
:103FD000CFFC90F83800000795D401F0C9FC10F828
:103FE0003C1F491C01708EE701F0F0FC407A022171
:103FF00001F0EAFCA0B901F0BBFC90F8420078B9EE
:10400000C5F890416421384602F01CFF6421404607
:1040100002F018FF0021084600E02FE003F02EF820
:1040200001F0A6FC90F8380080078DD401F0A0FCC8
:1040300090F83800400787D401F0C8FC407A01218D
:1040400001F0C2FC50B901F093FC90F8340028B99B
:1040500001F08EFC90F84200002886D0D9F80001CB
:104060000028C0D001F046FD447301F043FD067303
:10407000BDE8F0476321012003F000B8BDE8F04738
:104080000021022002F0FABF000023428481224274
:104090000080224200012342B081214270B501F02C
:1040A00067FC4B4D00692946FCF70AF9FCF704FA56
:1040B000484C606001F0E6FC006A2946FCF700F914
:1040C000FCF7FAF9206101F05DFC40692946FCF734
:1040D000F7F8FCF7F1F9E06101F0D4FC406B2946F8
:1040E000FCF7EEF8FCF7E8F9A06101F0CBFC006BFF
:1040F0002946FCF7E5F8FCF7DFF9E06201F038FC4F
:10410000806A2946FCF7DCF8FCF7D6F9206201F05A
:10411000B9FC406DA06301F0B5FC806D606401F0F6
:1041200097FC4068E06301F097FC00692946FCF7C2
:10413000C7F8FCF7C1F9A06401F08EFC406929467C
:10414000FCF7BEF8FCF7B8F9E06401F07DFC0078FC
:10415000A06001F017FC0069FCF7AEF9E06001F027
:1041600007FC406A2946FCF7ABF8FCF7A5F960614B
:1041700001F088FCC06C206401F0FAFBC06D206582
:1041800001F0F6FB006E606501F0F2FB806EA06549
:1041900001F0EEFBC06EE06501F0EAFB006F206607
:1041A00001F0E6FB806F606601F0E2FBC06F6066C5
:1041B00001F0DEFBD0F88000606601F0D9FBD0F89A
:1041C0008400206701F0D4FB90F85000606770BD58
:1041D0000000C842A002002008B503F025FB0090B3
:1041E0000521684603F0CCF901F0C6FB062815D27C
:1041F000DFE800F00306090C0F1200F07FF90DE074
:10420000FFF756FE0AE0FFF77DFB07E0FFF776FDBC
:1042100004E000F029F801E000F0B2F900F01AF82B
:10422000DEE700001FB500200649CDE90110062297
:104230000346009203904FF4007203A1044803F078
:1042400079FA1FBDD0030020494E5055540000009C
:10425000D941000810B501F071F802488168491D84
:10426000816010BDD00300202DE9F04101F0F4FB86
:10427000007B002501248149814FDFF80882824EAE
:1042800003287DD011DC50B3012831D002280AD197
:1042900001F078FB80697D49884262DC01F0DCFB3B
:1042A000017B491C0173BDE8F081042869D06328B3
:1042B000F9D1C8F8AC5101F0CFFB057001F0CCFB8F
:1042C000057301F0C9FB456001F052FB90F83D40D9
:1042D00001F060FB2146BDE8F04102F0CFBE01F0E5
:1042E000BBFB447001F0B8FB017B491C0173DAE7AA
:1042F00001F0B2FB00F1080401F0AEFB4068FBF7EF
:10430000DFFF3946FBF7DCFF2168FBF781FF206008
:1043100001F0A2FB016901F09FFB8068FCF71AF92C
:104320000AD801F099FB457001F096FB856001F019
:1043300093FB017B491C017301F08EFB4078002840
:10434000B1D001F027FB0228ADD101F01BFB407971
:1043500018B1BDE8F04102F011BDBDE8F04102F036
:1043600091BF01F00FFB40794FF0FF35B0B101F084
:104370006FFB00F10C04C0682946FCF711F801E05E
:1043800024E042E0206001F063FBC06800F0DCFD47
:1043900001F05EFBC06800F0EFFD12E001F072FB7F
:1043A00000F11C04C0692946FBF7FAFF206001F008
:1043B00069FBC06900F0C8FD01F064FBC06900F052
:1043C000DBFDBDE8F041642003F0B0B801F05AFB1A
:1043D000C56101F03DFBC560002000F0B5FD002087
:1043E00000F0CAFDC8F89C41C6F8B041C6F8A0412B
:1043F00001F032FB0221017001F02EFB447001F04C
:104400002BFB017B491C01734DE701F025FB00F1FB
:10441000080401F021FB4068FBF752FF3946FBF727
:104420004FFF2168FBF7F4FE206001F015FB4169A6
:1044300001F012FB8068FCF78DF807D8C6F8A05190
:1044400001F00AFB457001F007FB856001F004FBF9
:1044500040780028D8D106F59A7630687168C0B2E5
:10446000490640EA1160B168890640EA11600228F5
:10447000CAD001F0F1FA6321017314E78D7A883C08
:104480000AD7233C008022420080214200002041C4
:1044900008B503F0C9F90090084D1E2402216846B2
:1044A00003F06EF82868B0FBF4F104FB110008B9C2
:1044B00000F01EF82868401C2860EFE77400002018
:1044C0001FB500200649CDE90110072203460092DE
:1044D00003904FF4807203A1044803F02BF91FBD31
:1044E0006804002053455249414C000091440008A3
:1044F000014801F09BBE00000044004010B501F0EF
:1045000037FA90F83C0048B101281AD0632817D137
:104510000021BDE81040012002F0B0BD01F028FAF2
:1045200090F8380080070BD401F022FA90F8380098
:10453000400705D401F01CFA10F83C1F491C01701B
:1045400010BD01F043FA407A012101F03DFA88B92B
:1045500001F03CFA407A022101F036FA50B901F03C
:1045600007FA90F8340028B901F002FA90F84200F6
:104570000028E5D06321BDE81040002002F07EBD98
:104580002DE9F04101F0F4F990F83C0000260125F6
:10459000904F914C03287DD01DDC50B3012873D07F
:1045A000022816D14FF47A7002F0C0FFD7F8080144
:1045B000002870D0D7F8040100280AD0C4F8B451FC
:1045C00001F098FA057401F0D3F910F83C1F491C6A
:1045D0000170BDE8F081042875D06328F9D1D7F8BF
:1045E0000001002870D0BDE8F0410421012002F054
:1045F00045BD01F07FFA007C08B1C4F8B45101F068
:10460000E5F9417A21F00101417201F0BBF98069BD
:104610007249884206DC01F0ABF910F83C1F491CD6
:104620000170D6E701F0AEF940794FF0FF3598B14F
:1046300001F00EFA00F10C04C0682946FBF7B0FE49
:10464000206001F005FAC06800F07EFC01F000FA7D
:10465000C06800F091FC12E001F014FA00F11C04B3
:10466000C0692946FBF79CFE206001F00BFAC06987
:1046700000F06AFC01F006FAC06900F07DFCBDE8BC
:10468000F041642002F052BF01F0E2F9C66001F08F
:10469000F9F901E03AE018E0C66101F073F9067734
:1046A000002000F051FC002000F066FCC4F89C5192
:1046B00064214B4802F0C6FB01F05AF910F83C1F88
:1046C000491C017085E762E07DE001F013FA007C8F
:1046D00030B101F04DF910F83C1F491C017078E72A
:1046E00001F046F990F8750020B901F041F990F811
:1046F000760028B1BDE8F0410421052002F0BEBCDF
:10470000BDE8F0416321052002F0B8BCC4F898511F
:1047100001F02EF990F858000028D3D001F028F9C4
:1047200080F858602E480A21203002F08BFBC4F834
:10473000B461C4F8986101F0DDF9067401F018F96C
:10474000816B21F48061816301F012F9816B21F4A6
:104750008021816301F00CF9816B21F400218163D8
:1047600001F006F990F8750020B901F001F990F810
:10477000760030B101F0FCF810F83C1F491C0170C4
:1047800027E7BDE8F0416321052002F077BC01F086
:10479000EFF890F87500002894D101F0E9F890F84E
:1047A000760000288ED101F0A5F9007C28B1BDE883
:1047B000F0410321052002F061BCBDE8F041632116
:1047C000052002F05BBCBDE8F0410021084602F084
:1047D00055BC00000000234200802242000020411E
:1047E0009881224210B51D480068002823D001F0AE
:1047F000BFF890F83800000628D419480168CCB2F8
:1048000041688068490644EA1164800644EA1064FD
:1048100001F0AEF8816B21F0780181631148D0F886
:10482000900100B174B101F0A3F8816B641C41EAFE
:10483000C401816310BD01F09BF8816B21F0780108
:10484000816310BDBDE8104001F092B801F090F80E
:10485000816B21F07801816310BD0000300123429B
:10486000348121420080224208B502F0DDFF009031
:10487000DF4F0124DFF87C934FF4807A002502217A
:10488000684602F07DFEDC4ED6F8B00108B9FFF7AD
:10489000A9FF01220221D94801F030F801220421A8
:1048A000D74801F02BF8D548012280210C3001F0C7
:1048B00025F8D24801225146103001F01FF8CF48A8
:1048C00001225102143001F019F8CC480122D10222
:1048D000143801F013F8C94801221103103801F00F
:1048E0000DF8C648012251030C3801F007F8C348FF
:1048F00001229103083801F001F801F0A5F80078D1
:10490000182101F0ADF8804601F0BCF880F8248051
:1049100001F09AF80078042101F0A2F8DFF8E482AF
:10492000C8F8A00101F028F8022826D101F0E2F829
:10493000007BC82821D33868B349884206DA01F0E1
:1049400017F8816B41F48021816305E001F010F8D4
:10495000816B21F4802181633868AC49884206DA92
:1049600001F006F8816B41F40021816305E000F05D
:10497000FFFF816B21F40021816300F0F9FF90F8C3
:104980003500A0B100F0F4FFC475C6F89441A0480A
:10499000006830B300F0ECFF057600F0E9FF90F816
:1049A000500070B300F0E4FFC07D58B336E000F073
:1049B000DFFFD0F828B001F065F8C0685946FBF772
:1049C000BFFD05D200F0D4FFC575C6F89451DEE7EF
:1049D00000F0CEFFC475C6F8944100F0D3FF4571D6
:1049E000D5E700F0C5FF90F83800C0F3C3000128F8
:1049F00003D000F0BDFF0476CFE700F0B9FF0576E5
:104A0000CBE70BE0FFE700F0BDFF447101F03AF89F
:104A100080F83C4001F036F880F84440D8F8A00116
:104A2000A8B1D9F80C0140B100F0A2FF80F84240D3
:104A300000F09EFF80F8435011E000F099FF90F8DD
:104A4000420060B100F094FF80F8434007E000F0BE
:104A50008FFF80F8425000F08BFF80F8435000F049
:104A600087FFD0F8108000F083FF406A6949FBF7A8
:104A700027FC4146FBF756FC804600F083FFC0F858
:104A80000C8000F075FF016963480068FBF718FCB3
:104A90006249FBF747FC804600F074FFC0F81880BD
:104AA00000F0F0FF90F8240000F0F0FF804600F0E6
:104AB000E9FFC0F8088000F05BFF008F40050BD5D0
:104AC00001F018F8017E01F015F8807C814203D0D6
:104AD0003221534802F0C0F901F00CF8817C01F05A
:104AE00009F8017600F044FF007828B3D6F8B00149
:104AF00088B900F03DFF90F8380010F0780F0AD028
:104B000000F0F8FF047400F037FF052803D00021FF
:104B1000052002F0B3FA00F02BFF806B41490842F8
:104B20000AD000F0E7FF047400F026FF052803D048
:104B30000021052002F0A2FA3B480068FBF7BCFC0C
:104B400081B20022394800F045FF3949FBF7B8FB34
:104B5000064600F00DFFC66000F00AFFD0F8846042
:104B600000F006FFD0F88000864204D001F0A0FEDD
:104B700002F0E4F90BE000F0FBFE80F8755000F065
:104B8000F7FE80F8884000F0F3FE80F8745000F0E3
:104B9000EFFE90F8750020B900F0EAFE90F876007C
:104BA00058B100F0E9FE022807D000F0E5FE052824
:104BB00003D00021052002F061FA1E4E307828B1A2
:104BC00013480A21283002F03DF93570D9F8000168
:104BD000707000F08FFF807B30B1FFF75FFAFEF757
:104BE0004FFD00F087FF8573FCF7C2FF47E600002A
:104BF000E8000020000023420080214228012342D7
:104C000024812142000021420000E1430000EB43E7
:104C10009081224233335340D4000020A3AB684537
:104C2000BC01214286F30700E0000020A87B0008B9
:104C3000CDCCCC3D780000201FB500200649CDE941
:104C4000011005220346009203904FF4807203A1E5
:104C5000054802F06FFD1FBD7404002053555045F8
:104C600052564953494F52006948000810B5012176
:104C70004FF0C050FDF724F8BDE810400120FCF7CC
:104C8000FBBF00000D4B8118994201D903207047EA
:104C900012B10123002109E0002070470378FF2BA7
:104CA00001D0022070470023401C491C9142F5D3DB
:104CB000012B01D00120704700207047000004083C
:104CC0006FF30A00704710B54FF44070FCF7B8FF5F
:104CD000FFF7CCFF00F0A4F800F02BF800F005F887
:104CE00000F008FF0121017010BDFEB5E020FCF7C7
:104CF000CFFF0120FCF7C6FF01248DF808400825EE
:104D00008DF8095000278DF80A708DF80B4002A825
:104D1000FCF764FF26043046FCF78AFC00968DF809
:104D200004708DF805508DF806406846FCF796FC37
:104D3000FEBD7CB500240420FBF7D8FD45F25005EC
:104D4000A84245D0FBF7BCFD0120FDF749F804E07F
:104D5000641CE4B20A2000F023F94120FDF728F892
:104D60000028F5D0FA2C01D301207CBD4FF48070CF
:104D7000FDF750F80120FDF747F8FDF741FAFDF780
:104D800047FA01210846FDF793F9FDF739FAFDF7D7
:104D900051F80020FDF714FAFDF732FA47F6FF70DC
:104DA000FDF71EFAFDF72CFA00200221CDE90010D4
:104DB0000B230922052140F2E770FDF797F9FDF773
:104DC0001FFAFDF73FF829460420FBF7A5FD07E091
:104DD000FDF71EFA01210846FDF76AF9FDF710FA02
:104DE00000210320FDF772F9FDF734F800207CBDA7
:104DF00010B50A4C8318A34201D9012010BD0AB195
:104E0000002306E0012010BD10F8014B01F8014B12
:104E10005B1C9342F8D3002010BD00000000040882
:104E200008B50020FBF76CFD0020FBF759FD0120C1
:104E3000FBF76CFDFBF734FD02208DF80000082025
:104E40008DF8010000208DF8020001208DF803008C
:104E50006846FCF7C3FE0120FBF742FD0120FBF78B
:104E60004FFD08BD2DE9F04107468846164604254A
:104E70002549B819884202D90120BDE8F0811EB148
:104E8000F00703D00120F8E70020F6E7324641465C
:104E90003846FFF7F7FE044654B1012080F310882E
:104EA000FCF770FC3520FCF713FC022C02D00BE061
:104EB0000020E2E73846FFF703FFFCF70FFC05464A
:104EC000042D01D00220D8E700240EE018F81400C9
:104ED00008EB4401497840EA01213846FCF738FCE8
:104EE0000546042D04D1BF1C641CB4EB560FEDD352
:104EF000FCF726FC002080F31088042D01D002204E
:104F0000BBE70020B9E700000000040830B5DDE988
:104F1000034501608280C3800481458130BD027BEE
:104F2000C37A42EA03220A80827B437B42EA03225D
:104F30004A80027CC37B42EA03228A80827C407CD6
:104F400042EA0020C880704710B50849FBF7EAF92B
:104F50000749FBF7B5F9FBF7AFFA81B205480180C5
:104F6000BDE810400020FCF733BA00003333534053
:104F700000F07F458A00002010B50749FBF7D2F901
:104F80000649FBF79DF9FBF797FA81B2BDE810409F
:104F90000020FCF727BA00003333534000F07F4570
:104FA00010B50022044C04E02146491E4B1CFCD1E4
:104FB000521C8242F8DB10BD4019010030B591B09F
:104FC00001210846FCF76EFE484D2846FCF72EFAF4
:104FD0004748019047480290002403943C210491E3
:104FE00005948021069149000791880008902020AF
:104FF000099000020A900B9401A92846FCF795FA43
:1050000001212846FCF704FA01214802FCF766FE5C
:1050100000213948FBF70EFD00213848FBF70AFD57
:1050200000213748FBF706FD00213648FBF702FD5B
:1050300000213548FBF7FEFC00213448FBF7FAFC61
:105040000C9401208DF834008DF835004FF4602069
:105050000E900F9406208DF84000254C0CA94C3C76
:105060002046FBF797FB0723012206212046FBF78A
:10507000B5FB0723022219462046FBF7AFFB0723A7
:10508000032208212046FBF7A9FB0723042209215C
:105090002046FBF7A3FB072305220E212046FBF742
:1050A0009DFB072306220F212046FBF797FB0121DA
:1050B0002046FBF755FB01212046FBF745FB204628
:1050C000FBF7C6FB2046FBF75EFB0028FAD1204623
:1050D000FBF7CFFB2046FBF74FFB0028FAD101215D
:1050E0002046FBF7BAFB11B030BD000008000240BB
:1050F0004C24014000050020A47C0008AC7C000882
:10510000D47C0008DC7C00085C7D0008647D00081D
:1051100030B591B001210220FCF7C4FD484D28466E
:10512000FCF784F947480190474802900024039413
:105130003C21049105948021069149000791880043
:1051400008902020099000020A900B9401A928469B
:10515000FCF7EBF901212846FCF75AF90121C803B5
:10516000FCF7BCFD00213948FBF764FC00213848FE
:10517000FBF760FC00213748FBF75CFC0021364858
:10518000FBF758FC00213548FBF754FC002134485C
:10519000FBF750FC0C9401208DF834008DF835009D
:1051A0004FF460200E900F9406208DF84000254C9F
:1051B0000CA94C3C2046FBF7EDFA07230122002105
:1051C0002046FBF70BFB0723022201212046FBF7B9
:1051D00005FB072303220A212046FBF7FFFA0723DA
:1051E00004220B212046FBF7F9FA072305220C21A4
:1051F0002046FBF7F3FA072306220D212046FBF792
:10520000EDFA01212046FBF7ABFA01212046FBF71E
:105210009BFA2046FBF71CFB2046FBF7B4FA00285C
:10522000FAD12046FBF725FB2046FBF7A5FA00281C
:10523000FAD101212046FBF710FB11B030BD000070
:10524000580402404C3C014078050020747C000862
:105250007C7C00083C7D0008447D00084C7D0008F3
:10526000547D000808B5002100910323632240F615
:105270000F61FBF7DBFC08BD70B586B000240F485A
:105280000525A0F108034FF6FF7600900194CDE9C3
:10529000024540F2CF22314604940948FBF716FC40
:1052A000064B0194CDE90245049408332F22314680
:1052B00004480094FBF70AFC06B070BD040100200E
:1052C000000800400034014000B51A49002801D010
:1052D00000200870087808B1002000BD0120087087
:1052E000154B991D184600F051F808B1012000BD7A
:1052F000D91D581C00F04AF808B1022000BD0E4923
:10530000981C083100F042F808B1032000BD0A499A
:10531000D81C093100F03AF808B1042000BD064954
:10532000181D0A3100F032F808B1052000BD002038
:1053300000BD00008C000020CC04002070B5104D92
:1053400004212846FCF7A9FA0E4C207002212846B9
:10535000FCF7A3FAE07020210B48FCF79EFA60707E
:1053600008212846FCF799FAA07001212846FCF78D
:1053700094FA20710120FFF7A7FFE07270BD0000D2
:1053800000180140CC040020000801400246002023
:105390001278002A02D0012A06D103E00A78521CB2
:1053A0000A7001E000220A7009780A2900D9012058
:1053B000704700002DE9FC470646DDE90A950C9C84
:1053C0000F46904618461021FBF734FBCDE90054F8
:1053D0004B46424639463046FBF726FD8021304693
:1053E000FDF738FFFBF7E0FC40213046FDF732FFC8
:1053F000FBF7DAFC024901200860BDE8FC870000E9
:10540000BC8122423EB505460C4618210848FBF7F0
:1054100011FB48210748FBF70DFBCDE901540220A1
:1054200000900723082200210348FBF77FFA3EBDC6
:10543000C47C0008BC7C0008006400401FB501214A
:105440004807FCF73DFC00210A48FBF7F3FA00206F
:105450000090019002900220039069460020FBF723
:10546000A3FF01210020FBF78FFF00210846FBF777
:10547000AFFF1FBD947C00081FB501214807FCF752
:105480001FFC00210A48FBF7D5FA0020009001908C
:1054900002900220039069461020FBF785FF01214E
:1054A0001020FBF771FF00210846FBF79BFF1FBD93
:1054B0009C7C00087CB50546DDE90640CDE900404E
:1054C0002846FBF7B1FC80212846FDF7C3FEFBF719
:1054D0006BFC40212846FDF7BDFEBDE87C40FBF794
:1054E00063BC70B505460C4645F25550FCF756FBBB
:1054F0002846FCF747FB2046FCF74AFBFCF73AFB43
:10550000BDE87040FCF72CBB2DE9FE4300F080F8AD
:1055100000F0ECF900F02CFA90F83800C00701D147
:1055200000F0CEF9002441F61F4506232A466321E8
:105530004FF080400094FBF779FB05232A46632156
:1055400027480094FBF772FBFFF738FDFFF7E0FDFB
:105550002448FFF787FE2448FFF784FEFFF76EFF1D
:10556000FFF78AFFFFF788FE00210220FFF74AFFBE
:1055700040F27D5540F61D07CDE9007540F22A380E
:1055800040F27F764346324640F20A211748FFF741
:10559000BDFC2B46424640F209211548CDE9006783
:1055A000FFF7B4FC0420CDE900044FF4E133114AC5
:1055B00011491248FFF77EFF0320CDE901044FF4A3
:1055C000165100910E4B0F4A0F491048FFF7F2FE9B
:1055D00003B040F63541BDE8F0430420FFF781BF3A
:1055E000000C00400010004000140040B4040020F3
:1055F000C00400208C7C0008847C0008004400402B
:10560000EC7D0008147D00080C7D00080048004077
:1056100010B510218348FBF70DFA10218248FBF7E3
:1056200009FA28218148FBF705FA10218048FBF789
:1056300001FA28217F48FBF7FDF928217E48FBF776
:10564000F9F928217D48FBF7F5F928217C48FBF77B
:10565000F1F928217B48FBF7EDF910217A48FBF797
:10566000E9F910217948FBF7E5F910217848FBF7B3
:10567000E1F910217748FBF7DDF910217648FBF7B7
:10568000D9F910217548FBF7D5F910217448FBF7BB
:10569000D1F910217348FBF7CDF910217248FBF7BF
:1056A000C9F910217148FBF7C5F910217048FBF7C3
:1056B000C1F910216F48FBF7BDF910216E48FBF7C7
:1056C000B9F910216D48FBF7B5F910216C48FBF7CB
:1056D000B1F910216B48FBF7ADF928216A48FBF7B7
:1056E000A9F928216948FBF7A5F928216848FBF7A3
:1056F000A1F928216748FBF79DF928216648FBF7A7
:1057000099F928216548FBF795F928216448FBF7AA
:1057100091F928216348FBF78DF928216248FBF7AE
:1057200089F928216148FBF785F928216048FBF7B2
:1057300081F928215F48FBF77DF928215E48FBF7B6
:1057400079F93848FBF789F93748FBF786F9374884
:10575000FBF783F93648FBF780F93648FBF77DF90C
:105760003548FBF77AF93548FBF777F93448FBF70A
:1057700074F93448FBF771F93348FBF76EF9344894
:10578000FBF76BF93348FBF768F93348FBF765F92A
:105790003248FBF762F93248FBF75FF93148FBF713
:1057A0005CF93148FBF759F93048FBF756F93048B6
:1057B000FBF753F92F48FBF750F92F48FBF74DF94A
:1057C0002E48FBF74AF92E48FBF747F92D48FBF71F
:1057D00044F92D48FBF741F92D48FBF73EF92D48D8
:1057E000FBF73BF92C48FBF738F92C48FBF735F968
:1057F0002B48FBF732F92B48FBF72FF92A48FBF728
:105800002CF92A48FBF729F92948FBF726F92948FA
:10581000FBF723F92848FBF720F928480121C1614B
:10582000016010BDB47C0008CC7C0008047D000839
:105830001C7D0008247D00082C7D0008347D0008B4
:105840004C7E0008747D0008E47C0008FC7C0008A5
:105850007C7D0008847D00088C7D00089C7D00080C
:10586000A47D0008947D0008AC7D0008B47D00088C
:10587000BC7D0008C47D0008CC7D0008D47D0008F4
:10588000DC7D0008E47D0008F47D0008FC7D000854
:10589000047E00080C7E0008147E00081C7E0008B0
:1058A000247E00082C7E0008347E00083C7E000820
:1058B000547E00085C7E0008647E0008A00121423E
:1058C00010B5084C0120E06020620749C1F8B00122
:1058D0002060A0626420FFF763FB0020A0622062CA
:1058E00010BD000090812242008021420023062248
:1058F00008210148FBF767B8447E000810B50C4644
:105900000068904205D100F033F8816B2143816338
:1059100010BD00F02DF8816BA143816310BD000024
:1059200010B5002821D0114B0022001F196803E098
:10593000814203D80A4649680029F9D152B1136857
:10594000841A9C4204D1006818441060104602E09A
:10595000506000E0186039B102680B1A934203D11D
:105960000B681A4402604968416010BD6002002063
:1059700000487047DC0300200148007870470000B1
:105980006E00002000487047240300200048704744
:10599000BC03002001484078704700006E000020E2
:1059A0000649020005D0012A07D105480068FAF728
:1059B00087BC04480068FAF783BC70473333534010
:1059C000F8000020DC0000200840704700487047C5
:1059D000940200202DE9F04105460E461746314657
:1059E000284601F07AF804462888B04202D23846A8
:1059F000BDE8F081B5F8C800B04205D33846BDE82F
:105A0000F0411049FAF704BC611C35F8140015F890
:105A10001110411AC9B2801B00EB8000400090FBBE
:105A2000F1F0FAF73BFD054604EB84004000FAF77D
:105A30003EFD3946FAF7ECFB2946BDE8F041FAF79E
:105A4000E7BB000000007A44004870476C0000206B
:105A50000048704748030020004870479C0400201D
:105A6000032907D0042908D0182902D100F0180012
:105A7000C008704700F00300704700F00400800881
:105A800070470000004870475C03002010B501001B
:105A900014D0012916D0022918D003290DD1FFF7FF
:105AA00067FFC16A11480068FAF70AFC0146FFF770
:105AB000E9FF8161FFF7E6FF806910BDFFF7E2FFB4
:105AC000C06810BDFFF7DEFF006910BDFFF750FF93
:105AD000C16A07480068FAF7F3FB0146FFF7D2FFF7
